:020000040800F2
:1000000000000420D5DA000891D8000895D800082F
:1000100099D800089DD80008A1D8000825DB000861
:1000200000000000000000000000000071800108D6
:10003000A5D800080000000001800108D958010877
:1000400025DB000825DB000825DB000825DB000890
:1000500025DB000825DB000825DB000825DB000880
:1000600025DB000825DB000825DB000825DB000870
:1000700025DB000825DB000825DB000825DB000860
:1000800025DB000825DB000825DB000825DB000850
:1000900025DB000825DB000825DB000825DB000840
:1000A00025DB000825DB000825DB000825DB000830
:1000B00025DB0008A9D80008B5D8000825DB000812
:1000C00025DB000825DB000825DB000825DB000810
:1000D00025DB000825DB000825DB0008C1D8000867
:1000E000CDD8000825DB0008D9D8000825DB00089A
:1000F00025DB000825DB000825DB000825DB0008E0
:1001000025DB0008E5D80008F1D8000825DB000849
:1001100025DB000825DB000825DB000825DB0008BF
:1001200025DB0008FDD8000809D9000825DB0008F8
:1001300015D9000825DB000825DB000825DB0008B1
:1001400025DB000825DB000821D9000825DB000895
:1001500025DB000825DB000825DB000825DB00087F
:1001600025DB00082DD9000825DB000825DB000869
:1001700025DB00080000000025DB0008000000006F
:1001800039D9000825DB000825DB000825DB00083D
:1001900025DB000825DB000825DB000825DB00083F
:1001A00025DB000825DB000825DB000825DB00082F
:1001B00025DB00080000000045D9000825DB000809
:1001C00025DB00080000000025DB000825DB000817
:1001D00025DB000825DB000825DB000825DB0008FF
:1001E00025DB000825DB000825DB000825DB0008EF
:0401F000000000000B
:1002000010B5054C237833B9044B13B10448AFF350
:1002100000800123237010BD480703200000000068
:100220002C9B010808B5034B1BB103490348AFF3EE
:10023000008008BD000000004C0703202C9B010833
:1002400010F8012B11F8013B012A28BF9A42F7D080
:10025000D01A7047034613F8012B002AFBD1181A55
:1002600001387047704700BF2DE9F041234C244D01
:10027000244E254FDFF8948082B04FF0FF330222E6
:1002800020680DF1060116F09FF9022807D02B789F
:10029000012B29D0012130460CF0C0FDEDE742F2E0
:1002A0000303BDF806209A42F1D841464FF0FF33D0
:1002B000206816F089F9BDF806108142E7D1404662
:1002C00006F0CCFE0028D8D12B78BDF80610012B03
:1002D0000E480DD005F066F80128CED12B78B3FA80
:1002E00083F35B092B70C8E738460CF005FEC4E7C2
:1002F00003F03AFE0128C0D1F0E700BF68080320F0
:100300003C08032058A7010838A701083CB7002083
:100310002DE9F04F7E4CDFF81482DFF808927D4F14
:100320007D4E9BB04FF0FF3328226946206816F0BF
:100330004BF92828F6D103980CF07CFF8246002860
:1003400040F09380029B002B6DD10098D8F80030CC
:10035000984200F0928051460AAA06F09FFE16F0DD
:10036000C1FC0AA90246684607F0F0FD16F0BAFC87
:100370000AA90246684609F0E7FC16F0B3FC0AA990
:100380000246684606F068FE3B78002BCAD0069B02
:10039000B3F5001F7FD00121BAF1080F28BF4FF03D
:1003A000080A00200D465FFA8AFADDE90132002AC8
:1003B00069D13144002B00F09D80542333540098C0
:1003C0000CF0DEFD0544EDB2069B7119B3F5001F7C
:1003D0006CD00AF00F000CF051FE0544EDB2BAF1FA
:1003E000000F0BD00AAB9B469A441BF8010B711906
:1003F0000CF034FEDA450544EDB2F6D1FB78002B63
:100400005CD17B791BB1069BB3F5001F76D00D2321
:10041000691C4148C9B273550CF000FD002881D019
:1004200000233B707EE7B3F1005FA6D1009BB3F5DC
:10043000E06FA2D1C9F80030039B0199082B28BFB7
:1004400008231A460023C9F80410C9F80C203349C0
:1004500008223348C9E90533C9F808300CF0F6FE24
:100460002F49304803F0ECFB87E702464FF0FF339B
:1004700020680AA916F0A8F864E72B492B4803F076
:10048000DFFB009867E753B352234FF0000A335461
:100490003144009894E7059B0221B3F5801F14BFF7
:1004A0003023312301200D4633707EE7039800F09E
:1004B0000F000CF0E3FD2B18DDB290E716F012FCF4
:1004C0004EF660221A4B7119A3FB00C39B0B02FB73
:1004D000130080B20CF0A0FD2B18DDB291E79A4614
:1004E000722333540098314480B20CF07FFD2B18F6
:1004F000DDB269E7742333540098F5E7049BB3F148
:10050000004F84D1692373550135EDB27FE700BFF9
:10051000E43B03206C0103203CB500209005FA0B5E
:100520006C07032078070320383D0320403D03205B
:1005300073B2E7452DE9F0411F4DDFF884801F4F6E
:100540009AB0002404EBC40101AEC4F124024FF0C0
:10055000FF33286806EB810116F036F80444232C9B
:10056000F0D904980CF066FE039B0646B3F1005FD9
:1005700000D0A0B938460EF0F3F850B138460AAAB8
:1005800001A90DF0A7FFD8F80C300133C8F80C30E2
:10059000D7E74FF0FF31012017F05CF8EAE70024BD
:1005A0000AA9321B21444FF0FF33286816F00CF8DB
:1005B0000444A642F4D8DDE7E03B0320482B0320A7
:1005C000100003202DE9F04182B006F061FD03F038
:1005D0003BFA07F0BBFD00F0C7FD0AF02DF916F05D
:1005E00081FB06F02FFD16F07DFB06F02FFD244861
:1005F00012F060F8234812F025F82349234809F047
:10060000C1FA234F08F070FA224DDFF89080224E95
:1006100005E001330CD10A2101A816F0CBFC16F03D
:1006200061FB3B68019001332B68F2D101330BD0A1
:100630004FF47A7401E0013CEDD03146284603F0D6
:10064000FFFA0028F7D0E6E70AF0F4F801980AF07C
:10065000F9F8019800F08AFD98F800304BB1019844
:1006600006F0FEFC019807F06FFC019809F0A0FA73
:10067000D1E7019806F05AFE019806F0E5FCEEE796
:1006800080280320E8270320581B0320E8290320A3
:10069000403D0320143D03200C3D03209200032025
:1006A0002DE9F04700272B4D2B4EDFF8B0A0DFF8E7
:1006B000B090DFF8B080A4B016E0630203D53379C0
:1006C00043F08003337199F8003033B1099B23B1B3
:1006D000642015F097F903F0B7F9002302221946B8
:1006E000D8F8000017F02CF84FF0FF31012016F079
:1006F000B1FF17F08FFB28460EF088F9044604A9D5
:1007000028460DF0E9FF694628460EF00DF8542200
:1007100031460FA8B46018F094FC2F66169BB3F511
:10072000003F02D9B3689A020CD417F081FB9AF803
:100730000030012BC1D1234668460FAA04A906F058
:1007400009FFBAE7012386F82030099303F006FA7F
:10075000EBE700BF482B032010000320E03D0320FF
:10076000680703200820032000232DE9F04784B008
:100770005B4C5C4D5C4FDFF87481DFF874910DF1D8
:100780000E068DF80B3004E04FF0FF31002016F01C
:1007900061FF206815F040FE0028F5D04FF0FF33D0
:1007A000012220680DF10B0115F00EFF0128EBD19D
:1007B000206815F031FE0128E6D94FF0FF33022200
:1007C000206803A915F000FF0228DDD1BDF80C2038
:1007D000B2F5805FD8D2002A55D19DF80BA0BAF1AE
:1007E000000F16D116F07EFA3B462946BDF80C20C4
:1007F00000960BF0F1FABDF80E30002B56D116F032
:1008000071FA3B462946BDF80C2000960CF09EFA82
:10081000BAE716F067FA344B3249BDF80C2000965F
:100820000CF030FABDF80E301BB33A787F2A08D1AD
:10083000022B1ED9BB78A3F11102012A19D9312B41
:1008400017D04FF0FF3302223146D8F8000015F0E0
:10085000F1FD4FF0FF332449BDF80E20D8F8000019
:1008600015F0E8FD002302221946D9F8000016F021
:1008700067FF16F037FA1C4B1A49BDF80C2000969A
:100880000CF064FA80E74FF0000AA2EB0A0205EBD5
:100890000A014FF0FF33206815F096FEBDF80C20DA
:1008A00050441FFA80FA5245EFD196E731464FF097
:1008B000FF330222D8F8000015F0BCFDBDF80E2071
:1008C0004FF0FF330849D8F8000015F0B3FD534648
:1008D00002225146D9F8000016F032FF8FE700BF20
:1008E000A807032038A5002038950020A40703207E
:1008F000480D03202DE9F84F2A4E2B4DDFF8ACA010
:1009000006F11C0706F5805B06F11408A6F5805970
:1009100004E04FF0FF31002016F09CFE286815F02F
:100920007BFD0128F5D94FF0FF33022241462868AC
:1009300015F04AFE0228ECD1B28AB2F5805FE8D207
:1009400062B10024121B39194FF0FF33286815F0EB
:100950003BFEB28A204484B2A242F3D116F0C2F91F
:100960000146484607F022FE0028D2D116F0BAF917
:100970000BF094F90128CCD0286815F04DFD012822
:10098000C7D89AF8003053B19BF8230015F03AF815
:1009900016F0A8F90BF082F90128BAD0ECE70A208A
:1009A000F4E700BF8C3D0220A4070320920003203F
:1009B00038B50D490D480CF003FA0B4A0C490D48A7
:1009C00017F0A4FD094D0C4C21464FF0FF334FF4B6
:1009D0000062286815F0F8FD01460028F4D0204692
:1009E0000CF006FAF0E700BF980803204008032047
:1009F000BC2403206808032040D7002006F040BB39
:100A0000002006F041BB00BF0022024B02481A60E2
:100A100011F050BE6407032034280320014B1868EE
:100A2000704700BF6407032030B59FB04822002103
:100A30000CA818F0A6F900234FF40070CDE902339A
:100A4000CDE90433CDE90733CDE9093301930693AA
:100A50000B930FF0F5FF08B172B6FEE701230222F7
:100A6000169311931993179210231D9207229FED4D
:100A70001E7BCDE91A320324042312900CA81C9388
:100A80008DED0C7B189410F01DFA034608B172B678
:100A9000FEE70F22214601A8CDE903330593029416
:100AA000019210F0BDF8034608B172B6FEE7104A95
:100AB0004FF00055916D4BF67F3441F08071916598
:100AC000926D069302F080720092089322222023F6
:100AD00006A8CDE90A2300990795099411F050F969
:100AE0001FB030BDAFF300802900000000000100FE
:100AF00000100240F0B593B072B64FF00062A84B00
:100B00009A60BFF34F8F62B600250DF00DF808F024
:100B1000B1F8FFF789FFCDE90D55CDE90F55A14C8F
:100B20001195E36C4FF4604143F00403E364E36C1C
:100B30002A4603F004030693069BE36C9A4843F0AD
:100B40008003E364E36C012603F080030793079BB3
:100B5000E36C082743F00103E364E36C03F0010353
:100B60000893089BE36C43F00203E364E36C03F037
:100B700002030993099B0EF0EDFB2A4640F2011196
:100B80008A480EF0E7FB2A4641F2E40188480EF05D
:100B9000E1FB4FF4604384480DA9CDE90D360F9574
:100BA00010950EF019FA40F2011380480DA9CDE915
:100BB0000D36CDE90F550EF00FFA41F2E4037C48F3
:100BC0000DA9CDE90D36CDE90F550EF005FA79489E
:100BD0000DA9CDE90D750F950EF0FEF9A36C052159
:100BE00043F00403A364A36C2A4603F004030393B5
:100BF000039BA36C1D203343A364A36C3340049375
:100C0000049BA36C43F00203A364A36C03F00203F0
:100C10000593059B0CF0BEFF1D200CF0F7FF2A4644
:100C200005211E200CF0B6FF1E200CF0EFFF2A4617
:100C3000052150200CF0AEFF50200CF0E7FF2846B5
:100C40000EF010FF08B172B6FEE70EF01FFF03466C
:100C500040B959484360594B036011F0B9F818B1D5
:100C600072B6FEE772B6FEE710224FF44071544BA5
:100C70000F241870534B99609A619A623C21132299
:100C8000C3E907120422C3E90B424F4A5860D860F7
:100C90009874D8631846C3E90D661E825E615E6271
:100CA0001A600DF049FA034668BB4FF0FF31474A1E
:100CB0004FF4827CC2E90500C2E90100D0601160F6
:100CC00007224FF4E0654FF400744148C0E90A324E
:100CD000404AC0E90433C0E90833C2E90533C2E938
:100CE000013383600363D3603B4BC7610360476399
:100CF000C0F804C0C5608461116011F095FA034624
:100D000018B172B6FEE772B6FEE73448344AC0E95D
:100D100005338380026006620CF0AAFF034608B127
:100D200072B6FEE74FF4027102222E48C3722E4BB8
:100D300081800360C0F807200EF0B2FE034608B1C0
:100D400072B6FEE741F63F75284C294ACDE90D0001
:100D50000F902046C4E90133A3612260E56011F0E1
:100D6000BDFE034608B172B6FEE720460DA90D93FD
:100D70000F9311F0E5FE034608B172B6FEE71D4879
:100D80001D4ACDE90D33026042F20F72C0E902350F
:100D90000F938361426011F0A1FE78B372B6FEE753
:100DA00000ED00E000100240000802420000024294
:100DB00000040242001C02424C2A032000080C429C
:100DC00068070320482B032000A40040403D032077
:100DD000E8290320143D032000380040AC2B0320F9
:100DE00000300240C024032000D4004034280320F7
:100DF00000140040802803200010004000238E488B
:100E00000DA90D930F9311F09BFE034608B172B626
:100E1000FEE74F254FF6FF748848C0E9043383602E
:100E20008361874BC460C0E9003511F057FE03466B
:100E300008B172B6FEE78348C0E90153C0E9034335
:100E4000C0E90533804B036011F048FE034608B14A
:100E500072B6FEE74FF080414FF0FF327B4CCDE998
:100E60000D00CDE90F00C4E901000A902061A061E6
:100E70002046CDE90B332160E26011F02FFE08B16E
:100E800072B6FEE74FF4805320460DA90D9311F082
:100E90004FFC034608B172B6FEE720460AA90A9342
:100EA0000C9311F04DFE044608B172B6FEE7684897
:100EB000684900902246684B0C7043F69820012147
:100EC00015F01CFA0546654E654A0096012115602D
:100ED000644B224643F6982015F010FA0546624E00
:100EE000624A009601211560614B224641F20100E1
:100EF00015F004FA02465F4E5F4D009601215F4BEC
:100F00002A6041F20100224615F0F8F95C4B5D4A77
:100F100001210092186022465B4B43F6982015F0A1
:100F2000EDF95A4B5A4A0121009222461860594B5A
:100F300043F6982015F0E2F9574B584E18602046BA
:100F400007F0D0F8204607F0E7F807F02FF915F082
:100F5000C9FE2A46524B5349009606F0E3FF524819
:100F60000AF0FAFA514806F053F85148514A5249EA
:100F700002F050FD0DA80D9407F070F810B90D9B0C
:100F8000002B55D014F0B6FC17F070F900214B4A35
:100F90004B4814F0DBFC04464A4B00214A4A4B48BC
:100FA0001C6014F0D3FC0446494B0021494A4A48CE
:100FB0001C6014F0CBFC04463F4B0021474A4848D4
:100FC0001C6014F0C3FC0446464B0021464A4748C7
:100FD0001C6014F0BBFC0446364B0021444A4548D3
:100FE0001C6014F0B3FC04462E4B0021424A4348D7
:100FF0001C6014F0ABFC0446414B0021414A4248BE
:101000001C6014F0A3FC0446404B0021404A4148B8
:101010001C6014F09BFC04463F4B00213F4A4048B3
:101020001C6014F093FC3F4B186014F075FCFEE755
:101030003D4806F0EBFFA5E780280320E8270320C2
:10104000004401409C27032000480140CC28032095
:101050006C0803203C080320D81901204408032011
:101060006808032040DF0020180803204008032000
:1010700034850020F4070320A807032030750020E2
:10108000A4070320D0070320983A0020E43B032064
:10109000AC07032000000020E03B03209C07032056
:1010A000A0070320F81103204C2A0320AC2B0320B7
:1010B000482B0320A8160320082003205CDA01082F
:1010C00069020008BC24032038DA01081103000873
:1010D000B824032014DA010835050008F0D9010806
:1010E000C5050008581B0320CCD90108A10600083B
:1010F000A8D901086907000884D90108F508000883
:10110000480D032060D90108B109000898080320A0
:101110003CD90108FD0900089408032018D90108EA
:10112000010A000890080320040029C0094A036846
:10113000934206D0084A93420AD0084A934205D007
:101140007047074A136801331360704705F090BF7A
:101150000CF0FCBC00140040002C014000100040CA
:101160006407032072B6FEE7704700BF024B0349D5
:10117000D87D02F069BB00BF700003201802032075
:1011800040F69E723B492DE9F04FB1F800803A4994
:101190003A4B0C681B88944204FB083383B064D834
:1011A00000204FF080424FF0300B354F354EDFF8C6
:1011B000DCA0354DDFF8D89004F1010E01973C44D6
:1011C000516A9942FCD3D9F810100130C1F3402C78
:1011D00011F480774CF0020CC0B24344C1F34021BB
:1011E00017D04FF0310731680A280AF801C001F121
:1011F0000101C1F30B0131602968277001F1010180
:10120000296013D9BEF1140F24D80EF1010E013458
:10121000D6E7306884F800B00AF800100130C0F357
:101220000B00306038462968013129600EF1010E4B
:10123000BEF57A6F01D00134C2E740F69F730120FA
:101240009E460D4A019F1360002307F80E3003B03D
:10125000BDE8F08F084B0020C3F800E00023019F99
:1012600007F80E3003B0BDE8F08FA6460120044F0A
:10127000EAE700BF0A0003203C2C032008000320FB
:10128000402C0320B43F0320B83F0320BC3F032081
:101290000004024270B500244FF0804101254FF652
:1012A000FF7086B0CDE90044CDE9024404940A6899
:1012B0001B4E22F001020A6032881A4B013A8A6200
:1012C0004C624D610A68184E2A430A601A6822F07F
:1012D00001021A6098625C625D611A682A431A60B2
:1012E00002F03CFC30462A464FF400710EF032F812
:1012F0004FF48072002369463046CDE90023029402
:101300000DF06AFE4FF40073032269463046CDE9C2
:101310000035039202940DF05FFE06B070BD00BF71
:101320000C0003200048014000040242F0B5BDF863
:101330001450012D3BD9302405F1FF3E1C70C1BB78
:10134000C0F38021BEF1010F01F130012FD0012740
:101350000A253E460DE00C460127013D20FA05F125
:1013600001F001016E1C01F130011AD0F4451EDAC2
:10137000664606F1010C8C4299551FFA8CFCEAD1A5
:101380000137FFB2052FE8D1C4F16104F445E4B29E
:1013900006F102060BDA03F80C4001271FFA86FC5F
:1013A000DBE7002A0CBF30253125F44549DB00205E
:1013B000F0BDC0F30071022D2144F8D001271C2597
:1013C0003E460DE00C460127013D20FA05F101F0F3
:1013D0000101112D01F130011AD0E645E7DD664625
:1013E00006F1010C8C4299551FFA8CFCEAD10137A9
:1013F000FFB2052FE8D1C4F16104F445E4B206F16F
:101400000206D4DA03F80C4001271FFA86FCDBE75A
:10141000E645CCDD31260CF10101B44289B203F876
:101420000C606BD08E45C2DD34465E5402260CF152
:101430000207BFB2C0F34041BE4501F1300126DCD6
:10144000B5E70CF10101AC4203F80C5089B26DD044
:1014500001277145ABDA30224C1C9542A4B25A5494
:1014600000F08680A645A2DD881C80B21A550022B5
:101470001A54F0BD0C4667460126013D21D320FADF
:1014800005F101F00101774501F130018FDA07F133
:10149000010C8C42D9551FFA8CFCEBD10136F6B207
:1014A000052E01D06746E8E7C4F16104E645E4B2E1
:1014B00007F102077FF77BAF0126BFB203F80C40AC
:1014C000DBE7002A0CBF302531257745BFF66FAF2B
:1014D0007A1CAC42DD5592B25FD001217245BFF655
:1014E00066AF3026541CB542A4B29E5472D0A645B5
:1014F0007FF75DAF023290B21E55B8E7042F26D0B9
:101500008E457FF754AFBE1CF6B20CF10207052ED4
:101510005C54BFB28ED17745BFF649AF30240CF191
:10152000030CDC5501261FFA8CF783E70137FFB265
:10153000052F8ED18E457FF73AAFC5F16105EDB22B
:101540000CF1020C5D5401271FFA8CF181E78E45E6
:101550007FF72DAF30265E540CF1020189B28E4523
:101560007FF725AF0CF1030701265C54BFB261E79A
:101570007A1CD2B2052A1FD0A6457FF718AF881C67
:10158000042A1D5580B27FF472AF7045BFF60FAFCD
:10159000312203311A5488B269E7711CC9B2052996
:1015A0009CD17245BFF603AFC5F16105EDB20237BC
:1015B0009D540121BAB291E7A6457FF7F8AE3122DA
:1015C0001A558A1C92B296457FF7F1AEC81C80B2BC
:1015D0009D544CE70131C9B2052910D0A6457FF7CB
:1015E000E6AE1D55042902F10204A4B215D17445DA
:1015F000BFF6DDAE3121033290B2195537E7A6456B
:101600007FF7D5AE31211955911C89B28E457FF7F0
:10161000CEAE033290B25D5429E7204627E700BFE3
:101620004A4B1868831C74D02DE9F04FC71C91B049
:1016300075D0411C53D14FF000084FF0804E444B01
:10164000444A1B88B2F800A00393434B0AEB8A0478
:101650001F88424B42481968424E64000369DA050C
:10166000FCD5DEF8242092B20369DB05F6D5DEF85E
:1016700024309B1A9C42F7D8036913F4807306D078
:10168000736ABB423FD8036913F48073F8D11D46D7
:10169000CEF82430B8F1000F1AD04FF08041039AF1
:1016A000DFF8D090DFF8B8B00DF1100C4B6A934220
:1016B000FCD3DBF81030524413F4807F1CF8013B5C
:1016C0001DD0312B1DD10135A84509F8013BEDD1C5
:1016D000224BC3F80080002011B0BDE8F08F302409
:1016E000214B224A1978127804AB0094FFF71EFEB2
:1016F00080460028A1D11E480BF0FEFB9DE7302B51
:10170000E1D02946AAE70120144B196011B0BDE8C9
:10171000F08F4FF08043002200205A6270474FF054
:1017200080440C4B0E4A188800EB8000400013697F
:10173000DE05FCD5616A89B21369DD05F7D5636AF8
:101740005B1A8342F8D300236362C4E704000320DA
:10175000080003200A000320000003203C2C032083
:101760000004024200480140392C0320382C032099
:10177000F4A70108402C032002783AB34FF0000C84
:1017800030B56346864631250BE02A2A07D10CF195
:10179000010C1FFA8CFC8EF8005000EB0C0EC25CA2
:1017A00082B1A2F13001013301290CF101049BB295
:1017B000EBD88EF80020C25C1FFA84FC00EB0C0E04
:1017C000002AEED100238EF8003030BD00230370D4
:1017D000704700BFF8B504460BF044FD142874D9D7
:1017E00000F1FF3E1FFA8EFE14F80E2004EB0E05EA
:1017F000312A2B4618D1A0EB0E020C2A65D8811E87
:10180000661E2A2714FA81F1064401E00C2A5CD8EE
:101810001F700B4693F800C0C3F10102BCF1310FF9
:1018200001F1FF313244F1D00021234601270E4659
:10183000204413F8012BA2F13004012C49D80029CF
:1018400045D0E7B1052953D1B2423ED05F2298423C
:1018500003F8012C29D01A4612F8014BA4F13001EB
:10186000012962D8904203F102031ED01278394652
:10187000A2F13006012E26462BD8002FE2D1B2422B
:101880000DD0984211D013F8014B1646A4F1300147
:10189000012942D82246B2424FF00101F1D1013173
:1018A00098424FF00007C9B2C3D10FFA8EFEBEF1C5
:1018B000000F08DB2A4615F801392A2B45D05F2B8B
:1018C00001D1302313700120F8BD0020F8BD164669
:1018D00001219842ADD1E8E79842E6D013F8014BD8
:1018E0000121A4F13002012A2CD8302216462246CA
:1018F000B2420BD0312AEFD19842D6D013F8014B27
:10190000A4F13001012928D80121EFE70131312E5E
:10191000C9B205D001273026DBE700270121D8E72F
:1019200006298CBF00270127D3E79042BDD011784C
:101930000233A1F13002D2B2012A96BF0E46002135
:101940003946C6E730260F46C3E70EF1FF3E0FFAD1
:101950008EFEBEF1FF3FADD1B5E7012116460F4621
:10196000B7E700BF70B571B3002344F2995600F198
:10197000FF3C0CEB01051CF8012F5C00A2F13102C9
:10198000B2FA82F24FEA933E47F6FE73520972456D
:1019900003EA040318BF7340AC45ECD14A1E00F1C2
:1019A0000E0C024400208C4412F8011F4000312923
:1019B00008BF40F00100944580B2F5D1C01AB0FADA
:1019C00080F0400970BD0B46E8E700BF2DE9F04FFD
:1019D0008FB004460BF046FC122840F25181237868
:1019E000302B05D0B6480FB0BDE8F04F0BF084BAED
:1019F000054606AEB3480BF07FFA00273146234672
:101A000004F10B0C13F8012FA2F13100B0FA80F0B1
:101A10009C454FEA501001F8012B40EA4707F1D1ED
:101A20004FF00008A8488DF823800BF065FA06A84F
:101A30000BF062FAA5480BF05FFA03A938460BF0E9
:101A40009FFA03A88DF814800BF056FAA0480BF00B
:101A500053FA277B9F4894F80D908DF819808DF8E4
:101A600018700BF049FA06A80BF046FA9A480BF0EA
:101A700043FA9A488DF818900BF03EFA06A80BF03E
:101A80003BFA95480BF038FAB9F1310F40F002817A
:101A9000262D40F2FB80474606AA04F10D010DF108
:101AA0002A0011F8013F02F8013BA3F13103B3FA18
:101AB00083F390424FEA531343EA4707F1D14FF0C3
:101AC000000887488DF82A800BF016FA06A80BF05C
:101AD00013FA7E480BF010FA03A938460BF050FABF
:101AE00003A88DF814800BF007FA79480BF004FA7C
:101AF00094F820707B488DF819808DF818700BF0E1
:101B0000FBF906A80BF0F8F973480BF0F5F994F817
:101B1000213075488DF818300BF0EEF906A80BF05F
:101B2000EBF96D480BF0E8F994F822306F488DF826
:101B300018300BF0E1F906A80BF0DEF966480BF05F
:101B4000DBF94FF0230A4FF00009201D06A950448D
:101B500004EB0A0212F8013B01F8013BA3F1310347
:101B6000B3FA83F390424FEA531343EA4909F1D1A0
:101B70004FF000085E488DF81C800BF0BDF906A8F8
:101B80000BF0BAF95FFA89F950480BF0B5F903A9DF
:101B900048460BF063FA03A80AF1040B8DF80E8097
:101BA0000BF0AAF94A480BF0A7F90BEBC90202F1B6
:101BB0000F03AB4200F2F580302F00F0A980002720
:101BC00006A8551E254400F10F0C15F8011F00F85A
:101BD000011BA1F13101B1FA81F184454FEA5111A4
:101BE00041EA4707F1D100254248CDE900238DF8AD
:101BF00027500BF081F906A80BF07EF933480BF063
:101C00007BF903A9B8B20BF007FA03A88DF81050BE
:101C10000BF072F938480BF06FF9009A2046114624
:101C2000FFF7A0FE019B0093002844D033480BF03F
:101C300063F9009BE25CE118A2F13003012B98BF2D
:101C4000012304D919E00133202B00F0A88006F805
:101C5000012B11F8012FA2F130000128F3D9002245
:101C600038336B44264803F8202C0BF045F906A8BE
:101C70000BF042F918480BF03FF90FB0BDE8F08FB8
:101C800020480FB0BDE8F04F0BF036B91E480BF0FE
:101C900033F9F2E7A37B15488DF818308DF81980D9
:101CA0000BF02AF906A80BF027F90B480BF024F9E2
:101CB0004FF00F0A47E715480BF01EF9009BB9E7F4
:101CC00030A8010844A8010858A8010868A801081C
:101CD00020CF010870A8010880A8010884A8010885
:101CE000A8A80108B8A80108C8A80108D8A8010830
:101CF000E8A8010824A9010834A9010838A90108A5
:101D00004CA901081CA8010894A8010840A90108D1
:101D1000B9F1080F3FF653AFB9F1000F45D009F103
:101D2000FF330AF10C0ADBB20AEBC302DFF88C9036
:101D3000DFF88CA00DF11F0700250DF1170104EB52
:101D40000B0010F8013B01F8013FA3F13103B3FA96
:101D500083F38F424FEA531343EA4505F1D15046CE
:101D600000928DF820800BF0C7F806A80BF0C4F89D
:101D700048460BF0C1F803A9E8B20BF06FF903A8CD
:101D80008DF80E800BF0B8F80A480BF0B5F8009A01
:101D90000BF1080B5A45CFD102F10F030FE71F23B8
:101DA0005DE705480BF0A8F867E75A460AF1130308
:101DB00005E700BF20CF0108F8A8010868A80108BE
:101DC00014A90108002845D030B583B004460BF0B3
:101DD00049FA0130235C251813B9012003B030BD46
:101DE000204677490BF056FA48BB204675490BF060
:101DF00051FA20BB204674490BF04CFA002857D109
:101E0000204672490BF046FA002863D00A21284682
:101E10000DF107020BF05CFA9DF80730002BDCD0C7
:101E20004FF6FE73421E9A42D7D8694B80B21A8889
:101E30006849824208800BD34008188008E0284691
:101E400065490BF027FA38B16FF00102634B1A6055
:101E50000020C3E701207047284661490BF01AFAB9
:101E600020B14FF0FF325D4B1A60F1E728465D4923
:101E70000BF010FA20B16FF00202584B1A60E7E73E
:101E8000102128460DF107020BF022FA9DF80730C9
:101E90000446002BA1D0B0F1005F9ED2B0F5006FD8
:101EA00003D3514B1A78002A50D04C4B1C60CFE71B
:101EB0000A2128460DF107020BF00AFA9DF80730B7
:101EC000002B8AD04FF6FE73421E9A4285D8474BAC
:101ED0001880BDE7204646490BF0DCF990B10A2195
:101EE00028460DF107020BF0F3F99DF80730002B9F
:101EF0003FF473AF374B1B8883427FF66EAF344B92
:101F00001880A5E720463B490BF0C4F980B128466C
:101F100039490BF0BFF9002837D0304B374A1B68DE
:101F2000A3F50063934246D900222F4B1A708FE726
:101F3000204633490BF0AEF970B128462E490BF01C
:101F4000A9F968B300222F4B1A7081E701222E48AD
:101F50001A700AF0D1FFA8E720462C490BF09AF935
:101F600000283FF43AAF0DF107020A2128460BF092
:101F7000AFF99DF80720002A3FF42FAFB0F5803F5E
:101F8000BFF42BAF224A108062E7284621490BF0AC
:101F900081F900283FF421AF0122134B1A7057E753
:101FA00028461C490BF076F900283FF416AF0122B1
:101FB000144B1A704CE718480AF09EFF0DE700BF5B
:101FC0005CA9010868A90108A8A90108B4A9010829
:101FD000080003200A00032064A90108040003206C
:101FE00070A9010874A90108392C03200C000320F2
:101FF000C0A90108D0A90108DCA90108FFF7FF1F4B
:102000000CAA0108382C03207CA9010810AA010899
:102010000000032008AA0108E0A9010810B536480D
:1020200084B00AF069FF354B01A918880BF07EF9DE
:1020300001A80AF061FF324C32480AF05DFF3248D5
:102040000AF05AFF01A920680AF09AFF002301A8AC
:102050008DF80C300AF050FF2368991C40D05A1CB0
:1020600042D0033344D029480AF046FF284B01A947
:1020700018780BF05BF901A80AF03EFF25480AF03A
:102080003BFF254B01A918780BF050F901A80AF085
:1020900033FF22480AF030FF214B01A918880BF0CA
:1020A00045F901A80AF028FF1E480AF025FF1E4B3B
:1020B00001A918880BF03AF901A80AF01DFF1B4886
:1020C0000AF01AFF1A4B01A918880BF02FF901A882
:1020D0000AF012FF17480AF00FFF002004B010BDED
:1020E00015480AF009FFBEE714480AF005FFBAE7F1
:1020F00013480AF001FFB6E718AA01080000032000
:102100000400032024AA01082CAA01084CAA0108F3
:10211000392C032058AA0108382C032060AA010892
:102120000C00032084AA01080A00032094AA0108D5
:102130000800032080A8010834AA01083CAA01086D
:1021400044AA01082DE9F84FFFF7A4F800254FF045
:10215000FF31214E214BDFF890B0DFF89080204F07
:10216000CBF80050C8F8005019607562716A3B885E
:1021700099422BD24FF08044DFF874A0DFF87490BE
:10218000BAF800106562636A8B42FCD34FF40071A9
:1021900014480DF0E5F8134B1969D8F8000041F325
:1021A000002303F00203C1F340210B43411CC1F3A0
:1021B0000B01C8F80010DBF8001009F800300131FD
:1021C000CBF80010716A3B889942D9D301F03CFCEE
:1021D0000020BDE8F88F00BF004801402001032027
:1021E0000000032000040242B83F0320B43F032054
:1021F0000A000320BC3F03202DE9F04F804B91B033
:102200001B88B3F57A7F40F2C480FFF743F872B6BB
:102210007C4B1868831C00F0EC80C71C00F0C78062
:10222000411C00F0BD803024774B784A1978127831
:1022300004AB0094FFF77AF88046002800F0B380E2
:102240004FF0804E724B734A1B88B2F800A0039384
:10225000714B0AEB8A051968694B70481C88704FEE
:102260006D000369DA05FCD5DEF8242092B203691B
:10227000DB05F6D5DEF824309B1AAB42F7D30369B1
:1022800013F4807307D07B6AA34200F2A98003692C
:1022900013F48073F7D11E46CEF82430B8F1000F46
:1022A0001AD04FF08041039ADFF88891DFF86CB1C3
:1022B0000DF1100C4B6A9342FCD3DBF81030524402
:1022C00013F4807F1CF8013B52D0312B52D10136E0
:1022D000B04509F8013BEDD14F4BC3F80080002613
:1022E0004F4D6E626B6AA34237D24C4F02E06B6A6D
:1022F000A34241D23B6913F48073F8D1484A4FF0AE
:102300008041D2F824C0424A1846B2F800904B628D
:102310004A46404BDFF804E1B3F800804B6A934231
:10232000FCD3DEF81030013013F48073C0B21CD03F
:102330000B284244F2D14FF08041A2EB09024B6AD4
:102340009342FCD3364A536AA3EB0C031E44536AF0
:10235000A342CFD3334B03FB06F662B601F074FB06
:10236000274B1B88B6FBF3F010E018464244D5E734
:10237000302BACD0314674E762B601F065FB294BD7
:102380001F4A06FB03F31088B3FBF0F011B0BDE861
:10239000F08F25480AF0B0FD002011B0BDE8F08FA5
:1023A0004FF000084CE721480AF0A6FD48E74FF03F
:1023B0008044184B194A188800EB800040001369CC
:1023C000DE05FCD5616A89B21369DD05F7D5636A5C
:1023D0005B1A9842F8D800236362094B1C887EE799
:1023E0000D4B196062B612480AF086FD01F02CFB15
:1023F000D2E74FF0804300225A62014B1C886EE7FF
:102400000000032004000320392C0320382C032073
:10241000080003200A0003203C2C03200004024291
:1024200000480140A0860100A8AA0108F4A70108FD
:10243000C4AA0108402C0320344B70B51B68033339
:10244000012B4AD9FEF726FF00234FF0FF32304E12
:10245000304C314D336023602A6072B62F4A53628C
:10246000FFF7DEF880BB33682D492B602368013B02
:10247000C3F30B03CA5C42F00402CA54FEF780FEA9
:10248000044600283AD162B6264E3368072B2ED96F
:10249000254D28460AF030FD24480AF02DFD33680A
:1024A0002846EC54FFF796F9D8B128460AF024FDE7
:1024B0001F480AF021FD2846FFF75EF9FFF786FA6C
:1024C00001F0C2FA204670BD62B61A480AF014FD47
:1024D00001F0BAFA0124204670BD17480AF00CFD3D
:1024E000F8E716480AF008FD01F0AEFAF3E71448E1
:1024F0000AF002FD01F0A8FA204670BD62B611484C
:102500000AF0FAFC01F0A0FAE4E700BF040003209F
:10251000B83F0320B43F03202001032000480140BE
:10252000BC3F03203C2C0320402C032058AB010867
:1025300070AB01080CAB0108D8AA010860AB010818
:1025400040AB010828AB0108184B70B51B6803337A
:10255000012B27D9FEF79EFE00234FF0FF32144EC9
:10256000144C154D336023602A6072B6134A5362CF
:10257000FFF756F898B9336811492B602368013B7F
:10258000C3F30B03CA5C42F00402CA54FEF7F8FD21
:10259000044620B962B601F057FA204670BD62B613
:1025A00001F052FA0124204670BD00BF0400032050
:1025B000B83F0320B43F032020010320004801401E
:1025C000BC3F03202DE9F04F93B0FEF763FE0024DB
:1025D0004FF0FF338F4E904D904A34602C60136063
:1025E00072B64FF080428E498E488F4B5462046021
:1025F0004C621868811C00F0C780C31C00F0F0809A
:10260000471C40F0AF80204603944FF0804E874B2C
:10261000874CB3F800B0874B0BEB8B071A88864BBF
:10262000DFF8FCA1B3F800907F002369D905FCD541
:10263000DEF8241089B22369DB05F6D5DEF82430F4
:102640005B1A9F42F7D8236913F4807308D0DAF835
:1026500024304B4500F2B280236913F48073F6D125
:102660001946CEF82430039B002B00F093801046CF
:102670004FF0804C714B0DF11808049302930597AD
:10268000DCF824308342FBD3694B58441B6913F4B4
:10269000807F18F8013B72D0312B72D1029F01313B
:1026A00007F8013B039B02978B42E9D11C4640F699
:1026B0009E705C4B59491C603368DFF898C10B6011
:1026C0002B68844203F1FF33C3F30B031CF80310A0
:1026D0000BFB042241F004010CF8031000F2988077
:1026E000039BDFF87481581E049BDFF844E1184413
:1026F0004FF08043596A9142FCD3DEF81040D5F880
:10270000009014F4807F0CBF3027312744F3002160
:1027100001F00201C4F34024214309F10104C4F390
:102720000B042C60346800F8017F013440450CF83C
:10273000091034605A44DDD140F69F73394A03933F
:1027400013601A460024049B9C5462B601F07CF985
:102750003A480AF0D1FB3A480AF0CEFB204613B0C3
:10276000BDE8F08F30230093364B1A78364B19783A
:1027700006ABFEF7DBFD039060B3204645E7302B48
:102780008CD00846059F50E72A4B54621A88274B85
:10279000B3F800B033682149DFF8B8C00B600021FE
:1027A0002B680391013BC3F30B031CF8031041F0AA
:1027B00004010CF80310214B049391E7194B1860A6
:1027C00062B622480AF098FB01F03EF9012013B0EE
:1027D000BDE8F08F1E480AF08FFB124B186814E713
:1027E000124B1349B3F800B00BEB8B0464000B6978
:1027F000D805FCD5506A80B20B69DB05F7D5536A62
:102800001B1A9C42F8D8002353620A4B1A88C1E76E
:10281000224697E7B83F0320B43F0320200103205E
:10282000004801403C2C0320040003200A00032040
:10283000000402420800032000000320402C032073
:1028400080A80108382C0320392C0320C4AA0108D1
:10285000F4A70108BC3F0320DE3B03202DE9F04F25
:1028600097B00690002800F04A810AF0FBFCB0F512
:102870007A6F28BF4FF47A60A34E824633680333E1
:102880002ED1FEF707FD00244FF0FF33DFF8B4B27E
:10289000DFF8B4829D4ACBF80040C8F800401360CE
:1028A00072B64FF080459A4B6C625C623068994B0F
:1028B000871C1C6000F04C81C61C00F0FC80411C91
:1028C00012D030230093944B1A78944B19780AABAA
:1028D000FEF72CFD0590002800F0E680A44605E0F8
:1028E0008F480AF009FBCCE7A44605948D4B4FF0C6
:1028F00080441A888C4B02EB82051B888B48079317
:102900008B4B834FB3F80090134604926D0002691D
:10291000D205FCD5616A89B20269D605F7D5626A2B
:10292000521AAA42F8D3026912F4807207D07A6A66
:102930004A4500F2DB80026912F48072F7D1114639
:102940006262059A002A00F00D814FF0804C794AAE
:10295000079E089203920DF1280E0995DCF82420B9
:10296000B242FBD3714A049D12692E4412F4807F57
:102970001EF8012B00F08880312A40F08880039DEA
:10298000013105F8012B059A03958A42E6D1049A94
:10299000002507981C46104440F69F7E4FF0804269
:1029A000DBF80010594EDFF8A4C13160D8F80010F0
:1029B000584E0139C1F30B011CF80170356047F026
:1029C00004075C4E0CF80170516AA142FCD3AA4581
:1029D00048D90699495D312944D030295AD003217C
:1029E0004FF001090F46516A8842FCD84F49013522
:1029F0000969C9053BD44FF0300106F8011B454970
:102A00001C440D60D8F8001018440CF801900131F6
:102A1000C1F30B01C8F80010DBF80010754501F197
:102A20000101CBF80010CFD14FF47A6000224FF0B3
:102A3000804100FB03F3089880F89F2F4A6A9A426E
:102A4000FCD34FF40072394B9A6162B600F0FCFF80
:102A500038480AF051FA38480AF04EFA002017B008
:102A6000BDE8F08F4FF40071304FB961B7E74FF018
:102A7000310106F8011B27491C440D60D8F80010ED
:102A800018440CF80170C2E7302A3FF478AF8C4646
:102A9000099D3CE74FF000792449C1F818900221C4
:102AA0004FF000090F469EE724480AF025FA194B1B
:102AB000D3F800C01AE71B4B1C4C1A88134602EBD4
:102AC000820676002169C905FCD5686A80B2216951
:102AD000CF05F7D5696A091A8E42F8D800216962D4
:102AE0001149098807911349089151E7094BC3F827
:102AF00000C062B612480AF0FFF900F0A5FF0120FD
:102B000017B0BDE8F08F00BF0400032020010320B0
:102B1000004801403C2C0320382C0320392C032092
:102B200080AB01080A0003200800032000040242D1
:102B300000000320402C032080A80108F4A701080E
:102B40000CAB0108B83F0320B43F0320BC3F032077
:102B5000064B07491A88074B6C621B88089107933C
:102B6000134615E7024A089211E700BF0A00032046
:102B7000402C0320080003202DE9F04F95B0FEF70C
:102B800089FB00224FF0FF33DFF8A4A1DFF8A48116
:102B90005B49CAF80020C8F800200B6072B6594B98
:102BA0005A62594B1868811C00F0AA81C31C00F0BE
:102BB000BE81441C01D191460CE0544B1A7830235D
:102BC0000093534B197808ABFEF7B0FB8146002801
:102BD00000F0A9814FF080464E4B4F4A1C884F4B66
:102BE00004EB84071B88B2F800B006934C4B4D48A9
:102BF0001D68DFF810E17F000269D105FCD5716A1C
:102C000089B20269D205F7D5726A521A9742F8D88A
:102C1000026912F4807C08D0DEF824205A4500F2C4
:102C20006481026912F4807CF6D1C6F824C0B9F13F
:102C3000000F00F0A0814FF080453B4A06990592B5
:102C4000039208AA049207976A6A8A42FCD3354A1B
:102C5000049F1269214412F4807F17F8012B049716
:102C600000F03881312A40F03881039F0CF1010CCB
:102C700007F8012BE1450397E6D1069AC3F80090C7
:102C800009FB042100254FF0804240F69E7CDAF8D3
:102C900000001B4E254F3060D8F80000DFF884E0BC
:102CA0000138C0F30B003E5C039346F004063E542B
:102CB000059800EB0906506A8842FCD3DEF8100044
:102CC000013510F4807FC0F34027384634D1E14508
:102CD00002D84FF030033370D8F80000134B0025B2
:102CE0001F540130C0F30B00C8F80000DAF80000F0
:102CF00009F10109013021440136CAF80000DAE780
:102D0000200103200048014004000320382C032048
:102D1000392C03200A0003200000032008000320B0
:102D20003C2C032000040242402C0320BC3F032023
:102D3000B83F0320B43F0320E14502D84FF03103F0
:102D40003370D8F800708F4B40F00200D855781CD3
:102D5000C0F30B00C8F80000DAF80000092D00F1FC
:102D6000010009F10109214406F10106CAF8000039
:102D7000A1D1039B069AC3F800900693824B881A50
:102D80005E6A4A465E45DDF8149000F2A08040F687
:102D90008E739A4200F29B8000264FF0804309EB2D
:102DA000020702F1010C03915A6A8242FCD3052EFC
:102DB0007DD94FF4007275494FF0010E8A610322EC
:102DC000039904925A6A8A42FCD3704A03911269A9
:102DD000D20560D40A46224403923022694D3A70EB
:102DE000D8F80020204405F802E00132C2F30B02BB
:102DF000C8F80020DAF800200132CAF80020624A40
:102E0000D2F824E00CEB0602DE455AD80136102E2B
:102E100007F10107C8D15C4B03995B6A5B45B6D9E2
:102E20009146069B4FF08042C3F80090536A83425C
:102E3000FCD3554D6B6A5B4519D84FF080434FF07A
:102E4000000C4FF000774FF4007604EB44014F483C
:102E500049002401C3F824C087615A6A8A42FCD31E
:102E600086615A6AA242FCD36A6A5A45F2D9B9F518
:102E70007A6F35D20023059A02F8093062B600F065
:102E8000E3FD43480AF038F842480AF035F80020DC
:102E900015B0BDE8F08F0A46224403923122394D25
:102EA00004993A70D8F800202044A9549DE74FF0C7
:102EB000007236494FF0000E8A6102220399049293
:102EC00080E7314B03995E6A5E457FF660AF9146BD
:102ED000069BA7E7302A3FF4C8AE6546079F8BE6FE
:102EE0000023059A82F89F3FC8E71D6062B62A4812
:102EF0000AF002F800F0A8FD012015B0BDE8F08F3F
:102F00004FF08045224E254C254B264805966A6297
:102F1000254902882488D3F80090B1F800B00692C1
:102F200009FB0421AEE6214809F0E6FF52E64FF026
:102F300080421A4B15491C8804EB840040000B6941
:102F4000DF05FCD5556AADB20B69DE05F7D5536ACE
:102F50005B1B8342F8D300235362124A104B118843
:102F6000114AD3F80090B2F800B0094A06910592D0
:102F700009FB041186E6064A0699C3F800900592FB
:102F800080E600BFBC3F032000480140000402422D
:102F9000402C032080A801080CAB01080A00032084
:102FA0003C2C03200800032000000320F4A70108A4
:102FB0002DE9F04FB74C95B0236806900333012BF1
:102FC00040F2A281FEF766F900254FF0FF33DFF8EB
:102FD000F8A2DFF8F8B2B04ACAF80050CBF80050B7
:102FE000136072B64FF08042AC4B5D62AC4B1D601B
:102FF00055622068811C00F0A181C31C00F0A881EB
:10300000441C40F090802B462C464FF0804EA54A41
:10301000A5481688A54A06EB86051288DFF87C824B
:103020000592A34A6D00B2F80090A24A0492026988
:10303000D105FCD5DEF8241089B20269D205F6D597
:10304000DEF82420521A9542F7D8026912F48072F1
:1030500008D0D8F824204A4500F24781026912F4CA
:103060008072F6D1CEF82420002C00F08B814FF036
:103070008047904B059903930DF1200C07957B6ACF
:103080008B42FCD3884B31441B6913F4807F1CF8BE
:10309000013B57D0312B57D1039D013205F8013B3D
:1030A00094420395EBD17E4B1C60059B06FB0433D9
:1030B000069A002702F1060E40F69E7C4FF08042F1
:1030C000DAF8001074487C4D0160DBF80010DFF87E
:1030D000D8810139C1F30B01685C40F004006854E9
:1030E00004990819516A9942FCD3D8F8101011F4C8
:1030F000807F2CD16445C1F3402102D84FF03007C6
:103100000770DBF800700134E9550137C7F30B078E
:10311000CBF80070DAF80010002701313344013099
:10312000CAF80010DEE730230093644B1A78644B32
:10313000197808ABFEF7FAF80446002800F0F8808A
:103140002B4662E7302BA7D01346079D6FE76445F7
:1031500007F10107C1F3402103D84FF0310980F88E
:103160000090DBF8009041F0020105F8091009F128
:103170000109C9F30B01CBF80010DAF80010BE45C5
:1031800001F10101CAF80010334400F1010004F11B
:10319000010101D90C46A5E74FF08047059A981A1E
:1031A0007A6A8242FCD34FF0007C4FF080473E4A5F
:1031B000C2F818C07A6A9A42FCD33B4A126912F4E8
:1031C000807C18BF4FF0020CDBF8002018BF3127BD
:1031D00005F802C002F10102C2F30B02CBF8002095
:1031E00040F69E72DAF800C008BF30270CF1010CDF
:1031F0009142CAF800C040F28E800234284F9442B7
:103200003C60304433447AD8049A4FF4007E54181A
:103210004FF003094FF08042DFF8B4C0224F516AEB
:103220008142FCD3C7F818E0516A9942FCD339694E
:10323000C9054FD44FF030014FF0010804F8011FC9
:10324000DBF800103044334405F801800131C1F34C
:103250000B01CBF80010DAF80010644501F1010110
:10326000CAF80010DBD140F69F730D4A136040F698
:103270009F7300220499CA5462B600F0E5FB0D4822
:1032800009F03AFE0F4809F037FE002015B0BDE8FE
:10329000F08F00BF040003202001032000480140FC
:1032A0003C2C03200A0003200004024208000320F3
:1032B00000000320402C0320BC3F0320382C0320B7
:1032C000392C032080A80108B83F0320B43F032015
:1032D000DE3B03204FF0310104F8011FDBF8001042
:1032E0003044334405F80190B0E7284A2848144692
:1032F000136009F001FE2368B3F57A6FB9D3002398
:10330000049A82F89F3FB7E7224809F0F5FD0120B3
:1033100015B0BDE8F08F049A023457541B4A30446C
:10332000146040F69F72944233447FF46DAF9EE781
:10333000194809F0E1FD154B1B6866E65562174B0D
:10334000174A1B881688174A2C4605930492AFE645
:10335000134B15491E8806EB860464000B69DF05D4
:10336000FCD5506A80B20B69DD05F7D5536A1B1A8C
:10337000A342F8D30024094B54621B88094ACDE9C3
:10338000042395E6014B1C60059B91E63C2C032031
:10339000C4AB0108B0AB0108F4A701080800032082
:1033A0000A000320402C032000040242984B2DE920
:1033B000F04F1B6893B00333012B40F21D8182460E
:1033C000FDF768FF72B60023924D934A6B626B6AF9
:1033D000B2F800B05B4580F0D980904C0AF1060A43
:1033E00000274FF080418A4B4F621E688C4BB21C05
:1033F0001F6000F0D480F31C00F0E280711C00F02C
:10340000CC8030230093874B30461A78864B19784E
:1034100006ABFDF78BFF8046002800F0C8804FF018
:10342000804C824B1888824B00EB800E1B884FEA41
:103430004E0E04932369DA05FCD5DCF8242092B201
:103440002369DB05F6D5DCF824309B1A7345F7D3E6
:10345000236913F4807307D06B6A5B4500F2C9805F
:10346000236913F48073F7D11A460499CCF82430F9
:10347000B8F1000F1DD04FF080476E4B0DF11809C9
:10348000039305967B6A8B42FCD32369014413F4B2
:10349000807F19F8013B21D0312B21D1039E0132CD
:1034A00006F8013B90450396ECD1DDE9043602FBBA
:1034B00000314FF0000C4FF0804701327B6A8B42A5
:1034C000FCD323690CF1010C13F4807302F1010E9B
:1034D00009D0E24501440AD97246EFE7302BDDD02E
:1034E0001746059EA6E79C4601440132E6E74C4B91
:1034F0001A604FF08042049BC91A536A8B42FCD376
:103500004FF000734FF080420144A361536A8B4235
:10351000FCD34FF40077A7616B6A5B4536D2023665
:103520007FF45EAF4FF080414FF0000C4FF0007918
:103530003E4B3A4D1E883E4BDFF8D880B3F800E092
:10354000002472462046C1F824C0C1F824C04B6A4A
:103550009A42FCD82B69013013F4807353D0824512
:1035600004F101043244F2D8A2EB0E024B6A9A42F3
:10357000FCD8C5F8189032444B6A9A42FCD8AF6127
:10358000D8F824309B45DBD8254B1C6062B600F090
:103590005BFA002013B0BDE8F08FB8463FE7244B3C
:1035A0004F621988214B3A461888049181E72248D6
:1035B00009F0A2FC1A4B1F68174BB3F800B02EE7B6
:1035C0001A4B164A188800EB800C4FEA4C0C136912
:1035D000DF05FCD54F6ABFB21369DB05F7D54B6A2F
:1035E000DB1B6345F8D30022114B4A621988049112
:1035F0005FE70B4B1F60C9E7104809F07DFC012015
:1036000013B0BDE8F08F1846013432449FE700BF85
:10361000040003200048014000000320000402428F
:103620003C2C0320382C0320392C03200A000320D3
:1036300008000320402C0320F4A70108B0AB0108C8
:10364000034600B583B008465BBA02220DF10601BD
:10365000ADF8063009F0FAFD03B05DF804FB00BFD9
:103660008446002310B50C4682B00DF106000222FC
:103670006146ADF8063009F0E9FD012C8CBFBDF8BC
:1036800006009DF8060040BA80B202B010BD00BF2F
:103690008446002310B50C4682B00DF106000222CC
:1036A0006146ADF8063009F0D1FD012C8CBFBDF8A4
:1036B00006009DF8060040BA80B202B010BD00BFFF
:1036C000034600B583B008465BBA02220DF106013D
:1036D000ADF8063009F0BAFD03B05DF804FB00BF99
:1036E0008446002310B50C4682B00DF1060002227C
:1036F0006146ADF8063009F0A9FD012C8CBFBDF87C
:1037000006009DF8060040BA80B202B010BD00BFAE
:103710008446002310B50C4682B00DF1060002224B
:103720006146ADF8063009F091FD012C8CBFBDF863
:1037300006009DF8060040BA80B202B010BD00BF7E
:10374000034600B583B008465BBA02220DF10601BC
:10375000ADF8063009F07AFD03B05DF804FB00BF58
:103760008446002310B50C4682B00DF106000222FB
:103770006146ADF8063009F069FD012C8CBFBDF83B
:1037800006009DF8060040BA80B202B010BD00BF2E
:10379000034600B583B008465BBA02220DF106016C
:1037A000ADF8063009F052FD03B05DF804FB00BF30
:1037B0008446002310B50C4682B00DF106000222AB
:1037C0006146ADF8063009F041FD012C8CBFBDF813
:1037D00006009DF8060040BA80B202B010BD00BFDE
:1037E0008446002310B50C4682B00DF1060002227B
:1037F0006146ADF8063009F029FD012C8CBFBDF8FB
:1038000006009DF8060040BA80B202B010BD00BFAD
:103810000870704700787047002300B5012983B015
:10382000ADF8063003D8184603B05DF804FB014636
:1038300002220DF1060009F009FD9DF8060003B013
:103840005DF804FB00787047087070470078704797
:103850008446002310B50C4682B00DF1060002220A
:103860006146ADF8063009F0F1FC012C8CBFBDF8C3
:1038700006009DF8060040BA80B202B010BD00BF3D
:10388000034600B583B008465BBA02220DF106017B
:10389000ADF8063009F0DAFC03B05DF804FB00BFB8
:1038A0008446002310B50C4682B00DF106000222BA
:1038B0006146ADF8063009F0C9FC012C8CBFBDF89B
:1038C00006009DF8060040BA80B202B010BD00BFED
:1038D00000787047007870478446002310B50C4686
:1038E00082B00DF1060002226146ADF8063009F003
:1038F000ADFC012C8CBFBDF806009DF8060040BA57
:1039000080B202B010BD00BF007870472DE9F04FC3
:103910003C4B8346984283B007D83B4B984269D9C9
:103920004FF028094FF4487E0BE04FF0250940F294
:10393000EE2E364BB3FBFBFC5FFA8CFCBCF1190F8F
:103940005DD90120314B013080B2B3FBF0FCBCFBF0
:10395000FBFC5FFA8CFCBCF1190FF4D8B0F5806F5A
:1039600042D201236FF000444FF47A765A46009316
:10397000274B1F68431C1FFA83FAACF10208B8EB0F
:103980005C0F4FEA5C0120DD0CF1FF3B5FFA8BFB23
:10399000CDF804A006FB01F5B5FBFCF5BEEB050A6E
:1039A00048BFA5EB0E0AA2450ADAD14508DB00257F
:1039B00054460095ABEB0105EDB2F96178613D62CB
:1039C00001314145E6DBDDF804A0104998B2B1FBB6
:1039D000FAFCBCFBF2FCB0F5806F0AF1010A5FFA59
:1039E0008CFC03D0431CC8E701230093009803B06C
:1039F000BDE8F08F4FF02B0940F26B3E99E70120B4
:103A0000AFE700BF00350C0020A10700005A62029A
:103A1000D83C032038B50C46064D0749074B0A60D1
:103A20002860074901201C6012F0ECF9054B186072
:103A300038BD00BFD83C0320D03C0320D43C032039
:103A4000E83B0320383C032030B53F4C83B020686E
:103A50000AF02AFD20680AF06FFB002851D10022ED
:103A60003A4D40213A482A71EA602A616A61AA61A6
:103A7000AA60EA6185F820200BF06CFC206805F153
:103A800024010AF043FC00285BD1324920680AF087
:103A90003DFC002852D100230222206811460093E9
:103AA0000AF060FC002846D120680AF0A1FC00283A
:103AB0003ED10022012120680AF058FEA8BB002256
:103AC000062120680AF052FE60BB07224FF4F05135
:103AD00020680AF04BFE10BB0722802120680AF004
:103AE00045FEC8B900221C4920680AF03FFE80B993
:103AF00000224FF4602120680AF038FE20B903B09C
:103B000030BDFDF72FFBAAE703B0BDE83040FDF75D
:103B100029BBFDF727FBEBE7FDF724FBE2E7FDF709
:103B200021FBD9E7FDF71EFBCFE7FDF71BFBC6E73F
:103B3000FDF718FBBDE7FDF715FBB5E7FDF712FB39
:103B4000A9E7FDF70FFBA0E7D83C032010000320F6
:103B5000000402424C00032000407100014B186831
:103B60000AF0A2BCD83C0320082824D8DFE800F0E3
:103B7000080C1014171A1D2005001448FFF7C6BEC4
:103B800042F21070FFF7C2BE44F62060FFF7BEBEDF
:103B90004CF25030FFF7BABE0D48FFF7B7BE0D48E4
:103BA000FFF7B4BE0C48FFF7B1BE0C48FFF7AEBE3E
:103BB0000B48FFF7ABBE0B4AA0F51C53103B9342DA
:103BC00001D901207047FFF7A1BE00BF40420F009E
:103BD000A086010048E8010090D0030020A1070062
:103BE00000350C00301B0F000346054A19780020F1
:103BF00051615978D16199781162DB78936170478E
:103C0000482B03200246024B00209A61704700BFF8
:103C1000482B0320034600B5074A93F801E093F8C8
:103C200000C082F810E005499B7881F800C0537409
:103C300000205DF804FB00BF482B03206807032029
:103C40002DE9F0470546C0680F4609F0F3FAAB6866
:103C5000B3F1005F3CD00646824600F12409254CB2
:103C60004FF0FF31206812F0D7F90128F8D1DFF8C2
:103C70009080D8F8000012F0BFFB484515D202250D
:103C80001D4A13792B431371002320681A461946E5
:103C900012F01CF800231949022209680868194625
:103CA00013F04EFD2846BDE8F08729464FF0FF335C
:103CB0002422D8F8000012F0BDFB054686B94D4518
:103CC0000CD00D4A0125137943F008031371DBE78B
:103CD0004FF0000A4FF024095646C0E70025D3E70D
:103CE000524639464FF0FF33D8F8000012F0A2FBDD
:103CF0000544E4E7383C032010000320D43C0320B3
:103D0000E03B032030B40122002410200A4B0421A0
:103D10001B684FF440751C82C3E90520DC60186203
:103D20003F240F209A74C3E90125DC61C3E909210E
:103D300030BC1963D8627047D83C032000232DE9BA
:103D4000F0430C4683B0C9070546019316D4A20779
:103D500007D502212D4A137943F0010313712B6813
:103D60001965630735D4019B2BB14FF0E0234FF069
:103D70008052C3F8042D03B0BDE8F083DFF89880CB
:103D8000224F42464021224B0AF006FC7B69D8F8BC
:103D90000C0001337B6109F04DFADFF88090064694
:103DA000D9F8000012F028FB06F12803984223D32B
:103DB00041462822D9F8000001AB12F0BFFB002ECB
:103DC000C5D03246D9F80000114901AB12F0B6FB5C
:103DD000BDE704240D4B0F499A69096801329A61C5
:103DE0001A7942F008021A712B6808680DEB040179
:103DF0001C6513F08FFDB6E7064ABB6912680133F4
:103E0000106801A9BB6113F085FDA0E71000032035
:103E1000903C0320D03C0320683C0320E43B03207B
:103E200010B500240A4A0B491369096882B0086872
:103E3000013301A91361019413F06CFD019B2BB1B7
:103E40004FF0E0234FF08052C3F8042D02B010BDB4
:103E500010000320D43C032010B500240A4A0B496B
:103E6000D369096882B00868013301A9D36101945C
:103E700013F050FD019B2BB14FF0E0234FF0805227
:103E8000C3F8042D02B010BD10000320D03C032065
:103E900038B50C46104D29460AF01EFCA10303D587
:103EA000EB68A3B90D4A1360620309D52B690B4A6D
:103EB000012B13790CBF43F0040303F0FB031371D0
:103EC000230303D50122054B83F8202038BD4FF092
:103ED0000042024B1A60E7E73C3C0320100003203D
:103EE000F0B500250B7885B0074602950395CBB158
:103EF0000C460DF1FF3608E02046D5B209F03CF93A
:103F000014F8023F06F8010F23B163786A1C0BB363
:103F1000072DF1D18DF808502A4669460DF10900A8
:103F200015F08FF800230E4C0820C4E90533C4E9CE
:103F30000133276009F084F9082203460DEB0201E2
:103F40000848E36009F082F920460649FFF778FE49
:103F500005B0F0BD8DF80850002DDDD1E2E700BFBF
:103F6000E83C0320DC3C03202DE9F04389B0064601
:103F70000D4607F049FA012800F0898142F2020358
:103F800000249D42745500F2B480002D00F086811B
:103F9000701E691E84460346314405E00A2A1CBF90
:103FA000325501348B4209D013F8012F082AF5D17C
:103FB000002CF7D08B4204F1FF34F5D100218C4264
:103FC000315540F370810A4603191CF8010F20286F
:103FD00000F0858082B99C4501F101010CF10100DE
:103FE0000CD09CF80140202C7BD0984206D01CF8C5
:103FF000022F203A18BF01229C45E6D10C463046DC
:10400000AC4914F0D9FE0546002800F09E80AA496C
:10401000FCF716F9002876D1012C40F2DA80A54988
:10402000002014F0C9FEA5490446FCF709F9002850
:1040300000F08F802046A249FCF702F9002800F02A
:10404000BB8120469F49FCF7FBF8002840F02D81FA
:104050009D4808F051FF9D4808F04EFF9A4808F02F
:104060004BFF9B4808F048FF9A4808F045FF9848E6
:1040700008F042FF984808F03FFF984808F03CFFDE
:10408000934808F039FF964808F036FF954808F045
:1040900033FF8F4808F030FF934808F02DFF934816
:1040A00008F02AFF8A4808F027FF914808F024FF0B
:1040B000904808F021FF904808F01EFF8F4808F054
:1040C0001BFF8F4808F018FF8E4808F015FF8E4838
:1040D00008F012FF8D4808F00FFF8D486DE00022B8
:1040E0008AE798428AD01CF8020F20287FF473AF29
:1040F00082E7884808F000FF874808F0FDFE0020AE
:1041000009B0BDE8F08328468449FCF799F80028F7
:1041100082D028468249FCF793F800283FF47CAF10
:1041200028468049FCF78CF800283FF475AF2846F4
:104130006449FCF785F8002840F08581022C00F0E6
:104140009E81794808F0D8FED6E7784808F0D4FE7A
:10415000D2E75D4808F0D0FE5C4808F0CDFE5A4832
:1041600008F0CAFE5A4808F0C7FE714808F0C4FEBD
:10417000574808F0C1FE584808F0BEFE6D4808F0E8
:10418000BBFE534808F0B8FE554808F0B5FE6A4833
:1041900008F0B2FE4E4808F0AFFE534808F0ACFEFF
:1041A000664808F0A9FE4A4808F0A6FE504808F004
:1041B000A3FE634808F0A0FE624808F09DFE444854
:1041C00008F09AFE404808F097FE5F4808F094FE19
:1041D00092E73D4808F090FE3C4808F08DFE3A48D2
:1041E00008F08AFE3A4808F087FE584808F084FE36
:1041F000374808F081FE564808F07EFE554808F022
:104200007BFE554808F078FE544808F075FE544887
:1042100008F072FE534808F06FFE534808F06CFE39
:10422000524808F069FE524808F066FE514808F00E
:1042300063FE514808F060FE504808F05DFE5048AB
:1042400008F05AFE4F4808F057FE4F4808F054FE59
:104250004E4808F051FE4E4808F04EFE4D4808F01A
:104260004BFE4D4808F048FE4C4808F045FE4C48CF
:1042700008F042FE4B4808F03FFE154808F03CFEAF
:10428000494808F039FE104808F036FE34E70421AA
:10429000464808F0C3FD07F0C3F830E735704448DE
:1042A00008F02AFE28E7FAD0A8E6424808F024FEE3
:1042B0008BE700BFF8AB010828AC010844AC01084B
:1042C000E4AD01086CAF01084CAC01088CAC0108EE
:1042D00080A8010874AF0108C8AC010888AF0108C4
:1042E0000CAD0108C4AF010830AD0108D8AF01081A
:1042F00084AD010824B0010844B0010858B0010899
:1043000078B001088CB00108ACB00108C0B0010859
:10431000ECB00108E0AB010800CE010830AC0108A8
:1043200038AC010840AC0108E8B80108FCAB010852
:10433000B8AC0108D8AC010814AD01083CAD0108C7
:1043400090AD0108D4AD010828B101087CB1010885
:1043500020B201082CB20108A0B2010828B301085C
:1043600054B30108A4B30108F4B3010844B401082C
:104370009CB4010808B5010830B501085CB5010816
:10438000BCB5010824B6010870B60108B4B601082E
:10439000E0B6010838B7010890B70108DCB701089A
:1043A00010B801085CB80108C8B80108D8AB01080A
:1043B000F4AB010800B10108874808F09DFD87486B
:1043C00008F09AFD844808F097FD854808F094FDB0
:1043D000844808F091FD824808F08EFD824808F07C
:1043E0008BFD824808F088FD7D4808F085FD8048F7
:1043F00008F082FD7F4808F07FFD794808F07CFDD9
:104400007D4808F079FD7D4808F076FD744808F095
:1044100073FD7B4808F070FD7A4808F06DFD7A481E
:1044200008F06AFD794808F067FD794808F064FDF6
:10443000784808F061FD784808F05EFD774808F09C
:104440005BFD7748B9E628467649FBF7F9FE28B9BF
:10445000022C6CD0744808F04FFD4DE62846734995
:10446000FBF7EEFE002851D1012C00F07581A31E50
:10447000012B40F2FB806E4808F03EFD3CE66D49A2
:1044800014F09AFC03780446002B3FF435AE051D6A
:10449000413B232B13D8DFE803F0352D251D1212E5
:1044A00012121212121212121212121212121212EC
:1044B00012121212121212121212352D251D5E48FE
:1044C00008F01AFD14F8013F002B3FF415AEA54289
:1044D000DED111E6594808F00FFD0021442003F019
:1044E000C7FDEFE7564808F007FD0021432003F021
:1044F000BFFDE7E7534808F0FFFC0021422003F02E
:10450000B7FDDFE7504808F0F7FCDBE728464F49E6
:10451000FBF796FE002851D1012C00F02581A31E47
:10452000012B40F2D8804A4808F0E6FCE4E5414916
:1045300014F042FC03780446002B3FF4DDAD051D6A
:10454000413B232B13D8DFE803F0352D251D121234
:10455000121212121212121212121212121212123B
:1045600012121212121212121212352D251D324879
:1045700008F0C2FC14F8013F002B3FF4BDADAC4283
:10458000DED1B9E5334808F0B7FC0121442003F03F
:104590006FFDEFE7304808F0AFFC0121432003F046
:1045A00067FDE7E72D4808F0A7FC0121422003F052
:1045B0005FFDDFE72A4808F09FFCDBE72846294932
:1045C000FBF73EFE002840F0DC80032C00F0FA8070
:1045D000254808F091FC8FE54CAC01088CAC010833
:1045E00080A80108ECAD0108C8AC010800AE0108C4
:1045F0000CAD01083CAE010830AD010850AE010819
:1046000084AD01089CAE0108BCAE0108CCAE010827
:10461000ECAE0108FCAE01081CAF01082CAF01088C
:1046200058AF0108E4AD010818BA0108F0BA010852
:1046300010BB0108F8AB0108F0B90108CCB90108BA
:10464000A8B9010884B9010838B90108C0BB01083C
:10465000E4BB0108CCBA0108A8BA010884BA010871
:1046600068BA010880BC010884BC0108B149002077
:1046700014F0A2FB08F0A6FDB0F5006F68D2AE4DB5
:10468000022C28604FF0000000F09480A94914F03B
:1046900093FB064608F0E6FDC10755D4102853D811
:1046A00088B1431EC3F34E04B71CDFF8208307EB29
:1046B0004407304608F060FD0236BE4208F8010F9C
:1046C000F7D1631CD8B208F0BBFD03469B48EB60F2
:1046D00008F012FC10E59749002014F06DFB08F07B
:1046E00071FDB0F5006F80F0A081954F022C38600D
:1046F00000F0918111F072F9282111F071F98D49C2
:10470000002014F059FB064608F0ACFDC207044631
:104710001AD4102818D83546DFF8B48205E02846A8
:1047200008F02AFD023508F8010BAB1B9BB29C4236
:10473000F5D8601CC0F3470008F082FD03468148AD
:10474000FB6008F0D9FBD7E47F4808F0D5FBD3E441
:104750007E4808F0D1FBCFE44FF0FF32764B7C4827
:104760001A6008F0C9FBC7E44FF0FF32744B794878
:104770001A6008F0C1FB11F031F9182111F030F97D
:10478000BAE428467449FBF75BFD28B9032C67D0CF
:10479000724808F0B1FBAFE428467149FBF750FDC1
:1047A000002840F06981022C00F044816D4808F037
:1047B000A3FBA1E408F044FD03466B48EB6008F05E
:1047C0009BFB99E45B49002014F0F6FA5949054631
:1047D000002014F0F1FA00210A2214F0B3F9634921
:1047E00004462846FBF72CFD002800F00E812846E1
:1047F0005F49FBF725FD002800F0018128465D494F
:10480000FBF71EFD002800F0F48028465A49FBF70C
:1048100017FD002800F0E78028465849FBF710FDF7
:10482000002800F0D78028465549FBF709FD0028ED
:1048300077D028465349FBF703FD002868D0284667
:104840005149FBF7FDFC00285ED1002C41D14F48B7
:1048500008F052FB02224E4BDA60FFF7F5F84BE40A
:10486000344914F0A9FA4B490446FBF7E9FC002847
:1048700047D020464849FBF7E3FC00283ED02046BD
:104880004649FBF7DDFC002835D020464449FBF7BC
:10489000D7FC68B320464349FBF7D2FC20BB424813
:1048A00008F02AFB00242349002014F085FA05466D
:1048B00008F0D8FC421E92B20D2A034610D8DB073E
:1048C0000ED420462946FFF70BFB384808F014FBAE
:1048D00012E4374808F010FB00222D4BDA60BCE7E9
:1048E000344808F009FB07E4334808F005FBD9E732
:1048F00040F2E374D7E740F2E274D4E740F2E174A7
:10490000D1E740F2DF74CEE72C4808F0F5FAA4E7CF
:10491000003C18BF01242A4B2A481C7008F0ECFA0E
:104920009BE7003C18BF0124194B27485C7408F032
:10493000E3FA92E7F8AB0108403D032094BB01087D
:10494000143D032058BC01087CBB010838BB01089A
:10495000F8BA0108C8BB0108E4BD0108E8BD0108B8
:10496000D0BE0108D8BE01085CBB0108A8A9010897
:10497000B8BC0108D4BC0108F0BC010808BD01089E
:104980003CBD010868BD010894BD010898BD01083F
:10499000482B032024BE010828BE01082CBE0108B4
:1049A00030BE010834BE010838BE0108BCBE010893
:1049B000B4BD010890BE01086CBE0108CCBD010861
:1049C0006807032074BD01084CBD0108373D032072
:1049D0000C3D0320003C18BF0124964B96481C74E4
:1049E00008F08AFA39E7934B94489C6108F084FAFE
:1049F00033E7904B92481C6208F07EFA2DE78D4B0E
:104A00009048DC6108F078FA27E78A4B8E485C61B1
:104A100008F072FA21E7002008F012FC03468B48E8
:104A2000FB6008F069FAFFF767BB894808F064FA91
:104A3000FFF762BB874914F0BFF9451E041D15F846
:104A4000012FA2F12A03002A3FF456ABA5423FF4FE
:104A500053AB1A2B00F2C480DFE803F0B9C2C2C224
:104A6000C2C2C2C2C2C2C2C2C2C2C2C2C2C2C2C226
:104A7000C2C2C2B5AC241B0028467749FBF7E0FB55
:104A800000283AD1022C16D0744808F035FAFFF706
:104A900033BB734808F030FA40F2E3707149FFF716
:104AA0001FFACCE7704808F027FA40F2E2706D492F
:104AB000FFF716FAC3E7674914F07EF9451E041D97
:104AC00015F8012FA2F12A03002A3FF415ABA542E5
:104AD0003FF412AB1A2B00F29080DFE803F0858ED2
:104AE0008E8E8E8E8E8E8E8E8E8E8E8E8E8E8E8EE6
:104AF0008E8E8E8E8E675E251C0028465B49FBF7E6
:104B00009FFB064600283AD1012C16D0584808F0E1
:104B1000F3F9FFF7F1BA574808F0EEF940F2E37005
:104B20005549FFF7DDF9CBE7544808F0E5F940F2C5
:104B3000E2705149FFF7D4F9C2E7464914F03CF955
:104B40004F4808F0D9F9304603F0CCFA322010F083
:104B500059FF2146422003F08BFA06F005FD10F0C4
:104B600051FF2146432003F083FA06F0FDFC10F0CC
:104B700049FF2146442003F07BFAFFF7BDBA2846DF
:104B80004049FBF75DFB002840F08C80022C38D0B8
:104B90003D4808F0B1F9FFF7AFBA3C4808F0ACF96E
:104BA00040F2E1703449FFF79BF989E7384808F093
:104BB000A3F985E7374808F09FF940F2E1702949E9
:104BC000FFF78EF93BE7324808F096F937E73248AD
:104BD00008F092F940F2DF702249FFF781F92EE7E1
:104BE0002E4808F089F92AE72D4808F085F940F2A7
:104BF000DF702149FFF774F962E7284808F07CF973
:104C00005EE7144914F0D8F8451E041D15F8012F6D
:104C1000A2F14103002A3FF46FAAA5423FF46CAA17
:104C2000032B00F26C83DFE813F01C0213020A026C
:104C30005F0000BF482B032014BD0108F4BC01082D
:104C4000DCBC0108C0BC0108A0BC010838BC0108DC
:104C50000CBC0108F8AB010888BF010890BF01082F
:104C600074BF010818BF010860BF01083CC00108FB
:104C700048C001081CC00108D0BF0108FCBF0108E2
:104C800070C00108CCC00108D8C00108DCBF010811
:104C900024BF01084CBF0108F4BE01086CBE010826
:104CA000A8BF01082846A449FBF7CAFA002800F06B
:104CB0008B812846A149FBF7C3FA002800F08481C4
:104CC00028469F49FBF7BCFA002800F031812846AE
:104CD0009C49FBF7B5FA00284AD1022C0DD09A481E
:104CE00008F00AF9FFF708BA984808F005F940F209
:104CF000E3709749FFF7F4F888E79649002014F02D
:104D00005BF895490446FBF79BFA002800F0088100
:104D100020469249FBF794FA002800F0F9802046DB
:104D20008F49FBF78DFA002800F0728220468D49EA
:104D3000FBF786FA002800F0638220468A49FBF7D9
:104D40007FFA002800F0548220468849FBF778FA61
:104D5000002800F0458220468549FBF771FA80BBA8
:104D6000072005F0DBFA834808F0C6F8FFF7C4B95E
:104D700028468149FBF764FA002800F08A8028461B
:104D80007E49FBF75DFA002800F0838028467C49C5
:104D9000FBF756FA00287CD028467A49FBF750FAF0
:104DA000002876D028467849FBF74AFA00285ED1D9
:104DB000012C21D0022C09D9744808F09DF8FFF786
:104DC0009BB9734808F098F8FFF796B9614913F05A
:104DD000F3FF451EC41C15F8012FA2F14103002A60
:104DE0003FF48AA9A5423FF487A9032B00F28382EE
:104DF000DFE803F0392A1B0C664808F07DF8C8206C
:104E000010F000FE08F022FFFFF776B9624808F0C4
:104E100073F80021442003F02BF9322010F0F2FD4A
:104E20000121442003F024F9D5E75C4808F064F838
:104E30000021432003F01CF9322010F0E3FD012192
:104E4000432003F015F9C6E7554808F055F800214E
:104E5000422003F00DF9322010F0D4FD0121422050
:104E600003F006F9B7E74F4808F046F8B3E72846DD
:104E70004D49FBF7E5F9002840D028464B49FBF7A0
:104E8000DFF938BB022C07D0494808F035F8FFF7A6
:104E900033B90120FFF734B92E4913F08DFF2E49A5
:104EA0000546FBF7CDF9002800F0C28128462B49C2
:104EB000FBF7C6F9002800F0B38128462849FBF724
:104EC000BFF900BB032004F04BFF3A4808F014F888
:104ED000FFF712B928463849FBF7B2F9002840F02D
:104EE000B48101F0FBF8002800F0AA81334808F0F3
:104EF00003F8012001F002F9FFF7FEB8304807F08F
:104F0000FBFFFFF7F9B82F4807F0F6FFFFF7F4B8FB
:104F1000022005F003FA174807F0EEFFFFF7ECB8A0
:104F2000012005F0FBF9134807F0E6FFFFF7E4B8AE
:104F300006F076FAFFF7E0B88CC1010890C10108CD
:104F40003CCA010844AC010844CA010848C1010830
:104F500018C10108F8AB010808AA01084CCF0108E4
:104F6000A0CA0108A4CA0108A8CA0108ACCA01085D
:104F7000B0CA010894CA0108E4CA0108E8CA0108D5
:104F8000F0CA0108F8CA010800CB010858CB010893
:104F9000B4CA010808CB010850CC01083CCC010878
:104FA00028CC0108DCCB010864CC0108E8CC01085E
:104FB000F0CC010838CD01087CCD010884CD010872
:104FC0006CCC01084CCD0108012C40F25C81002022
:104FD000CD4913F0F1FE054600283FF48DA8CB49DA
:104FE000FBF72EF9002800F049812846C849FBF755
:104FF00027F9002800F03E812846C649FBF720F932
:10500000002800F02D812846C349FBF719F9064610
:10501000002800F090802846C049FBF711F90028CD
:1050200000F082802846BE49FBF70AF9064678BBA5
:10503000032C1AD0BB4807F05FFFFFF75DB8BA48F2
:1050400007F05AFF40F2E270B849FEF749FFDDE58C
:10505000B74807F051FF40F2E170B449FEF740FF56
:10506000D4E5B44807F048FFD0E5A74913F0A4FE03
:105070000A216A468DF8006008F02AF99DF8003090
:105080000446012B10D0AC4807F036FFFFF734B8C8
:105090002846AA49FBF7D4F848BB032C0FD0A848F0
:1050A00007F02AFFFFF728B8A64807F025FFE0B26F
:1050B000FEF77CF9A44807F01FFFFFF71DB89249DF
:1050C000002013F079FE00230A216A468DF8003093
:1050D00008F0FEF89DF800300446012BD3D1994822
:1050E00007F00AFFE0B2FDF763FFFFF705B82846B7
:1050F0009649FBF7A5F8002800F0EF802846944970
:10510000FBF79EF8002800F0E18028469149FBF764
:1051100097F8002840F0C780042C00F0B9808E4832
:1051200007F0EAFEFEF7E8BF8C4807F0E5FEFDF762
:1051300049FAFEF7E1BF8A4807F0DEFEFDF75CF8AA
:105140004FF47A730446B0FBF3F0694603FB104456
:1051500008F0ECF80A2103462027B4FBF1F24FF0E7
:105160002E09642503EB0708E84408F8209CB2FBED
:10517000F1F8B4FBF5F54FF0250E4FF00D0C01FBE7
:10518000124401FB18220DEB0708591C58FA81F153
:10519000303501F8205C991C303258FA81F101F861
:1051A000202CDA1C58FA82F2303402F8204C1A1DF6
:1051B00058FA82F202F8207C5A1D58FA82F202F85C
:1051C00020EC9A1D073358FA82F258FA83F302F85A
:1051D00020CC684603F8206C07F08EFEFEF78CBFEB
:1051E000062005F09BF85F4807F086FEFEF784BFB7
:1051F000052005F093F85B4807F07EFEFEF77CBFC4
:10520000042005F08BF8574807F076FEFEF774BFD0
:10521000032005F083F8534807F06EFEFEF76CBFDD
:10522000204604F09DFD504807F066FEFEF764BF7F
:10523000012004F095FD4D4807F05EFEFEF75CBFCF
:105240004B4807F059FEFEF757BF4A4807F054FE97
:10525000284607F051FE484807F04EFEFEF74CBFC7
:10526000464807F049FEFCF76DFF454807F044FE4D
:10527000FEF742BFFDF7E0F8FEF73EBF414807F0FA
:105280003BFEFEF739BF404807F036FEFEF734BF5D
:105290001D4913F091FDFCF795FD68B92A4807F008
:1052A0002BFEFEF729BF28463849FAF7C9FF40B957
:1052B000FCF7B4FEFEF720BF354807F01DFEFEF7F1
:1052C0001BBF344807F018FEFEF716BF324807F040
:1052D00013FEFDF751FCFEF70FBF304807F00CFE40
:1052E000032C7FF41CAF0849002013F065FDFDF787
:1052F000B5FAFEF701BF2A4807F0FEFD6BE5284826
:1053000007F0FAFD82E400BFF8AB010828AC010801
:105310009CC80108A4C80108BCC80108DCC8010871
:10532000FCC8010804C9010824C1010818C101080A
:10533000F4C0010824BF01083CC9010850C9010894
:105340005CC9010828C9010834C9010884C90108D9
:10535000B8C90108DCC9010898C90108E4C80108F6
:10536000C4C8010894CA010824CD010810CD010861
:1053700094CD0108A8CD0108BCCD0108A8C801083A
:10538000B4C80108D4C1010898C10108FCC90108CA
:10539000E0C9010804CA0108C0C901088CC9010894
:1053A0006CC101082DE9F04FA1B005460E4606F08C
:1053B0002BF8012800F086812B78A3F13002012A16
:1053C00019D90022904FCDE90B227979012900F0FB
:1053D000FD80DFF83882D8F800200024752BCDE955
:1053E0000D440A9240F08A80132E00F07281002052
:1053F00021B0BDE8F08F4FF400116A780C91302A8B
:1054000000F0F0804FF480107F4F0B9079790129E4
:105410006AD000237D49722A0968CDE90D330A91CB
:1054200005F1010900F0FA8000F2F680522A02D05C
:10543000542A40F0E38001242246B71A092F40F293
:10544000DD804FF080434FF0000A601C2844079332
:10545000CDF820A007F0C6FE069004F1090028440C
:1054600007F084FE99F800308046522B099003D152
:105470004FF00053D0460893404607F0DBFE05305E
:10548000B7EB400F40F0BA800A34013EB44238BF57
:1054900000270DD2281907F06FFE0234E4B220ABCA
:1054A00053FA87F3B44203F8400C07F10107F1D334
:1054B00007F0EAFC10AC0121554806AE07F0FAFCF3
:1054C00021463046FEF7BCFB022840F0EF8007F093
:1054D000E7FC02E00A2010F095FA21463046FEF77C
:1054E000AFFB0228F6D0E3E0721EA95C692900F048
:1054F000328400220124CDE90D220A92295D224640
:10550000722905EB040900F08B8068D8522994D0E9
:10551000542992D0233B562B70D8DFE813F02A0190
:105520006F00EB0007026F006F006F006F006F00ED
:105530006F006F006F006F006F006F006F006F00F3
:105540006F006F006F006F006F006F006F006F00E3
:105550006F006F006F00DE009F026F006F0095020A
:1055600074026702E202D102DE00CD02C50201032D
:10557000F3021903AC02BB036F006F006F009903C5
:105580006F006F00EF037503D4038E03CA036F002F
:105590006F006F00E3006F006F001602E6008103EA
:1055A00067036F0057036F00DE004C0344032C03B6
:1055B000FC01E901D3016F00810159016F00430132
:1055C0006F006F003901320135022402721EA95C9E
:1055D00069290ABF164600224FF00042FDE67429F1
:1055E00098D11DE00022084F0B92797901293FF4F0
:1055F0007BAF064B0D921B680E920A930121054862
:1056000007F00CFCF3E600BF6C0103201000032040
:1056100080A8010858A70108742AEFD10124224666
:10562000B71A042FEAD94FF0000A601C2844CDE9CC
:1056300007AA07F0C7FD0690201D284407F096FD35
:1056400099F800308046722B099003D14FF0005337
:10565000D0460893404607F0EDFD052300B203EB6A
:1056600040039F42CAD10534013EA64288BF0027AD
:105670000DD9281907F080FD0234E4B220AB53FAAB
:1056800087F3B44203F8400C07F10107F1D307F0A8
:10569000FBFB10AC0121C54806AE07F00BFC214610
:1056A0003046FEF7CDFA022800F05F8307F0F8FBE2
:1056B0004046069D07F0BEFD22460146284601F001
:1056C000EDFC94E60421BA4807F0A8FB05F0A8FE1B
:1056D0008DE6284601F084FE89E61621B54807F0DC
:1056E0009DFB84E6B44807F007FC0121AF4807F0B2
:1056F00095FB7CE6032E81D96F1C384607F062FDCE
:10570000043E4FEA5609C6F34F06B04204467FF402
:1057100075AF05F1040841461FFA89F210AEA7489B
:1057200007F00AFD11F0DEFA2246A54BA3490096C8
:1057300006F052FB3946BDF8400007F057FCBDF8B3
:10574000402040469E4907F0F9FB0D22BDF840304D
:105750002846023305F813205B00591C07F05EFB56
:1057600011F0C0FA2246964B9449009607F0EEFAE3
:105770003DE6012E7FF442AF924807F0BDFB304674
:1057800036E6FEF761F90121884807F047FB2EE66F
:10579000022E7FF433AF6B78302B0CBF0023012334
:1057A0007B71A2E7052E7FF429AF0126864CA8194C
:1057B000666107F0E1FC0346E81CE36107F0DCFCEE
:1057C0002062FEF741F93146784807F027FB0EE6E4
:1057D0007E4807F091FB40217B4808F0B7FF07F0B7
:1057E000A1FB7B4C784808F0BBFF07F09BFB2068CF
:1057F00010F002FE07F096FB2068764C10F00CFECD
:1058000007F090FB206810F0F7FD07F08BFB206895
:1058100010F002FE07F086FB644807F06DFBE6E53A
:10582000022E7FF4EBAE6B78423B022B3FF6E6AEE6
:1058300000234FF400124FF48011BB70CDE90B121E
:10584000099340F281123B7000234FF01409CDE917
:105850000623DFF8888110AC06AE002002F042FC7F
:10586000FEF750FAFEF7F0F8642010F0CBF86878F5
:10587000012102F01BFC6878012102F0F9FB484687
:1058800010F0C0F802E00A2010F0BCF821463046C3
:10589000FEF7D6F90228F6D0322010F0B3F8D8F887
:1058A000143009F1140913B9B9F5D27FD5D1D8F85C
:1058B0001430002B3FF4A2AE01213C48397007F0B0
:1058C000ADFA94E5012E7FF499AE3146374807F0E2
:1058D000A5FA414801F02CFE002002F003FC002054
:1058E00002F01AFC642010F08DF808F0AFF97EE5A4
:1058F000042E00F0E782092E7FF480AE681C07F0CA
:1059000071FC0346354A23F0004301212748136503
:1059100007F084FA6BE50121244807F07FFA0123A0
:10592000294A3B70D360FEF78FF860E5062E7FF4BE
:1059300065AE05222A49681C13F013FA002840F0CE
:10594000B182284807F0D8FACFE6022E7FF456AE8F
:105950006B781D4A303B18BF012301211348137493
:1059600007F05CFA43E5032E7FF448AE6878A0F1B7
:105970004203022B3FF642AEAB78302B0CBF002126
:10598000012102F075FBB0E67822174B8DF840201C
:10599000D3F890050DF1410107F0F2FA0D230A2129
:1059A00010A88DF8493007F039FA20E580A80108E1
:1059B000D8AB010864CE010834CF0108B4660120D9
:1059C000B056012034CE0108482B03207CCE0108BC
:1059D000E43B0320E03B032084CE010810000320B9
:1059E00048CF010850CF01080000FA0B10A9BA48AF
:1059F00008F072FE02A9B84808F096FE10A902A8A5
:105A000001F04EFDF3E4B54807F02CFC431C9E4228
:105A10007FF4F4ADB14807F025FCB0490246681C9C
:105A200013F0B7F900287FF4E9AD0121AC4807F085
:105A3000F5F9C8200FF0E6FF03F010F9002840F058
:105A4000768203F057F9D9E5012E7FF4D7AD002314
:105A50003146A3483B7007F0E1F9C8E4022E7FF419
:105A6000CDAD6B78302B00F05582312B7FF43DAEFD
:105A700001233B7139E64E239A4D9B4E0DF14104B3
:105A80008DF8403015F8040B214607F0E7FAB542CF
:105A900004F10204F6D1192110A807F0BFF9012181
:105AA0008F4807F0BBF9A2E44A238DF8403005F097
:105AB00069FD0DF141016FE78C4801F0D1FC96E4DE
:105AC000032E00F01B82052E7FF498AD681C07F0B2
:105AD00053FB0346804CE81CA36107F04DFBA0621A
