:020000040800F2
:10000000000004202DD20008E9CF0008EDCF000841
:10001000F1CF0008F5CF0008F9CF00087DD2000825
:10002000000000000000000000000000D17701087F
:10003000FDCF000800000000617701083150010881
:100040007DD200087DD200087DD200087DD2000854
:100050007DD200087DD200087DD200087DD2000844
:100060007DD200087DD200087DD200087DD2000834
:100070007DD200087DD200087DD200087DD2000824
:100080007DD200087DD200087DD200087DD2000814
:100090007DD200087DD200087DD200087DD2000804
:1000A0007DD200087DD200087DD200087DD20008F4
:1000B0007DD2000801D000080DD000087DD20008D4
:1000C0007DD200087DD200087DD200087DD20008D4
:1000D0007DD200087DD200087DD2000819D000082A
:1000E00025D000087DD2000831D000087DD200085C
:1000F0007DD200087DD200087DD200087DD20008A4
:100100007DD200083DD0000849D000087DD200080B
:100110007DD200087DD200087DD200087DD2000883
:100120007DD2000855D0000861D000087DD20008BB
:100130006DD000087DD200087DD200087DD2000875
:100140007DD200087DD2000879D000087DD2000859
:100150007DD200087DD200087DD200087DD2000843
:100160007DD2000885D000087DD200087DD200082D
:100170007DD20008000000007DD2000800000000D1
:1001800091D000087DD200087DD200087DD2000801
:100190007DD200087DD200087DD200087DD2000803
:1001A0007DD200087DD200087DD200087DD20008F3
:1001B0007DD20008000000009DD000087DD200081C
:1001C0007DD20008000000007DD200087DD200082A
:1001D0007DD200087DD200087DD200087DD20008C3
:1001E0007DD200087DD200087DD200087DD20008B3
:0401F000000000000B
:1002000010B5054C237833B9044B13B10448AFF350
:1002100000800123237010BD0807032000000000A8
:100220001492010808B5034B1BB103490348AFF30F
:10023000008008BD000000000C0703201492010894
:1002400010F8012B11F8013B012A28BF9A42F7D080
:10025000D01A7047034613F8012B002AFBD1181A55
:1002600001387047704700BF2DE9F041234C244D01
:10027000244E254FDFF8948082B04FF0FF330222E6
:1002800020680DF1060115F04BFD022807D02B78F0
:10029000012B29D0012130460CF068F9EDE742F23C
:1002A0000303BDF806209A42F1D841464FF0FF33D0
:1002B000206815F035FDBDF806108142E7D14046B3
:1002C00006F0E4FA0028D8D12B78BDF80610012BEF
:1002D0000E480DD004F08AFC0128CED12B78B3FA59
:1002E00083F35B092B70C8E738460CF0ADF9C4E71F
:1002F00003F07AFA0128C0D1F0E700BF28080320F4
:10030000FC070320409E0108209E01083CB7002006
:100310002DE9F04F7E4CDFF81482DFF808927D4F14
:100320007D4E9BB04FF0FF3328226946206815F0C0
:10033000F7FC2828F6D103980CF024FB824600280D
:1003400040F09380029B002B6DD10098D8F80030CC
:10035000984200F0928051460AAA06F0B7FA16F0C9
:100360006DF80AA90246684607F0E6F916F066F845
:100370000AA90246684609F01DF916F05FF80AA9B5
:100380000246684606F080FA3B78002BCAD0069BEE
:10039000B3F5001F7FD00121BAF1080F28BF4FF03D
:1003A000080A00200D465FFA8AFADDE90132002AC8
:1003B00069D13144002B00F09D80542333540098C0
:1003C0000CF086F90544EDB2069B7119B3F5001FD8
:1003D0006CD00AF00F000CF0F9F90544EDB2BAF157
:1003E000000F0BD00AAB9B469A441BF8010B711906
:1003F0000CF0DCF9DA450544EDB2F6D1FB78002BC0
:100400005CD17B791BB1069BB3F5001F76D00D2321
:10041000691C4148C9B273550CF0A8F8002881D076
:1004200000233B707EE7B3F1005FA6D1009BB3F5DC
:10043000E06FA2D1C9F80030039B0199082B28BFB7
:1004400008231A460023C9F80410C9F80C203349C0
:1004500008223348C9E90533C9F808300CF09EFA80
:100460002F49304803F02CF887E702464FF0FF335E
:1004700020680AA915F054FC64E72B492B4803F0C7
:100480001FF8009867E753B352234FF0000A335424
:100490003144009894E7059B0221B3F5801F14BFF7
:1004A0003023312301200D4633707EE7039800F09E
:1004B0000F000CF08BF92B18DDB290E715F0BEFFA2
:1004C0004EF660221A4B7119A3FB00C39B0B02FB73
:1004D000130080B20CF048F92B18DDB291E79A4670
:1004E000722333540098314480B20CF027F92B1852
:1004F000DDB269E7742333540098F5E7049BB3F148
:10050000004F84D1692373550135EDB27FE700BFF9
:10051000A43B0320680103203CB500209005FA0BA2
:100520002C07032038070320F83C0320003D03205C
:1005300073B2E7452DE9F0411F4DDFF884801F4F6E
:100540009AB0002404EBC40101AEC4F124024FF0C0
:10055000FF33286806EB810115F0E2FB0444232CED
:10056000F0D904980CF00EFA039B0646B3F1005F35
:1005700000D0A0B938460DF09FFC50B138460AAA09
:1005800001A90DF053FBD8F80C300133C8F80C303A
:10059000D7E74FF0FF31012016F008FCEAE700240E
:1005A0000AA9321B21444FF0FF33286815F0B8FB2D
:1005B0000444A642F4D8DDE7A03B0320082B032027
:1005C000100003202DE9F04182B006F079F902F025
:1005D0007BFE07F0B1F900F0C7FD09F063FD15F0EF
:1005E0002DFF06F047F915F029FF06F047F92448DA
:1005F00011F00CFC234811F0D1FB2349234808F0EB
:10060000F7FE234F07F066FE224DDFF89080224E62
:1006100005E001330CD10A2101A816F077F815F096
:100620000DFF3B68019001332B68F2D101330BD0F1
:100630004FF47A7401E0013CEDD03146284602F0D7
:100640003FFF0028F7D0E6E709F02AFD019809F0FE
:100650002FFD019800F08AFD98F800304BB1019809
:1006600006F016F9019807F065F8019808F0D6FE33
:10067000D1E7019806F072FA019806F0FDF8EEE76E
:1006800040280320A8270320181B0320A8290320A3
:10069000003D0320D43C0320CC3C032092000320E7
:1006A0002DE9F04700272A4D2A4EDFF8ACA0DFF8ED
:1006B000AC90DFF8AC80A4B016E0630203D53379C8
:1006C00043F08003337199F8003033B1099B23B1B3
:1006D000642014F043FD02F0F7FD002302221946C6
:1006E000D8F8000016F0D8FB4FF0FF31012016F0CB
:1006F0005DFB16F03BFF28460DF034FD044604A9CF
:1007000028460DF095FB694628460DF0B9FB5422AA
:1007100031460FA8B46018F008F82F66169BB3F5A1
:10072000003F02D9B3689A020CD416F02DFF9AF854
:100730000030012BC1D1234668460FAA04A906F058
:10074000FFFABAE7012386F8203002F047FEECE713
:10075000082B032010000320A03D032028070320BE
:10076000C81F032000232DE9F04784B05B4C5C4D8B
:100770005C4FDFF87481DFF874910DF10E068DF88F
:100780000B3004E04FF0FF31002016F00FFB206823
:1007900015F0EEF90028F5D04FF0FF330122206864
:1007A0000DF10B0115F0BCFA0128EBD1206815F012
:1007B000DFF90128E6D94FF0FF330222206803A9B0
:1007C00015F0AEFA0228DDD1BDF80C20B2F5805F3D
:1007D000D8D2002A55D19DF80BA0BAF1000F16D13E
:1007E00015F02CFE3B462946BDF80C2000960AF079
:1007F0009BFEBDF80E30002B56D115F01FFE3B4678
:100800002946BDF80C2000960BF048FEBAE715F01B
:1008100015FE344B3249BDF80C2000960BF0DAFD82
:10082000BDF80E301BB33A787F2A08D1022B1ED9AF
:10083000BB78A3F11102012A19D9312B17D04FF03F
:10084000FF3302223146D8F8000015F09FF94FF02F
:10085000FF332449BDF80E20D8F8000015F096F9B2
:10086000002302221946D9F8000016F015FB15F0F6
:10087000E5FD1C4B1A49BDF80C2000960BF00EFE4E
:1008800080E74FF0000AA2EB0A0205EB0A014FF0E5
:10089000FF33206815F044FABDF80C2050441FFACD
:1008A00080FA5245EFD196E731464FF0FF330222EE
:1008B000D8F8000015F06AF9BDF80E204FF0FF33AC
:1008C0000849D8F8000015F061F953460222514654
:1008D000D9F8000016F0E0FA8FE700BF68070320A0
:1008E00038A500203895002064070320080D032058
:1008F0002DE9F84F2A4E2B4DDFF8ACA006F11C076E
:1009000006F5805B06F11408A6F5805904E04FF067
:10091000FF31002016F04AFA286815F029F901285D
:10092000F5D94FF0FF3302224146286815F0F8F957
:100930000228ECD1B28AB2F5805FE8D262B100241D
:10094000121B39194FF0FF33286815F0E9F9B28A04
:10095000204484B2A242F3D115F070FD014648460E
:1009600007F01AFA0028D2D115F068FD0AF03EFD12
:100970000128CCD0286815F0FBF80128C7D89AF8D0
:10098000003053B19BF8230014F0E8FB15F056FD3E
:100990000AF02CFD0128BAD0ECE70A20F4E700BFEA
:1009A0008C3D0220640703209200032038B50D49D6
:1009B0000D480BF0ADFD0B4A0C490D4817F01AF924
:1009C000094D0C4C21464FF0FF334FF4006228686C
:1009D00015F0A6F901460028F4D020460BF0B0FD32
:1009E000F0E700BF58080320000803207C24032000
:1009F0002808032040D7002005F05ABF002005F04A
:100A00005BBF00BF0022024B02481A6011F0FEB922
:100A100024070320F4270320014B1868704700BF08
:100A2000240703200000000030B59FB048220021B9
:100A30000CA817F01AFD00234FF40070CDE9023323
:100A4000CDE90433CDE90733CDE9093301930693AA
:100A50000B930FF0A1FB08B172B6FEE7012302224F
:100A6000169311931993179210231D9207229FED4D
:100A70001E7BCDE91A320324042312900CA81C9388
:100A80008DED0C7B18940FF0C9FD034608B172B6CA
:100A9000FEE70F22214601A8CDE903330593029416
:100AA00001920FF069FC034608B172B6FEE7104AE6
:100AB0004FF00055916D4BF67F3441F08071916598
:100AC000926D069302F080720092089322222023F6
:100AD00006A8CDE90A2300990795099410F0FCFCBB
:100AE0001FB030BDAFF300802900000000000100FE
:100AF00000100240F0B593B072B64FF00062A84B00
:100B00009A60BFF34F8F62B600250CF0B9FB07F077
:100B1000EBFCFFF789FFCDE90D55CDE90F55A14C51
:100B20001195E36C4FF4604143F00403E364E36C1C
:100B30002A4603F004030693069BE36C9A4843F0AD
:100B40008003E364E36C012603F080030793079BB3
:100B5000E36C082743F00103E364E36C03F0010353
:100B60000893089BE36C43F00203E364E36C03F037
:100B700002030993099B0DF099FF2A4640F20111E7
:100B80008A480DF093FF2A4641F2E40188480DF0AF
:100B90008DFF4FF4604384480DA9CDE90D360F95C4
:100BA00010950DF0C5FD40F2011380480DA9CDE967
:100BB0000D36CDE90F550DF0BBFD41F2E4037C4845
:100BC0000DA9CDE90D36CDE90F550DF0B1FD7948F0
:100BD0000DA9CDE90D750F950DF0AAFDA36C0521AA
:100BE00043F00403A364A36C2A4603F004030393B5
:100BF000039BA36C1D203343A364A36C3340049375
:100C0000049BA36C43F00203A364A36C03F00203F0
:100C10000593059B0CF06AFB1D200CF0A3FB2A46F4
:100C200005211E200CF062FB1E200CF09BFB2A46C7
:100C3000052150200CF05AFB50200CF093FB284665
:100C40000EF0BCFA08B172B6FEE70EF0CBFA03461E
:100C500040B959484360594B036010F065FC18B126
:100C600072B6FEE772B6FEE710224FF44071544BA5
:100C70000F241870534B99609A619A623C21132299
:100C8000C3E907120422C3E90B424F4A5860D860F7
:100C90009874D8631846C3E90D661E825E615E6271
:100CA0001A600CF0F5FD034668BB4FF0FF31474A70
:100CB0004FF4827CC2E90500C2E90100D0601160F6
:100CC00007224FF4E0654FF400744148C0E90A324E
:100CD000404AC0E90433C0E90833C2E90533C2E938
:100CE000013383600363D3603B4BC7610360476399
:100CF000C0F804C0C5608461116010F041FE034675
:100D000018B172B6FEE772B6FEE73448344AC0E95D
:100D100005338380026006620CF056FB034608B17F
:100D200072B6FEE74FF4027102222E48C3722E4BB8
:100D300081800360C0F807200EF05EFA034608B118
:100D400072B6FEE741F63F75284C294ACDE90D0001
:100D50000F902046C4E90133A3612260E56011F0E1
:100D600069FA034608B172B6FEE720460DA90D9355
:100D70000F9311F091FA034608B172B6FEE71D48D1
:100D80001D4ACDE90D33026042F20F72C0E902350F
:100D90000F938361426011F04DFA78B372B6FEE7AB
:100DA00000ED00E000100240000802420000024294
:100DB00000040242001C02420C2A032000080C42DC
:100DC00028070320082B032000A40040003D032037
:100DD000A8290320D43C0320003800406C2B0320BA
:100DE000003002408024032000D40040F427032078
:100DF00000140040402803200010004000238E48CB
:100E00000DA90D930F9311F047FA034608B172B67E
:100E1000FEE74F254FF6FF748848C0E9043383602E
:100E20008361874BC460C0E9003511F003FA0346C3
:100E300008B172B6FEE78348C0E90153C0E9034335
:100E4000C0E90533804B036011F0F4F9034608B1A3
:100E500072B6FEE74FF080414FF0FF327B4CCDE998
:100E60000D00CDE90F00C4E901000A902061A061E6
:100E70002046CDE90B332160E26011F0DBF908B1C7
:100E800072B6FEE74FF4805320460DA90D9310F083
:100E9000FBFF034608B172B6FEE720460AA90A9393
:100EA0000C9311F0F9F9044608B172B6FEE76848F0
:100EB000684900902246684B0C7043F69820012147
:100EC00014F0C8FD0546654E654A0096012115607F
:100ED000644B224643F6982014F0BCFD0546624E52
:100EE000624A009601211560614B224641F20100E1
:100EF00014F0B0FD02465F4E5F4D009601215F4B3E
:100F00002A6041F20100224614F0A4FD5C4B5D4AC8
:100F100001210092186022465B4B43F6982014F0A2
:100F200099FD5A4B5A4A0121009222461860594BAA
:100F300043F6982014F08EFD574B584E186020460B
:100F400006F0C6FC204606F0DDFC06F025FD15F097
:100F500075FA2A46524B5349009606F0D9FB52487F
:100F600009F0A2FE514805F06BFC5148514A524924
:100F700002F090F90DA80D9406F066FC10B90D9BD7
:100F8000002B55D014F062F816F020FD00214B4ADA
:100F90004B4814F087F804464A4B00214A4A4B4814
:100FA0001C6014F07FF80446494B0021494A4A4826
:100FB0001C6014F077F804463F4B0021474A48482C
:100FC0001C6014F06FF80446464B0021464A47481F
:100FD0001C6014F067F80446364B0021444A45482B
:100FE0001C6014F05FF804462E4B0021424A43482F
:100FF0001C6014F057F80446414B0021414A424816
:101000001C6014F04FF80446404B0021404A414810
:101010001C6014F047F804463F4B00213F4A40480B
:101020001C6014F03FF83F4B186014F021F8FEE705
:101030003D4806F0E1FBA5E740280320A827032050
:10104000004401405C270320004801408C28032015
:101050002C080320FC070320D819012004080320D2
:101060002808032040DF0020D807032000080320C1
:1010700034850020B4070320680703203075002062
:101080006407032090070320983A0020A43B032024
:101090006C07032000000020A03B03205C07032016
:1010A00060070320B81103200C2A03206C2B0320B7
:1010B000082B032068160320C81F03203CD001081A
:1010C000690200087C24032018D0010811030008DD
:1010D00078240320F4CF010835050008D0CF01089B
:1010E000C5050008181B0320ACCF0108A1060008A5
:1010F00088CF01086507000864CF0108F1080008DF
:10110000080D032040CF0108AD090008580803204E
:101110001CCF0108F909000854080320F8CE010883
:10112000FD09000850080320040029C0094A03688B
:10113000934206D0084A93420AD0084A934205D007
:101140007047074A136801331360704705F0A8BB66
:101150000CF0A8B800140040002C01400010004022
:101160002407032072B6FEE7704700BF704700BF38
:1011700040F69E732DE9F047DFF89CA02349244AEE
:10118000DAF80040B1F800E012889C4204FB0E221D
:1011900038D800204FF0804140F69F764FF030085D
:1011A0003127DFF878901B4D09EB040C4B6A934212
:1011B000FCD32B69013013F48073C0B204F1010435
:1011C00072440ED118468CF80080B4420CF1010C28
:1011D000ECD10120CAF80040002309F80430BDE832
:1011E000F0870A288CF80070EFD9142C02D80CF183
:1011F000010CDBE7002309F804300020CAF80040A6
:10120000BDE8F0870120DFF81490E5E70A0003202D
:101210000800032000040242FC2B0320002C0320C2
:1012200070B500244FF0804101254FF6FF7086B065
:10123000CDE90044CDE9024404940A681B4E22F033
:1012400001020A6032881A4B013A8A624C624D618F
:101250000A68184E2A430A601A6822F001021A60CE
:1012600098625C625D611A682A431A6002F0B6F8FF
:1012700030462A464FF400710DF018FC4FF480728E
:10128000002369463046CDE9002302940DF050FA60
:101290004FF40073032269463046CDE900350392CE
:1012A00002940DF045FA06B070BD00BF0C0003209B
:1012B0000048014000040242F0B5BDF81450012D71
:1012C0003BD9302405F1FF3E1C70C1BBC0F3802127
:1012D000BEF1010F01F130012FD001270A253E4652
:1012E0000DE00C460127013D20FA05F101F0010156
:1012F0006E1C01F130011AD0F4451EDA664606F183
:10130000010C8C4299551FFA8CFCEAD10137FFB2CF
:10131000052FE8D1C4F16104F445E4B206F10206F8
:101320000BDA03F80C4001271FFA86FCDBE7002AE2
:101330000CBF30253125F44549DB0020F0BDC0F35A
:101340000071022D2144F8D001271C253E460DE0F6
:101350000C460127013D20FA05F101F00101112D94
:1013600001F130011AD0E645E7DD664606F1010CD1
:101370008C4299551FFA8CFCEAD10137FFB2052F38
:10138000E8D1C4F16104F445E4B206F10206D4DA0E
:1013900003F80C4001271FFA86FCDBE7E645CCDDAD
:1013A00031260CF10101B44289B203F80C606BD014
:1013B0008E45C2DD34465E5402260CF10207BFB2F0
:1013C000C0F34041BE4501F1300126DCB5E70CF128
:1013D0000101AC4203F80C5089B26DD00127714570
:1013E000ABDA30224C1C9542A4B25A5400F08680ED
:1013F000A645A2DD881C80B21A5500221A54F0BD01
:101400000C4667460126013D21D320FA05F101F083
:101410000101774501F130018FDA07F1010C8C42AF
:10142000D9551FFA8CFCEBD10136F6B2052E01D04E
:101430006746E8E7C4F16104E645E4B207F1020754
:101440007FF77BAF0126BFB203F80C40DBE7002A31
:101450000CBF302531257745BFF66FAF7A1CAC4203
:10146000DD5592B25FD001217245BFF666AF3026DE
:10147000541CB542A4B29E5472D0A6457FF75DAF0E
:10148000023290B21E55B8E7042F26D08E457FF762
:1014900054AFBE1CF6B20CF10207052E5C54BFB26D
:1014A0008ED17745BFF649AF30240CF1030CDC55E3
:1014B00001261FFA8CF783E70137FFB2052F8ED183
:1014C0008E457FF73AAFC5F16105EDB20CF1020C24
:1014D0005D5401271FFA8CF181E78E457FF72DAF10
:1014E00030265E540CF1020189B28E457FF725AF9C
:1014F0000CF1030701265C54BFB261E77A1CD2B23B
:10150000052A1FD0A6457FF718AF881C042A1D5551
:1015100080B27FF472AF7045BFF60FAF3122033156
:101520001A5488B269E7711CC9B205299CD1724569
:10153000BFF603AFC5F16105EDB202379D5401213D
:10154000BAB291E7A6457FF7F8AE31221A558A1C48
:1015500092B296457FF7F1AEC81C80B29D544CE71D
:101560000131C9B2052910D0A6457FF7E6AE1D5559
:10157000042902F10204A4B215D17445BFF6DDAE10
:101580003121033290B2195537E7A6457FF7D5AE22
:1015900031211955911C89B28E457FF7CEAE0332A9
:1015A00090B25D5429E7204627E700BF4A4B1868F0
:1015B000831C74D02DE9F04FC71C91B075D0411C2D
:1015C00053D14FF000084FF0804E444B444A1B88E3
:1015D000B2F800A00393434B0AEB8A041F88424BE6
:1015E00042481968424E64000369DA05FCD5DEF80A
:1015F000242092B20369DB05F6D5DEF824309B1A6D
:101600009C42F7D8036913F4807306D0736ABB4217
:101610003FD8036913F48073F8D11D46CEF8243007
:10162000B8F1000F1AD04FF08041039ADFF8D09044
:10163000DFF8B8B00DF1100C4B6A9342FCD3DBF825
:101640001030524413F4807F1CF8013B1DD0312B25
:101650001DD10135A84509F8013BEDD1224BC3F856
:101660000080002011B0BDE8F08F3024214B224AC9
:101670001978127804AB0094FFF71EFE804600280C
:10168000A1D11E480AF0E0FF9DE7302BE1D02946AA
:10169000AAE70120144B196011B0BDE8F08F4FF09C
:1016A0008043002200205A6270474FF080440C4B68
:1016B0000E4A188800EB800040001369DE05FCD557
:1016C000616A89B21369DD05F7D5636A5B1A8342E3
:1016D000F8D300236362C4E704000320080003205A
:1016E0000A00032000000320FC2B03200004024218
:1016F00000480140F92B0320F82B0320DC9E010851
:10170000002C032002783AB34FF0000C30B563464A
:10171000864631250BE02A2A07D10CF1010C1FFA6D
:101720008CFC8EF8005000EB0C0EC25C82B1A2F172
:101730003001013301290CF101049BB2EBD88EF882
:101740000020C25C1FFA84FC00EB0C0E002AEED1D4
:1017500000238EF8003030BD00230370704700BFB7
:10176000F8B504460BF026F9142874D900F1FF3EB1
:101770001FFA8EFE14F80E2004EB0E05312A2B46BC
:1017800018D1A0EB0E020C2A65D8811E661E2A27EE
:1017900014FA81F1064401E00C2A5CD81F700B4654
:1017A00093F800C0C3F10102BCF1310F01F1FF3128
:1017B0003244F1D00021234601270E46204413F87D
:1017C000012BA2F13004012C49D8002945D0E7B102
:1017D000052953D1B2423ED05F22984203F8012C32
:1017E00029D01A4612F8014BA4F13001012962D820
:1017F000904203F102031ED012783946A2F130065E
:10180000012E26462BD8002FE2D1B2420DD09842AD
:1018100011D013F8014B1646A4F13001012942D82A
:101820002246B2424FF00101F1D1013198424FF00E
:101830000007C9B2C3D10FFA8EFEBEF1000F08DB5C
:101840002A4615F801392A2B45D05F2B01D13023C8
:1018500013700120F8BD0020F8BD16460121984202
:10186000ADD1E8E79842E6D013F8014B0121A4F18D
:101870003002012A2CD8302216462246B2420BD022
:10188000312AEFD19842D6D013F8014BA4F13001A0
:10189000012928D80121EFE70131312EC9B205D045
:1018A00001273026DBE700270121D8E706298CBF76
:1018B00000270127D3E79042BDD011780233A1F170
:1018C0003002D2B2012A96BF0E4600213946C6E741
:1018D00030260F46C3E70EF1FF3E0FFA8EFEBEF133
:1018E000FF3FADD1B5E7012116460F46B7E700BF70
:1018F00070B571B3002344F2995600F1FF3C0CEB34
:1019000001051CF8012F5C00A2F13102B2FA82F24B
:101910004FEA933E47F6FE735209724503EA040309
:1019200018BF7340AC45ECD14A1E00F10E0C0244C6
:1019300000208C4412F8011F4000312908BF40F0FC
:101940000100944580B2F5D1C01AB0FA80F0400988
:1019500070BD0B46E8E700BF2DE9F04F8FB004469D
:101960000BF028F8122840F251812378302B05D053
:10197000B6480FB0BDE8F04F0AF066BE054606AEA9
:10198000B3480AF061FE00273146234604F10B0CF0
:1019900013F8012FA2F13100B0FA80F09C454FEA14
:1019A000501001F8012B40EA4707F1D14FF0000831
:1019B000A8488DF823800AF047FE06A80AF044FEE6
:1019C000A5480AF041FE03A938460AF081FE03A8A3
:1019D0008DF814800AF038FEA0480AF035FE277B07
:1019E0009F4894F80D908DF819808DF818700AF0C2
:1019F0002BFE06A80AF028FE9A480AF025FE9A480F
:101A00008DF818900AF020FE06A80AF01DFE9548F1
:101A10000AF01AFEB9F1310F40F00281262D40F292
:101A2000FB80474606AA04F10D010DF12A0011F8CA
:101A3000013F02F8013BA3F13103B3FA83F3904273
:101A40004FEA531343EA4707F1D14FF000088748A4
:101A50008DF82A800AF0F8FD06A80AF0F5FD7E4808
:101A60000AF0F2FD03A938460AF032FE03A88DF809
:101A700014800AF0E9FD79480AF0E6FD94F8207038
:101A80007B488DF819808DF818700AF0DDFD06A8E6
:101A90000AF0DAFD73480AF0D7FD94F82130754852
:101AA0008DF818300AF0D0FD06A80AF0CDFD6D487B
:101AB0000AF0CAFD94F822306F488DF818300AF009
:101AC000C3FD06A80AF0C0FD66480AF0BDFD4FF050
:101AD000230A4FF00009201D06A9504404EB0A0216
:101AE00012F8013B01F8013BA3F13103B3FA83F390
:101AF00090424FEA531343EA4909F1D14FF00008ED
:101B00005E488DF81C800AF09FFD06A80AF09CFD37
:101B10005FFA89F950480AF097FD03A948460AF090
:101B200045FE03A80AF1040B8DF80E800AF08CFD27
:101B30004A480AF089FD0BEBC90202F10F03AB42E0
:101B400000F2F580302F00F0A980002706A8551E6E
:101B5000254400F10F0C15F8011F00F8011BA1F13D
:101B60003101B1FA81F184454FEA511141EA470749
:101B7000F1D100254248CDE900238DF827500AF025
:101B800063FD06A80AF060FD33480AF05DFD03A975
:101B9000B8B20AF0E9FD03A88DF810500AF054FD20
:101BA00038480AF051FD009A20461146FFF7A0FE82
:101BB000019B0093002844D033480AF045FD009B68
:101BC000E25CE118A2F13003012B98BF012304D994
:101BD00019E00133202B00F0A88006F8012B11F842
:101BE000012FA2F130000128F3D9002238336B44D1
:101BF000264803F8202C0AF027FD06A80AF024FD49
:101C000018480AF021FD0FB0BDE8F08F20480FB052
:101C1000BDE8F04F0AF018BD1E480AF015FDF2E7C6
:101C2000A37B15488DF818308DF819800AF00CFD4B
:101C300006A80AF009FD0B480AF006FD4FF00F0A4E
:101C400047E715480AF000FD009BB9E7189F010817
:101C50002C9F0108409F0108509F010898C401086B
:101C6000589F0108689F01086C9F0108909F010818
:101C7000A09F0108B09F0108C09F0108D09F0108E4
:101C80000CA001081CA0010820A0010834A0010834
:101C9000049F01087C9F010828A00108B9F1080FE2
:101CA0003FF653AFB9F1000F45D009F1FF330AF108
:101CB0000C0ADBB20AEBC302DFF88C90DFF88CA0D1
:101CC0000DF11F0700250DF1170104EB0B0010F8B3
:101CD000013B01F8013FA3F13103B3FA83F38F42D3
:101CE0004FEA531343EA4505F1D1504600928DF86F
:101CF00020800AF0A9FC06A80AF0A6FC48460AF0D3
:101D0000A3FC03A9E8B20AF051FD03A88DF80E80E8
:101D10000AF09AFC0A480AF097FC009A0BF1080BAB
:101D20005A45CFD102F10F030FE71F235DE70548A6
:101D30000AF08AFC67E75A460AF1130305E700BF79
:101D400098C40108E09F0108509F0108FC9F01080A
:101D5000002845D030B583B004460AF02BFE013090
:101D6000235C251813B9012003B030BD2046774904
:101D70000AF03CFE48BB204675490AF037FE20BBFE
:101D8000204674490AF032FE002857D12046724995
:101D90000AF02CFE002863D00A2128460DF1070224
:101DA0000AF042FE9DF80730002BDCD04FF6FE73A0
:101DB000421E9A42D7D8694B80B21A88684982423B
:101DC00008800BD34008188008E0284665490AF0CF
:101DD0000DFE38B16FF00102634B1A600020C3E7BB
:101DE00001207047284661490AF000FE20B14FF0FB
:101DF000FF325D4B1A60F1E728465D490AF0F6FDB7
:101E000020B16FF00202584B1A60E7E71021284614
:101E10000DF107020AF008FE9DF807300446002B7A
:101E2000A1D0B0F1005F9ED2B0F5006F03D3514B4B
:101E30001A78002A50D04C4B1C60CFE70A21284664
:101E40000DF107020AF0F0FD9DF80730002B8AD053
:101E50004FF6FE73421E9A4285D8474B1880BDE765
:101E6000204646490AF0C2FD90B10A2128460DF1EC
:101E700007020AF0D9FD9DF80730002B3FF473AF3D
:101E8000374B1B8883427FF66EAF344B1880A5E733
:101E900020463B490AF0AAFD80B1284639490AF09C
:101EA000A5FD002837D0304B374A1B68A3F50063E7
:101EB000934246D900222F4B1A708FE720463349B0
:101EC0000AF094FD70B128462E490AF08FFD68B3E0
:101ED00000222F4B1A7081E701222E481A700AF057
:101EE000B3FBA8E720462C490AF080FD00283FF408
:101EF0003AAF0DF107020A2128460AF095FD9DF838
:101F00000720002A3FF42FAFB0F5803FBFF42BAF7E
:101F1000224A108062E7284621490AF067FD00281E
:101F20003FF421AF0122134B1A7057E728461C4992
:101F30000AF05CFD00283FF416AF0122144B1A7022
:101F40004CE718480AF080FB0DE700BF44A00108E9
:101F500050A0010890A001089CA0010808000320DF
:101F60000A0003204CA001080400032058A0010827
:101F70005CA00108F92B03200C000320A8A0010895
:101F8000B8A00108C4A00108FFF7FF1FF0A00108D6
:101F9000F82B032064A00108F4A00108000003202E
:101FA00030B20108C8A0010810B5364884B00AF064
:101FB0004BFB354B01A918880AF064FD01A80AF013
:101FC00043FB324C32480AF03FFB32480AF03CFBFC
:101FD00001A920680AF07CFB002301A88DF80C30D1
:101FE0000AF032FB2368991C40D05A1C42D00333BC
:101FF00044D029480AF028FB284B01A918780AF098
:1020000041FD01A80AF020FB25480AF01DFB254BE5
:1020100001A918780AF036FD01A80AF015FB22483C
:102020000AF012FB214B01A918880AF02BFD01A828
:102030000AF00AFB1E480AF007FB1E4B01A918888C
:102040000AF020FD01A80AF0FFFA1B480AF0FCFA8A
:102050001A4B01A918880AF015FD01A80AF0F4FA34
:1020600017480AF0F1FA002004B010BD15480AF034
:10207000EBFABEE714480AF0E7FABAE713480AF0A9
:10208000E3FAB6E7FCA001080000032004000320E7
:1020900008A1010810A1010830A10108F92B0320B3
:1020A0003CA10108F82B032044A101080C000320E7
:1020B00068A101080A00032078A101080800032094
:1020C000689F010818A1010820A1010828A10108A2
:1020D0002DE9F8430026114D114FFFF7A1F86E626C
:1020E0006A6A3B889A4214D24FF08044DFF83490F9
:1020F000DFF83480B9F800206662636A9342FCD34B
:102100004FF4007140460CF0D7FC6A6A3B889A4253
:10211000F0D301F0D9F80020BDE8F8830048014071
:10212000000003200A000320000402422DE9F04FC2
:10213000804B91B01B88B3F57A7F40F2C480FFF7E3
:102140006FF872B67C4B1868831C00F0EC80C71CDB
:1021500000F0C780411C00F0BD803024774B784AE6
:102160001978127804AB0094FFF7A6F8804600288F
:1021700000F0B3804FF0804E724B734A1B88B2F868
:1021800000A00393714B0AEB8A051968694B7048EC
:102190001C88704F6D000369DA05FCD5DEF8242039
:1021A00092B20369DB05F6D5DEF824309B1AAB4208
:1021B000F7D3036913F4807307D07B6AA34200F25C
:1021C000A980036913F48073F7D11E46CEF824303A
:1021D000B8F1000F1AD04FF08041039ADFF88891D0
:1021E000DFF86CB10DF1100C4B6A9342FCD3DBF8B5
:1021F0001030524413F4807F1CF8013B52D0312B35
:1022000052D10136B04509F8013BEDD14F4BC3F82F
:10221000008000264F4D6E626B6AA34237D24C4F4E
:1022200002E06B6AA34241D23B6913F48073F8D198
:10223000484A4FF08041D2F824C0424A1846B2F8CA
:1022400000904B624A46404BDFF804E1B3F800804F
:102250004B6A9342FCD3DEF81030013013F48073E4
:10226000C0B21CD00B284244F2D14FF08041A2EB07
:1022700009024B6A9342FCD3364A536AA3EB0C0320
:102280001E44536AA342CFD3334B03FB06F662B618
:1022900001F01AF8274B1B88B6FBF3F010E0184644
:1022A0004244D5E7302BACD0314674E762B601F03A
:1022B0000BF8294B1F4A06FB03F31088B3FBF0F021
:1022C00011B0BDE8F08F25480AF0BEF9002011B02A
:1022D000BDE8F08F4FF000084CE721480AF0B4F950
:1022E00048E74FF08044184B194A188800EB8000EB
:1022F00040001369DE05FCD5616A89B21369DD050A
:10230000F7D5636A5B1A9842F8D800236362094BD9
:102310001C887EE70D4B196062B612480AF094F9EA
:1023200000F0D2FFD2E74FF0804300225A62014B07
:102330001C886EE70000032004000320F92B032013
:10234000F82B0320080003200A000320FC2B0320A5
:102350000004024200480140A08601008CA101084F
:10236000DC9E0108A8A10108002C03202A4B70B5AF
:102370001B680333012B37D9FEF752FF72B60022D8
:10238000264B5A62FFF712F928BBFEF7F1FE04460E
:1023900000283AD162B6224E3368072B2ED9214D40
:1023A00028460AF051F920480AF04EF933682846C9
:1023B000EC54FFF7D5F9D8B128460AF045F91B4887
:1023C0000AF042F92846FFF79DF9FFF7C5FA00F039
:1023D0007BFF204670BD62B615480AF035F900F063
:1023E00073FF0124204670BD12480AF02DF9F8E76A
:1023F00011480AF029F900F067FFF3E70F480AF0E7
:1024000023F900F061FF204670BD62B60C480AF067
:102410001BF900F059FFE4E70400032000480140E5
:10242000FC2B0320002C03203CA2010854A201082D
:10243000F0A10108BCA1010844A2010824A20108DE
:102440000CA201082DE9F04F91B0FEF7E9FE72B63B
:1024500000244FF0804270497048714B5462046010
:102460004C621868811C00F0AA80C31C00F0B68082
:10247000421C40F081802046A3464FF0804E694BBD
:10248000694C1E88694B06EB86051A88684BDFF895
:102490008881B3F800906D002369DB05FCD5DEF878
:1024A000241089B22369DF05F6D5DEF824305B1AE3
:1024B0009D42F7D8236913F4807307D0D8F82430ED
:1024C0004B4570D8236913F48073F7D1CEF82430CC
:1024D0001946584B0393BBF1000F00F0998010464A
:1024E0009A464FF080470DF1100C7B6A8342FCD373
:1024F0004D4B30441B6913F4807F1CF8013B4ED0D8
:10250000312B4ED101318B450AF8013BEDD1434BC4
:1025100006FB0B22C3F800B040F69E739B451AD809
:102520004FF080414FF0300C3127039B0BF1FF300F
:10253000414D3D4C18444B6A9342FCD32369DB0563
:1025400027D500F8017FA8423244F4D140F69F73AA
:102550009B46324A13600024039B03F80B4062B68B
:1025600000F0B2FE33480AF06FF834480AF06CF815
:10257000204611B0BDE8F08F314B324A1978302334
:102580001278009304ABFEF797FE834600B3204613
:1025900073E700F801CFA8423244CCD1D6E7302B04
:1025A000B0D0084678E71D4B186062B626480AF09E
:1025B0004BF800F089FE012011B0BDE8F08F194BF7
:1025C0001A491E881B4B5462A3460A880393A7E747
:1025D0001E480AF039F8114B18684EE7114B1249A2
:1025E0001E8806EB860464000B69DF05FCD5506A83
:1025F00080B20B69DD05F7D5536A1B1A9C42F8D8E7
:1026000000230A490B489B46039053620A8887E7D8
:10261000024BC3F800B083E700480140FC2B0320C5
:10262000040003200A0003200004024208000320E3
:1026300000000320002C03209E3B0320689F01081C
:10264000F92B0320F82B0320A8A10108DC9E010828
:10265000002800F019812DE9F04F95B083460AF06B
:10266000A9F9B0F57A6F28BF4FF47A60874D82469A
:102670002B68033340F0C380FEF7D2FD72B600260C
:102680004FF08044824B66625E622868814B871CF3
:102690001E6000F0EF80C51C00F0C580441C00F0F7
:1026A000BA80302300937C4B1A787C4B197808ABA6
:1026B000FEF702FE8046002800F0AF80784B4FF016
:1026C00080441A88774B02EB82051B887648059375
:1026D000764B6F4FB3F8009013466D000169C90542
:1026E000FCD5616A1FFA81FC0169C905F6D5616AEA
:1026F000A1EB0C01A942F7D3016911F4807107D055
:10270000796A494500F2AA80016911F48071F7D114
:1027100061628C4666490691B8F1000F1ED04FF0F9
:10272000804E0491059E08A903910795DEF82410B8
:10273000B142FBD35C49039D0969164411F4807FC3
:1027400015F8011B039561D0312961D1049D0CF16D
:10275000010C05F8011BE0450495E7D1059900241B
:10276000114418464FF080424FF4007C4FF0300E79
:10277000484F504D4C4E3C60576A8742FCD3A245AF
:1027800041D91BF80470312F3DD0302F04D14FF0C8
:102790000078454FC7F81880576A8F42FCD33769D5
:1027A0000134FF0544BF312705F8017F394F58BF79
:1027B00005F801EF3C6040F69F77BC42184419448D
:1027C000DAD14FF47A6000224FF0804100FB03F32E
:1027D000069880F89F2F4A6A9342FCD84FF4007203
:1027E000314B9A6162B600F06FFD314809F02CFF61
:1027F000314809F029FF002015B0BDE8F08F2F48BF
:1028000009F022FF38E7C6F818C0C5E730299DD087
:102810006646079D62E7B04650E7294809F014FF75
:102820001C4B1E684AE71E4B1F4D1A88134602EBCD
:10283000820149002869C005FCD5666AB6B22869DC
:10284000C705F7D5606A801B8142F8D80021616214
:10285000144909880591164906917FE70D4B1E60C2
:1028600062B6184809F0F0FE00F02EFD012015B008
:10287000BDE8F08F0A4A0B4B12881B880C49666230
:1028800005930691134669E7012070470400032071
:1028900000480140FC2B0320F82B0320F92B0320D8
:1028A0000A00032008000320000402420000032065
:1028B000002C0320FF2B0320689F010864A201085D
:1028C000DC9E0108F0A101082DE9F04F91B0FEF760
:1028D000A7FC72B600249B4A9B4B54621868821C6A
:1028E00000F01C81C31C00F04781451C6ED14FF0E5
:1028F0008046964A964B1288B3F800C00392954BD7
:10290000954A0CEB8C07B2F800B01D689348DFF8CD
:1029100034E27F000269D105FCD5716A89B202698F
:10292000D205F7D5726A521A9742F8D8026912F4A2
:10293000807808D0DEF824205A4500F2E48002694D
:1029400012F48078F6D1C6F82480002C00F038818B
:10295000834A4FF080459146039902920DF1100A87
:102960006A6A8A42FCD37D4A6144126912F4807F0C
:102970001AF8012B26D0312A26D108F10108444546
:1029800009F8012BECD1039A0CFB042200254FF02F
:10299000804040F69E774FF031084FF0300E6F4E7A
:1029A000416A9142FCD33169013511F480711DD126
:1029B000BC4298BF029D624498BF05F804E00D46F2
:1029C0000134EDE7302AD8D04546A3E73024654BE3
:1029D000654A1978127804AB0094FEF76DFC044642
:1029E000002884D1614809F02FFE80E7BC4298BFDF
:1029F0000299624498BF01F80480092D04F1010492
:102A0000CED1A6460399DFF83CA1544E1C60511A62
:102A10000393DAF8240058456DD840F68E739E452E
:102A200069D8029B0EF1FF351D4400204FF0804312
:102A30004FF031094FF030080EF101045F6A8F4208
:102A4000FCD3052894BF4FF000774FF40077B761AF
:102A50005F6A9742FCD337696144FF0554BF05F8AC
:102A6000018F05F8019FDAF8247062445F4504EB9A
:102A7000000ECED801301028E0D1DAF824305B45C2
:102A8000CBD97446039B4FF080421C60536A8B4243
:102A9000FCD32C4D6B6A5B451AD84FF080434FF046
:102AA000000E4FF000774FF400760CEB4C012B48F2
:102AB00049004FEA0C1CC3F824E087615A6A8A4235
:102AC000FCD386615A6A6245FCD36A6A5A45F2D9D8
:102AD000B4F57A6F12D20023029A135562B600F051
:102AE000F3FB1F4809F0B0FD214809F0ADFD0020BF
:102AF00011B0BDE8F08F7446039BC4E70023029A2F
:102B000082F89F3FEAE71D6062B61A4809F09CFD13
:102B100000F0DAFB012011B0BDE8F08F4FF08045E6
:102B20000F4E0B480B4B094902966C620A4A098802
:102B3000B0F800C01C68B2F800B0039104FB0C129E
:102B400024E700BF004801400400032008000320E0
:102B50000A000320FC2B0320000003200004024293
:102B6000002C0320F92B0320F82B0320DC9E010806
:102B7000689F0108F0A101084FF08042124B1348F2
:102B8000B3F800C00CEB8C0149000369DF05FCD5EC
:102B9000546AA4B20369DE05F7D5536A1B1B994238
:102BA000F8D800240A4D0B4B0B48029554620B4990
:102BB00002881C680392B1F800B004FB0C22E5E621
:102BC0000349039A0291E1E60A000320000402424D
:102BD000002C0320FC2B032008000320000003200E
:102BE0002DE9F04FA34C93B023680333012B40F23F
:102BF00010818346FEF714FB72B600254FF0804229
:102C00009D4B5D629D4B1D6055622068811C00F0EC
:102C10002781C31C00F04C81411C70D12B462C46EF
:102C20004FF0804E964ADFF868A21688954A06EB68
:102C30008605128894480492944ADFF83C82B2F8E0
:102C400000906D000269D205FCD5DEF8241089B22F
:102C50000269D705F6D5DEF82420521A9542F7D836
:102C6000026912F4807208D0D8F824204A4500F294
:102C7000C280026912F48072F6D1CEF82420002CB2
:102C800000F030814FF08047814B049903930DF1A0
:102C9000180C05957B6A8B42FCD37B4B31441B6936
:102CA00013F4807F1CF8013B38D0312B38D1039DC1
:102CB000013205F8013B94420395EBD16F4B1C6048
:102CC000049B06FB043300254FF0804240F69E7CB7
:102CD0004FF031094FF030086B4F0BF1060E516A7F
:102CE0009942FCD33869013510F4807004F1010178
:102CF00019D1644520D905460C463344EFE7654BAE
:102D00001A7830230093644B197806ABFEF7D4FA97
:102D10000446002800F09E802B4681E7302BC6D069
:102D20001346059D8EE7644598BF0AF80490AE45AA
:102D3000334407D90C46D2E70AF80480054601342B
:102D40003344CCE74FF08040049A9D1A426AAA426D
:102D5000FCD34FF000774FF080404B4A9761426AB6
:102D60009A42FCD3484A0234126912F4807F40F63A
:102D70009E7255D1914261D94048944204603544D5
:102D8000334442D84FF080424FF4007C4FF031087A
:102D90004FF0300E414F3C4C5144506AA842FCD396
:102DA000C4F818C0506A8342FCD82069C0051BD4FF
:102DB00001F801EFB94235443344EED140F69F7338
:102DC0002E4A136040F69F7300220AF8032062B671
:102DD00000F07AFA2E4809F037FC314809F034FC4B
:102DE000002013B0BDE8F08F01F8018FB9423544DF
:102DF0003344D2D1E2E7214A2A481446136009F04D
:102E000023FC2368B3F57A6FDED300238AF89F3F53
:102E1000DDE7254809F018FC012013B0BDE8F08F6C
:102E20009142A9D8154A3544146031220AF801208C
:102E300040F69F7294423344A4D1C3E70F4A35440D
:102E4000146030220AF8012040F69F729442334405
:102E500098D1B7E7154809F0F7FB084B1B68DFE688
:102E6000084B55621B88064A2C461688DFF820A0BE
:102E7000049328E70400032000480140FC2B0320B2
:102E80000A0003200800032000040242000003207F
:102E9000002C0320F82B0320F92B03209E3B03205A
:102EA000689F0108A8A2010894A20108DC9E0108FD
:102EB0000D4B0E491E8806EB860464000B69DF0586
:102EC000FCD5506A80B20B69DD05F7D5536A1B1A31
:102ED0009C42F8D80024064B54621B88DFF814A0EB
:102EE0000493F0E6049BEEE60A000320000402428D
:102EF00008000320002C0320984B2DE9F04F1B689D
:102F000093B00333012B40F21D818246FEF788F90E
:102F100072B60023924D934A6B626B6AB2F800B0AE
:102F20005B4580F0D980904C0AF1060A00274FF0EB
:102F300080418A4B4F621E688C4BB21C1F6000F0B0
:102F4000D480F31C00F0E280711C00F0CC803023B0
:102F50000093874B30461A78864B197806ABFEF7FC
:102F6000ABF98046002800F0C8804FF0804C824BBF
:102F70001888824B00EB800E1B884FEA4E0E04939C
:102F80002369DA05FCD5DCF8242092B22369DB053D
:102F9000F6D5DCF824309B1A7345F7D3236913F474
:102FA000807307D06B6A5B4500F2C980236913F414
:102FB0008073F7D11A460499CCF82430B8F1000F89
:102FC0001DD04FF080476E4B0DF118090393059605
:102FD0007B6A8B42FCD32369014413F4807F19F888
:102FE000013B21D0312B21D1039E013206F8013B58
:102FF00090450396ECD1DDE9043602FB00314FF039
:10300000000C4FF0804701327B6A8B42FCD323696E
:103010000CF1010C13F4807302F1010E09D0E245AA
:1030200001440AD97246EFE7302BDDD01746059EE2
:10303000A6E79C4601440132E6E74C4B1A604FF08C
:103040008042049BC91A536A8B42FCD34FF0007331
:103050004FF080420144A361536A8B42FCD34FF48A
:103060000077A7616B6A5B4536D202367FF45EAFAC
:103070004FF080414FF0000C4FF000793E4B3A4D3D
:103080001E883E4BDFF8D880B3F800E0002472467B
:103090002046C1F824C0C1F824C04B6A9A42FCD82B
:1030A0002B69013013F4807353D0824504F101047D
:1030B0003244F2D8A2EB0E024B6A9A42FCD8C5F811
:1030C000189032444B6A9A42FCD8AF61D8F8243049
:1030D0009B45DBD8254B1C6062B600F0F5F800205C
:1030E00013B0BDE8F08FB8463FE7244B4F62198814
:1030F000214B3A461888049181E7224809F0A4FA46
:103100001A4B1F68174BB3F800B02EE71A4B164A3C
:10311000188800EB800C4FEA4C0C1369DF05FCD5D6
:103120004F6ABFB21369DB05F7D54B6ADB1B6345FA
:10313000F8D30022114B4A62198804915FE70B4BC8
:103140001F60C9E7104809F07FFA012013B0BDE8FD
:10315000F08F1846013432449FE700BF040003207B
:10316000004801400000032000040242FC2B032021
:10317000F82B0320F92B03200A000320080003206A
:10318000002C0320DC9E010894A201082DE9F04FD9
:103190003C4B8346984283B007D83B4B984269D951
:1031A0004FF028094FF4487E0BE04FF0250940F21C
:1031B000EE2E364BB3FBFBFC5FFA8CFCBCF1190F17
:1031C0005DD90120314B013080B2B3FBF0FCBCFB78
:1031D000FBFC5FFA8CFCBCF1190FF4D8B0F5806FE2
:1031E00042D201236FF000444FF47A765A4600939E
:1031F000274B1F68431C1FFA83FAACF10208B8EB97
:103200005C0F4FEA5C0120DD0CF1FF3B5FFA8BFBAA
:10321000CDF804A006FB01F5B5FBFCF5BEEB050AF5
:1032200048BFA5EB0E0AA2450ADAD14508DB002506
:1032300054460095ABEB0105EDB2F96178613D6252
:1032400001314145E6DBDDF804A0104998B2B1FB3D
:10325000FAFCBCFBF2FCB0F5806F0AF1010A5FFAE0
:103260008CFC03D0431CC8E701230093009803B0F3
:10327000BDE8F08F4FF02B0940F26B3E99E701203B
:10328000AFE700BF00350C0020A10700005A620222
:10329000983C032038B50C46064D0749074B0A6099
:1032A0002860074901201C6012F058F9054B18608E
:1032B00038BD00BF983C0320903C0320943C032081
:1032C000A83B0320F83B032030B53F4C83B0206877
:1032D0000AF096FC20680AF0DBFA002851D100229F
:1032E0003A4D40213A482A71EA602A616A61AA612E
:1032F000AA60EA6185F820200BF0D8FB206805F170
:1033000024010AF0AFFB00285BD1324920680AF0A3
:10331000A9FB002852D10023022220681146009305
:103320000AF0CCFB002846D120680AF00DFC0028EA
:103330003ED10022012120680AF0C4FDA8BB002272
:10334000062120680AF0BEFD60BB07224FF4F05151
:1033500020680AF0B7FD10BB0722802120680AF020
:10336000B1FDC8B900221C4920680AF0ABFD80B944
:1033700000224FF4602120680AF0A4FD20B903B0B8
:1033800030BDFDF7EFFEAAE703B0BDE83040FDF722
:10339000E9BEFDF7E7FEEBE7FDF7E4FEE2E7FDF748
:1033A000E1FED9E7FDF7DEFECFE7FDF7DBFEC6E77E
:1033B000FDF7D8FEBDE7FDF7D5FEB5E7FDF7D2FE78
:1033C000A9E7FDF7CFFEA0E7983C032010000320FB
:1033D000000402424C00032000407100014B1868B9
:1033E0000AF00EBC983C0320082824D8DFE800F03F
:1033F000080C1014171A1D2005001448FFF7C6BE4C
:1034000042F21070FFF7C2BE44F62060FFF7BEBE66
:103410004CF25030FFF7BABE0D48FFF7B7BE0D486B
:10342000FFF7B4BE0C48FFF7B1BE0C48FFF7AEBEC5
:103430000B48FFF7ABBE0B4AA0F51C53103B934261
:1034400001D901207047FFF7A1BE00BF40420F0025
:10345000A086010048E8010090D0030020A10700E9
:1034600000350C00301B0F000346054A1978002078
:1034700051615978D16199781162DB789361704715
:10348000082B03200246024B00209A61704700BFC0
:10349000082B0320034600B5074A93F801E093F890
:1034A00000C082F810E005499B7881F800C0537491
:1034B00000205DF804FB00BF082B03202807032031
:1034C0002DE9F0470546C0680F4609F05BFAAB6886
:1034D000B3F1005F3CD00646824600F12409254C3A
:1034E0004FF0FF31206812F043F90128F8D1DFF8DE
:1034F0009080D8F8000012F02BFB484515D2022529
:103500001D4A13792B431371002320681A4619466C
:1035100011F088FF0023194902220968086819463A
:1035200013F0BAFC2846BDE8F08729464FF0FF3378
:103530002422D8F8000012F029FB054686B94D4533
:103540000CD00D4A0125137943F008031371DBE712
:103550004FF0000A4FF024095646C0E70025D3E794
:10356000524639464FF0FF33D8F8000012F00EFBF8
:103570000544E4E7F83B032010000320943C0320BB
:10358000A03B032030B40122002410200A4B042168
:103590001B684FF440751C82C3E90520DC6018628B
:1035A0003F240F209A74C3E90125DC61C3E9092196
:1035B00030BC1963D8627047983C032000232DE982
:1035C000F0430C4683B0C9070546019316D4A20701
:1035D00007D502212D4A137943F0010313712B689B
:1035E0001965630735D4019B2BB14FF0E0234FF0F1
:1035F0008052C3F8042D03B0BDE8F083DFF8988053
:10360000224F42464021224B0AF072FB7B69D8F8D8
:103610000C0001337B6109F0B5F9DFF880900646B4
:10362000D9F8000012F094FA06F12803984223D347
:1036300041462822D9F8000001AB12F02BFB002EE6
:10364000C5D03246D9F80000114901AB12F022FB77
:10365000BDE704240D4B0F499A69096801329A614C
:103660001A7942F008021A712B6808680DEB040100
:103670001C6513F0FBFCB6E7064ABB691268013310
:10368000106801A9BB6113F0F1FCA0E71000032052
:10369000503C0320903C0320283C0320A43B032003
:1036A00010B500240A4A0B491369096882B00868FA
:1036B000013301A91361019413F0D8FC019B2BB1D4
:1036C0004FF0E0234FF08052C3F8042D02B010BD3C
:1036D00010000320943C032010B500240A4A0B4933
:1036E000D369096882B00868013301A9D3610194E4
:1036F00013F0BCFC019B2BB14FF0E0234FF0805244
:10370000C3F8042D02B010BD10000320903C03202C
:1037100038B50C46104D29460AF08AFBA10303D5A3
:10372000EB68A3B90D4A1360620309D52B690B4AF4
:10373000012B13790CBF43F0040303F0FB03137157
:10374000230303D50122054B83F8202038BD4FF019
:103750000042024B1A60E7E7FC3B03201000032005
:10376000F0B500250B7885B0074602950395CBB1DF
:103770000C460DF1FF3608E02046D5B209F0A4F85A
:1037800014F8023F06F8010F23B163786A1C0BB3EB
:10379000072DF1D18DF808502A4669460DF1090030
:1037A00014F0C3FF00230E4C0820C4E90533C4E91C
:1037B0000133276009F0ECF8082203460DEB020103
:1037C0000848E36009F0EAF820460649FFF778FE6A
:1037D00005B0F0BD8DF80850002DDDD1E2E700BF47
:1037E000A83C03209C3C032042F202032DE9F04355
:1037F0000024994289B0445400F2C980002900F0A5
:103800007A8100F1FF3E0139F4467346014405E038
:103810000A2A1CBF025501348B4209D013F8012F2C
:10382000082AF5D1002CF7D08B4204F1FF34F5D1F2
:1038300000218C42015540F363810A460EEB0403DC
:103840001CF8014F202C00F0978092B99C4501F1A3
:1038500001010CF101040ED09CF801E0BEF1200F33
:1038600000F08C809C4206D01CF8022F203A18BF32
:1038700001229C45E4D10C46A44914F011FE0546F2
:10388000002800F0AA80A249FCF7DAFC30B12846F3
:10389000A049FCF7D5FC002840F08380012C40F2C1
:1038A000D5809A49002014F0FBFD9B490446FCF7A3
:1038B000C7FC002800F0958020469849FCF7C0FC22
:1038C000002800F09D8120469549FCF7B9FC0028AE
:1038D00040F01881934808F0B7FE934808F0B4FE12
:1038E000904808F0B1FE914808F0AEFE904808F00C
:1038F000ABFE8E4808F0A8FE8E4808F0A5FE8E4864
:1039000008F0A2FE894808F09FFE8C4808F09CFE53
:103910008B4808F099FE854808F096FE894808F023
:1039200093FE894808F090FE804808F08DFE874895
:1039300008F08AFE864808F087FE864808F084FE74
:10394000854808F081FE854808F07EFE844808F02E
:103950007BFE844808F078FE834808F075FE8348B3
:1039600008F072FE714808F06FFE6E4808F06CFEB9
:103970007F4808F069FE0DE000227AE79C423FF4A0
:103980007AAF1CF8024F202C7FF460AF71E77948C2
:1039900008F05AFE784808F057FE002009B0BDE84C
:1039A000F08328467549FCF74BFC00283FF476AFBE
:1039B00028467349FCF744FC00283FF46FAF2846C3
:1039C0005749FCF73DFC002840F06181022C00F0D3
:1039D0007A816C4808F038FEDCE76B4808F034FE6A
:1039E000D8E7504808F030FE4F4808F02DFE4D480B
:1039F00008F02AFE4D4808F027FE644808F024FE2F
:103A00004A4808F021FE4B4808F01EFE604808F0C6
:103A10001BFE464808F018FE484808F015FE5D48B1
:103A200008F012FE414808F00FFE464808F00CFE70
:103A3000594808F009FE3D4808F006FE434808F0E2
:103A400003FE564808F000FE554889E7354808F05F
:103A5000FBFD354808F0F8FD324808F0F5FD334825
:103A600008F0F2FD4F4808F0EFFD304808F0ECFD9B
:103A70004D4808F0E9FD4D4808F0E6FD4C4808F0D7
:103A8000E3FD4C4808F0E0FD4B4808F0DDFD4B48F5
:103A900008F0DAFD4A4808F0D7FD4A4808F0D4FD9E
:103AA000494808F0D1FD494808F0CEFD484808F0E3
:103AB000CBFD484808F0C8FD474808F0C5FD474819
:103AC00008F0C2FD464808F0BFFD464808F0BCFDBE
:103AD000454808F0B9FD454808F0B6FD444808F0EF
:103AE000B3FD124808F0B0FD424808F0ADFD0D48A6
:103AF00008F0AAFD4EE701703F4808F0A5FD49E730
:103B0000FAD0B8E63D4808F09FFD31E7D4A201089D
:103B100004A301080CA3010820A30108C0A4010804
:103B200048A6010828A3010868A30108689F0108A6
:103B300050A60108A4A3010864A60108E8A301088F
:103B4000A0A601080CA40108B4A6010860A40108FD
:103B500000A7010820A7010834A7010854A70108FD
:103B600068A7010888A701089CA70108C8A7010841
:103B700004A80108BCA2010878C3010814A3010825
:103B80001CA301085CAE0108D8A2010894A3010897
:103B9000B4A30108F0A3010818A401086CA401084B
:103BA000B0A4010858A80108FCA8010808A9010848
:103BB00034A9010884A90108D4A9010824AA01088C
:103BC00090AA0108B8AA0108E4AA010844AB0108B8
:103BD000ACAB0108F8AB01083CAC010868AC0108CB
:103BE000C0AC010818AD010864AD010898AD01082A
:103BF000E4AD01083CAE0108D0A20108DCA7010831
:103C0000874808F021FD874808F01EFD844808F029
:103C10001BFD854808F018FD844808F015FD824812
:103C200008F012FD824808F00FFD824808F00CFDF4
:103C30007D4808F009FD804808F006FD7F4808F03F
:103C400003FD794808F000FD7D4808F0FDFC7D4843
:103C500008F0FAFC744808F0F7FC7B4808F0F4FC24
:103C60007A4808F0F1FC7A4808F0EEFC794808F050
:103C7000EBFC794808F0E8FC784808F0E5FC784867
:103C800008F0E2FC774808F0DFFC774868E6284651
:103C90007649FCF7D5FA28B9022C6CD0744808F0A4
:103CA000D3FC77E628467349FCF7CAFA002851D1BD
:103CB000012C00F07581A31E012B40F2FB806E48A1
:103CC00008F0C2FC66E66D4914F0EAFB037804468E
:103CD000002B3FF45FAE051D413B232B13D8DFE8DB
:103CE00003F0352D251D1212121212121212121289
:103CF00012121212121212121212121212121212A4
:103D00001212352D251D5E4808F09EFC14F8013F67
:103D1000002B3FF43FAEA542DED13BE6594808F008
:103D200093FC0021442003F099FDEFE7564808F08A
:103D30008BFC0021432003F091FDE7E7534808F096
:103D400083FC0021422003F089FDDFE7504808F0A2
:103D50007BFCDBE728464F49FCF772FA002851D17B
:103D6000012C00F02581A31E012B40F2D8804A4887
:103D700008F06AFC0EE6414914F092FB0378044611
:103D8000002B3FF407AE051D413B232B13D8DFE882
:103D900003F0352D251D12121212121212121212D8
:103DA00012121212121212121212121212121212F3
:103DB0001212352D251D324808F046FC14F8013F3B
:103DC000002B3FF4E7ADAC42DED1E3E5334808F029
:103DD0003BFC0121442003F041FDEFE7304808F0AF
:103DE00033FC0121432003F039FDE7E72D4808F0BB
:103DF0002BFC0121422003F031FDDFE72A4808F0C7
:103E000023FCDBE728462949FCF71AFA002840F092
:103E1000DC80032C00F0FA80254808F015FCB9E599
:103E200028A3010868A30108689F0108C8A4010825
:103E3000A4A30108DCA40108E8A3010818A501084F
:103E40000CA401082CA5010860A4010878A50108AC
:103E500098A50108A8A50108C8A50108D8A50108CA
:103E6000F8A5010808A6010834A60108C0A40108A5
:103E70008CAF010864B0010888B00108D4A2010821
:103E800064AF010840AF01081CAF0108F8AE01089B
:103E9000ACAE010834B1010858B1010840B00108C6
:103EA0001CB00108F8AF0108DCAF0108F4B101084B
:103EB000F8B10108B149002014F0F2FA08F02AFD27
:103EC000B0F5006F68D2AE4D022C28604FF00000B4
:103ED00000F09480A94914F0E3FA064608F06AFD60
:103EE000C10755D4102853D888B1431EC3F34E04DC
:103EF000B71CDFF8208307EB4407304608F0E4FCEA
:103F00000236BE4208F8010FF7D1631CD8B208F0A0
:103F10003FFD03469B48EB6008F096FB3AE5974966
:103F2000002014F0BDFA08F0F5FCB0F5006F80F049
:103F3000A081954F022C386000F0918111F0FAF8C1
:103F4000282111F0F9F88D49002014F0A9FA06464D
:103F500008F030FDC20704461AD4102818D8354698
:103F6000DFF8B48205E0284608F0AEFC023508F818
:103F7000010BAB1B9BB29C42F5D8601CC0F3470001
:103F800008F006FD03468148FB6008F05DFB01E593
:103F90007F4808F059FBFDE47E4808F055FBF9E442
:103FA0004FF0FF32764B7C481A6008F04DFBF1E48D
:103FB0004FF0FF32744B79481A6008F045FB11F05E
:103FC000B9F8182111F0B8F8E4E428467449FCF770
:103FD00037F928B9032C67D0724808F035FBD9E4CB
:103FE00028467149FCF72CF9002840F06981022C21
:103FF00000F044816D4808F027FBCBE408F0C8FCD2
:1040000003466B48EB6008F01FFBC3E45B490020EC
:1040100014F046FA59490546002014F041FA0021EF
:104020000A2214F003F9634904462846FCF708F90C
:10403000002800F00E8128465F49FCF701F90028AE
:1040400000F0018128465D49FCF7FAF8002800F0ED
:10405000F48028465A49FCF7F3F8002800F0E7807E
:1040600028465849FCF7ECF8002800F0D78028468D
:104070005549FCF7E5F8002877D028465349FCF766
:10408000DFF8002868D028465149FCF7D9F8002805
:104090005ED1002C41D14F4808F0D6FA02224E4B97
:1040A000DA60FFF711F975E4344914F0F9F94B4976
:1040B0000446FCF7C5F8002847D020464849FCF7DD
:1040C000BFF800283ED020464649FCF7B9F8002842
:1040D00035D020464449FCF7B3F868B3204643493D
:1040E000FCF7AEF820BB424808F0AEFA00242349A2
:1040F000002014F0D5F9054608F05CFC421E92B28F
:104100000D2A034610D8DB070ED420462946FFF7B8
:1041100027FB384808F098FA3CE4374808F094FA4E
:1041200000222D4BDA60BCE7344808F08DFA31E408
:10413000334808F089FAD9E740F2E374D7E740F250
:10414000E274D4E740F2E174D1E740F2DF74CEE7E5
:104150002C4808F079FAA4E7003C18BF01242A4B48
:104160002A481C7008F070FA9BE7003C18BF012435
:10417000194B27485C7408F067FA92E7D4A201084B
:10418000003D03200CB10108D43C0320CCB1010850
:10419000F4B00108B0B001086CB001083CB10108EE
:1041A00058B301085CB3010844B401084CB40108D9
:1041B000D4B0010890A001082CB2010848B201084F
:1041C00064B201087CB20108B0B20108DCB2010897
:1041D00008B301080CB30108082B032098B30108A9
:1041E0009CB30108A0B30108A4B30108A8B3010857
:1041F000ACB3010830B4010828B3010804B40108C5
:10420000E0B3010840B3010828070320E8B2010821
:10421000C0B20108F73C0320CC3C0320003C18BF8F
:104220000124964B96481C7408F00EFA39E7934B1C
:1042300094489C6108F008FA33E7904B92481C625E
:1042400008F002FA2DE78D4B9048DC6108F0FCF98C
:1042500027E78A4B8E485C6108F0F6F921E70020D9
:1042600008F096FB03468B48FB6008F0EDF9FFF77A
:1042700091BB894808F0E8F9FFF78CBB874914F037
:104280000FF9451E041D15F8012FA2F12A03002A7B
:104290003FF480ABA5423FF47DAB1A2B00F2C48003
:1042A000DFE803F0B9C2C2C2C2C2C2C2C2C2C2C245
:1042B000C2C2C2C2C2C2C2C2C2C2C2B5AC241B0008
:1042C00028467749FBF7BCFF00283AD1022C16D0CC
:1042D000744808F0B9F9FFF75DBB734808F0B4F90A
:1042E00040F2E3707149FFF73BFACCE7704808F001
:1042F000ABF940F2E2706D49FFF732FAC3E7674964
:1043000014F0CEF8451E041D15F8012FA2F12A0362
:10431000002A3FF43FABA5423FF43CAB1A2B00F21E
:104320009080DFE803F0858E8E8E8E8E8E8E8E8E40
:104330008E8E8E8E8E8E8E8E8E8E8E8E8E675E255D
:104340001C0028465B49FBF77BFF064600283AD154
:10435000012C16D0584808F077F9FFF71BBB5748D7
:1043600008F072F940F2E3705549FFF7F9F9CBE72D
:10437000544808F069F940F2E2705149FFF7F0F94A
:10438000C2E7464914F08CF84F4808F05DF9304612
:1043900003F09EFA322010F0E1FE2146422003F0A5
:1043A0005DFA06F089FC10F0D9FE2146432003F0A7
:1043B00055FA06F081FC10F0D1FE2146442003F0AE
:1043C0004DFAFFF7E7BA28464049FBF739FF0028C6
:1043D00040F08C80022C38D03D4808F035F9FFF7CA
:1043E000D9BA3C4808F030F940F2E1703449FFF79F
:1043F000B7F989E7384808F027F985E7374808F022
:1044000023F940F2E1702949FFF7AAF93BE7324866
:1044100008F01AF937E7324808F016F940F2DF7071
:104420002249FFF79DF92EE72E4808F00DF92AE7FB
:104430002D4808F009F940F2DF702149FFF790F9A3
:1044400062E7284808F000F95EE7144914F028F8FC
:10445000451E041D15F8012FA2F14103002A3FF467
:1044600099AAA5423FF496AA032B00F26C83DFE8D9
:1044700013F01C0213020A025F0000BF082B032086
:1044800088B2010868B2010850B2010834B20108CC
:1044900014B20108ACB1010880B10108D4A201082E
:1044A000FCB4010804B50108E8B401088CB40108A3
:1044B000D4B40108B0B50108BCB5010890B5010835
:1044C00044B5010870B50108E4B5010840B601081B
:1044D0004CB6010850B5010898B40108C0B40108F1
:1044E00068B40108E0B301081CB501082846A449D6
:1044F000FBF7A6FE002800F08B812846A149FBF7B8
:104500009FFE002800F0848128469F49FBF798FE13
:10451000002800F0318128469C49FBF791FE0028D5
:104520004AD1022C0DD09A4808F08EF8FFF732BA23
:10453000984808F089F840F2E3709749FFF710F9BE
:1045400088E79649002013F0ABFF95490446FBF736
:1045500077FE002800F0088120469249FBF770FEA4
:10456000002800F0F98020468F49FBF769FE0028FB
:1045700000F0728220468D49FBF762FE002800F0B1
:10458000638220468A49FBF75BFE002800F05482D4
:1045900020468849FBF754FE002800F0458220465B
:1045A0008549FBF74DFE80BB072005F0EDFA8348F7
:1045B00008F04AF8FFF7EEB928468149FBF740FEBC
:1045C000002800F08A8028467E49FBF739FE002843
:1045D00000F0838028467C49FBF732FE00287CD01F
:1045E00028467A49FBF72CFE002876D028467849E1
:1045F000FBF726FE00285ED1012C21D0022C09D920
:10460000744808F021F8FFF7C5B9734808F01CF8A2
:10461000FFF7C0B9614913F043FF451EC41C15F8EC
:10462000012FA2F14103002A3FF4B4A9A5423FF4AF
:10463000B1A9032B00F28382DFE803F0392A1B0CB7
:10464000664808F001F8C82010F088FD08F0AAFEBE
:10465000FFF7A0B9624807F0F7FF0021442003F0FC
:10466000FDF8322010F07AFD0121442003F0F6F825
:10467000D5E75C4807F0E8FF0021432003F0EEF89F
:10468000322010F06BFD0121432003F0E7F8C6E76C
:10469000554807F0D9FF0021422003F0DFF832200F
:1046A00010F05CFD0121422003F0D8F8B7E74F4835
:1046B00007F0CAFFB3E728464D49FBF7C1FD0028C4
:1046C00040D028464B49FBF7BBFD38BB022C07D036
:1046D000494807F0B9FFFFF75DB90120FFF75EB960
:1046E0002E4913F0DDFE2E490546FBF7A9FD0028F3
:1046F00000F0C28128462B49FBF7A2FD002800F0FC
:10470000B38128462849FBF79BFD00BB032004F03A
:104710005DFF3A4807F098FFFFF73CB92846384953
:10472000FBF78EFD002840F0B48101F0EFF800287F
:1047300000F0AA81334807F087FF012001F0F6F866
:10474000FFF728B9304807F07FFFFFF723B92F485C
:1047500007F07AFFFFF71EB9022005F015FA174897
:1047600007F072FFFFF716B9012005F00DFA1348A4
:1047700007F06AFFFFF70EB906F024FAFFF70AB94F
:1047800000B7010804B70108B0BF010820A3010861
:10479000B8BF0108BCB601088CB60108D4A2010854
:1047A00030B2010814C0010818C001081CC001087B
:1047B00020C0010824C0010828C0010808C0010861
:1047C0005CC0010860C0010868C0010870C0010831
:1047D00078C00108D0C001082CC0010880C00108C1
:1047E000C8C10108B4C10108A0C1010854C1010831
:1047F000DCC1010860C2010868C20108B0C201083A
:10480000F4C20108FCC20108E4C10108C4C20108E5
:10481000012C40F25C810020CD4913F041FE054699
:1048200000283FF4B7A8CB49FBF70AFD002800F0A9
:1048300049812846C849FBF703FD002800F03E8166
:104840002846C649FBF7FCFC002800F02D812846CD
:10485000C349FBF7F5FC0646002800F09080284687
:10486000C049FBF7EDFC002800F082802846BE49D5
:10487000FBF7E6FC064678BB032C1AD0BB4807F0D2
:10488000E3FEFFF787B8BA4807F0DEFE40F2E270B9
:10489000B849FEF765FFDDE5B74807F0D5FE40F201
:1048A000E170B449FEF75CFFD4E5B44807F0CCFEF4
:1048B000D0E5A74913F0F4FD0A216A468DF800609F
:1048C00008F0B2F89DF800300446012B10D0AC4837
:1048D00007F0BAFEFFF75EB82846AA49FBF7B0FC1E
:1048E00048BB032C0FD0A84807F0AEFEFFF752B824
:1048F000A64807F0A9FEE0B2FEF7FEFAA44807F0CA
:10490000A3FEFFF747B89249002013F0C9FD00232A
:104910000A216A468DF8003008F086F89DF80030CC
:104920000446012BD3D1994807F08EFEE0B2FEF782
:1049300057F9FFF72FB828469649FBF781FC002866
:1049400000F0EF8028469449FBF77AFC002800F03D
:10495000E18028469149FBF773FC002840F0C780AE
:10496000042C00F0B9808E4807F06EFEFFF712B8F5
:104970008C4807F069FEFDF765FDFFF70BB88A4824
:1049800007F062FEFDF7D2FB4FF47A730446B0FBEA
:10499000F3F0694603FB104408F074F80A2103465B
:1049A0002027B4FBF1F24FF02E09642503EB070832
:1049B000E84408F8209CB2FBF1F8B4FBF5F54FF0A1
:1049C000250E4FF00D0C01FB124401FB18220DEBDC
:1049D0000708591C58FA81F1303501F8205C991C00
:1049E000303258FA81F101F8202CDA1C58FA82F2A0
:1049F000303402F8204C1A1D58FA82F202F8207C5A
:104A00005A1D58FA82F202F820EC9A1D073358FA20
:104A100082F258FA83F302F820CC684603F8206C3F
:104A200007F012FEFEF7B6BF062005F0ADF85F48AE
:104A300007F00AFEFEF7AEBF052005F0A5F85B48BB
:104A400007F002FEFEF7A6BF042005F09DF85748C8
:104A500007F0FAFDFEF79EBF032005F095F85348D6
:104A600007F0F2FDFEF796BF204604F0AFFD504878
:104A700007F0EAFDFEF78EBF012004F0A7FD4D48C8
:104A800007F0E2FDFEF786BF4B4807F0DDFDFEF7BD
:104A900081BF4A4807F0D8FD284607F0D5FD4848B1
:104AA00007F0D2FDFEF776BF464807F0CDFDFDF7D3
:104AB0000FFB454807F0C8FDFEF76CBFFDF756FC3D
:104AC000FEF768BF414807F0BFFDFEF763BF4048EF
:104AD00007F0BAFDFEF75EBF1D4913F0E1FCFDF7DC
:104AE00037F968B92A4807F0AFFDFEF753BF2846EB
:104AF0003849FBF7A5FB40B9FDF756FAFEF74ABF68
:104B0000354807F0A1FDFEF745BF344807F09CFD8E
:104B1000FEF740BF324807F097FDFDF7D5FEFEF7E0
:104B200039BF304807F090FD032C7FF41CAF0849D3
:104B3000002013F0B5FCFDF78BFDFEF72BBF2A48D4
:104B400007F082FD6BE5284807F07EFD82E400BF98
:104B5000D4A2010804A3010810BE010818BE010870
:104B600030BE010850BE010870BE010878BE0108C1
:104B700098B601088CB6010868B6010898B4010817
:104B8000B0BE0108C4BE0108D0BE01089CBE010829
:104B9000A8BE0108F8BE01082CBF010850BF0108DB
:104BA0000CBF010858BE010838BE010808C0010842
:104BB0009CC2010888C201080CC3010820C3010877
:104BC00034C301081CBE010828BE010848B701080B
:104BD0000CB7010870BF010854BF010878BF010875
:104BE00034BF010800BF0108E0B601082DE9F04F0D
:104BF00003780546A3F13002012A0E46A1B040F227
:104C000090800022824FCDE90B227979012910D0C2
:104C10000024DFF80082752BD8F80020CDE90D4480
:104C20000A9214D1132E00F06E81002021B0BDE84D
:104C3000F08F721E815C002469290ABF164600228B
:104C40004FF00042752BCDE90D440A92EAD0295D60
:104C50002246722905EB040900F0E48000F2448149
:104C600052297FD054297DD0233B562B00F2378127
:104C7000DFE813F01C0435016603530335013501E9
:104C80003501350135013501350135013501350174
:104C90003501350135013501350135013501350164
:104CA0003501350135013501350135015A010F0452
:104CB000350135010704E603D803680457045A0197
:104CC00052044A047004D203BF03A6033203350121
:104CD000350135011003350135013E030203F902A8
:104CE000EE02E4023501350135015F013501350180
:104CF0006701620178026A023501C30235015A0177
:104D0000B802D302A0023C02290213023501C101FC
:104D1000990135018401350135017B017401580287
:104D200047024FF4001142780C91302A00F0CC80F9
:104D30004FF48010364F0B907979012900F0D8801C
:104D400000233449722A0968CDE90D330A9105F12F
:104D5000010965D062D8522A02D0542A40F0BF809F
:104D600001242246B71A092F40F2B9804FF0804340
:104D70004FF0000A601C28440793CDF820A007F0EC
:104D8000D9FD069004F10900284407F097FD99F831
:104D900000308046522B099003D14FF00053D0468B
:104DA0000893404607F0EEFD0530B7EB400F40F0AA
:104DB00096800A34013EA64288BF00270DD92819E3
:104DC00007F082FD0234E4B220AB53FA87F3B44219
:104DD00003F8400C07F10107F1D307F0FDFB10AC1D
:104DE00001210D4806AE07F00DFC21463046FEF7C6
:104DF00067FB022800F08B8007F0FAFB4046069D17
:104E000007F0C0FD22460146284601F05FFD0CE791
:104E10006801032010000320689F0108742A5ED1F6
:104E200001242246B71A042F59D94FF0000A601CFA
:104E30002844CDE907AA07F06DFD0690201D2844FF
:104E400007F03CFD99F800308046722B099003D1A1
:104E50004FF00053D0460893404607F093FD0523DA
:104E600000B203EB40039F4239D10534013EA64214
:104E700088BF00270DD9281907F026FD0234E4B2B7
:104E800020AB53FA87F3B44203F8400C07F1010753
:104E9000F1D307F0A1FB10AC0121B94806AE07F031
:104EA000B1FB21463046FEF70BFB0228A4D107F0E8
:104EB0009FFB02E00A2010F051F921463046FEF730
:104EC000FFFA0228F6D099E70022AE4F0B927979CB
:104ED00001290DD0AC4B0D921B680E920A93012153
:104EE000AA4807F043FBA0E674297FF4BDAE99E71A
:104EF000721EA95C692900F05D8300220124CDE9BE
:104F00000D220A92A3E6284601F05AFE8DE607F02C
:104F10006FFB02E00A2010F021F921463046FEF72F
:104F2000CFFA0228F6D069E71621994807F01EFB50
:104F30007BE6984807F088FB0121914807F016FBB3
:104F400073E6022ECBD16B78934A303B18BF012316
:104F500001218B48137407F009FB66E6FEF7B4F9EC
:104F60000121874807F002FB5FE6022EB7D16B787C
:104F7000302B0CBF002301237B71DDE7052EAED162
:104F80000126854CA819666107F09EFC0346E81CC3
:104F9000E36107F099FC2062FEF796F93146784804
:104FA00007F0E4FA41E67D4807F04EFB40217A48DD
:104FB00008F078FF07F05EFB794C774808F07CFF3B
:104FC00007F058FB206810F0C3FD07F053FB206882
:104FD000744C10F0CDFD07F04DFB206810F0B8FDCB
:104FE00007F048FB206810F0C3FD07F043FB64485E
:104FF00007F02AFB19E6022E7FF471AF6B78423B73
:10500000022B3FF66CAF00234FF400124FF48011D7
:10501000BB70CDE90B12099340F281123B70002363
:105020004FF01409CDE90623DFF85C8110AC06AE21
:10503000002002F04DFCFEF7A5FAFEF745F96420CA
:1050400010F08CF86878012102F026FC68780121C4
:1050500002F004FC484610F081F802E00A2010F04B
:105060007DF821463046FEF72BFA0228F6D0322092
:1050700010F074F8D8F8143009F1140913B9B9F51F
:10508000D27FD5D1D8F81430002B3FF428AF0121BE
:105090003B48397007F06AFAC7E5012E7FF41FAF6D
:1050A0003146374807F062FA3F4801F037FE0020EA
:1050B00002F00EFC002002F025FC642010F04EF8F7
:1050C00008F070F9B1E5042E00F01E83092E7FF47C
:1050D00006AF681C07F02EFC03462B4A23F0004362
:1050E00001212748136507F041FA9EE50121244874
:1050F00007F03CFA0123284A3B70D360FEF7E4F83E
:1051000093E5032E7FF4EBAE6878A0F14203022B07
:105110003FF6E5AEAB78302B0CBF0021012102F049
:105120009DFB09E77822214B8DF84020D3F89005AC
:105130000DF1410107F0CCFA0D230A2110A88DF8DA
:10514000493007F013FA70E5022E7FF4C8AE6B7891
:10515000302B00F00983312B7FF4EEAE012001F0FB
:10516000D7FDE9E6022E7FF4BAAE6B78302B40F023
:10517000C082012100230E4A1170BB70DCE600BF23
:10518000689F01086801032010000320409E010869
:10519000DCC30108ACC40108082B0320F4C30108D8
:1051A000A43B0320A03B0320FCC301080000FA0B32
:1051B00092000320092E7FF492AE681C07F090FB4A
:1051C0000346BF4C681D636107F07EFB0346E81D84
:1051D000E36107F079FB03460121BA48236207F037
:1051E000C5F922E5022E7FF47AAE6B78B448302BF5
:1051F00000F0B68208F084FC9EE6022E7FF46FAECB
:105200006B78302B00F0A782312B0CBF4FF48072EB
:105210004FF44072AA4B9A608EE66A238DF84030B4
:1052200005F04AFD0DF1410107F0C0FA0D230421FC
:1052300010A88DF8433007F099F9F6E4022E7FF4B8
:105240004EAE6B78302B0CBF00230123FB7073E64E
:10525000022E7FF444AE6B78302B0CBF002001206F
:1052600002F036FB68E611F0EFF8102840F2AC814E
:10527000954807F0E9F9D8E4022E7FF430AE6B7858
:10528000303B032B3FF62BAEDFE813F09201890190
:1052900087017D01B31E062B3FF621AE01220020BF
:1052A0008A4FAC18A91914F8013B00EB8000303B81
:1052B00003EB4000DBB20A2B28BF0022B84288BFB4
:1052C0000022A142EFD1012A7FF409AEFEF78CF84B
:1052D00000287FF404AE2FE601217A4807F046F952
:1052E00000210123764AD1603B70FDF7EDFF9CE47D
:1052F0000F21774807F03AF90C21764807F036F984
:105300000121754807F032F90921744807F02EF998
:105310000221734807F02AF987E4062E7FF4DFADF7
:1053200005227049681C13F090F8002840F0DC81D9
:105330006D4807F089F90121624807F017F974E414
:10534000032E7FF6CCAD6F1C311F3846C1F34F06DC
:105350004FEA510907F0DEFAB04204467FF4BFADD0
:1053600005F1040841461FFA89F210AE5F4807F0C4
:105370008BFA11F063F822465D4B5C49009606F00B
:10538000D3F83946BDF8400007F0D8F9BDF8402001
:105390004046574907F07AF90D22BDF840302846BB
:1053A000023305F813205B00591C07F0DFF811F0F9
:1053B00045F822464E4B4D49009607F06FF834E40D
:1053C0004E234C4D4C4E0DF141048DF8403015F8F4
:1053D000040B214607F0EAF9B54204F10204F6D1C4
:1053E000192110A807F0C2F80121364807F0BEF8CD
:1053F0001BE4042E00F09681092E7FF470AD681C2A
:1054000007F098FA03463D4A23F0004301212D4856
:10541000D36407F0ABF808E401212A4807F0A6F8A6
:1054200002215EE710A9264808F002FD02A92448DF
:1054300008F026FD10A902A801F028FCFFF7F5BB33
:105440002F4807F0B7FA431C9E427FF448AD2C4822
:1054500007F0B0FA2A490246681C13F00EF800283B
:105460007FF43DAD0121174807F080F8C8200FF008
:1054700075FE03F02DF8002840F07B8103F074F8EE
:105480002DE5002301210F483B7007F06FF8FFF76F
:10549000CCBB022E7FF423AD6B78302B00F057810C
:1054A000312B7FF449AD01233B7145E5012E7FF49B
:1054B00016AD144807F0C8F83046FFF7B7BB00BF79
:1054C000082B0320689F01080CC4010840420F000C
:1054D00084C3010894C30108D4A20108A0C3010831
:1054E00098C40108C0C40108C8C40108B4660120FA
:1054F000B05601209005FA0BC005FA0B10000320EE
:10550000F8C30108ACC301084A238DF8403005F008
:10551000E1FB0DF141010DE6984801F097FBFFF723
:1055200084BB032E00F00C81052E7FF4D8AC681CE0
:1055300007F0CAF90346924CE81CA36107F0C4F9CE
:10554000A062F9E446238D4A0DF1410110798DF8EE
:10555000403069E6072E7FF4C2AC681C07F0B4F94E
:105560000346874CE81C636207F0AEF90346681DEA
:10557000E36207F0A9F9034601218248236306F09C
:10558000F5FFFFF752BB03227C4B01217D48DA6215
:105590005A6406F0EBFFFFF748BB0222F4E7012153
:1055A000764B7848D962596406F0E0FFFFF73DBBBF
:1055B0000022E9E74FF00041164600220124CDE920
:1055C0000D220A91FFF743BB6F4807F03DF810F03A
:1055D0003BFF02AA01466D4811F092FA10AC6C48EC
:1055E00007F032F800212246029807F0F9F8204629
:1055F00007F02AF8674807F027F84FF00008634FD4
:10560000654E63E064210AEBCA0207EB82029269ED
:105610004FEACA0501FB02F2B2FBF3F35FFA83FB28
:1056200022460021504607F0DBF8204607F00CF830
:105630005A4807F009F805EB0A0307EB8309D9F884
:10564000040007F001F8D9F80400FAF703FE072870
:105650008CBF3046524806F0F7FF05EB0A0307EB14
:1056600083031B7B5544052B96BF4E4A4E4852F888
:10567000230006F0E9FF22460021584607F0B0F863
:10568000304606F0E1FF204606F0DEFF07EB850519
:10569000464806F0D9FF22460021288C07F0A0F8E2
:1056A000304606F0D1FF204606F0CEFF304606F029
:1056B000CBFF22460021A86907F092F8204606F0A9
:1056C000C3FF304806F0C0FF08F1010810F0BCFE2F
:1056D0005FFA88FA50457FF6A8AA029B002B91D169
:1056E0009B464FEACA059BE7314806F0ADFFFFF73E
:1056F0009CBA0024224B3C70DC60FDF7E5FD0122E2
:105700002C4BBA701C7017E4681C07F003F90346B1
:105710001A4AC3F30A0301211A48936306F026FFCD
:10572000FFF783BA681C07F0F5F80346134AC3F382
:105730000A0301211348536306F018FFFFF775BAF7
:10574000681C07F0C1F80E4B9861FFF7F5BB00230A
:105750003B71FFF7F1BB0022094B9A60FFF7ECBBEE
:1057600008F0E0F9FFF7E8BB002001F0D1FAFFF7FD
:10577000E3BB13F05DFDFFF7B2BB00BF10000320D9
:10578000082B0320689F01081CC4010870540120E5
:1057900068C4010888C40108A4C401089CC40108A5
:1057A000A0C4010860D001087CC30108A8C4010896
:1057B000E0C4010892000320024A034B10801980C4
:1057C000704700BF640003202A3D03202DE9F0410B
:1057D00000254FF400780E46384B394FC3E9005589
:1057E000C3E90255374B384A1D80384B38491D8074
:1057F000384BA2F800801D80374BB5221D70374B07
:10580000044638461D7012F090FF3B22294607F1EE
:10581000B50012F02AFE002E4AD0204607F2FF13F0
:10582000344410F8012BA04203F8012FF9D10022D3
:1058300006F500702A4B80B2B0F5805FC3E9002204
:1058400006D0C6F56062002192B2384412F00DFE17
:105850000024244B4FF48062214623481C7012F030
:1058600004FE224A224B1588224665F30F0465F395
:105870000F0203F5905065F31F4465F31F42C3E91F
:10588000004208339842FAD1032500221821194B0F
:105890002E241D70184B40201A702022174B19809F
:1058A000174B18491C80184B08701A70BDE8F0811E
:1058B0000B4B4046C3E90066C3E700BF843D0320AD
:1058C000B80A0220943D0320783D03207A3D03204E
:1058D00020C50108343D0320313D0320303D032025
:1058E0007C3D0320293D0320B80602202A3D0320E9
:1058F000B8760120680003202C3D03206C000320B3
:105900006A0003206700032066000320014B18781B
:10591000704700BF283D032001220249024B086066
:105920001A707047243D0320283D03200022014BBC
:105930001A707047283D03202DE9F04F3C493D4B3C
:105940003D4A91F800801B7892F800908BB0B8F136
:10595000000F6AD0394A3A4912883A48049213FB38
:1059600008F202FB03F4B1F800A04FEA440B1D4615
:105970000021A0EB43044FEA420EB9F1000F4BD0D7
:10598000069007920846224601460027CDE9080204
:10599000EC1A059402EB450CCDF80CA02A48CA0875
:1059A000825C01F00704E24012F0010FDDE903021E
:1059B0000CBF144604467BB16646DDF814A03046A1
:1059C00000220132934204807044FAD10AF1010AA4
:1059D000554506F10206F2D10137BAB24A454144B3
:1059E000DC44DBD3DDE90802013081B28845DDF813
:1059F0000CA01D44C8D8DDE906021FFA82F8009009
:105A000012491348424603FB09F30988008804F051
:105A10006BFD0BB0BDE8F08F01318CB2A045ECD925
:105A200001318CB2A045F7D8E7E70648E7E700BFA9
:105A30006700032068000320660003202A3D03203E
:105A400064000320B8760120B80602206A00032013
:105A50006C00032000222DE9F04F744B744993F839
:105A600020308BB0023B0A80042B06D8DFE803F01D
:105A70004E5155034B0080230B806E4A1368C31AA6
:105A8000102B09D96C4C23780BB1013B23706B4C64
:105A90002378002B34D1106040F6FE73684C2788C1
:105AA0009F4227D8674B1D88B5F5805F22D2664A92
:105AB000664ED3195B78D25D43EA02231A4603F49B
:105AC0007040B0F5004F1BB2328000F0DC8228D865
:105AD000B0F5804F00F07E813FD8B0F5005F00F058
