:020000040800F2
:1000000000000420E5D50008A1D30008A5D300080E
:10001000A9D30008ADD30008B1D3000835D6000835
:10002000000000000000000000000000817B0108CB
:10003000B5D3000800000000117B0108E953010856
:1000400035D6000835D6000835D6000835D6000864
:1000500035D6000835D6000835D6000835D6000854
:1000600035D6000835D6000835D6000835D6000844
:1000700035D6000835D6000835D6000835D6000834
:1000800035D6000835D6000835D6000835D6000824
:1000900035D6000835D6000835D6000835D6000814
:1000A00035D6000835D6000835D6000835D6000804
:1000B00035D60008B9D30008C5D3000835D60008E6
:1000C00035D6000835D6000835D6000835D60008E4
:1000D00035D6000835D6000835D60008D1D300083B
:1000E000DDD3000835D60008E9D3000835D600086E
:1000F00035D6000835D6000835D6000835D60008B4
:1001000035D60008F5D3000801D4000835D600081C
:1001100035D6000835D6000835D6000835D6000893
:1001200035D600080DD4000819D4000835D60008CB
:1001300025D4000835D6000835D6000835D6000885
:1001400035D6000835D6000831D4000835D6000869
:1001500035D6000835D6000835D6000835D6000853
:1001600035D600083DD4000835D6000835D600083D
:1001700035D600080000000035D600080000000059
:1001800049D4000835D6000835D6000835D6000811
:1001900035D6000835D6000835D6000835D6000813
:1001A00035D6000835D6000835D6000835D6000803
:1001B00035D600080000000055D4000835D60008E8
:1001C00035D600080000000035D6000835D60008F6
:1001D00035D6000835D6000835D6000835D60008D3
:1001E00035D6000835D6000835D6000835D60008C3
:0401F000000000000B
:1002000010B5054C237833B9044B13B10448AFF350
:1002100000800123237010BD1007032000000000A0
:100220003C96010808B5034B1BB103490348AFF3E3
:10023000008008BD00000000140703203C96010860
:1002400010F8012B11F8013B012A28BF9A42F7D080
:10025000D01A7047034613F8012B002AFBD1181A55
:1002600001387047704700BF2DE9F041234C244D01
:10027000244E254FDFF8948082B04FF0FF330222E6
:1002800020680DF1060115F027FF022807D02B7812
:10029000012B29D0012130460CF046FBEDE742F25C
:1002A0000303BDF806209A42F1D841464FF0FF33D0
:1002B000206815F011FFBDF806108142E7D14046D5
:1002C00006F0F6FC0028D8D12B78BDF80610012BDB
:1002D0000E480DD004F09EFE0128CED12B78B3FA43
:1002E00083F35B092B70C8E738460CF08BFBC4E73F
:1002F00003F08EFC0128C0D1F0E700BF30080320D6
:100300000408032068A2010848A201083CB70020A5
:100310002DE9F04F7E4CDFF81482DFF808927D4F14
:100320007D4E9BB04FF0FF3328226946206815F0C0
:10033000D3FE2828F6D103980CF002FD824600284F
:1003400040F09380029B002B6DD10098D8F80030CC
:10035000984200F0928051460AAA06F0C9FC16F0B5
:1003600049FA0AA90246684607F0F8FB16F042FA75
:100370000AA90246684609F02FFB16F03BFA0AA9C3
:100380000246684606F092FC3B78002BCAD0069BDA
:10039000B3F5001F7FD00121BAF1080F28BF4FF03D
:1003A000080A00200D465FFA8AFADDE90132002AC8
:1003B00069D13144002B00F09D80542333540098C0
:1003C0000CF064FB0544EDB2069B7119B3F5001FF8
:1003D0006CD00AF00F000CF0D7FB0544EDB2BAF177
:1003E000000F0BD00AAB9B469A441BF8010B711906
:1003F0000CF0BAFBDA450544EDB2F6D1FB78002BE0
:100400005CD17B791BB1069BB3F5001F76D00D2321
:10041000691C4148C9B273550CF086FA002881D096
:1004200000233B707EE7B3F1005FA6D1009BB3F5DC
:10043000E06FA2D1C9F80030039B0199082B28BFB7
:1004400008231A460023C9F80410C9F80C203349C0
:1004500008223348C9E90533C9F808300CF07CFCA0
:100460002F49304803F040FA87E702464FF0FF3348
:1004700020680AA915F030FE64E72B492B4803F0E9
:1004800033FA009867E753B352234FF0000A33540E
:100490003144009894E7059B0221B3F5801F14BFF7
:1004A0003023312301200D4633707EE7039800F09E
:1004B0000F000CF069FB2B18DDB290E716F09AF9EB
:1004C0004EF660221A4B7119A3FB00C39B0B02FB73
:1004D000130080B20CF026FB2B18DDB291E79A4690
:1004E000722333540098314480B20CF005FB2B1872
:1004F000DDB269E7742333540098F5E7049BB3F148
:10050000004F84D1692373550135EDB27FE700BFF9
:10051000AC3B03206C0103203CB500209005FA0B96
:100520003407032040070320003D0320083D03203B
:1005300073B2E7452DE9F0411F4DDFF884801F4F6E
:100540009AB0002404EBC40101AEC4F124024FF0C0
:10055000FF33286806EB810115F0BEFD0444232C0F
:10056000F0D904980CF0ECFB039B0646B3F1005F56
:1005700000D0A0B938460DF07BFE50B138460AAA2B
:1005800001A90DF02FFDD8F80C300133C8F80C305C
:10059000D7E74FF0FF31012016F0E4FDEAE7002431
:1005A0000AA9321B21444FF0FF33286815F094FD4F
:1005B0000444A642F4D8DDE7A83B0320102B032017
:1005C000100003202DE9F04182B006F08BFB03F010
:1005D0008FF807F0C3FB00F0C7FD09F075FF16F0B8
:1005E00009F906F059FB16F005F906F059FB244805
:1005F00011F0E8FD234811F0ADFD2349234809F02F
:1006000009F9234F08F078F8224DDFF89080224E48
:1006100005E001330CD10A2101A816F053FA16F0B7
:10062000E9F83B68019001332B68F2D101330BD01C
:100630004FF47A7401E0013CEDD03146284603F0D6
:1006400053F90028F7D0E6E709F03CFF019809F0DC
:1006500041FF019800F08AFD98F800304BB10198F5
:1006600006F028FB019807F077FA019809F0E8F8FE
:10067000D1E7019806F084FC019806F00FFBEEE745
:1006800048280320B0270320201B0320B029032083
:10069000083D0320DC3C0320D43C032092000320CF
:1006A0002DE9F04700272A4D2A4EDFF8ACA0DFF8ED
:1006B000AC90DFF8AC80A4B016E0630203D53379C8
:1006C00043F08003337199F8003033B1099B23B1B3
:1006D000642014F01FFF03F00BF8002302221946D8
:1006E000D8F8000016F0B4FD4FF0FF31012016F0ED
:1006F00039FD17F017F928460DF010FF044604A93C
:1007000028460DF071FD694628460DF095FD5422EE
:1007100031460FA8B46018F01CFA2F66169BB3F58B
:10072000003F02D9B3689A020CD417F009F99AF87D
:100730000030012BC1D1234668460FAA04A906F058
:1007400011FDBAE7012386F8203003F05BF8ECE7EF
:10075000102B032010000320A83D032030070320A6
:10076000D01F032000232DE9F04784B05B4C5C4D83
:100770005C4FDFF87481DFF874910DF10E068DF88F
:100780000B3004E04FF0FF31002016F0EBFC206846
:1007900015F0CAFB0028F5D04FF0FF330122206886
:1007A0000DF10B0115F098FC0128EBD1206815F034
:1007B000BBFB0128E6D94FF0FF330222206803A9D2
:1007C00015F08AFC0228DDD1BDF80C20B2F5805F5F
:1007D000D8D2002A55D19DF80BA0BAF1000F16D13E
:1007E00016F008F83B462946BDF80C2000960BF0A1
:1007F00079F8BDF80E30002B56D115F0FBFF3B46C3
:100800002946BDF80C2000960CF026F8BAE715F042
:10081000F1FF344B3249BDF80C2000960BF0B8FFC5
:10082000BDF80E301BB33A787F2A08D1022B1ED9AF
:10083000BB78A3F11102012A19D9312B17D04FF03F
:10084000FF3302223146D8F8000015F07BFB4FF051
:10085000FF332449BDF80E20D8F8000015F072FBD4
:10086000002302221946D9F8000016F0F1FC15F019
:10087000C1FF1C4B1A49BDF80C2000960BF0ECFF91
:1008800080E74FF0000AA2EB0A0205EB0A014FF0E5
:10089000FF33206815F020FCBDF80C2050441FFAEF
:1008A00080FA5245EFD196E731464FF0FF330222EE
:1008B000D8F8000015F046FBBDF80E204FF0FF33CE
:1008C0000849D8F8000015F03DFB53460222514676
:1008D000D9F8000016F0BCFC8FE700BF70070320BA
:1008E00038A50020389500206C070320100D032048
:1008F0002DE9F84F2A4E2B4DDFF8ACA006F11C076E
:1009000006F5805B06F11408A6F5805904E04FF067
:10091000FF31002016F026FC286815F005FB0128A1
:10092000F5D94FF0FF3302224146286815F0D4FB79
:100930000228ECD1B28AB2F5805FE8D262B100241D
:10094000121B39194FF0FF33286815F0C5FBB28A26
:10095000204484B2A242F3D115F04CFF0146484630
:1009600007F02CFC0028D2D115F044FF0AF01CFF40
:100970000128CCD0286815F0D7FA0128C7D89AF8F2
:10098000003053B19BF8230014F0C4FD15F032FF82
:100990000AF00AFF0128BAD0ECE70A20F4E700BF0A
:1009A0008C3D02206C0703209200032038B50D49CE
:1009B0000D480BF08BFF0B4A0C490D4817F02EFB2E
:1009C000094D0C4C21464FF0FF334FF4006228686C
:1009D00015F082FB01460028F4D020460BF08EFF74
:1009E000F0E700BF600803200808032084240320E8
:1009F0003008032040D7002006F06CB9002006F034
:100A00006DB900BF0022024B02481A6011F0DABB38
:100A10002C070320FC270320014B1868704700BFF8
:100A20002C0703200000000030B59FB048220021B1
:100A30000CA817F02EFF00234FF40070CDE902330D
:100A4000CDE90433CDE90733CDE9093301930693AA
:100A50000B930FF07DFD08B172B6FEE70123022271
:100A6000169311931993179210231D9207229FED4D
:100A70001E7BCDE91A320324042312900CA81C9388
:100A80008DED0C7B18940FF0A5FF034608B172B6EC
:100A9000FEE70F22214601A8CDE903330593029416
:100AA00001920FF045FE034608B172B6FEE7104A08
:100AB0004FF00055916D4BF67F3441F08071916598
:100AC000926D069302F080720092089322222023F6
:100AD00006A8CDE90A2300990795099410F0D8FEDD
:100AE0001FB030BDAFF300802900000000000100FE
:100AF00000100240F0B593B072B64FF00062A84B00
:100B00009A60BFF34F8F62B600250CF095FD07F099
:100B1000FDFEFFF789FFCDE90D55CDE90F55A14C3D
:100B20001195E36C4FF4604143F00403E364E36C1C
:100B30002A4603F004030693069BE36C9A4843F0AD
:100B40008003E364E36C012603F080030793079BB3
:100B5000E36C082743F00103E364E36C03F0010353
:100B60000893089BE36C43F00203E364E36C03F037
:100B700002030993099B0EF075F92A4640F2011110
:100B80008A480EF06FF92A4641F2E40188480EF0D7
:100B900069F94FF4604384480DA9CDE90D360F95EE
:100BA00010950DF0A1FF40F2011380480DA9CDE989
:100BB0000D36CDE90F550DF097FF41F2E4037C4867
:100BC0000DA9CDE90D36CDE90F550DF08DFF794812
:100BD0000DA9CDE90D750F950DF086FFA36C0521CC
:100BE00043F00403A364A36C2A4603F004030393B5
:100BF000039BA36C1D203343A364A36C3340049375
:100C0000049BA36C43F00203A364A36C03F00203F0
:100C10000593059B0CF046FD1D200CF07FFD2A4638
:100C200005211E200CF03EFD1E200CF077FD2A460B
:100C3000052150200CF036FD50200CF06FFD2846A9
:100C40000EF098FC08B172B6FEE70EF0A7FC034662
:100C500040B959484360594B036010F041FE18B148
:100C600072B6FEE772B6FEE710224FF44071544BA5
:100C70000F241870534B99609A619A623C21132299
:100C8000C3E907120422C3E90B424F4A5860D860F7
:100C90009874D8631846C3E90D661E825E615E6271
:100CA0001A600CF0D1FF034668BB4FF0FF31474A92
:100CB0004FF4827CC2E90500C2E90100D0601160F6
:100CC00007224FF4E0654FF400744148C0E90A324E
:100CD000404AC0E90433C0E90833C2E90533C2E938
:100CE000013383600363D3603B4BC7610360476399
:100CF000C0F804C0C5608461116011F01DF803469E
:100D000018B172B6FEE772B6FEE73448344AC0E95D
:100D100005338380026006620CF032FD034608B1A1
:100D200072B6FEE74FF4027102222E48C3722E4BB8
:100D300081800360C0F807200EF03AFC034608B13A
:100D400072B6FEE741F63F75284C294ACDE90D0001
:100D50000F902046C4E90133A3612260E56011F0E1
:100D600045FC034608B172B6FEE720460DA90D9377
:100D70000F9311F06DFC034608B172B6FEE71D48F3
:100D80001D4ACDE90D33026042F20F72C0E902350F
:100D90000F938361426011F029FC78B372B6FEE7CD
:100DA00000ED00E000100240000802420000024294
:100DB00000040242001C0242142A032000080C42D4
:100DC00030070320102B032000A40040083D03201F
:100DD000B0290320DC3C032000380040742B0320A2
:100DE000003002408824032000D40040FC27032068
:100DF00000140040482803200010004000238E48C3
:100E00000DA90D930F9311F023FC034608B172B6A0
:100E1000FEE74F254FF6FF748848C0E9043383602E
:100E20008361874BC460C0E9003511F0DFFB0346E6
:100E300008B172B6FEE78348C0E90153C0E9034335
:100E4000C0E90533804B036011F0D0FB034608B1C5
:100E500072B6FEE74FF080414FF0FF327B4CCDE998
:100E60000D00CDE90F00C4E901000A902061A061E6
:100E70002046CDE90B332160E26011F0B7FB08B1E9
:100E800072B6FEE74FF4805320460DA90D9311F082
:100E9000D7F9034608B172B6FEE720460AA90A93BD
:100EA0000C9311F0D5FB044608B172B6FEE7684812
:100EB000684900902246684B0C7043F69820012147
:100EC00014F0A4FF0546654E654A009601211560A1
:100ED000644B224643F6982014F098FF0546624E74
:100EE000624A009601211560614B224641F20100E1
:100EF00014F08CFF02465F4E5F4D009601215F4B60
:100F00002A6041F20100224614F080FF5C4B5D4AEA
:100F100001210092186022465B4B43F6982014F0A2
:100F200075FF5A4B5A4A0121009222461860594BCC
:100F300043F6982014F06AFF574B584E186020462D
:100F400006F0D8FE204606F0EFFE06F037FF15F05B
:100F500051FC2A46524B5349009606F0EBFD52488D
:100F60000AF080F8514805F07DFE5148514A524937
:100F700002F0A4FB0DA80D9406F078FE10B90D9BAD
:100F8000002B55D014F03EFA16F0F8FE00214B4A23
:100F90004B4814F063FA04464A4B00214A4A4B4836
:100FA0001C6014F05BFA0446494B0021494A4A4848
:100FB0001C6014F053FA04463F4B0021474A48484E
:100FC0001C6014F04BFA0446464B0021464A474841
:100FD0001C6014F043FA0446364B0021444A45484D
:100FE0001C6014F03BFA04462E4B0021424A434851
:100FF0001C6014F033FA0446414B0021414A424838
:101000001C6014F02BFA0446404B0021404A414832
:101010001C6014F023FA04463F4B00213F4A40482D
:101020001C6014F01BFA3F4B186014F0FDF9FEE74A
:101030003D4806F0F3FDA5E748280320B02703202C
:101040000044014064270320004801409428032005
:101050003408032004080320D81901200C080320B9
:101060003008032040DF0020E007032008080320A9
:1010700034850020BC070320700703203075002052
:101080006C07032098070320983A0020AC3B03200C
:101090007407032000000020A83B032064070320FE
:1010A00068070320C0110320142A0320742B032097
:1010B000102B032070160320D01F032018D4010822
:1010C0006902000884240320F4D3010811030008F6
:1010D00080240320D0D3010835050008ACD30108D3
:1010E000C5050008201B032088D30108A1060008BD
:1010F00064D301086507000840D30108F10800081F
:10110000100D03201CD30108AD090008600803205E
:10111000F8D20108F90900085C080320D4D20108BC
:10112000FD09000858080320040029C0094A036883
:10113000934206D0084A93420AD0084A934205D007
:101140007047074A136801331360704705F0BABD52
:101150000CF084BA00140040002C01400010004044
:101160002C07032072B6FEE7704700BF704700BF30
:1011700040F69E723B492DE9F04FB1F800803A49A4
:101180003A4B0C681B88944204FB083383B064D844
:1011900000204FF080424FF0300B354F354EDFF8D6
:1011A000DCA0354DDFF8D89004F1010E01973C44E6
:1011B000516A9942FCD3D9F810100130C1F3402C88
:1011C00011F480774CF0020CC0B24344C1F34021CB
:1011D00017D04FF0310731680A280AF801C001F131
:1011E0000101C1F30B0131602968277001F1010190
:1011F000296013D9BEF1140F24D80EF1010E013469
:10120000D6E7306884F800B00AF800100130C0F367
:101210000B00306038462968013129600EF1010E5B
:10122000BEF57A6F01D00134C2E740F69F7301200A
:101230009E460D4A019F1360002307F80E3003B04D
:10124000BDE8F08F084B0020C3F800E00023019FA9
:1012500007F80E3003B0BDE8F08FA6460120044F1A
:10126000EAE700BF0A000320042C03200800032043
:10127000082C03207C3F0320803F0320843F032071
:101280000004024270B500244FF0804101254FF662
:10129000FF7086B0CDE90044CDE9024404940A68A9
:1012A0001B4E22F001020A6032881A4B013A8A6210
:1012B0004C624D610A68184E2A430A601A6822F08F
:1012C00001021A6098625C625D611A682A431A60C2
:1012D00002F098FA30462A464FF400710DF0C2FD34
:1012E0004FF48072002369463046CDE90023029412
:1012F0000DF0FAFB4FF40073032269463046CDE946
:101300000035039202940DF0EFFB06B070BD00BFF4
:101310000C0003200048014000040242F0B5BDF873
:101320001450012D3BD9302405F1FF3E1C70C1BB88
:10133000C0F38021BEF1010F01F130012FD0012750
:101340000A253E460DE00C460127013D20FA05F135
:1013500001F001016E1C01F130011AD0F4451EDAD2
:10136000664606F1010C8C4299551FFA8CFCEAD1B5
:101370000137FFB2052FE8D1C4F16104F445E4B2AE
:1013800006F102060BDA03F80C4001271FFA86FC6F
:10139000DBE7002A0CBF30253125F44549DB00206E
:1013A000F0BDC0F30071022D2144F8D001271C25A7
:1013B0003E460DE00C460127013D20FA05F101F003
:1013C0000101112D01F130011AD0E645E7DD664635
:1013D00006F1010C8C4299551FFA8CFCEAD10137B9
:1013E000FFB2052FE8D1C4F16104F445E4B206F17F
:1013F0000206D4DA03F80C4001271FFA86FCDBE76B
:10140000E645CCDD31260CF10101B44289B203F886
:101410000C606BD08E45C2DD34465E5402260CF162
:101420000207BFB2C0F34041BE4501F1300126DCE6
:10143000B5E70CF10101AC4203F80C5089B26DD054
:1014400001277145ABDA30224C1C9542A4B25A54A4
:1014500000F08680A645A2DD881C80B21A550022C5
:101460001A54F0BD0C4667460126013D21D320FAEF
:1014700005F101F00101774501F130018FDA07F143
:10148000010C8C42D9551FFA8CFCEBD10136F6B217
:10149000052E01D06746E8E7C4F16104E645E4B2F1
:1014A00007F102077FF77BAF0126BFB203F80C40BC
:1014B000DBE7002A0CBF302531257745BFF66FAF3B
:1014C0007A1CAC42DD5592B25FD001217245BFF665
:1014D00066AF3026541CB542A4B29E5472D0A645C5
:1014E0007FF75DAF023290B21E55B8E7042F26D0C9
:1014F0008E457FF754AFBE1CF6B20CF10207052EE5
:101500005C54BFB28ED17745BFF649AF30240CF1A1
:10151000030CDC5501261FFA8CF783E70137FFB275
:10152000052F8ED18E457FF73AAFC5F16105EDB23B
:101530000CF1020C5D5401271FFA8CF181E78E45F6
:101540007FF72DAF30265E540CF1020189B28E4533
:101550007FF725AF0CF1030701265C54BFB261E7AA
:101560007A1CD2B2052A1FD0A6457FF718AF881C77
:10157000042A1D5580B27FF472AF7045BFF60FAFDD
:10158000312203311A5488B269E7711CC9B20529A6
:101590009CD17245BFF603AFC5F16105EDB20237CC
:1015A0009D540121BAB291E7A6457FF7F8AE3122EA
:1015B0001A558A1C92B296457FF7F1AEC81C80B2CC
:1015C0009D544CE70131C9B2052910D0A6457FF7DB
:1015D000E6AE1D55042902F10204A4B215D17445EA
:1015E000BFF6DDAE3121033290B2195537E7A6457B
:1015F0007FF7D5AE31211955911C89B28E457FF701
:10160000CEAE033290B25D5429E7204627E700BFF3
:101610004A4B1868831C74D02DE9F04FC71C91B059
:1016200075D0411C53D14FF000084FF0804E444B11
:10163000444A1B88B2F800A00393434B0AEB8A0488
:101640001F88424B42481968424E64000369DA051C
:10165000FCD5DEF8242092B20369DB05F6D5DEF86E
:1016600024309B1A9C42F7D8036913F4807306D088
:10167000736ABB423FD8036913F48073F8D11D46E7
:10168000CEF82430B8F1000F1AD04FF08041039A01
:10169000DFF8D090DFF8B8B00DF1100C4B6A934230
:1016A000FCD3DBF81030524413F4807F1CF8013B6C
:1016B0001DD0312B1DD10135A84509F8013BEDD1D5
:1016C000224BC3F80080002011B0BDE8F08F302419
:1016D000214B224A1978127804AB0094FFF71EFEC2
:1016E00080460028A1D11E480BF08CF99DE7302BD5
:1016F000E1D02946AAE70120144B196011B0BDE8DA
:10170000F08F4FF08043002200205A6270474FF064
:1017100080440C4B0E4A188800EB8000400013698F
:10172000DE05FCD5616A89B21369DD05F7D5636A08
:101730005B1A8342F8D300236362C4E704000320EA
:10174000080003200A00032000000320042C0320CB
:101750000004024200480140012C0320002C032019
:1017600004A30108082C032002783AB34FF0000CC0
:1017700030B56346864631250BE02A2A07D10CF1A5
:10178000010C1FFA8CFC8EF8005000EB0C0EC25CB2
:1017900082B1A2F13001013301290CF101049BB2A5
:1017A000EBD88EF80020C25C1FFA84FC00EB0C0E14
:1017B000002AEED100238EF8003030BD00230370E4
:1017C000704700BFF8B504460BF0D2FA142874D95C
:1017D00000F1FF3E1FFA8EFE14F80E2004EB0E05FA
:1017E000312A2B4618D1A0EB0E020C2A65D8811E97
:1017F000661E2A2714FA81F1064401E00C2A5CD8FF
:101800001F700B4693F800C0C3F10102BCF1310F09
:1018100001F1FF313244F1D00021234601270E4669
:10182000204413F8012BA2F13004012C49D80029DF
:1018300045D0E7B1052953D1B2423ED05F2298424C
:1018400003F8012C29D01A4612F8014BA4F13001FB
:10185000012962D8904203F102031ED01278394662
:10186000A2F13006012E26462BD8002FE2D1B2423B
:101870000DD0984211D013F8014B1646A4F1300157
:10188000012942D82246B2424FF00101F1D1013183
:1018900098424FF00007C9B2C3D10FFA8EFEBEF1D5
:1018A000000F08DB2A4615F801392A2B45D05F2B9B
:1018B00001D1302313700120F8BD0020F8BD164679
:1018C00001219842ADD1E8E79842E6D013F8014BE8
:1018D0000121A4F13002012A2CD8302216462246DA
:1018E000B2420BD0312AEFD19842D6D013F8014B37
:1018F000A4F13001012928D80121EFE70131312E6F
:10190000C9B205D001273026DBE700270121D8E73F
:1019100006298CBF00270127D3E79042BDD011785C
:101920000233A1F13002D2B2012A96BF0E46002145
:101930003946C6E730260F46C3E70EF1FF3E0FFAE1
:101940008EFEBEF1FF3FADD1B5E7012116460F4631
:10195000B7E700BF70B571B3002344F2995600F1A8
:10196000FF3C0CEB01051CF8012F5C00A2F13102D9
:10197000B2FA82F24FEA933E47F6FE73520972457D
:1019800003EA040318BF7340AC45ECD14A1E00F1D2
:101990000E0C024400208C4412F8011F4000312933
:1019A00008BF40F00100944580B2F5D1C01AB0FAEA
:1019B00080F0400970BD0B46E8E700BF2DE9F04F0D
:1019C0008FB004460BF0D4F9122840F251812378ED
:1019D000302B05D0B6480FB0BDE8F04F0BF012B871
:1019E000054606AEB3480BF00DF8002731462346F6
:1019F00004F10B0C13F8012FA2F13100B0FA80F0C2
:101A00009C454FEA501001F8012B40EA4707F1D1FD
:101A10004FF00008A8488DF823800AF0F3FF06A8CD
:101A20000AF0F0FFA5480AF0EDFF03A938460BF0D5
:101A30002DF803A88DF814800AF0E4FFA0480AF0FE
:101A4000E1FF277B9F4894F80D908DF819808DF861
:101A500018700AF0D7FF06A80AF0D4FF9A480AF0D7
:101A6000D1FF9A488DF818900AF0CCFF06A80AF02A
:101A7000C9FF95480AF0C6FFB9F1310F40F0028165
:101A8000262D40F2FB80474606AA04F10D010DF118
:101A90002A0011F8013F02F8013BA3F13103B3FA28
:101AA00083F390424FEA531343EA4707F1D14FF0D3
:101AB000000887488DF82A800AF0A4FF06A80AF0DB
:101AC000A1FF7E480AF09EFF03A938460AF0DEFF18
:101AD00003A88DF814800AF095FF79480AF092FF68
:101AE00094F820707B488DF819808DF818700AF0F2
:101AF00089FF06A80AF086FF73480AF083FF94F86E
:101B0000213075488DF818300AF07CFF06A80AF0DD
:101B100079FF6D480AF076FF94F822306F488DF80F
:101B200018300AF06FFF06A80AF06CFF66480AF04A
:101B300069FF4FF0230A4FF00009201D06A9504409
:101B400004EB0A0212F8013B01F8013BA3F1310357
:101B5000B3FA83F390424FEA531343EA4909F1D1B0
:101B60004FF000085E488DF81C800AF04BFF06A875
:101B70000AF048FF5FFA89F950480AF043FF03A9C9
:101B800048460AF0F1FF03A80AF1040B8DF80E8015
:101B90000AF038FF4A480AF035FF0BEBC90202F1A0
:101BA0000F03AB4200F2F580302F00F0A980002730
:101BB00006A8551E254400F10F0C15F8011F00F86A
:101BC000011BA1F13101B1FA81F184454FEA5111B4
:101BD00041EA4707F1D100254248CDE900238DF8BD
:101BE00027500AF00FFF06A80AF00CFF33480AF04E
:101BF00009FF03A9B8B20AF095FF03A88DF81050A9
:101C00000AF000FF38480AF0FDFE009A204611460F
:101C1000FFF7A0FE019B0093002844D033480AF050
:101C2000F1FE009BE25CE118A2F13003012B98BFAA
:101C3000012304D919E00133202B00F0A88006F815
:101C4000012B11F8012FA2F130000128F3D9002255
:101C500038336B44264803F8202C0AF0D3FE06A83C
:101C60000AF0D0FE18480AF0CDFE0FB0BDE8F08FA4
:101C700020480FB0BDE8F04F0AF0C4BE1E480AF07D
:101C8000C1FEF2E7A37B15488DF818308DF8198056
:101C90000AF0B8FE06A80AF0B5FE0B480AF0B2FE3C
:101CA0004FF00F0A47E715480AF0ACFE009BB9E772
:101CB00040A3010854A3010868A3010878A3010800
:101CC000DCC8010880A3010890A3010894A30108BF
:101CD000B8A30108C8A30108D8A30108E8A3010814
:101CE000F8A3010834A4010844A4010848A4010889
:101CF0005CA401082CA30108A4A3010850A40108B6
:101D0000B9F1080F3FF653AFB9F1000F45D009F113
:101D1000FF330AF10C0ADBB20AEBC302DFF88C9046
:101D2000DFF88CA00DF11F0700250DF1170104EB62
:101D30000B0010F8013B01F8013FA3F13103B3FAA6
:101D400083F38F424FEA531343EA4505F1D15046DE
:101D500000928DF820800AF055FE06A80AF052FE87
:101D600048460AF04FFE03A9E8B20AF0FDFE03A8B8
:101D70008DF80E800AF046FE0A480AF043FE009AEB
:101D80000BF1080B5A45CFD102F10F030FE71F23C8
:101D90005DE705480AF036FE67E75A460AF1130385
:101DA00005E700BFDCC8010808A4010878A3010802
:101DB00024A40108002845D030B583B004460AF0B9
:101DC000D7FF0130235C251813B9012003B030BDC3
:101DD000204677490AF0E8FF48BB204675490AF0DB
:101DE000E3FF20BB204674490AF0DEFF002857D1EC
:101DF000204672490AF0D8FF002863D00A212846FD
:101E00000DF107020AF0EEFF9DF80730002BDCD041
:101E10004FF6FE73421E9A42D7D8694B80B21A8899
:101E20006849824208800BD34008188008E02846A1
:101E300065490AF0B9FF38B16FF00102634B1A60CF
:101E40000020C3E701207047284661490AF0ACFF33
:101E500020B14FF0FF325D4B1A60F1E728465D4933
:101E60000AF0A2FF20B16FF00202584B1A60E7E7B8
:101E7000102128460DF107020AF0B4FF9DF8073043
:101E80000446002BA1D0B0F1005F9ED2B0F5006FE8
:101E900003D3514B1A78002A50D04C4B1C60CFE72B
:101EA0000A2128460DF107020AF09CFF9DF8073031
:101EB000002B8AD04FF6FE73421E9A4285D8474BBC
:101EC0001880BDE7204646490AF06EFF90B10A210E
:101ED00028460DF107020AF085FF9DF80730002B18
:101EE0003FF473AF374B1B8883427FF66EAF344BA2
:101EF0001880A5E720463B490AF056FF80B12846E6
:101F000039490AF051FF002837D0304B374A1B6857
:101F1000A3F50063934246D900222F4B1A708FE736
:101F2000204633490AF040FF70B128462E490AF096
:101F30003BFF68B300222F4B1A7081E701222E4825
:101F40001A700AF05FFDA8E720462C490AF02CFF22
:101F500000283FF43AAF0DF107020A2128460AF0A3
:101F600041FF9DF80720002A3FF42FAFB0F5803FD6
:101F7000BFF42BAF224A108062E7284621490AF0BD
:101F800013FF00283FF421AF0122134B1A7057E7CB
:101F900028461C490AF008FF00283FF416AF01222A
:101FA000144B1A704CE718480AF02CFD0DE700BFDF
:101FB0006CA4010878A40108B8A40108C4A401080D
:101FC000080003200A00032074A401080400032071
:101FD00080A4010884A40108012C03200C00032024
:101FE000D0A40108E0A40108ECA40108FFF7FF1F3A
:101FF00018A50108002C03208CA401081CA50108C9
:10200000000003206CB60108F0A4010810B53648A2
:1020100084B00AF0F7FC354B01A918880AF010FFCC
:1020200001A80AF0EFFC324C32480AF0EBFC3248CF
:102030000AF0E8FC01A920680AF028FD002301A8A5
:102040008DF80C300AF0DEFC2368991C40D05A1C35
:1020500042D0033344D029480AF0D4FC284B01A9CC
:1020600018780AF0EDFE01A80AF0CCFC25480AF029
:10207000C9FC254B01A918780AF0E2FE01A80AF074
:10208000C1FC22480AF0BEFC214B01A918880AF0C5
:10209000D7FE01A80AF0B6FC1E480AF0B3FC1E4B9E
:1020A00001A918880AF0CCFE01A80AF0ABFC1B4875
:1020B0000AF0A8FC1A4B01A918880AF0C1FE01A871
:1020C0000AF0A0FC17480AF09DFC002004B010BDE7
:1020D00015480AF097FCBEE714480AF093FCBAE7EB
:1020E00013480AF08FFCB6E724A50108000003207E
:1020F0000400032030A5010838A5010858A50108EF
:10210000012C032064A50108002C03206CA5010804
:102110000C00032090A501080A000320A0A50108D7
:102120000800032090A3010840A5010848A5010864
:1021300050A501082DE9F84FFFF7A4F800254FF04E
:10214000FF31214E214BDFF890B0DFF89080204F17
:10215000CBF80050C8F8005019607562716A3B886E
:1021600099422BD24FF08044DFF874A0DFF87490CE
:10217000BAF800106562636A8B42FCD34FF40071B9
:1021800014480CF075FE134B1969D8F8000041F3A0
:10219000002303F00203C1F340210B43411CC1F3B0
:1021A0000B01C8F80010DBF8001009F8003001310D
:1021B000CBF80010716A3B889942D9D301F098FAA4
:1021C0000020BDE8F88F00BF004801402001032037
:1021D0000000032000040242803F03207C3F0320D4
:1021E0000A000320843F03202DE9F04F804B91B07B
:1021F0001B88B3F57A7F40F2C480FFF743F872B6CC
:102200007C4B1868831C00F0EC80C71C00F0C78072
:10221000411C00F0BD803024774B784A1978127841
:1022200004AB0094FFF77AF88046002800F0B380F2
:102230004FF0804E724B734A1B88B2F800A0039394
:10224000714B0AEB8A051968694B70481C88704FFE
:102250006D000369DA05FCD5DEF8242092B203692B
:10226000DB05F6D5DEF824309B1AAB42F7D30369C1
:1022700013F4807307D07B6AA34200F2A98003693C
:1022800013F48073F7D11E46CEF82430B8F1000F56
:102290001AD04FF08041039ADFF88891DFF86CB1D3
:1022A0000DF1100C4B6A9342FCD3DBF81030524412
:1022B00013F4807F1CF8013B52D0312B52D10136F0
:1022C000B04509F8013BEDD14F4BC3F80080002623
:1022D0004F4D6E626B6AA34237D24C4F02E06B6A7D
:1022E000A34241D23B6913F48073F8D1484A4FF0BE
:1022F0008041D2F824C0424A1846B2F800904B629E
:102300004A46404BDFF804E1B3F800804B6A934241
:10231000FCD3DEF81030013013F48073C0B21CD04F
:102320000B284244F2D14FF08041A2EB09024B6AE4
:102330009342FCD3364A536AA3EB0C031E44536A00
:10234000A342CFD3334B03FB06F662B601F0D0F9BC
:10235000274B1B88B6FBF3F010E018464244D5E744
:10236000302BACD0314674E762B601F0C1F9294B8D
:102370001F4A06FB03F31088B3FBF0F011B0BDE871
:10238000F08F25480AF03EFB002011B0BDE8F08F29
:102390004FF000084CE721480AF034FB48E74FF0C3
:1023A0008044184B194A188800EB800040001369DC
:1023B000DE05FCD5616A89B21369DD05F7D5636A6C
:1023C0005B1A9842F8D800236362094B1C887EE7A9
:1023D0000D4B196062B612480AF014FB01F088F93F
:1023E000D2E74FF0804300225A62014B1C886EE70F
:1023F0000000032004000320012C0320002C0320F4
:10240000080003200A000320042C032000040242D9
:1024100000480140A0860100B4A5010804A30108FA
:10242000D0A50108082C0320344B70B51B6803337A
:10243000012B4AD9FEF726FF00234FF0FF32304E22
:10244000304C314D336023602A6072B62F4A53629C
:10245000FFF7DEF880BB33682D492B602368013B12
:10246000C3F30B03CA5C42F00402CA54FEF780FEB9
:10247000044600283AD162B6264E3368072B2ED97F
:10248000254D28460AF0BEFA24480AF0BBFA336804
:102490002846EC54FFF796F9D8B128460AF0B2FA6C
:1024A0001F480AF0AFFA2846FFF75EF9FFF786FAF1
:1024B00001F01EF9204670BD62B61A480AF0A2FA71
:1024C00001F016F90124204670BD17480AF09AFA67
:1024D000F8E716480AF096FA01F00AF9F3E714480B
:1024E0000AF090FA01F004F9204670BD62B6114876
:1024F0000AF088FA01F0FCF8E4E700BF04000320CA
:10250000803F03207C3F032020010320004801403E
:10251000843F0320042C0320082C032064A6010818
:102520007CA6010818A60108E4A501086CA601080C
:102530004CA6010834A601082DE9F04F93B0FEF730
:10254000A1FE00244FF0FF338F4E904D904A34602F
:102550002C60136072B64FF080428E498E488F4BCC
:10256000546204604C621868811C00F0C780C31C70
:1025700000F0F080471C40F0AF80204603944FF0FD
:10258000804E874B874CB3F800B0874B0BEB8B0723
:102590001A88864BDFF8FCA1B3F800907F0023690E
:1025A000D905FCD5DEF8241089B22369DB05F6D500
:1025B000DEF824305B1A9F42F7D8236913F4807346
:1025C00008D0DAF824304B4500F2B280236913F4C6
:1025D0008073F6D11946CEF82430039B002B00F00F
:1025E000938010464FF0804C714B0DF11808049306
:1025F00002930597DCF824308342FBD3694B58449F
:102600001B6913F4807F18F8013B72D0312B72D113
:10261000029F013107F8013B039B02978B42E9D1EE
:102620001C4640F69E705C4B59491C603368DFF8CD
:1026300098C10B602B68844203F1FF33C3F30B0393
:102640001CF803100BFB042241F004010CF80310EA
:1026500000F29880039BDFF87481581E049BDFF81A
:1026600044E118444FF08043596A9142FCD3DEF8AC
:102670001040D5F8009014F4807F0CBF302731272C
:1026800044F3002101F00201C4F34024214309F185
:102690000104C4F30B042C60346800F8017F01349A
:1026A00040450CF8091034605A44DDD140F69F7360
:1026B000394A039313601A460024049B9C5462B663
:1026C00001F016F83A480AF09DF93A480AF09AF9EA
:1026D000204613B0BDE8F08F30230093364B1A78B4
:1026E000364B197806ABFEF719FE039060B320460F
:1026F00045E7302B8CD00846059F50E72A4B5462A3
:102700001A88274BB3F800B033682149DFF8B8C006
:102710000B6000212B680391013BC3F30B031CF8F2
:10272000031041F004010CF80310214B049391E7CE
:10273000194B186062B622480AF064F900F0D8FF1D
:10274000012013B0BDE8F08F1E480AF05BF9124B70
:10275000186814E7124B1349B3F800B00BEB8B0465
:1027600064000B69D805FCD5506A80B20B69DB05A3
:10277000F7D5536A1B1A9C42F8D8002353620A4BC0
:102780001A88C1E7224697E7803F03207C3F032059
:102790002001032000480140042C032004000320F2
:1027A0000A00032000040242080003200000032066
:1027B000082C032090A30108002C0320012C0320E7
:1027C000D0A5010804A30108843F0320A63B0320F1
:1027D0002DE9F04F97B00690002800F04A810AF0EA
:1027E000C7FAB0F57A6F28BF4FF47A60A34E8246DD
:1027F000336803332ED1FEF745FD00244FF0FF333D
:10280000DFF8B4B2DFF8B4829D4ACBF80040C8F8D4
:102810000040136072B64FF080459A4B6C625C6268
:102820003068994B871C1C6000F04C81C61C00F07E
:10283000FC80411C12D030230093944B1A78944BA7
:1028400019780AABFEF76AFD0590002800F0E680D3
:10285000A44605E08F480AF0D5F8CCE7A4460594D5
:102860008D4B4FF080441A888C4B02EB82051B88FD
:102870008B4807938B4B834FB3F800901346049219
:102880006D000269D205FCD5616A89B20269D6057C
:10289000F7D5626A521AAA42F8D3026912F480721A
:1028A00007D07A6A4A4500F2DB80026912F480722E
:1028B000F7D111466262059A002A00F00D814FF0AF
:1028C000804C794A079E089203920DF1280E0995D3
:1028D000DCF82420B242FBD3714A049D12692E44D5
:1028E00012F4807F1EF8012B00F08880312A40F01E
:1028F0008880039D013105F8012B059A03958A42D2
:10290000E6D1049A002507981C46104440F69F7EA5
:102910004FF08042DBF80010594EDFF8A4C131605F
:10292000D8F80010584E0139C1F30B011CF80170A2
:10293000356047F004075C4E0CF80170516AA14203
:10294000FCD3AA4548D90699495D312944D030299C
:102950005AD003214FF001090F46516A8842FCD832
:102960004F4901350969C9053BD44FF0300106F8DC
:10297000011B45491C440D60D8F8001018440CF8A0
:1029800001900131C1F30B01C8F80010DBF8001011
:10299000754501F10101CBF80010CFD14FF47A60F9
:1029A00000224FF0804100FB03F3089880F89F2F2E
:1029B0004A6A9A42FCD34FF40072394B9A6162B66C
:1029C00000F096FE38480AF01DF838480AF01AF868
:1029D000002017B0BDE8F08F4FF40071304FB9619F
:1029E000B7E74FF0310106F8011B27491C440D6081
:1029F000D8F8001018440CF80170C2E7302A3FF4F0
:102A000078AF8C46099D3CE74FF000792449C1F826
:102A1000189002214FF000090F469EE7244809F064
:102A2000F1FF194BD3F800C01AE71B4B1C4C1A8856
:102A3000134602EB820676002169C905FCD5686A57
:102A400080B22169CF05F7D5696A091A8E42F8D894
:102A5000002169621149098807911349089151E7DA
:102A6000094BC3F800C062B6124809F0CBFF00F072
:102A70003FFE012017B0BDE8F08F00BF0400032027
:102A80002001032000480140042C0320002C0320D7
:102A9000012C03208CA601080A0003200800032053
:102AA0000004024200000320082C032090A3010828
:102AB00004A3010818A60108803F03207C3F0320DF
:102AC000843F0320064B07491A88074B6C621B881A
:102AD00008910793134615E7024A089211E700BFD1
:102AE0000A000320082C0320080003202DE9F04FE2
:102AF00095B0FEF7C7FB00224FF0FF33DFF8A4A12B
:102B0000DFF8A4815B49CAF80020C8F800200B60F8
:102B100072B6594B5A62594B1868811C00F0AA8151
:102B2000C31C00F0BE81441C01D191460CE0544B03
:102B30001A7830230093534B197808ABFEF7EEFB5D
:102B40008146002800F0A9814FF080464E4B4F4A45
:102B50001C884F4B04EB84071B88B2F800B0069327
:102B60004C4B4D481D68DFF810E17F000269D1052C
:102B7000FCD5716A89B20269D205F7D5726A521A18
:102B80009742F8D8026912F4807C08D0DEF824203D
:102B90005A4500F26481026912F4807CF6D1C6F8CD
:102BA00024C0B9F1000F00F0A0814FF080453B4AEE
:102BB00006990592039208AA049207976A6A8A42C4
:102BC000FCD3354A049F1269214412F4807F17F820
:102BD000012B049700F03881312A40F03881039F9F
:102BE0000CF1010C07F8012BE1450397E6D1069A99
:102BF000C3F8009009FB042100254FF0804240F605
:102C00009E7CDAF800001B4E254F3060D8F800009B
:102C1000DFF884E00138C0F30B003E5C039346F01C
:102C200004063E54059800EB0906506A8842FCD31E
:102C3000DEF81000013510F4807FC0F340273846DD
:102C400034D1E14502D84FF030033370D8F800009A
:102C5000134B00251F540130C0F30B00C8F80000CF
:102C6000DAF8000009F10109013021440136CAF8FF
:102C70000000DAE72001032000480140040003209F
:102C8000002C0320012C03200A0003200000032055
:102C900008000320042C032000040242082C032017
:102CA000843F0320803F03207C3F0320E14502D87E
:102CB0004FF031033370D8F800708F4B40F00200B2
:102CC000D855781CC0F30B00C8F80000DAF80000F3
:102CD000092D00F1010009F10109214406F1010665
:102CE000CAF80000A1D1039B069AC3F8009006938E
:102CF000824B881A5E6A4A465E45DDF8149000F2FF
:102D0000A08040F68E739A4200F29B8000264FF01E
:102D1000804309EB020702F1010C03915A6A8242D7
:102D2000FCD3052E7DD94FF4007275494FF0010E8A
:102D30008A610322039904925A6A8A42FCD3704A38
:102D400003911269D20560D40A46224403923022CC
:102D5000694D3A70D8F80020204405F802E00132AD
:102D6000C2F30B02C8F80020DAF800200132CAF8DA
:102D70000020624AD2F824E00CEB0602DE455AD865
:102D80000136102E07F10107C8D15C4B03995B6A2D
:102D90005B45B6D99146069B4FF08042C3F8009040
:102DA000536A8342FCD3554D6B6A5B4519D84FF08B
:102DB00080434FF0000C4FF000774FF4007604EBA7
:102DC00044014F4849002401C3F824C087615A6A6E
:102DD0008A42FCD386615A6AA242FCD36A6A5A4587
:102DE000F2D9B9F57A6F35D20023059A02F8093085
:102DF00062B600F07DFC434809F004FE424809F049
:102E000001FE002015B0BDE8F08F0A46224403926F
:102E10003122394D04993A70D8F800202044A95441
:102E20009DE74FF0007236494FF0000E8A61022292
:102E30000399049280E7314B03995E6A5E457FF601
:102E400060AF9146069BA7E7302A3FF4C8AE6546BF
:102E5000079F8BE60023059A82F89F3FC8E71D6015
:102E600062B62A4809F0CEFD00F042FC012015B000
:102E7000BDE8F08F4FF08045224E254C254B26486B
:102E800005966A62254902882488D3F80090B1F833
:102E900000B0069209FB0421AEE6214809F0B2FD1C
:102EA00052E64FF080421A4B15491C8804EB84000F
:102EB00040000B69DF05FCD5556AADB20B69DE0534
:102EC000F7D5536A5B1B8342F8D300235362124A3F
:102ED000104B1188114AD3F80090B2F800B0094A9B
:102EE0000691059209FB041186E6064A0699C3F885
:102EF0000090059280E600BF843F03200048014017
:102F000000040242082C032090A3010818A601081F
:102F10000A000320042C03200800032000000320E3
:102F200004A301082DE9F04FB74C95B02368069033
:102F30000333012B40F2A281FEF7A4F900254FF0E4
:102F4000FF33DFF8F8A2DFF8F8B2B04ACAF8005051
:102F5000CBF80050136072B64FF08042AC4B5D620C
:102F6000AC4B1D6055622068811C00F0A181C31C20
:102F700000F0A881441C40F090802B462C464FF076
:102F8000804EA54AA5481688A54A06EB86051288F4
:102F9000DFF87C820592A34A6D00B2F80090A24A45
:102FA00004920269D105FCD5DEF8241089B20269C9
:102FB000D205F6D5DEF82420521A9542F7D80269D8
:102FC00012F4807208D0D8F824204A4500F24781D4
:102FD000026912F48072F6D1CEF82420002C00F0A1
:102FE0008B814FF08047904B059903930DF1200C96
:102FF00007957B6A8B42FCD3884B31441B6913F4E1
:10300000807F1CF8013B57D0312B57D1039D0132F3
:1030100005F8013B94420395EBD17E4B1C60059B68
:1030200006FB0433069A002702F1060E40F69E7C4A
:103030004FF08042DAF8001074487C4D0160DBF8F4
:103040000010DFF8D8810139C1F30B01685C40F052
:103050000400685404990819516A9942FCD3D8F8BD
:10306000101011F4807F2CD16445C1F3402102D8A7
:103070004FF030070770DBF800700134E955013775
:10308000C7F30B07CBF80070DAF800100027013106
:1030900033440130CAF80010DEE730230093644B5C
:1030A0001A78644B197808ABFEF738F90446002803
:1030B00000F0F8802B4662E7302BA7D01346079D1F
:1030C0006FE7644507F10107C1F3402103D84FF0D2
:1030D000310980F80090DBF8009041F0020105F81A
:1030E000091009F10109C9F30B01CBF80010DAF856
:1030F0000010BE4501F10101CAF80010334400F18F
:10310000010004F1010101D90C46A5E74FF0804709
:10311000059A981A7A6A8242FCD34FF0007C4FF0ED
:1031200080473E4AC2F818C07A6A9A42FCD33B4AAA
:10313000126912F4807C18BF4FF0020CDBF80020FB
:1031400018BF312705F802C002F10102C2F30B02D9
:10315000CBF8002040F69E72DAF800C008BF302796
:103160000CF1010C9142CAF800C040F28E8002348A
:10317000284F94423C60304433447AD8049A4FF448
:10318000007E54184FF003094FF08042DFF8B4C0BE
:10319000224F516A8142FCD3C7F818E0516A994224
:1031A000FCD33969C9054FD44FF030014FF0010805
:1031B00004F8011FDBF800103044334405F80180A7
:1031C0000131C1F30B01CBF80010DAF800106445AF
:1031D00001F10101CAF80010DBD140F69F730D4ADE
:1031E000136040F69F7300220499CA5462B600F03F
:1031F0007FFA0D4809F006FC0F4809F003FC002097
:1032000015B0BDE8F08F00BF0400032020010320AB
:1032100000480140042C03200A000320000402425D
:103220000800032000000320082C0320843F032013
:10323000002C0320012C032090A30108803F0320D1
:103240007C3F0320A63B03204FF0310104F8011F0F
:10325000DBF800103044334405F80190B0E7284A09
:1032600028481446136009F0CDFB2368B3F57A6F44
:10327000B9D30023049A82F89F3FB7E7224809F0A8
:10328000C1FB012015B0BDE8F08F049A02345754F9
:103290001B4A3044146040F69F72944233447FF4DA
:1032A0006DAF9EE7194809F0ADFB154B1B6866E64C
:1032B0005562174B174A1B881688174A2C460593E8
:1032C0000492AFE6134B15491E8806EB8604640092
:1032D0000B69DF05FCD5506A80B20B69DD05F7D5B7
:1032E000536A1B1AA342F8D30024094B54621B886B
:1032F000094ACDE9042395E6014B1C60059B91E644
:10330000042C0320D0A60108BCA6010804A30108D0
:10331000080003200A000320082C032000040242B6
:10332000984B2DE9F04F1B6893B00333012B40F20B
:103330001D818246FDF7A6FF72B60023924D934A87
:103340006B626B6AB2F800B05B4580F0D980904C3C
:103350000AF1060A00274FF080418A4B4F621E682F
:103360008C4BB21C1F6000F0D480F31C00F0E28094
:10337000711C00F0CC8030230093874B30461A78C4
:10338000864B197806ABFDF7C9FF8046002800F090
:10339000C8804FF0804C824B1888824B00EB800E27
:1033A0001B884FEA4E0E04932369DA05FCD5DCF83E
:1033B000242092B22369DB05F6D5DCF824309B1A71
:1033C0007345F7D3236913F4807307D06B6A5B45A9
:1033D00000F2C980236913F48073F7D11A46049967
:1033E000CCF82430B8F1000F1DD04FF080476E4B61
:1033F0000DF11809039305967B6A8B42FCD3236970
:10340000014413F4807F19F8013B21D0312B21D1E5
:10341000039E013206F8013B90450396ECD1DDE9AD
:10342000043602FB00314FF0000C4FF080470132B0
:103430007B6A8B42FCD323690CF1010C13F480737B
:1034400002F1010E09D0E24501440AD97246EFE7C4
:10345000302BDDD01746059EA6E79C46014401327D
:10346000E6E74C4B1A604FF08042049BC91A536A3E
:103470008B42FCD34FF000734FF080420144A361B4
:10348000536A8B42FCD34FF40077A7616B6A5B45AC
:1034900036D202367FF45EAF4FF080414FF0000C21
:1034A0004FF000793E4B3A4D1E883E4BDFF8D880F6
:1034B000B3F800E0002472462046C1F824C0C1F8E9
:1034C00024C04B6A9A42FCD82B69013013F48073F4
:1034D00053D0824504F101043244F2D8A2EB0E022B
:1034E0004B6A9A42FCD8C5F8189032444B6A9A420B
:1034F000FCD8AF61D8F824309B45DBD8254B1C6045
:1035000062B600F0F5F8002013B0BDE8F08FB846C1
:103510003FE7244B4F621988214B3A4618880491A3
:1035200081E7224809F06EFA1A4B1F68174BB3F86F
:1035300000B02EE71A4B164A188800EB800C4FEAB1
:103540004C0C1369DF05FCD54F6ABFB21369DB056C
:10355000F7D54B6ADB1B6345F8D30022114B4A6257
:10356000198804915FE70B4B1F60C9E7104809F009
:1035700049FA012013B0BDE8F08F184601343244F7
:103580009FE700BF04000320004801400000032023
:1035900000040242042C0320002C0320012C0320F1
:1035A0000A00032008000320082C032004A30108BC
:1035B000BCA601082DE9F04F3C4B8346984283B0EE
:1035C00007D83B4B984269D94FF028094FF4487E01
:1035D0000BE04FF0250940F2EE2E364BB3FBFBFC1F
:1035E0005FFA8CFCBCF1190F5DD90120314B013021
:1035F00080B2B3FBF0FCBCFBFBFC5FFA8CFCBCF1C3
:10360000190FF4D8B0F5806F42D201236FF0004457
:103610004FF47A765A460093274B1F68431C1FFAD3
:1036200083FAACF10208B8EB5C0F4FEA5C0120DDD5
:103630000CF1FF3B5FFA8BFBCDF804A006FB01F514
:10364000B5FBFCF5BEEB050A48BFA5EB0E0AA2458B
:103650000ADAD14508DB002554460095ABEB01059D
:10366000EDB2F96178613D6201314145E6DBDDF89B
:1036700004A0104998B2B1FBFAFCBCFBF2FCB0F517
:10368000806F0AF1010A5FFA8CFC03D0431CC8E783
:1036900001230093009803B0BDE8F08F4FF02B0991
:1036A00040F26B3E99E70120AFE700BF00350C0008
:1036B00020A10700005A6202A03C032038B50C4646
:1036C000064D0749074B0A602860074901201C6026
:1036D00012F020F9054B186038BD00BFA03C032054
:1036E000983C03209C3C0320B03B0320003C03207B
:1036F00030B53F4C83B020680AF05EFC20680AF0C9
:10370000A3FA002851D100223A4D40213A482A71AB
:10371000EA602A616A61AA61AA60EA6185F82020EC
:103720000BF0A0FB206805F124010AF077FB0028CC
:103730005BD1324920680AF071FB002852D1002386
:1037400002222068114600930AF094FB002846D11B
:1037500020680AF0D5FB00283ED100220121206814
:103760000AF08CFDA8BB0022062120680AF086FD25
:1037700060BB07224FF4F05120680AF07FFD10BBB8
:103780000722802120680AF079FDC8B900221C496F
:1037900020680AF073FD80B900224FF46021206890
:1037A0000AF06CFD20B903B030BDFDF7DBFCAAE7E1
:1037B00003B0BDE83040FDF7D5BCFDF7D3FCEBE727
:1037C000FDF7D0FCE2E7FDF7CDFCD9E7FDF7CAFC39
:1037D000CFE7FDF7C7FCC6E7FDF7C4FCBDE7FDF783
:1037E000C1FCB5E7FDF7BEFCA9E7FDF7BBFCA0E710
:1037F000A03C032010000320000402424C000320E0
:1038000000407100014B18680AF0D6BBA03C0320B1
:10381000082824D8DFE800F0080C1014171A1D201F
:1038200005001448FFF7C6BE42F21070FFF7C2BE93
:1038300044F62060FFF7BEBE4CF25030FFF7BABE30
:103840000D48FFF7B7BE0D48FFF7B4BE0C48FFF7B1
:10385000B1BE0C48FFF7AEBE0B48FFF7ABBE0B4A3C
:10386000A0F51C53103B934201D901207047FFF78C
:10387000A1BE00BF40420F00A086010048E8010041
:1038800090D0030020A1070000350C00301B0F0072
:103890000346054A1978002051615978D161997819
:1038A0001162DB7893617047102B03200246024BB4
:1038B00000209A61704700BF102B0320034600B51B
:1038C000074A93F801E093F800C082F810E0054938
:1038D0009B7881F800C0537400205DF804FB00BFA2
:1038E000102B0320300703202DE9F0470546C06860
:1038F0000F4609F025FAAB68B3F1005F3CD00646ED
:10390000824600F12409254C4FF0FF31206812F067
:103910000BF90128F8D1DFF89080D8F8000012F0F8
:10392000F3FA484515D202251D4A13792B4313712A
:10393000002320681A46194611F050FF0023194948
:10394000022209680868194613F082FC2846BDE87F
:10395000F08729464FF0FF332422D8F8000012F0F8
:10396000F1FA054686B94D450CD00D4A012513796B
:1039700043F008031371DBE74FF0000A4FF024090E
:103980005646C0E70025D3E7524639464FF0FF338D
:10399000D8F8000012F0D6FA0544E4E7003C032012
:1039A000100003209C3C0320A83B032030B40122DC
:1039B000002410200A4B04211B684FF440751C8220
:1039C000C3E90520DC6018623F240F209A74C3E924
:1039D0000125DC61C3E9092130BC1963D862704755
:1039E000A03C032000232DE9F0430C4683B0C90717
:1039F0000546019316D4A20707D502212D4A137953
:103A000043F0010313712B681965630735D4019BDB
:103A10002BB14FF0E0234FF08052C3F8042D03B0D8
:103A2000BDE8F083DFF89880224F42464021224BC8
:103A30000AF03AFB7B69D8F80C0001337B6109F08E
:103A40007FF9DFF880900646D9F8000012F05CFAA2
:103A500006F12803984223D341462822D9F80000D2
:103A600001AB12F0F3FA002EC5D03246D9F80000AF
:103A7000114901AB12F0EAFABDE704240D4B0F49DE
:103A80009A69096801329A611A7942F008021A713A
:103A90002B6808680DEB04011C6513F0C3FCB6E746
:103AA000064ABB6912680133106801A9BB6113F0B3
:103AB000B9FCA0E710000320583C0320983C0320E9
:103AC000303C0320AC3B032010B500240A4A0B49CC
:103AD0001369096882B00868013301A91361019470
:103AE00013F0A0FC019B2BB14FF0E0234FF080526C
:103AF000C3F8042D02B010BD100003209C3C03202D
:103B000010B500240A4A0B49D369096882B00868D5
:103B1000013301A9D361019413F084FC019B2BB103
:103B20004FF0E0234FF08052C3F8042D02B010BDD7
:103B300010000320983C032038B50C46104D294650
:103B40000AF052FBA10303D5EB68A3B90D4A136039
:103B5000620309D52B690B4A012B13790CBF43F083
:103B6000040303F0FB031371230303D50122054B68
:103B700083F8202038BD4FF00042024B1A60E7E77F
:103B8000043C032010000320F0B500250B7885B01D
:103B9000074602950395CBB10C460DF1FF3608E0C0
:103BA0002046D5B209F06EF814F8023F06F8010F6E
:103BB00023B163786A1C0BB3072DF1D18DF808503F
:103BC0002A4669460DF1090014F0C3FF00230E4C8C
:103BD0000820C4E90533C4E90133276009F0B6F8C9
:103BE000082203460DEB02010848E36009F0B4F82F
:103BF00020460649FFF778FE05B0F0BD8DF8085065
:103C0000002DDDD1E2E700BFB03C0320A43C03203F
:103C100042F202032DE9F0430024994289B0445452
:103C200000F2C980002900F07A8100F1FF3E0139DD
:103C3000F4467346014405E00A2A1CBF02550134CC
:103C40008B4209D013F8012F082AF5D1002CF7D0A8
:103C50008B4204F1FF34F5D100218C42015540F331
:103C600063810A460EEB04031CF8014F202C00F080
:103C7000978092B99C4501F101010CF101040ED02D
:103C80009CF801E0BEF1200F00F08C809C4206D031
:103C90001CF8022F203A18BF01229C45E4D10C46A3
:103CA000A44914F011FE0546002800F0AA80A2499C
:103CB000FCF7C6FA30B12846A049FCF7C1FA002843
:103CC00040F08380012C40F2D5809A49002014F006
:103CD000FBFD9B490446FCF7B3FA002800F09580F1
:103CE00020469849FCF7ACFA002800F09D81204658
:103CF0009549FCF7A5FA002840F01881934808F090
:103D000081FE934808F07EFE904808F07BFE9148C3
:103D100008F078FE904808F075FE8E4808F072FEB4
:103D20008E4808F06FFE8E4808F06CFE894808F057
:103D300069FE8C4808F066FE8B4808F063FE8548F3
:103D400008F060FE894808F05DFE894808F05AFED8
:103D5000804808F057FE874808F054FE864808F06F
:103D600051FE864808F04EFE854808F04BFE854817
:103D700008F048FE844808F045FE844808F042FEFA
:103D8000834808F03FFE834808F03CFE714808F085
:103D900039FE6E4808F036FE7F4808F033FE0DE02D
:103DA00000227AE79C423FF47AAF1CF8024F202CA5
:103DB0007FF460AF71E7794808F024FE784808F096
:103DC00021FE002009B0BDE8F08328467549FCF7C4
:103DD00037FA00283FF476AF28467349FCF730FAEB
:103DE00000283FF46FAF28465749FCF729FA00280E
:103DF00040F06181022C00F07A816C4808F002FEEC
:103E0000DCE76B4808F0FEFDD8E7504808F0FAFD03
:103E10004F4808F0F7FD4D4808F0F4FD4D4808F014
:103E2000F1FD644808F0EEFD4A4808F0EBFD4B4810
:103E300008F0E8FD604808F0E5FD464808F0E2FDBE
:103E4000484808F0DFFD5D4808F0DCFD414808F017
:103E5000D9FD464808F0D6FD594808F0D3FD3D4845
:103E600008F0D0FD434808F0CDFD564808F0CAFDE3
:103E7000554889E7354808F0C5FD354808F0C2FDCA
:103E8000324808F0BFFD334808F0BCFD4F4808F049
:103E9000B9FD304808F0B6FD4D4808F0B3FD4D4877
:103EA00008F0B0FD4C4808F0ADFD4C4808F0AAFD04
:103EB0004B4808F0A7FD4B4808F0A4FD4A4808F01D
:103EC000A1FD4A4808F09EFD494808F09BFD49487D
:103ED00008F098FD484808F095FD484808F092FD24
:103EE000474808F08FFD474808F08CFD464808F029
:103EF00089FD464808F086FD454808F083FD4548A1
:103F000008F080FD444808F07DFD124808F07AFD75
:103F1000424808F077FD0D4808F074FD4EE7017047
:103F20003F4808F06FFD49E7FAD0B8E63D4808F091
:103F300069FD31E7FCA601082CA7010834A7010898
:103F400048A70108E8A8010870AA010850A70108BD
:103F500090A7010890A3010878AA0108CCA701083E
:103F60008CAA010810A80108C8AA010834A80108F1
:103F7000DCAA010888A8010828AB010848AB0108A1
:103F80005CAB01087CAB010890AB0108B0AB010849
:103F9000C4AB0108F0AB01082CAC0108E4A6010891
:103FA000B4C701083CA7010844A7010898B201085A
:103FB00000A70108BCA70108DCA7010818A8010890
:103FC00040A8010894A80108D8A8010880AC0108FD
:103FD00024AD010830AD01085CAD0108ACAD0108AD
:103FE000FCAD01084CAE0108B8AE0108E0AE010816
:103FF0000CAF01086CAF0108D4AF010820B0010874
:1040000064B0010890B00108E8B0010840B10108AF
:104010008CB10108C0B101080CB2010878B20108E6
:10402000F8A6010804AC0108874808F0EBFC8748B3
:1040300008F0E8FC844808F0E5FC854808F0E2FC5C
:10404000844808F0DFFC824808F0DCFC824808F075
:10405000D9FC824808F0D6FC7D4808F0D3FC8048A3
:1040600008F0D0FC7F4808F0CDFC794808F0CAFC85
:104070007D4808F0C7FC7D4808F0C4FC744808F08F
:10408000C1FC7B4808F0BEFC7A4808F0BBFC7A48CB
:1040900008F0B8FC794808F0B5FC794808F0B2FCA3
:1040A000784808F0AFFC784808F0ACFC774808F096
:1040B000A9FC774868E628467649FCF7C1F828B994
:1040C000022C6CD0744808F09DFC77E628467349B2
:1040D000FCF7B6F8002851D1012C00F07581A31E21
:1040E000012B40F2FB806E4808F08CFC66E66D49BF
:1040F00014F0EAFB03780446002B3FF45FAE051D85
:10410000413B232B13D8DFE803F0352D251D121278
:10411000121212121212121212121212121212127F
:1041200012121212121212121212352D251D5E4891
:1041300008F068FC14F8013F002B3FF43FAEA542A5
:10414000DED13BE6594808F05DFC0021442003F035
:1041500097FDEFE7564808F055FC0021432003F097
:104160008FFDE7E7534808F04DFC0021422003F0A3
:1041700087FDDFE7504808F045FCDBE728464F495C
:10418000FCF75EF8002851D1012C00F02581A31E18
:10419000012B40F2D8804A4808F034FC0EE6414931
:1041A00014F092FB03780446002B3FF407AE051D84
:1041B000413B232B13D8DFE803F0352D251D1212C8
:1041C00012121212121212121212121212121212CF
:1041D00012121212121212121212352D251D32480D
:1041E00008F010FC14F8013F002B3FF4E7ADAC429F
:1041F000DED1E3E5334808F005FC0121442003F05B
:104200003FFDEFE7304808F0FDFB0121432003F0BC
:1042100037FDE7E72D4808F0F5FB0121422003F0C8
:104220002FFDDFE72A4808F0EDFBDBE728462949A8
:10423000FCF706F8002840F0DC80032C00F0FA8040
:10424000254808F0DFFBB9E550A7010890A7010851
:1042500090A30108F0A80108CCA7010804A901084F
:1042600010A8010840A9010834A8010854A90108B0
:1042700088A80108A0A90108C0A90108D0A90108BF
:10428000F0A9010800AA010820AA010830AA010823
:104290005CAA0108E8A80108C8B30108A0B4010895
:1042A000C4B40108FCA60108A0B301087CB301084E
:1042B00058B3010834B30108E8B2010870B5010829
:1042C00094B501087CB4010858B4010834B401085D
:1042D00018B4010830B6010834B60108B14900200D
:1042E00014F0F2FA08F0F4FCB0F5006F68D2AE4DAD
:1042F000022C28604FF0000000F09480A94914F0CF
:10430000E3FA064608F034FDC10755D4102853D807
:1043100088B1431EC3F34E04B71CDFF8208307EBBC
:104320004407304608F0AEFC0236BE4208F8010FE2
:10433000F7D1631CD8B208F009FD03469B48EB6037
:1043400008F060FB3AE59749002014F0BDFA08F048
:10435000BFFCB0F5006F80F0A081954F022C386053
:1043600000F0918111F0C2F8282111F0C1F88D49B7
:10437000002014F0A9FA064608F0FAFCC207044629
:104380001AD4102818D83546DFF8B48205E028463C
:1043900008F078FC023508F8010BAB1B9BB29C427D
:1043A000F5D8601CC0F3470008F0D0FC03468148F4
:1043B000FB6008F027FB01E57F4808F023FBFDE4E4
:1043C0007E4808F01FFBF9E44FF0FF32764B7C4843
:1043D0001A6008F017FBF1E44FF0FF32744B794894
:1043E0001A6008F00FFB11F081F8182111F080F825
:1043F000E4E428467449FBF723FF28B9032C67D06F
:10440000724808F0FFFAD9E428467149FBF718FF13
:10441000002840F06981022C00F044816D4808F0CA
:10442000F1FACBE408F092FC03466B48EB6008F02D
:10443000E9FAC3E45B49002014F046FA59490546FD
:10444000002014F041FA00210A2214F003F9634914
:1044500004462846FBF7F4FE002800F00E812846AB
:104460005F49FBF7EDFE002800F0018128465D4919
:10447000FBF7E6FE002800F0F48028465A49FBF7D7
:10448000DFFE002800F0E78028465849FBF7D8FEF9
:10449000002800F0D78028465549FBF7D1FE0028B8
:1044A00077D028465349FBF7CBFE002868D0284632
:1044B0005149FBF7C5FE00285ED1002C41D14F4881
:1044C00008F0A0FA02224E4BDA60FFF711F975E40A
:1044D000344914F0F9F94B490446FBF7B1FE0028C2
:1044E00047D020464849FBF7ABFE00283ED0204687
:1044F0004649FBF7A5FE002835D020464449FBF786
:104500009FFE68B320464349FBF79AFE20BB424812
:1045100008F078FA00242349002014F0D5F9054664
:1045200008F026FC421E92B20D2A034610D8DB0783
:104530000ED420462946FFF727FB384808F062FAD8
:104540003CE4374808F05EFA00222D4BDA60BCE705
:10455000344808F057FA31E4334808F053FAD9E701
:1045600040F2E374D7E740F2E274D4E740F2E1743A
:10457000D1E740F2DF74CEE72C4808F043FAA4E715
:10458000003C18BF01242A4B2A481C7008F03AFA54
:104590009BE7003C18BF0124194B27485C7408F0C6
:1045A00031FA92E7FCA60108083D032048B501084E
:1045B000DC3C032008B6010830B50108ECB4010862
:1045C000A8B4010878B5010894B7010898B70108A4
:1045D00080B8010888B8010810B50108B8A401081E
:1045E00068B6010884B60108A0B60108B8B601088B
:1045F000ECB6010818B7010844B7010848B701082C
:10460000102B0320D4B70108D8B70108DCB7010884
:10461000E0B70108E4B70108E8B701086CB8010881
:1046200064B7010840B801081CB801087CB701084C
:104630003007032024B70108FCB60108FF3C032023
:10464000D43C0320003C18BF0124964B96481C74B0
:1046500008F0D8F939E7934B94489C6108F0D2F9F7
:1046600033E7904B92481C6208F0CCF92DE78D4B54
:104670009048DC6108F0C6F927E78A4B8E485C61F8
:1046800008F0C0F921E7002008F060FB03468B48E2
:10469000FB6008F0B7F9FFF791BB894808F0B2F961
:1046A000FFF78CBB874914F00FF9451E041D15F860
:1046B000012FA2F12A03002A3FF480ABA5423FF468
:1046C0007DAB1A2B00F2C480DFE803F0B9C2C2C28E
:1046D000C2C2C2C2C2C2C2C2C2C2C2C2C2C2C2C2BA
:1046E000C2C2C2B5AC241B0028467749FBF7A8FD1F
:1046F00000283AD1022C16D0744808F083F9FFF74D
:104700005DBB734808F07EF940F2E3707149FFF732
:104710003BFACCE7704808F075F940F2E2706D4959
:10472000FFF732FAC3E7674914F0CEF8451E041DBF
:1047300015F8012FA2F12A03002A3FF43FABA5424E
:104740003FF43CAB1A2B00F29080DFE803F0858E3B
:104750008E8E8E8E8E8E8E8E8E8E8E8E8E8E8E8E79
:104760008E8E8E8E8E675E251C0028465B49FBF779
:1047700067FD064600283AD1012C16D0584808F0AB
:1047800041F9FFF71BBB574808F03CF940F2E370D2
:104790005549FFF7F9F9CBE7544808F033F940F2EF
:1047A000E2705149FFF7F0F9C2E7464914F08CF87E
:1047B0004F4808F027F9304603F09CFA322010F0F9
:1047C000A9FE2146422003F05BFA06F053FC10F0EC
:1047D000A1FE2146432003F053FA06F04BFC10F0F3
:1047E00099FE2146442003F04BFAFFF7E7BA28462A
:1047F0004049FBF725FD002840F08C80022C38D082
:104800003D4808F0FFF8FFF7D9BA3C4808F0FAF83D
:1048100040F2E1703449FFF7B7F989E7384808F00A
:10482000F1F885E7374808F0EDF840F2E1702949E2
:10483000FFF7AAF93BE7324808F0E4F837E73248D7
:1048400008F0E0F840F2DF702249FFF79DF92EE70B
:104850002E4808F0D7F82AE72D4808F0D3F840F2A0
:10486000DF702149FFF790F962E7284808F0CAF89D
:104870005EE7144914F028F8451E041D15F8012FB1
:10488000A2F14103002A3FF499AAA5423FF496AA57
:10489000032B00F26C83DFE813F01C0213020A0200
:1048A0005F0000BF102B0320C4B60108A4B60108A6
:1048B0008CB6010870B6010850B60108E8B50108C9
:1048C000BCB50108FCA6010838B9010840B90108C7
:1048D00024B90108C8B8010810B90108ECB90108E9
:1048E000F8B90108CCB9010880B90108ACB90108D0
:1048F00020BA01087CBA010888BA01088CB90108FD
:10490000D4B80108FCB80108A4B801081CB8010813
:1049100058B901082846A449FBF792FC002800F08A
:104920008B812846A149FBF78BFC002800F084818D
:1049300028469F49FBF784FC002800F03181284677
:104940009C49FBF77DFC00284AD1022C0DD09A48E7
:1049500008F058F8FFF732BA984808F053F840F2D8
:10496000E3709749FFF710F988E79649002013F0A4
:10497000ABFF95490446FBF763FC002800F0088173
:1049800020469249FBF75CFC002800F0F9802046A5
:104990008F49FBF755FC002800F0728220468D49B4
:1049A000FBF74EFC002800F0638220468A49FBF7A3
:1049B00047FC002800F0548220468849FBF740FC61
:1049C000002800F0458220468549FBF739FC80BB72
:1049D000072005F0EBFA834808F014F8FFF7EEB96A
:1049E00028468149FBF72CFC002800F08A802846E5
:1049F0007E49FBF725FC002800F0838028467C498F
:104A0000FBF71EFC00287CD028467A49FBF718FCEF
:104A1000002876D028467849FBF712FC00285ED1A2
:104A2000012C21D0022C09D9744807F0EBFFFFF7C5
:104A3000C5B9734807F0E6FFFFF7C0B9614913F045
:104A400043FF451EC41C15F8012FA2F14103002AA3
:104A50003FF4B4A9A5423FF4B1A9032B00F283822D
:104A6000DFE803F0392A1B0C664807F0CBFFC820AB
:104A700010F050FD08F072FEFFF7A0B9624807F091
:104A8000C1FF0021442003F0FBF8322010F042FD6A
:104A90000121442003F0F4F8D5E75C4807F0B2FFA9
:104AA0000021432003F0ECF8322010F033FD012107
:104AB000432003F0E5F8C6E7554807F0A3FF0021BF
:104AC000422003F0DDF8322010F024FD01214220C5
:104AD00003F0D6F8B7E74F4807F094FFB3E728464E
:104AE0004D49FBF7ADFB002840D028464B49FBF76A
:104AF000A7FB38BB022C07D0494807F083FFFFF71C
:104B00005DB90120FFF75EB92E4913F0DDFE2E4995
:104B10000546FBF795FB002800F0C28128462B498B
:104B2000FBF78EFB002800F0B38128462849FBF7ED
:104B300087FB00BB032004F05BFF3A4807F062FFED
:104B4000FFF73CB928463849FBF77AFB002840F0CC
:104B5000B48101F0EDF8002800F0AA81334807F095
:104B600051FF012001F0F4F8FFF728B9304807F0B1
:104B700049FFFFF723B92F4807F044FFFFF71EB99D
:104B8000022005F013FA174807F03CFFFFF716B9AB
:104B9000012005F00BFA134807F034FFFFF70EB9B8
:104BA00006F0C4F9FFF70AB93CBB010840BB010895
:104BB000ECC3010848A70108F4C30108F8BA0108CA
:104BC000C8BA0108FCA601086CB6010850C4010867
:104BD00054C4010858C401085CC4010860C4010839
:104BE00064C4010844C4010898C401089CC40108B5
:104BF000A4C40108ACC40108B4C401080CC5010870
:104C000068C40108BCC4010804C60108F0C5010855
:104C1000DCC5010890C5010818C601089CC601083A
:104C2000A4C60108ECC6010830C7010838C701084E
:104C300020C6010800C70108012C40F25C81002059
:104C4000CD4913F041FE054600283FF4B7A8CB49F3
:104C5000FBF7F6FA002800F049812846C849FBF71F
:104C6000EFFA002800F03E812846C649FBF7E8FA33
:104C7000002800F02D812846C349FBF7E1FA0646DB
:104C8000002800F090802846C049FBF7D9FA002898
:104C900000F082802846BE49FBF7D2FA064678BB70
:104CA000032C1AD0BB4807F0ADFEFFF787B8BA480F
:104CB00007F0A8FE40F2E270B849FEF765FFDDE5B7
:104CC000B74807F09FFE40F2E170B449FEF75CFF81
:104CD000D4E5B44807F096FED0E5A74913F0F4FDFB
:104CE0000A216A468DF8006008F07CF89DF80030D3
:104CF0000446012B10D0AC4807F084FEFFF75EB8E5
:104D00002846AA49FBF79CFA48BB032C0FD0A848B9
:104D100007F078FEFFF752B8A64807F073FEE0B23E
:104D2000FEF7FEFAA44807F06DFEFFF747B8924978
:104D3000002013F0C9FD00230A216A468DF80030D7
:104D400008F050F89DF800300446012BD3D1994863
:104D500007F058FEE0B2FEF7E5F8FFF72FB8284657
:104D60009649FBF76DFA002800F0EF802846944939
:104D7000FBF766FA002800F0E18028469149FBF72E
:104D80005FFA002840F0C780042C00F0B9808E48FC
:104D900007F038FEFFF712B88C4807F033FEFDF736
:104DA000CBFBFFF70BB88A4807F02CFEFDF71CFA87
:104DB0004FF47A730446B0FBF3F0694603FB1044EA
:104DC00008F03EF80A2103462027B4FBF1F24FF029
:104DD0002E09642503EB0708E84408F8209CB2FB81
:104DE000F1F8B4FBF5F54FF0250E4FF00D0C01FB7B
:104DF000124401FB18220DEB0708591C58FA81F1E7
:104E0000303501F8205C991C303258FA81F101F8F4
:104E1000202CDA1C58FA82F2303402F8204C1A1D89
:104E200058FA82F202F8207C5A1D58FA82F202F8EF
:104E300020EC9A1D073358FA82F258FA83F302F8ED
:104E400020CC684603F8206C07F0DCFDFEF7B6BF07
:104E5000062005F0ABF85F4807F0D4FDFEF7AEBFC3
:104E6000052005F0A3F85B4807F0CCFDFEF7A6BFD0
:104E7000042005F09BF8574807F0C4FDFEF79EBFDD
:104E8000032005F093F8534807F0BCFDFEF796BFEA
:104E9000204604F0ADFD504807F0B4FDFEF78EBF8C
:104EA000012004F0A5FD4D4807F0ACFDFEF786BFDC
:104EB0004B4807F0A7FDFEF781BF4A4807F0A2FD67
:104EC000284607F09FFD484807F09CFDFEF776BF97
:104ED000464807F097FDFDF72DF9454807F092FD8C
:104EE000FEF76CBFFDF7A0FAFEF768BF414807F078
:104EF00089FDFEF763BF404807F084FDFEF75EBF03
:104F00001D4913F0E1FCFCF755FF68B92A4807F08A
:104F100079FDFEF753BF28463849FBF791F940B9B0
:104F2000FDF774F8FEF74ABF354807F06BFDFEF752
:104F300045BF344807F066FDFEF740BF324807F032
:104F400061FDFDF7D3FDFEF739BF304807F05AFD8C
:104F5000032C7FF41CAF0849002013F0B5FCFDF7CB
:104F600037FCFEF72BBF2A4807F04CFD6BE52848BD
:104F700007F048FD82E400BFFCA601082CA7010849
:104F80004CC2010854C201086CC201088CC201085D
:104F9000ACC20108B4C20108D4BA0108C8BA0108F9
:104FA000A4BA0108D4B80108ECC2010800C3010882
:104FB0000CC30108D8C20108E4C2010834C30108C7
:104FC00068C301088CC3010848C3010894C20108E2
:104FD00074C2010844C40108D8C60108C4C6010847
:104FE00048C701085CC7010870C7010858C201081A
:104FF00064C2010884BB010848BB0108ACC30108B6
:1050000090C30108B4C3010870C301083CC3010880
:105010001CBB01082DE9F04FA1B005460E4605F076
:1050200079FF012800F086812B78A3F13002012A54
:1050300019D90022904FCDE90B227979012900F08E
:10504000FD80DFF83882D8F800200024752BCDE9E8
:105050000D440A9240F08A80132E00F072810020E5
:1050600021B0BDE8F08F4FF400116A780C91302A1E
:1050700000F0F0804FF480107F4F0B907979012978
:105080006AD000237D49722A0968CDE90D330A915F
:1050900005F1010900F0FA8000F2F680522A02D0F0
:1050A000542A40F0E38001242246B71A092F40F227
:1050B000DD804FF080434FF0000A601C28440793C6
:1050C000CDF820A007F014FE069004F10900284452
:1050D00007F0D2FD99F800308046522B099003D199
:1050E0004FF00053D0460893404607F029FE0530A4
:1050F000B7EB400F40F0BA800A34013EB44238BFEB
:1051000000270DD2281907F0BDFD0234E4B220AB10
:1051100053FA87F3B44203F8400C07F10107F1D3C7
:1051200007F038FC10AC0121554806AE07F048FCEA
:1051300021463046FEF7D8FB022840F0EF8007F00A
:1051400035FC02E00A2010F0E5F921463046FEF772
:10515000CBFB0228F6D0E3E0721EA95C692900F0BF
:10516000248400220124CDE90D220A92295D2246E1
:10517000722905EB040900F08B8068D8522994D07D
:10518000542992D0233B562B70D8DFE813F02A0124
:105190006F00EB0007026F006F006F006F006F0081
:1051A0006F006F006F006F006F006F006F006F0087
:1051B0006F006F006F006F006F006F006F006F0077
:1051C0006F006F006F00DE009C026F006F009502A1
:1051D00074026702DF02CE02DE00CA02C202FC02D3
:1051E000F0021403A902B6036F006F006F0094036E
:1051F0006F006F00E1037003C6038903BC036F00F7
:105200006F006F00E3006F006F001602E6007C0382
:1052100062036F0052036F00DE0047033F03270362
:10522000FC01E901D3016F00810159016F004301C5
:105230006F006F003901320135022402721EA95C31
:1052400069290ABF164600224FF00042FDE6742984
:1052500098D11DE00022084F0B92797901293FF483
:105260007BAF064B0D921B680E920A9301210548F5
:1052700007F05AFBF3E600BF6C0103201000032087
:1052800090A3010868A20108742AEFD101242246E4
:10529000B71A042FEAD94FF0000A601C2844CDE960
:1052A00007AA07F015FD0690201D284407F0E4FC2E
:1052B00099F800308046722B099003D14FF00053CB
:1052C000D0460893404607F03BFD052300B203EBB0
:1052D00040039F42CAD10534013EA64288BF002741
:1052E0000DD9281907F0CEFC0234E4B220AB53FAF2
:1052F00087F3B44203F8400C07F10107F1D307F03C
:1053000049FB10AC0121C54806AE07F059FB214608
:105310003046FEF7E9FA022800F0518307F046FB19
:105320004046069D07F00CFD22460146284601F046
:10533000DFFC94E60421BA4807F0F6FA05F0F6FD22
:105340008DE6284601F04EFE89E61621B54807F0A5
:10535000EBFA84E6B44807F055FB0121AF4807F0AB
:10536000E3FA7CE6032E81D96F1C384607F0B0FCC7
:10537000043E4FEA5609C6F34F06B04204467FF496
:1053800075AF05F1040841461FFA89F210AEA7482F
:1053900007F058FC11F02EFA2246A54BA3490096BF
:1053A00006F0A0FA3946BDF8400007F0A5FBBDF8AD
:1053B000402040469E4907F047FB0D22BDF8403093
:1053C0002846023305F813205B00591C07F0ACFA9D
:1053D00011F010FA2246964B9449009607F03CFAD9
:1053E0003DE6012E7FF442AF924807F00BFB3046BA
:1053F00036E6FEF77DF90121884807F095FA2EE69A
:10540000022E7FF433AF6B78302B0CBF00230123C7
:105410007B71A2E7052E7FF429AF0126864CA819DF
:10542000666107F02FFC0346E81CE36107F02AFCE5
:105430002062FEF75DF93146784807F075FA0EE60E
:105440007E4807F0DFFA40217B4808F007FF07F0AD
:10545000EFFA7B4C784808F00BFF07F0E9FA206878
:1054600010F052FD07F0E4FA2068764C10F05CFD75
:1054700007F0DEFA206810F047FD07F0D9FA20683F
:1054800010F052FD07F0D4FA644807F0BBFAE6E5E5
:10549000022E7FF4EBAE6B78423B022B3FF6E6AE7A
:1054A00000234FF400124FF48011BB70CDE90B12B2
:1054B000099340F281123B7000234FF01409CDE9AB
:1054C0000623DFF8888110AC06AE002002F012FC43
:1054D000FEF76CFAFEF70CF9642010F01BF8687800
:1054E000012102F0EBFB6878012102F0C9FB48467C
:1054F00010F010F802E00A2010F00CF821463046B7
:10550000FEF7F2F90228F6D0322010F003F8D8F8AE
:10551000143009F1140913B9B9F5D27FD5D1D8F8EF
:105520001430002B3FF4A2AE01213C48397007F043
:10553000FBF994E5012E7FF499AE3146374807F028
:10554000F3F9414801F0FCFD002002F0D3FB0020FC
:1055500002F0EAFB64200FF0DDFF08F0FFF87EE5C3
:10556000042E00F0D982092E7FF480AE681C07F06B
:10557000BFFB0346354A23F000430121274813654A
:1055800007F0D2F96BE50121244807F0CDF901239A
:10559000294A3B70D360FEF7ABF860E5062E7FF436
:1055A00065AE05222A49681C13F063F9002840F013
:1055B000A382284807F026FACFE6022E7FF456AEE3
:1055C0006B781D4A303B18BF012301211348137427
:1055D00007F0AAF943E5032E7FF448AE6878A0F1FE
:1055E0004203022B3FF642AEAB78302B0CBF0021BA
:1055F000012102F045FBB0E67822174B8DF84020E0
:10560000D3F890050DF1410107F040FA0D230A216E
:1056100010A88DF8493007F087F920E590A301081C
:10562000C0C7010820C80108F0C80108B4660120FD
:10563000B0560120F0C70108102B032038C801081C
:10564000AC3B0320A83B032040C801081000032006
:1056500004C901080CC901080000FA0B10A9B348DD
:1056600008F0C2FD02A9B14808F0E6FD10A902A8A1
:1056700001F01EFDF3E4AE4807F07AFB431C9E42A6
:105680007FF4F4ADAA4807F073FBA9490246681CF1
:1056900013F007F900287FF4E9AD0121A54807F0D0
:1056A00043F9C8200FF036FF03F024F9002840F03A
:1056B000688203F06BF9D9E5002301219D483B7016
:1056C00007F032F9CBE4022E7FF4D0AD6B78302BAB
:1056D00000F04A82312B7FF440AE01233B713CE65F
:1056E0004E23954D954E0DF141048DF8403015F83F
:1056F000040B214607F038FAB54204F10204F6D152
:10570000192110A807F010F901218A4807F00CF9B7
:10571000A5E44A238DF8403005F0BAFC0DF14101B3
:1057200072E7874801F0A4FC99E4032E00F0108290
:10573000052E7FF49BAD681C07F0A4FA03467B4C52
:10574000E81CA36107F09EFAA06206E646237C4AA5
:105750000DF1410110798DF8403007F005FA0D2365
:10576000042110A88DF8433007F0DEF877E401211A
:10577000704807F0D9F8022101236C4AD1603B70D0
:10578000FDF7B6FF6BE4072E7FF470AD681C07F0E1
:1057900079FA0346654CE81C636207F073FA034626
:1057A000681DE36207F06EFA034601216148236336
:1057B00007F0BAF853E4042E00F0BC81092E7FF400
:1057C00055AD681C07F094FA03465D4A23F0004388
:1057D00001215848D36407F0A7F840E4092E7FF46C
:1057E00045AD681C07F05AFA0346504C681D6361CA
:1057F00007F048FA0346E81DE36107F043FA034661
:1058000001214C48236207F08FF828E46A238DF8C1
:10581000403005F02FFC0DF141019EE7022E7FF490
:1058200025AD6B784148302B00F0A28108F044FB95
:1058300093E5022E7FF41AAD6B78302B00F08F8148
:10584000312B0CBF4FF480724FF44072374B9A608B
:1058500083E5022E7FF40AAD6B78302B00F08C814B
:10586000312B7FF47AAD012001F064FC75E5022E46
:105870007FF4FCAC6B78303B032B3FF6F7ACDFE8F2
:1058800003F09289877D022E7FF4F0AC6B78302B89
:1058900040F03781012100232A4A1170BB705CE57A
:1058A000022E7FF4E3AC6B78302B0CBF002001207C
:1058B00002F020FA51E5B31E062B3FF6D7AC0122C9
:1058C0000020214CA9182E4411F8013B00EB800068
:1058D000303B03EB4000DBB20A2B28BF0022A04282
:1058E00088BF00228E42EFD1012A7FF4BFACFDF7C2
:1058F0008FFF00287FF4BAAC2FE501210D4807F097
:1059000013F8002138E7022E7FF4B0AC6B78302B0F
:105910000CBF00230123FB701FE510F071FF10285E
:105920005AD90A4807F06EF8FFF799BB102B0320ED
:105930003CC8010890A301089005FA0BC005FA0BBA
:10594000100003209200032040420F0050C80108BD
:105950000F218E4806F0E8FF0C218D4806F0E4FF89
:1059600001218C4806F0E0FF09218B4806F0DCFF9E
:1059700002218A4806F0D8FFFFF771BB0322884B4B
:1059800001218848DA625A6406F0CEFFFFF767BB50
:105990000222F4E70121824B8248D962596406F061
:1059A000C3FFFFF75CBB0022E9E74FF0004116465A
:1059B00000220124CDE90D220A91FFF7D7BB06F0A2
:1059C000F5FF02E00A200FF0A5FD21463046FDF765
:1059D0008BFF0228F6D0A3E4734807F013F810F009
:1059E0000FFF02AA0146714811F066FA10AC704828
:1059F00007F008F800212246029807F0CFF8204669
:105A000007F000F86B4806F0FDFF4FF00008674F05
:105A1000694E63E064210AEBCA0207EB82029269D5
:105A20004FEACA0501FB02F2B2FBF3F35FFA83FB14
:105A300022460021504607F0B1F8204606F0E2FF6A
:105A40005E4806F0DFFF05EB0A0307EB8309D9F890
:105A5000040006F0D7FFD9F80400FAF7FBFB07288B
:105A60008CBF3046564806F0CDFF05EB0A0307EB26
:105A700083031B7B5544052B96BF524A524852F86C
:105A8000230006F0BFFF22460021584607F086F8A3
:105A9000304606F0B7FF204606F0B4FF07EB850559
:105AA0004A4806F0AFFF22460021288C07F076F81E
:105AB000304606F0A7FF204606F0A4FF304606F069
:105AC000A1FF22460021A86907F068F8204606F0E9
:105AD00099FF344806F096FF08F1010810F090FE97
