:020000040800F2
:100000000000042055D3000811D1000815D10008C4
:1000100019D100081DD1000821D10008A5D300087E
:10002000000000000000000000000000F17801085E
:1000300025D100080000000081780108595101080D
:10004000A5D30008A5D30008A5D30008A5D30008B0
:10005000A5D30008A5D30008A5D30008A5D30008A0
:10006000A5D30008A5D30008A5D30008A5D3000890
:10007000A5D30008A5D30008A5D30008A5D3000880
:10008000A5D30008A5D30008A5D30008A5D3000870
:10009000A5D30008A5D30008A5D30008A5D3000860
:1000A000A5D30008A5D30008A5D30008A5D3000850
:1000B000A5D3000829D1000835D10008A5D3000830
:1000C000A5D30008A5D30008A5D30008A5D3000830
:1000D000A5D30008A5D30008A5D3000841D1000886
:1000E0004DD10008A5D3000859D10008A5D30008B8
:1000F000A5D30008A5D30008A5D30008A5D3000800
:10010000A5D3000865D1000871D10008A5D3000867
:10011000A5D30008A5D30008A5D30008A5D30008DF
:10012000A5D300087DD1000889D10008A5D3000817
:1001300095D10008A5D30008A5D30008A5D30008D1
:10014000A5D30008A5D30008A1D10008A5D30008B5
:10015000A5D30008A5D30008A5D30008A5D300089F
:10016000A5D30008ADD10008A5D30008A5D3000889
:10017000A5D3000800000000A5D30008000000007F
:10018000B9D10008A5D30008A5D30008A5D300085D
:10019000A5D30008A5D30008A5D30008A5D300085F
:1001A000A5D30008A5D30008A5D30008A5D300084F
:1001B000A5D3000800000000C5D10008A5D30008A1
:1001C000A5D3000800000000A5D30008A5D30008AF
:1001D000A5D30008A5D30008A5D30008A5D300081F
:1001E000A5D30008A5D30008A5D30008A5D300080F
:0401F000000000000B
:1002000010B5054C237833B9044B13B10448AFF350
:1002100000800123237010BD0807032000000000A8
:10022000AC93010808B5034B1BB103490348AFF376
:10023000008008BD000000000C070320AC930108FB
:1002400010F8012B11F8013B012A28BF9A42F7D080
:10025000D01A7047034613F8012B002AFBD1181A55
:1002600001387047704700BF2DE9F041234C244D01
:10027000244E254FDFF8948082B04FF0FF330222E6
:1002800020680DF1060115F0DFFD022807D02B785C
:10029000012B29D0012130460CF0FEF9EDE742F2A6
:1002A0000303BDF806209A42F1D841464FF0FF33D0
:1002B000206815F0C9FDBDF806108142E7D140461F
:1002C00006F00CFC0028D8D12B78BDF80610012BC5
:1002D0000E480DD004F0B4FD0128CED12B78B3FA2E
:1002E00083F35B092B70C8E738460CF043FAC4E788
:1002F00003F0A4FB0128C0D1F0E700BF28080320C9
:10030000FC070320D89F0108B89F01083CB70020D4
:100310002DE9F04F7E4CDFF81482DFF808927D4F14
:100320007D4E9BB04FF0FF3328226946206815F0C0
:100330008BFD2828F6D103980CF0BAFB82460028E2
:1003400040F09380029B002B6DD10098D8F80030CC
:10035000984200F0928051460AAA06F0DFFB16F0A0
:1003600001F90AA90246684607F00EFB16F0FAF8F2
:100370000AA90246684609F045FA16F0F3F80AA9F8
:100380000246684606F0A8FB3B78002BCAD0069BC5
:10039000B3F5001F7FD00121BAF1080F28BF4FF03D
:1003A000080A00200D465FFA8AFADDE90132002AC8
:1003B00069D13144002B00F09D80542333540098C0
:1003C0000CF01CFA0544EDB2069B7119B3F5001F41
:1003D0006CD00AF00F000CF08FFA0544EDB2BAF1C0
:1003E000000F0BD00AAB9B469A441BF8010B711906
:1003F0000CF072FADA450544EDB2F6D1FB78002B29
:100400005CD17B791BB1069BB3F5001F76D00D2321
:10041000691C4148C9B273550CF03EF9002881D0DF
:1004200000233B707EE7B3F1005FA6D1009BB3F5DC
:10043000E06FA2D1C9F80030039B0199082B28BFB7
:1004400008231A460023C9F80410C9F80C203349C0
:1004500008223348C9E90533C9F808300CF034FBE9
:100460002F49304803F056F987E702464FF0FF3333
:1004700020680AA915F0E8FC64E72B492B4803F033
:1004800049F9009867E753B352234FF0000A3354F9
:100490003144009894E7059B0221B3F5801F14BFF7
:1004A0003023312301200D4633707EE7039800F09E
:1004B0000F000CF021FA2B18DDB290E716F052F87D
:1004C0004EF660221A4B7119A3FB00C39B0B02FB73
:1004D000130080B20CF0DEF92B18DDB291E79A46DA
:1004E000722333540098314480B20CF0BDF92B18BC
:1004F000DDB269E7742333540098F5E7049BB3F148
:10050000004F84D1692373550135EDB27FE700BFF9
:10051000A43B0320680103203CB500209005FA0BA2
:100520002C07032038070320F83C0320003D03205C
:1005300073B2E7452DE9F0411F4DDFF884801F4F6E
:100540009AB0002404EBC40101AEC4F124024FF0C0
:10055000FF33286806EB810115F076FC0444232C58
:10056000F0D904980CF0A4FA039B0646B3F1005F9F
:1005700000D0A0B938460DF033FD50B138460AAA74
:1005800001A90DF0E7FBD8F80C300133C8F80C30A6
:10059000D7E74FF0FF31012016F09CFCEAE700247A
:1005A0000AA9321B21444FF0FF33286815F04CFC98
:1005B0000444A642F4D8DDE7A03B0320082B032027
:1005C000100003202DE9F04182B006F0A1FA02F0FC
:1005D000A5FF07F0D9FA00F0C7FD09F08BFE15F072
:1005E000C1FF06F06FFA15F0BDFF06F06FFA244860
:1005F00011F0A0FC234811F065FC2349234809F0C1
:100600001FF8234F07F08EFF224DDFF89080224E17
:1006100005E001330CD10A2101A816F00BF915F001
:10062000A1FF3B68019001332B68F2D101330BD05D
:100630004FF47A7401E0013CEDD03146284603F0D6
:1006400069F80028F7D0E6E709F052FE019809F0B2
:1006500057FE019800F08AFD98F800304BB10198E0
:1006600006F03EFA019807F08DF9019808F0FEFFB8
:10067000D1E7019806F09AFB019806F025FAEEE71B
:1006800040280320A8270320181B0320A8290320A3
:10069000003D0320D43C0320CC3C032092000320E7
:1006A0002DE9F04700272A4D2A4EDFF8ACA0DFF8ED
:1006B000AC90DFF8AC80A4B016E0630203D53379C8
:1006C00043F08003337199F8003033B1099B23B1B3
:1006D000642014F0D7FD02F021FF00230222194606
:1006E000D8F8000016F06CFC4FF0FF31012016F036
:1006F000F1FB16F0CFFF28460DF0C8FD044604A913
:1007000028460DF029FC694628460DF04DFC542280
:1007100031460FA8B46018F0D4F82F66169BB3F5D5
:10072000003F02D9B3689A020CD416F0C1FF9AF8C0
:100730000030012BC1D1234668460FAA04A906F058
:1007400027FCBAE7012386F8203002F071FFECE7BE
:10075000082B032010000320A03D032028070320BE
:10076000C81F032000232DE9F04784B05B4C5C4D8B
:100770005C4FDFF87481DFF874910DF10E068DF88F
:100780000B3004E04FF0FF31002016F0A3FB20688F
:1007900015F082FA0028F5D04FF0FF3301222068CF
:1007A0000DF10B0115F050FB0128EBD1206815F07D
:1007B00073FA0128E6D94FF0FF330222206803A91B
:1007C00015F042FB0228DDD1BDF80C20B2F5805FA8
:1007D000D8D2002A55D19DF80BA0BAF1000F16D13E
:1007E00015F0C0FE3B462946BDF80C2000960AF0E5
:1007F00031FFBDF80E30002B56D115F0B3FE3B464D
:100800002946BDF80C2000960BF0DEFEBAE715F085
:10081000A9FE344B3249BDF80C2000960BF070FE57
:10082000BDF80E301BB33A787F2A08D1022B1ED9AF
:10083000BB78A3F11102012A19D9312B17D04FF03F
:10084000FF3302223146D8F8000015F033FA4FF09A
:10085000FF332449BDF80E20D8F8000015F02AFA1D
:10086000002302221946D9F8000016F0A9FB15F062
:1008700079FE1C4B1A49BDF80C2000960BF0A4FE23
:1008800080E74FF0000AA2EB0A0205EB0A014FF0E5
:10089000FF33206815F0D8FABDF80C2050441FFA39
:1008A00080FA5245EFD196E731464FF0FF330222EE
:1008B000D8F8000015F0FEF9BDF80E204FF0FF3318
:1008C0000849D8F8000015F0F5F9534602225146C0
:1008D000D9F8000016F074FB8FE700BF680703200B
:1008E00038A500203895002064070320080D032058
:1008F0002DE9F84F2A4E2B4DDFF8ACA006F11C076E
:1009000006F5805B06F11408A6F5805904E04FF067
:10091000FF31002016F0DEFA286815F0BDF9012835
:10092000F5D94FF0FF3302224146286815F08CFAC2
:100930000228ECD1B28AB2F5805FE8D262B100241D
:10094000121B39194FF0FF33286815F07DFAB28A6F
:10095000204484B2A242F3D115F004FE0146484679
:1009600007F042FB0028D2D115F0FCFD0AF0D4FDBF
:100970000128CCD0286815F08FF90128C7D89AF83B
:10098000003053B19BF8230014F07CFC15F0EAFD15
:100990000AF0C2FD0128BAD0ECE70A20F4E700BF54
:1009A0008C3D0220640703209200032038B50D49D6
:1009B0000D480BF043FE0B4A0C490D4817F0E6F9C1
:1009C000094D0C4C21464FF0FF334FF4006228686C
:1009D00015F03AFA01460028F4D020460BF046FE06
:1009E000F0E700BF58080320000803207C24032000
:1009F0002808032040D7002006F082B8002006F027
:100A000083B800BF0022024B02481A6011F092BA6C
:100A100024070320F4270320014B1868704700BF08
:100A2000240703200000000030B59FB048220021B9
:100A30000CA817F0E6FD00234FF40070CDE9023357
:100A4000CDE90433CDE90733CDE9093301930693AA
:100A50000B930FF035FC08B172B6FEE701230222BA
:100A6000169311931993179210231D9207229FED4D
:100A70001E7BCDE91A320324042312900CA81C9388
:100A80008DED0C7B18940FF05DFE034608B172B635
:100A9000FEE70F22214601A8CDE903330593029416
:100AA00001920FF0FDFC034608B172B6FEE7104A52
:100AB0004FF00055916D4BF67F3441F08071916598
:100AC000926D069302F080720092089322222023F6
:100AD00006A8CDE90A2300990795099410F090FD26
:100AE0001FB030BDAFF300802900000000000100FE
:100AF00000100240F0B593B072B64FF00062A84B00
:100B00009A60BFF34F8F62B600250CF04DFC07F0E2
:100B100013FEFFF789FFCDE90D55CDE90F55A14C27
:100B20001195E36C4FF4604143F00403E364E36C1C
:100B30002A4603F004030693069BE36C9A4843F0AD
:100B40008003E364E36C012603F080030793079BB3
:100B5000E36C082743F00103E364E36C03F0010353
:100B60000893089BE36C43F00203E364E36C03F037
:100B700002030993099B0EF02DF82A4640F2011159
:100B80008A480EF027F82A4641F2E40188480EF020
:100B900021F84FF4604384480DA9CDE90D360F9537
:100BA00010950DF059FE40F2011380480DA9CDE9D2
:100BB0000D36CDE90F550DF04FFE41F2E4037C48B0
:100BC0000DA9CDE90D36CDE90F550DF045FE79485B
:100BD0000DA9CDE90D750F950DF03EFEA36C052115
:100BE00043F00403A364A36C2A4603F004030393B5
:100BF000039BA36C1D203343A364A36C3340049375
:100C0000049BA36C43F00203A364A36C03F00203F0
:100C10000593059B0CF0FEFB1D200CF037FC2A46CB
:100C200005211E200CF0F6FB1E200CF02FFC2A469E
:100C3000052150200CF0EEFB50200CF027FC28463C
:100C40000EF050FB08B172B6FEE70EF05FFB0346F4
:100C500040B959484360594B036010F0F9FC18B192
:100C600072B6FEE772B6FEE710224FF44071544BA5
:100C70000F241870534B99609A619A623C21132299
:100C8000C3E907120422C3E90B424F4A5860D860F7
:100C90009874D8631846C3E90D661E825E615E6271
:100CA0001A600CF089FE034668BB4FF0FF31474ADB
:100CB0004FF4827CC2E90500C2E90100D0601160F6
:100CC00007224FF4E0654FF400744148C0E90A324E
:100CD000404AC0E90433C0E90833C2E90533C2E938
:100CE000013383600363D3603B4BC7610360476399
:100CF000C0F804C0C5608461116010F0D5FE0346E1
:100D000018B172B6FEE772B6FEE73448344AC0E95D
:100D100005338380026006620CF0EAFB034608B1EB
:100D200072B6FEE74FF4027102222E48C3722E4BB8
:100D300081800360C0F807200EF0F2FA034608B184
:100D400072B6FEE741F63F75284C294ACDE90D0001
:100D50000F902046C4E90133A3612260E56011F0E1
:100D6000FDFA034608B172B6FEE720460DA90D93C1
:100D70000F9311F025FB034608B172B6FEE71D483C
:100D80001D4ACDE90D33026042F20F72C0E902350F
:100D90000F938361426011F0E1FA78B372B6FEE717
:100DA00000ED00E000100240000802420000024294
:100DB00000040242001C02420C2A032000080C42DC
:100DC00028070320082B032000A40040003D032037
:100DD000A8290320D43C0320003800406C2B0320BA
:100DE000003002408024032000D40040F427032078
:100DF00000140040402803200010004000238E48CB
:100E00000DA90D930F9311F0DBFA034608B172B6EA
:100E1000FEE74F254FF6FF748848C0E9043383602E
:100E20008361874BC460C0E9003511F097FA03462F
:100E300008B172B6FEE78348C0E90153C0E9034335
:100E4000C0E90533804B036011F088FA034608B10E
:100E500072B6FEE74FF080414FF0FF327B4CCDE998
:100E60000D00CDE90F00C4E901000A902061A061E6
:100E70002046CDE90B332160E26011F06FFA08B132
:100E800072B6FEE74FF4805320460DA90D9311F082
:100E90008FF8034608B172B6FEE720460AA90A9306
:100EA0000C9311F08DFA044608B172B6FEE768485B
:100EB000684900902246684B0C7043F69820012147
:100EC00014F05CFE0546654E654A009601211560EA
:100ED000644B224643F6982014F050FE0546624EBD
:100EE000624A009601211560614B224641F20100E1
:100EF00014F044FE02465F4E5F4D009601215F4BA9
:100F00002A6041F20100224614F038FE5C4B5D4A33
:100F100001210092186022465B4B43F6982014F0A2
:100F20002DFE5A4B5A4A0121009222461860594B15
:100F300043F6982014F022FE574B584E1860204676
:100F400006F0EEFD204606F005FE06F04DFE15F01B
:100F500009FB2A46524B5349009606F001FD5248C0
:100F600009F038FF514805F093FD5148514A524964
:100F700002F0BAFA0DA80D9406F08EFD10B90D9B83
:100F8000002B55D014F0F6F816F0B0FD00214B4AB6
:100F90004B4814F01BF904464A4B00214A4A4B487F
:100FA0001C6014F013F90446494B0021494A4A4891
:100FB0001C6014F00BF904463F4B0021474A484897
:100FC0001C6014F003F90446464B0021464A47488A
:100FD0001C6014F0FBF80446364B0021444A454897
:100FE0001C6014F0F3F804462E4B0021424A43489B
:100FF0001C6014F0EBF80446414B0021414A424882
:101000001C6014F0E3F80446404B0021404A41487C
:101010001C6014F0DBF804463F4B00213F4A404877
:101020001C6014F0D3F83F4B186014F0B5F8FEE7DD
:101030003D4806F009FDA5E740280320A827032026
:10104000004401405C270320004801408C28032015
:101050002C080320FC070320D819012004080320D2
:101060002808032040DF0020D807032000080320C1
:1010700034850020B4070320680703203075002062
:101080006407032090070320983A0020A43B032024
:101090006C07032000000020A03B03205C07032016
:1010A00060070320B81103200C2A03206C2B0320B7
:1010B000082B032068160320C81F032084D10108D1
:1010C000690200087C24032060D101081103000894
:1010D000782403203CD101083505000818D1010807
:1010E000C5050008181B0320F4D00108A10600085C
:1010F000D0D0010865070008ACD00108F10800084D
:10110000080D032088D00108AD0900085808032005
:1011100064D00108F90900085408032040D00108F0
:10112000FD09000850080320040029C0094A03688B
:10113000934206D0084A93420AD0084A934205D007
:101140007047074A136801331360704705F0D0BC3D
:101150000CF03CB900140040002C0140001000408D
:101160002407032072B6FEE7704700BF704700BF38
:1011700040F69E723A492DE9F04F0E8839493A4BB4
:1011800008681B88904200FB063383B064D84FF098
:10119000000E4FF0804240F69F784FF0300A4FF03B
:1011A0003109324C324D334FDFF8CCB000F1010C35
:1011B00001942044516A9942FCD33969CC051CD56D
:1011C0002C6880F80090B4F5805F07D2C1F340210D
:1011D00041F002010BF80410611C29600EF1010EB0
:1011E0005FFA8EFEBEF10A0F17D9BCF1140F28D892
:1011F0000CF1010C01303344DCE7D5F800E080F855
:1012000000A0BEF5805F06D2C1F340210BF80E109E
:101210000EF1010129604FF0000EC44500F10100FC
:1012200033440CF1010101D08C46C3E701200D4B82
:10123000019CC3F800C0002304F80C3003B0BDE8E3
:10124000F08F084B0020C3F800C00023019C04F875
:101250000C3003B0BDE8F08F8446044C0120EAE76F
:101260000A000320FC2B032008000320002C03208D
:10127000743F032000040242783F032070B500242D
:101280004FF0804101254FF6FF7086B0CDE9004454
:10129000CDE9024404940A681B4E22F001020A6060
:1012A00032881A4B013A8A624C624D610A68184EC4
:1012B0002A430A601A6822F001021A6098625C628E
:1012C0005D611A682A431A6002F0B2F930462A4674
:1012D0004FF400710DF07EFC4FF4807200236946DC
:1012E0003046CDE9002302940DF0B6FA4FF40073B6
:1012F000032269463046CDE90035039202940DF091
:10130000ABFA06B070BD00BF0C00032000480140DE
:1013100000040242F0B5BDF81450012D3BD9302431
:1013200005F1FF3E1C70C1BBC0F38021BEF1010F6F
:1013300001F130012FD001270A253E460DE00C4671
:101340000127013D20FA05F101F001016E1C01F1B8
:1013500030011AD0F4451EDA664606F1010C8C42C3
:1013600099551FFA8CFCEAD10137FFB2052FE8D15D
:10137000C4F16104F445E4B206F102060BDA03F8A5
:101380000C4001271FFA86FCDBE7002A0CBF302542
:101390003125F44549DB0020F0BDC0F30071022D7A
:1013A0002144F8D001271C253E460DE00C460127BC
:1013B000013D20FA05F101F00101112D01F130018B
:1013C0001AD0E645E7DD664606F1010C8C429955D8
:1013D0001FFA8CFCEAD10137FFB2052FE8D1C4F126
:1013E0006104F445E4B206F10206D4DA03F80C40D5
:1013F00001271FFA86FCDBE7E645CCDD31260CF140
:101400000101B44289B203F80C606BD08E45C2DD95
:1014100034465E5402260CF10207BFB2C0F34041CD
:10142000BE4501F1300126DCB5E70CF10101AC420B
:1014300003F80C5089B26DD001277145ABDA302228
:101440004C1C9542A4B25A5400F08680A645A2DDF9
:10145000881C80B21A5500221A54F0BD0C4667460B
:101460000126013D21D320FA05F101F00101774564
:1014700001F130018FDA07F1010C8C42D9551FFAC6
:101480008CFCEBD10136F6B2052E01D06746E8E7B9
:10149000C4F16104E645E4B207F102077FF77BAFD0
:1014A0000126BFB203F80C40DBE7002A0CBF302551
:1014B00031257745BFF66FAF7A1CAC42DD5592B24D
:1014C0005FD001217245BFF666AF3026541CB5428D
:1014D000A4B29E5472D0A6457FF75DAF023290B29F
:1014E0001E55B8E7042F26D08E457FF754AFBE1C9B
:1014F000F6B20CF10207052E5C54BFB28ED17745CF
:10150000BFF649AF30240CF1030CDC5501261FFA5D
:101510008CF783E70137FFB2052F8ED18E457FF719
:101520003AAFC5F16105EDB20CF1020C5D54012733
:101530001FFA8CF181E78E457FF72DAF30265E5480
:101540000CF1020189B28E457FF725AF0CF103073C
:1015500001265C54BFB261E77A1CD2B2052A1FD0C3
:10156000A6457FF718AF881C042A1D5580B27FF46A
:1015700072AF7045BFF60FAF312203311A5488B2F3
:1015800069E7711CC9B205299CD17245BFF603AF4A
:10159000C5F16105EDB202379D540121BAB291E760
:1015A000A6457FF7F8AE31221A558A1C92B29645AD
:1015B0007FF7F1AEC81C80B29D544CE70131C9B22F
:1015C000052910D0A6457FF7E6AE1D55042902F186
:1015D0000204A4B215D17445BFF6DDAE3121033249
:1015E00090B2195537E7A6457FF7D5AE3121195589
:1015F000911C89B28E457FF7CEAE033290B25D5416
:1016000029E7204627E700BF4A4B1868831C74D09F
:101610002DE9F04FC71C91B075D0411C53D14FF04C
:1016200000084FF0804E444B444A1B88B2F800A09B
:101630000393434B0AEB8A041F88424B42481968C4
:10164000424E64000369DA05FCD5DEF8242092B22C
:101650000369DB05F6D5DEF824309B1A9C42F7D8E7
:10166000036913F4807306D0736ABB423FD80369E1
:1016700013F48073F8D11D46CEF82430B8F1000F72
:101680001AD04FF08041039ADFF8D090DFF8B8B05D
:101690000DF1100C4B6A9342FCD3DBF8103052442E
:1016A00013F4807F1CF8013B1DD0312B1DD1013577
:1016B000A84509F8013BEDD1224BC3F8008000207A
:1016C00011B0BDE8F08F3024214B224A19781278EE
:1016D00004AB0094FFF71EFE80460028A1D11E48EF
:1016E0000BF048F89DE7302BE1D02946AAE701200E
:1016F000144B196011B0BDE8F08F4FF08043002209
:1017000000205A6270474FF080440C4B0E4A1888F4
:1017100000EB800040001369DE05FCD5616A89B2E8
:101720001369DD05F7D5636A5B1A8342F8D300239A
:101730006362C4E704000320080003200A000320BA
:1017400000000320FC2B032000040242004801405B
:10175000F92B0320F82B032074A00108002C032090
:1017600002783AB34FF0000C30B563468646312517
:101770000BE02A2A07D10CF1010C1FFA8CFC8EF821
:10178000005000EB0C0EC25C82B1A2F130010133BB
:1017900001290CF101049BB2EBD88EF80020C25C49
:1017A0001FFA84FC00EB0C0E002AEED100238EF809
:1017B000003030BD00230370704700BFF8B5044609
:1017C0000BF08EF9142874D900F1FF3E1FFA8EFE3B
:1017D00014F80E2004EB0E05312A2B4618D1A0EB8D
:1017E0000E020C2A65D8811E661E2A2714FA81F182
:1017F000064401E00C2A5CD81F700B4693F800C029
:10180000C3F10102BCF1310F01F1FF313244F1D0DB
:101810000021234601270E46204413F8012BA2F194
:101820003004012C49D8002945D0E7B1052953D10E
:10183000B2423ED05F22984203F8012C29D01A46CA
:1018400012F8014BA4F13001012962D8904203F152
:1018500002031ED012783946A2F13006012E264628
:101860002BD8002FE2D1B2420DD0984211D013F8FC
:10187000014B1646A4F13001012942D82246B2425A
:101880004FF00101F1D1013198424FF00007C9B288
:10189000C3D10FFA8EFEBEF1000F08DB2A4615F801
:1018A00001392A2B45D05F2B01D130231370012041
:1018B000F8BD0020F8BD164601219842ADD1E8E7F9
:1018C0009842E6D013F8014B0121A4F13002012A1D
:1018D0002CD8302216462246B2420BD0312AEFD104
:1018E0009842D6D013F8014BA4F13001012928D831
:1018F0000121EFE70131312EC9B205D00127302691
:10190000DBE700270121D8E706298CBF0027012744
:10191000D3E79042BDD011780233A1F13002D2B2A8
:10192000012A96BF0E4600213946C6E730260F46EB
:10193000C3E70EF1FF3E0FFA8EFEBEF1FF3FADD1C1
:10194000B5E7012116460F46B7E700BF70B571B382
:10195000002344F2995600F1FF3C0CEB01051CF802
:10196000012F5C00A2F13102B2FA82F24FEA933EFB
:1019700047F6FE735209724503EA040318BF734029
:10198000AC45ECD14A1E00F10E0C024400208C4400
:1019900012F8011F4000312908BF40F001009445B2
:1019A00080B2F5D1C01AB0FA80F0400970BD0B4684
:1019B000E8E700BF2DE9F04F8FB004460BF090F838
:1019C000122840F251812378302B05D0B6480FB051
:1019D000BDE8F04F0AF0CEBE054606AEB3480AF0A9
:1019E000C9FE00273146234604F10B0C13F8012FE2
:1019F000A2F13100B0FA80F09C454FEA501001F896
:101A0000012B40EA4707F1D14FF00008A8488DF8B4
:101A100023800AF0AFFE06A80AF0ACFEA5480AF043
:101A2000A9FE03A938460AF0E9FE03A88DF8148040
:101A30000AF0A0FEA0480AF09DFE277B9F4894F87C
:101A40000D908DF819808DF818700AF093FE06A895
:101A50000AF090FE9A480AF08DFE9A488DF8189088
:101A60000AF088FE06A80AF085FE95480AF082FE74
:101A7000B9F1310F40F00281262D40F2FB8047463C
:101A800006AA04F10D010DF12A0011F8013F02F838
:101A9000013BA3F13103B3FA83F390424FEA5313AE
:101AA00043EA4707F1D14FF0000887488DF82A80B4
:101AB0000AF060FE06A80AF05DFE7E480AF05AFEB3
:101AC00003A938460AF09AFE03A88DF814800AF09C
:101AD00051FE79480AF04EFE94F820707B488DF84C
:101AE00019808DF818700AF045FE06A80AF042FE2B
:101AF00073480AF03FFE94F8213075488DF818308D
:101B00000AF038FE06A80AF035FE6D480AF032FEEB
:101B100094F822306F488DF818300AF02BFE06A892
:101B20000AF028FE66480AF025FE4FF0230A4FF01F
:101B30000009201D06A9504404EB0A0212F8013BDB
:101B400001F8013BA3F13103B3FA83F390424FEA6A
:101B5000531343EA4909F1D14FF000085E488DF86C
:101B60001C800AF007FE06A80AF004FE5FFA89F955
:101B700050480AF0FFFD03A948460AF0ADFE03A84D
:101B80000AF1040B8DF80E800AF0F4FD4A480AF0C1
:101B9000F1FD0BEBC90202F10F03AB4200F2F5803D
:101BA000302F00F0A980002706A8551E254400F11B
:101BB0000F0C15F8011F00F8011BA1F13101B1FA5A
:101BC00081F184454FEA511141EA4707F1D10025DF
:101BD0004248CDE900238DF827500AF0CBFD06A836
:101BE0000AF0C8FD33480AF0C5FD03A9B8B20AF0EF
:101BF00051FE03A88DF810500AF0BCFD38480AF0D9
:101C0000B9FD009A20461146FFF7A0FE019B009304
:101C1000002844D033480AF0ADFD009BE25CE11897
:101C2000A2F13003012B98BF012304D919E001333D
:101C3000202B00F0A88006F8012B11F8012FA2F14B
:101C400030000128F3D9002238336B44264803F8CA
:101C5000202C0AF08FFD06A80AF08CFD18480AF027
:101C600089FD0FB0BDE8F08F20480FB0BDE8F04F00
:101C70000AF080BD1E480AF07DFDF2E7A37B1548FF
:101C80008DF818308DF819800AF074FD06A80AF056
:101C900071FD0B480AF06EFD4FF00F0A47E715483B
:101CA0000AF068FD009BB9E7B0A00108C4A00108D4
:101CB000D8A00108E8A0010848C60108F0A0010862
:101CC00000A1010804A1010828A1010838A1010808
:101CD00048A1010858A1010868A10108A4A10108B0
:101CE000B4A10108B8A10108CCA101089CA0010879
:101CF00014A10108C0A10108B9F1080F3FF653AFC4
:101D0000B9F1000F45D009F1FF330AF10C0ADBB23B
:101D10000AEBC302DFF88C90DFF88CA00DF11F07EF
:101D200000250DF1170104EB0B0010F8013B01F841
:101D3000013FA3F13103B3FA83F38F424FEA531308
:101D400043EA4505F1D1504600928DF820800AF013
:101D500011FD06A80AF00EFD48460AF00BFD03A986
:101D6000E8B20AF0B9FD03A88DF80E800AF002FD72
:101D70000A480AF0FFFC009A0BF1080B5A45CFD134
:101D800002F10F030FE71F235DE705480AF0F2FC9D
:101D900067E75A460AF1130305E700BF48C6010882
:101DA00078A10108E8A0010894A10108002845D005
:101DB00030B583B004460AF093FE0130235C251849
:101DC00013B9012003B030BD204677490AF0A4FEC4
:101DD00048BB204675490AF09FFE20BB2046744947
:101DE0000AF09AFE002857D1204672490AF094FE64
:101DF000002863D00A2128460DF107020AF0AAFE46
:101E00009DF80730002BDCD04FF6FE73421E9A423D
:101E1000D7D8694B80B21A886849824208800BD3B0
:101E20004008188008E0284665490AF075FE38B178
:101E30006FF00102634B1A600020C3E70120704776
:101E4000284661490AF068FE20B14FF0FF325D4B31
:101E50001A60F1E728465D490AF05EFE20B16FF096
:101E60000202584B1A60E7E7102128460DF10702DD
:101E70000AF070FE9DF807300446002BA1D0B0F1A7
:101E8000005F9ED2B0F5006F03D3514B1A78002A41
:101E900050D04C4B1C60CFE70A2128460DF10702B9
:101EA0000AF058FE9DF80730002B8AD04FF6FE73DB
:101EB000421E9A4285D8474B1880BDE720464649C6
:101EC0000AF02AFE90B10A2128460DF107020AF015
:101ED00041FE9DF80730002B3FF473AF374B1B8852
:101EE00083427FF66EAF344B1880A5E720463B490E
:101EF0000AF012FE80B1284639490AF00DFE00288A
:101F000037D0304B374A1B68A3F50063934246D95C
:101F100000222F4B1A708FE7204633490AF0FCFD50
:101F200070B128462E490AF0F7FD68B300222F4B06
:101F30001A7081E701222E481A700AF01BFCA8E7EC
:101F400020462C490AF0E8FD00283FF43AAF0DF195
:101F500007020A2128460AF0FDFD9DF80720002A05
:101F60003FF42FAFB0F5803FBFF42BAF224A108073
:101F700062E7284621490AF0CFFD00283FF421AF4F
:101F80000122134B1A7057E728461C490AF0C4FD7A
:101F900000283FF416AF0122144B1A704CE7184882
:101FA0000AF0E8FB0DE700BFDCA10108E8A1010889
:101FB00028A2010834A20108080003200A00032017
:101FC000E4A1010804000320F0A10108F4A1010824
:101FD000F92B03200C00032040A2010850A20108A5
:101FE0005CA20108FFF7FF1F88A20108F82B03205D
:101FF000FCA101088CA2010800000320DCB3010849
:1020000060A2010810B5364884B00AF0B3FB354B26
:1020100001A918880AF0CCFD01A80AF0ABFB324CEC
:1020200032480AF0A7FB32480AF0A4FB01A9206855
:102030000AF0E4FB002301A88DF80C300AF09AFBAB
:102040002368991C40D05A1C42D0033344D02948FD
:102050000AF090FB284B01A918780AF0A9FD01A805
:102060000AF088FB25480AF085FB254B01A9187862
:102070000AF09EFD01A80AF07DFB22480AF07AFBD7
:10208000214B01A918880AF093FD01A80AF072FB00
:102090001E480AF06FFB1E4B01A918880AF088FD44
:1020A00001A80AF067FB1B480AF064FB1A4B01A960
:1020B00018880AF07DFD01A80AF05CFB17480AF0B9
:1020C00059FB002004B010BD15480AF053FBBEE7D1
:1020D00014480AF04FFBBAE713480AF04BFBB6E787
:1020E00094A201080000032004000320A0A201081C
:1020F000A8A20108C8A20108F92B0320D4A2010854
:10210000F82B0320DCA201080C00032000A3010827
:102110000A00032010A301080800032000A1010801
:10212000B0A20108B8A20108C0A201082DE9F84335
:10213000FFF7A4F800231A4C1A4D1B4E1B4FDFF873
:102140007090DFF8708023606B626A6A33889A420D
:1021500021D24FF08042002339885362536A8B4268
:10216000FCD34FF4007148460CF03AFDD9F810103A
:102170002368B3F5805FE8D241F3002202F0020247
:10218000C1F340210A43591C08F8032021606A6A00
:1021900033889A42DDD301F0C1F90020BDE8F8830D
:1021A000743F032000480140000003200A00032080
:1021B00000040242783F03202DE9F04F804B91B09C
:1021C0001B88B3F57A7F40F2C480FFF757F872B6E8
:1021D0007C4B1868831C00F0EC80C71C00F0C780A3
:1021E000411C00F0BD803024774B784A1978127872
:1021F00004AB0094FFF78EF88046002800F0B3800F
:102200004FF0804E724B734A1B88B2F800A00393C4
:10221000714B0AEB8A051968694B70481C88704F2E
:102220006D000369DA05FCD5DEF8242092B203695B
:10223000DB05F6D5DEF824309B1AAB42F7D30369F1
:1022400013F4807307D07B6AA34200F2A98003696C
:1022500013F48073F7D11E46CEF82430B8F1000F86
:102260001AD04FF08041039ADFF88891DFF86CB103
:102270000DF1100C4B6A9342FCD3DBF81030524442
:1022800013F4807F1CF8013B52D0312B52D1013620
:10229000B04509F8013BEDD14F4BC3F80080002653
:1022A0004F4D6E626B6AA34237D24C4F02E06B6AAD
:1022B000A34241D23B6913F48073F8D1484A4FF0EE
:1022C0008041D2F824C0424A1846B2F800904B62CE
:1022D0004A46404BDFF804E1B3F800804B6A934272
:1022E000FCD3DEF81030013013F48073C0B21CD080
:1022F0000B284244F2D14FF08041A2EB09024B6A15
:102300009342FCD3364A536AA3EB0C031E44536A30
:10231000A342CFD3334B03FB06F662B601F0FEF8BF
:10232000274B1B88B6FBF3F010E018464244D5E774
:10233000302BACD0314674E762B601F0EFF8294B90
:102340001F4A06FB03F31088B3FBF0F011B0BDE8A1
:10235000F08F25480AF00EFA002011B0BDE8F08F8A
:102360004FF000084CE721480AF004FA48E74FF024
:102370008044184B194A188800EB8000400013690C
:10238000DE05FCD5616A89B21369DD05F7D5636A9C
:102390005B1A9842F8D800236362094B1C887EE7D9
:1023A0000D4B196062B612480AF0E4F901F0B6F874
:1023B000D2E74FF0804300225A62014B1C886EE73F
:1023C0000000032004000320F92B0320F82B032036
:1023D000080003200A000320FC2B03200004024213
:1023E00000480140A086010024A3010874A0010850
:1023F00040A30108002C03202B4B70B51B6803334E
:10240000012B39D9FEF73AFF0023284A136072B630
:10241000274A5362FFF7F8F828BBFEF7A9FE0446E7
:1024200000283AD162B6234E3368072B2ED9224DAD
:1024300028460AF09FF921480AF09CF9336828469B
:10244000EC54FFF7BBF9D8B128460AF093F91C48C1
:102450000AF090F92846FFF783F9FFF7ABFA01F08D
:102460005DF8204670BD62B616480AF083F901F0A7
:1024700055F80124204670BD13480AF07BF9F8E7AF
:1024800012480AF077F901F049F8F3E710480AF02A
:1024900071F901F043F8204670BD62B60D480AF0AC
:1024A00069F901F03BF8E4E704000320743F0320DE
:1024B00000480140FC2B0320002C0320D4A301087A
:1024C000ECA3010888A3010854A30108DCA30108B8
:1024D000BCA30108A4A301082DE9F04F0024DFF8F4
:1024E00038B291B0FEF7CAFECBF8004072B64FF09A
:1024F00080427C487C497D4B546204604C62186881
:10250000851C00F0BE80C11C00F0CC80451C40F052
:102510009B80204602944FF0804E754B754C1E8870
:10252000754B06EB86051A88744BDFF8BC81B3F84F
:1025300000906D002369D905FCD5DEF8241089B21E
:102540002369DB05F6D5DEF824305B1A9D42F7D807
:10255000236913F4807308D0D8F824304B4500F277
:102560008480236913F48073F6D11946CEF82430A1
:10257000029B002B00F0B080614B10469A464FF052
:10258000804703930DF1100C7B6A8342FCD3594BB7
:1025900030441B6913F4807F1CF8013B61D0312B60
:1025A00061D10AF8013B029B01318B42ECD1194603
:1025B0004C4B06FB0122196040F69E7399426FD87E
:1025C0004FF08041029BDFF854C15D1E039B494FD1
:1025D000DFF84CE11D444B6A9342FCD33B69DBF8C6
:1025E000004013F4807F0CBF4FF030084FF03108EB
:1025F00043F3002000F00200C3F34023B4F5805FF2
:1026000040EA030005F8018F04F101033CBF0EF816
:102610000400CBF8003065453244DCD140F69F73AE
:10262000304A029313601A460024039B9C5462B6FE
:1026300000F074FF32480AF09DF832480AF09AF828
:10264000204611B0BDE8F08F2F4B1A78302300934D
:102650002E4B197804ABFEF75DFE0290D0B12046F8
:1026600059E7302B9DD0084664E71E4B186062B6D0
:1026700027480AF07FF800F051FF012011B0BDE8B3
:10268000F08F1D4B54621A88194B02941E881C4B04
:10269000039395E71F480AF06DF8124B18683AE764
:1026A0000A46C1E7124B13491E8806EB86046400F4
:1026B0000B69DB05FCD5506A80B20B69DF05F7D5E5
:1026C000536A1B1A9C42F8D800230B490C4803900C
:1026D00053620A88029373E71946024B1960084B4C
:1026E00003936DE7FC2B0320004801400400032006
:1026F0000A00032000040242080003200000032017
:10270000002C032000A10108F82B0320F92B032043
:1027100040A3010874A00108743F03209E3B0320DE
:10272000783F03202DE9F04F95B00490002800F089
:1027300028810AF0D5F9B0F57A6F28BF4FF47A6096
:10274000974D82462B68033340F0CF800026DFF898
:102750008CB2FEF793FDCBF8006072B64FF0804468
:10276000904B66625E6228688F4B871C1E6000F08B
:102770000C81C51C00F0E280441C00F0D78030239F
:1027800000938A4B1A788A4B197808ABFEF7C2FD82
:102790008046002800F0CC80864B4FF080441A8899
:1027A000854B02EB82051B8884480593844B7D4F43
:1027B000B3F8009013466D000169C905FCD5616A44
:1027C0001FFA81FC0169C905F6D5616AA1EB0C010C
:1027D000A942F7D3016911F4807107D0796A49459C
:1027E00000F2C780016911F48071F7D161628C46F3
:1027F00074490691B8F1000F1ED04FF0804E03913E
:10280000059E08A902910795DEF824108E42FBD898
:102810006A49029D0969164411F4807F15F8011B6D
:10282000029574D0312974D1039D0CF1010C05F887
:10283000011BE0450395E7D10598002510441C468F
:102840004FF080424FF400784FF0300940F69F7C03
:1028500055495C4E0D60516A8C42FCD8AA4548D956
:102860000499495D312944D0302955D003214FF0D6
:10287000010E0F46516A8842FCD850490969C905C2
:102880003BD4DBF8001086F80090B1F5805F05D2EC
:102890004D4F07F801E00131CBF8001001354249F6
:1028A00065450D601C44184406F10106D3D14FF470
:1028B0007A6000224FF0804100FB03F3069880F815
:1028C0009F2F4A6A9A42FCD34FF400723B4B9A61A5
:1028D00062B600F023FE3B4809F04CFF3B4809F08C
:1028E00049FF002015B0BDE8F08F394809F042FFDC
:1028F0002CE73249C1F81880B8E74FF03101317048
:10290000DBF80010B1F5805FC8D2BE46C0E73029C1
:102910008AD06646079D4FE74FF0007E2749C1F8F1
:1029200018E002214FF0000E0F46A3E7B04633E750
:10293000284809F01FFF1C4B1E682DE71D4B1F4D3B
:102940001A88134602EB820676002969C905FCD570
:10295000606A80B22969CF05F7D5616A091A8E428B
:10296000F8D800216162144909880591154906913A
:1029700062E70D4B1E6062B6174809F0FBFE00F0DF
:10298000CDFD012015B0BDE8F08F0A4B0D491A8826
:10299000094B66621B880691059313464CE700BFFE
:1029A0000400032000480140FC2B0320F82B0320E7
:1029B000F92B03200A000320080003200004024230
:1029C00000000320002C0320783F032000A1010811
:1029D000FCA3010874A0010888A30108743F032028
:1029E0002DE9F04F91B0FEF749FC0022A84B1A6088
:1029F00072B6A849A84B4A621868811C00F06F8122
:102A0000C31C00F07E81441C77D14FF0804CA34959
:102A1000A34B09881E880391A24BA34906EB860E9F
:102A2000B1F800B01F68A14CDFF868924FEA4E0E73
:102A30002169C805FCD5DCF8240080B22169C905EC
:102A4000F6D5DCF82410091A8E45F7D8216911F45F
:102A5000807808D0D9F82410594500F235812169D1
:102A600011F48078F6D1CCF82480002A00F065813A
:102A70008F494FF080478A46029104A90D4603987A
:102A8000796A8142FCD389493044096911F4807F15
:102A900015F8011B2DD031292DD108F1010842452F
:102AA0000AF8011BECD103991A6006FB02114FF0E2
:102AB000000C4FF0804040F69E79DFF8F081DFF89F
:102AC00000A2446A8C42FCD3D8F81040E505C4F358
:102AD000002E25D44A459CBF3027029DF44698BF5E
:102AE000AF546B4D2F68B7F5805F26D30132314468
:102AF000E7E73029D1D047469AE730246D4B6E4A3C
:102B00001978127804AB0094FEF704FC0246002802
:102B10007FF47BAF0290694809F02CFE029A74E7BB
:102B20004A450CF1010C03D84FF03107029DAF5418
:102B3000574D2F68B7F5805F08D2C4F3402444EAAC
:102B40004E040AF80740524C01372760BCF1090FC8
:102B500002F101023144B4D10398DFF838A1534F98
:102B6000DDF808901A60081A0393DAF824405C45EF
:102B70003CD840F68E739A4238D800244FF08043F8
:102B800009EB020C02F1010E5A6A8242FCD3052CB9
:102B90006FD94FF40072BA6103224FF00108154655
:102BA0005A6A8A42FCD33A69D20558D430228CF84A
:102BB0000020374A1268B2F5805F05D2404D05F813
:102BC0000280334D01322A60DAF8242030445A451D
:102BD00031440EEB040854D80134102C0CF1010CD4
:102BE000D2D1DAF8243042465B45C2D94FF0804159
:102BF000039B1A604B6A8342FCD3264D6B6A5B458C
:102C00001AD84FF080434FF0000E4FF0007C4FF485
:102C1000007706EB4600254C40003601C3F824E05F
:102C2000C4F818C0596A8142FCD3A761596AB142FD
:102C3000FCD3696A5945F1D9B2F57A6F23D20023E2
:102C400002998B5462B600F069FC194809F092FDB4
:102C50001C4809F08FFD002011B0BDE8F08F312233
:102C60008CF800200A4A1268B2F5805FACD2A84600
:102C7000A4E74FF00072BA6102224FF00008154637
:102C80008EE7424671E70023029A82F89F3FD9E718
:102C9000743F032000480140040003200800032083
:102CA0000A000320FC2B0320000003200004024242
:102CB000002C0320F92B0320F82B032074A001081B
:102CC000783F032000A101081F6062B61D4809F08B
:102CD00051FD00F023FC012011B0BDE8F08F4FF052
:102CE0008046194C194D1A4B02951A4872621A49BE
:102CF000268800881A68B1F800B0039002FB06012C
:102D0000D5E64FF08042104B14481E8806EB860132
:102D100049000369DF05FCD5546AA4B20369DD05E7
:102D2000F7D5536A1B1B9942F8D80024074D084B6E
:102D30000295084808495462DBE7044803991A6081
:102D40000290B4E688A301080A000320002C0320A7
:102D5000FC2B032008000320000003200004024293
:102D60002DE9F04FAC4C93B023680333012B40F2B4
:102D700071810025DFF8D4B28246FEF77FFACBF8E6
:102D8000005072B64FF08042A44B5D62A44B1D60B0
:102D900055622068811C00F0A081C31C00F0AE8148
:102DA000411C79D12B462C464FF0804E9D4A9E48BF
:102DB00016889E4A06EB86051288DFF86082049228
:102DC0009B4A6D00B2F800909A4A03920269D205BC
:102DD000FCD5DEF8241089B20269D705F6D5DEF8F5
:102DE0002420521A9542F7D8026912F4807208D052
:102DF000D8F824204A4500F2AD80026912F48072AE
:102E0000F6D1CEF82420002C00F08D814FF08047C1
:102E1000884B049902930DF1180C05957B6A8B423F
:102E2000FCD3814B31441B6913F4807F1CF8013BB8
:102E300041D0312B41D1029D013205F8013B944232
:102E40000295EBD1049B06FB0433754A14600AF12A
:102E5000060800254FF0804240F69E7E4FF0310A72
:102E6000DFF8C4C1DFF8E891516A9942FCD3DCF87D
:102E70001010C805C1F3002722D474459EBF302529
:102E800003980555DBF800003D46B0F5805F24D37C
:102E9000611C33440C46E7E730230093664B1A78F5
:102EA000664B197806ABFEF735FA0446002800F0A9
:102EB00004812B4678E7302BBDD01346059D85E76E
:102EC000744598BF039805F1010598BF00F804A068
:102ED000DBF80000B0F5805F08D2C1F3402141EA81
:102EE000470109F800100130CBF80000A845334431
:102EF00004F10101CED84FF08045494A1160049A8F
:102F0000981A6A6A8242FCD34FF000774FF08045EE
:102F1000454A97616A6A9A42FCD3434A126912F49D
:102F2000807232D1DBF80050B5F5805FC0F0AE8022
:102F300040F69E72914204F1020431D8384A30447E
:102F4000146030223344039D6A5440F69F729442C9
:102F50002CD15AE0324A3A481446136009F00AFC70
:102F60002368B3F57A6F52D30023039A82F89F3F08
:102F700062B600F0D3FA2F4809F0FCFB314809F0A3
:102F8000F9FB002013B0BDE8F08FDBF80020B2F5AC
:102F9000805F66D340F69E72914240F2A880023470
:102FA0001F4D94422C6030443344DDD8039A4FF4D3
:102FB000007C54184FF003094FF080424FF0010895
:102FC000214F194DDFF888E0516A8142FCD3C5F8E2
:102FD00018C0516A9942FCD3296911F4807FDBF84B
:102FE000001070D1B1F5805F04D20EF8018001317C
:102FF000CBF80010302104F8011FBC4230443344A8
:10300000E2D140F69F73064A136040F69F73002298
:103010000399CA54ACE700BF0400032000480140F4
:10302000FC2B03200A0003200004024208000320B6
:1030300000000320002C0320F82B0320F92B032091
:1030400040A4010800A101089E3B0320743F032017
:10305000783F0320354809F08DFB012013B0BDE80F
:10306000F08F4FF0020C40F69E75314FA94207F8E1
:1030700002C002F10102CBF8002038D964442D4A85
:10308000AC4214603044334490D96DE740F69E77EB
:10309000DFF89CC0B9420CF8052005F10105CBF81A
:1030A000005004F102047FF649AF224ABC4214608A
:1030B000304433447FF67AAF56E71F4809F05AFB95
:1030C0001C4B1B6870E6B1F5805F04D20EF80190CE
:1030D0000131CBF8001031218DE72C46174B55629A
:1030E0001E88174B174A1B88CDE90323AFE6114A08
:1030F0000234146030443122334424E70F4B124928
:103100001E8806EB860464000B69DF05FCD5506A57
:1031100080B20B69DD05F7D5536A1B1A9C42F8D8BB
:1031200000245462DDE7049B8FE600BF2CA4010855
:10313000783F0320FC2B032074A001080A00032021
:1031400008000320002C032000040242984B2DE9C4
:10315000F04F1B6893B00333012B40F21D81824670
:10316000FEF78CF872B60023924D934A6B626B6A3D
:10317000B2F800B05B4580F0D980904C0AF1060AA5
:1031800000274FF080418A4B4F621E688C4BB21C67
:103190001F6000F0D480F31C00F0E280711C00F08E
:1031A000CC8030230093874B30461A78864B1978B1
:1031B00006ABFEF7AFF88046002800F0C8804FF05D
:1031C000804C824B1888824B00EB800E1B884FEAA4
:1031D0004E0E04932369DA05FCD5DCF8242092B264
:1031E0002369DB05F6D5DCF824309B1A7345F7D349
:1031F000236913F4807307D06B6A5B4500F2C980C2
:10320000236913F48073F7D11A460499CCF824305B
:10321000B8F1000F1DD04FF080476E4B0DF118092B
:10322000039305967B6A8B42FCD32369014413F414
:10323000807F19F8013B21D0312B21D1039E01322F
:1032400006F8013B90450396ECD1DDE9043602FB1C
:1032500000314FF0000C4FF0804701327B6A8B4207
:10326000FCD323690CF1010C13F4807302F1010EFD
:1032700009D0E24501440AD97246EFE7302BDDD090
:103280001746059EA6E79C4601440132E6E74C4BF3
:103290001A604FF08042049BC91A536A8B42FCD3D8
:1032A0004FF000734FF080420144A361536A8B4298
:1032B000FCD34FF40077A7616B6A5B4536D20236C8
:1032C0007FF45EAF4FF080414FF0000C4FF000797B
:1032D0003E4B3A4D1E883E4BDFF8D880B3F800E0F5
:1032E000002472462046C1F824C0C1F824C04B6AAD
:1032F0009A42FCD82B69013013F4807353D0824575
:1033000004F101043244F2D8A2EB0E024B6A9A4255
:10331000FCD8C5F8189032444B6A9A42FCD8AF6189
:10332000D8F824309B45DBD8254B1C6062B600F0F2
:10333000F5F8002013B0BDE8F08FB8463FE7244B06
:103340004F621988214B3A461888049181E7224838
:1033500009F010FA1A4B1F68174BB3F800B02EE7AC
:103360001A4B164A188800EB800C4FEA4C0C136974
:10337000DF05FCD54F6ABFB21369DB05F7D54B6A91
:10338000DB1B6345F8D30022114B4A621988049174
:103390005FE70B4B1F60C9E7104809F0EBF901200C
:1033A00013B0BDE8F08F1846013432449FE700BFE8
:1033B00004000320004801400000032000040242F2
:1033C000FC2B0320F82B0320F92B03200A000320F9
:1033D00008000320002C032074A001082CA401087D
:1033E0002DE9F04F3C4B8346984283B007D83B4BC6
:1033F000984269D94FF028094FF4487E0BE04FF00E
:10340000250940F2EE2E364BB3FBFBFC5FFA8CFC39
:10341000BCF1190F5DD90120314B013080B2B3FBF3
:10342000F0FCBCFBFBFC5FFA8CFCBCF1190FF4D880
:10343000B0F5806F42D201236FF000444FF47A76EA
:103440005A460093274B1F68431C1FFA83FAACF1BE
:103450000208B8EB5C0F4FEA5C0120DD0CF1FF3B8A
:103460005FFA8BFBCDF804A006FB01F5B5FBFCF57C
:10347000BEEB050A48BFA5EB0E0AA2450ADAD14504
:1034800008DB002554460095ABEB0105EDB2F96170
:1034900078613D6201314145E6DBDDF804A0104969
:1034A00098B2B1FBFAFCBCFBF2FCB0F5806F0AF1FC
:1034B000010A5FFA8CFC03D0431CC8E70123009388
:1034C000009803B0BDE8F08F4FF02B0940F26B3E3F
:1034D00099E70120AFE700BF00350C0020A10700ED
:1034E000005A6202983C032038B50C46064D074945
:1034F000074B0A602860074901201C6012F0C2F8DF
:10350000054B186038BD00BF983C0320903C032059
:10351000943C0320A83B0320F83B032030B53F4CEC
:1035200083B020680AF000FC20680AF045FA002801
:1035300051D100223A4D40213A482A71EA602A616D
:103540006A61AA61AA60EA6185F820200BF042FB5B
:10355000206805F124010AF019FB00285BD13249EB
:1035600020680AF013FB002852D1002302222068B1
:10357000114600930AF036FB002846D120680AF075
:1035800077FB00283ED10022012120680AF02EFDA1
:10359000A8BB0022062120680AF028FD60BB072294
:1035A0004FF4F05120680AF021FD10BB0722802162
:1035B00020680AF01BFDC8B900221C4920680AF0E7
:1035C00015FD80B900224FF4602120680AF00EFD3D
:1035D00020B903B030BDFDF7C5FDAAE703B0BDE8D3
:1035E0003040FDF7BFBDFDF7BDFDEBE7FDF7BAFDD0
:1035F000E2E7FDF7B7FDD9E7FDF7B4FDCFE7FDF74B
:10360000B1FDC6E7FDF7AEFDBDE7FDF7ABFDB5E7E4
:10361000FDF7A8FDA9E7FDF7A5FDA0E7983C03206D
:1036200010000320000402424C00032000407100FF
:10363000014B18680AF078BB983C0320082824D86E
:10364000DFE800F0080C1014171A1D2005001448BC
:10365000FFF7C6BE42F21070FFF7C2BE44F620600C
:10366000FFF7BEBE4CF25030FFF7BABE0D48FFF771
:10367000B7BE0D48FFF7B4BE0C48FFF7B1BE0C480B
:10368000FFF7AEBE0B48FFF7ABBE0B4AA0F51C53CD
:10369000103B934201D901207047FFF7A1BE00BF44
:1036A00040420F00A086010048E8010090D00300CE
:1036B00020A1070000350C00301B0F000346054A0F
:1036C0001978002051615978D16199781162DB78BD
:1036D00093617047082B03200246024B00209A6139
:1036E000704700BF082B0320034600B5074A93F834
:1036F00001E093F800C082F810E005499B7881F85A
:1037000000C0537400205DF804FB00BF082B0320A9
:10371000280703202DE9F0470546C0680F4609F049
:10372000C7F9AB68B3F1005F3CD00646824600F1B2
:103730002409254C4FF0FF31206812F0ADF8012824
:10374000F8D1DFF89080D8F8000012F095FA4845DB
:1037500015D202251D4A13792B43137100232068CB
:103760001A46194611F0F2FE00231949022209688F
:103770000868194613F024FC2846BDE8F08729465E
:103780004FF0FF332422D8F8000012F093FA0546D8
:1037900086B94D450CD00D4A0125137943F0080335
:1037A0001371DBE74FF0000A4FF024095646C0E7DB
:1037B0000025D3E7524639464FF0FF33D8F80000D2
:1037C00012F078FA0544E4E7F83B032010000320E8
:1037D000943C0320A03B032030B40122002410209D
:1037E0000A4B04211B684FF440751C82C3E9052075
:1037F000DC6018623F240F209A74C3E90125DC6164
:10380000C3E9092130BC1963D8627047983C032092
:1038100000232DE9F0430C4683B0C9070546019308
:1038200016D4A20707D502212D4A137943F00103CC
:1038300013712B681965630735D4019B2BB14FF0C9
:10384000E0234FF08052C3F8042D03B0BDE8F083AD
:10385000DFF89880224F42464021224B0AF0DCFAE2
:103860007B69D8F80C0001337B6109F021F9DFF89E
:1038700080900646D9F8000012F0FEF906F1280300
:10388000984223D341462822D9F8000001AB12F018
:1038900095FA002EC5D03246D9F80000114901AB87
:1038A00012F08CFABDE704240D4B0F499A690968A0
:1038B00001329A611A7942F008021A712B6808687D
:1038C0000DEB04011C6513F065FCB6E7064ABB6905
:1038D00012680133106801A9BB6113F05BFCA0E71B
:1038E00010000320503C0320903C0320283C032080
:1038F000A43B032010B500240A4A0B491369096848
:1039000082B00868013301A91361019413F042FCED
:10391000019B2BB14FF0E0234FF08052C3F8042DF0
:1039200002B010BD10000320943C032010B5002409
:103930000A4A0B49D369096882B00868013301A9B2
:10394000D361019413F026FC019B2BB14FF0E023CF
:103950004FF08052C3F8042D02B010BD10000320B8
:10396000903C032038B50C46104D29460AF0F4FA75
:10397000A10303D5EB68A3B90D4A1360620309D50F
:103980002B690B4A012B13790CBF43F0040303F09E
:10399000FB031371230303D50122054B83F8202079
:1039A00038BD4FF00042024B1A60E7E7FC3B0320B2
:1039B00010000320F0B500250B7885B0074602956E
:1039C0000395CBB10C460DF1FF3608E02046D5B289
:1039D00009F010F814F8023F06F8010F23B16378DC
:1039E0006A1C0BB3072DF1D18DF808502A466946A1
:1039F0000DF1090014F065FF00230E4C0820C4E906
:103A00000533C4E90133276009F058F8082203465A
:103A10000DEB02010848E36009F056F8204606491C
:103A2000FFF778FE05B0F0BD8DF80850002DDDD110
:103A3000E2E700BFA83C03209C3C032042F20203C3
:103A40002DE9F0430024994289B0445400F2C98022
:103A5000002900F07A8100F1FF3E0139F4467346F7
:103A6000014405E00A2A1CBF025501348B4209D0EB
:103A700013F8012F082AF5D1002CF7D08B4204F15E
:103A8000FF34F5D100218C42015540F363810A4691
:103A90000EEB04031CF8014F202C00F0978092B924
:103AA0009C4501F101010CF101040ED09CF801E0EC
:103AB000BEF1200F00F08C809C4206D01CF8022F33
:103AC000203A18BF01229C45E4D10C46A44914F0C9
:103AD000B3FD0546002800F0AA80A249FCF7B0FB20
:103AE00030B12846A049FCF7ABFB002840F08380AA
:103AF000012C40F2D5809A49002014F09DFD9B498D
:103B00000446FCF79DFB002800F09580204698496C
:103B1000FCF796FB002800F09D8120469549FCF7B4
:103B20008FFB002840F01881934808F023FE93484B
:103B300008F020FE904808F01DFE914808F01AFE9B
:103B4000904808F017FE8E4808F014FE8E4808F0E2
:103B500011FE8E4808F00EFE894808F00BFE8C48D6
:103B600008F008FE8B4808F005FE854808F002FEC4
:103B7000894808F0FFFD894808F0FCFD804808F0FE
:103B8000F9FD874808F0F6FD864808F0F3FD864801
:103B900008F0F0FD854808F0EDFD854808F0EAFDE5
:103BA000844808F0E7FD844808F0E4FD834808F005
:103BB000E1FD834808F0DEFD714808F0DBFD6E484A
:103BC00008F0D8FD7F4808F0D5FD0DE000227AE727
:103BD0009C423FF47AAF1CF8024F202C7FF460AF78
:103BE00071E7794808F0C6FD784808F0C3FD002069
:103BF00009B0BDE8F08328467549FCF721FB002891
:103C00003FF476AF28467349FCF71AFB00283FF4CF
:103C10006FAF28465749FCF713FB002840F061813D
:103C2000022C00F07A816C4808F0A4FDDCE76B48B8
:103C300008F0A0FDD8E7504808F09CFD4F4808F078
:103C400099FD4D4808F096FD4D4808F093FD6448F5
:103C500008F090FD4A4808F08DFD4B4808F08AFDB9
:103C6000604808F087FD464808F084FD484808F0A1
:103C700081FD5D4808F07EFD414808F07BFD464827
:103C800008F078FD594808F075FD3D4808F072FDD0
:103C9000434808F06FFD564808F06CFD554889E729
:103CA000354808F067FD354808F064FD324808F0F3
:103CB00061FD334808F05EFD4F4808F05BFD304879
:103CC00008F058FD4D4808F055FD4D4808F052FDEC
:103CD0004C4808F04FFD4C4808F04CFD4B4808F0AC
:103CE00049FD4B4808F046FD4A4808F043FD4A4864
:103CF00008F040FD494808F03DFD494808F03AFD0C
:103D0000484808F037FD484808F034FD474808F0B7
:103D100031FD474808F02EFD464808F02BFD464887
:103D200008F028FD454808F025FD454808F022FD2B
:103D3000444808F01FFD124808F01CFD424808F0F6
:103D400019FD0D4808F016FD4EE701703F4808F0D8
:103D500011FD49E7FAD0B8E63D4808F00BFD31E720
:103D60006CA401089CA40108A4A40108B8A401083B
:103D700058A60108E0A70108C0A4010800A5010891
:103D800000A10108E8A701083CA50108FCA701085B
:103D900080A5010838A80108A4A501084CA80108BD
:103DA000F8A5010898A80108B8A80108CCA801083E
:103DB000ECA8010800A9010820A9010834A90108FC
:103DC00060A901089CA9010854A4010820C50108A4
:103DD000ACA40108B4A4010808B0010870A401084B
:103DE0002CA501084CA5010888A50108B0A501086B
:103DF00004A6010848A60108F0A9010894AA010830
:103E0000A0AA0108CCAA01081CAB01086CAB0108F0
:103E1000BCAB010828AC010850AC01087CAC01081F
:103E2000DCAC010844AD010890AD0108D4AD010837
:103E300000AE010858AE0108B0AE0108FCAE0108A2
:103E400030AF01087CAF0108E8AF010868A40108A1
:103E500074A90108874808F08DFC874808F08AFC9F
:103E6000844808F087FC854808F084FC844808F002
:103E700081FC824808F07EFC824808F07BFC824886
:103E800008F078FC7D4808F075FC804808F072FC6A
:103E90007F4808F06FFC794808F06CFC7D4808F01A
:103EA00069FC7D4808F066FC744808F063FC7B48B8
:103EB00008F060FC7A4808F05DFC7A4808F05AFC8B
:103EC000794808F057FC794808F054FC784808F025
:103ED00051FC784808F04EFC774808F04BFC7748D6
:103EE00068E628467649FCF7ABF928B9022C6CD075
:103EF000744808F03FFC77E628467349FCF7A0F9C0
:103F0000002851D1012C00F07581A31E012B40F235
:103F1000FB806E4808F02EFC66E66D4914F08CFBC1
:103F200003780446002B3FF45FAE051D413B232B75
:103F300013D8DFE803F0352D251D121212121212CC
:103F40001212121212121212121212121212121251
:103F5000121212121212352D251D5E4808F00AFCAD
:103F600014F8013F002B3FF43FAEA542DED13BE603
:103F7000594808F0FFFB0021442003F097FDEFE7CC
:103F8000564808F0F7FB0021432003F08FFDE7E7D8
:103F9000534808F0EFFB0021422003F087FDDFE7E4
:103FA000504808F0E7FBDBE728464F49FCF748F9A3
:103FB000002851D1012C00F02581A31E012B40F2D5
:103FC000D8804A4808F0D6FB0EE6414914F034FB8D
:103FD00003780446002B3FF407AE051D413B232B1D
:103FE00013D8DFE803F0352D251D1212121212121C
:103FF00012121212121212121212121212121212A1
:10400000121212121212352D251D324808F0B2FB81
:1040100014F8013F002B3FF4E7ADAC42DED1E3E5FD
:10402000334808F0A7FB0121442003F03FFDEFE7F0
:10403000304808F09FFB0121432003F037FDE7E7FC
:104040002D4808F097FB0121422003F02FFDDFE708
:104050002A4808F08FFBDBE728462949FCF7F0F8EF
:10406000002840F0DC80032C00F0FA80254808F09E
:1040700081FBB9E5C0A4010800A5010800A1010861
:1040800060A601083CA5010874A6010880A50108E6
:10409000B0A60108A4A50108C4A60108F8A5010856
:1040A00010A7010830A7010840A7010860A7010870
:1040B00070A7010890A70108A0A70108CCA70108D4
:1040C00058A6010838B1010810B2010834B201083D
:1040D0006CA4010810B10108ECB00108C8B00108D7
:1040E000A4B0010858B00108E0B2010804B3010807
:1040F000ECB10108C8B10108A4B1010888B10108F8
:10410000A0B30108A4B30108B149002014F094FA47
:1041100008F096FCB0F5006F68D2AE4D022C286016
:104120004FF0000000F09480A94914F085FA06468B
:1041300008F0D6FCC10755D4102853D888B1431EC7
:10414000C3F34E04B71CDFF8208307EB4407304667
:1041500008F050FC0236BE4208F8010FF7D1631C8C
:10416000D8B208F0ABFC03469B48EB6008F002FBBA
:104170003AE59749002014F05FFA08F061FCB0F5C9
:10418000006F80F0A081954F022C386000F0918183
:1041900011F064F8282111F063F88D49002014F023
:1041A0004BFA064608F09CFCC20704461AD41028B5
:1041B00018D83546DFF8B48205E0284608F01AFC26
:1041C000023508F8010BAB1B9BB29C42F5D8601C72
:1041D000C0F3470008F072FC03468148FB6008F01A
:1041E000C9FA01E57F4808F0C5FAFDE47E4808F009
:1041F000C1FAF9E44FF0FF32764B7C481A6008F0C0
:10420000B9FAF1E44FF0FF32744B79481A6008F0C4
:10421000B1FA11F023F8182111F022F8E4E428464D
:104220007449FCF70DF828B9032C67D0724808F0E0
:10423000A1FAD9E428467149FCF702F8002840F0B9
:104240006981022C00F044816D4808F093FACBE4B8
:1042500008F034FC03466B48EB6008F08BFAC3E4CB
:104260005B49002014F0E8F959490546002014F094
:10427000E3F900210A2214F0A5F863490446284610
:10428000FBF7DEFF002800F00E8128465F49FBF7B0
:10429000D7FF002800F0018128465D49FBF7D0FFD9
:1042A000002800F0F48028465A49FBF7C9FF00288F
:1042B00000F0E78028465849FBF7C2FF002800F0CD
:1042C000D78028465549FBF7BBFF002877D0284602
:1042D0005349FBF7B5FF002868D028465149FBF742
:1042E000AFFF00285ED1002C41D14F4808F042FAC0
:1042F00002224E4BDA60FFF711F975E4344914F0ED
:104300009BF94B490446FBF79BFF002847D020460A
:104310004849FBF795FF00283ED020464649FBF769
:104320008FFF002835D020464449FBF789FF68B34A
:1043300020464349FBF784FF20BB424808F01AFAA5
:1043400000242349002014F077F9054608F0C8FB43
:10435000421E92B20D2A034610D8DB070ED4204627
:104360002946FFF727FB384808F004FA3CE43748B1
:1043700008F000FA00222D4BDA60BCE7344808F060
:10438000F9F931E4334808F0F5F9D9E740F2E3747C
:10439000D7E740F2E274D4E740F2E174D1E740F2AB
:1043A000DF74CEE72C4808F0E5F9A4E7003C18BF1D
:1043B00001242A4B2A481C7008F0DCF99BE7003CDA
:1043C00018BF0124194B27485C7408F0D3F992E711
:1043D0006CA40108003D0320B8B20108D43C0320BE
:1043E00078B30108A0B201085CB2010818B2010854
:1043F000E8B2010804B5010808B50108F0B50108E4
:10440000F8B5010880B2010828A20108D8B3010854
:10441000F4B3010810B4010828B401085CB4010821
:1044200088B40108B4B40108B8B40108082B03200B
:1044300044B5010848B501084CB5010850B501085C
:1044400054B5010858B50108DCB50108D4B4010819
:10445000B0B501088CB50108ECB4010828070320A9
:1044600094B401086CB40108F73C0320CC3C032051
:10447000003C18BF0124964B96481C7408F07AF94A
:1044800039E7934B94489C6108F074F933E7904BFB
:1044900092481C6208F06EF92DE78D4B9048DC6164
:1044A00008F068F927E78A4B8E485C6108F062F9EA
:1044B00021E7002008F002FB03468B48FB6008F070
:1044C00059F9FFF791BB894808F054F9FFF78CBB05
:1044D000874914F0B1F8451E041D15F8012FA2F10B
:1044E0002A03002A3FF480ABA5423FF47DAB1A2B90
:1044F00000F2C480DFE803F0B9C2C2C2C2C2C2C2C5
:10450000C2C2C2C2C2C2C2C2C2C2C2C2C2C2C2B598
:10451000AC241B0028467749FBF792FE00283AD1CD
:10452000022C16D0744808F025F9FFF75DBB7348DC
:1045300008F020F940F2E3707149FFF73BFACCE74D
:10454000704808F017F940F2E2706D49FFF732FA4F
:10455000C3E7674914F070F8451E041D15F8012FD4
:10456000A2F12A03002A3FF43FABA5423FF43CAB43
:104570001A2B00F29080DFE803F0858E8E8E8E8EEF
:104580008E8E8E8E8E8E8E8E8E8E8E8E8E8E8E8E4B
:104590008E675E251C0028465B49FBF751FE0646E8
:1045A00000283AD1012C16D0584808F0E3F8FFF75C
:1045B0001BBB574808F0DEF840F2E3705549FFF79F
:1045C000F9F9CBE7544808F0D5F840F2E2705149C8
:1045D000FFF7F0F9C2E7464914F02EF84F4808F00B
:1045E000C9F8304603F09CFA322010F04BFE214609
:1045F000422003F05BFA06F0F5FB10F043FE214683
:10460000432003F053FA06F0EDFB10F03BFE214689
:10461000442003F04BFAFFF7E7BA28464049FBF77E
:104620000FFE002840F08C80022C38D03D4808F066
:10463000A1F8FFF7D9BA3C4808F09CF840F2E170C5
:104640003449FFF7B7F989E7384808F093F885E768
:10465000374808F08FF840F2E1702949FFF7AAF9CE
:104660003BE7324808F086F837E7324808F082F82E
:1046700040F2DF702249FFF79DF92EE72E4808F03F
:1046800079F82AE72D4808F075F840F2DF702149E3
:10469000FFF790F962E7284808F06CF85EE71449E4
:1046A00013F0CAFF451E041D15F8012FA2F14103A6
:1046B000002A3FF499AAA5423FF496AA032B00F2E0
:1046C0006C83DFE813F01C0213020A025F0000BFD4
:1046D000082B032034B4010814B40108FCB301080A
:1046E000E0B30108C0B3010858B301082CB30108B6
:1046F0006CA40108A8B60108B0B6010894B6010878
:1047000038B6010880B601085CB7010868B701082F
:104710003CB70108F0B601081CB7010890B70108C2
:10472000ECB70108F8B70108FCB6010844B6010867
:104730006CB6010814B601088CB50108C8B60108AA
:104740002846A449FBF77CFD002800F08B81284611
:10475000A149FBF775FD002800F0848128469F4998
:10476000FBF76EFD002800F0318128469C49FBF7DD
:1047700067FD00284AD1022C0DD09A4807F0FAFFB5
:10478000FFF732BA984807F0F5FF40F2E370974917
:10479000FFF710F988E79649002013F04DFF95497F
:1047A0000446FBF74DFD002800F0088120469249A1
:1047B000FBF746FD002800F0F98020468F49FBF703
:1047C0003FFD002800F0728220468D49FBF738FD3E
:1047D000002800F0638220468A49FBF731FD00285B
:1047E00000F0548220468849FBF72AFD002800F09B
:1047F000458220468549FBF723FD80BB072005F055
:10480000EBFA834807F0B6FFFFF7EEB92846814977
:10481000FBF716FD002800F08A8028467E49FBF74A
:104820000FFD002800F0838028467C49FBF708FD37
:1048300000287CD028467A49FBF702FD002876D074
:1048400028467849FBF7FCFC00285ED1012C21D0DA
:10485000022C09D9744807F08DFFFFF7C5B97348DA
:1048600007F088FFFFF7C0B9614913F0E5FE451E68
:10487000C41C15F8012FA2F14103002A3FF4B4A98A
:10488000A5423FF4B1A9032B00F28382DFE803F0D5
:10489000392A1B0C664807F06DFFC82010F0F2FCA7
:1048A00008F014FEFFF7A0B9624807F063FF00218B
:1048B000442003F0FBF8322010F0E4FC01214420F6
:1048C00003F0F4F8D5E75C4807F054FF00214320DB
:1048D00003F0ECF8322010F0D5FC0121432003F066
:1048E000E5F8C6E7554807F045FF0021422003F0F0
:1048F000DDF8322010F0C6FC0121422003F0D6F88A
:10490000B7E74F4807F036FFB3E728464D49FBF7B6
:1049100097FC002840D028464B49FBF791FC38BB58
:10492000022C07D0494807F025FFFFF75DB90120A9
:10493000FFF75EB92E4913F07FFE2E490546FBF7BF
:104940007FFC002800F0C28128462B49FBF778FC49
:10495000002800F0B38128462849FBF771FC00BB12
:10496000032004F05BFF3A4807F004FFFFF73CB96F
:1049700028463849FBF764FC002840F0B48101F078
:10498000EDF8002800F0AA81334807F0F3FE01207B
:1049900001F0F4F8FFF728B9304807F0EBFEFFF715
:1049A00023B92F4807F0E6FEFFF71EB9022005F0F5
:1049B00013FA174807F0DEFEFFF716B9012005F0DD
:1049C0000BFA134807F0D6FEFFF70EB906F066F9AA
:1049D000FFF70AB9ACB80108B0B801085CC101081A
:1049E000B8A4010864C1010868B8010838B8010812
:1049F0006CA40108DCB3010874C60108C0C1010839
:104A0000C4C10108C8C10108CCC10108D0C1010856
:104A1000B4C1010804C2010808C2010810C201089B
:104A200018C2010820C2010878C20108D4C10108D7
:104A300028C2010870C301085CC3010848C301080B
:104A4000FCC2010884C3010808C4010810C401089D
:104A500058C401089CC40108A4C401088CC30108FF
:104A60006CC40108012C40F25C810020CD4913F098
:104A7000E3FD054600283FF4B7A8CB49FBF7E0FB70
:104A8000002800F049812846C849FBF7D9FB0028D7
:104A900000F03E812846C649FBF7D2FB002800F013
:104AA0002D812846C349FBF7CBFB0646002800F0C2
:104AB00090802846C049FBF7C3FB002800F08280A5
:104AC0002846BE49FBF7BCFB064678BB032C1AD030
:104AD000BB4807F04FFEFFF787B8BA4807F04AFE19
:104AE00040F2E270B849FEF765FFDDE5B74807F030
:104AF00041FE40F2E170B449FEF75CFFD4E5B448F2
:104B000007F038FED0E5A74913F096FD0A216A4662
:104B10008DF8006008F01EF89DF800300446012B67
:104B200010D0AC4807F026FEFFF75EB82846AA4929
:104B3000FBF786FB48BB032C0FD0A84807F01AFEF2
:104B4000FFF752B8A64807F015FEE0B2FEF7FEFAEE
:104B5000A44807F00FFEFFF747B89249002013F072
:104B60006BFD00230A216A468DF8003007F0F2FF42
:104B70009DF800300446012BD3D1994807F0FAFD87
:104B8000E0B2FEF7EDF8FFF72FB828469649FBF79D
:104B900057FB002800F0EF8028469449FBF750FBB4
:104BA000002800F0E18028469149FBF749FB0028E6
:104BB00040F0C780042C00F0B9808E4807F0DAFD81
:104BC000FFF712B88C4807F0D5FDFDF785FCFFF71D
:104BD0000BB88A4807F0CEFDFDF7EEFA4FF47A7372
:104BE0000446B0FBF3F0694603FB104407F0E0FF16
:104BF0000A2103462027B4FBF1F24FF02E09642569
:104C000003EB0708E84408F8209CB2FBF1F8B4FB7A
:104C1000F5F54FF0250E4FF00D0C01FB124401FB92
:104C200018220DEB0708591C58FA81F1303501F8AC
:104C3000205C991C303258FA81F101F8202CDA1CE2
:104C400058FA82F2303402F8204C1A1D58FA82F2D7
:104C500002F8207C5A1D58FA82F202F820EC9A1DC4
:104C6000073358FA82F258FA83F302F820CC6846E8
:104C700003F8206C07F07EFDFEF7B6BF062005F0B6
:104C8000ABF85F4807F076FDFEF7AEBF052005F0F4
:104C9000A3F85B4807F06EFDFEF7A6BF042005F001
:104CA0009BF8574807F066FDFEF79EBF032005F00E
:104CB00093F8534807F05EFDFEF796BF204604F0D8
:104CC000ADFD504807F056FDFEF78EBF012004F001
:104CD000A5FD4D4807F04EFDFEF786BF4B4807F097
:104CE00049FDFEF781BF4A4807F044FD284607F01A
:104CF00041FD484807F03EFDFEF776BF464807F005
:104D000039FDFDF713FA454807F034FDFEF76CBF97
:104D1000FDF772FBFEF768BF414807F02BFDFEF779
:104D200063BF404807F026FDFEF75EBF1D4913F044
:104D300083FCFDF73BF868B92A4807F01BFDFEF736
:104D400053BF28463849FBF77BFA40B9FDF75AF9BB
:104D5000FEF74ABF354807F00DFDFEF745BF344862
:104D600007F008FDFEF740BF324807F003FDFDF7EE
:104D700037FEFEF739BF304807F0FCFC032C7FF408
:104D80001CAF0849002013F057FCFDF7CBFCFEF7E1
:104D90002BBF2A4807F0EEFC6BE5284807F0EAFC39
:104DA00082E400BF6CA401089CA40108BCBF0108F8
:104DB000C4BF0108DCBF0108FCBF01081CC001081A
:104DC00024C0010844B8010838B8010814B8010823
:104DD00044B601085CC0010870C001087CC001082D
:104DE00048C0010854C00108A4C00108D8C0010887
:104DF000FCC00108B8C0010804C00108E4BF0108F4
:104E0000B4C1010844C4010830C40108B4C4010895
:104E1000C8C40108DCC40108C8BF0108D4BF010828
:104E2000F4B80108B8B801081CC1010800C10108A4
:104E300024C10108E0C00108ACC001088CB8010819
:104E40002DE9F04FA1B005460E4605F01BFF0128E5
:104E500000F086812B78A3F13002012A19D90022B3
:104E6000904FCDE90B227979012900F0FD80DFF820
:104E70003882D8F800200024752BCDE90D440A9221
:104E800040F08A80132E00F07281002021B0BDE82E
:104E9000F08F4FF400116A780C91302A00F0F08006
:104EA0004FF480107F4F0B90797901296AD000234D
:104EB0007D49722A0968CDE90D330A9105F101098E
:104EC00000F0FA8000F2F680522A02D0542A40F014
:104ED000E38001242246B71A092F40F2DD804FF00B
:104EE00080434FF0000A601C28440793CDF820A0AF
:104EF00007F0B6FD069004F10900284407F074FDA0
:104F000099F800308046522B099003D14FF000539E
:104F1000D0460893404607F0CBFD0530B7EB400F75
:104F200040F0BA800A34013EB44238BF00270DD2A7
:104F3000281907F05FFD0234E4B220AB53FA87F37F
:104F4000B44203F8400C07F10107F1D307F0DAFB94
:104F500010AC0121554806AE07F0EAFB2146304669
:104F6000FEF7D8FB022840F0EF8007F0D7FB02E005
:104F70000A2010F087F921463046FEF7CBFB0228C5
:104F8000F6D0E3E0721EA95C692900F024840022B7
:104F90000124CDE90D220A92295D2246722905EBF2
:104FA000040900F08B8068D8522994D0542992D0FB
:104FB000233B562B70D8DFE813F02A016F00EB007B
:104FC00007026F006F006F006F006F006F006F00CF
:104FD0006F006F006F006F006F006F006F006F0059
:104FE0006F006F006F006F006F006F006F006F0049
:104FF0006F00DE009C026F006F0095027402670272
:10500000DF02CE02DE00CA02C202FC02F00214037A
:10501000A902B6036F006F006F0094036F006F006A
:10502000E1037003C6038903BC036F006F006F00C8
:10503000E3006F006F001602E6007C0362036F005E
:1050400052036F00DE0047033F032703FC01E90121
:10505000D3016F00810159016F0043016F006F00A0
:105060003901320135022402721EA95C69290ABF86
:10507000164600224FF00042FDE6742998D11DE04B
:105080000022084F0B92797901293FF47BAF064B40
:105090000D921B680E920A930121054807F0FCFA55
:1050A000F3E600BF680103201000032000A10108FF
:1050B000D89F0108742AEFD101242246B71A042F81
:1050C000EAD94FF0000A601C2844CDE907AA07F08E
:1050D000B7FC0690201D284407F086FC99F80030A4
:1050E0008046722B099003D14FF00053D0460893AD
:1050F000404607F0DDFC052300B203EB40039F426E
:10510000CAD10534013EA64288BF00270DD928190F
:1051100007F070FC0234E4B220AB53FA87F3B442D8
:1051200003F8400C07F10107F1D307F0EBFA10ACDC
:105130000121C54806AE07F0FBFA21463046FEF7CE
:10514000E9FA022800F0518307F0E8FA4046069D8C
:1051500007F0AEFC22460146284601F0DFFC94E64B
:105160000421BA4807F098FA05F098FD8DE6284624
:1051700001F04EFE89E61621B54807F08DFA84E667
:10518000B44807F0F7FA0121AF4807F085FA7CE64A
:10519000032E81D96F1C384607F052FC043E4FEABB
:1051A0005609C6F34F06B04204467FF475AF05F1C9
:1051B000040841461FFA89F210AEA74807F0FAFB2F
:1051C00011F0D0F92246A54BA349009606F042FA09
:1051D0003946BDF8400007F047FBBDF84020404687
:1051E0009E4907F0E9FA0D22BDF840302846023307
:1051F00005F813205B00591C07F04EFA11F0B2F9C4
:105200002246964B9449009607F0DEF93DE6012EC2
:105210007FF442AF924807F0ADFA304636E6FEF72B
:105220007DF90121884807F037FA2EE6022E7FF437
:1052300033AF6B78302B0CBF002301237B71A2E7C7
:10524000052E7FF429AF0126864CA819666107F068
:10525000D1FB0346E81CE36107F0CCFB2062FEF7BC
:105260005DF93146784807F017FA0EE67E4807F0F8
:1052700081FA40217B4808F0A9FE07F091FA7B4CA7
:10528000784808F0ADFE07F08BFA206810F0F4FCC7
:1052900007F086FA2068764C10F0FEFC07F080FAE2
:1052A000206810F0E9FC07F07BFA206810F0F4FCAD
:1052B00007F076FA644807F05DFAE6E5022E7FF41F
:1052C000EBAE6B78423B022B3FF6E6AE00234FF489
:1052D00000124FF48011BB70CDE90B12099340F21C
:1052E00081123B7000234FF01409CDE90623DFF84B
:1052F000888110AC06AE002002F012FCFEF76CFABA
:10530000FEF70CF964200FF0BDFF6878012102F070
:10531000EBFB6878012102F0C9FB48460FF0B2FFB1
:1053200002E00A200FF0AEFF21463046FEF7F2F908
:105330000228F6D032200FF0A5FFD8F8143009F17A
:10534000140913B9B9F5D27FD5D1D8F81430002B90
:105350003FF4A2AE01213C48397007F09DF994E575
:10536000012E7FF499AE3146374807F095F9414850
:1053700001F0FCFD002002F0D3FB002002F0EAFB6C
:1053800064200FF07FFF08F0A1F87EE5042E00F006
:10539000D982092E7FF480AE681C07F061FB0346BA
:1053A000354A23F0004301212748136507F074F9BB
:1053B0006BE50121244807F06FF90123294A3B706E
:1053C000D360FEF7ABF860E5062E7FF465AE0522EC
:1053D0002A49681C13F005F9002840F0A3822848E8
:1053E00007F0C8F9CFE6022E7FF456AE6B781D4A5F
:1053F000303B18BF012301211348137407F04CF907
:1054000043E5032E7FF448AE6878A0F14203022BF7
:105410003FF642AEAB78302B0CBF0021012102F0E9
:1054200045FBB0E67822174B8DF84020D3F8900565
:105430000DF1410107F0E2F90D230A2110A88DF8C2
:10544000493007F029F920E500A101082CC5010821
:105450008CC501085CC60108B4660120B056012065
:105460005CC50108082B0320A4C50108A43B032048
:10547000A03B0320ACC501081000032070C6010842
:1054800078C601080000FA0B10A9B34808F064FDC3
:1054900002A9B14808F088FD10A902A801F01EFD7C
:1054A000F3E4AE4807F01CFB431C9E427FF4F4ADCE
:1054B000AA4807F015FBA9490246681C13F0A9F891
:1054C00000287FF4E9AD0121A54807F0E5F8C820E0
:1054D0000FF0D8FE03F024F9002840F0688203F0B2
:1054E0006BF9D9E5002301219D483B7007F0D4F802
:1054F000CBE4022E7FF4D0AD6B78302B00F04A82E3
:10550000312B7FF440AE01233B713CE64E23954D99
:10551000954E0DF141048DF8403015F8040B2146ED
:1055200007F0DAF9B54204F10204F6D1192110A806
:1055300007F0B2F801218A4807F0AEF8A5E44A2343
:105540008DF8403005F05CFC0DF1410172E78748B1
:1055500001F0A4FC99E4032E00F01082052E7FF4E4
:105560009BAD681C07F046FA03467B4CE81CA36120
:1055700007F040FAA06206E646237C4A0DF141019D
:1055800010798DF8403007F0A7F90D23042110A8F9
:105590008DF8433007F080F877E40121704807F078
:1055A0007BF8022101236C4AD1603B70FDF7B6FF06
:1055B0006BE4072E7FF470AD681C07F01BFA0346FE
:1055C000654CE81C636207F015FA0346681DE36248
:1055D00007F010FA034601216148236307F05CF8E5
:1055E00053E4042E00F0BC81092E7FF455AD681CF5
:1055F00007F036FA03465D4A23F00043012158487C
:10560000D36407F049F840E4092E7FF445AD681CE7
:1056100007F0FCF90346504C681D636107F0EAF996
:105620000346E81DE36107F0E5F9034601214C4814
:10563000236207F031F828E46A238DF8403005F042
:10564000D1FB0DF141019EE7022E7FF425AD6B7871
:105650004148302B00F0A28108F0E6FA93E5022ED3
:105660007FF41AAD6B78302B00F08F81312B0CBF9B
:105670004FF480724FF44072374B9A6083E5022EEC
:105680007FF40AAD6B78302B00F08C81312B7FF4E6
:105690007AAD012001F064FC75E5022E7FF4FCACCC
:1056A0006B78303B032B3FF6F7ACDFE803F09289D1
:1056B000877D022E7FF4F0AC6B78302B40F0378181
:1056C000012100232A4A1170BB705CE5022E7FF491
:1056D000E3AC6B78302B0CBF0020012002F020FAE5
:1056E00051E5B31E062B3FF6D7AC01220020214C1A
:1056F000A9182E4411F8013B00EB8000303B03EB6E
:105700004000DBB20A2B28BF0022A04288BF002243
:105710008E42EFD1012A7FF4BFACFDF78FFF002846
:105720007FF4BAAC2FE501210D4806F0B5FF00214A
:1057300038E7022E7FF4B0AC6B78302B0CBF00231F
:105740000123FB701FE510F013FF10285AD90A48F7
:1057500007F010F8FFF799BB082B0320A8C5010834
:1057600000A101089005FA0BC005FA0B10000320F8
:105770009200032040420F00BCC501080F218E4853
:1057800006F08AFF0C218D4806F086FF01218C4827
:1057900006F082FF09218B4806F07EFF02218A482D
:1057A00006F07AFFFFF771BB0322884B012188487E
:1057B000DA625A6406F070FFFFF767BB0222F4E773
:1057C0000121824B8248D962596406F065FFFFF7D8
:1057D0005CBB0022E9E74FF000411646002201249D
:1057E000CDE90D220A91FFF7D7BB06F097FF02E043
:1057F0000A200FF047FD21463046FDF78BFF0228B7
:10580000F6D0A3E4734806F0B5FF10F0B1FE02AA8B
:105810000146714811F008FA10AC704806F0AAFF72
:1058200000212246029807F071F8204606F0A2FFF8
:105830006B4806F09FFF4FF00008674F694E63E02A
:1058400064210AEBCA0207EB820292694FEACA0599
:1058500001FB02F2B2FBF3F35FFA83FB2246002165
:10586000504607F053F8204606F084FF5E4806F0E5
:1058700081FF05EB0A0307EB8309D9F8040006F062
:1058800079FFD9F80400FAF7E5FC07288CBF304609
:10589000564806F06FFF05EB0A0307EB83031B7BFB
:1058A0005544052B96BF524A524852F8230006F041
:1058B00061FF22460021584607F028F8304606F0DE
:1058C00059FF204606F056FF07EB85054A4806F0CB
:1058D00051FF22460021288C07F018F8304606F0C8
:1058E00049FF204606F046FF304606F043FF2246B9
:1058F0000021A86907F00AF8204606F03BFF34486B
:1059000006F038FF08F1010810F032FE5FFA88FA5D
:1059100050457FF6BAAA029B002B91D19B464FEAD5
:10592000CA059BE7354806F025FFFFF7AEBA00240D
:10593000334B3C70DC60FDF7F1FD0122314BBA7056
:105940001C7020E4681C07F07BF803461F4AC3F371
:105950000A0301211E48936306F09EFEFFF795BAE5
:10596000681C07F06DF80346184AC3F30A030121C7
:105970001748536306F090FEFFF787BA681C07F0DC
:1059800039F81F4B9861FFF7FEBB00221C4B9A6051
:10599000FFF7F9BB00233B71FFF7F5BB08F056F9A1
:1059A000FFF7F1BB002001F0DBFAFFF7ECBB13F0CF
:1059B0000BFDFFF771BB00BF34C5010844C50108EA
:1059C0006CA4010850C5010848C601081000032056
:1059D00000A10108CCC501087054012018C60108B7
:1059E00038C6010854C601084CC6010850C6010853
:1059F000A8D1010824C5010858C6010890C60108AD
:105A0000082B032092000320024A034B10801980C8
:105A1000704700BF640003202A3D03202DE9F041B8
:105A200000254FF400780E46384B394FC3E9005536
:105A3000C3E90255374B384A1D80384B38491D8021
:105A4000384BA2F800801D80374BB5221D70374BB4
:105A5000044638461D7012F034FF3B22294607F1F8
:105A6000B50012F0CEFD002E4AD0204607F2FF13FB
:105A7000344410F8012BA04203F8012FF9D1002281
:105A800006F500702A4B80B2B0F5805FC3E90022B2
:105A900006D0C6F56062002192B2384412F0B1FD22
:105AA0000024244B4FF48062214623481C7012F0DE
:105AB000A8FD224A224B1588224665F30F0465F3A0
:105AC0000F0203F5905065F31F4465F31F42C3E9CD
:105AD000004208339842FAD1032500221821194BBD
