:020000040800F2
:100000000000042015AA0008D1A70008D5A7000801
:10001000D9A70008DDA70008E1A7000865AA000825
:10002000000000000000000000000000014E010878
:10003000E5A7000800000000914D010865260108B1
:1000400065AA000865AA000865AA000865AA000854
:1000500065AA000865AA000865AA000865AA000844
:1000600065AA000865AA000865AA000865AA000834
:1000700065AA000865AA000865AA000865AA000824
:1000800065AA000865AA000865AA000865AA000814
:1000900065AA000865AA000865AA000865AA000804
:1000A00065AA000865AA000865AA000865AA0008F4
:1000B00065AA0008E9A70008F5A7000865AA0008D6
:1000C00065AA000865AA000865AA000865AA0008D4
:1000D00065AA000865AA000865AA000801A800082A
:1000E0000DA8000865AA000819A8000865AA00085C
:1000F00065AA000865AA000865AA000865AA0008A4
:1001000065AA000825A8000831A8000865AA00080B
:1001100065AA000865AA000865AA000865AA000883
:1001200065AA00083DA8000849A8000865AA0008BB
:1001300055A8000865AA000865AA000865AA000875
:1001400065AA000865AA000861A8000865AA000859
:1001500065AA000865AA000865AA000865AA000843
:1001600065AA00086DA8000865AA000865AA00082D
:1001700065AA00080000000065AA00080000000051
:1001800079A8000865AA000865AA000865AA000801
:1001900065AA000865AA000865AA000865AA000803
:1001A00065AA000865AA000865AA000865AA0008F3
:1001B00065AA00080000000085A8000865AA0008DC
:1001C00065AA00080000000065AA000865AA0008EA
:1001D00065AA000865AA000865AA000865AA0008C3
:1001E00065AA000865AA000865AA000865AA0008B3
:0401F000000000000B
:1002000010B5054C237833B9044B13B10448AFF350
:1002100000800123237010BD300703200000000080
:100220004468010808B5034B1BB103490348AFF309
:10023000008008BD00000000340703204468010866
:1002400010F8012B11F8013B012A28BF9A42F7D080
:10025000D01A7047034613F8012B002AFBD1181A55
:1002600001387047704700BF2DE9F041234C244D01
:10027000244E254FDFF8948082B04FF0FF330222E6
:1002800020680DF1060113F065F8022807D02B78DD
:10029000012B29D00121304609F002FEEDE742F2A0
:1002A0000303BDF806209A42F1D841464FF0FF33D0
:1002B000206813F04FF8BDF806108142E7D14046A0
:1002C00004F0AAF90028D8D12B78BDF80610012B2C
:1002D0000E480DD002F050FB0128CED12B78B3FA96
:1002E00083F35B092B70C8E7384609F047FEC4E783
:1002F00001F0EEFB0128C0D1F0E700BF5008032059
:100300002408032070740108507401083CB70020D1
:100310002DE9F04F7E4CDFF81482DFF808927D4F14
:100320007D4E9BB04FF0FF3328226946206813F0C2
:1003300011F82828F6D1039809F0BEFF824600285C
:1003400040F09380029B002B6DD10098D8F80030CC
:10035000984200F0928051460AAA04F07DF913F009
:1003600087FB0AA90246684605F098F813F080FB5F
:100370000AA90246684606F0D7FF13F079FB0AA9DE
:100380000246684604F046F93B78002BCAD0069B2B
:10039000B3F5001F7FD00121BAF1080F28BF4FF03D
:1003A000080A00200D465FFA8AFADDE90132002AC8
:1003B00069D13144002B00F09D80542333540098C0
:1003C00009F020FE0544EDB2069B7119B3F5001F3C
:1003D0006CD00AF00F0009F093FE0544EDB2BAF1BB
:1003E000000F0BD00AAB9B469A441BF8010B711906
:1003F00009F076FEDA450544EDB2F6D1FB78002B24
:100400005CD17B791BB1069BB3F5001F76D00D2321
:10041000691C4148C9B2735509F042FD002881D0DA
:1004200000233B707EE7B3F1005FA6D1009BB3F5DC
:10043000E06FA2D1C9F80030039B0199082B28BFB7
:1004400008231A460023C9F80410C9F80C203349C0
:1004500008223348C9E90533C9F8083009F038FFE4
:100460002F49304801F0A0F987E702464FF0FF33EB
:1004700020680AA912F06EFF64E72B492B4801F0AF
:1004800093F9009867E753B352234FF0000A3354AF
:100490003144009894E7059B0221B3F5801F14BFF7
:1004A0003023312301200D4633707EE7039800F09E
:1004B0000F0009F025FE2B18DDB290E713F0D8FAF3
:1004C0004EF660221A4B7119A3FB00C39B0B02FB73
:1004D000130080B209F0E2FD2B18DDB291E79A46D5
:1004E000722333540098314480B209F0C1FD2B18B7
:1004F000DDB269E7742333540098F5E7049BB3F148
:10050000004F84D1692373550135EDB27FE700BFF9
:100510008C2B0320580103203CB500209005FA0BDA
:100520005407032060070320E02C0320E82C03205D
:1005300073B2E7452DE9F0411F4DDFF884801F4F6E
:100540009AB0002404EBC40101AEC4F124024FF0C0
:10055000FF33286806EB810112F0FCFE0444232CD3
:10056000F0D9049809F0A8FE039B0646B3F1005F9A
:1005700000D0A0B938460BF093F850B138460AAA1B
:1005800001A90AF047FFD8F80C300133C8F80C3045
:10059000D7E74FF0FF31012013F022FFEAE70024F4
:1005A0000AA9321B21444FF0FF33286812F0D2FE13
:1005B0000444A642F4D8DDE7882B0320982A0320C0
:1005C000000003202DE9F04182B004F03FF800F074
:1005D000EFFF05F063F800F085FD07F01DFC13F058
:1005E00047FA04F00DF813F043FA04F00DF824482C
:1005F0000EF0CCFF23480EF091FF2349234806F06C
:10060000B1FD234F05F018FD224DDFF89080224EFA
:1006100005E001330CD10A2101A813F091FB13F07E
:1006200027FA3B68019001332B68F2D101330BD0DC
:100630004FF47A7401E0013CEDD03146284601F0D8
:10064000B3F80028F7D0E6E707F0E4FB019807F0DD
:10065000E9FB019800F048FD98F800304BB1019893
:1006600003F0DCFF019804F017FF019806F090FDFD
:10067000D1E7019804F002F9019803F0C3FFEEE717
:100680001C28032084270320401B03203829032033
:10069000E82C0320BC2C0320B42C03208200032070
:1006A0002DE9F04700272A4D2A4EDFF8ACA0DFF8ED
:1006B000AC90DFF8AC80A4B016E0630203D53379C8
:1006C00043F08003337199F8003033B1099B23B1B3
:1006D000642012F05DF800F06BFF0023022219463F
:1006E000D8F8000013F0F2FE4FF0FF31012013F0B4
:1006F00077FE14F055FA28460BF028F9044604A9B1
:1007000028460AF089FF694628460AF0ADFF5422C0
:1007100031460FA8B46015F020FB2F66169BB3F589
:10072000003F02D9B3689A020CD414F047FA9AF841
:100730000030012BC1D1234668460FAA04A904F05A
:10074000B1F9BAE7012386F8203000F0BBFFECE7EF
:10075000982A032000000320882D0320500703203F
:10076000F01F032000232DE9F04784B05B4C5C4D63
:100770005C4FDFF87481DFF874910DF10E068DF88F
:100780000B3004E04FF0FF31002013F029FE206809
:1007900012F008FD0028F5D04FF0FF330122206849
:1007A0000DF10B0112F0D6FD0128EBD1206812F0FB
:1007B000F9FC0128E6D94FF0FF330222206803A993
:1007C00012F0C8FD0228DDD1BDF80C20B2F5805F23
:1007D000D8D2002A55D19DF80BA0BAF1000F16D13E
:1007E00013F046F93B462946BDF80C20009608F068
:1007F00041FBBDF80E30002B56D113F039F93B46C2
:100800002946BDF80C20009609F0E2FABAE713F089
:100810002FF9344B3249BDF80C20009609F074FAD8
:10082000BDF80E301BB33A787F2A08D1022B1ED9AF
:10083000BB78A3F11102012A19D9312B17D04FF03F
:10084000FF3302223146D8F8000012F0B9FC4FF015
:10085000FF332449BDF80E20D8F8000012F0B0FC98
:10086000002302221946D9F8000013F02FFE13F0DE
:10087000FFF81C4B1A49BDF80C20009609F0A8FAA5
:1008800080E74FF0000AA2EB0A0205EB0A014FF0E5
:10089000FF33206812F05EFDBDF80C2050441FFAB3
:1008A00080FA5245EFD196E731464FF0FF330222EE
:1008B000D8F8000012F084FCBDF80E204FF0FF3392
:1008C0000849D8F8000012F07BFC5346022251463A
:1008D000D9F8000013F0FAFD8FE700BF900703205E
:1008E00038A50020389500208C070320300D032008
:1008F0002DE9F84F2A4E2B4DDFF8ACA006F11C076E
:1009000006F5805B06F11408A6F5805904E04FF067
:10091000FF31002013F064FD286812F043FC012829
:10092000F5D94FF0FF3302224146286812F012FD3C
:100930000228ECD1B28AB2F5805FE8D262B100241D
:10094000121B39194FF0FF33286812F003FDB28AE9
:10095000204484B2A242F3D113F08AF801464846FB
:1009600005F0CCF80028D2D113F082F808F0E4F9B1
:100970000128CCD0286812F015FC0128C7D89AF8B5
:10098000003053B19BF8230011F002FF13F070F810
:1009900008F0D2F90128BAD0ECE70A20F4E700BF4A
:1009A0008C3D02208C0703208200032038B50D49BE
:1009B0000D4809F047FA0B4A0C490D4814F032FC77
:1009C000094D0C4C21464FF0FF334FF4006228686C
:1009D00012F0C0FC01460028F4D0204609F04AFA83
:1009E000F0E700BF8008032028080320A424032088
:1009F0005008032040D7002003F020BE002003F061
:100A000021BE00BF0022024B02481A600EF0BEBD9C
:100A10004C070320D0270320014B1868704700BF04
:100A20004C0703200000000030B59FB04822002191
:100A30000CA815F032F800234FF40070CDE9023312
:100A4000CDE90433CDE90733CDE9093301930693AA
:100A50000B930CF061FF08B172B6FEE7012302228E
:100A6000169311931993179210231D9207229FED4D
:100A70001E7BCDE91A320324042312900CA81C9388
:100A80008DED0C7B18940DF089F9034608B172B610
:100A9000FEE70F22214601A8CDE903330593029416
:100AA00001920DF029F8034608B172B6FEE7104A2C
:100AB0004FF00055916D4BF67F3441F08071916598
:100AC000926D069302F080720092089322222023F6
:100AD00006A8CDE90A230099079509940EF0BCF801
:100AE0001FB030BDAFF300802900000000000100FE
:100AF00000100240F0B58FB072B64FF00062A84B04
:100B00009A60BFF34F8F62B6002509F0ADFF05F084
:100B10009DFBFFF789FFCDE90955CDE90B55A14CA8
:100B20000D95E36C4FF4604143F00403E364E36C20
:100B30002A4603F004030593059BE36C9A4843F0AF
:100B40008003E364E36C012603F080030693069BB5
:100B5000E36C082743F00103E364E36C03F0010353
:100B60000793079BE36C43F00203E364E36C03F039
:100B700002030893089B0BF08DFB2A4640F20111FB
:100B80008A480BF087FB2A4641F2E40188480BF0C3
:100B900081FB4FF46043844809A9CDE909360B95E0
:100BA0000C950BF0B9F940F20113804809A9CDE981
:100BB0000936CDE90B550BF0AFF941F2E4037C485F
:100BC00009A9CDE90936CDE90B550BF0A5F979480E
:100BD00009A9CDE909750B950BF09EF9A36C0521C8
:100BE00043F00403A364A36C2A4603F004030293B6
:100BF000029BA36C1D203343A364A36C3340039377
:100C0000039BA36C43F00203A364A36C03F00203F1
:100C10000493049B09F05EFF1D2009F097FF2A460C
:100C200005211E2009F056FF1E2009F08FFF2A46DD
:100C30000521502009F04EFF502009F087FF28467B
:100C40000BF0A6FE08B172B6FEE70BF0B5FE034648
:100C500040B959484360594B03600EF025F818B16C
:100C600072B6FEE772B6FEE710224FF44071544BA5
:100C70000F241870534B99609A619A623C21132299
:100C8000C3E907120422C3E90B424F4A5860D860F7
:100C90009874D8631846C3E90D661E825E615E6271
:100CA0001A600AF0E9F9034668BB4FF0FF31474A82
:100CB0004FF4827CC2E90500C2E90100D0601160F6
:100CC00007224FF4E0654FF400744148C0E90A324E
:100CD000404AC0E90433C0E90833C2E90533C2E938
:100CE000013383600363D3603B4BC7610360476399
:100CF000C0F804C0C560846111600EF001FA0346BB
:100D000018B172B6FEE772B6FEE73448344AC0E95D
:100D1000053383800260066209F04AFF034608B18A
:100D200072B6FEE74FF4027102222E48C3722E4BB8
:100D300081800360C0F807200BF048FE034608B12D
:100D400072B6FEE741F63F75284C294ACDE9090005
:100D50000B902046C4E90133A3612260E5600EF0E8
:100D600077FD034608B172B6FEE7204609A909934C
:100D70000B930EF09FFD034608B172B6FEE71D48C7
:100D80001D4ACDE90933026042F20F72C0E9023513
:100D90000B93836142600EF05BFD78B372B6FEE7A1
:100DA00000ED00E000100240000802420000024294
:100DB00000040242001C02429C29032000080C424D
:100DC00050070320982A032000A40040E82C0320A9
:100DD00038290320BC2C032000380040FC2A0320C3
:100DE00000300240A824032000D40040D027032074
:100DF000001400401C28032000100040002370480D
:100E000009A909930B930EF055FD034608B172B67C
:100E1000FEE74F214FF6FF726A48C0E90433836052
:100E20008361694B4160C26003600EF011FD0446AE
:100E300008B172B6FEE76548654900902246654BE9
:100E40000C7043F69820012112F01EF90546624EFF
:100E5000624A009601211560614B224643F69820B4
:100E600012F012F905465F4E5F4A009601211560A7
:100E70005E4B224641F2010012F006F902465C4E3A
:100E80005C4D009601215C4B2A6041F20100224634
:100E900012F0FAF8594B5A4A012100921860224682
:100EA000584B43F6982012F0EFF8574B574A012160
:100EB000009222461860564B43F6982012F0E4F850
:100EC000544B554E1860204604F0B4FB204604F005
:100ED000CBFB04F013FC12F0CBFD2A464F4B5049DC
:100EE000009604F0C7FA4F4807F076FB4E4803F02F
:100EF0006DFB4E484E4A4F4900F040FB09A809944B
:100F000004F054FB10B9099B002B55D011F0B8FB2D
:100F100014F074F80021484A484811F0DDFB0446FB
:100F2000474B0021474A48481C6011F0D5FB044656
:100F3000464B0021464A47481C6011F0CDFB044651
:100F40003C4B0021444A45481C6011F0C5FB044657
:100F5000434B0021434A44481C6011F0BDFB04464A
:100F6000334B0021414A42481C6011F0B5FB044656
:100F70002B4B00213F4A40481C6011F0ADFB04465A
:100F80003E4B00213E4A3F481C6011F0A5FB044641
:100F90003D4B00213D4A3E481C6011F09DFB04463C
:100FA0003C4B00213C4A3D481C6011F095FB3C4BFA
:100FB000186011F077FBFEE73A4804F0CFFAA5E796
:100FC0001C280320842703200044014054080320E8
:100FD00024080320D81901202C08032050080320DE
:100FE00040DF00200008032028080320348500206B
:100FF000DC07032090070320307500208C070320B6
:10100000B8070320983A00208C2B03209407032074
:1010100000000020882B032084070320880703207A
:10102000E01103209C290320FC2A0320982A032096
:1010300090160320F01F0320E094010869020008C5
:10104000A4240320BC94010811030008A024032059
:10105000989401083505000874940108C505000836
:10106000401B032050940108A10600082C9401089D
:101070006507000808940108F1080008300D0320F6
:10108000E4930108AD09000880080320C09301081B
:10109000F90900087C0803209C930108FD09000859
:1010A00078080320040029C0094A0368934206D047
:1010B000084A93420AD0084A934205D07047074A2B
:1010C000136801331360704703F0B0BA09F0DEBC57
:1010D00000140040002C0140001000404C07032089
:1010E00072B6FEE7704700BF10B5124C1249608817
:1010F00080B200F02FF8E088104980B200F068F864
:10110000A08A0F4980B200F08FF860890D4980B243
:1011100000F09EF8E0890C49C0B200F0C3F8A07D51
:101120000A4900F005F9608A094980B2BDE810401B
:1011300000F026B9600003205C040320E4030320D0
:101140006C030320F40203207C020320040203202A
:101150008C0103204FF0FF33B0F5FB4FC1F8013095
:101160004B600ADAC0F5FA407F30400000F0FE0321
:10117000C0F307200B70487070470020034648708A
:101180000B707047012908D94FF6FE2302889A4256
:1011900003D8981AC0F34F0070470020704700BF73
:1011A000012911D94378FA2B07D8084AC3EB033039
:1011B000A2FB0020C0F30F10704740F6FF72FF2B18
:1011C0000CBF00201046704700207047D34D6210BE
:1011D0004FF0FF33020A0B604B6048708A70704713
:1011E000022907D94FF6FF73B0F80100984208BFF3
:1011F0000020704700207047012911D94378FA2B4D
:1012000007D8084AC3EB0330A2FB0020C0F30F103D
:10121000704740F6FF72FF2B0CBF0020104670474E
:1012200000207047D34D62104FF0FF33020A0B606D
:101230004B60C8700A717047042907D94FF6FF73D5
:10124000B0F80300984208BF0020704700207047A4
:101250004FF0FF33020AC1F8013008704B604A704A
:10126000704700BF012907D94FF6FF7300889842E5
:1012700008BF4FF4006070470020704701290ED965
:101280004FF6FF730088984209D047F27F53984287
:1012900038BF1846A0F5EA407F3880B270474FF457
:1012A000006070474FF0FF337D300B604B608870FB
:1012B000704700BF022906D980787D38C0B28228E5
:1012C00028BF002070470020704700BF032906D9BF
:1012D000C0787D38C0B2822828BF00207047002027
:1012E000704700BF012918D9037803F00302012ACF
:1012F00017D003F00C02042A15D003F03002102A94
:101300000DD003F0C003402B0FD0437803F003034C
:10131000012B0CBF062001207047002070470520DC
:10132000704702207047032070470420704700BFB9
:101330004FF0FF330870C1F801304B60704700BFB9
:1013400009B1007870470846704700BF032986BF7F
:10135000C078C0F381000020704700BF012906D982
:10136000437803F00F03013BDBB2022B01D90020CD
:101370007047024A32F81300704700BF0495010815
:101380004FF0FF33800060F00C00C1F801300870AE
:101390004B60704719B10178C1F38100704708466E
:1013A000704700BF032986BFC07800F0030000200B
:1013B000704700BF02290FD9837803F00C02042A7A
:1013C00001D001207047C3F30113012B06D0002B7D
:1013D0000CBF022001207047002070470320704797
:1013E00071B103789A09012A03F003010AD003F0CE
:1013F0003003102B08D001290CBF022001207047B8
:1014000008467047042070470320704707290346A9
:101410002DD900785A78A0F1FA00B0FA80F0FA2AB3
:101420004FEA50109A784FEAC00008BF40F0100011
:10143000FA2ADA7808BF40F02000FA2A1A7908BFA1
:1014400040F04000FA2A5A7908BF40F08000FA2A9A
:101450009A79DB7908BF40F00100FA2A08BF40F012
:101460000200FA2B00D0704740F0040070470020C3
:10147000704700BF2DE9F04F3C4B8346984283B044
:1014800007D83B4B984269D94FF028094FF4487E62
:101490000BE04FF0250940F2EE2E364BB3FBFBFC80
:1014A0005FFA8CFCBCF1190F5DD90120314B013082
:1014B00080B2B3FBF0FCBCFBFBFC5FFA8CFCBCF124
:1014C000190FF4D8B0F5806F42D201236FF00044B9
:1014D0004FF47A765A460093274B1F68431C1FFA35
:1014E00083FAACF10208B8EB5C0F4FEA5C0120DD37
:1014F0000CF1FF3B5FFA8BFBCDF804A006FB01F576
:10150000B5FBFCF5BEEB050A48BFA5EB0E0AA245EC
:101510000ADAD14508DB002554460095ABEB0105FE
:10152000EDB2F96178613D6201314145E6DBDDF8FC
:1015300004A0104998B2B1FBFAFCBCFBF2FCB0F578
:10154000806F0AF1010A5FFA8CFC03D0431CC8E7E4
:1015500001230093009803B0BDE8F08F4FF02B09F2
:1015600040F26B3E99E70120AFE700BF00350C0069
:1015700020A10700005A6202802C032038B50C46D7
:10158000064D0749074B0A602860074901201C6087
:1015900011F0FEFA054B186038BD00BF802C032007
:1015A000782C03207C2C0320902B0320E02B03209D
:1015B00030B53F4C83B0206809F016FF206809F071
:1015C0005BFD002851D100223A4D40213A482A7152
:1015D000EA602A616A61AA61AA60EA6185F820204E
:1015E0000AF058FE206805F1240109F02FFE0028BA
:1015F0005BD13249206809F029FE002852D100232E
:10160000022220681146009309F04CFE002846D1C2
:10161000206809F08DFE00283ED1002201212068BB
:101620000AF044F8A8BB0022062120680AF03EF820
:1016300060BB07224FF4F05120680AF037F810BB66
:101640000722802120680AF031F8C8B900221C491D
:1016500020680AF02BF880B900224FF4602120683E
:101660000AF024F820B903B030BDFFF739FDAAE72E
:1016700003B0BDE83040FFF733BDFFF731FDEBE7C6
:10168000FFF72EFDE2E7FFF72BFDD9E7FFF728FD77
:10169000CFE7FFF725FDC6E7FFF722FDBDE7FFF720
:1016A0001FFDB5E7FFF71CFDA9E7FFF719FDA0E750
:1016B000802C032000000320000402423C00032091
:1016C00000407100014B186809F08EBE802C032089
:1016D000082824D8DFE800F0080C1014171A1D2081
:1016E00005001448FFF7C6BE42F21070FFF7C2BEF5
:1016F00044F62060FFF7BEBE4CF25030FFF7BABE92
:101700000D48FFF7B7BE0D48FFF7B4BE0C48FFF712
:10171000B1BE0C48FFF7AEBE0B48FFF7ABBE0B4A9D
:10172000A0F51C53103B934201D901207047FFF7ED
:10173000A1BE00BF40420F00A086010048E80100A2
:1017400090D0030020A1070000350C00301B0F00D3
:101750000346054A1978002051615978D16199787A
:101760001162DB7893617047982A03200246024B8E
:1017700000209A61704700BF982A0320034600B5F5
:10178000074A93F801E093F800C082F810E0054999
:101790009B7881F800C0537400205DF804FB00BF03
:1017A000982A0320500703202DE9F0470546C0681A
:1017B0000F4608F081FDAB68B3F1005F3CD00646F0
:1017C000824600F12409254C4FF0FF31206811F0CA
:1017D000E9FA0128F8D1DFF89080D8F8000011F07C
:1017E000D1FC484515D202251D4A13792B431371AC
:1017F000002320681A46194611F02EF900231949D2
:10180000022209680868194612F060FE2846BDE801
:10181000F08729464FF0FF332422D8F8000011F05A
:10182000CFFC054686B94D450CD00D4A01251379EC
:1018300043F008031371DBE74FF0000A4FF024096F
:101840005646C0E70025D3E7524639464FF0FF33EE
:10185000D8F8000011F0B4FC0544E4E7E02B0320C5
:10186000000003207C2C0320882B032030B40122AD
:10187000002410200A4B04211B684FF440751C8281
:10188000C3E90520DC6018623F240F209A74C3E985
:101890000125DC61C3E9092130BC1963D8627047B6
:1018A000802C032000232DE9F0430C4683B0C907A8
:1018B0000546019316D4A20707D502212D4A1379B4
:1018C00043F0010313712B681965630735D4019B3D
:1018D0002BB14FF0E0234FF08052C3F8042D03B03A
:1018E000BDE8F083DFF89880224F42464021224B2A
:1018F00009F0F2FD7B69D8F80C0001337B6108F038
:10190000DBFCDFF880900646D9F8000011F03AFCC5
:1019100006F12803984223D341462822D9F8000033
:1019200001AB11F0D1FC002EC5D03246D9F8000031
:10193000114901AB11F0C8FCBDE704240D4B0F4960
:101940009A69096801329A611A7942F008021A719B
:101950002B6808680DEB04011C6512F0A1FEB6E7C8
:10196000064ABB6912680133106801A9BB6112F015
:1019700097FEA0E700000320382C0320782C0320DA
:10198000102C03208C2B032010B500240A4A0B498D
:101990001369096882B00868013301A913610194D1
:1019A00012F07EFE019B2BB14FF0E0234FF08052EE
:1019B000C3F8042D02B010BD000003207C2C0320CE
:1019C00010B500240A4A0B49D369096882B0086837
:1019D000013301A9D361019412F062FE019B2BB186
:1019E0004FF0E0234FF08052C3F8042D02B010BD39
:1019F00000000320782C032038B50C46104D2946F2
:101A000009F00AFEA10303D5EB68A3B90D4A1360E0
:101A1000620309D52B690B4A012B13790CBF43F0E4
:101A2000040303F0FB031371230303D50122054BC9
:101A300083F8202038BD4FF00042024B1A60E7E7E0
:101A4000E42B032000000320F0B500250B7885B0BF
:101A5000074602950395CBB10C460DF1FF3608E021
:101A60002046D5B208F0CAFB14F8023F06F8010F71
:101A700023B163786A1C0BB3072DF1D18DF80850A0
:101A80002A4669460DF1090014F067F900230E4C4F
:101A90000820C4E90533C4E90133276008F012FCCB
:101AA000082203460DEB02010848E36008F010FC31
:101AB00020460649FFF778FE05B0F0BD8DF80850C6
:101AC000002DDDD1E2E700BF902C0320842C032001
:101AD00042F202032DE9F04100249942445400F2FD
:101AE000C980002900F0678100F1FF3E0139F4460A
:101AF0007346014405E00A2A1CBF025501348B429B
:101B000009D013F8012F082AF5D1002CF7D08B4209
:101B100004F1FF34F5D100229442025540F3508184
:101B200011460EEB04031CF8014F202C00F09780A7
:101B300091B99C4502F101020CF101040ED09CF810
:101B400001E0BEF1200F00F08C809C4206D01CF812
:101B5000021F203918BF01219C45E4D19B4914463E
:101B600013F0B6FF0546002800F0A9809849FEF75B
:101B700067FB30B128469749FEF762FB002840F02A
:101B80008280012C40F2D4809049002013F0A0FF05
:101B900091490446FEF754FB002800F0948020464B
:101BA0008E49FEF74DFB002800F07E8120468C49CF
:101BB000FEF746FB002840F005818A4808F0DEF970
:101BC000894808F0DBF9874808F0D8F9874808F019
:101BD000D5F9874808F0D2F9844808F0CFF985484C
:101BE00008F0CCF9844808F0C9F9804808F0C6F933
:101BF000824808F0C3F9824808F0C0F97B4808F031
:101C0000BDF9804808F0BAF97F4808F0B7F977487D
:101C100008F0B4F97D4808F0B1F97D4808F0AEF954
:101C20007C4808F0ABF97C4808F0A8F97B4808F03C
:101C3000A5F97B4808F0A2F97A4808F09FF97A489C
:101C400008F09CF9794808F099F9684808F096F985
:101C5000644808F093F9764808F090F90DE0002107
:101C60007AE79C423FF47AAF1CF8024F202C7FF4B5
:101C700060AF71E76F4808F081F96F4808F07EF9AE
:101C80000020BDE8F08128466C49FEF7D9FA00280B
:101C90003FF477AF28466A49FEF7D2FA00283FF4AE
:101CA00070AF28464E49FEF7CBFA002840F043813A
:101CB000022C00F05C81634808F060F9DDE76248BF
:101CC00008F05CF9D9E7474808F058F9464808F0A9
:101CD00055F9444808F052F9444808F04FF95B4878
:101CE00008F04CF9414808F049F9424808F046F933
:101CF000574808F043F93D4808F040F93F4808F0DC
:101D00003DF9544808F03AF9384808F037F93D48A9
:101D100008F034F9504808F031F9344808F02EF949
:101D20003A4808F02BF94D4808F028F94C488AE762
:101D30002C4808F023F92C4808F020F9294808F02D
:101D40001DF92A4808F01AF9464808F017F92748FB
:101D500008F014F9444808F011F9444808F00EF965
:101D6000434808F00BF9434808F008F9424808F0E6
:101D700005F9424808F002F9414808F0FFF84148E7
:101D800008F0FCF8404808F0F9F8404808F0F6F888
:101D90003F4808F0F3F83F4808F0F0F83E4808F0F4
:101DA000EDF8124808F0EAF83C4808F0E7F80D486A
:101DB00008F0E4F861E70170394808F0DFF85CE703
:101DC000FAD0CBE6374808F0D9F844E72475010883
:101DD000547501085C7501087075010814770108D5
:101DE0009C78010878750108B8750108E475010848
:101DF000A4780108F8750108B87801083C76010854
:101E0000F47801086076010808790108B4760108C1
:101E1000547901087479010888790108A8790108C2
:101E2000BC790108DC790108F07901081C7A010805
:101E3000587A01080C750108588801086475010872
:101E40006C7501088C7E010828750108E875010889
:101E500008760108447601086C760108C07601080E
:101E600004770108AC7A0108507B01085C7B01080B
:101E7000887B0108D87B0108287C0108787C010850
:101E8000E47C01080C7D0108387D0108687D0108AB
:101E9000947D0108EC7D0108387E01086C7E010804
:101EA00020750108307A0108874808F067F88748EC
:101EB00008F064F8844808F061F8854808F05EF896
:101EC000844808F05BF8824808F058F8824808F027
:101ED00055F8824808F052F87D4808F04FF88048DD
:101EE00008F04CF87F4808F049F8794808F046F8BF
:101EF0007D4808F043F87D4808F040F8744808F041
:101F00003DF87B4808F03AF87A4808F037F87A4804
:101F100008F034F8794808F031F8794808F02EF8DC
:101F2000784808F02BF8784808F028F8774808F047
:101F300025F8774887E628467649FEF781F928B9DB
:101F4000022C6CD0744808F019F896E628467349BC
:101F5000FEF776F9002851D1012C00F07581A31EFF
:101F6000012B40F2FB806E4808F008F885E66D49C9
:101F700013F0AEFD03780446002B3FF47EAE051D42
:101F8000413B232B13D8DFE803F0352D251D12121A
:101F90001212121212121212121212121212121221
:101FA00012121212121212121212352D251D5E4833
:101FB00007F0E4FF14F8013F002B3FF45EAEA542AA
:101FC000DED15AE6594807F0D9FF0021442003F03A
:101FD000F7FAEFE7564807F0D1FF0021432003F05E
:101FE000EFFAE7E7534807F0C9FF0021422003F06A
:101FF000E7FADFE7504807F0C1FFDBE728464F4923
:10200000FEF71EF9002851D1012C00F02581A31EF6
:10201000012B40F2D8804A4807F0B0FF2DE6414935
:1020200013F056FD03780446002B3FF426AE051D41
:10203000413B232B13D8DFE803F0352D251D121269
:102040001212121212121212121212121212121270
:1020500012121212121212121212352D251D3248AE
:1020600007F08CFF14F8013F002B3FF406AEAC42A2
:10207000DED102E6334807F081FF0121442003F05E
:102080009FFAEFE7304807F079FF0121432003F082
:1020900097FAE7E72D4807F071FF0121422003F08E
:1020A0008FFADFE72A4807F069FFDBE7284629496E
:1020B000FEF7C6F8002840F0DC80032C00F0FA8020
:1020C000254807F05BFFD8E578750108B875010869
:1020D000E47501081C770108F875010830770108DC
:1020E0003C7601086C77010860760108807701086A
:1020F000B4760108CC770108EC770108FC77010879
:102100001C7801082C7801084C7801085C780108DB
:102110008878010814770108BC7F010894800108C1
:10212000B880010824750108947F0108707F0108B8
:102130004C7F0108287F0108DC7E010864810108CA
:1021400088810108708001084C80010828800108FE
:102150000C8001082482010828820108B14900206E
:1021600013F0B6FC08F070F8B0F5006F68D2AE4D11
:10217000022C28604FF0000000F09480A94913F071
:10218000A7FC064608F0B0F8C10755D4102853D86C
:1021900088B1431EC3F34E04B71CDFF8208307EB5E
:1021A0004407304608F02AF80236BE4208F8010F0C
:1021B000F7D1631CD8B208F085F803469B48EB6062
:1021C00007F0DCFE59E59749002013F081FC08F088
:1021D0003BF8B0F5006F80F08581954F022C386098
:1021E00000F0768110F0C0FA282110F0BFFA8D4976
:1021F000002013F06DFC064608F076F8C20704468E
:102200001AD4102818D83546DFF8B48205E02846DD
:1022100007F0F4FF023508F8010BAB1B9BB29C42A0
:10222000F5D8601CC0F3470008F04CF8034681481D
:10223000FB6007F0A3FE20E57F4807F09FFE1CE54A
:102240007E4807F09BFE18E54FF0FF32764B7C4846
:102250001A6007F093FE10E54FF0FF32744B794897
:102260001A6007F08BFE10F07FFA182110F07EFA4A
:1022700003E528467449FDF7E3FF28B9032C5FD036
:10228000724807F07BFEF8E428467149FDF7D8FF55
:10229000002840F05B81022C00F029816D4807F096
:1022A0006DFEEAE408F00EF803466B48EB6007F0B9
:1022B00065FEE2E45B49002013F00AFC594905463B
:1022C000002013F005FC00210A2213F0C7FA63492D
:1022D00004462846FDF7B4FF002800F0F3802846A6
:1022E0005F49FDF7ADFF002800F0958028465D4965
:1022F000FDF7A6FF002800F0888028465A49FDF720
:102300009FFF00287BD028465849FDF799FF0028F9
:102310006CD028465649FDF793FF00285DD028462B
:102320005449FDF78DFF00283FD1003C18BF012420
:10233000514B52481C7007F021FEFFF739F99CE41D
:10234000384913F0C5FB4E490446FDF779FF0028D4
:1023500040D020464B49FDF773FF002837D0204678
:102360004949FDF76DFF78B320464849FDF768FFFE
:1023700038B320464649FDF763FFF0B9454807F0FA
:10238000FDFD00242749002013F0A2FB054607F0BD
:10239000ABFF421E92B20D2A03460AD8DB0708D4CF
:1023A00029462046FFF750FB67E43B4807F0E6FD6F
:1023B000C3E73A4807F0E2FD5FE4394807F0DEFD85
:1023C000DFE740F2E374DDE740F2E274DAE740F27F
:1023D000E174D7E740F2DF74D4E7003C18BF012472
:1023E000304B31485C7407F0C9FDA6E7003C18BFCC
:1023F00001242C4B2D481C7407F0C0FD9DE7294B90
:102400002B489C6107F0BAFD97E7264B29481C62D0
:1024100007F0B4FD91E7234B2748DC6107F0AEFDE0
:102420008BE700BF24750108E82C03203C810108DC
:10243000BC2C0320FC81010824810108E0800108F4
:102440009C8001086C8101085C830108608301089D
:10245000348401083C840108048101084482010895
:102460006882010884820108A0820108B8820108FC
:10247000EC82010818830108500703202483010817
:102480009C830108A0830108A4830108A883010894
:10249000AC830108B0830108448301080884010863
:1024A000E4830108982A0320FC820108C482010801
:1024B000A48201088C82010870820108DF2C0320AD
:1024C000B42C0320AF4BB0485C6107F057FD34E7F4
:1024D000002007F0F7FE0346AC48FB6007F04EFD16
:1024E000FFF7CBBBAA4807F049FDFFF7C6BBA949D8
:1024F00013F0EEFA451E041D15F8012FA2F12A0370
:10250000002A3FF4BAABA5423FF4B7AB1A2B00F256
:102510001082DFE813F005020E020E020E020E0218
:102520000E020E020E020E020E020E020E020E022B
:102530000E020E020E020E020E020E020E020E021B
:102540000E020E020102F8013100280028469249CD
:10255000FDF776FE002847D1022C16D08F4807F0F1
:102560000DFDFFF78ABB8E4807F008FD40F2E370CF
:102570008C49FFF769FABFE78B4807F0FFFC40F290
:10258000E2708849FFF760FAB6E7824913F0A0FAD3
:10259000451E041D15F8012FA2F12A03002A3FF45D
:1025A0006CABA5423FF469AB1A2B00F2A881DFE8BF
:1025B00013F09D01A601A601A601A601A601A60190
:1025C000A601A601A601A601A601A601A601A601D3
:1025D000A601A601A601A601A601A601A601A601C3
:1025E000990190013100280028467049FDF728FE26
:1025F000002853D1022C16D06D4807F0BFFCFFF71E
:102600003CBB6C4807F0BAFC40F2E3706A49FFF744
:102610001BFABFE7694807F0B1FC40F2E270664977
:10262000FFF712FAB6E75B4913F052FA6449054620
:10263000FDF706FE002800F0448128466149FDF7B9
:10264000FFFD002800F0358128465F49FDF7F8FDC1
:10265000002800F0268128465C49FDF7F1FD00289E
:1026600000F0178128465A49FDF7EAFD002800F0DE
:10267000088128465749FDF7E3FD002800F0F9805E
:1026800028465549FDF7DCFD00283CD1072005F020
:1026900035F9524807F072FCFFF7EFBA2846504967
:1026A000FDF7CEFD002800F0E18028464D49FDF7FA
:1026B000C7FD002800F0DA8028464B49FDF7C0FD31
:1026C000002800F0D38028464849FDF7B9FD0028CE
:1026D00000F0CC8028464649FDF7B2FD002800F006
:1026E000BB8028464349FDF7ABFD00283FD0284674
:1026F0004149FDF7A5FD40BB022C09D03F4807F03A
:102700003DFCFFF7BABA3E4807F038FCFFF7B5BA10
:10271000204913F0DDF92A490546FDF791FD00280F
:1027200000F0828028462749FDF78AFD002873D0F3
:1027300028462549FDF784FDF0B9032004F000FE8A
:10274000304807F01BFCFFF798BA28462E49FDF7E2
:1027500077FD002875D100F09FFF00286CD02B4832
:1027600007F00CFC012000F0A7FFFFF786BA28480D
:1027700007F004FCFFF781BA264807F0FFFBFFF7DC
:102780007CBA00BF982A032050820108DC8101082E
:10279000B081010824750108EC840108F484010863
:1027A000D88401087C840108C4840108707501087C
:1027B000A08501088085010834850108608501082D
:1027C000F0850108008601080486010808860108D2
:1027D0000C8601081086010814860108F48501089A
:1027E000488601084C860108548601085C86010869
:1027F00064860108BC8601084087010848870108F3
:102800001886010890870108D4870108DC87010831
:10281000C4860108A4870108204604F091FD4748BA
:1028200007F0ACFBFFF729BA012004F089FD44480A
:1028300007F0A4FBFFF721BA424807F09FFBFFF720
:102840001CBA414807F09AFB284607F097FB3F481F
:1028500007F094FBFFF711BA3D4807F08FFBC82043
:102860000FF096FF08F092F9FFF707BA0120FFF783
:1028700008BA062005F042F8364807F07FFBFFF75C
:10288000FCB9052005F03AF8324807F077FBFFF76E
:10289000F4B9042005F032F82E4807F06FFBFFF77B
:1028A000ECB9032005F02AF82A4807F067FBFFF788
:1028B000E4B9204605F022F8264807F05FFBFFF751
:1028C000DCB9012005F01AF8224807F057FBFFF7A2
:1028D000D4B9214807F052FB40F2E1701F49FFF7DD
:1028E000B3F857E61E4807F049FB53E61D4807F0CA
:1028F00045FB40F2DF701949FFF7A6F84AE61A488F
:1029000007F03CFB46E6194807F038FB40F2E1705F
:102910001749FFF799F8EFE5114807F02FFBEBE5B2
:10292000144807F02BFB40F2DF701149FFF78CF8D9
:10293000E2E50D4807F022FBDEE500BF7C870108D9
:1029400068870108EC8701080088010814880108DD
:102950006C860108F485010840850108348501086A
:10296000888401080C850108E4830108B08401080B
:102970007C840108588401082DE9F04F037805464E
:10298000A3F13002012A0E46A1B040F2908000224D
:10299000824FCDE90B227979012910D00024DFF88C
:1029A0000082752BD8F80020CDE90D440A9214D18D
:1029B000132E00F06E81002021B0BDE8F08F721E52
:1029C000815C002469290ABF164600224FF00042AC
:1029D000752BCDE90D440A92EAD0295D2246722971
:1029E00005EB040900F0E48000F2448152297FD015
:1029F00054297DD0233B562B00F23781DFE813F0BA
:102A00001C043501660353033501350135013501D9
:102A10003501350135013501350135013501350106
:102A200035013501350135013501350135013501F6
:102A300035013501350135015A010F0435013501E4
:102A40000704E603D803680457045A0152044A04F1
:102A50007004D203BF03A6033203350135013501EB
:102A60001003350135013E030203F902EE02E402D0
:102A70003501350135015F0135013501670162011D
:102A800078026A023501C30235015A01B802D30245
:102A9000A0023C02290213023501C101990135014E
:102AA0008401350135017B017401580247024FF45E
:102AB000001142780C91302A00F0CC804FF4801045
:102AC000364F0B907979012900F0D88000233449E2
:102AD000722A0968CDE90D330A9105F1010965D023
:102AE00062D8522A02D0542A40F0BF8001242246E4
:102AF000B71A092F40F2B9804FF080434FF0000A17
:102B0000601C28440793CDF820A007F0ADFB069089
:102B100004F10900284407F06BFB99F80030804667
:102B2000522B099003D14FF00053D04608934046F2
:102B300007F0C2FB0530B7EB400F40F096800A3437
:102B4000013EA64288BF00270DD9281907F056FB81
:102B50000234E4B220AB53FA87F3B44203F8400CDA
:102B600007F10107F1D307F0D1F910AC01210D48AD
:102B700006AE07F0E1F921463046FEF715FE0228C1
:102B800000F08B8007F0CEF94046069D07F094FBDD
:102B900022460146284601F05FFD0CE7580103205C
:102BA00000000320E4750108742A5ED10124224646
:102BB000B71A042F59D94FF0000A601C2844CDE9F8
:102BC00007AA07F041FB0690201D284407F010FBE0
:102BD00099F800308046722B099003D14FF00053D2
:102BE000D0460893404607F067FB052300B203EB8D
:102BF00040039F4239D10534013EA64288BF0027D9
:102C00000DD9281907F0FAFA0234E4B220AB53FACE
:102C100087F3B44203F8400C07F10107F1D307F042
:102C200075F910AC0121B94806AE07F085F92146C7
:102C30003046FEF7B9FD0228A4D107F073F902E08F
:102C40000A200FF0A5FD21463046FEF7ADFD022813
:102C5000F6D099E70022AE4F0B92797901290DD079
:102C6000AC4B0D921B680E920A930121AA4807F003
:102C700017F9A0E674297FF4BDAE99E7721EA95C2E
:102C8000692900F05D8300220124CDE90D220A921A
:102C9000A3E6284601F04CFE8DE607F043F902E07A
:102CA0000A200FF075FD21463046FEF77DFD022813
:102CB000F6D069E71621994807F0F2F87BE69848C4
:102CC00007F05CF90121914807F0EAF873E6022E5B
:102CD000CBD16B78934A303B18BF012301218B483D
:102CE000137407F0DDF866E6FEF762FC0121874801
:102CF00007F0D6F85FE6022EB7D16B78302B0CBF09
:102D0000002301237B71DDE7052EAED10126854C22
:102D1000A819666107F072FA0346E81CE36107F040
:102D20006DFA2062FEF744FC3146784807F0B8F8A7
:102D300041E67D4807F022F940217A4808F0A6FCD8
:102D400007F032F9794C774808F0AAFC07F02CF923
:102D5000206810F017FA07F027F92068744C10F07B
:102D600021FA07F021F9206810F00CFA07F01CF99D
:102D7000206810F017FA07F017F9644807F0FEF81A
:102D800019E6022E7FF471AF6B78423B022B3FF6BF
:102D90006CAF00234FF400124FF48011BB70CDE9EB
:102DA0000B12099340F281123B7000234FF014097B
:102DB000CDE90623DFF85C8110AC06AE002002F0FE
:102DC00039FCFEF753FDFEF7F3FB64200FF0E0FC47
:102DD0006878012102F012FC6878012102F0F0FB12
:102DE00048460FF0D5FC02E00A200FF0D1FC214646
:102DF0003046FEF7D9FC0228F6D032200FF0C8FC8E
:102E0000D8F8143009F1140913B9B9F5D27FD5D126
:102E1000D8F81430002B3FF428AF01213B4839701B
:102E200007F03EF8C7E5012E7FF41FAF3146374863
:102E300007F036F83F4801F023FE002002F0FAFBCD
:102E4000002002F011FC64200FF0A2FC07F09EFEAF
:102E5000B1E5042E00F01E83092E7FF406AF681C36
:102E600007F002FA03462B4A23F0004301212748CA
:102E7000136507F015F89EE50121244807F010F8C6
:102E80000123284A3B70D360FEF792FB93E5032EA3
:102E90007FF4EBAE6878A0F14203022B3FF6E5AE7B
:102EA000AB78302B0CBF0021012102F089FB09E730
:102EB0007822214B8DF84020D3F890050DF1410187
:102EC00007F0A0F80D230A2110A88DF8493006F06C
:102ED000E7FF70E5022E7FF4C8AE6B78302B00F070
:102EE0000983312B7FF4EEAE012001F0C3FDE9E64A
:102EF000022E7FF4BAAE6B78302B40F0C0820121F5
:102F000000230E4A1170BB70DCE600BFE4750108B7
:102F1000580103200000032070740108BC880108D8
:102F20008C890108982A0320D48801088C2B03205F
:102F3000882B0320DC8801080000FA0B82000320A4
:102F4000092E7FF492AE681C07F064F90346BF4C6B
:102F5000681D636107F052F90346E81DE36107F05D
:102F60004DF903460121BA48236206F099FF22E594
:102F7000022E7FF47AAE6B78B448302B00F0B68224
:102F800008F0B2F99EE6022E7FF46FAE6B78302B1C
:102F900000F0A782312B0CBF4FF480724FF44072C7
:102FA000AA4B9A608EE66A238DF8403005F01CFB30
:102FB0000DF1410107F094F80D23042110A88DF8BC
:102FC000433006F06DFFF6E4022E7FF44EAE6B78D0
:102FD000302B0CBF00230123FB7073E6022E7FF41D
:102FE00044AE6B78302B0CBF0020012002F022FB96
:102FF00068E610F043FD102840F2AC81954806F0D9
:10300000BDFFD8E4022E7FF430AE6B78303B032B4B
:103010003FF62BAEDFE813F09201890187017D01B5
:10302000B31E062B3FF621AE012200208A4FAC18BA
:10303000A91914F8013B00EB8000303B03EB400082
:10304000DBB20A2B28BF0022B84288BF0022A1426F
:10305000EFD1012A7FF409AEFEF73AFB00287FF496
:1030600004AE2FE601217A4806F01AFF0021012361
:10307000764AD1603B70FEF79BFA9CE40F217748BB
:1030800006F00EFF0C21764806F00AFF0121754874
:1030900006F006FF0921744806F002FF022173487A
:1030A00006F0FEFE87E4062E7FF4DFAD05227049B0
:1030B000681C12F0E2FC002840F0DC816D4806F04C
:1030C0005DFF0121624806F0EBFE74E4032E7FF6FB
:1030D000CCAD6F1C311F3846C1F34F064FEA510982
:1030E00007F0B2F8B04204467FF4BFAD05F1040822
:1030F00041461FFA89F210AE5F4807F05FF810F002
:10310000B7FC22465D4B5C49009605F0B3FE39469C
:10311000BDF8400006F0ACFFBDF8402040465749DE
:1031200006F04EFF0D22BDF840302846023305F868
:1031300013205B00591C06F0B3FE10F099FC2246E8
:103140004E4B4D49009606F043FE34E44E234C4D61
:103150004C4E0DF141048DF8403015F8040B21461A
:1031600006F0BEFFB54204F10204F6D1192110A801
:1031700006F096FE0121364806F092FE1BE4042E6E
:1031800000F09681092E7FF470AD681C07F06CF892
:1031900003463D4A23F0004301212D48D36406F045
:1031A0007FFE08E401212A4806F07AFE02215EE74C
:1031B00010A9264808F030FA02A9244808F054FA69
:1031C00010A902A801F014FCFFF7F5BB2F4807F087
:1031D0008BF8431C9E427FF448AD2C4807F084F8DE
:1031E0002A490246681C12F060FC00287FF43DADBD
:1031F0000121174806F054FEC8200FF0C9FA03F069
:1032000019F8002840F07B8103F060F82DE50023D9
:1032100001210F483B7006F043FEFFF7CCBB022EA6
:103220007FF423AD6B78302B00F05781312B7FF486
:1032300049AD01233B7145E5012E7FF416AD1448DD
:1032400006F09CFE3046FFF7B7BB00BF982A03206C
:10325000E4750108EC88010840420F006488010809
:10326000748801082475010880880108788901089C
:10327000A0890108A8890108B4660120B056012080
:103280009005FA0BC005FA0B00000320D88801084E
:103290008C8801084A238DF8403005F0C1F90DF102
:1032A00041010DE6984801F083FBFFF784BB032E34
:1032B00000F00C81052E7FF4D8AC681C06F09EFF50
:1032C0000346924CE81CA36106F098FFA062F9E463
:1032D00046238D4A0DF1410110798DF8403069E6A1
:1032E000072E7FF4C2AC681C06F088FF0346874CAB
:1032F000E81C636206F082FF0346681DE36206F085
:103300007DFF034601218248236306F0C9FDFFF7D4
:1033100052BB03227C4B01217D48DA625A6406F0DD
:10332000BFFDFFF748BB0222F4E70121764B784846
:10333000D962596406F0B4FDFFF73DBB0022E9E70E
:103340004FF00041164600220124CDE90D220A91DA
:10335000FFF743BB6F4806F011FE10F08FFB02AA87
:1033600001466D4810F0E6FE10AC6C4806F006FE13
:1033700000212246029806F0CDFE204606F0FEFD12
:10338000674806F0FBFD4FF00008634F654E63E0B1
:1033900064210AEBCA0207EB820292694FEACA056E
:1033A00001FB02F2B2FBF3F35FFA83FB224600213A
:1033B000504606F0AFFE204606F0E0FD5A4806F003
:1033C000DDFD05EB0A0307EB8309D9F8040006F0DD
:1033D000D5FDD9F80400FCF73DFF07288CBF304627
:1033E000524806F0CBFD05EB0A0307EB83031B7B7A
:1033F0005544052B96BF4E4A4E4852F8230006F01E
:10340000BDFD22460021584606F084FE304606F0F7
:10341000B5FD204606F0B2FD07EB8505464806F0EF
:10342000ADFD22460021288C06F074FE304606F0E1
:10343000A5FD204606F0A2FD304606F09FFD22467F
:103440000021A86906F066FE204606F097FD304888
:1034500006F094FD08F1010810F010FB5FFA88FAFD
:1034600050457FF6A8AA029B002B91D19B464FEABC
:10347000CA059BE7314806F081FDFFF79CBA00249E
:10348000224B3C70DC60FEF793F801222C4BBA70A3
:103490001C7017E4681C06F0D7FE03461A4AC3F3F3
:1034A0000A0301211A48936306F0FAFCFFF783BA76
:1034B000681C06F0C9FE0346134AC3F30A03012140
:1034C0001348536306F0ECFCFFF775BA681C06F06E
:1034D00095FE0E4B9861FFF7F5BB00233B71FFF79C
:1034E000F1BB0022094B9A60FFF7ECBB07F00EFF1F
:1034F000FFF7E8BB002001F0BDFAFFF7E3BB13F0D4
:10350000AFF9FFF7B2BB00BF00000320982A0320E9
:10351000E4750108FC8801087054012048890108FD
:1035200068890108848901087C890108808901086B
:103530000C9501085C88010888890108C089010888
:1035400082000320024A034B10801980704700BF9D
:1035500054000320122D03202DE9F04100254FF4E3
:1035600000780E46384B394FC3E90055C3E9025580
:10357000374B384A1D80384B38491D80384BA2F8EC
:1035800000801D80374BB5221D70374B04463846EE
:103590001D7012F0E2FB3B22294607F1B50012F044
:1035A0007CFA002E4AD0204607F2FF13344410F86C
:1035B000012BA04203F8012FF9D1002206F500707B
:1035C0002A4B80B2B0F5805FC3E9002206D0C6F571
:1035D0006062002192B2384412F05FFA0024244B5A
:1035E0004FF48062214623481C7012F056FA224A9A
:1035F000224B1588224665F30F0465F30F0203F58D
:10360000905065F31F4465F31F42C3E9004208333D
:103610009842FAD1032500221821194B2E241D703F
:10362000184B40201A702022174B1980174B18494D
:103630001C80184B08701A70BDE8F0810B4B404697
:10364000C3E90066C3E700BF6C2D0320B80A02205F
:103650007C2D0320602D0320622D0320008A0108A9
:103660001C2D0320192D0320182D0320642D032069
:10367000112D0320B8060220122D0320B876012058
:1036800058000320142D03205C0003205A0003205F
:103690005700032056000320014B1878704700BFE5
:1036A000102D032001220249024B08601A70704756
:1036B0000C2D0320102D03200022014B1A7070479F
:1036C000102D03202DE9F04F3C493D4B3D4A91F828
:1036D00000801B7892F800908BB0B8F1000F6AD090
:1036E000394A3A4912883A48049213FB08F202FB1D
:1036F00003F4B1F800A04FEA440B1D460021A0EBF3
:1037000043044FEA420EB9F1000F4BD006900792E6
:103710000846224601460027CDE90802EC1A059426
:1037200002EB450CCDF80CA02A48CA08825C01F0D7
:103730000704E24012F0010FDDE903020CBF14465A
:1037400004467BB16646DDF814A030460022013203
:10375000934204807044FAD10AF1010A554506F1FA
:103760000206F2D10137BAB24A454144DC44DBD308
:10377000DDE90802013081B28845DDF80CA01D4466
:10378000C8D8DDE906021FFA82F8009012491348F2
:10379000424603FB09F30988008804F0B1FD0BB031
:1037A000BDE8F08F01318CB2A045ECD901318CB26B
:1037B000A045F7D8E7E70648E7E700BF5700032032
:1037C0005800032056000320122D0320540003202C
:1037D000B8760120B80602205A0003205C000320BE
:1037E00000222DE9F04F744B744993F820308BB0D0
:1037F000023B0A80042B06D8DFE803F04E51550344
:103800004B0080230B806E4A1368C31A102B09D912
:103810006C4C23780BB1013B23706B4C2378002B4D
:1038200034D1106040F6FE73684C27889F4227D839
:10383000674B1D88B5F5805F22D2664A664ED31964
:103840005B78D25D43EA02231A4603F47040B0F578
:10385000004F1BB2328000F0DC8228D8B0F5804FD8
:1038600000F07E813FD8B0F5005F00F0258300F2C4
:103870001683002800F07D81C3F30B03238002E050
:103880000022564B1A700BB0BDE8F08F013B23703D
:10389000C7E740230B80B6E720230B80B3E74FF444
:1038A00080730B80AFE74FF400730B80ABE7B0F58C
:1038B000404F00F0E7822FD8B0F5204F00F0DB82B8
:1038C000B0F5304F00F03C81B0F5104FD8D1444BEB
:1038D000C2F30321C2F30312595C9B5C994216D0D8
:1038E0000237BFB213E0B0F5C04F00F0BD82B0F5B3
:1038F000E04F00F02C81B0F5A04FC1D1384AC3F39E
:103900000321C3F30313515CD35C9942E8D002371F
:1039100027800BB0BDE8F08FB0F5604F00F0DB8280
:10392000B0F5704F00F07481B0F5504FA8D14FF052
:10393000000C2B492B4FC2F30320C2F303128A5C05
:1039400003F00F063B7811F800B0029281F80FC027
:10395000002B00F04482002E00F0FF82082300229A
:103960001FFA86F9049307931F49079B09785B4464
:103970008B4200F3EF821D4B02991B784944994218
:10398000D4BF0023012303930027002A14BF4FF460
:10399000004380233A460593CDF824B0B9F1100FC7
:1039A00000F02D820B4B1D4415F807800025099E61
:1039B000CDF820906FE000BF600003201A2D032097
:1039C0000C2D0320182D0320192D0320602D03201A
:1039D000622D0320B80A02207C2D0320102D032025
:1039E0006C2D0320112D03205700032056000320C7
:1039F000BB4B029A1978BB4B3A441B78B2FBF1FCE3
:103A0000B6FBF3F04FF0010A01FB1C2203FB106030
:103A100003FB0203DFF8E8924FEAD30E19F80E1009
:103A200003F0070321FA03FB1BF0010F069218BFF6
:103A3000AD4A0AFA03FC5FFA8CFC18BF82F80FA0AB
:103A4000039A0CBF41EA0C0121EA0C0109F80E109F
:103A5000002A00F0D281D940CB0754BFA34BA44B1E
:103A6000069A1B88A3490093A34B09881B7812FB75
:103A700003F210FB03F01144A04A89B212881044EB
:103A800080B21A4604F0C6FB0122049B01359D4218
:103A900006F101064BD0059B2B4113EA080FA7D175
:103AA000039B002BF1D18E4B18788E4B1978029B1B
:103AB0003B44B3FBF0FC00FB1C3C96FBF1F301FB29
:103AC000136301FB0C338E48D908415C03F00703F4
:103AD000D940C90754BF854B854BB3F800E0864BEE
:103AE00018780028D1D0079B00FB05FA03FB00FCE7
:103AF00007FB00F90CFB09A9824B4FEA4C0C03EBC6
:103B000049090AEB000B4946002301338342A1F81F
:103B100000E06144F9D10AF1010ADA4509F102092C
:103B2000F1D1049B01359D4206F10106B3D1DDF8C8
:103B300020900137B94500F0E081734B1D882DE7D7
:103B4000694AC3F30B031278134423809BE666484B
:103B5000C3F30321425C023713442780435492E6A7
:103B60006149C3F303228A5CDBB29A427FF4B8AEA8
:103B7000CDE6DAB2012A3FF4CAAEE03A91B21F298B
:103B800000F2C4801F2A00F2C18001A151F822F086
:103B9000A54000080D3D00080D3D00080D3D000842
:103BA0000D3D00080D3D00080D3D00080D3D0008CD
:103BB0000D3D00080D3D00080D3D00080D3D0008BD
:103BC0000D3D00080D3D0008B94200080D3D0008FC
:103BD0000D3D00080D3D00080D3D00080D3D00089D
:103BE0000D3D00080D3D00080D3D00080D3D00088D
:103BF0000D3D00080D3D00080D3D0008F341000893
:103C00001141000881380008E1400008DB4200084B
:103C1000DBB2332B00F3B181062B7FF731AE073BCC
:103C20002C2B3FF62DAE01A050F823F06343000883
:103C30008138000881380008EF4400088138000806
:103C40008138000881380008813800088138000870
:103C50008138000881380008813800088138000860
:103C600081380008DB4400088138000881380008EA
:103C70009145000881380008813800088138000823
:103C800081380008813800087B4500088138000829
:103C90008138000881380008813800088138000820
:103CA0008138000881380008813800088138000810
:103CB0008138000863450008813800088138000811
:103CC00081380008813800088138000881380008F0
:103CD0004745000881380008813800085944000829
:103CE00056000320570003206C2D0320122D0320C3
:103CF000540003205A000320580003205C000320D6
:103D0000B8060220B8760120622D032003F0F002ED
:103D1000C02A00F03083D02A7FF4B2ADB04A03F05D
:103D20000F031278002A54D000254FF0010B9C4657
:103D3000AC4913FB02F991F800A0AAEB030802FBBF
:103D400008F1E24528DD2F46CE46CDE902CCCDE98B
:103D50000415A5484FEADE03C35CF90810F801C05A
:103D600018460EF0070607F007030BFA03F320FAD4
:103D700006F6DBB2F00743EA0C0558BF2CEA030550
:103D8000994B96445D54029B174401339A45029324
:103D9000DFD1DDE903C1059D904513DA0B464646A8
:103DA00091484FEAD30E10F80E0003F007070BFA04
:103DB00007F720EA070701368B48964200F80E7095
:103DC0001344EDD10135954201F1010109F10109D9
:103DD000B7D1FFF777FC23880233238053E5834B69
:103DE000C0221B882E2100931820602304F012FAB1
:103DF00001233B707E4B1D88ADE5012268E67D4BBB
:103E000005EB4705591991F801805B5D48EA0328E5
:103E1000CCE5C2F3032103F00F030D46C2F30310F8
:103E20000E2B3FF62DAD01A656F823F06740000893
:103E30005740000847400008374000081940000874
:103E4000D53F000873400008B93F000881380008DA
:103E5000813800088138000881380008813800085E
:103E600081380008414300086349C3F30322023745
:103E70008B54278007E55E4AC3F30B030237138098
:103E8000278000E504F0B0FB33885B4DC3F30321CA
:103E900000EA030223886A5402332380F3E4B0F576
:103EA000405F7FF4EDAC5449C3F303228A5CDBB27C
:103EB0009A427FF42CAD13E5504951480A8820F806
:103EC0001270013292B21F2A0A807FF6D5AC00210F
:103ED0004C4A1170D0E4DBB29E2B44D0A12B7FF46E
:103EE000CFAC4548C2F303220B88825C1341DB0749
:103EF0003FF50DAD04372780C5E4DDF824B02AB3C3
:103F0000039B1BBB364B1A78364BBBFBF2F11B787D
:103F100002FB11B00299B1FBF3F203FB12113A4B11
:103F20001B7813FB05F211FB03F1384D10FB03F076
:103F30002D8803FB09F32944354D92B22D8889B2AF
:103F40002844344D80B2009504F0DAF92388023316
:103F5000238098E40123039316E510230122994658
:103F60000493079300E52448C2F30322825C0B8884
:103F70001341DA077FF5CBACBCE7752B00F0A482C8
:103F800000F38280552B00F08A82652B7FF478AC99
:103F9000C2F30326AB19B3F5805FBFF671AC154BC6
:103FA000721C5919144811F0D8FE0135104B2E44DB
:103FB00002371E80278066E40F4B0237185C5A5C7C
:103FC00027808242A0EB02048CBF002201225C54B5
:103FD000DA7358E4084B02371A5C2780585CF0E724
:103FE0005700032056000320B8060220122D03209C
:103FF000622D0320B80A02206C2D03201C2D032003
:10400000202D0320102D0320580003205A000320E8
:104010005C000320B8760120BB4B02371A5C585C69
:1040200027801418C0F1FF008242D4BF0022012271
:104030005C54DA7327E4B44B02371A5C585C27806F
:1040400042405A541FE4B04B02371A5C585C278038
:1040500002405A5417E4AC4B02371A5C585C278074
:1040600002435A540FE4A84B02371A5C27805A5473
:1040700009E4A54902370B5C27805A0803F00103C5
:104080004A55CB73FFF7FFBB852B7FF4F9ABC2F327
:1040900003229E499C480132023711F05EFE2780C0
:1040A000FFF7F1BB4FF480620021994811F0F5FC55
:1040B0009849994A994B087812781B78984902FBDD
:1040C00003F300FB02F297480988008800909648A5
:1040D000008804F09FF8238802332380FFF7D3BBC6
:1040E0000320002318218C4A202510702E20402206
:1040F000023727808D4C23708D4C23708A4B874C60
:1041000019808749834B257008801A70FFF7BBBB65
:10411000874B824A1B7892F800A0002B0CBF4FF00F
:10412000020C4FF0040CBAF1000F3FF452AE002520
:10413000784B4FF001091E78DFF8D4E1A6EB0C07AD
:10414000B0463B4637462E46002B4CDD70462A468D
:10415000CDE902A3CDE9048CCDE906750CEB050190
:1041600003EB050BD3081EF80350CF0801F007033B
:1041700002F0070A1EF8078009FA03F325FA0AF588
:10418000DBB2ED0702F1010243EA080C58BF28EA4E
:10419000030C93450EF807C001F10101E2D1DDE9FE
:1041A00002A3DDE90675DDE9048CBB4280F2D28012
:1041B00002465946CDF808A04FEAD10B12F80B0081
:1041C00001F0070A09FA0AFA013120EA0A008845D3
:1041D00002F80B00F0D1DDF808A00136B245B84472
:1041E0003D44B1D1F5E5BB42F7DA494A03EB050B93
:1041F000DFE74F4B494A1B7892F800A0002B0CBF19
:104200004FF0020C4FF0040CBAF1000F3FF4E1AD97
:104210004FF0010900223F4B0CF1FF3793F800806B
:10422000A9EB0C0B08F1FF33A3EB0C0E384BCDF8C8
:1042300008A0E0450BEB070627D97046CDE9038CB3
:10424000CDE9052E0EEB0C01CA089D5C4FEAD00C9F
:1042500000F0070201F0070A13F80C8009FA02F2D5
:1042600025FA0AF5D2B2ED0701F1FF3142EA080E54
:1042700058BF28EA020E8F4203F80CE000F1FF302D
:10428000E2D1DDE9038CDDE9052E4FEAD60A13F809
:104290000A0006F0070509FA05F520EA0500B7420D
:1042A00003F80A0006F10106EFD1029901329142AA
:1042B0004744C644BDD18CE51E4A1388013B9BB2DE
:1042C0001F2B138002D900211B4A11701B4A32F8A0
:1042D000133002332380FFF7D6BA012338250E4866
:1042E0000237037010482780058000208024402278
:1042F0000E490B4D0870074908480C700C492A807C
:1043000002700B70FFF7BFBA6C2D0320642D0320E1
:10431000B80602205700032058000320560003204F
:104320005A000320122D03205C000320112D0320CE
:10433000142D03201C2D0320102D0320202D0320DD
:10434000984902370B5C27805A00DB094A55CB732A
:10435000FFF799BA0136B245B8443D447FF4F7AE51
:1043600037E591498F4B0978C2F3032202379954FC
:104370002780FFF788BA8D4A03F00F0511780029CE
:104380003FF427AD8A4B6A1E1B7800205B1B5F1E23
:104390001A44002F01FB02F201FB07F62EDB854BCE
:1043A0009446B046BB46CDE9025004924FF0010955
:1043B0004FEAD80E13F80E500CF0070E4FEADC024D
:1043C00009FA0EFE08F00709985C25FA09F95FFA68
:1043D0008EFE19F0010F0BF1FF3B40EA0E0A08BFF9
:1043E00020EA0E0ABBF1FF3F03F802A0A8EB010888
:1043F000ACEB010CDAD1DDE90250049A0DB34FF0B9
:10440000010A6C4B84464FF0000E4FEADC0913F8AA
:1044100009800CF0070B0EF1010E0AFA0BFB28EADB
:104420000B08754503F809808C44EED101308142B8
:1044300006F1010602F101023FF4CBAC002FAFDA26
:10444000E0E70130814206F1010602F101023FF48A
:10445000C0AC7B1CA3D1F4E7A81CB0F5805FBFF60D
:104460000FAA0237278064244E4BC2F303229A5CC2
:104470000A21B2FBF4F3504F7B5504FB1323DBB24C
:10448000B2FBF1F2B3FBF1F401FB1433B2FBF1F434
:1044900001FB14227E1972703B54FFF7F4B9C2F38A
:1044A0000326AB19B3F5805FBFF6EAA9424B721C35
:1044B00058193C4911F051FC0135404B7219023733
:1044C0001A802780FFF7DFB9C2F303223549013292
:1044D0003B4811F042FCFFF71ABA3249C2F30322FB
:1044E0008A5C314B02371A702780FFF7CCB9002065
:1044F000344DB1F800804FF0010E8446298805E064
:104500004FF0010CB1B20130102815D048FA00F379
:104510000EFA00F613F0010346EA0106F0D141FA63
:1045200000F6F607EFD52B801E4BC2F303220237AD
:1045300027809854FFF7A7B9BCF1000F3FF4A3A957
:104540002980FFF7A0B9174BC2F303229B5C1B4ADB
:1045500003EB83035B000237503313802780FFF7A0
:1045600092B9104BC2F303229B5C144A023703EB4F
:10457000830313802780FFF786B90A4BC2F3032217
:104580009B5C0E4A02372B4427801380FFF77BB9D0
:104590000449C2F303228A5C0B4B02371A7027804E
:1045A000FFF771B96C2D0320192D0320570003204C
:1045B00056000320B8060220B80A0220622D03200C
:1045C000642D0320162D0320182D0320704700BFF3
:1045D00091B14FF0FF3210B4084C014410F8013B88
:1045E0005340DBB254F82330884283EA1222F5D1DB
:1045F000D0435DF8044B704708467047F4B4010897
:10460000704700BF704700BF0022014B1A6070471F
:10461000842D0320704700BF00207047024A1368B2
:1046200001331360704700BF842D0320024A1368D2
:1046300001331360704700BF802D032000200FF06E
:10464000BFB800BF00200FF0BBB800BF0022014B75
:104650001A7070478200032000295DD030B5C0F386
:104660000743EF2B4FEA102C0C4683B0C0F3112008
:1046700015D84FF209037F480CEA0000984217D87A
:10468000B0F5704F5DD9A0F57043013B082B0DD8F4
:10469000DFE803F0780C867F940C0C0C8D004FF251
:1046A0000903984204D8B0F5704FECD103B030BD87
:1046B0004FF602739842F9D84FF6F06398422CD91E
:1046C000A0F57E43F13B112BF0D801A151F823F066
:1046D000D9470008AD460008AD460008AD460008C1
:1046E000AD460008AD460008AD460008AD460008DE
:1046F000AD460008CB470008AD460008AD460008AF
:10470000AD460008AD460008AD4600080348000865
:10471000AD460008E747000870474FF6D45398426B
:1047200000F08C804FF6416398421ED04FF6CC5378
:104730009842BBD121461046FCF710FE4E4B5883E1
:10474000B4E7B0F5806F05D11046FCF71BFD4A4B6E
:104750005880ABE75CD878B1B0F5807FA6D1104621
:10476000FCF7A8FD444BD881A0E721461046FCF792
:1047700037FE414B188399E71046FCF731FD3E4B5D
:10478000D88093E721461046FCF70AFD3A4B188083
:104790008CE721461046FCF74FFD374B988285E7A2
:1047A00021461046FCF728FD334B98807EE72146D2
:1047B0001046FCF763FD304B188177E72146104621
:1047C000FCF784FD2C4B187370E721461046FCF76C
:1047D000E9FD294B188269E721461046FCF7DAFD0E
:1047E000254B588262E721461046FCF77BFD224BA1
:1047F00083F8200093F8200003B0BDE8304001F0BA
:104800003BBC21461046FCF701FE1B4BD8834DE70D
:10481000B0F56F4F7FF44AAF5FFA8CFCBCF1130F19
:104820001BD0BCF15A0F1ED0BCF1210F7FF43EAF5C
:104830001046FCF78BFD104BD87537E72146104624
:104840000192FCF7B7FD0346019A0B4D2146104635
:10485000AB83FCF77BFDE87528E71046FCF702FD0B
:10486000054B588122E71046FCF76AFD024B98750C
:104870001CE700BF00FF030060000320294B1B78EA
:10488000002B4DD12DE9F043274D0646DFF89C80E3
:1048900083B005F11C0701E0AF423ED055F8044F4C
:1048A000E36E626EF31A9342F6D3B4F9723001A943
:1048B00004EBE300002B00F1240007DBB4F86830C0
:1048C00002225BBAADF8043005F002FDB4F9743091
:1048D00004F12409002B4FEAE30110DB4846FFF7FF
:1048E00077FE0190B4F9740004220028B8BF0730A5
:1048F000C010243001A904FA80F005F0E9FCD8F8D2
:104900000030494623612046FCF74EFFA36EAF42BC
:1049100003F10103E666A366C0D103B0BDE8F083EE
:10492000704700BF82000320F0B801080000032098
:1049300010B50446013005F087FC1649FCF70AFC67
:10494000201D05F081FC1449FCF742FCE01D05F038
:104950007BFC1249FCF768FC04F10A0005F074FCCA
:104960000F49FCF775FC04F10D0005F047FC0D49FB
:10497000FCF798FC04F10F0005F040FC0A49FCF735
:10498000D7FC04F1110005F039FCBDE810400749DF
:10499000FCF7F6BC5C040320E40303206C03032053
:1049A000F40203207C020320040203208C01032074
:1049B00010B504460B4805F0E1FAE06805F0F4FA9A
:1049C000206905F0F1FA606905F0EEFAA06905F0DA
:1049D000EBFA054B986805F0E7FABDE8104003488C
:1049E00005F0CCBAB88A010858010320E475010823
:1049F00038B505460C461C4805F0C0FA1B4B9868B4
:104A000005F0D2FA286805F0CFFA686805F0CCFA0C
:104A1000A86805F0C9FAE86805F0C6FA206805F04C
:104A2000C3FA606805F0C0FAA06805F0BDFAE06856
:104A300005F0BAFA206905F0B7FA606905F0B4FA32
:104A4000A06905F0B1FAE06905F0AEFA206A05F058
:104A5000ABFA606A05F0A8FAA06A05F0A5FABDE80D
:104A60003840034805F08ABABC8A010800000320D8
:104A7000E4750108014B1870704700BF882D0320B2
:104A8000074B1B78012B00D0704710B5044605F08A
:104A90002BFC01462046BDE8104005F001BA00BFDE
:104AA000882D03202DE9F84F7B4D074695F800C06F
:104AB0000E46BCF1010F90461C4600F09280DFF8D4
:104AC000EC9199F80430002B40F083802B78002C77
:104AD00076D0012B00F09880A10700F1AE8061072D
:104AE00000F1AE81200700F1B680E10640F1C280FE
:104AF000A00600F1C180610640F1758314F4801AAC
:104B000000F07682A10240F12182D6F800B0BBF11C
:104B1000010F00F07283BBF1020F00F06E834FF4BF
:104B2000801ABBF1030F03D0BBF1040F40F04D849A
:104B3000640200F11082387805F02AFA2B78012BF4
:104B400000F04E823868C0F3C70005F021FA2B78D8
:104B5000012B00F0B982387905F01AFA2B78012B75
:104B600000F0A182387B05F013FA2B78012B00F0BE
:104B70004D8296F8280005F00BFA2B78012B00F0F7
:104B80005482B268182A00F26B81DFE812F06901E2
:104B900069016901690169016901690169016901C5
:104BA00069016901690169016901690169016901B5
:104BB00069016901690169016901690169016901A5
:104BC000012B00F07882D8F81830D9F80830BDE809
:104BD000F88F38463146FFF70BFF4046FFF7E8FEF7
:104BE00074E72E4805F080FB01462C4805F058F983
:104BF0002B78012B7FF463AF294805F075FB014644
:104C0000274805F04DF95AE7264805F06DFB0146A7
:104C1000244805F045F9E2072B780AD5012B40F02E
:104C20000184214805F060FB01461F4805F038F972
:104C30002B78A20744D5012B3AD0600700F1008100
:104C4000210708D4E0063FF553AFA10614D462064D
:104C50003FF554AF73E0E0063FF54AAFA1060BD431
:104C600060063FF54BAF21063FF548AFE2053FF543
:104C700045AF7EE0A20655D560063FF53FAF210661
:104C80003FF53CAFE0053FF539AFA1053FF536AF45
:104C9000E2033FF533AF86E0882D0320C08A010888
:104CA000F88A01081C8B0108208B01085801032099
:104CB000954805F019FB0146934805F0F1F82B786B
:104CC00062070AD5012B40F0BB80904805F00CFB31
:104CD00001468E4805F0E4F82B78220709D5012B10
:104CE000B9D18B4805F000FB0146894805F0D8F89A
:104CF0002B78E2060AD5012B7FF4FAAE854805F041
:104D0000F3FA0146834805F0CBF82B78A20609D5C3
:104D1000012BB1D1804805F0E7FA01467E4805F045
:104D2000BFF82B7862060AD5012B7FF4E7AE7B48EB
:104D300005F0DAFA0146794805F0B2F82B7820063A
:104D40000AD5012B7FF4DAAE754805F0CDFA01469D
:104D5000734805F0A5F82B78E1050AD5012B7FF4FF
:104D6000CDAE704805F0C0FA01466E4805F098F8DF
:104D70002B78A2050AD5012B7FF4C0AE6A4805F056
:104D8000B3FA0146684805F08BF82B78E0030AD5A2
:104D9000012B7FF4B3AE654805F0A6FA01466348DF
:104DA00005F07EF82B7814F4801A0CD0012B7FF4D8
:104DB000A9AE5F4805F098FA4FF4801A01465C48A6
:104DC00005F06EF82B78012B40F01281594805F060
:104DD0008BFA0146574805F063F8A1022B7800F1E1
:104DE0007B81012B7FF4A4AE524805F07DFA014689
:104DF000504805F055F862022B7840F1D280012B23
:104E0000746840F04B824C4805F06EFA01464A48FF
:104E100005F046F8012C2B7800F02882022C00F0D7
:104E2000AE82032C40F0C282012B7FF484AE434853
:104E300005F05AFA0146414805F032F82B78A5E012
:104E400020073FF508AFE1063FF552AEA0063FF55B
:104E500013AF61063FF552AE22063FF54FAE7BE73A
:104E60003269002A3AD17269002A37D1B269012A1F
:104E70003FF4A9AEF269012A3FF4A5AE326A012AD5
:104E80003FF4A1AE726A012A00F0FC81D8F8182024
:104E900052B1012B7FF499AE294805F025FA01465D
:104EA000274804F0FDFF2B78D9F8082052B1012BD8
:104EB0007FF48DAE234805F017FA0146214804F02F
:104EC000EFFF2B78012B7FF482AE1F4805F00CFA20
:104ED000BDE8F84F01461C4804F0E2BFB269012A60
:104EE0003FF471AEF269012A3FF46DAE326A012AD5
:104EF0003FF469AE726A012A3FF465AED8F8182013
:104F0000002A7FF462AECFE73C8B0108608B01087A
:104F10007C8B01089C8B0108BC8B0108D48B010899
:104F2000F08B01080C8C0108288C0108448C0108C6
:104F3000648C0108E47501086C8D0108DC8C0108A3
:104F400074900108A0900108D090010864027FF5D8
:104F5000F2AD4FF4801A7468012C3FF4ECAD022CD2
:104F60003FF4E9AD032C3FF4E6AD042C3FF4E3AD90
:104F7000052C40F0A281012B7FF4DDADA74805F0A0
:104F8000B3F90146A54804F08BFF2B78012B7FF481
:104F9000D2ADA34805F0A8F90146A14804F080FF6E
:104FA0002B78BAF1000F0AD0012B7FF4C4AD9D48D5
:104FB00005F09AF901469B4804F072FF2B78012B0B
:104FC0007FF4B9AD984805F08FF90146964804F092
:104FD00067FF387804F0DCFF2B78012B7FF4B2AD4B
:104FE000924805F081F90146904804F059FFA9E57F
:104FF000A0027FF59DADD6F800B0BBF1010F3FF4E4
:1050000097ADBBF1020F7FF48CAD91E5884805F0B8
:105010006BF90146864804F043FF96F8280004F037
:10502000B7FF2B78012B7FF4ACAD7D4805F05CF920
:1050300001467B4804F034FFBB6853B12B78012B49
:105040007FF49FAD7B4805F04FF90146794804F0A5
:1050500027FF2B78012B7FF494AD774805F044F9B6
:105060000146754804F01CFFB2682B78182A5BD8FB
:10507000DFE812F06E015A005A005A005A005A0036
:105080005A005A0063015A005A005A005A005A0046
:105090005A005A0058015A005A005A005A005A0041
:1050A0005A005A004D01654805F01EF90146634853
:1050B00004F0F6FE56E5624805F016F90146604830
:1050C00004F0EEFE2B78E1E65E4805F00DF90146AE
:1050D0005C4804F0E5FE3EE5012BD6F800B08CD12B
:1050E000594805F001F90146574804F0D9FEBBF1D3
:1050F000010F2B7800F08580BBF1020F00F03381A7
:10510000BBF1030F00F04781BBF1040F40F05D815C
:10511000012B7FF40DAD4D4805F0E6F801464B48F4
:1051200004F0BEFE2B785CE6012B7FF499AE484874
:1051300005F0DAF80146464804F0B2FE2B78012B60
:105140007FF48EAE364805F0CFF80146344804F0BF
:10515000A7FEF36853B12B78012B7FF481AE3D4855
:1051600005F0C2F801463B4804F09AFE32692B78FC
:1051700052B1012B7FF4B2AE374805F0B5F80146C5
:10518000354804F08DFE2B78726952B1012B7FF403
:10519000A5AE324805F0A8F80146304804F080FE7C
:1051A0002B78B269012A0AD1012B7FF40CAD2C486F
:1051B00005F09AF801462A4804F072FE2B78F2694D
:1051C000012A00F09880326A012A7FF45BAE012B3D
:1051D0007FF4F9AC234805F087F80146214804F034
:1051E0005FFE2B784EE620063FF588ACE1053FF5E3
:1051F00085ACA2053FF582ACC8E562023FF5A9AED9
:1052000099E4012B7FF494AC174805F06DF8014642
:10521000154804F045FE2B78E3E500BF148D010826
:10522000E4750108908D0108AC8D0108BC8D010862
:10523000EC8D0108F88D0108308E0108DC8D010825
:1052400064900108C48D0108808C0108F88C010865
:10525000E08E0108FC8E0108248F0108748F01087C
:10526000988F010808900108A48C0108012B7FF495
:1052700062AC734805F038F80146714804F010FE3E
:105280002B7883E6012B7FF49EAC6E4805F02CF85A
:1052900001466C4804F004FE2B78F7E5012C3FF43E
:1052A0004AAC022C3FF447AC032C3FF444AC042C32
:1052B0003FF441AC052C3FF43EAC062C2B780BD1CF
:1052C000012B7FF438AC604805F00EF801465E48CB
:1052D00004F0E6FD2B7859E6072C7FF457AE012B3E
:1052E0007FF429AC594804F0FFFF0146574804F009
:1052F000D7FD2B784AE6012B7FF465AC544804F0C7
:10530000F3FF0146524804F0CBFD2B785BE7012BFD
:105310007FF4A6AD4F4804F0E7FF01464D4804F086
:10532000BFFD0BE7012B7FF49BAD4B4804F0DCFF86
:105330000146494804F0B4FD00E7012B7FF490AD2D
:10534000464804F0D1FF0146444804F0A9FDF5E6C3
:10535000012B7FF485AD424804F0C6FF014640486A
:1053600004F09EFDEAE6012B7FF4E2AB3D4804F039
:10537000BBFF01463B4804F093FD2B7831E5012B40
:105380007FF4D9AB374804F0AFFF0146354804F04D
:1053900087FD2B78FAE5012B7FF4CAAB324804F085
:1053A000A3FF0146304804F07BFDBBE6042C7FF4EC
:1053B000DFAD012B7FF4BFAB2C4804F095FF014615
:1053C0002A4804F06DFD2B78E0E5BBF1050F2B7842
:1053D0000AD1012B7FF4ACAB254804F085FF0146D0
:1053E000234804F05DFD9DE6BBF1060F0BD1012BB8
:1053F0007FF49EAB144804F077FF0146124804F096
:105400004FFD2B78EDE4BBF1070F7FF4EAAC012BE5
:105410007FF48EAB0D4804F067FF01460B4804F0A3
:105420003FFD7FE6A0077FF55AAB60073FF508AD6B
:1054300021073FF510ACE2063FF55AAB66E400BF2A
:10544000A48C01083C900108308D01084C8D0108A6
:10545000D08F0108BC8E01089C8E0108708E010857
:10546000448E0108C08C0108DC8C0108F88C01080E
:10547000148D010838B50446054B064D1A602960A5
:1054800000F022F8204603F00BFC002038BD00BFDE
:105490008C2D0320902D032003F022BC084B10B567
:1054A0001B6803F053FC012800D010BD0023BDE8A9
:1054B0001040044902220968086819460FF006B82E
:1054C0008C2D0320902D032000B583B0102001A95E
:1054D00000F040F910B903B05DF804FB0021102082
:1054E00000F020F9003818BF012003B05DF804FB7C
:1054F00000B583B0102001A900F02CF928B90146AD
:10550000019830B903B05DF804FB012003B05DF8E9
:1055100004FB102000F006F9003818BF012003B08A
:105520005DF804FB70B5002682B004460D461020DD
:1055300001A9019600F00EF910B9019BA34202D80F
:10554000012002B070BD04F11100294680B200F0C4
:1055500001F9801B18BF012002B070BD002210B5F8
:10556000114B82B01B78019213B9184602B010BDDE
:10557000044601A9102000F0EDF840B9019811305F
:10558000FF2804D8214680B200F0CCF818B10123DE
:10559000184602B010BD01991020013100F0C2F888
:1055A000031E18BF0123E0E783000320014608B56E
:1055B000102000F0CFF8003818BF012008BD00BF50
:1055C000422804D0432807D044280BD070470A460D
:1055D0000748202106F05EBE0A4606484FF40051F7
:1055E00006F058BE0A460448012106F053BE00BF2B
:1055F000000402420008024200000242422804D095
:10560000432807D044280BD070470A46074880211A
:1056100006F040BE0A4606484FF4804106F03ABE06
:105620000A4603484FF4004106F034BE000402422B
:105630000008024210B5044620212246074806F021
:1056400029FE22464FF40051054806F023FE22466B
:10565000BDE810400121034806F01CBE00040242D0
:10566000000802420000024238B50446094D2246B5
:105670008021094806F00EFE284622464FF480415C
:1056800006F008FE22462846BDE838404FF40041A7
:1056900006F000BE000802420004024238B5144D74
:1056A000144C28460022802106F0F4FD20460022FA
:1056B0004FF4804106F0EEFD00224FF400412046F9
:1056C00006F0E8FD0A200DF063F8284601222021AB
:1056D00006F0E0FD204601224FF4005106F0DAFD0D
:1056E000BDE8384001220448114606F0D3BD00BF92
:1056F00000040242000802420000024210B506F017
:1057000027F900200BF0FCFD044618B906F034F927
:10571000204610BD00200BF0C5F906F02DF92046FB
:1057200010BD00BF38B504460D4606F011F92046FD
:1057300029460CF09FF8C305044603D406F01CF973
:10574000204638BD0BF088FA0443A4B206F014F9E1
:10575000204638BD0BF0E0BBF8B54FF4805600246E
:105760000F46054683190470C0F802400473846034
:105770001C74C3F812409C61DC8100F50053324672
:105780002146C3E907445F620D3010F086F9A8197D
:1057900032462146BDE8F8401C3010F07EB900BF0B
:1057A000F0B5044683B0836031B3157894462B0975
:1057B000032B21D8DFE803F0253A600205F00F053E
:1057C00000F50056012986F8215000F0AB809CF8C6
:1057D0000130022986F8223000F0A7809CF80230C0
:1057E00086F82330002D00F0AC80012D00F09F8062
:1057F000032204F580531A74237B012B73D003B06A
:10580000F0BD03780BB1002303706B1E062BF3D899
:1058100001398D42F0D82A460CF1010104F10D0046
:1058200004F056FD022365802370E5E703780BB191
:10583000002303700729DFD99CF800309CF8012071
:105840001B0203F470631343072BA380D4DD0622ED
:105850000CF1020104F10D0004F03AFD01220021D7
:10586000062004F5005622706080B17704F580515F
:10587000CA813023F27F3CE00378012BBCD100F5D4
:105880008057FA8905F00F0502F00F039D4246D1BB
:105890004088A3881B1A9BB2072B5BD90829ABD180
:1058A0000132FA814B1EDDB20D302A460CF10101A6
:1058B000204404F00DFD6388A2882B449BB29A42D9
:1058C00063804FD004F50056F27F002A94D0FB8904
:1058D000013B93FBF2F102FB1133002B8CD1B37F20
:1058E00043F0300305E004F50056B37FF27F43F048
:1058F0003003002196F8200021738DF80200032068
:10590000746A8DF800308DF8012004F0DBFC03464A
:105910006946706AE360FBF747FF03B0F0BD002300
:10592000037069E7002386F82230002358E704F566
:105930008052137C013B012B3FF65EAF02231374B0
:105940005AE704F580531A7C022A7FF455AF0122EE
:105950001A7451E78B42BFF44FAF0132072BFA8123
:10596000A1D19FE70223237046E700BF2DE9F8434A
:1059700000F58056347C012C03D000242046BDE87D
:10598000F88300F500581D4698F823300F46F12B98
:1059900028BF0123B1698446691A9942EDD3718AFF
:1059A000B38A99B9072B50D81046314600F8013B0D
:1059B000B28A1C3104F08CFC0322B38A01333B70A1
:1059C000B38A7382A8F81C4032743AE010465B1A1E
:1059D0001FFA83F9B8F81C30B9F1070F03F00F0371
:1059E00043F0200300F8013B718A01F5805101F179
:1059F0001C01614414D9072204F06AFC08233B709F
:105A0000738A0733738298F82220B8F81C30AAB141
:105A1000B3FBF2F102FB113282B9022232740DE0C3
:105A20004A4604F055FC032309F101023A7033742D
:105A3000738A9944B8F81C30A6F812900133A8F87C
:105A40001C302046B561BDE8F883C3F3032343F05F
:105A500010031370B38A00F580515370901C1C31F1
:105A6000062204F035FC082306223B7002237282D2
:105A7000A8F81C403374E4E70378012B06D1826850
:105A8000034B891A9942C4BF00230370002070475A
:105A9000400D030030B500F5805514462A7C0B46B6
:105AA000013A012A93B006D8AA698A1A12498A4291
:105AB00084BF03222A7402AA0DF10701FFF756FFE3
:105AC00050B92B7C032B02D0002013B030BD002333
:105AD00001202B7413B030BD9DF8070004F0F2FBD9
