:020000040800F2
:10000000000004205DDA000819D800081DD8000897
:1000100021D8000825D8000829D80008ADDA000842
:100020000000000000000000000000000180010846
:100030002DD8000800000000917F010861580108D8
:10004000ADDA0008ADDA0008ADDA0008ADDA000874
:10005000ADDA0008ADDA0008ADDA0008ADDA000864
:10006000ADDA0008ADDA0008ADDA0008ADDA000854
:10007000ADDA0008ADDA0008ADDA0008ADDA000844
:10008000ADDA0008ADDA0008ADDA0008ADDA000834
:10009000ADDA0008ADDA0008ADDA0008ADDA000824
:1000A000ADDA0008ADDA0008ADDA0008ADDA000814
:1000B000ADDA000831D800083DD80008ADDA0008F4
:1000C000ADDA0008ADDA0008ADDA0008ADDA0008F4
:1000D000ADDA0008ADDA0008ADDA000849D800084A
:1000E00055D80008ADDA000861D80008ADDA00087C
:1000F000ADDA0008ADDA0008ADDA0008ADDA0008C4
:10010000ADDA00086DD8000879D80008ADDA00082B
:10011000ADDA0008ADDA0008ADDA0008ADDA0008A3
:10012000ADDA000885D8000891D80008ADDA0008DB
:100130009DD80008ADDA0008ADDA0008ADDA000895
:10014000ADDA0008ADDA0008A9D80008ADDA000879
:10015000ADDA0008ADDA0008ADDA0008ADDA000863
:10016000ADDA0008B5D80008ADDA0008ADDA00084D
:10017000ADDA000800000000ADDA00080000000061
:10018000C1D80008ADDA0008ADDA0008ADDA000821
:10019000ADDA0008ADDA0008ADDA0008ADDA000823
:1001A000ADDA0008ADDA0008ADDA0008ADDA000813
:1001B000ADDA000800000000CDD80008ADDA000874
:1001C000ADDA000800000000ADDA0008ADDA000882
:1001D000ADDA0008ADDA0008ADDA0008ADDA0008E3
:1001E000ADDA0008ADDA0008ADDA0008ADDA0008D3
:0401F000000000000B
:1002000010B5054C237833B9044B13B10448AFF350
:1002100000800123237010BD480703200000000068
:10022000409B010808B5034B1BB103490348AFF3DA
:10023000008008BD000000004C070320409B01081F
:1002400010F8012B11F8013B012A28BF9A42F7D080
:10025000D01A7047034613F8012B002AFBD1181A55
:1002600001387047704700BF2DE9F041234C244D01
:10027000244E254FDFF8948082B04FF0FF330222E6
:1002800020680DF1060116F063F9022807D02B78DB
:10029000012B29D0012130460CF084FDEDE742F21C
:1002A0000303BDF806209A42F1D841464FF0FF33D0
:1002B000206816F04DF9BDF806108142E7D140469E
:1002C00006F08EFE0028D8D12B78BDF80610012B41
:1002D0000E480DD005F028F80128CED12B78B3FABE
:1002E00083F35B092B70C8E738460CF0C9FDC4E7FF
:1002F00003F0FCFD0128C0D1F0E700BF680803202F
:100300003C08032068A7010848A701083CB7002063
:100310002DE9F04F7E4CDFF81482DFF808927D4F14
:100320007D4E9BB04FF0FF3328226946206816F0BF
:100330000FF92828F6D103980CF040FF82460028D8
:1003400040F09380029B002B6DD10098D8F80030CC
:10035000984200F0928051460AAA06F061FE16F01B
:1003600085FC0AA90246684607F0B2FD16F07EFC3D
:100370000AA90246684609F0A9FC16F077FC0AA90A
:100380000246684606F02AFE3B78002BCAD0069B40
:10039000B3F5001F7FD00121BAF1080F28BF4FF03D
:1003A000080A00200D465FFA8AFADDE90132002AC8
:1003B00069D13144002B00F09D80542333540098C0
:1003C0000CF0A2FD0544EDB2069B7119B3F5001FB8
:1003D0006CD00AF00F000CF015FE0544EDB2BAF136
:1003E000000F0BD00AAB9B469A441BF8010B711906
:1003F0000CF0F8FDDA450544EDB2F6D1FB78002BA0
:100400005CD17B791BB1069BB3F5001F76D00D2321
:10041000691C4148C9B273550CF0C4FC002881D056
:1004200000233B707EE7B3F1005FA6D1009BB3F5DC
:10043000E06FA2D1C9F80030039B0199082B28BFB7
:1004400008231A460023C9F80410C9F80C203349C0
:1004500008223348C9E90533C9F808300CF0BAFE60
:100460002F49304803F0AEFB87E702464FF0FF33D9
:1004700020680AA916F06CF864E72B492B4803F0B2
:10048000A1FB009867E753B352234FF0000A33549F
:100490003144009894E7059B0221B3F5801F14BFF7
:1004A0003023312301200D4633707EE7039800F09E
:1004B0000F000CF0A7FD2B18DDB290E716F0D6FB6D
:1004C0004EF660221A4B7119A3FB00C39B0B02FB73
:1004D000130080B20CF064FD2B18DDB291E79A4650
:1004E000722333540098314480B20CF043FD2B1832
:1004F000DDB269E7742333540098F5E7049BB3F148
:10050000004F84D1692373550135EDB27FE700BFF9
:10051000E43B03206C0103203CB500209005FA0B5E
:100520006C07032078070320383D0320403D03205B
:1005300073B2E7452DE9F0411F4DDFF884801F4F6E
:100540009AB0002404EBC40101AEC4F124024FF0C0
:10055000FF33286806EB810115F0FAFF0444232CD1
:10056000F0D904980CF02AFE039B0646B3F1005F15
:1005700000D0A0B938460EF0B7F850B138460AAAF4
:1005800001A90DF06BFFD8F80C300133C8F80C301E
:10059000D7E74FF0FF31012017F020F8EAE70024F9
:1005A0000AA9321B21444FF0FF33286815F0D0FF11
:1005B0000444A642F4D8DDE7E03B0320482B0320A7
:1005C000100003202DE9F04182B006F023FD03F076
:1005D000FDF907F07DFD00F0C7FD0AF0EFF816F019
:1005E00045FB06F0F1FC16F041FB06F0F1FC244857
:1005F00012F024F8234811F0E9FF2349234809F0B9
:1006000083FA234F08F032FA224DDFF89080224E11
:1006100005E001330CD10A2101A816F08FFC16F079
:1006200025FB3B68019001332B68F2D101330BD0DD
:100630004FF47A7401E0013CEDD03146284603F0D6
:10064000C1FA0028F7D0E6E70AF0B6F801980AF0F8
:10065000BBF8019800F08AFD98F800304BB1019882
:1006600006F0C0FC019807F031FC019809F062FA2D
:10067000D1E7019806F01CFE019806F0A7FCEEE712
:1006800080280320E8270320581B0320E8290320A3
:10069000403D0320143D03200C3D03209200032025
:1006A0002DE9F04700272B4D2B4EDFF8B0A0DFF8E7
:1006B000B090DFF8B080A4B016E0630203D53379C0
:1006C00043F08003337199F8003033B1099B23B1B3
:1006D000642015F05BF903F079F900230222194632
:1006E000D8F8000016F0F0FF4FF0FF31012016F0AF
:1006F00075FF17F053FB28460EF04CF9044604A989
:1007000028460DF0ADFF694628460DF0D1FF542272
:1007100031460FA8B46018F09EFC2F66169BB3F507
:10072000003F02D9B3689A020CD417F045FB9AF83F
:100730000030012BC1D1234668460FAA04A906F058
:10074000CBFEBAE7012386F82030099303F0C8F9FD
:10075000EBE700BF482B032010000320E03D0320FF
:10076000680703200820032000232DE9F04784B008
:100770005B4C5C4D5C4FDFF87481DFF874910DF1D8
:100780000E068DF80B3004E04FF0FF31002016F01C
:1007900025FF206815F004FE0028F5D04FF0FF3348
:1007A000012220680DF10B0115F0D2FE0128EBD1DA
:1007B000206815F0F5FD0128E6D94FF0FF3302223D
:1007C000206803A915F0C4FE0228DDD1BDF80C2075
:1007D000B2F5805FD8D2002A55D19DF80BA0BAF1AE
:1007E000000F16D116F042FA3B462946BDF80C2000
:1007F00000960BF0B5FABDF80E30002B56D116F06E
:1008000035FA3B462946BDF80C2000960CF062FAFA
:10081000BAE716F02BFA344B3249BDF80C2000969B
:100820000CF0F4F9BDF80E301BB33A787F2A08D1EA
:10083000022B1ED9BB78A3F11102012A19D9312B41
:1008400017D04FF0FF3302223146D8F8000015F0E0
:10085000B5FD4FF0FF332449BDF80E20D8F8000055
:1008600015F0ACFD002302221946D9F8000016F05D
:100870002BFF16F0FBF91C4B1A49BDF80C20009613
:100880000CF028FA80E74FF0000AA2EB0A0205EB11
:100890000A014FF0FF33206815F05AFEBDF80C2016
:1008A00050441FFA80FA5245EFD196E731464FF097
:1008B000FF330222D8F8000015F080FDBDF80E20AD
:1008C0004FF0FF330849D8F8000015F077FD534684
:1008D00002225146D9F8000016F0F6FE8FE700BF5D
:1008E000A807032038A5002038950020A40703207E
:1008F000480D03202DE9F84F2A4E2B4DDFF8ACA010
:1009000006F11C0706F5805B06F11408A6F5805970
:1009100004E04FF0FF31002016F060FE286815F06B
:100920003FFD0128F5D94FF0FF33022241462868E8
:1009300015F00EFE0228ECD1B28AB2F5805FE8D243
:1009400062B10024121B39194FF0FF33286815F0EB
:10095000FFFDB28A204484B2A242F3D116F086F998
:100960000146484607F0E4FD0028D2D116F07EF992
:100970000BF058F90128CCD0286815F011FD01289A
:10098000C7D89AF8003053B19BF8230014F0FEFF4B
:1009900016F06CF90BF046F90128BAD0ECE70A2002
:1009A000F4E700BF8C3D0220A4070320920003203F
:1009B00038B50D490D480CF0C7F90B4A0C490D48E4
:1009C00017F0AEFD094D0C4C21464FF0FF334FF4AC
:1009D0000062286815F0BCFD01460028F4D02046CE
:1009E0000CF0CAF9F0E700BF980803204008032084
:1009F000BC2403206808032040D7002006F002BB77
:100A0000002006F003BB00BF0022024B02481A6020
:100A100011F014BE6407032034280320014B18682A
:100A2000704700BF6407032030B59FB04822002103
:100A30000CA818F0B0F900234FF40070CDE9023390
:100A4000CDE90433CDE90733CDE9093301930693AA
:100A50000B930FF0B9FF08B172B6FEE70123022233
:100A6000169311931993179210231D9207229FED4D
:100A70001E7BCDE91A320324042312900CA81C9388
:100A80008DED0C7B189410F0E1F9034608B172B6B5
:100A9000FEE70F22214601A8CDE903330593029416
:100AA000019210F081F8034608B172B6FEE7104AD1
:100AB0004FF00055916D4BF67F3441F08071916598
:100AC000926D069302F080720092089322222023F6
:100AD00006A8CDE90A2300990795099411F014F9A5
:100AE0001FB030BDAFF300802900000000000100FE
:100AF00000100240F0B593B072B64FF00062A84B00
:100B00009A60BFF34F8F62B600250CF0D1FF08F05A
:100B100073F8FFF789FFCDE90D55CDE90F55A14CCD
:100B20001195E36C4FF4604143F00403E364E36C1C
:100B30002A4603F004030693069BE36C9A4843F0AD
:100B40008003E364E36C012603F080030793079BB3
:100B5000E36C082743F00103E364E36C03F0010353
:100B60000893089BE36C43F00203E364E36C03F037
:100B700002030993099B0EF0B1FB2A4640F20111D2
:100B80008A480EF0ABFB2A4641F2E40188480EF099
:100B9000A5FB4FF4604384480DA9CDE90D360F95B0
:100BA00010950EF0DDF940F2011380480DA9CDE952
:100BB0000D36CDE90F550EF0D3F941F2E4037C4830
:100BC0000DA9CDE90D36CDE90F550EF0C9F97948DB
:100BD0000DA9CDE90D750F950EF0C2F9A36C052195
:100BE00043F00403A364A36C2A4603F004030393B5
:100BF000039BA36C1D203343A364A36C3340049375
:100C0000049BA36C43F00203A364A36C03F00203F0
:100C10000593059B0CF082FF1D200CF0BBFF2A46BC
:100C200005211E200CF07AFF1E200CF0B3FF2A468F
:100C3000052150200CF072FF50200CF0ABFF28462D
:100C40000EF0D4FE08B172B6FEE70EF0E3FE0346E6
:100C500040B959484360594B036011F07DF818B111
:100C600072B6FEE772B6FEE710224FF44071544BA5
:100C70000F241870534B99609A619A623C21132299
:100C8000C3E907120422C3E90B424F4A5860D860F7
:100C90009874D8631846C3E90D661E825E615E6271
:100CA0001A600DF00DFA034668BB4FF0FF31474A5A
:100CB0004FF4827CC2E90500C2E90100D0601160F6
:100CC00007224FF4E0654FF400744148C0E90A324E
:100CD000404AC0E90433C0E90833C2E90533C2E938
:100CE000013383600363D3603B4BC7610360476399
:100CF000C0F804C0C5608461116011F059FA034660
:100D000018B172B6FEE772B6FEE73448344AC0E95D
:100D100005338380026006620CF06EFF034608B163
:100D200072B6FEE74FF4027102222E48C3722E4BB8
:100D300081800360C0F807200EF076FE034608B1FC
:100D400072B6FEE741F63F75284C294ACDE90D0001
:100D50000F902046C4E90133A3612260E56011F0E1
:100D600081FE034608B172B6FEE720460DA90D9339
:100D70000F9311F0A9FE034608B172B6FEE71D48B5
:100D80001D4ACDE90D33026042F20F72C0E902350F
:100D90000F938361426011F065FE78B372B6FEE78F
:100DA00000ED00E000100240000802420000024294
:100DB00000040242001C02424C2A032000080C429C
:100DC00068070320482B032000A40040403D032077
:100DD000E8290320143D032000380040AC2B0320F9
:100DE00000300240C024032000D4004034280320F7
:100DF00000140040802803200010004000238E488B
:100E00000DA90D930F9311F05FFE034608B172B662
:100E1000FEE74F254FF6FF748848C0E9043383602E
:100E20008361874BC460C0E9003511F01BFE0346A7
:100E300008B172B6FEE78348C0E90153C0E9034335
:100E4000C0E90533804B036011F00CFE034608B186
:100E500072B6FEE74FF080414FF0FF327B4CCDE998
:100E60000D00CDE90F00C4E901000A902061A061E6
:100E70002046CDE90B332160E26011F0F3FD08B1AB
:100E800072B6FEE74FF4805320460DA90D9311F082
:100E900013FC034608B172B6FEE720460AA90A937E
:100EA0000C9311F011FE044608B172B6FEE76848D3
:100EB000684900902246684B0C7043F69820012147
:100EC00015F0E0F90546654E654A0096012115606A
:100ED000644B224643F6982015F0D4F90546624E3D
:100EE000624A009601211560614B224641F20100E1
:100EF00015F0C8F902465F4E5F4D009601215F4B29
:100F00002A6041F20100224615F0BCF95C4B5D4AB3
:100F100001210092186022465B4B43F6982015F0A1
:100F2000B1F95A4B5A4A0121009222461860594B96
:100F300043F6982015F0A6F9574B584E18602046F6
:100F400007F092F8204607F0A9F807F0F1F815F03D
:100F50008DFE2A46524B5349009606F0A5FF524893
:100F60000AF0BEFA514806F015F85148514A524964
:100F700002F012FD0DA80D9407F032F810B90D9B88
:100F8000002B55D014F07AFC17F038F900214B4AA9
:100F90004B4814F09FFC04464A4B00214A4A4B48F8
:100FA0001C6014F097FC0446494B0021494A4A480A
:100FB0001C6014F08FFC04463F4B0021474A484810
:100FC0001C6014F087FC0446464B0021464A474803
:100FD0001C6014F07FFC0446364B0021444A45480F
:100FE0001C6014F077FC04462E4B0021424A434813
:100FF0001C6014F06FFC0446414B0021414A4248FA
:101000001C6014F067FC0446404B0021404A4148F4
:101010001C6014F05FFC04463F4B00213F4A4048EF
:101020001C6014F057FC3F4B186014F039FCFEE7CD
:101030003D4806F0ADFFA5E780280320E827032000
:10104000004401409C27032000480140CC28032095
:101050006C0803203C080320D81901204408032011
:101060006808032040DF0020180803204008032000
:1010700034850020F4070320A807032030750020E2
:10108000A4070320D0070320983A0020E43B032064
:10109000AC07032000000020E03B03209C07032056
:1010A000A0070320F81103204C2A0320AC2B0320B7
:1010B000482B0320A81603200820032068DA010823
:1010C00069020008BC24032044DA01081103000867
:1010D000B824032020DA010835050008FCD90108EE
:1010E000C5050008581B0320D8D90108A10600082F
:1010F000B4D901086907000890D90108F50800086B
:10110000480D03206CD90108B10900089808032094
:1011100048D90108FD0900089408032024D90108D2
:10112000010A000890080320040029C0094A036846
:10113000934206D0084A93420AD0084A934205D007
:101140007047074A136801331360704705F052BFB8
:101150000CF0C0BC00140040002C01400010004006
:101160006407032072B6FEE7704700BF024B0349D5
:10117000D87D02F02BBB00BF7000032018020320B3
:1011800040F69E723B492DE9F04FB1F800803A4994
:101190003A4B0C681B88944204FB083383B064D834
:1011A00000204FF080424FF0300B354F354EDFF8C6
:1011B000DCA0354DDFF8D89004F1010E01973C44D6
:1011C000516A9942FCD3D9F810100130C1F3402C78
:1011D00011F480774CF0020CC0B24344C1F34021BB
:1011E00017D04FF0310731680A280AF801C001F121
:1011F0000101C1F30B0131602968277001F1010180
:10120000296013D9BEF1140F24D80EF1010E013458
:10121000D6E7306884F800B00AF800100130C0F357
:101220000B00306038462968013129600EF1010E4B
:10123000BEF57A6F01D00134C2E740F69F730120FA
:101240009E460D4A019F1360002307F80E3003B03D
:10125000BDE8F08F084B0020C3F800E00023019F99
:1012600007F80E3003B0BDE8F08FA6460120044F0A
:10127000EAE700BF0A0003203C2C032008000320FB
:10128000402C0320B83F0320BC3F0320C03F032075
:101290000004024270B500244FF0804101254FF652
:1012A000FF7086B0CDE90044CDE9024404940A6899
:1012B0001B4E22F001020A6032881A4B013A8A6200
:1012C0004C624D610A68184E2A430A601A6822F07F
:1012D00001021A6098625C625D611A682A431A60B2
:1012E00002F0FEFB30462A464FF400710DF0F6FF87
:1012F0004FF48072002369463046CDE90023029402
:101300000DF02EFE4FF40073032269463046CDE9FE
:101310000035039202940DF023FE06B070BD00BFAD
:101320000C0003200048014000040242F0B5BDF863
:101330001450012D3BD9302405F1FF3E1C70C1BB78
:10134000C0F38021BEF1010F01F130012FD0012740
:101350000A253E460DE00C460127013D20FA05F125
:1013600001F001016E1C01F130011AD0F4451EDAC2
:10137000664606F1010C8C4299551FFA8CFCEAD1A5
:101380000137FFB2052FE8D1C4F16104F445E4B29E
:1013900006F102060BDA03F80C4001271FFA86FC5F
:1013A000DBE7002A0CBF30253125F44549DB00205E
:1013B000F0BDC0F30071022D2144F8D001271C2597
:1013C0003E460DE00C460127013D20FA05F101F0F3
:1013D0000101112D01F130011AD0E645E7DD664625
:1013E00006F1010C8C4299551FFA8CFCEAD10137A9
:1013F000FFB2052FE8D1C4F16104F445E4B206F16F
:101400000206D4DA03F80C4001271FFA86FCDBE75A
:10141000E645CCDD31260CF10101B44289B203F876
:101420000C606BD08E45C2DD34465E5402260CF152
:101430000207BFB2C0F34041BE4501F1300126DCD6
:10144000B5E70CF10101AC4203F80C5089B26DD044
:1014500001277145ABDA30224C1C9542A4B25A5494
:1014600000F08680A645A2DD881C80B21A550022B5
:101470001A54F0BD0C4667460126013D21D320FADF
:1014800005F101F00101774501F130018FDA07F133
:10149000010C8C42D9551FFA8CFCEBD10136F6B207
:1014A000052E01D06746E8E7C4F16104E645E4B2E1
:1014B00007F102077FF77BAF0126BFB203F80C40AC
:1014C000DBE7002A0CBF302531257745BFF66FAF2B
:1014D0007A1CAC42DD5592B25FD001217245BFF655
:1014E00066AF3026541CB542A4B29E5472D0A645B5
:1014F0007FF75DAF023290B21E55B8E7042F26D0B9
:101500008E457FF754AFBE1CF6B20CF10207052ED4
:101510005C54BFB28ED17745BFF649AF30240CF191
:10152000030CDC5501261FFA8CF783E70137FFB265
:10153000052F8ED18E457FF73AAFC5F16105EDB22B
:101540000CF1020C5D5401271FFA8CF181E78E45E6
:101550007FF72DAF30265E540CF1020189B28E4523
:101560007FF725AF0CF1030701265C54BFB261E79A
:101570007A1CD2B2052A1FD0A6457FF718AF881C67
:10158000042A1D5580B27FF472AF7045BFF60FAFCD
:10159000312203311A5488B269E7711CC9B2052996
:1015A0009CD17245BFF603AFC5F16105EDB20237BC
:1015B0009D540121BAB291E7A6457FF7F8AE3122DA
:1015C0001A558A1C92B296457FF7F1AEC81C80B2BC
:1015D0009D544CE70131C9B2052910D0A6457FF7CB
:1015E000E6AE1D55042902F10204A4B215D17445DA
:1015F000BFF6DDAE3121033290B2195537E7A6456B
:101600007FF7D5AE31211955911C89B28E457FF7F0
:10161000CEAE033290B25D5429E7204627E700BFE3
:101620004A4B1868831C74D02DE9F04FC71C91B049
:1016300075D0411C53D14FF000084FF0804E444B01
:10164000444A1B88B2F800A00393434B0AEB8A0478
:101650001F88424B42481968424E64000369DA050C
:10166000FCD5DEF8242092B20369DB05F6D5DEF85E
:1016700024309B1A9C42F7D8036913F4807306D078
:10168000736ABB423FD8036913F48073F8D11D46D7
:10169000CEF82430B8F1000F1AD04FF08041039AF1
:1016A000DFF8D090DFF8B8B00DF1100C4B6A934220
:1016B000FCD3DBF81030524413F4807F1CF8013B5C
:1016C0001DD0312B1DD10135A84509F8013BEDD1C5
:1016D000224BC3F80080002011B0BDE8F08F302409
:1016E000214B224A1978127804AB0094FFF71EFEB2
:1016F00080460028A1D11E480BF0C2FB9DE7302B8D
:10170000E1D02946AAE70120144B196011B0BDE8C9
:10171000F08F4FF08043002200205A6270474FF054
:1017200080440C4B0E4A188800EB8000400013697F
:10173000DE05FCD5616A89B21369DD05F7D5636AF8
:101740005B1A8342F8D300236362C4E704000320DA
:10175000080003200A000320000003203C2C032083
:101760000004024200480140392C0320382C032099
:1017700004A80108402C032002783AB34FF0000C73
:1017800030B56346864631250BE02A2A07D10CF195
:10179000010C1FFA8CFC8EF8005000EB0C0EC25CA2
:1017A00082B1A2F13001013301290CF101049BB295
:1017B000EBD88EF80020C25C1FFA84FC00EB0C0E04
:1017C000002AEED100238EF8003030BD00230370D4
:1017D000704700BFF8B504460BF008FD142874D913
:1017E00000F1FF3E1FFA8EFE14F80E2004EB0E05EA
:1017F000312A2B4618D1A0EB0E020C2A65D8811E87
:10180000661E2A2714FA81F1064401E00C2A5CD8EE
:101810001F700B4693F800C0C3F10102BCF1310FF9
:1018200001F1FF313244F1D00021234601270E4659
:10183000204413F8012BA2F13004012C49D80029CF
:1018400045D0E7B1052953D1B2423ED05F2298423C
:1018500003F8012C29D01A4612F8014BA4F13001EB
:10186000012962D8904203F102031ED01278394652
:10187000A2F13006012E26462BD8002FE2D1B2422B
:101880000DD0984211D013F8014B1646A4F1300147
:10189000012942D82246B2424FF00101F1D1013173
:1018A00098424FF00007C9B2C3D10FFA8EFEBEF1C5
:1018B000000F08DB2A4615F801392A2B45D05F2B8B
:1018C00001D1302313700120F8BD0020F8BD164669
:1018D00001219842ADD1E8E79842E6D013F8014BD8
:1018E0000121A4F13002012A2CD8302216462246CA
:1018F000B2420BD0312AEFD19842D6D013F8014B27
:10190000A4F13001012928D80121EFE70131312E5E
:10191000C9B205D001273026DBE700270121D8E72F
:1019200006298CBF00270127D3E79042BDD011784C
:101930000233A1F13002D2B2012A96BF0E46002135
:101940003946C6E730260F46C3E70EF1FF3E0FFAD1
:101950008EFEBEF1FF3FADD1B5E7012116460F4621
:10196000B7E700BF70B571B3002344F2995600F198
:10197000FF3C0CEB01051CF8012F5C00A2F13102C9
:10198000B2FA82F24FEA933E47F6FE73520972456D
:1019900003EA040318BF7340AC45ECD14A1E00F1C2
:1019A0000E0C024400208C4412F8011F4000312923
:1019B00008BF40F00100944580B2F5D1C01AB0FADA
:1019C00080F0400970BD0B46E8E700BF2DE9F04FFD
:1019D0008FB004460BF00AFC122840F251812378A4
:1019E000302B05D0B6480FB0BDE8F04F0BF048BA29
:1019F000054606AEB3480BF043FA002731462346AE
:101A000004F10B0C13F8012FA2F13100B0FA80F0B1
:101A10009C454FEA501001F8012B40EA4707F1D1ED
:101A20004FF00008A8488DF823800BF029FA06A88B
:101A30000BF026FAA5480BF023FA03A938460BF061
:101A400063FA03A88DF814800BF01AFAA0480BF083
:101A500017FA277B9F4894F80D908DF819808DF820
:101A600018700BF00DFA06A80BF00AFA9A480BF062
:101A700007FA9A488DF818900BF002FA06A80BF0B6
:101A8000FFF995480BF0FCF9B9F1310F40F00281F4
:101A9000262D40F2FB80474606AA04F10D010DF108
:101AA0002A0011F8013F02F8013BA3F13103B3FA18
:101AB00083F390424FEA531343EA4707F1D14FF0C3
:101AC000000887488DF82A800BF0DAF906A80BF099
:101AD000D7F97E480BF0D4F903A938460BF014FA75
:101AE00003A88DF814800BF0CBF979480BF0C8F9F6
:101AF00094F820707B488DF819808DF818700BF0E1
:101B0000BFF906A80BF0BCF973480BF0B9F994F8CB
:101B1000213075488DF818300BF0B2F906A80BF09B
:101B2000AFF96D480BF0ACF994F822306F488DF89E
:101B300018300BF0A5F906A80BF0A2F966480BF0D7
:101B40009FF94FF0230A4FF00009201D06A95044C9
:101B500004EB0A0212F8013B01F8013BA3F1310347
:101B6000B3FA83F390424FEA531343EA4909F1D1A0
:101B70004FF000085E488DF81C800BF081F906A834
:101B80000BF07EF95FFA89F950480BF079F903A957
:101B900048460BF027FA03A80AF1040B8DF80E80D3
:101BA0000BF06EF94A480BF06BF90BEBC90202F12E
:101BB0000F03AB4200F2F580302F00F0A980002720
:101BC00006A8551E254400F10F0C15F8011F00F85A
:101BD000011BA1F13101B1FA81F184454FEA5111A4
:101BE00041EA4707F1D100254248CDE900238DF8AD
:101BF00027500BF045F906A80BF042F933480BF0DB
:101C00003FF903A9B8B20BF0CBF903A88DF8105037
:101C10000BF036F938480BF033F9009A204611469C
:101C2000FFF7A0FE019B0093002844D033480BF03F
:101C300027F9009BE25CE118A2F13003012B98BF69
:101C4000012304D919E00133202B00F0A88006F805
:101C5000012B11F8012FA2F130000128F3D9002245
:101C600038336B44264803F8202C0BF009F906A8FA
:101C70000BF006F918480BF003F90FB0BDE8F08F30
:101C800020480FB0BDE8F04F0BF0FAB81E480BF03B
:101C9000F7F8F2E7A37B15488DF818308DF8198016
:101CA0000BF0EEF806A80BF0EBF80B480BF0E8F899
:101CB0004FF00F0A47E715480BF0E2F8009BB9E731
:101CC00040A8010854A8010868A8010878A80108DC
:101CD0002CCF010880A8010890A8010894A8010849
:101CE000B8A80108C8A80108D8A80108E8A80108F0
:101CF000F8A8010834A9010844A9010848A9010865
:101D00005CA901082CA80108A4A8010850A9010891
:101D1000B9F1080F3FF653AFB9F1000F45D009F103
:101D2000FF330AF10C0ADBB20AEBC302DFF88C9036
:101D3000DFF88CA00DF11F0700250DF1170104EB52
:101D40000B0010F8013B01F8013FA3F13103B3FA96
:101D500083F38F424FEA531343EA4505F1D15046CE
:101D600000928DF820800BF08BF806A80BF088F815
:101D700048460BF085F803A9E8B20BF033F903A845
:101D80008DF80E800BF07CF80A480BF079F8009A79
:101D90000BF1080B5A45CFD102F10F030FE71F23B8
:101DA0005DE705480BF06CF867E75A460AF1130344
:101DB00005E700BF2CCF010808A9010878A8010891
:101DC00024A90108002845D030B583B004460BF0A3
:101DD0000DFA0130235C251813B9012003B030BD82
:101DE000204677490BF01AFA48BB204675490BF09C
:101DF00015FA20BB204674490BF010FA002857D181
:101E0000204672490BF00AFA002863D00A212846BE
:101E10000DF107020BF020FA9DF80730002BDCD003
:101E20004FF6FE73421E9A42D7D8694B80B21A8889
:101E30006849824208800BD34008188008E0284691
:101E400065490BF0EBF938B16FF00102634B1A6092
:101E50000020C3E701207047284661490BF0DEF9F6
:101E600020B14FF0FF325D4B1A60F1E728465D4923
:101E70000BF0D4F920B16FF00202584B1A60E7E77B
:101E8000102128460DF107020BF0E6F99DF8073006
:101E90000446002BA1D0B0F1005F9ED2B0F5006FD8
:101EA00003D3514B1A78002A50D04C4B1C60CFE71B
:101EB0000A2128460DF107020BF0CEF99DF80730F4
:101EC000002B8AD04FF6FE73421E9A4285D8474BAC
:101ED0001880BDE7204646490BF0A0F990B10A21D1
:101EE00028460DF107020BF0B7F99DF80730002BDB
:101EF0003FF473AF374B1B8883427FF66EAF344B92
:101F00001880A5E720463B490BF088F980B12846A8
:101F100039490BF083F9002837D0304B374A1B681A
:101F2000A3F50063934246D900222F4B1A708FE726
:101F3000204633490BF072F970B128462E490BF058
:101F40006DF968B300222F4B1A7081E701222E48E9
:101F50001A700AF095FFA8E720462C490BF05EF9AD
:101F600000283FF43AAF0DF107020A2128460BF092
:101F700073F99DF80720002A3FF42FAFB0F5803F9A
:101F8000BFF42BAF224A108062E7284621490BF0AC
:101F900045F900283FF421AF0122134B1A7057E78F
:101FA00028461C490BF03AF900283FF416AF0122ED
:101FB000144B1A704CE718480AF062FF0DE700BF97
:101FC0006CA9010878A90108B8A90108C4A90108E9
:101FD000080003200A00032074A90108040003205C
:101FE00080A9010884A90108392C03200C000320D2
:101FF000D0A90108E0A90108ECA90108FFF7FF1F1B
:1020000018AA0108382C03208CA901081CAA010871
:1020100000000320C8BC0108F0A9010810B536482B
:1020200084B00AF02DFF354B01A918880BF042F956
:1020300001A80AF025FF324C32480AF021FF32484D
:102040000AF01EFF01A920680AF05EFF002301A824
:102050008DF80C300AF014FF2368991C40D05A1CEC
:1020600042D0033344D029480AF00AFF284B01A983
:1020700018780BF01FF901A80AF002FF25480AF0B2
:10208000FFFE254B01A918780BF014F901A80AF0FE
:10209000F7FE22480AF0F4FE214B01A918880BF044
:1020A00009F901A80AF0ECFE1E480AF0E9FE1E4BF1
:1020B00001A918880BF0FEF801A80AF0E1FE1B4800
:1020C0000AF0DEFE1A4B01A918880BF0F3F801A8FC
:1020D0000AF0D6FE17480AF0D3FE002004B010BD67
:1020E00015480AF0CDFEBEE714480AF0C9FEBAE76B
:1020F00013480AF0C5FEB6E724AA01080000032031
:102100000400032030AA010838AA010858AA0108CF
:10211000392C032064AA0108382C03206CAA01087A
:102120000C00032090AA01080A000320A0AA0108BD
:102130000800032090A8010840AA010848AA010845
:1021400050AA01082DE9F84FFFF7A4F800254FF039
:10215000FF31214E214BDFF890B0DFF89080204F07
:10216000CBF80050C8F8005019607562716A3B885E
:1021700099422BD24FF08044DFF874A0DFF87490BE
:10218000BAF800106562636A8B42FCD34FF40071A9
:1021900014480DF0A9F8134B1969D8F8000041F361
:1021A000002303F00203C1F340210B43411CC1F3A0
:1021B0000B01C8F80010DBF8001009F800300131FD
:1021C000CBF80010716A3B889942D9D301F0FEFB2D
:1021D0000020BDE8F88F00BF004801402001032027
:1021E0000000032000040242BC3F0320B83F03204C
:1021F0000A000320C03F03202DE9F04F804B91B02F
:102200001B88B3F57A7F40F2C480FFF743F872B6BB
:102210007C4B1868831C00F0EC80C71C00F0C78062
:10222000411C00F0BD803024774B784A1978127831
:1022300004AB0094FFF77AF88046002800F0B380E2
:102240004FF0804E724B734A1B88B2F800A0039384
:10225000714B0AEB8A051968694B70481C88704FEE
:102260006D000369DA05FCD5DEF8242092B203691B
:10227000DB05F6D5DEF824309B1AAB42F7D30369B1
:1022800013F4807307D07B6AA34200F2A98003692C
:1022900013F48073F7D11E46CEF82430B8F1000F46
:1022A0001AD04FF08041039ADFF88891DFF86CB1C3
:1022B0000DF1100C4B6A9342FCD3DBF81030524402
:1022C00013F4807F1CF8013B52D0312B52D10136E0
:1022D000B04509F8013BEDD14F4BC3F80080002613
:1022E0004F4D6E626B6AA34237D24C4F02E06B6A6D
:1022F000A34241D23B6913F48073F8D1484A4FF0AE
:102300008041D2F824C0424A1846B2F800904B628D
:102310004A46404BDFF804E1B3F800804B6A934231
:10232000FCD3DEF81030013013F48073C0B21CD03F
:102330000B284244F2D14FF08041A2EB09024B6AD4
:102340009342FCD3364A536AA3EB0C031E44536AF0
:10235000A342CFD3334B03FB06F662B601F036FB44
:10236000274B1B88B6FBF3F010E018464244D5E734
:10237000302BACD0314674E762B601F027FB294B15
:102380001F4A06FB03F31088B3FBF0F011B0BDE861
:10239000F08F25480AF074FD002011B0BDE8F08FE1
:1023A0004FF000084CE721480AF06AFD48E74FF07B
:1023B0008044184B194A188800EB800040001369CC
:1023C000DE05FCD5616A89B21369DD05F7D5636A5C
:1023D0005B1A9842F8D800236362094B1C887EE799
:1023E0000D4B196062B612480AF04AFD01F0EEFA90
:1023F000D2E74FF0804300225A62014B1C886EE7FF
:102400000000032004000320392C0320382C032073
:10241000080003200A0003203C2C03200004024291
:1024200000480140A0860100B4AA010804A80108E0
:10243000D0AA0108402C0320344B70B51B6803332D
:10244000012B4AD9FEF726FF00234FF0FF32304E12
:10245000304C314D336023602A6072B62F4A53628C
:10246000FFF7DEF880BB33682D492B602368013B02
:10247000C3F30B03CA5C42F00402CA54FEF780FEA9
:10248000044600283AD162B6264E3368072B2ED96F
:10249000254D28460AF0F4FC24480AF0F1FC336884
:1024A0002846EC54FFF796F9D8B128460AF0E8FC24
:1024B0001F480AF0E5FC2846FFF75EF9FFF786FAA9
:1024C00001F084FA204670BD62B61A480AF0D8FCC2
:1024D00001F07CFA0124204670BD17480AF0D0FCB8
:1024E000F8E716480AF0CCFC01F070FAF3E714485C
:1024F0000AF0C6FC01F06AFA204670BD62B61148C7
:102500000AF0BEFC01F062FAE4E700BF0400032019
:10251000BC3F0320B83F03202001032000480140B6
:10252000C03F03203C2C0320402C032064AB010857
:102530007CAB010818AB0108E4AA01086CAB0108E8
:102540004CAB010834AB01082DE9F04F93B0FEF716
:10255000A1FE00244FF0FF338F4E904D904A34601F
:102560002C60136072B64FF080428E498E488F4BBC
:10257000546204604C621868811C00F0C780C31C60
:1025800000F0F080471C40F0AF80204603944FF0ED
:10259000804E874B874CB3F800B0874B0BEB8B0713
:1025A0001A88864BDFF8FCA1B3F800907F002369FE
:1025B000D905FCD5DEF8241089B22369DB05F6D5F0
:1025C000DEF824305B1A9F42F7D8236913F4807336
:1025D00008D0DAF824304B4500F2B280236913F4B6
:1025E0008073F6D11946CEF82430039B002B00F0FF
:1025F000938010464FF0804C714B0DF118080493F6
:1026000002930597DCF824308342FBD3694B58448E
:102610001B6913F4807F18F8013B72D0312B72D103
:10262000029F013107F8013B039B02978B42E9D1DE
:102630001C4640F69E705C4B59491C603368DFF8BD
:1026400098C10B602B68844203F1FF33C3F30B0383
:102650001CF803100BFB042241F004010CF80310DA
:1026600000F29880039BDFF87481581E049BDFF80A
:1026700044E118444FF08043596A9142FCD3DEF89C
:102680001040D5F8009014F4807F0CBF302731271C
:1026900044F3002101F00201C4F34024214309F175
:1026A0000104C4F30B042C60346800F8017F01348A
:1026B00040450CF8091034605A44DDD140F69F7350
:1026C000394A039313601A460024049B9C5462B653
:1026D00001F07CF93A480AF0D3FB3A480AF0D0FB03
:1026E000204613B0BDE8F08F30230093364B1A78A4
:1026F000364B197806ABFEF719FE039060B32046FF
:1027000045E7302B8CD00846059F50E72A4B546292
:102710001A88274BB3F800B033682149DFF8B8C0F6
:102720000B6000212B680391013BC3F30B031CF8E2
:10273000031041F004010CF80310214B049391E7BE
:10274000194B186062B622480AF09AFB01F03EF974
:10275000012013B0BDE8F08F1E480AF091FB124B28
:10276000186814E7124B1349B3F800B00BEB8B0455
:1027700064000B69D805FCD5506A80B20B69DB0593
:10278000F7D5536A1B1A9C42F8D8002353620A4BB0
:102790001A88C1E7224697E7BC3F0320B83F0320D1
:1027A00020010320004801403C2C032004000320AA
:1027B0000A00032000040242080003200000032056
:1027C000402C032090A80108382C0320392C03202A
:1027D000D0AA010804A80108C03F0320DE3B032063
:1027E0002DE9F04F97B00690002800F04A810AF0DA
:1027F000FDFCB0F57A6F28BF4FF47A60A34E824695
:10280000336803332ED1FEF745FD00244FF0FF332C
:10281000DFF8B4B2DFF8B4829D4ACBF80040C8F8C4
:102820000040136072B64FF080459A4B6C625C6258
:102830003068994B871C1C6000F04C81C61C00F06E
:10284000FC80411C12D030230093944B1A78944B97
:1028500019780AABFEF76AFD0590002800F0E680C3
:10286000A44605E08F480AF00BFBCCE7A44605948C
:102870008D4B4FF080441A888C4B02EB82051B88ED
:102880008B4807938B4B834FB3F800901346049209
:102890006D000269D205FCD5616A89B20269D6056C
:1028A000F7D5626A521AAA42F8D3026912F480720A
:1028B00007D07A6A4A4500F2DB80026912F480721E
:1028C000F7D111466262059A002A00F00D814FF09F
:1028D000804C794A079E089203920DF1280E0995C3
:1028E000DCF82420B242FBD3714A049D12692E44C5
:1028F00012F4807F1EF8012B00F08880312A40F00E
:102900008880039D013105F8012B059A03958A42C1
:10291000E6D1049A002507981C46104440F69F7E95
:102920004FF08042DBF80010594EDFF8A4C131604F
:10293000D8F80010584E0139C1F30B011CF8017092
:10294000356047F004075C4E0CF80170516AA142F3
:10295000FCD3AA4548D90699495D312944D030298C
:102960005AD003214FF001090F46516A8842FCD822
:102970004F4901350969C9053BD44FF0300106F8CC
:10298000011B45491C440D60D8F8001018440CF890
:1029900001900131C1F30B01C8F80010DBF8001001
:1029A000754501F10101CBF80010CFD14FF47A60E9
:1029B00000224FF0804100FB03F3089880F89F2F1E
:1029C0004A6A9A42FCD34FF40072394B9A6162B65C
:1029D00000F0FCFF38480AF053FA38480AF050FA81
:1029E000002017B0BDE8F08F4FF40071304FB9618F
:1029F000B7E74FF0310106F8011B27491C440D6071
:102A0000D8F8001018440CF80170C2E7302A3FF4DF
:102A100078AF8C46099D3CE74FF000792449C1F816
:102A2000189002214FF000090F469EE724480AF053
:102A300027FA194BD3F800C01AE71B4B1C4C1A8815
:102A4000134602EB820676002169C905FCD5686A47
:102A500080B22169CF05F7D5696A091A8E42F8D884
:102A6000002169621149098807911349089151E7CA
:102A7000094BC3F800C062B612480AF001FA00F030
:102A8000A5FF012017B0BDE8F08F00BF04000320B0
:102A900020010320004801403C2C0320382C032057
:102AA000392C03208CAB01080A0003200800032006
:102AB0000004024200000320402C032090A80108DB
:102AC00004A8010818AB0108BC3F0320B83F03204D
:102AD000C03F0320064B07491A88074B6C621B88CE
:102AE00008910793134615E7024A089211E700BFC1
:102AF0000A000320402C0320080003202DE9F04F9A
:102B000095B0FEF7C7FB00224FF0FF33DFF8A4A11A
:102B1000DFF8A4815B49CAF80020C8F800200B60E8
:102B200072B6594B5A62594B1868811C00F0AA8141
:102B3000C31C00F0BE81441C01D191460CE0544BF3
:102B40001A7830230093534B197808ABFEF7EEFB4D
:102B50008146002800F0A9814FF080464E4B4F4A35
:102B60001C884F4B04EB84071B88B2F800B0069317
:102B70004C4B4D481D68DFF810E17F000269D1051C
:102B8000FCD5716A89B20269D205F7D5726A521A08
:102B90009742F8D8026912F4807C08D0DEF824202D
:102BA0005A4500F26481026912F4807CF6D1C6F8BD
:102BB00024C0B9F1000F00F0A0814FF080453B4ADE
:102BC00006990592039208AA049207976A6A8A42B4
:102BD000FCD3354A049F1269214412F4807F17F810
:102BE000012B049700F03881312A40F03881039F8F
:102BF0000CF1010C07F8012BE1450397E6D1069A89
:102C0000C3F8009009FB042100254FF0804240F6F4
:102C10009E7CDAF800001B4E254F3060D8F800008B
:102C2000DFF884E00138C0F30B003E5C039346F00C
:102C300004063E54059800EB0906506A8842FCD30E
:102C4000DEF81000013510F4807FC0F340273846CD
:102C500034D1E14502D84FF030033370D8F800008A
:102C6000134B00251F540130C0F30B00C8F80000BF
:102C7000DAF8000009F10109013021440136CAF8EF
:102C80000000DAE72001032000480140040003208F
:102C9000382C0320392C03200A00032000000320D5
:102CA000080003203C2C032000040242402C032097
:102CB000C03F0320BC3F0320B83F0320E14502D8BA
:102CC0004FF031033370D8F800708F4B40F00200A2
:102CD000D855781CC0F30B00C8F80000DAF80000E3
:102CE000092D00F1010009F10109214406F1010655
:102CF000CAF80000A1D1039B069AC3F8009006937E
:102D0000824B881A5E6A4A465E45DDF8149000F2EE
:102D1000A08040F68E739A4200F29B8000264FF00E
:102D2000804309EB020702F1010C03915A6A8242C7
:102D3000FCD3052E7DD94FF4007275494FF0010E7A
:102D40008A610322039904925A6A8A42FCD3704A28
:102D500003911269D20560D40A46224403923022BC
:102D6000694D3A70D8F80020204405F802E001329D
:102D7000C2F30B02C8F80020DAF800200132CAF8CA
:102D80000020624AD2F824E00CEB0602DE455AD855
:102D90000136102E07F10107C8D15C4B03995B6A1D
:102DA0005B45B6D99146069B4FF08042C3F8009030
:102DB000536A8342FCD3554D6B6A5B4519D84FF07B
:102DC00080434FF0000C4FF000774FF4007604EB97
:102DD00044014F4849002401C3F824C087615A6A5E
:102DE0008A42FCD386615A6AA242FCD36A6A5A4577
:102DF000F2D9B9F57A6F35D20023059A02F8093075
:102E000062B600F0E3FD43480AF03AF842480AF09F
:102E100037F8002015B0BDE8F08F0A46224403922F
:102E20003122394D04993A70D8F800202044A95431
:102E30009DE74FF0007236494FF0000E8A61022282
:102E40000399049280E7314B03995E6A5E457FF6F1
:102E500060AF9146069BA7E7302A3FF4C8AE6546AF
:102E6000079F8BE60023059A82F89F3FC8E71D6005
:102E700062B62A480AF004F800F0A8FD012015B057
:102E8000BDE8F08F4FF08045224E254C254B26485B
:102E900005966A62254902882488D3F80090B1F823
:102EA00000B0069209FB0421AEE6214809F0E8FFD4
:102EB00052E64FF080421A4B15491C8804EB8400FF
:102EC00040000B69DF05FCD5556AADB20B69DE0524
:102ED000F7D5536A5B1B8342F8D300235362124A2F
:102EE000104B1188114AD3F80090B2F800B0094A8B
:102EF0000691059209FB041186E6064A0699C3F875
:102F00000090059280E600BFC03F032000480140CA
:102F100000040242402C032090A8010818AB0108CD
:102F20000A0003203C2C032008000320000003209B
:102F300004A801082DE9F04FB74C95B0236806901E
:102F40000333012B40F2A281FEF7A4F900254FF0D4
:102F5000FF33DFF8F8A2DFF8F8B2B04ACAF8005041
:102F6000CBF80050136072B64FF08042AC4B5D62FC
:102F7000AC4B1D6055622068811C00F0A181C31C10
:102F800000F0A881441C40F090802B462C464FF066
:102F9000804EA54AA5481688A54A06EB86051288E4
:102FA000DFF87C820592A34A6D00B2F80090A24A35
:102FB00004920269D105FCD5DEF8241089B20269B9
:102FC000D205F6D5DEF82420521A9542F7D80269C8
:102FD00012F4807208D0D8F824204A4500F24781C4
:102FE000026912F48072F6D1CEF82420002C00F091
:102FF0008B814FF08047904B059903930DF1200C86
:1030000007957B6A8B42FCD3884B31441B6913F4D0
:10301000807F1CF8013B57D0312B57D1039D0132E3
:1030200005F8013B94420395EBD17E4B1C60059B58
:1030300006FB0433069A002702F1060E40F69E7C3A
:103040004FF08042DAF8001074487C4D0160DBF8E4
:103050000010DFF8D8810139C1F30B01685C40F042
:103060000400685404990819516A9942FCD3D8F8AD
:10307000101011F4807F2CD16445C1F3402102D897
:103080004FF030070770DBF800700134E955013765
:10309000C7F30B07CBF80070DAF8001000270131F6
:1030A00033440130CAF80010DEE730230093644B4C
:1030B0001A78644B197808ABFEF738F904460028F3
:1030C00000F0F8802B4662E7302BA7D01346079D0F
:1030D0006FE7644507F10107C1F3402103D84FF0C2
:1030E000310980F80090DBF8009041F0020105F80A
:1030F000091009F10109C9F30B01CBF80010DAF846
:103100000010BE4501F10101CAF80010334400F17E
:10311000010004F1010101D90C46A5E74FF08047F9
:10312000059A981A7A6A8242FCD34FF0007C4FF0DD
:1031300080473E4AC2F818C07A6A9A42FCD33B4A9A
:10314000126912F4807C18BF4FF0020CDBF80020EB
:1031500018BF312705F802C002F10102C2F30B02C9
:10316000CBF8002040F69E72DAF800C008BF302786
:103170000CF1010C9142CAF800C040F28E8002347A
:10318000284F94423C60304433447AD8049A4FF438
:10319000007E54184FF003094FF08042DFF8B4C0AE
:1031A000224F516A8142FCD3C7F818E0516A994214
:1031B000FCD33969C9054FD44FF030014FF00108F5
:1031C00004F8011FDBF800103044334405F8018097
:1031D0000131C1F30B01CBF80010DAF8001064459F
:1031E00001F10101CAF80010DBD140F69F730D4ACE
:1031F000136040F69F7300220499CA5462B600F02F
:10320000E5FB0D4809F03CFE0F4809F039FE0020AF
:1032100015B0BDE8F08F00BF04000320200103209B
:10322000004801403C2C03200A0003200004024215
:103230000800032000000320402C0320C03F03208F
:10324000382C0320392C032090A80108BC3F032010
:10325000B83F0320DE3B03204FF0310104F8011F8B
:10326000DBF800103044334405F80190B0E7284AF9
:1032700028481446136009F003FE2368B3F57A6FFB
:10328000B9D30023049A82F89F3FB7E7224809F098
:10329000F7FD012015B0BDE8F08F049A02345754B1
:1032A0001B4A3044146040F69F72944233447FF4CA
:1032B0006DAF9EE7194809F0E3FD154B1B6866E604
:1032C0005562174B174A1B881688174A2C460593D8
:1032D0000492AFE6134B15491E8806EB8604640082
:1032E0000B69DF05FCD5506A80B20B69DD05F7D5A7
:1032F000536A1B1AA342F8D30024094B54621B885B
:10330000094ACDE9042395E6014B1C60059B91E633
:103310003C2C0320D0AB0108BCAB010804A8010879
:10332000080003200A000320402C0320000402426E
:10333000984B2DE9F04F1B6893B00333012B40F2FB
:103340001D818246FDF7A6FF72B60023924D934A77
:103350006B626B6AB2F800B05B4580F0D980904C2C
:103360000AF1060A00274FF080418A4B4F621E681F
:103370008C4BB21C1F6000F0D480F31C00F0E28084
:10338000711C00F0CC8030230093874B30461A78B4
:10339000864B197806ABFDF7C9FF8046002800F080
:1033A000C8804FF0804C824B1888824B00EB800E17
:1033B0001B884FEA4E0E04932369DA05FCD5DCF82E
:1033C000242092B22369DB05F6D5DCF824309B1A61
:1033D0007345F7D3236913F4807307D06B6A5B4599
:1033E00000F2C980236913F48073F7D11A46049957
:1033F000CCF82430B8F1000F1DD04FF080476E4B51
:103400000DF11809039305967B6A8B42FCD323695F
:10341000014413F4807F19F8013B21D0312B21D1D5
:10342000039E013206F8013B90450396ECD1DDE99D
:10343000043602FB00314FF0000C4FF080470132A0
:103440007B6A8B42FCD323690CF1010C13F480736B
:1034500002F1010E09D0E24501440AD97246EFE7B4
:10346000302BDDD01746059EA6E79C46014401326D
:10347000E6E74C4B1A604FF08042049BC91A536A2E
:103480008B42FCD34FF000734FF080420144A361A4
:10349000536A8B42FCD34FF40077A7616B6A5B459C
:1034A00036D202367FF45EAF4FF080414FF0000C11
:1034B0004FF000793E4B3A4D1E883E4BDFF8D880E6
:1034C000B3F800E0002472462046C1F824C0C1F8D9
:1034D00024C04B6A9A42FCD82B69013013F48073E4
:1034E00053D0824504F101043244F2D8A2EB0E021B
:1034F0004B6A9A42FCD8C5F8189032444B6A9A42FB
:10350000FCD8AF61D8F824309B45DBD8254B1C6034
:1035100062B600F05BFA002013B0BDE8F08FB84649
:103520003FE7244B4F621988214B3A461888049193
:1035300081E7224809F0A4FC1A4B1F68174BB3F827
:1035400000B02EE71A4B164A188800EB800C4FEAA1
:103550004C0C1369DF05FCD54F6ABFB21369DB055C
:10356000F7D54B6ADB1B6345F8D30022114B4A6247
:10357000198804915FE70B4B1F60C9E7104809F0F9
:103580007FFC012013B0BDE8F08F184601343244AF
:103590009FE700BF04000320004801400000032013
:1035A000000402423C2C0320382C0320392C032039
:1035B0000A00032008000320402C032004A801086F
:1035C000BCAB0108034600B583B008465BBA0222D3
:1035D0000DF10601ADF8063009F0FCFD03B05DF811
:1035E00004FB00BF8446002310B50C4682B00DF1E9
:1035F000060002226146ADF8063009F0EBFD012C11
:103600008CBFBDF806009DF8060040BA80B202B03B
:1036100010BD00BF8446002310B50C4682B00DF1EA
:10362000060002226146ADF8063009F0D3FD012CF8
:103630008CBFBDF806009DF8060040BA80B202B00B
:1036400010BD00BF034600B583B008465BBA022236
:103650000DF10601ADF8063009F0BCFD03B05DF8D0
:1036600004FB00BF8446002310B50C4682B00DF168
:10367000060002226146ADF8063009F0ABFD012CD0
:103680008CBFBDF806009DF8060040BA80B202B0BB
:1036900010BD00BF8446002310B50C4682B00DF16A
:1036A000060002226146ADF8063009F093FD012CB8
:1036B0008CBFBDF806009DF8060040BA80B202B08B
:1036C00010BD00BF034600B583B008465BBA0222B6
:1036D0000DF10601ADF8063009F07CFD03B05DF890
:1036E00004FB00BF8446002310B50C4682B00DF1E8
:1036F000060002226146ADF8063009F06BFD012C90
:103700008CBFBDF806009DF8060040BA80B202B03A
:1037100010BD00BF034600B583B008465BBA022265
:103720000DF10601ADF8063009F054FD03B05DF867
:1037300004FB00BF8446002310B50C4682B00DF197
:10374000060002226146ADF8063009F043FD012C67
:103750008CBFBDF806009DF8060040BA80B202B0EA
:1037600010BD00BF8446002310B50C4682B00DF199
:10377000060002226146ADF8063009F02BFD012C4F
:103780008CBFBDF806009DF8060040BA80B202B0BA
:1037900010BD00BF0870704700787047002300B567
:1037A000012983B0ADF8063003D8184603B05DF8A0
:1037B00004FB014602220DF1060009F00BFD9DF805
:1037C000060003B05DF804FB00787047087070478E
:1037D000007870478446002310B50C4682B00DF186
:1037E000060002226146ADF8063009F0F3FC012C18
:1037F0008CBFBDF806009DF8060040BA80B202B04A
:1038000010BD00BF034600B583B008465BBA022274
:103810000DF10601ADF8063009F0DCFC03B05DF8EF
:1038200004FB00BF8446002310B50C4682B00DF1A6
:10383000060002226146ADF8063009F0CBFC012CEF
:103840008CBFBDF806009DF8060040BA80B202B0F9
:1038500010BD00BF00787047007870478446002391
:1038600010B50C4682B00DF1060002226146ADF89B
:10387000063009F0AFFC012C8CBFBDF806009DF8A6
:10388000060040BA80B202B010BD00BF0078704799
:103890002DE9F04F3C4B8346984283B007D83B4B11
:1038A000984269D94FF028094FF4487E0BE04FF059
:1038B000250940F2EE2E364BB3FBFBFC5FFA8CFC85
:1038C000BCF1190F5DD90120314B013080B2B3FB3F
:1038D000F0FCBCFBFBFC5FFA8CFCBCF1190FF4D8CC
:1038E000B0F5806F42D201236FF000444FF47A7636
:1038F0005A460093274B1F68431C1FFA83FAACF10A
:103900000208B8EB5C0F4FEA5C0120DD0CF1FF3BD5
:103910005FFA8BFBCDF804A006FB01F5B5FBFCF5C7
:10392000BEEB050A48BFA5EB0E0AA2450ADAD1454F
:1039300008DB002554460095ABEB0105EDB2F961BB
:1039400078613D6201314145E6DBDDF804A01049B4
:1039500098B2B1FBFAFCBCFBF2FCB0F5806F0AF147
:10396000010A5FFA8CFC03D0431CC8E701230093D3
:10397000009803B0BDE8F08F4FF02B0940F26B3E8A
:1039800099E70120AFE700BF00350C0020A1070038
:10399000005A6202D83C032038B50C46064D074950
:1039A000074B0A602860074901201C6012F0EEF9FD
:1039B000054B186038BD00BFD83C0320D03C032025
:1039C000D43C0320E83B0320383C032030B53F4C77
:1039D00083B020680AF02CFD20680AF071FB0028F3
:1039E00051D100223A4D40213A482A71EA602A61B9
:1039F0006A61AA61AA60EA6185F820200BF06EFC7A
:103A0000206805F124010AF045FC00285BD1324909
:103A100020680AF03FFC002852D1002302222068CF
:103A2000114600930AF062FC002846D120680AF093
:103A3000A3FC00283ED10022012120680AF05AFE92
:103A4000A8BB0022062120680AF054FE60BB0722B2
:103A50004FF4F05120680AF04DFE10BB0722802180
:103A600020680AF047FEC8B900221C4920680AF005
:103A700041FE80B900224FF4602120680AF03AFE2E
:103A800020B903B030BDFDF76DFBAAE703B0BDE878
:103A90003040FDF767BBFDF765FBEBE7FDF762FB29
:103AA000E2E7FDF75FFBD9E7FDF75CFBCFE7FDF74A
:103AB00059FBC6E7FDF756FBBDE7FDF753FBB5E73E
:103AC000FDF750FBA9E7FDF74DFBA0E7D83C03202D
:103AD00010000320000402424C000320004071004B
:103AE000014B18680AF0A4BCD83C0320082824D84D
:103AF000DFE800F0080C1014171A1D200500144808
:103B0000FFF7C6BE42F21070FFF7C2BE44F6206057
:103B1000FFF7BEBE4CF25030FFF7BABE0D48FFF7BC
:103B2000B7BE0D48FFF7B4BE0C48FFF7B1BE0C4856
:103B3000FFF7AEBE0B48FFF7ABBE0B4AA0F51C5318
:103B4000103B934201D901207047FFF7A1BE00BF8F
:103B500040420F00A086010048E8010090D0030019
:103B600020A1070000350C00301B0F000346054A5A
:103B70001978002051615978D16199781162DB7808
:103B800093617047482B03200246024B00209A6144
:103B9000704700BF482B0320034600B5074A93F83F
:103BA00001E093F800C082F810E005499B7881F8A5
:103BB00000C0537400205DF804FB00BF482B0320B5
:103BC000680703202DE9F0470546C0680F4609F055
:103BD000F5FAAB68B3F1005F3CD00646824600F1CF
:103BE0002409254C4FF0FF31206812F0D9F9012843
:103BF000F8D1DFF89080D8F8000012F0C1FB4845FA
:103C000015D202251D4A13792B4313710023206816
:103C10001A46194612F01EF80023194902220968B3
:103C20000868194613F050FD2846BDE8F08729467C
:103C30004FF0FF332422D8F8000012F0BFFB0546F6
:103C400086B94D450CD00D4A0125137943F0080380
:103C50001371DBE74FF0000A4FF024095646C0E726
:103C60000025D3E7524639464FF0FF33D8F800001D
:103C700012F0A4FB0544E4E7383C032010000320C5
:103C8000D43C0320E03B032030B401220024102068
:103C90000A4B04211B684FF440751C82C3E90520C0
:103CA000DC6018623F240F209A74C3E90125DC61AF
:103CB000C3E9092130BC1963D8627047D83C03209E
:103CC00000232DE9F0430C4683B0C9070546019354
:103CD00016D4A20707D502212D4A137943F0010318
:103CE00013712B681965630735D4019B2BB14FF015
:103CF000E0234FF08052C3F8042D03B0BDE8F083F9
:103D0000DFF89880224F42464021224B0AF008FCFF
:103D10007B69D8F80C0001337B6109F04FFADFF8BA
:103D200080900646D9F8000012F02AFB06F128031D
:103D3000984223D341462822D9F8000001AB12F063
:103D4000C1FB002EC5D03246D9F80000114901ABA5
:103D500012F0B8FBBDE704240D4B0F499A690968BE
:103D600001329A611A7942F008021A712B680868C8
:103D70000DEB04011C6513F091FDB6E7064ABB6923
:103D800012680133106801A9BB6113F087FDA0E739
:103D900010000320903C0320D03C0320683C03200B
:103DA000E43B032010B500240A4A0B491369096853
:103DB00082B00868013301A91361019413F06EFD0C
:103DC000019B2BB14FF0E0234FF08052C3F8042D3C
:103DD00002B010BD10000320D43C032010B5002415
:103DE0000A4A0B49D369096882B00868013301A9FE
:103DF000D361019413F052FD019B2BB14FF0E023EE
:103E00004FF08052C3F8042D02B010BD1000032003
:103E1000D03C032038B50C46104D29460AF020FC52
:103E2000A10303D5EB68A3B90D4A1360620309D55A
:103E30002B690B4A012B13790CBF43F0040303F0E9
:103E4000FB031371230303D50122054B83F82020C4
:103E500038BD4FF00042024B1A60E7E73C3C0320BC
:103E600010000320F0B500250B7885B007460295B9
:103E70000395CBB10C460DF1FF3608E02046D5B2D4
:103E800009F03EF914F8023F06F8010F23B16378F8
:103E90006A1C0BB3072DF1D18DF808502A466946EC
:103EA0000DF1090015F0D7F800230E4C0820C4E9E5
:103EB0000533C4E90133276009F086F90822034677
:103EC0000DEB02010848E36009F084F92046064939
:103ED000FFF778FE05B0F0BD8DF80850002DDDD15C
:103EE000E2E700BFE83C0320DC3C03202DE9F0437F
:103EF00089B006460D4607F043FA012800F0898193
:103F000042F2020300249D42745500F2B480002D59
:103F100000F08681701E691E84460346314405E028
:103F20000A2A1CBF325501348B4209D013F8012FE5
:103F3000082AF5D1002CF7D08B4204F1FF34F5D1DB
:103F400000218C42315540F370810A4603191CF858
:103F5000010F202800F0858082B99C4501F1010104
:103F60000CF101000CD09CF80140202C7BD0984231
:103F700006D01CF8022F203A18BF01229C45E6D13A
:103F80000C463046AC4914F021FF0546002800F0ED
:103F90009E80AA49FCF754F9002876D1012C40F202
:103FA000DA80A549002014F011FFA5490446FCF76A
:103FB00047F9002800F08F802046A249FCF740F91D
:103FC000002800F0BB8120469F49FCF739F9002802
:103FD00040F02D819D4808F053FF9D4808F050FFA8
:103FE0009A4808F04DFF9B4808F04AFF9A4808F0AD
:103FF00047FF984808F044FF984808F041FF984868
:1040000008F03EFF934808F03BFF964808F038FF61
:10401000954808F035FF8F4808F032FF934808F0C4
:104020002FFF934808F02CFF8A4808F029FF914899
:1040300008F026FF904808F023FF904808F020FF82
:104040008F4808F01DFF8F4808F01AFF8E4808F0CF
:1040500017FF8E4808F014FF8D4808F011FF8D48B7
:104060006DE000228AE798428AD01CF8020F2028CF
:104070007FF473AF82E7884808F002FF874808F0B2
:10408000FFFE002009B0BDE8F08328468449FCF714
:10409000D7F8002882D028468249FCF7D1F80028BA
:1040A0003FF47CAF28468049FCF7CAF800283FF46B
:1040B00075AF28466449FCF7C3F8002840F08581B5
:1040C000022C00F09E81794808F0DAFED6E77848A5
:1040D00008F0D6FED2E75D4808F0D2FE5C4808F052
:1040E000CFFE5A4808F0CCFE5A4808F0C9FE714885
:1040F00008F0C6FE574808F0C3FE584808F0C0FE56
:104100006D4808F0BDFE534808F0BAFE554808F067
:10411000B7FE6A4808F0B4FE4E4808F0B1FE5348B6
:1041200008F0AEFE664808F0ABFE4A4808F0A8FE6C
:10413000504808F0A5FE634808F0A2FE624808F067
:104140009FFE444808F09CFE404808F099FE5F48F6
:1041500008F096FE92E73D4808F092FE3C4808F0D1
:104160008FFE3A4808F08CFE3A4808F089FE58481D
:1041700008F086FE374808F083FE564808F080FEB7
:10418000554808F07DFE554808F07AFE544808F07E
:1041900077FE544808F074FE534808F071FE534807
:1041A00008F06EFE524808F06BFE524808F068FEB8
:1041B000514808F065FE514808F062FE504808F08A
:1041C0005FFE504808F05CFE4F4808F059FE4F482B
:1041D00008F056FE4E4808F053FE4E4808F050FED8
:1041E0004D4808F04DFE4D4808F04AFE4C4808F096
:1041F00047FE4C4808F044FE4B4808F041FE154885
:1042000008F03EFE494808F03BFE104808F038FE32
:1042100034E70421464808F0C5FD07F0BDF830E753
:104220003570444808F02CFE28E7FAD0A8E642484A
:1042300008F026FE8BE700BF04AC010834AC01088F
:1042400050AC0108F0AD010878AF010858AC010886
:1042500098AC010890A8010880AF0108D4AC01080F
:1042600094AF010818AD0108D0AF01083CAD0108BA
:10427000E4AF010890AD010830B0010850B001086A
:1042800064B0010884B0010898B00108B8B0010812
:10429000CCB00108F8B00108ECAB01080CCE010865
:1042A0003CAC010844AC01084CAC0108F4B801086E
:1042B00008AC0108C4AC0108E4AC010820AD010859
:1042C00048AD01089CAD0108E0AD010834B101081A
:1042D00088B101082CB2010838B20108ACB201085B
:1042E00034B3010860B30108B0B3010800B4010899
:1042F00050B40108A8B4010814B501083CB5010880
:1043000068B50108C8B5010830B601087CB60108D7
:10431000C0B60108ECB6010844B701089CB7010813
:10432000E8B701081CB8010868B80108D4B801084A
:10433000E4AB010800AC01080CB10108874808F0A3
:104340009FFD874808F09CFD844808F099FD85484A
:1043500008F096FD844808F093FD824808F090FD2F
:10436000824808F08DFD824808F08AFD7D4808F0FB
:1043700087FD804808F084FD7F4808F081FD79487A
:1043800008F07EFD7D4808F07BFD7D4808F078FD53
:10439000744808F075FD7B4808F072FD7A4808F013
:1043A0006FFD7A4808F06CFD794808F069FD79489E
:1043B00008F066FD784808F063FD784808F060FD75
:1043C000774808F05DFD7748B9E628467649FBF75F
:1043D00037FF28B9022C6CD0744808F051FD4DE627
:1043E00028467349FBF72CFF002851D1012C00F01F
:1043F0007581A31E012B40F2FB806E4808F040FD42
:104400003CE66D4914F0E2FC03780446002B3FF4CF
:1044100035AE051D413B232B13D8DFE803F0352DC6
:10442000251D12121212121212121212121212124E
:104430001212121212121212121212121212352D1E
:10444000251D5E4808F01CFD14F8013F002B3FF4C9
:1044500015AEA542DED111E6594808F011FD002144
:10446000442003F0C7FDEFE7564808F009FD00219E
:10447000432003F0BFFDE7E7534808F001FD0021AA
:10448000422003F0B7FDDFE7504808F0F9FCDBE716
:1044900028464F49FBF7D4FE002851D1012C00F0EB
:1044A0002581A31E012B40F2D8804A4808F0E8FC81
:1044B000E4E5414914F08AFC03780446002B3FF4FC
:1044C000DDAD051D413B232B13D8DFE803F0352D6F
:1044D000251D12121212121212121212121212129E
:1044E0001212121212121212121212121212352D6E
:1044F000251D324808F0C4FC14F8013F002B3FF49E
:10450000BDADAC42DED1B9E5334808F0B9FC0121BC
:10451000442003F06FFDEFE7304808F0B1FC0121C3
:10452000432003F067FDE7E72D4808F0A9FC0121CF
:10453000422003F05FFDDFE72A4808F0A1FCDBE73B
:1045400028462949FBF77CFE002840F0DC80032C3C
:1045500000F0FA80254808F093FC8FE558AC01087C
:1045600098AC010890A80108F8AD0108D4AC010886
:104570000CAE010818AD010848AE01083CAD0108B9
:104580005CAE010890AD0108A8AE0108C8AE0108F4
:10459000D8AE0108F8AE010808AF010828AF01083D
:1045A00038AF010864AF0108F0AD010824BA010872
:1045B000FCBA01081CBB010804AC0108FCB90108E5
:1045C000D8B90108B4B9010890B9010844B9010883
:1045D000CCBB0108F0BB0108D8BA0108B4BA010885
:1045E00090BA010874BA01088CBC010890BC01089B
:1045F000B149002014F0EAFB08F0A8FDB0F5006F07
:1046000068D2AE4D022C28604FF0000000F094807C
:10461000A94914F0DBFB064608F0E8FDC10755D4B4
:10462000102853D888B1431EC3F34E04B71CDFF8DB
:10463000208307EB4407304608F062FD0236BE4295
:1046400008F8010FF7D1631CD8B208F0BDFD03468E
:104650009B48EB6008F014FC10E59749002014F02B
:10466000B5FB08F073FDB0F5006F80F0A081954FA9
:10467000022C386000F0918111F074F9282111F0BA
:1046800073F98D49002014F0A1FB064608F0AEFD39
:10469000C20704461AD4102818D83546DFF8B48269
:1046A00005E0284608F02CFD023508F8010BAB1B8D
:1046B0009BB29C42F5D8601CC0F3470008F084FD13
:1046C00003468148FB6008F0DBFBD7E47F4808F035
:1046D000D7FBD3E47E4808F0D3FBCFE44FF0FF32A2
:1046E000764B7C481A6008F0CBFBC7E44FF0FF32F2
:1046F000744B79481A6008F0C3FB11F033F91821A4
:1047000011F032F9BAE428467449FBF799FD28B94B
:10471000032C67D0724808F0B3FBAFE42846714918
:10472000FBF78EFD002840F06981022C00F04481E7
:104730006D4808F0A5FBA1E408F046FD03466B4870
:10474000EB6008F09DFB99E45B49002014F03EFB10
:1047500059490546002014F039FB00210A2214F0C3
:10476000FBF9634904462846FBF76AFD002800F080
:104770000E8128465F49FBF763FD002800F00181A8
:1047800028465D49FBF75CFD002800F0F4802846D0
:104790005A49FBF755FD002800F0E78028465849A4
:1047A000FBF74EFD002800F0D78028465549FBF75F
:1047B00047FD002877D028465349FBF741FD0028E4
:1047C00068D028465149FBF73BFD00285ED1002CFC
:1047D00041D14F4808F054FB02224E4BDA60FFF7FC
:1047E000F5F84BE4344914F0F1FA4B490446FBF771
:1047F00027FD002847D020464849FBF721FD002827
:104800003ED020464649FBF71BFD002835D0204608
:104810004449FBF715FD68B320464349FBF710FDFB
:1048200020BB424808F02CFB00242349002014F050
:10483000CDFA054608F0DAFC421E92B20D2A034674
:1048400010D8DB070ED420462946FFF70BFB38486B
:1048500008F016FB12E4374808F012FB00222D4B3B
:10486000DA60BCE7344808F00BFB07E4334808F093
:1048700007FBD9E740F2E374D7E740F2E274D4E7EC
:1048800040F2E174D1E740F2DF74CEE72C4808F043
:10489000F7FAA4E7003C18BF01242A4B2A481C70F1
:1048A00008F0EEFA9BE7003C18BF0124194B27489B
:1048B0005C7408F0E5FA92E704AC0108403D03207F
:1048C000A0BB0108143D032064BC010888BB01089B
:1048D00044BB010804BB0108D4BB0108F0BD0108BA
:1048E000F4BD0108DCBE0108E4BE010868BB010894
:1048F000B8A90108C4BC0108E0BC0108FCBC01085F
:1049000014BD010848BD010874BD0108A0BD01081F
:10491000A4BD0108482B032030BE010834BE0108A5
:1049200038BE01083CBE010840BE010844BE010873
:10493000C8BE0108C0BD01089CBE010878BE0108C0
:10494000D8BD01086807032080BD010858BD0108D3
:10495000373D03200C3D0320003C18BF0124964B3B
:1049600096481C7408F08CFA39E7934B94489C6184
:1049700008F086FA33E7904B92481C6208F080FA00
:104980002DE78D4B9048DC6108F07AFA27E78A4BD7
:104990008E485C6108F074FA21E7002008F014FCEE
:1049A00003468B48FB6008F06BFAFFF767BB89484A
:1049B00008F066FAFFF762BB874914F007FA451E54
:1049C000041D15F8012FA2F12A03002A3FF456AB6B
:1049D000A5423FF453AB1A2B00F2C480DFE803F08A
:1049E000B9C2C2C2C2C2C2C2C2C2C2C2C2C2C2C2B0
:1049F000C2C2C2C2C2C2C2B5AC241B00284677499B
:104A0000FBF71EFC00283AD1022C16D0744808F09F
:104A100037FAFFF733BB734808F032FA40F2E3701D
:104A20007149FFF71FFACCE7704808F029FA40F205
:104A3000E2706D49FFF716FAC3E7674914F0C6F94B
:104A4000451E041D15F8012FA2F12A03002A3FF488
:104A500015ABA5423FF412AB1A2B00F29080DFE8B1
:104A600003F0858E8E8E8E8E8E8E8E8E8E8E8E8E98
:104A70008E8E8E8E8E8E8E8E8E675E251C002846C4
:104A80005B49FBF7DDFB064600283AD1012C16D026
:104A9000584808F0F5F9FFF7F1BA574808F0F0F96F
:104AA00040F2E3705549FFF7DDF9CBE7544808F0D1
:104AB000E7F940F2E2705149FFF7D4F9C2E74649FD
:104AC00014F084F94F4808F0DBF9304603F0CCFAD3
:104AD000322010F05BFF2146422003F08BFA06F0F3
:104AE00007FD10F053FF2146432003F083FA06F040
:104AF000FFFC10F04BFF2146442003F07BFAFFF748
:104B0000BDBA28464049FBF79BFB002840F08C804B
:104B1000022C38D03D4808F0B3F9FFF7AFBA3C4853
:104B200008F0AEF940F2E1703449FFF79BF989E7EC
:104B3000384808F0A5F985E7374808F0A1F940F2B0
:104B4000E1702949FFF78EF93BE7324808F098F900
:104B500037E7324808F094F940F2DF702249FFF756
:104B600081F92EE72E4808F08BF92AE72D4808F046
:104B700087F940F2DF702149FFF774F962E72848AE
:104B800008F07EF95EE7144914F020F9451E041D73
:104B900015F8012FA2F14103002A3FF46FAAA542A4
:104BA0003FF46CAA032B00F26C83DFE813F01C02C5
:104BB00013020A025F0000BF482B032020BD01083A
:104BC00000BD0108E8BC0108CCBC0108ACBC010870
:104BD00044BC010818BC010804AC010894BF0108DA
:104BE0009CBF010880BF010824BF01086CBF0108F9
:104BF00048C0010854C0010828C00108DCBF0108F2
:104C000008C001087CC00108D8C00108E4C0010840
:104C1000E8BF010830BF010858BF010800BF010804
:104C200078BE0108B4BF01082846A449FBF708FB79
:104C3000002800F08B812846A149FBF701FB0028E2
:104C400000F0848128469F49FBF7FAFA002800F01B
:104C5000318128469C49FBF7F3FA00284AD1022CFF
:104C60000DD09A4808F00CF9FFF708BA984808F0F8
:104C700007F940F2E3709749FFF7F4F888E796499F
:104C8000002014F0A3F895490446FBF7D9FA002850
:104C900000F0088120469249FBF7D2FA002800F084
:104CA000F98020468F49FBF7CBFA002800F072828A
:104CB00020468D49FBF7C4FA002800F063822046A5
:104CC0008A49FBF7BDFA002800F054822046884943
:104CD000FBF7B6FA002800F0458220468549FBF72D
:104CE000AFFA80BB072005F0DBFA834808F0C8F86C
:104CF000FFF7C4B928468149FBF7A2FA002800F063
:104D00008A8028467E49FBF79BFA002800F08380C2
:104D100028467C49FBF794FA00287CD028467A493B
:104D2000FBF78EFA002876D028467849FBF788FAF8
:104D300000285ED1012C21D0022C09D9744808F03A
:104D40009FF8FFF79BB9734808F09AF8FFF796B9F8
:104D5000614914F03BF8451EC41C15F8012FA2F15F
:104D60004103002A3FF48AA9A5423FF487A9032BF7
:104D700000F28382DFE803F0392A1B0C664808F052
:104D80007FF8C82010F002FE08F024FFFFF776B984
:104D9000624808F075F80021442003F02BF9322016
:104DA00010F0F4FD0121442003F024F9D5E75C481C
:104DB00008F066F80021432003F01CF9322010F0BF
:104DC000E5FD0121432003F015F9C6E7554808F039
:104DD00057F80021422003F00DF9322010F0D6FDE3
:104DE0000121422003F006F9B7E74F4808F048F8E0
:104DF000B3E728464D49FBF723FA002840D0284660
:104E00004B49FBF71DFA38BB022C07D0494808F084
:104E100037F8FFF733B90120FFF734B92E4913F003
:104E2000D5FF2E490546FBF70BFA002800F0C2819A
:104E300028462B49FBF704FA002800F0B3812846E6
:104E40002849FBF7FDF900BB032004F04BFF3A486B
:104E500008F016F8FFF712B928463849FBF7F0F9C1
:104E6000002840F0B48101F0FBF8002800F0AA818E
:104E7000334808F005F8012001F002F9FFF7FEB809
:104E8000304807F0FDFFFFF7F9B82F4807F0F8FFAB
:104E9000FFF7F4B8022005F003FA174807F0F0FF17
:104EA000FFF7ECB8012005F0FBF9134807F0E8FF25
:104EB000FFF7E4B806F070FAFFF7E0B898C1010810
:104EC0009CC1010848CA010850AC010850CA010839
:104ED00054C1010824C1010804AC0108C8BC010880
:104EE00058CF0108ACCA0108B0CA0108B4CA010809
:104EF000B8CA0108BCCA0108A0CA0108F0CA010862
:104F0000F4CA0108FCCA010804CB01080CCB010853
:104F100064CB0108C0CA010814CB01085CCC0108AD
:104F200048CC010834CC0108E8CB010870CC01085A
:104F3000F4CC0108FCCC010844CD010888CD01085F
:104F400090CD010878CC010858CD0108012C40F221
:104F50005C810020CD4913F039FF054600283FF45D
:104F60008DA8CB49FBF76CF9002800F04981284651
:104F7000C849FBF765F9002800F03E812846C6497C
:104F8000FBF75EF9002800F02D812846C349FBF7A6
:104F900057F90646002800F090802846C049FBF7E4
:104FA0004FF9002800F082802846BE49FBF748F9F7
:104FB000064678BB032C1AD0BB4807F061FFFFF709
:104FC0005DB8BA4807F05CFF40F2E270B849FEF7FE
:104FD00049FFDDE5B74807F053FF40F2E170B449FF
:104FE000FEF740FFD4E5B44807F04AFFD0E5A749F3
:104FF00013F0ECFE0A216A468DF8006008F02CF9E7
:105000009DF800300446012B10D0AC4807F038FF63
:10501000FFF734B82846AA49FBF712F948BB032C1E
:105020000FD0A84807F02CFFFFF728B8A64807F0D4
:1050300027FFE0B2FEF77CF9A44807F021FFFFF755
:105040001DB89249002013F0C1FE00230A216A46D0
:105050008DF8003008F000F99DF800300446012B6F
:10506000D3D1994807F00CFFE0B2FDF763FFFFF7DB
:1050700005B828469649FBF7E3F8002800F0EF80D2
:1050800028469449FBF7DCF8002800F0E180284628
:105090009149FBF7D5F8002840F0C780042C00F0B8
:1050A000B9808E4807F0ECFEFEF7E8BF8C4807F0A9
:1050B000E7FEFDF749FAFEF7E1BF8A4807F0E0FE98
:1050C000FDF79AF84FF47A730446B0FBF3F06946A3
:1050D00003FB104408F0EEF80A2103462027B4FB36
:1050E000F1F24FF02E09642503EB0708E84408F8B5
:1050F000209CB2FBF1F8B4FBF5F54FF0250E4FF014
:105100000D0C01FB124401FB18220DEB0708591C82
:1051100058FA81F1303501F8205C991C303258FA88
:1051200081F101F8202CDA1C58FA82F2303402F8AE
:10513000204C1A1D58FA82F202F8207C5A1D58FAA7
:1051400082F202F820EC9A1D073358FA82F258FADC
:1051500083F302F820CC684603F8206C07F090FE39
:10516000FEF78CBF062005F09BF85F4807F088FE2D
:10517000FEF784BF052005F093F85B4807F080FE3A
:10518000FEF77CBF042005F08BF8574807F078FE47
:10519000FEF774BF032005F083F8534807F070FE54
:1051A000FEF76CBF204604F09DFD504807F068FEF6
:1051B000FEF764BF012004F095FD4D4807F060FE46
:1051C000FEF75CBF4B4807F05BFEFEF757BF4A484F
:1051D00007F056FE284607F053FE484807F050FEF9
:1051E000FEF74CBF464807F04BFEFCF7ABFF4548C7
:1051F00007F046FEFEF742BFFDF71EF9FEF73EBF81
:10520000414807F03DFEFEF739BF404807F038FE41
:10521000FEF734BF1D4913F0D9FDFCF7D3FD68B983
:105220002A4807F02DFEFEF729BF28463849FBF72C
:1052300007F840B9FCF7F2FEFEF720BF354807F04B
:105240001FFEFEF71BBF344807F01AFEFEF716BF1D
:10525000324807F015FEFDF751FCFEF70FBF30484E
:1052600007F00EFE032C7FF41CAF0849002013F05A
:10527000ADFDFDF7B5FAFEF701BF2A4807F000FEC5
:105280006BE5284807F0FCFD82E400BF04AC010890
:1052900034AC0108A8C80108B0C80108C8C8010892
:1052A000E8C8010808C9010810C9010830C101088F
:1052B00024C1010800C1010830BF010848C9010824
:1052C0005CC9010868C9010834C9010840C901085E
:1052D00090C90108C4C90108E8C90108A4C90108A6
:1052E000F0C80108D0C80108A0CA010830CD0108E3
:1052F0001CCD0108A0CD0108B4CD0108C8CD01081E
:10530000B4C80108C0C80108E0C10108A4C101086F
:1053100008CA0108ECC9010810CA0108CCC9010873
:1053200098C9010878C101082DE9F04FA1B00546E0
:105330000E4606F025F8012800F086812B78A3F1AF
:105340003002012A19D90022904FCDE90B22797938
:10535000012900F0FD80DFF83882D8F80020002411
:10536000752BCDE90D440A9240F08A80132E00F08F
:105370007281002021B0BDE8F08F4FF400116A78EF
:105380000C91302A00F0F0804FF480107F4F0B908A
:10539000797901296AD000237D49722A0968CDE90B
:1053A0000D330A9105F1010900F0FA8000F2F68050
:1053B000522A02D0542A40F0E38001242246B71A30
:1053C000092F40F2DD804FF080434FF0000A601C4F
:1053D00028440793CDF820A007F0C8FE069004F1FA
:1053E0000900284407F086FE99F800308046522BC9
:1053F000099003D14FF00053D0460893404607F080
:10540000DDFE0530B7EB400F40F0BA800A34013EB4
:10541000B44238BF00270DD2281907F071FE0234BC
:10542000E4B220AB53FA87F3B44203F8400C07F11F
:105430000107F1D307F0ECFC10AC0121554806AE92
:1054400007F0FCFC21463046FEF7BCFB022840F08A
:10545000EF8007F0E9FC02E00A2010F097FA2146FD
:105460003046FEF7AFFB0228F6D0E3E0721EA95CDF
:10547000692900F0328400220124CDE90D220A922C
:10548000295D2246722905EB040900F08B8068D85B
:10549000522994D0542992D0233B562B70D8DFE860
:1054A00013F02A016F00EB0007026F006F006F001E
:1054B0006F006F006F006F006F006F006F006F0074
:1054C0006F006F006F006F006F006F006F006F0064
:1054D0006F006F006F006F006F00DE009F026F00B3
:1054E0006F00950274026702E202D102DE00CD0273
:1054F000C5020103F3021903AC02BB036F006F0086
:105500006F0099036F006F00EF037503D4038E03E0
:10551000CA036F006F006F00E3006F006F00160298
:10552000E600810367036F0057036F00DE004C0342
:1055300044032C03FC01E901D3016F0081015901EF
:105540006F0043016F006F00390132013502240200
:10555000721EA95C69290ABF164600224FF000425C
:10556000FDE6742998D11DE00022084F0B9279794D
:1055700001293FF47BAF064B0D921B680E920A93F4
:105580000121054807F00EFCF3E600BF6C01032083
:105590001000032090A8010868A70108742AEFD121
:1055A00001242246B71A042FEAD94FF0000A601CE2
:1055B0002844CDE907AA07F0C9FD0690201D28441C
:1055C00007F098FD99F800308046722B099003D1BE
:1055D0004FF00053D0460893404607F0EFFD0523F7
:1055E00000B203EB40039F42CAD10534013EA642FC
:1055F00088BF00270DD9281907F082FD0234E4B2D4
:1056000020AB53FA87F3B44203F8400C07F10107CB
:10561000F1D307F0FDFB10AC0121C54806AE07F041
:105620000DFC21463046FEF7CDFA022800F05F83DC
:1056300007F0FAFB4046069D07F0C0FD22460146F2
:10564000284601F0EDFC94E60421BA4807F0AAFBD5
:1056500005F0A2FE8DE6284601F084FE89E61621BB
:10566000B54807F09FFB84E6B44807F009FC012128
:10567000AF4807F097FB7CE6032E81D96F1C3846B4
:1056800007F064FD043E4FEA5609C6F34F06B042E8
:1056900004467FF475AF05F1040841461FFA89F20C
:1056A00010AEA74807F00CFD11F0E0FA2246A54B1A
:1056B000A349009606F054FB3946BDF8400007F0B8
:1056C00059FCBDF8402040469E4907F0FBFB0D22E7
:1056D000BDF840302846023305F813205B00591C02
:1056E00007F060FB11F0C2FA2246964B94490096EF
:1056F00007F0F0FA3DE6012E7FF442AF924807F042
:10570000BFFB304636E6FEF761F90121884807F015
:1057100049FB2EE6022E7FF433AF6B78302B0CBFA3
:10572000002301237B71A2E7052E7FF429AF012618
:10573000864CA819666107F0E3FC0346E81CE361A8
:1057400007F0DEFC2062FEF741F93146784807F0A9
:1057500029FB0EE67E4807F093FB40217B4808F0CA
:10576000B9FF07F0A3FB7B4C784808F0BDFF07F0BA
:105770009DFB206810F004FE07F098FB2068764C33
:1057800010F00EFE07F092FB206810F0F9FD07F014
:105790008DFB206810F004FE07F088FB644807F0DA
:1057A0006FFBE6E5022E7FF4EBAE6B78423B022BFB
:1057B0003FF6E6AE00234FF400124FF48011BB70A9
:1057C000CDE90B12099340F281123B7000234FF098
:1057D0001409CDE90623DFF8888110AC06AE00205D
:1057E00002F042FCFEF750FAFEF7F0F8642010F0E9
:1057F000CDF86878012102F01BFC6878012102F0E5
:10580000F9FB484610F0C2F802E00A2010F0BEF89A
:1058100021463046FEF7D6F90228F6D0322010F0A5
:10582000B5F8D8F8143009F1140913B9B9F5D27FD5
:10583000D5D1D8F81430002B3FF4A2AE01213C485A
:10584000397007F0AFFA94E5012E7FF499AE314636
:10585000374807F0A7FA414801F02CFE002002F07B
:1058600003FC002002F01AFC642010F08FF808F00E
:10587000B1F97EE5042E00F0E782092E7FF480AEB8
:10588000681C07F073FC0346354A23F000430121EE
:105890002748136507F086FA6BE50121244807F0D5
:1058A00081FA0123294A3B70D360FEF78FF860E547
:1058B000062E7FF465AE05222A49681C13F05BFAB8
:1058C000002840F0B182284807F0DAFACFE6022E2D
:1058D0007FF456AE6B781D4A303B18BF012301217F
:1058E0001348137407F05EFA43E5032E7FF448AEC5
:1058F0006878A0F14203022B3FF642AEAB78302B22
:105900000CBF0021012102F075FBB0E67822174B95
:105910008DF84020D3F890050DF1410107F0F4FA1D
:105920000D230A2110A88DF8493007F03BFA20E535
:1059300090A80108E4AB010870CE010840CF01082F
:10594000B4660120B056012040CE0108482B032048
:1059500088CE0108E43B0320E03B032090CE010801
:105960001000032054CF01085CCF01080000FA0B9F
:1059700010A9BA4808F074FE02A9B84808F098FEC9
:1059800010A902A801F04EFDF3E4B54807F02EFC83
:10599000431C9E427FF4F4ADB14807F027FCB049A8
:1059A0000246681C13F0FFF900287FF4E9AD0121DD
:1059B000AC4807F0F7F9C8200FF0E8FF03F010F942
:1059C000002840F0768203F057F9D9E5012E7FF4E4
:1059D000D7AD00233146A3483B7007F0E3F9C8E494
:1059E000022E7FF4CDAD6B78302B00F05582312B39
:1059F0007FF43DAE01233B7139E64E239A4D9B4E19
:105A00000DF141048DF8403015F8040B214607F0E4
:105A1000E9FAB54204F10204F6D1192110A807F001
:105A2000C1F901218F4807F0BDF9A2E44A238DF89E
:105A3000403005F06BFD0DF141016FE78C4801F03E
:105A4000D1FC96E4032E00F01B82052E7FF498AD66
:105A5000681C07F055FB0346804CE81CA36107F067
:105A60004FFBA06203E64623814A0DF14101107904
:105A70008DF8403007F0B6FA0D23042110A88DF8F8
:105A8000433007F08FF974E4012E7FF479AD31468D
:105A9000744807F087F90222704B3E70DA60FDF718
:105AA00095FF66E4072E7FF46BAD681C07F028FBBA
:105AB00003466A4CE81C636207F022FB0346681D3C
:105AC000E36207F01DFB034601216648236307F0EC
:105AD00069F94EE4042E00F0C581092E7FF450AD23
