:020000040800F2
:1000000000000420B5DB000871D9000875D900088C
:1000100079D900087DD9000881D9000805DC0008DD
:1000200000000000000000000000000051810108F5
:1000300085D9000800000000E1800108B9590108D5
:1000400005DC000805DC000805DC000805DC00080C
:1000500005DC000805DC000805DC000805DC0008FC
:1000600005DC000805DC000805DC000805DC0008EC
:1000700005DC000805DC000805DC000805DC0008DC
:1000800005DC000805DC000805DC000805DC0008CC
:1000900005DC000805DC000805DC000805DC0008BC
:1000A00005DC000805DC000805DC000805DC0008AC
:1000B00005DC000889D9000895D9000805DC00088E
:1000C00005DC000805DC000805DC000805DC00088C
:1000D00005DC000805DC000805DC0008A1D90008E3
:1000E000ADD9000805DC0008B9D9000805DC000816
:1000F00005DC000805DC000805DC000805DC00085C
:1001000005DC0008C5D90008D1D9000805DC0008C5
:1001100005DC000805DC000805DC000805DC00083B
:1001200005DC0008DDD90008E9D9000805DC000875
:10013000F5D9000805DC000805DC000805DC00082E
:1001400005DC000805DC000801DA000805DC000811
:1001500005DC000805DC000805DC000805DC0008FB
:1001600005DC00080DDA000805DC000805DC0008E5
:1001700005DC00080000000005DC000800000000AD
:1001800019DA000805DC000805DC000805DC0008B9
:1001900005DC000805DC000805DC000805DC0008BB
:1001A00005DC000805DC000805DC000805DC0008AB
:1001B00005DC00080000000025DA000805DC000866
:1001C00005DC00080000000005DC000805DC000874
:1001D00005DC000805DC000805DC000805DC00087B
:1001E00005DC000805DC000805DC000805DC00086B
:0401F000000000000B
:1002000010B5054C237833B9044B13B10448AFF350
:1002100000800123237010BD480703200000000068
:10022000909C010808B5034B1BB103490348AFF389
:10023000008008BD000000004C070320909C0108CE
:1002400010F8012B11F8013B012A28BF9A42F7D080
:10025000D01A7047034613F8012B002AFBD1181A55
:1002600001387047704700BF2DE9F041234C244D01
:10027000244E254FDFF8948082B04FF0FF330222E6
:1002800020680DF1060116F00FFA022807D02B782E
:10029000012B29D0012130460CF032FEEDE742F26D
:1002A0000303BDF806209A42F1D841464FF0FF33D0
:1002B000206816F0F9F9BDF806108142E7D14046F2
:1002C00006F08EFE0028D8D12B78BDF80610012B41
:1002D0000E480DD005F028F80128CED12B78B3FABE
:1002E00083F35B092B70C8E738460CF077FEC4E750
:1002F00003F0FCFD0128C0D1F0E700BF680803202F
:100300003C080320B8A8010898A801083CB70020C1
:100310002DE9F04F7E4CDFF81482DFF808927D4F14
:100320007D4E9BB04FF0FF3328226946206816F0BF
:10033000BBF92828F6D103980CF0EEFF824600287E
:1003400040F09380029B002B6DD10098D8F80030CC
:10035000984200F0928051460AAA06F061FE16F01B
:1003600031FD0AA90246684607F0B2FD16F02AFDE3
:100370000AA90246684609F0A9FC16F023FD0AA95D
:100380000246684606F02AFE3B78002BCAD0069B40
:10039000B3F5001F7FD00121BAF1080F28BF4FF03D
:1003A000080A00200D465FFA8AFADDE90132002AC8
:1003B00069D13144002B00F09D80542333540098C0
:1003C0000CF050FE0544EDB2069B7119B3F5001F09
:1003D0006CD00AF00F000CF0C3FE0544EDB2BAF188
:1003E000000F0BD00AAB9B469A441BF8010B711906
:1003F0000CF0A6FEDA450544EDB2F6D1FB78002BF1
:100400005CD17B791BB1069BB3F5001F76D00D2321
:10041000691C4148C9B273550CF072FD002881D0A7
:1004200000233B707EE7B3F1005FA6D1009BB3F5DC
:10043000E06FA2D1C9F80030039B0199082B28BFB7
:1004400008231A460023C9F80410C9F80C203349C0
:1004500008223348C9E90533C9F808300CF068FFB1
:100460002F49304803F0AEFB87E702464FF0FF33D9
:1004700020680AA916F018F964E72B492B4803F005
:10048000A1FB009867E753B352234FF0000A33549F
:100490003144009894E7059B0221B3F5801F14BFF7
:1004A0003023312301200D4633707EE7039800F09E
:1004B0000F000CF055FE2B18DDB290E716F082FC11
:1004C0004EF660221A4B7119A3FB00C39B0B02FB73
:1004D000130080B20CF012FE2B18DDB291E79A46A1
:1004E000722333540098314480B20CF0F1FD2B1884
:1004F000DDB269E7742333540098F5E7049BB3F148
:10050000004F84D1692373550135EDB27FE700BFF9
:10051000E43B03206C0103203CB500209005FA0B5E
:100520006C07032078070320383D0320403D03205B
:1005300073B2E7452DE9F0411F4DDFF884801F4F6E
:100540009AB0002404EBC40101AEC4F124024FF0C0
:10055000FF33286806EB810116F0A6F80444232C2B
:10056000F0D904980CF0D8FE039B0646B3F1005F67
:1005700000D0A0B938460EF063F950B138460AAA47
:1005800001A90EF017F8D8F80C300133C8F80C3078
:10059000D7E74FF0FF31012017F0CCF8EAE700244D
:1005A0000AA9321B21444FF0FF33286816F07CF86B
:1005B0000444A642F4D8DDE7E03B0320482B0320A7
:1005C000100003202DE9F04182B006F023FD03F076
:1005D000FDF907F07DFD00F0C7FD0AF0EFF816F019
:1005E000F1FB06F0F1FC16F0EDFB06F0F1FC2448FF
:1005F00012F0D0F8234812F095F82349234809F067
:1006000083FA234F08F032FA224DDFF89080224E11
:1006100005E001330CD10A2101A816F03BFD16F0CC
:10062000D1FB3B68019001332B68F2D101330BD031
:100630004FF47A7401E0013CEDD03146284603F0D6
:10064000C1FA0028F7D0E6E70AF0B6F801980AF0F8
:10065000BBF8019800F08AFD98F800304BB1019882
:1006600006F0C0FC019807F031FC019809F062FA2D
:10067000D1E7019806F01CFE019806F0A7FCEEE712
:1006800080280320E8270320581B0320E8290320A3
:10069000403D0320143D03200C3D03209200032025
:1006A0002DE9F04700272B4D2B4EDFF8B0A0DFF8E7
:1006B000B090DFF8B080A4B016E0630203D53379C0
:1006C00043F08003337199F8003033B1099B23B1B3
:1006D000642015F007FA03F079F900230222194685
:1006E000D8F8000017F09CF84FF0FF31012017F008
:1006F00021F817F0FFFB28460EF0F8F9044604A98C
:1007000028460EF059F8694628460EF07DF8542226
:1007100031460FA8B46018F046FD2F66169BB3F55E
:10072000003F02D9B3689A020CD417F0F1FB9AF893
:100730000030012BC1D1234668460FAA04A906F058
:10074000CBFEBAE7012386F82030099303F0C8F9FD
:10075000EBE700BF482B032010000320E03D0320FF
:10076000680703200820032000232DE9F04784B008
:100770005B4C5C4D5C4FDFF87481DFF874910DF1D8
:100780000E068DF80B3004E04FF0FF31002016F01C
:10079000D1FF206815F0B0FE0028F5D04FF0FF33F0
:1007A000012220680DF10B0115F07EFF0128EBD12D
:1007B000206815F0A1FE0128E6D94FF0FF33022290
:1007C000206803A915F070FF0228DDD1BDF80C20C8
:1007D000B2F5805FD8D2002A55D19DF80BA0BAF1AE
:1007E000000F16D116F0EEFA3B462946BDF80C2054
:1007F00000960BF063FBBDF80E30002B56D116F0BF
:10080000E1FA3B462946BDF80C2000960CF010FB9F
:10081000BAE716F0D7FA344B3249BDF80C200096EF
:100820000CF0A2FABDF80E301BB33A787F2A08D13B
:10083000022B1ED9BB78A3F11102012A19D9312B41
:1008400017D04FF0FF3302223146D8F8000015F0E0
:1008500061FE4FF0FF332449BDF80E20D8F80000A8
:1008600015F058FE002302221946D9F8000016F0B0
:10087000D7FF16F0A7FA1C4B1A49BDF80C200096BA
:100880000CF0D6FA80E74FF0000AA2EB0A0205EB63
:100890000A014FF0FF33206815F006FFBDF80C2069
:1008A00050441FFA80FA5245EFD196E731464FF097
:1008B000FF330222D8F8000015F02CFEBDF80E2000
:1008C0004FF0FF330849D8F8000015F023FE5346D7
:1008D00002225146D9F8000016F0A2FF8FE700BFB0
:1008E000A807032038A5002038950020A40703207E
:1008F000480D03202DE9F84F2A4E2B4DDFF8ACA010
:1009000006F11C0706F5805B06F11408A6F5805970
:1009100004E04FF0FF31002016F00CFF286815F0BE
:10092000EBFD0128F5D94FF0FF330222414628683C
:1009300015F0BAFE0228ECD1B28AB2F5805FE8D297
:1009400062B10024121B39194FF0FF33286815F0EB
:10095000ABFEB28A204484B2A242F3D116F032FA3E
:100960000146484607F0E4FD0028D2D116F02AFAE5
:100970000BF006FA0128CCD0286815F0BDFD01283F
:10098000C7D89AF8003053B19BF8230015F0AAF8A5
:1009900016F018FA0BF0F4F90128BAD0ECE70A20A7
:1009A000F4E700BF8C3D0220A4070320920003203F
:1009B00038B50D490D480CF075FA0B4A0C490D4835
:1009C00017F056FE094D0C4C21464FF0FF334FF403
:1009D0000062286815F068FE01460028F4D0204621
:1009E0000CF078FAF0E700BF9808032040080320D5
:1009F000BC2403206808032040D7002006F002BB77
:100A0000002006F003BB00BF0022024B02481A6020
:100A100011F0C0BE6407032034280320014B18687E
:100A2000704700BF6407032030B59FB04822002103
:100A30000CA818F058FA00234FF40070CDE90233E7
:100A4000CDE90433CDE90733CDE9093301930693AA
:100A50000B9310F065F808B172B6FEE7012302228D
:100A6000169311931993179210231D9207229FED4D
:100A70001E7BCDE91A320324042312900CA81C9388
:100A80008DED0C7B189410F08DFA034608B172B608
:100A9000FEE70F22214601A8CDE903330593029416
:100AA000019210F02DF9034608B172B6FEE7104A24
:100AB0004FF00055916D4BF67F3441F08071916598
:100AC000926D069302F080720092089322222023F6
:100AD00006A8CDE90A2300990795099411F0C0F9F9
:100AE0001FB030BDAFF300802900000000000100FE
:100AF00000100240F0B593B072B64FF00062A84B00
:100B00009A60BFF34F8F62B600250DF07DF808F0B4
:100B100073F8FFF789FFCDE90D55CDE90F55A14CCD
:100B20001195E36C4FF4604143F00403E364E36C1C
:100B30002A4603F004030693069BE36C9A4843F0AD
:100B40008003E364E36C012603F080030793079BB3
:100B5000E36C082743F00103E364E36C03F0010353
:100B60000893089BE36C43F00203E364E36C03F037
:100B700002030993099B0EF05DFC2A4640F2011125
:100B80008A480EF057FC2A4641F2E40188480EF0EC
:100B900051FC4FF4604384480DA9CDE90D360F9503
:100BA00010950EF089FA40F2011380480DA9CDE9A5
:100BB0000D36CDE90F550EF07FFA41F2E4037C4883
:100BC0000DA9CDE90D36CDE90F550EF075FA79482E
:100BD0000DA9CDE90D750F950EF06EFAA36C0521E8
:100BE00043F00403A364A36C2A4603F004030393B5
:100BF000039BA36C1D203343A364A36C3340049375
:100C0000049BA36C43F00203A364A36C03F00203F0
:100C10000593059B0DF02EF81D200DF067F82A4670
:100C200005211E200DF026F81E200DF05FF82A4643
:100C3000052150200DF01EF850200DF057F82846E1
:100C40000EF080FF08B172B6FEE70EF08FFF03468C
:100C500040B959484360594B036011F029F918B164
:100C600072B6FEE772B6FEE710224FF44071544BA5
:100C70000F241870534B99609A619A623C21132299
:100C8000C3E907120422C3E90B424F4A5860D860F7
:100C90009874D8631846C3E90D661E825E615E6271
:100CA0001A600DF0B9FA034668BB4FF0FF31474AAE
:100CB0004FF4827CC2E90500C2E90100D0601160F6
:100CC00007224FF4E0654FF400744148C0E90A324E
:100CD000404AC0E90433C0E90833C2E90533C2E938
:100CE000013383600363D3603B4BC7610360476399
:100CF000C0F804C0C5608461116011F005FB0346B3
:100D000018B172B6FEE772B6FEE73448344AC0E95D
:100D100005338380026006620DF01AF8034608B1BD
:100D200072B6FEE74FF4027102222E48C3722E4BB8
:100D300081800360C0F807200EF022FF034608B14F
:100D400072B6FEE741F63F75284C294ACDE90D0001
:100D50000F902046C4E90133A3612260E56011F0E1
:100D60002DFF034608B172B6FEE720460DA90D938C
:100D70000F9311F055FF034608B172B6FEE71D4808
:100D80001D4ACDE90D33026042F20F72C0E902350F
:100D90000F938361426011F011FF78B372B6FEE7E2
:100DA00000ED00E000100240000802420000024294
:100DB00000040242001C02424C2A032000080C429C
:100DC00068070320482B032000A40040403D032077
:100DD000E8290320143D032000380040AC2B0320F9
:100DE00000300240C024032000D4004034280320F7
:100DF00000140040802803200010004000238E488B
:100E00000DA90D930F9311F00BFF034608B172B6B5
:100E1000FEE74F254FF6FF748848C0E9043383602E
:100E20008361874BC460C0E9003511F0C7FE0346FB
:100E300008B172B6FEE78348C0E90153C0E9034335
:100E4000C0E90533804B036011F0B8FE034608B1DA
:100E500072B6FEE74FF080414FF0FF327B4CCDE998
:100E60000D00CDE90F00C4E901000A902061A061E6
:100E70002046CDE90B332160E26011F09FFE08B1FE
:100E800072B6FEE74FF4805320460DA90D9311F082
:100E9000BFFC034608B172B6FEE720460AA90A93D2
:100EA0000C9311F0BDFE044608B172B6FEE7684827
:100EB000684900902246684B0C7043F69820012147
:100EC00015F08CFA0546654E654A009601211560BD
:100ED000644B224643F6982015F080FA0546624E90
:100EE000624A009601211560614B224641F20100E1
:100EF00015F074FA02465F4E5F4D009601215F4B7C
:100F00002A6041F20100224615F068FA5C4B5D4A06
:100F100001210092186022465B4B43F6982015F0A1
:100F20005DFA5A4B5A4A0121009222461860594BE9
:100F300043F6982015F052FA574B584E1860204649
:100F400007F092F8204607F0A9F807F0F1F815F03D
:100F500039FF2A46524B5349009606F0A5FF5248E6
:100F60000AF06CFB514806F015F85148514A5249B5
:100F700002F012FD0DA80D9407F032F810B90D9B88
:100F8000002B55D014F026FD17F0E0F900214B4A54
:100F90004B4814F04BFD04464A4B00214A4A4B484B
:100FA0001C6014F043FD0446494B0021494A4A485D
:100FB0001C6014F03BFD04463F4B0021474A484863
:100FC0001C6014F033FD0446464B0021464A474856
:100FD0001C6014F02BFD0446364B0021444A454862
:100FE0001C6014F023FD04462E4B0021424A434866
:100FF0001C6014F01BFD0446414B0021414A42484D
:101000001C6014F013FD0446404B0021404A414847
:101010001C6014F00BFD04463F4B00213F4A404842
:101020001C6014F003FD3F4B186014F0E5FCFEE774
:101030003D4806F0ADFFA5E780280320E827032000
:10104000004401409C27032000480140CC28032095
:101050006C0803203C080320D81901204408032011
:101060006808032040DF0020180803204008032000
:1010700034850020F4070320A807032030750020E2
:10108000A4070320D0070320983A0020E43B032064
:10109000AC07032000000020E03B03209C07032056
:1010A000A0070320F81103204C2A0320AC2B0320B7
:1010B000482B0320A816032008200320BCDB0108CE
:1010C00069020008BC24032098DB01081103000812
:1010D000B824032074DB01083505000850DB010843
:1010E000C5050008581B03202CDB0108A1060008D9
:1010F00008DB010869070008E4DA0108F5080008C0
:10110000480D0320C0DA0108B1090008980803203F
:101110009CDA0108FD0900089408032078DA010828
:10112000010A000890080320040029C0094A036846
:10113000934206D0084A93420AD0084A934205D007
:101140007047074A136801331360704705F052BFB8
:101150000CF06CBD00140040002C01400010004059
:101160006407032072B6FEE7704700BF024B0349D5
:10117000D87D02F02BBB00BF7000032018020320B3
:1011800040F69E723B492DE9F04FB1F800803A4994
:101190003A4B0C681B88944204FB083383B064D834
:1011A00000204FF080424FF0300B354F354EDFF8C6
:1011B000DCA0354DDFF8D89004F1010E01973C44D6
:1011C000516A9942FCD3D9F810100130C1F3402C78
:1011D00011F480774CF0020CC0B24344C1F34021BB
:1011E00017D04FF0310731680A280AF801C001F121
:1011F0000101C1F30B0131602968277001F1010180
:10120000296013D9BEF1140F24D80EF1010E013458
:10121000D6E7306884F800B00AF800100130C0F357
:101220000B00306038462968013129600EF1010E4B
:10123000BEF57A6F01D00134C2E740F69F730120FA
:101240009E460D4A019F1360002307F80E3003B03D
:10125000BDE8F08F084B0020C3F800E00023019F99
:1012600007F80E3003B0BDE8F08FA6460120044F0A
:10127000EAE700BF0A0003203C2C032008000320FB
:10128000402C0320B43F0320B83F0320BC3F032081
:101290000004024270B500244FF0804101254FF652
:1012A000FF7086B0CDE90044CDE9024404940A6899
:1012B0001B4E22F001020A6032881A4B013A8A6200
:1012C0004C624D610A68184E2A430A601A6822F07F
:1012D00001021A6098625C625D611A682A431A60B2
:1012E00002F0FEFB30462A464FF400710EF0A2F8E1
:1012F0004FF48072002369463046CDE90023029402
:101300000DF0DAFE4FF40073032269463046CDE952
:101310000035039202940DF0CFFE06B070BD00BF01
:101320000C0003200048014000040242F0B5BDF863
:101330001450012D3BD9302405F1FF3E1C70C1BB78
:10134000C0F38021BEF1010F01F130012FD0012740
:101350000A253E460DE00C460127013D20FA05F125
:1013600001F001016E1C01F130011AD0F4451EDAC2
:10137000664606F1010C8C4299551FFA8CFCEAD1A5
:101380000137FFB2052FE8D1C4F16104F445E4B29E
:1013900006F102060BDA03F80C4001271FFA86FC5F
:1013A000DBE7002A0CBF30253125F44549DB00205E
:1013B000F0BDC0F30071022D2144F8D001271C2597
:1013C0003E460DE00C460127013D20FA05F101F0F3
:1013D0000101112D01F130011AD0E645E7DD664625
:1013E00006F1010C8C4299551FFA8CFCEAD10137A9
:1013F000FFB2052FE8D1C4F16104F445E4B206F16F
:101400000206D4DA03F80C4001271FFA86FCDBE75A
:10141000E645CCDD31260CF10101B44289B203F876
:101420000C606BD08E45C2DD34465E5402260CF152
:101430000207BFB2C0F34041BE4501F1300126DCD6
:10144000B5E70CF10101AC4203F80C5089B26DD044
:1014500001277145ABDA30224C1C9542A4B25A5494
:1014600000F08680A645A2DD881C80B21A550022B5
:101470001A54F0BD0C4667460126013D21D320FADF
:1014800005F101F00101774501F130018FDA07F133
:10149000010C8C42D9551FFA8CFCEBD10136F6B207
:1014A000052E01D06746E8E7C4F16104E645E4B2E1
:1014B00007F102077FF77BAF0126BFB203F80C40AC
:1014C000DBE7002A0CBF302531257745BFF66FAF2B
:1014D0007A1CAC42DD5592B25FD001217245BFF655
:1014E00066AF3026541CB542A4B29E5472D0A645B5
:1014F0007FF75DAF023290B21E55B8E7042F26D0B9
:101500008E457FF754AFBE1CF6B20CF10207052ED4
:101510005C54BFB28ED17745BFF649AF30240CF191
:10152000030CDC5501261FFA8CF783E70137FFB265
:10153000052F8ED18E457FF73AAFC5F16105EDB22B
:101540000CF1020C5D5401271FFA8CF181E78E45E6
:101550007FF72DAF30265E540CF1020189B28E4523
:101560007FF725AF0CF1030701265C54BFB261E79A
:101570007A1CD2B2052A1FD0A6457FF718AF881C67
:10158000042A1D5580B27FF472AF7045BFF60FAFCD
:10159000312203311A5488B269E7711CC9B2052996
:1015A0009CD17245BFF603AFC5F16105EDB20237BC
:1015B0009D540121BAB291E7A6457FF7F8AE3122DA
:1015C0001A558A1C92B296457FF7F1AEC81C80B2BC
:1015D0009D544CE70131C9B2052910D0A6457FF7CB
:1015E000E6AE1D55042902F10204A4B215D17445DA
:1015F000BFF6DDAE3121033290B2195537E7A6456B
:101600007FF7D5AE31211955911C89B28E457FF7F0
:10161000CEAE033290B25D5429E7204627E700BFE3
:101620004A4B1868831C74D02DE9F04FC71C91B049
:1016300075D0411C53D14FF000084FF0804E444B01
:10164000444A1B88B2F800A00393434B0AEB8A0478
:101650001F88424B42481968424E64000369DA050C
:10166000FCD5DEF8242092B20369DB05F6D5DEF85E
:1016700024309B1A9C42F7D8036913F4807306D078
:10168000736ABB423FD8036913F48073F8D11D46D7
:10169000CEF82430B8F1000F1AD04FF08041039AF1
:1016A000DFF8D090DFF8B8B00DF1100C4B6A934220
:1016B000FCD3DBF81030524413F4807F1CF8013B5C
:1016C0001DD0312B1DD10135A84509F8013BEDD1C5
:1016D000224BC3F80080002011B0BDE8F08F302409
:1016E000214B224A1978127804AB0094FFF71EFEB2
:1016F00080460028A1D11E480BF070FC9DE7302BDE
:10170000E1D02946AAE70120144B196011B0BDE8C9
:10171000F08F4FF08043002200205A6270474FF054
:1017200080440C4B0E4A188800EB8000400013697F
:10173000DE05FCD5616A89B21369DD05F7D5636AF8
:101740005B1A8342F8D300236362C4E704000320DA
:10175000080003200A000320000003203C2C032083
:101760000004024200480140392C0320382C032099
:1017700054A90108402C032002783AB34FF0000C22
:1017800030B56346864631250BE02A2A07D10CF195
:10179000010C1FFA8CFC8EF8005000EB0C0EC25CA2
:1017A00082B1A2F13001013301290CF101049BB295
:1017B000EBD88EF80020C25C1FFA84FC00EB0C0E04
:1017C000002AEED100238EF8003030BD00230370D4
:1017D000704700BFF8B504460BF0B6FD142874D965
:1017E00000F1FF3E1FFA8EFE14F80E2004EB0E05EA
:1017F000312A2B4618D1A0EB0E020C2A65D8811E87
:10180000661E2A2714FA81F1064401E00C2A5CD8EE
:101810001F700B4693F800C0C3F10102BCF1310FF9
:1018200001F1FF313244F1D00021234601270E4659
:10183000204413F8012BA2F13004012C49D80029CF
:1018400045D0E7B1052953D1B2423ED05F2298423C
:1018500003F8012C29D01A4612F8014BA4F13001EB
:10186000012962D8904203F102031ED01278394652
:10187000A2F13006012E26462BD8002FE2D1B2422B
:101880000DD0984211D013F8014B1646A4F1300147
:10189000012942D82246B2424FF00101F1D1013173
:1018A00098424FF00007C9B2C3D10FFA8EFEBEF1C5
:1018B000000F08DB2A4615F801392A2B45D05F2B8B
:1018C00001D1302313700120F8BD0020F8BD164669
:1018D00001219842ADD1E8E79842E6D013F8014BD8
:1018E0000121A4F13002012A2CD8302216462246CA
:1018F000B2420BD0312AEFD19842D6D013F8014B27
:10190000A4F13001012928D80121EFE70131312E5E
:10191000C9B205D001273026DBE700270121D8E72F
:1019200006298CBF00270127D3E79042BDD011784C
:101930000233A1F13002D2B2012A96BF0E46002135
:101940003946C6E730260F46C3E70EF1FF3E0FFAD1
:101950008EFEBEF1FF3FADD1B5E7012116460F4621
:10196000B7E700BF70B571B3002344F2995600F198
:10197000FF3C0CEB01051CF8012F5C00A2F13102C9
:10198000B2FA82F24FEA933E47F6FE73520972456D
:1019900003EA040318BF7340AC45ECD14A1E00F1C2
:1019A0000E0C024400208C4412F8011F4000312923
:1019B00008BF40F00100944580B2F5D1C01AB0FADA
:1019C00080F0400970BD0B46E8E700BF2DE9F04FFD
:1019D0008FB004460BF0B8FC122840F251812378F6
:1019E000302B05D0B6480FB0BDE8F04F0BF0F6BA7B
:1019F000054606AEB3480BF0F1FA00273146234600
:101A000004F10B0C13F8012FA2F13100B0FA80F0B1
:101A10009C454FEA501001F8012B40EA4707F1D1ED
:101A20004FF00008A8488DF823800BF0D7FA06A8DD
:101A30000BF0D4FAA5480BF0D1FA03A938460BF005
:101A400011FB03A88DF814800BF0C8FAA0480BF026
:101A5000C5FA277B9F4894F80D908DF819808DF872
:101A600018700BF0BBFA06A80BF0B8FA9A480BF006
:101A7000B5FA9A488DF818900BF0B0FA06A80BF05A
:101A8000ADFA95480BF0AAFAB9F1310F40F0028196
:101A9000262D40F2FB80474606AA04F10D010DF108
:101AA0002A0011F8013F02F8013BA3F13103B3FA18
:101AB00083F390424FEA531343EA4707F1D14FF0C3
:101AC000000887488DF82A800BF088FA06A80BF0EA
:101AD00085FA7E480BF082FA03A938460BF0C2FA69
:101AE00003A88DF814800BF079FA79480BF076FA98
:101AF00094F820707B488DF819808DF818700BF0E1
:101B00006DFA06A80BF06AFA73480BF067FA94F8BE
:101B1000213075488DF818300BF060FA06A80BF0EC
:101B20005DFA6D480BF05AFA94F822306F488DF840
:101B300018300BF053FA06A80BF050FA66480BF079
:101B40004DFA4FF0230A4FF00009201D06A950441A
:101B500004EB0A0212F8013B01F8013BA3F1310347
:101B6000B3FA83F390424FEA531343EA4909F1D1A0
:101B70004FF000085E488DF81C800BF02FFA06A885
:101B80000BF02CFA5FFA89F950480BF027FA03A9F9
:101B900048460BF0D5FA03A80AF1040B8DF80E8025
:101BA0000BF01CFA4A480BF019FA0BEBC90202F1D0
:101BB0000F03AB4200F2F580302F00F0A980002720
:101BC00006A8551E254400F10F0C15F8011F00F85A
:101BD000011BA1F13101B1FA81F184454FEA5111A4
:101BE00041EA4707F1D100254248CDE900238DF8AD
:101BF00027500BF0F3F906A80BF0F0F933480BF07F
:101C0000EDF903A9B8B20BF079FA03A88DF81050DA
:101C10000BF0E4F938480BF0E1F9009A2046114640
:101C2000FFF7A0FE019B0093002844D033480BF03F
:101C3000D5F9009BE25CE118A2F13003012B98BFBB
:101C4000012304D919E00133202B00F0A88006F805
:101C5000012B11F8012FA2F130000128F3D9002245
:101C600038336B44264803F8202C0BF0B7F906A84C
:101C70000BF0B4F918480BF0B1F90FB0BDE8F08FD4
:101C800020480FB0BDE8F04F0BF0A8B91E480BF08C
:101C9000A5F9F2E7A37B15488DF818308DF8198067
:101CA0000BF09CF906A80BF099F90B480BF096F98C
:101CB0004FF00F0A47E715480BF090F9009BB9E782
:101CC00090A90108A4A90108B8A90108C8A9010898
:101CD00080D00108D0A90108E0A90108E4A9010801
:101CE00008AA010818AA010828AA010838AA0108A8
:101CF00048AA010884AA010894AA010898AA010820
:101D0000ACAA01087CA90108F4A90108A0AA01084D
:101D1000B9F1080F3FF653AFB9F1000F45D009F103
:101D2000FF330AF10C0ADBB20AEBC302DFF88C9036
:101D3000DFF88CA00DF11F0700250DF1170104EB52
:101D40000B0010F8013B01F8013FA3F13103B3FA96
:101D500083F38F424FEA531343EA4505F1D15046CE
:101D600000928DF820800BF039F906A80BF036F9B7
:101D700048460BF033F903A9E8B20BF0E1F903A8E8
:101D80008DF80E800BF02AF90A480BF027F9009A1B
:101D90000BF1080B5A45CFD102F10F030FE71F23B8
:101DA0005DE705480BF01AF967E75A460AF1130395
:101DB00005E700BF80D0010858AA0108C8A901089A
:101DC00074AA0108002845D030B583B004460BF052
:101DD000BBFA0130235C251813B9012003B030BDD4
:101DE000204677490BF0C8FA48BB204675490BF0EE
:101DF000C3FA20BB204674490BF0BEFA002857D125
:101E0000204672490BF0B8FA002863D00A21284610
:101E10000DF107020BF0CEFA9DF80730002BDCD055
:101E20004FF6FE73421E9A42D7D8694B80B21A8889
:101E30006849824208800BD34008188008E0284691
:101E400065490BF099FA38B16FF00102634B1A60E3
:101E50000020C3E701207047284661490BF08CFA47
:101E600020B14FF0FF325D4B1A60F1E728465D4923
:101E70000BF082FA20B16FF00202584B1A60E7E7CC
:101E8000102128460DF107020BF094FA9DF8073057
:101E90000446002BA1D0B0F1005F9ED2B0F5006FD8
:101EA00003D3514B1A78002A50D04C4B1C60CFE71B
:101EB0000A2128460DF107020BF07CFA9DF8073045
:101EC000002B8AD04FF6FE73421E9A4285D8474BAC
:101ED0001880BDE7204646490BF04EFA90B10A2122
:101EE00028460DF107020BF065FA9DF80730002B2C
:101EF0003FF473AF374B1B8883427FF66EAF344B92
:101F00001880A5E720463B490BF036FA80B12846F9
:101F100039490BF031FA002837D0304B374A1B686B
:101F2000A3F50063934246D900222F4B1A708FE726
:101F3000204633490BF020FA70B128462E490BF0A9
:101F40001BFA68B300222F4B1A7081E701222E483A
:101F50001A700BF043F8A8E720462C490BF00CFA56
:101F600000283FF43AAF0DF107020A2128460BF092
:101F700021FA9DF80720002A3FF42FAFB0F5803FEB
:101F8000BFF42BAF224A108062E7284621490BF0AC
:101F9000F3F900283FF421AF0122134B1A7057E7E1
:101FA00028461C490BF0E8F900283FF416AF01223F
:101FB000144B1A704CE718480BF010F80DE700BFEF
:101FC000BCAA0108C8AA010808AB010814AB0108A3
:101FD000080003200A000320C4AA0108040003200B
:101FE000D0AA0108D4AA0108392C03200C00032030
:101FF00020AB010830AB01083CAB0108FFF7FF1F25
:1020000068AB0108382C0320DCAA01086CAB01087E
:102010000000032018BE010840AB010810B5364887
:1020200084B00AF0DBFF354B01A918880BF0F0F9FA
:1020300001A80AF0D3FF324C32480AF0CFFF3248F1
:102040000AF0CCFF01A920680BF00CF8002301A8CE
:102050008DF80C300AF0C2FF2368991C40D05A1C3E
:1020600042D0033344D029480AF0B8FF284B01A9D5
:1020700018780BF0CDF901A80AF0B0FF25480AF056
:10208000ADFF254B01A918780BF0C2F901A80AF0A1
:10209000A5FF22480AF0A2FF214B01A918880BF0E6
:1020A000B7F901A80AF09AFF1E480AF097FF1E4BE5
:1020B00001A918880BF0ACF901A80AF08FFF1B48A2
:1020C0000AF08CFF1A4B01A918880BF0A1F901A89E
:1020D0000AF084FF17480AF081FF002004B010BD09
:1020E00015480AF07BFFBEE714480AF077FFBAE70D
:1020F00013480AF073FFB6E774AB01080000032031
:102100000400032080AB010888AB0108A8AB0108DC
:10211000392C0320B4AB0108382C0320BCAB0108D8
:102120000C000320E0AB01080A000320F0AB01081B
:1021300008000320E0A9010890AB010898AB010852
:10214000A0AB01082DE9F84FFFF7A4F800254FF0E8
:10215000FF31214E214BDFF890B0DFF89080204F07
:10216000CBF80050C8F8005019607562716A3B885E
:1021700099422BD24FF08044DFF874A0DFF87490BE
:10218000BAF800106562636A8B42FCD34FF40071A9
:1021900014480DF055F9134B1969D8F8000041F3B4
:1021A000002303F00203C1F340210B43411CC1F3A0
:1021B0000B01C8F80010DBF8001009F800300131FD
:1021C000CBF80010716A3B889942D9D301F0FEFB2D
:1021D0000020BDE8F88F00BF004801402001032027
:1021E0000000032000040242B83F0320B43F032054
:1021F0000A000320BC3F03202DE9F04F804B91B033
:102200001B88B3F57A7F40F2C480FFF743F872B6BB
:102210007C4B1868831C00F0EC80C71C00F0C78062
:10222000411C00F0BD803024774B784A1978127831
:1022300004AB0094FFF77AF88046002800F0B380E2
:102240004FF0804E724B734A1B88B2F800A0039384
:10225000714B0AEB8A051968694B70481C88704FEE
:102260006D000369DA05FCD5DEF8242092B203691B
:10227000DB05F6D5DEF824309B1AAB42F7D30369B1
:1022800013F4807307D07B6AA34200F2A98003692C
:1022900013F48073F7D11E46CEF82430B8F1000F46
:1022A0001AD04FF08041039ADFF88891DFF86CB1C3
:1022B0000DF1100C4B6A9342FCD3DBF81030524402
:1022C00013F4807F1CF8013B52D0312B52D10136E0
:1022D000B04509F8013BEDD14F4BC3F80080002613
:1022E0004F4D6E626B6AA34237D24C4F02E06B6A6D
:1022F000A34241D23B6913F48073F8D1484A4FF0AE
:102300008041D2F824C0424A1846B2F800904B628D
:102310004A46404BDFF804E1B3F800804B6A934231
:10232000FCD3DEF81030013013F48073C0B21CD03F
:102330000B284244F2D14FF08041A2EB09024B6AD4
:102340009342FCD3364A536AA3EB0C031E44536AF0
:10235000A342CFD3334B03FB06F662B601F036FB44
:10236000274B1B88B6FBF3F010E018464244D5E734
:10237000302BACD0314674E762B601F027FB294B15
:102380001F4A06FB03F31088B3FBF0F011B0BDE861
:10239000F08F25480AF022FE002011B0BDE8F08F32
:1023A0004FF000084CE721480AF018FE48E74FF0CC
:1023B0008044184B194A188800EB800040001369CC
:1023C000DE05FCD5616A89B21369DD05F7D5636A5C
:1023D0005B1A9842F8D800236362094B1C887EE799
:1023E0000D4B196062B612480AF0F8FD01F0EEFAE2
:1023F000D2E74FF0804300225A62014B1C886EE7FF
:102400000000032004000320392C0320382C032073
:10241000080003200A0003203C2C03200004024291
:1024200000480140A086010004AC010854A901083D
:1024300020AC0108402C0320344B70B51B680333DB
:10244000012B4AD9FEF726FF00234FF0FF32304E12
:10245000304C314D336023602A6072B62F4A53628C
:10246000FFF7DEF880BB33682D492B602368013B02
:10247000C3F30B03CA5C42F00402CA54FEF780FEA9
:10248000044600283AD162B6264E3368072B2ED96F
:10249000254D28460AF0A2FD24480AF09FFD336826
:1024A0002846EC54FFF796F9D8B128460AF096FD75
:1024B0001F480AF093FD2846FFF75EF9FFF786FAFA
:1024C00001F084FA204670BD62B61A480AF086FD13
:1024D00001F07CFA0124204670BD17480AF07EFD09
:1024E000F8E716480AF07AFD01F070FAF3E71448AD
:1024F0000AF074FD01F06AFA204670BD62B6114818
:102500000AF06CFD01F062FAE4E700BF040003206A
:10251000B83F0320B43F03202001032000480140BE
:10252000BC3F03203C2C0320402C0320B4AC01080A
:10253000CCAC010868AC010834AC0108BCAC0108A3
:102540009CAC010884AC01082DE9F04F93B0FEF774
:10255000A1FE00244FF0FF338F4E904D904A34601F
:102560002C60136072B64FF080428E498E488F4BBC
:10257000546204604C621868811C00F0C780C31C60
:1025800000F0F080471C40F0AF80204603944FF0ED
:10259000804E874B874CB3F800B0874B0BEB8B0713
:1025A0001A88864BDFF8FCA1B3F800907F002369FE
:1025B000D905FCD5DEF8241089B22369DB05F6D5F0
:1025C000DEF824305B1A9F42F7D8236913F4807336
:1025D00008D0DAF824304B4500F2B280236913F4B6
:1025E0008073F6D11946CEF82430039B002B00F0FF
:1025F000938010464FF0804C714B0DF118080493F6
:1026000002930597DCF824308342FBD3694B58448E
:102610001B6913F4807F18F8013B72D0312B72D103
:10262000029F013107F8013B039B02978B42E9D1DE
:102630001C4640F69E705C4B59491C603368DFF8BD
:1026400098C10B602B68844203F1FF33C3F30B0383
:102650001CF803100BFB042241F004010CF80310DA
:1026600000F29880039BDFF87481581E049BDFF80A
:1026700044E118444FF08043596A9142FCD3DEF89C
:102680001040D5F8009014F4807F0CBF302731271C
:1026900044F3002101F00201C4F34024214309F175
:1026A0000104C4F30B042C60346800F8017F01348A
:1026B00040450CF8091034605A44DDD140F69F7350
:1026C000394A039313601A460024049B9C5462B653
:1026D00001F07CF93A480AF081FC3A480AF07EFCA5
:1026E000204613B0BDE8F08F30230093364B1A78A4
:1026F000364B197806ABFEF719FE039060B32046FF
:1027000045E7302B8CD00846059F50E72A4B546292
:102710001A88274BB3F800B033682149DFF8B8C0F6
:102720000B6000212B680391013BC3F30B031CF8E2
:10273000031041F004010CF80310214B049391E7BE
:10274000194B186062B622480AF048FC01F03EF9C5
:10275000012013B0BDE8F08F1E480AF03FFC124B79
:10276000186814E7124B1349B3F800B00BEB8B0455
:1027700064000B69D805FCD5506A80B20B69DB0593
:10278000F7D5536A1B1A9C42F8D8002353620A4BB0
:102790001A88C1E7224697E7B83F0320B43F0320D9
:1027A00020010320004801403C2C032004000320AA
:1027B0000A00032000040242080003200000032056
:1027C000402C0320E0A90108382C0320392C0320D9
:1027D00020AC010854A90108BC3F0320DE3B0320C4
:1027E0002DE9F04F97B00690002800F04A810AF0DA
:1027F000ABFDB0F57A6F28BF4FF47A60A34E8246E6
:10280000336803332ED1FEF745FD00244FF0FF332C
:10281000DFF8B4B2DFF8B4829D4ACBF80040C8F8C4
:102820000040136072B64FF080459A4B6C625C6258
:102830003068994B871C1C6000F04C81C61C00F06E
:10284000FC80411C12D030230093944B1A78944B97
:1028500019780AABFEF76AFD0590002800F0E680C3
:10286000A44605E08F480AF0B9FBCCE7A4460594DE
:102870008D4B4FF080441A888C4B02EB82051B88ED
:102880008B4807938B4B834FB3F800901346049209
:102890006D000269D205FCD5616A89B20269D6056C
:1028A000F7D5626A521AAA42F8D3026912F480720A
:1028B00007D07A6A4A4500F2DB80026912F480721E
:1028C000F7D111466262059A002A00F00D814FF09F
:1028D000804C794A079E089203920DF1280E0995C3
:1028E000DCF82420B242FBD3714A049D12692E44C5
:1028F00012F4807F1EF8012B00F08880312A40F00E
:102900008880039D013105F8012B059A03958A42C1
:10291000E6D1049A002507981C46104440F69F7E95
:102920004FF08042DBF80010594EDFF8A4C131604F
:10293000D8F80010584E0139C1F30B011CF8017092
:10294000356047F004075C4E0CF80170516AA142F3
:10295000FCD3AA4548D90699495D312944D030298C
:102960005AD003214FF001090F46516A8842FCD822
:102970004F4901350969C9053BD44FF0300106F8CC
:10298000011B45491C440D60D8F8001018440CF890
:1029900001900131C1F30B01C8F80010DBF8001001
:1029A000754501F10101CBF80010CFD14FF47A60E9
:1029B00000224FF0804100FB03F3089880F89F2F1E
:1029C0004A6A9A42FCD34FF40072394B9A6162B65C
:1029D00000F0FCFF38480AF001FB38480AF0FEFA24
:1029E000002017B0BDE8F08F4FF40071304FB9618F
:1029F000B7E74FF0310106F8011B27491C440D6071
:102A0000D8F8001018440CF80170C2E7302A3FF4DF
:102A100078AF8C46099D3CE74FF000792449C1F816
:102A2000189002214FF000090F469EE724480AF053
:102A3000D5FA194BD3F800C01AE71B4B1C4C1A8867
:102A4000134602EB820676002169C905FCD5686A47
:102A500080B22169CF05F7D5696A091A8E42F8D884
:102A6000002169621149098807911349089151E7CA
:102A7000094BC3F800C062B612480AF0AFFA00F082
:102A8000A5FF012017B0BDE8F08F00BF04000320B0
:102A900020010320004801403C2C0320382C032057
:102AA000392C0320DCAC01080A00032008000320B5
:102AB0000004024200000320402C0320E0A901088A
:102AC00054A9010868AC0108B83F0320B43F0320B3
:102AD000BC3F0320064B07491A88074B6C621B88D2
:102AE00008910793134615E7024A089211E700BFC1
:102AF0000A000320402C0320080003202DE9F04F9A
:102B000095B0FEF7C7FB00224FF0FF33DFF8A4A11A
:102B1000DFF8A4815B49CAF80020C8F800200B60E8
:102B200072B6594B5A62594B1868811C00F0AA8141
:102B3000C31C00F0BE81441C01D191460CE0544BF3
:102B40001A7830230093534B197808ABFEF7EEFB4D
:102B50008146002800F0A9814FF080464E4B4F4A35
:102B60001C884F4B04EB84071B88B2F800B0069317
:102B70004C4B4D481D68DFF810E17F000269D1051C
:102B8000FCD5716A89B20269D205F7D5726A521A08
:102B90009742F8D8026912F4807C08D0DEF824202D
:102BA0005A4500F26481026912F4807CF6D1C6F8BD
:102BB00024C0B9F1000F00F0A0814FF080453B4ADE
:102BC00006990592039208AA049207976A6A8A42B4
:102BD000FCD3354A049F1269214412F4807F17F810
:102BE000012B049700F03881312A40F03881039F8F
:102BF0000CF1010C07F8012BE1450397E6D1069A89
:102C0000C3F8009009FB042100254FF0804240F6F4
:102C10009E7CDAF800001B4E254F3060D8F800008B
:102C2000DFF884E00138C0F30B003E5C039346F00C
:102C300004063E54059800EB0906506A8842FCD30E
:102C4000DEF81000013510F4807FC0F340273846CD
:102C500034D1E14502D84FF030033370D8F800008A
:102C6000134B00251F540130C0F30B00C8F80000BF
:102C7000DAF8000009F10109013021440136CAF8EF
:102C80000000DAE72001032000480140040003208F
:102C9000382C0320392C03200A00032000000320D5
:102CA000080003203C2C032000040242402C032097
:102CB000BC3F0320B83F0320B43F0320E14502D8C6
:102CC0004FF031033370D8F800708F4B40F00200A2
:102CD000D855781CC0F30B00C8F80000DAF80000E3
:102CE000092D00F1010009F10109214406F1010655
:102CF000CAF80000A1D1039B069AC3F8009006937E
:102D0000824B881A5E6A4A465E45DDF8149000F2EE
:102D1000A08040F68E739A4200F29B8000264FF00E
:102D2000804309EB020702F1010C03915A6A8242C7
:102D3000FCD3052E7DD94FF4007275494FF0010E7A
:102D40008A610322039904925A6A8A42FCD3704A28
:102D500003911269D20560D40A46224403923022BC
:102D6000694D3A70D8F80020204405F802E001329D
:102D7000C2F30B02C8F80020DAF800200132CAF8CA
:102D80000020624AD2F824E00CEB0602DE455AD855
:102D90000136102E07F10107C8D15C4B03995B6A1D
:102DA0005B45B6D99146069B4FF08042C3F8009030
:102DB000536A8342FCD3554D6B6A5B4519D84FF07B
:102DC00080434FF0000C4FF000774FF4007604EB97
:102DD00044014F4849002401C3F824C087615A6A5E
:102DE0008A42FCD386615A6AA242FCD36A6A5A4577
:102DF000F2D9B9F57A6F35D20023059A02F8093075
:102E000062B600F0E3FD43480AF0E8F842480AF0F1
:102E1000E5F8002015B0BDE8F08F0A462244039281
:102E20003122394D04993A70D8F800202044A95431
:102E30009DE74FF0007236494FF0000E8A61022282
:102E40000399049280E7314B03995E6A5E457FF6F1
:102E500060AF9146069BA7E7302A3FF4C8AE6546AF
:102E6000079F8BE60023059A82F89F3FC8E71D6005
:102E700062B62A480AF0B2F800F0A8FD012015B0A9
:102E8000BDE8F08F4FF08045224E254C254B26485B
:102E900005966A62254902882488D3F80090B1F823
:102EA00000B0069209FB0421AEE621480AF096F82C
:102EB00052E64FF080421A4B15491C8804EB8400FF
:102EC00040000B69DF05FCD5556AADB20B69DE0524
:102ED000F7D5536A5B1B8342F8D300235362124A2F
:102EE000104B1188114AD3F80090B2F800B0094A8B
:102EF0000691059209FB041186E6064A0699C3F875
:102F00000090059280E600BFBC3F032000480140CE
:102F100000040242402C0320E0A9010868AC01082B
:102F20000A0003203C2C032008000320000003209B
:102F300054A901082DE9F04FB74C95B023680690CD
:102F40000333012B40F2A281FEF7A4F900254FF0D4
:102F5000FF33DFF8F8A2DFF8F8B2B04ACAF8005041
:102F6000CBF80050136072B64FF08042AC4B5D62FC
:102F7000AC4B1D6055622068811C00F0A181C31C10
:102F800000F0A881441C40F090802B462C464FF066
:102F9000804EA54AA5481688A54A06EB86051288E4
:102FA000DFF87C820592A34A6D00B2F80090A24A35
:102FB00004920269D105FCD5DEF8241089B20269B9
:102FC000D205F6D5DEF82420521A9542F7D80269C8
:102FD00012F4807208D0D8F824204A4500F24781C4
:102FE000026912F48072F6D1CEF82420002C00F091
:102FF0008B814FF08047904B059903930DF1200C86
:1030000007957B6A8B42FCD3884B31441B6913F4D0
:10301000807F1CF8013B57D0312B57D1039D0132E3
:1030200005F8013B94420395EBD17E4B1C60059B58
:1030300006FB0433069A002702F1060E40F69E7C3A
:103040004FF08042DAF8001074487C4D0160DBF8E4
:103050000010DFF8D8810139C1F30B01685C40F042
:103060000400685404990819516A9942FCD3D8F8AD
:10307000101011F4807F2CD16445C1F3402102D897
:103080004FF030070770DBF800700134E955013765
:10309000C7F30B07CBF80070DAF8001000270131F6
:1030A00033440130CAF80010DEE730230093644B4C
:1030B0001A78644B197808ABFEF738F904460028F3
:1030C00000F0F8802B4662E7302BA7D01346079D0F
:1030D0006FE7644507F10107C1F3402103D84FF0C2
:1030E000310980F80090DBF8009041F0020105F80A
:1030F000091009F10109C9F30B01CBF80010DAF846
:103100000010BE4501F10101CAF80010334400F17E
:10311000010004F1010101D90C46A5E74FF08047F9
:10312000059A981A7A6A8242FCD34FF0007C4FF0DD
:1031300080473E4AC2F818C07A6A9A42FCD33B4A9A
:10314000126912F4807C18BF4FF0020CDBF80020EB
:1031500018BF312705F802C002F10102C2F30B02C9
:10316000CBF8002040F69E72DAF800C008BF302786
:103170000CF1010C9142CAF800C040F28E8002347A
:10318000284F94423C60304433447AD8049A4FF438
:10319000007E54184FF003094FF08042DFF8B4C0AE
:1031A000224F516A8142FCD3C7F818E0516A994214
:1031B000FCD33969C9054FD44FF030014FF00108F5
:1031C00004F8011FDBF800103044334405F8018097
:1031D0000131C1F30B01CBF80010DAF8001064459F
:1031E00001F10101CAF80010DBD140F69F730D4ACE
:1031F000136040F69F7300220499CA5462B600F02F
:10320000E5FB0D4809F0EAFE0F4809F0E7FE002053
:1032100015B0BDE8F08F00BF04000320200103209B
:10322000004801403C2C03200A0003200004024215
:103230000800032000000320402C0320BC3F032093
:10324000382C0320392C0320E0A90108B83F0320C3
:10325000B43F0320DE3B03204FF0310104F8011F8F
:10326000DBF800103044334405F80190B0E7284AF9
:1032700028481446136009F0B1FE2368B3F57A6F4D
:10328000B9D30023049A82F89F3FB7E7224809F098
:10329000A5FE012015B0BDE8F08F049A0234575402
:1032A0001B4A3044146040F69F72944233447FF4CA
:1032B0006DAF9EE7194809F091FE154B1B6866E655
:1032C0005562174B174A1B881688174A2C460593D8
:1032D0000492AFE6134B15491E8806EB8604640082
:1032E0000B69DF05FCD5506A80B20B69DD05F7D5A7
:1032F000536A1B1AA342F8D30024094B54621B885B
:10330000094ACDE9042395E6014B1C60059B91E633
:103310003C2C032020AD01080CAD010854A9010884
:10332000080003200A000320402C0320000402426E
:10333000984B2DE9F04F1B6893B00333012B40F2FB
:103340001D818246FDF7A6FF72B60023924D934A77
:103350006B626B6AB2F800B05B4580F0D980904C2C
:103360000AF1060A00274FF080418A4B4F621E681F
:103370008C4BB21C1F6000F0D480F31C00F0E28084
:10338000711C00F0CC8030230093874B30461A78B4
:10339000864B197806ABFDF7C9FF8046002800F080
:1033A000C8804FF0804C824B1888824B00EB800E17
:1033B0001B884FEA4E0E04932369DA05FCD5DCF82E
:1033C000242092B22369DB05F6D5DCF824309B1A61
:1033D0007345F7D3236913F4807307D06B6A5B4599
:1033E00000F2C980236913F48073F7D11A46049957
:1033F000CCF82430B8F1000F1DD04FF080476E4B51
:103400000DF11809039305967B6A8B42FCD323695F
:10341000014413F4807F19F8013B21D0312B21D1D5
:10342000039E013206F8013B90450396ECD1DDE99D
:10343000043602FB00314FF0000C4FF080470132A0
:103440007B6A8B42FCD323690CF1010C13F480736B
:1034500002F1010E09D0E24501440AD97246EFE7B4
:10346000302BDDD01746059EA6E79C46014401326D
:10347000E6E74C4B1A604FF08042049BC91A536A2E
:103480008B42FCD34FF000734FF080420144A361A4
:10349000536A8B42FCD34FF40077A7616B6A5B459C
:1034A00036D202367FF45EAF4FF080414FF0000C11
:1034B0004FF000793E4B3A4D1E883E4BDFF8D880E6
:1034C000B3F800E0002472462046C1F824C0C1F8D9
:1034D00024C04B6A9A42FCD82B69013013F48073E4
:1034E00053D0824504F101043244F2D8A2EB0E021B
:1034F0004B6A9A42FCD8C5F8189032444B6A9A42FB
:10350000FCD8AF61D8F824309B45DBD8254B1C6034
:1035100062B600F05BFA002013B0BDE8F08FB84649
:103520003FE7244B4F621988214B3A461888049193
:1035300081E7224809F052FD1A4B1F68174BB3F878
:1035400000B02EE71A4B164A188800EB800C4FEAA1
:103550004C0C1369DF05FCD54F6ABFB21369DB055C
:10356000F7D54B6ADB1B6345F8D30022114B4A6247
:10357000198804915FE70B4B1F60C9E7104809F0F9
:103580002DFD012013B0BDE8F08F18460134324400
:103590009FE700BF04000320004801400000032013
:1035A000000402423C2C0320382C0320392C032039
:1035B0000A00032008000320402C032054A901081E
:1035C0000CAD0108034600B583B008465BBA022281
:1035D0000DF10601ADF8063009F0AAFE03B05DF862
:1035E00004FB00BF8446002310B50C4682B00DF1E9
:1035F000060002226146ADF8063009F099FE012C62
:103600008CBFBDF806009DF8060040BA80B202B03B
:1036100010BD00BF8446002310B50C4682B00DF1EA
:10362000060002226146ADF8063009F081FE012C49
:103630008CBFBDF806009DF8060040BA80B202B00B
:1036400010BD00BF034600B583B008465BBA022236
:103650000DF10601ADF8063009F06AFE03B05DF821
:1036600004FB00BF8446002310B50C4682B00DF168
:10367000060002226146ADF8063009F059FE012C21
:103680008CBFBDF806009DF8060040BA80B202B0BB
:1036900010BD00BF8446002310B50C4682B00DF16A
:1036A000060002226146ADF8063009F041FE012C09
:1036B0008CBFBDF806009DF8060040BA80B202B08B
:1036C00010BD00BF034600B583B008465BBA0222B6
:1036D0000DF10601ADF8063009F02AFE03B05DF8E1
:1036E00004FB00BF8446002310B50C4682B00DF1E8
:1036F000060002226146ADF8063009F019FE012CE1
:103700008CBFBDF806009DF8060040BA80B202B03A
:1037100010BD00BF034600B583B008465BBA022265
:103720000DF10601ADF8063009F002FE03B05DF8B8
:1037300004FB00BF8446002310B50C4682B00DF197
:10374000060002226146ADF8063009F0F1FD012CB9
:103750008CBFBDF806009DF8060040BA80B202B0EA
:1037600010BD00BF8446002310B50C4682B00DF199
:10377000060002226146ADF8063009F0D9FD012CA1
:103780008CBFBDF806009DF8060040BA80B202B0BA
:1037900010BD00BF0870704700787047002300B567
:1037A000012983B0ADF8063003D8184603B05DF8A0
:1037B00004FB014602220DF1060009F0B9FD9DF857
:1037C000060003B05DF804FB00787047087070478E
:1037D000007870478446002310B50C4682B00DF186
:1037E000060002226146ADF8063009F0A1FD012C69
:1037F0008CBFBDF806009DF8060040BA80B202B04A
:1038000010BD00BF034600B583B008465BBA022274
:103810000DF10601ADF8063009F08AFD03B05DF840
:1038200004FB00BF8446002310B50C4682B00DF1A6
:10383000060002226146ADF8063009F079FD012C40
:103840008CBFBDF806009DF8060040BA80B202B0F9
:1038500010BD00BF00787047007870478446002391
:1038600010B50C4682B00DF1060002226146ADF89B
:10387000063009F05DFD012C8CBFBDF806009DF8F7
:10388000060040BA80B202B010BD00BF0078704799
:103890002DE9F04F3C4B8346984283B007D83B4B11
:1038A000984269D94FF028094FF4487E0BE04FF059
:1038B000250940F2EE2E364BB3FBFBFC5FFA8CFC85
:1038C000BCF1190F5DD90120314B013080B2B3FB3F
:1038D000F0FCBCFBFBFC5FFA8CFCBCF1190FF4D8CC
:1038E000B0F5806F42D201236FF000444FF47A7636
:1038F0005A460093274B1F68431C1FFA83FAACF10A
:103900000208B8EB5C0F4FEA5C0120DD0CF1FF3BD5
:103910005FFA8BFBCDF804A006FB01F5B5FBFCF5C7
:10392000BEEB050A48BFA5EB0E0AA2450ADAD1454F
:1039300008DB002554460095ABEB0105EDB2F961BB
:1039400078613D6201314145E6DBDDF804A01049B4
:1039500098B2B1FBFAFCBCFBF2FCB0F5806F0AF147
:10396000010A5FFA8CFC03D0431CC8E701230093D3
:10397000009803B0BDE8F08F4FF02B0940F26B3E8A
:1039800099E70120AFE700BF00350C0020A1070038
:10399000005A6202D83C032038B50C46064D074950
:1039A000074B0A602860074901201C6012F09AFA50
:1039B000054B186038BD00BFD83C0320D03C032025
:1039C000D43C0320E83B0320383C032030B53F4C77
:1039D00083B020680AF0D8FD20680AF01DFC00289A
:1039E00051D100223A4D40213A482A71EA602A61B9
:1039F0006A61AA61AA60EA6185F820200BF01AFDCD
:103A0000206805F124010AF0F1FC00285BD132495D
:103A100020680AF0EBFC002852D100230222206823
:103A2000114600930AF00EFD002846D120680AF0E6
:103A30004FFD00283ED10022012120680AF006FF38
:103A4000A8BB0022062120680AF000FF60BB072205
:103A50004FF4F05120680AF0F9FE10BB07228021D4
:103A600020680AF0F3FEC8B900221C4920680AF059
:103A7000EDFE80B900224FF4602120680AF0E6FED6
:103A800020B903B030BDFDF76DFBAAE703B0BDE878
:103A90003040FDF767BBFDF765FBEBE7FDF762FB29
:103AA000E2E7FDF75FFBD9E7FDF75CFBCFE7FDF74A
:103AB00059FBC6E7FDF756FBBDE7FDF753FBB5E73E
:103AC000FDF750FBA9E7FDF74DFBA0E7D83C03202D
:103AD00010000320000402424C000320004071004B
:103AE000014B18680AF050BDD83C0320082824D8A0
:103AF000DFE800F0080C1014171A1D200500144808
:103B0000FFF7C6BE42F21070FFF7C2BE44F6206057
:103B1000FFF7BEBE4CF25030FFF7BABE0D48FFF7BC
:103B2000B7BE0D48FFF7B4BE0C48FFF7B1BE0C4856
:103B3000FFF7AEBE0B48FFF7ABBE0B4AA0F51C5318
:103B4000103B934201D901207047FFF7A1BE00BF8F
:103B500040420F00A086010048E8010090D0030019
:103B600020A1070000350C00301B0F000346054A5A
:103B70001978002051615978D16199781162DB7808
:103B800093617047482B03200246024B00209A6144
:103B9000704700BF482B0320034600B5074A93F83F
:103BA00001E093F800C082F810E005499B7881F8A5
:103BB00000C0537400205DF804FB00BF482B0320B5
:103BC000680703202DE9F0470546C0680F4609F055
:103BD000A3FBAB68B3F1005F3CD00646824600F120
:103BE0002409254C4FF0FF31206812F085FA012896
:103BF000F8D1DFF89080D8F8000012F06DFC48454D
:103C000015D202251D4A13792B4313710023206816
:103C10001A46194612F0CAF8002319490222096807
:103C20000868194613F0FCFD2846BDE8F0872946D0
:103C30004FF0FF332422D8F8000012F06BFC054649
:103C400086B94D450CD00D4A0125137943F0080380
:103C50001371DBE74FF0000A4FF024095646C0E726
:103C60000025D3E7524639464FF0FF33D8F800001D
:103C700012F050FC0544E4E7383C03201000032018
:103C8000D43C0320E03B032030B401220024102068
:103C90000A4B04211B684FF440751C82C3E90520C0
:103CA000DC6018623F240F209A74C3E90125DC61AF
:103CB000C3E9092130BC1963D8627047D83C03209E
:103CC00000232DE9F0430C4683B0C9070546019354
:103CD00016D4A20707D502212D4A137943F0010318
:103CE00013712B681965630735D4019B2BB14FF015
:103CF000E0234FF08052C3F8042D03B0BDE8F083F9
:103D0000DFF89880224F42464021224B0AF0B4FC53
:103D10007B69D8F80C0001337B6109F0FDFADFF80C
:103D200080900646D9F8000012F0D6FB06F1280371
:103D3000984223D341462822D9F8000001AB12F063
:103D40006DFC002EC5D03246D9F80000114901ABF8
:103D500012F064FCBDE704240D4B0F499A69096811
:103D600001329A611A7942F008021A712B680868C8
:103D70000DEB04011C6513F03DFEB6E7064ABB6976
:103D800012680133106801A9BB6113F033FEA0E78C
:103D900010000320903C0320D03C0320683C03200B
:103DA000E43B032010B500240A4A0B491369096853
:103DB00082B00868013301A91361019413F01AFE5F
:103DC000019B2BB14FF0E0234FF08052C3F8042D3C
:103DD00002B010BD10000320D43C032010B5002415
:103DE0000A4A0B49D369096882B00868013301A9FE
:103DF000D361019413F0FEFD019B2BB14FF0E02342
:103E00004FF08052C3F8042D02B010BD1000032003
:103E1000D03C032038B50C46104D29460AF0CCFCA6
:103E2000A10303D5EB68A3B90D4A1360620309D55A
:103E30002B690B4A012B13790CBF43F0040303F0E9
:103E4000FB031371230303D50122054B83F82020C4
:103E500038BD4FF00042024B1A60E7E73C3C0320BC
:103E600010000320F0B500250B7885B007460295B9
:103E70000395CBB10C460DF1FF3608E02046D5B2D4
:103E800009F0ECF914F8023F06F8010F23B163784A
:103E90006A1C0BB3072DF1D18DF808502A466946EC
:103EA0000DF1090015F07FF900230E4C0820C4E93C
:103EB0000533C4E90133276009F034FA08220346C8
:103EC0000DEB02010848E36009F032FA204606498A
:103ED000FFF778FE05B0F0BD8DF80850002DDDD15C
:103EE000E2E700BFE83C0320DC3C03202DE9F0437F
:103EF00089B006460D4607F0F7FA012800F08981DF
:103F000042F2020300249D42745500F2B480002D59
:103F100000F08681701E691E84460346314405E028
:103F20000A2A1CBF325501348B4209D013F8012FE5
:103F3000082AF5D1002CF7D08B4204F1FF34F5D1DB
:103F400000218C42315540F370810A4603191CF858
:103F5000010F202800F0858082B99C4501F1010104
:103F60000CF101000CD09CF80140202C7BD0984231
:103F700006D01CF8022F203A18BF01229C45E6D13A
:103F80000C463046AC4914F0C9FF0546002800F045
:103F90009E80AA49FCF754F9002876D1012C40F202
:103FA000DA80A549002014F0B9FFA5490446FCF7C2
:103FB00047F9002800F08F802046A249FCF740F91D
:103FC000002800F0BB8120469F49FCF739F9002802
:103FD00040F02D819D4809F001F89D4808F0FEFF52
:103FE0009A4808F0FBFF9B4808F0F8FF9A4808F051
:103FF000F5FF984808F0F2FF984808F0EFFF98485E
:1040000008F0ECFF934808F0E9FF964808F0E6FF57
:10401000954808F0E3FF8F4808F0E0FF934808F068
:10402000DDFF934808F0DAFF8A4808F0D7FF91488F
:1040300008F0D4FF904808F0D1FF904808F0CEFF78
:104040008F4808F0CBFF8F4808F0C8FF8E4808F073
:10405000C5FF8E4808F0C2FF8D4808F0BFFF8D48AD
:104060006DE000228AE798428AD01CF8020F2028CF
:104070007FF473AF82E7884808F0B0FF874808F004
:10408000ADFF002009B0BDE8F08328468449FCF765
:10409000D7F8002882D028468249FCF7D1F80028BA
:1040A0003FF47CAF28468049FCF7CAF800283FF46B
:1040B00075AF28466449FCF7C3F8002840F08581B5
:1040C000022C00F09E81794808F088FFD6E77848F6
:1040D00008F084FFD2E75D4808F080FF5C4808F0F4
:1040E0007DFF5A4808F07AFF5A4808F077FF714878
:1040F00008F074FF574808F071FF584808F06EFF49
:104100006D4808F06BFF534808F068FF554808F009
:1041100065FF6A4808F062FF4E4808F05FFF5348A9
:1041200008F05CFF664808F059FF4A4808F056FF5F
:10413000504808F053FF634808F050FF624808F009
:104140004DFF444808F04AFF404808F047FF5F48E9
:1041500008F044FF92E73D4808F040FF3C4808F073
:104160003DFF3A4808F03AFF3A4808F037FF584810
:1041700008F034FF374808F031FF564808F02EFFAA
:10418000554808F02BFF554808F028FF544808F020
:1041900025FF544808F022FF534808F01FFF5348FA
:1041A00008F01CFF524808F019FF524808F016FFAB
:1041B000514808F013FF514808F010FF504808F02C
:1041C0000DFF504808F00AFF4F4808F007FF4F481E
:1041D00008F004FF4E4808F001FF4E4808F0FEFECC
:1041E0004D4808F0FBFE4D4808F0F8FE4C4808F03A
:1041F000F5FE4C4808F0F2FE4B4808F0EFFE15487B
:1042000008F0ECFE494808F0E9FE104808F0E6FE28
:1042100034E70421464808F073FE07F071F930E7EF
:104220003570444808F0DAFE28E7FAD0A8E642489C
:1042300008F0D4FE8BE700BF54AD010884AD01083F
:10424000A0AD010840AF0108C8B00108A8AD010841
:10425000E8AD0108E0A90108D0B0010824AE0108CA
:10426000E4B0010868AE010820B101088CAE010875
:1042700034B10108E0AE010880B10108A0B1010825
:10428000B4B10108D4B10108E8B1010808B20108CD
:104290001CB2010848B201083CAD010860CF01081A
:1042A0008CAD010894AD01089CAD010844BA010829
:1042B00058AD010814AE010834AE010870AE010813
:1042C00098AE0108ECAE010830AF010884B20108D5
:1042D000D8B201087CB3010888B30108FCB3010817
:1042E00084B40108B0B4010800B5010850B5010854
:1042F000A0B50108F8B5010864B601088CB601083C
:10430000B8B6010818B7010880B70108CCB7010892
:1043100010B801083CB8010894B80108ECB80108CD
:1043200038B901086CB90108B8B9010824BA010804
:1043300034AD010850AD01085CB20108874808F0AF
:104340004DFE874808F04AFE844808F047FE85483D
:1043500008F044FE844808F041FE824808F03EFE22
:10436000824808F03BFE824808F038FE7D4808F09D
:1043700035FE804808F032FE7F4808F02FFE79486D
:1043800008F02CFE7D4808F029FE7D4808F026FE46
:10439000744808F023FE7B4808F020FE7A4808F0B5
:1043A0001DFE7A4808F01AFE794808F017FE794891
:1043B00008F014FE784808F011FE784808F00EFE68
:1043C000774808F00BFE7748B9E628467649FBF7B0
:1043D00037FF28B9022C6CD0744808F0FFFD4DE679
:1043E00028467349FBF72CFF002851D1012C00F01F
:1043F0007581A31E012B40F2FB806E4808F0EEFD94
:104400003CE66D4914F08AFD03780446002B3FF426
:1044100035AE051D413B232B13D8DFE803F0352DC6
:10442000251D12121212121212121212121212124E
:104430001212121212121212121212121212352D1E
:10444000251D5E4808F0CAFD14F8013F002B3FF41B
:1044500015AEA542DED111E6594808F0BFFD002196
:10446000442003F0C7FDEFE7564808F0B7FD0021F0
:10447000432003F0BFFDE7E7534808F0AFFD0021FC
:10448000422003F0B7FDDFE7504808F0A7FDDBE767
:1044900028464F49FBF7D4FE002851D1012C00F0EB
:1044A0002581A31E012B40F2D8804A4808F096FDD2
:1044B000E4E5414914F032FD03780446002B3FF453
:1044C000DDAD051D413B232B13D8DFE803F0352D6F
:1044D000251D12121212121212121212121212129E
:1044E0001212121212121212121212121212352D6E
:1044F000251D324808F072FD14F8013F002B3FF4EF
:10450000BDADAC42DED1B9E5334808F067FD01210D
:10451000442003F06FFDEFE7304808F05FFD012114
:10452000432003F067FDE7E72D4808F057FD012120
:10453000422003F05FFDDFE72A4808F04FFDDBE78C
:1045400028462949FBF77CFE002840F0DC80032C3C
:1045500000F0FA80254808F041FD8FE5A8AD01087C
:10456000E8AD0108E0A9010848AF010824AE010840
:104570005CAF010868AE010898AF01088CAE010875
:10458000ACAF0108E0AE0108F8AF010818B00108AF
:1045900028B0010848B0010858B0010878B00108F7
:1045A00088B00108B4B0010840AF010874BB01082D
:1045B0004CBC01086CBC010854AD01084CBB01089F
:1045C00028BB010804BB0108E0BA010894BA01083D
:1045D0001CBD010840BD010828BC010804BC01083D
:1045E000E0BB0108C4BB0108DCBD0108E0BD010857
:1045F000B149002014F092FC08F056FEB0F5006FAF
:1046000068D2AE4D022C28604FF0000000F094807C
:10461000A94914F083FC064608F096FEC10755D45C
:10462000102853D888B1431EC3F34E04B71CDFF8DB
:10463000208307EB4407304608F010FE0236BE42E6
:1046400008F8010FF7D1631CD8B208F06BFE0346DF
:104650009B48EB6008F0C2FC10E59749002014F07D
:104660005DFC08F021FEB0F5006F80F0A081954F51
:10467000022C386000F0918111F020FA282111F00D
:104680001FFA8D49002014F049FC064608F05CFE34
:10469000C20704461AD4102818D83546DFF8B48269
:1046A00005E0284608F0DAFD023508F8010BAB1BDF
:1046B0009BB29C42F5D8601CC0F3470008F032FE64
:1046C00003468148FB6008F089FCD7E47F4808F086
:1046D00085FCD3E47E4808F081FCCFE44FF0FF3244
:1046E000764B7C481A6008F079FCC7E44FF0FF3243
:1046F000744B79481A6008F071FC11F0DFF9182149
:1047000011F0DEF9BAE428467449FBF799FD28B99F
:10471000032C67D0724808F061FCAFE42846714969
:10472000FBF78EFD002840F06981022C00F04481E7
:104730006D4808F053FCA1E408F0F4FD03466B4813
:10474000EB6008F04BFC99E45B49002014F0E6FBB9
:1047500059490546002014F0E1FB00210A2214F01B
:10476000A3FA634904462846FBF76AFD002800F0D7
:104770000E8128465F49FBF763FD002800F00181A8
:1047800028465D49FBF75CFD002800F0F4802846D0
:104790005A49FBF755FD002800F0E78028465849A4
:1047A000FBF74EFD002800F0D78028465549FBF75F
:1047B00047FD002877D028465349FBF741FD0028E4
:1047C00068D028465149FBF73BFD00285ED1002CFC
:1047D00041D14F4808F002FC02224E4BDA60FFF74D
:1047E000F5F84BE4344914F099FB4B490446FBF7C8
:1047F00027FD002847D020464849FBF721FD002827
:104800003ED020464649FBF71BFD002835D0204608
:104810004449FBF715FD68B320464349FBF710FDFB
:1048200020BB424808F0DAFB00242349002014F0A2
:1048300075FB054608F088FD421E92B20D2A03461C
:1048400010D8DB070ED420462946FFF70BFB38486B
:1048500008F0C4FB12E4374808F0C0FB00222D4BDF
:10486000DA60BCE7344808F0B9FB07E4334808F0E5
:10487000B5FBD9E740F2E374D7E740F2E274D4E73E
:1048800040F2E174D1E740F2DF74CEE72C4808F043
:10489000A5FBA4E7003C18BF01242A4B2A481C7042
:1048A00008F09CFB9BE7003C18BF0124194B2748EC
:1048B0005C7408F093FB92E754AD0108403D03207F
:1048C000F0BC0108143D0320B4BD0108D8BC0108A8
:1048D00094BC010854BC010824BD010840BF010874
:1048E00044BF01082CC0010834C00108B8BC01084D
:1048F00008AB010814BE010830BE01084CBE010817
:1049000064BE010898BE0108C4BE0108F0BE0108DB
:10491000F4BE0108482B032080BF010884BF0108B2
:1049200088BF01088CBF010890BF010894BF01082F
:1049300018C0010810BF0108ECBF0108C8BF01087A
:1049400028BF010868070320D0BE0108A8BE0108DF
:10495000373D03200C3D0320003C18BF0124964B3B
:1049600096481C7408F03AFB39E7934B94489C61D5
:1049700008F034FB33E7904B92481C6208F02EFBA2
:104980002DE78D4B9048DC6108F028FB27E78A4B28
:104990008E485C6108F022FB21E7002008F0C2FC91
:1049A00003468B48FB6008F019FBFFF767BB89489B
:1049B00008F014FBFFF762BB874914F0AFFA451EFD
:1049C000041D15F8012FA2F12A03002A3FF456AB6B
:1049D000A5423FF453AB1A2B00F2C480DFE803F08A
:1049E000B9C2C2C2C2C2C2C2C2C2C2C2C2C2C2C2B0
:1049F000C2C2C2C2C2C2C2B5AC241B00284677499B
:104A0000FBF71EFC00283AD1022C16D0744808F09F
:104A1000E5FAFFF733BB734808F0E0FA40F2E370C1
:104A20007149FFF71FFACCE7704808F0D7FA40F257
:104A3000E2706D49FFF716FAC3E7674914F06EFAA2
:104A4000451E041D15F8012FA2F12A03002A3FF488
:104A500015ABA5423FF412AB1A2B00F29080DFE8B1
:104A600003F0858E8E8E8E8E8E8E8E8E8E8E8E8E98
:104A70008E8E8E8E8E8E8E8E8E675E251C002846C4
:104A80005B49FBF7DDFB064600283AD1012C16D026
:104A9000584808F0A3FAFFF7F1BA574808F09EFA11
:104AA00040F2E3705549FFF7DDF9CBE7544808F0D1
:104AB00095FA40F2E2705149FFF7D4F9C2E746494E
:104AC00014F02CFA4F4808F089FA304603F0CCFA7B
:104AD000322011F007F82146422003F08BFA06F04D
:104AE000B5FD10F0FFFF2146432003F083FA06F0E6
:104AF000ADFD10F0F7FF2146442003F07BFAFFF7ED
:104B0000BDBA28464049FBF79BFB002840F08C804B
:104B1000022C38D03D4808F061FAFFF7AFBA3C48A4
:104B200008F05CFA40F2E1703449FFF79BF989E73D
:104B3000384808F053FA85E7374808F04FFA40F252
:104B4000E1702949FFF78EF93BE7324808F046FA51
:104B500037E7324808F042FA40F2DF702249FFF7A7
:104B600081F92EE72E4808F039FA2AE72D4808F097
:104B700035FA40F2DF702149FFF774F962E72848FF
:104B800008F02CFA5EE7144914F0C8F9451E041D1C
:104B900015F8012FA2F14103002A3FF46FAAA542A4
:104BA0003FF46CAA032B00F26C83DFE813F01C02C5
:104BB00013020A025F0000BF482B032070BE0108E9
:104BC00050BE010838BE01081CBE0108FCBD01082A
:104BD00094BD010868BD010854AD0108E4C0010896
:104BE000ECC00108D0C0010874C00108BCC00108B5
:104BF00098C10108A4C1010878C101082CC10108AD
:104C000058C10108CCC1010828C2010834C20108FA
:104C100038C1010880C00108A8C0010850C00108BF
:104C2000C8BF010804C101082846A449FBF708FBD6
:104C3000002800F08B812846A149FBF701FB0028E2
:104C400000F0848128469F49FBF7FAFA002800F01B
:104C5000318128469C49FBF7F3FA00284AD1022CFF
:104C60000DD09A4808F0BAF9FFF708BA984808F04A
:104C7000B5F940F2E3709749FFF7F4F888E79649F1
:104C8000002014F04BF995490446FBF7D9FA0028A7
:104C900000F0088120469249FBF7D2FA002800F084
:104CA000F98020468F49FBF7CBFA002800F072828A
:104CB00020468D49FBF7C4FA002800F063822046A5
:104CC0008A49FBF7BDFA002800F054822046884943
:104CD000FBF7B6FA002800F0458220468549FBF72D
:104CE000AFFA80BB072005F0DBFA834808F076F9BD
:104CF000FFF7C4B928468149FBF7A2FA002800F063
:104D00008A8028467E49FBF79BFA002800F08380C2
:104D100028467C49FBF794FA00287CD028467A493B
:104D2000FBF78EFA002876D028467849FBF788FAF8
:104D300000285ED1012C21D0022C09D9744808F03A
:104D40004DF9FFF79BB9734808F048F9FFF796B99A
:104D5000614914F0E3F8451EC41C15F8012FA2F1B7
:104D60004103002A3FF48AA9A5423FF487A9032BF7
:104D700000F28382DFE803F0392A1B0C664808F052
:104D80002DF9C82010F0AEFE08F0D0FFFFF776B97D
:104D9000624808F023F90021442003F02BF9322067
:104DA00010F0A0FE0121442003F024F9D5E75C486F
:104DB00008F014F90021432003F01CF9322010F010
:104DC00091FE0121432003F015F9C6E7554808F08C
:104DD00005F90021422003F00DF9322010F082FE87
:104DE0000121422003F006F9B7E74F4808F0F6F832
:104DF000B3E728464D49FBF723FA002840D0284660
:104E00004B49FBF71DFA38BB022C07D0494808F084
:104E1000E5F8FFF733B90120FFF734B92E4914F054
:104E20007DF82E490546FBF70BFA002800F0C281F9
:104E300028462B49FBF704FA002800F0B3812846E6
:104E40002849FBF7FDF900BB032004F04BFF3A486B
:104E500008F0C4F8FFF712B928463849FBF7F0F913
:104E6000002840F0B48101F0FBF8002800F0AA818E
:104E7000334808F0B3F8012001F002F9FFF7FEB85B
:104E8000304808F0ABF8FFF7F9B82F4808F0A6F85B
:104E9000FFF7F4B8022005F003FA174808F09EF86F
:104EA000FFF7ECB8012005F0FBF9134808F096F87D
:104EB000FFF7E4B806F024FBFFF7E0B8E8C201080A
:104EC000ECC2010898CB0108A0AD0108A0CB0108F5
:104ED000A4C2010874C2010854AD010818BE01083B
:104EE000FCCB010800CC010804CC010808CC010867
:104EF0000CCC010810CC0108F0CB010844CC01080F
:104F000048CC010850CC010858CC010860CC0108FD
:104F1000B8CC010814CC010868CC0108B0CD010858
:104F20009CCD010888CD01083CCD0108C4CD010805
:104F300048CE010850CE010898CE0108DCCE010809
:104F4000E4CE0108CCCD0108ACCE0108012C40F222
:104F50005C810020CD4913F0E1FF054600283FF4B5
:104F60008DA8CB49FBF76CF9002800F04981284651
:104F7000C849FBF765F9002800F03E812846C6497C
:104F8000FBF75EF9002800F02D812846C349FBF7A6
:104F900057F90646002800F090802846C049FBF7E4
:104FA0004FF9002800F082802846BE49FBF748F9F7
:104FB000064678BB032C1AD0BB4808F00FF8FFF761
:104FC0005DB8BA4808F00AF840F2E270B849FEF756
:104FD00049FFDDE5B74808F001F840F2E170B44957
:104FE000FEF740FFD4E5B44807F0F8FFD0E5A74945
:104FF00013F094FF0A216A468DF8006008F0DAF990
:105000009DF800300446012B10D0AC4807F0E6FFB5
:10501000FFF734B82846AA49FBF712F948BB032C1E
:105020000FD0A84807F0DAFFFFF728B8A64807F026
:10503000D5FFE0B2FEF77CF9A44807F0CFFFFFF7F9
:105040001DB89249002013F069FF00230A216A4627
:105050008DF8003008F0AEF99DF800300446012BC1
:10506000D3D1994807F0BAFFE0B2FDF763FFFFF72D
:1050700005B828469649FBF7E3F8002800F0EF80D2
:1050800028469449FBF7DCF8002800F0E180284628
:105090009149FBF7D5F8002840F0C780042C00F0B8
:1050A000B9808E4807F09AFFFEF7E8BF8C4807F0FA
:1050B00095FFFDF749FAFEF7E1BF8A4807F08EFF3A
:1050C000FDF79AF84FF47A730446B0FBF3F06946A3
:1050D00003FB104408F09CF90A2103462027B4FB87
:1050E000F1F24FF02E09642503EB0708E84408F8B5
:1050F000209CB2FBF1F8B4FBF5F54FF0250E4FF014
:105100000D0C01FB124401FB18220DEB0708591C82
:1051100058FA81F1303501F8205C991C303258FA88
:1051200081F101F8202CDA1C58FA82F2303402F8AE
:10513000204C1A1D58FA82F202F8207C5A1D58FAA7
:1051400082F202F820EC9A1D073358FA82F258FADC
:1051500083F302F820CC684603F8206C07F03EFF8A
:10516000FEF78CBF062005F09BF85F4807F036FF7E
:10517000FEF784BF052005F093F85B4807F02EFF8B
:10518000FEF77CBF042005F08BF8574807F026FF98
:10519000FEF774BF032005F083F8534807F01EFFA5
:1051A000FEF76CBF204604F09DFD504807F016FF47
:1051B000FEF764BF012004F095FD4D4807F00EFF97
:1051C000FEF75CBF4B4807F009FFFEF757BF4A48A0
:1051D00007F004FF284607F001FF484807F0FEFEED
:1051E000FEF74CBF464807F0F9FEFCF7ABFF454819
:1051F00007F0F4FEFEF742BFFDF71EF9FEF73EBFD3
:10520000414807F0EBFEFEF739BF404807F0E6FEE5
:10521000FEF734BF1D4913F081FEFCF7D3FD68B9DA
:105220002A4807F0DBFEFEF729BF28463849FBF77E
:1052300007F840B9FCF7F2FEFEF720BF354807F04B
:10524000CDFEFEF71BBF344807F0C8FEFEF716BFC1
:10525000324807F0C3FEFDF751FCFEF70FBF3048A0
:1052600007F0BCFE032C7FF41CAF0849002013F0AC
:1052700055FEFDF7B5FAFEF701BF2A4807F0AEFE6E
:105280006BE5284807F0AAFE82E400BF54AD010890
:1052900084AD0108F8C9010800CA010818CA01084C
:1052A00038CA010858CA010860CA010880C201084A
:1052B00074C2010850C2010880C0010898CA0108E0
:1052C000ACCA0108B8CA010884CA010890CA01081A
:1052D000E0CA010814CB010838CB0108F4CA010860
:1052E00040CA010820CA0108F0CB010884CE010899
:1052F00070CE0108F4CE010808CF01081CCF0108C8
:1053000004CA010810CA010830C30108F4C2010828
:1053100058CB01083CCB010860CB01081CCB01082D
:10532000E8CA0108C8C201082DE9F04FA1B005463E
:105330000E4606F0D9F8012800F086812B78A3F1FB
:105340003002012A19D90022904FCDE90B22797938
:10535000012900F0FD80DFF83882D8F80020002411
:10536000752BCDE90D440A9240F08A80132E00F08F
:105370007281002021B0BDE8F08F4FF400116A78EF
:105380000C91302A00F0F0804FF480107F4F0B908A
:10539000797901296AD000237D49722A0968CDE90B
:1053A0000D330A9105F1010900F0FA8000F2F68050
:1053B000522A02D0542A40F0E38001242246B71A30
:1053C000092F40F2DD804FF080434FF0000A601C4F
:1053D00028440793CDF820A007F076FF069004F14B
:1053E0000900284407F034FF99F800308046522B1A
:1053F000099003D14FF00053D0460893404607F080
:105400008BFF0530B7EB400F40F0BA800A34013E05
:10541000B44238BF00270DD2281907F01FFF02340D
:10542000E4B220AB53FA87F3B44203F8400C07F11F
:105430000107F1D307F09AFD10AC0121554806AEE3
:1054400007F0AAFD21463046FEF7BCFB022840F0DB
:10545000EF8007F097FD02E00A2010F043FB2146A1
:105460003046FEF7AFFB0228F6D0E3E0721EA95CDF
:10547000692900F0328400220124CDE90D220A922C
:10548000295D2246722905EB040900F08B8068D85B
:10549000522994D0542992D0233B562B70D8DFE860
:1054A00013F02A016F00EB0007026F006F006F001E
:1054B0006F006F006F006F006F006F006F006F0074
:1054C0006F006F006F006F006F006F006F006F0064
:1054D0006F006F006F006F006F00DE009F026F00B3
:1054E0006F00950274026702E202D102DE00CD0273
:1054F000C5020103F3021903AC02BB036F006F0086
:105500006F0099036F006F00EF037503D4038E03E0
:10551000CA036F006F006F00E3006F006F00160298
:10552000E600810367036F0057036F00DE004C0342
:1055300044032C03FC01E901D3016F0081015901EF
:105540006F0043016F006F00390132013502240200
:10555000721EA95C69290ABF164600224FF000425C
:10556000FDE6742998D11DE00022084F0B9279794D
:1055700001293FF47BAF064B0D921B680E920A93F4
:105580000121054807F0BCFCF3E600BF6C010320D5
:1055900010000320E0A90108B8A80108742AEFD17F
:1055A00001242246B71A042FEAD94FF0000A601CE2
:1055B0002844CDE907AA07F077FE0690201D28446D
:1055C00007F046FE99F800308046722B099003D10F
:1055D0004FF00053D0460893404607F09DFE052348
:1055E00000B203EB40039F42CAD10534013EA642FC
:1055F00088BF00270DD9281907F030FE0234E4B225
:1056000020AB53FA87F3B44203F8400C07F10107CB
:10561000F1D307F0ABFC10AC0121C54806AE07F092
:10562000BBFC21463046FEF7CDFA022800F05F832E
:1056300007F0A8FC4046069D07F06EFE2246014694
:10564000284601F0EDFC94E60421BA4807F058FC26
:1056500005F056FF8DE6284601F084FE89E6162106
:10566000B54807F04DFC84E6B44807F0B7FC0121CB
:10567000AF4807F045FC7CE6032E81D96F1C384605
:1056800007F012FE043E4FEA5609C6F34F06B04239
:1056900004467FF475AF05F1040841461FFA89F20C
:1056A00010AEA74807F0BAFD11F08CFB2246A54BBF
:1056B000A349009606F002FC3946BDF8400007F009
:1056C00007FDBDF8402040469E4907F0A9FC0D2289
:1056D000BDF840302846023305F813205B00591C02
:1056E00007F00EFC11F06EFB2246964B9449009693
:1056F00007F09EFB3DE6012E7FF442AF924807F093
:105700006DFC304636E6FEF761F90121884807F066
:10571000F7FB2EE6022E7FF433AF6B78302B0CBFF5
:10572000002301237B71A2E7052E7FF429AF012618
:10573000864CA819666107F091FD0346E81CE361F9
:1057400007F08CFD2062FEF741F93146784807F0FA
:10575000D7FB0EE67E4807F041FC40217B4809F06C
:1057600065F807F051FC7B4C784809F069F807F0C0
:105770004BFC206810F0B0FE07F046FC2068764C29
:1057800010F0BAFE07F040FC206810F0A5FE07F00C
:105790003BFC206810F0B0FE07F036FC644807F0D0
:1057A0001DFCE6E5022E7FF4EBAE6B78423B022B4C
:1057B0003FF6E6AE00234FF400124FF48011BB70A9
:1057C000CDE90B12099340F281123B7000234FF098
:1057D0001409CDE90623DFF8888110AC06AE00205D
:1057E00002F042FCFEF750FAFEF7F0F8642010F0E9
:1057F00079F96878012102F01BFC6878012102F038
:10580000F9FB484610F06EF902E00A2010F06AF940
:1058100021463046FEF7D6F90228F6D0322010F0A5
:1058200061F9D8F8143009F1140913B9B9F5D27F28
:10583000D5D1D8F81430002B3FF4A2AE01213C485A
:10584000397007F05DFB94E5012E7FF499AE314687
:10585000374807F055FB414801F02CFE002002F0CC
:1058600003FC002002F01AFC642010F03BF908F061
:105870005DFA7EE5042E00F0E782092E7FF480AE0B
:10588000681C07F021FD0346354A23F0004301213F
:105890002748136507F034FB6BE50121244807F026
:1058A0002FFB0123294A3B70D360FEF78FF860E598
:1058B000062E7FF465AE05222A49681C13F003FB0F
:1058C000002840F0B182284807F088FBCFE6022E7E
:1058D0007FF456AE6B781D4A303B18BF012301217F
:1058E0001348137407F00CFB43E5032E7FF448AE16
:1058F0006878A0F14203022B3FF642AEAB78302B22
:105900000CBF0021012102F075FBB0E67822174B95
:105910008DF84020D3F890050DF1410107F0A2FB6E
:105920000D230A2110A88DF8493007F0E9FA20E587
:10593000E0A9010834AD0108C4CF010894D00108E2
:10594000B4660120B056012094CF0108482B0320F3
:10595000DCCF0108E43B0320E03B0320E4CF010857
:1059600010000320A8D00108B0D001080000FA0BF5
:1059700010A9BA4808F020FF02A9B84808F044FF6F
:1059800010A902A801F04EFDF3E4B54807F0DCFCD5
:10599000431C9E427FF4F4ADB14807F0D5FCB049FA
:1059A0000246681C13F0A7FA00287FF4E9AD012134
:1059B000AC4807F0A5FAC82010F094F803F010F9ED
:1059C000002840F0768203F057F9D9E5012E7FF4E4
:1059D000D7AD00233146A3483B7007F091FAC8E4E5
:1059E000022E7FF4CDAD6B78302B00F05582312B39
:1059F0007FF43DAE01233B7139E64E239A4D9B4E19
:105A00000DF141048DF8403015F8040B214607F0E4
:105A100097FBB54204F10204F6D1192110A807F052
:105A20006FFA01218F4807F06BFAA2E44A238DF840
:105A3000403005F019FE0DF141016FE78C4801F08F
:105A4000D1FC96E4032E00F01B82052E7FF498AD66
:105A5000681C07F003FC0346804CE81CA36107F0B8
:105A6000FDFBA06203E64623814A0DF14101107956
:105A70008DF8403007F064FB0D23042110A88DF849
:105A8000433007F03DFA74E4012E7FF479AD3146DE
:105A9000744807F035FA0222704B3E70DA60FDF769
:105AA00095FF66E4072E7FF46BAD681C07F0D6FB0C
:105AB00003466A4CE81C636207F0D0FB0346681D8E
:105AC000E36207F0CBFB034601216648236307F03E
:105AD00017FA4EE4042E00F0C581092E7FF450AD74
