:020000040800F2
:10000000000004201DEB0008D9E80008DDE8000826
:10001000E1E80008E5E80008E9E800086DEB000801
:100020000000000000000000000000000192010834
:10003000EDE8000800000000919101082169010825
:100040006DEB00086DEB00086DEB00086DEB000830
:100050006DEB00086DEB00086DEB00086DEB000820
:100060006DEB00086DEB00086DEB00086DEB000810
:100070006DEB00086DEB00086DEB00086DEB000800
:100080006DEB00086DEB00086DEB00086DEB0008F0
:100090006DEB00086DEB00086DEB00086DEB0008E0
:1000A0006DEB00086DEB00086DEB00086DEB0008D0
:1000B0006DEB0008F1E80008FDE800086DEB0008B2
:1000C0006DEB00086DEB00086DEB00086DEB0008B0
:1000D0006DEB00086DEB00086DEB000809E9000806
:1000E00015E900086DEB000821E900086DEB000838
:1000F0006DEB00086DEB00086DEB00086DEB000880
:100100006DEB00082DE9000839E900086DEB0008E7
:100110006DEB00086DEB00086DEB00086DEB00085F
:100120006DEB000845E9000851E900086DEB000897
:100130005DE900086DEB00086DEB00086DEB000851
:100140006DEB00086DEB000869E900086DEB000835
:100150006DEB00086DEB00086DEB00086DEB00081F
:100160006DEB000875E900086DEB00086DEB000809
:100170006DEB0008000000006DEB000800000000BF
:1001800081E900086DEB00086DEB00086DEB0008DD
:100190006DEB00086DEB00086DEB00086DEB0008DF
:1001A0006DEB00086DEB00086DEB00086DEB0008CF
:1001B0006DEB0008000000008DE900086DEB000801
:1001C0006DEB0008000000006DEB00086DEB00080F
:1001D0006DEB00086DEB00086DEB00086DEB00089F
:1001E0006DEB00086DEB00086DEB00086DEB00088F
:0401F000000000000B
:1002000010B5054C237833B9044B13B10448AFF350
:1002100000800123237010BD500703200000000060
:10022000C8AD010808B5034B1BB103490348AFF340
:10023000008008BD0000000054070320C8AD01087D
:1002400010F8012B11F8013B012A28BF9A42F7D080
:10025000D01A7047034613F8012B002AFBD1181A55
:1002600001387047704700BF2DE9F041234C244D01
:10027000244E254FDFF8948082B04FF0FF330222E6
:1002800020680DF1060117F0C3F9022807D02B787A
:10029000012B29D0012130460DF0C6FDEDE742F2D9
:1002A0000303BDF806209A42F1D841464FF0FF33D0
:1002B000206817F0ADF9BDF806108142E7D140463D
:1002C00007F0F2FA0028D8D12B78BDF80610012BE0
:1002D0000E480DD005F088FC0128CED12B78B3FA5A
:1002E00083F35B092B70C8E738460DF00BFEC4E7BB
:1002F00004F04EFA0128C0D1F0E700BF70080320D7
:1003000044080320F0B90108D0B901083CB7002027
:100310002DE9F04F7E4CDFF81482DFF808927D4F14
:100320007D4E9BB04FF0FF3328226946206817F0BE
:100330006FF92828F6D103980DF0A2FF8246002815
:1003400040F09380029B002B6DD10098D8F80030CC
:10035000984200F0928051460AAA07F0C5FA17F0B9
:1003600025FD0AA90246684608F016FA17F01EFD98
:100370000AA9024668460AF00DF917F017FD0AA906
:100380000246684607F08EFA3B78002BCAD0069BDF
:10039000B3F5001F7FD00121BAF1080F28BF4FF03D
:1003A000080A00200D465FFA8AFADDE90132002AC8
:1003B00069D13144002B00F09D80542333540098C0
:1003C0000DF004FE0544EDB2069B7119B3F5001F54
:1003D0006CD00AF00F000DF077FE0544EDB2BAF1D3
:1003E000000F0BD00AAB9B469A441BF8010B711906
:1003F0000DF05AFEDA450544EDB2F6D1FB78002B3C
:100400005CD17B791BB1069BB3F5001F76D00D2321
:10041000691C4148C9B273550DF006FD002881D012
:1004200000233B707EE7B3F1005FA6D1009BB3F5DC
:10043000E06FA2D1C9F80030039B0199082B28BFB7
:1004400008231A460023C9F80410C9F80C203349C0
:1004500008223348C9E90533C9F808300DF01CFFFC
:100460002F49304804F000F887E702464FF0FF3389
:1004700020680AA917F0CCF864E72B492B4803F051
:10048000F3FF009867E753B352234FF0000A335449
:100490003144009894E7059B0221B3F5801F14BFF7
:1004A0003023312301200D4633707EE7039800F09E
:1004B0000F000DF009FE2B18DDB290E717F076FC67
:1004C0004EF660221A4B7119A3FB00C39B0B02FB73
:1004D000130080B20DF0C6FD2B18DDB291E79A46ED
:1004E000722333540098314480B20DF0A5FD2B18CF
:1004F000DDB269E7742333540098F5E7049BB3F148
:10050000004F84D1692373550135EDB27FE700BFF9
:10051000EC3B0320740103203CB500209005FA0B4E
:100520007407032080070320403D0320483D03203B
:1005300073B2E7452DE9F0411F4DDFF884801F4F6E
:100540009AB0002404EBC40101AEC4F124024FF0C0
:10055000FF33286806EB810117F05AF80444232C76
:10056000F0D904980DF08CFE039B0646B3F1005FB2
:1005700000D0A0B938460FF017F950B138460AAA92
:1005800001A90EF0CBFFD8F80C300133C8F80C30BD
:10059000D7E74FF0FF31012018F022F9EAE70024F5
:1005A0000AA9321B21444FF0FF33286817F030F8B6
:1005B0000444A642F4D8DDE7E83B0320502B032097
:1005C000100003202DE9F04182B007F087F903F015
:1005D0004FFE08F0E1F900F0C7FD0AF053FD17F0F7
:1005E000E5FB07F055F917F0E1FB07F055F9244852
:1005F00013F084F8234813F049F82349234809F0FD
:10060000E7FE234F08F096FE224DDFF89080224E41
:1006100005E001330CD10A2101A817F02FFD17F0D6
:10062000C5FB3B68019001332B68F2D101330BD03D
:100630004FF47A7401E0013CEDD03146284603F0D6
:1006400013FF0028F7D0E6E70AF01AFD01980AF038
:100650001FFD019800F08AFD98F800304BB1019819
:1006600007F024F9019808F095F8019809F0C6FE02
:10067000D1E7019807F080FA019807F00BF9EEE74F
:1006800088280320F0270320601B0320F029032083
:10069000483D03201C3D0320143D0320920003200D
:1006A0002DE9F04700272B4D2B4EDFF8B0A0DFF8E7
:1006B000B090DFF8B080A4B016E0630203D53379C0
:1006C00043F08003337199F8003033B1099B23B1B3
:1006D000642016F0BBF903F0CBFD0023022219467B
:1006E000D8F8000018F0F2F84FF0FF31012018F0B0
:1006F00077F818F055FC28460FF0ACF9044604A929
:1007000028460FF00DF8694628460FF031F85422BC
:1007100031460FA8B46019F0E2FD2F66169BB3F5C1
:10072000003F02D9B3689A020CD418F047FC9AF83B
:100730000030012BC1D1234668460FAA04A907F057
:100740002FFBBAE7012386F82030099303F01AFE45
:10075000EBE700BF502B032010000320E83D0320EF
:10076000700703201020032000232DE9F04784B0F8
:100770005B4C5C4D5C4FDFF87481DFF874910DF1D8
:100780000E068DF80B3004E04FF0FF31002018F01A
:1007900027F8206816F064FE0028F5D04FF0FF33EC
:1007A000012220680DF10B0116F032FF0128EBD178
:1007B000206816F055FE0128E6D94FF0FF330222DB
:1007C000206803A916F024FF0228DDD1BDF80C2013
:1007D000B2F5805FD8D2002A55D19DF80BA0BAF1AE
:1007E000000F16D117F0E2FA3B462946BDF80C205F
:1007F00000960CF0F1FABDF80E30002B56D117F030
:10080000D5FA3B462946BDF80C2000960DF09EFA1D
:10081000BAE717F0CBFA344B3249BDF80C200096FA
:100820000DF030FABDF80E301BB33A787F2A08D1AC
:10083000022B1ED9BB78A3F11102012A19D9312B41
:1008400017D04FF0FF3302223146D8F8000016F0DF
:1008500015FE4FF0FF332449BDF80E20D8F80000F4
:1008600016F00CFE002302221946D9F8000018F0F9
:100870002DF817F09BFA1C4B1A49BDF80C20009676
:100880000DF064FA80E74FF0000AA2EB0A0205EBD4
:100890000A014FF0FF33206816F0BAFEBDF80C20B5
:1008A00050441FFA80FA5245EFD196E731464FF097
:1008B000FF330222D8F8000016F0E0FDBDF80E204C
:1008C0004FF0FF330849D8F8000016F0D7FD534623
:1008D00002225146D9F8000017F0F8FF8FE700BF59
:1008E000B007032038A5002038950020AC0703206E
:1008F000500D03202DE9F84F2A4E2B4DDFF8ACA008
:1009000006F11C0706F5805B06F11408A6F5805970
:1009100004E04FF0FF31002017F062FF286816F066
:100920009FFD0128F5D94FF0FF3302224146286888
:1009300016F06EFE0228ECD1B28AB2F5805FE8D2E2
:1009400062B10024121B39194FF0FF33286816F0EA
:100950005FFEB28A204484B2A242F3D117F026FA95
:100960000146484608F048FA0028D2D117F01EFA8E
:100970000CF094F90128CCD0286816F071FD0128FC
:10098000C7D89AF8003053B19BF8230016F05EF8F0
:1009900017F00CFA0CF082F90128BAD0ECE70A2023
:1009A000F4E700BF8C3D0220AC0703209200032037
:1009B00038B50D490D480DF003FA0B4A0C490D48A6
:1009C00018F0F2FE094D0C4C21464FF0FF334FF466
:1009D0000062286816F01CFE01460028F4D020466C
:1009E0000DF00CFAF0E700BFA00803204808032030
:1009F000C42403207008032040D7002006F066BFFF
:100A0000002006F067BF00BF0022024B02481A60B8
:100A100012F074BE6C0703203C280320014B1868B9
:100A2000704700BF6C07032030B59FB048220021FB
:100A30000CA819F0F4FA00234FF40070CDE902334A
:100A4000CDE90433CDE90733CDE9093301930693AA
:100A50000B9311F019F808B172B6FEE701230222D8
:100A6000169311931993179210231D9207229FED4D
:100A70001E7BCDE91A320324042312900CA81C9388
:100A80008DED0C7B189411F041FA034608B172B653
:100A9000FEE70F22214601A8CDE903330593029416
:100AA000019211F0E1F8034608B172B6FEE7104A70
:100AB0004FF00055916D4BF67F3441F08071916598
:100AC000926D069302F080720092089322222023F6
:100AD00006A8CDE90A2300990795099412F074F944
:100AE0001FB030BDAFF300802900000000000100FE
:100AF00000100240F0B593B072B64FF00062A84B00
:100B00009A60BFF34F8F62B600250EF031F808F0FF
:100B1000D7FCFFF789FFCDE90D55CDE90F55A14C65
:100B20001195E36C4FF4604143F00403E364E36C1C
:100B30002A4603F004030693069BE36C9A4843F0AD
:100B40008003E364E36C012603F080030793079BB3
:100B5000E36C082743F00103E364E36C03F0010353
:100B60000893089BE36C43F00203E364E36C03F037
:100B700002030993099B0FF011FC2A4640F2011170
:100B80008A480FF00BFC2A4641F2E40188480FF036
:100B900005FC4FF4604384480DA9CDE90D360F954F
:100BA00010950FF03DFA40F2011380480DA9CDE9F0
:100BB0000D36CDE90F550FF033FA41F2E4037C48CE
:100BC0000DA9CDE90D36CDE90F550FF029FA794879
:100BD0000DA9CDE90D750F950FF022FAA36C052133
:100BE00043F00403A364A36C2A4603F004030393B5
:100BF000039BA36C1D203343A364A36C3340049375
:100C0000049BA36C43F00203A364A36C03F00203F0
:100C10000593059B0DF0E2FF1D200EF01BF82A4600
:100C200005211E200DF0DAFF1E200EF013F82A46D3
:100C3000052150200DF0D2FF50200EF00BF8284671
:100C40000FF034FF08B172B6FEE70FF043FF034622
:100C500040B959484360594B036012F0DDF818B1B0
:100C600072B6FEE772B6FEE710224FF44071544BA5
:100C70000F241870534B99609A619A623C21132299
:100C8000C3E907120422C3E90B424F4A5860D860F7
:100C90009874D8631846C3E90D661E825E615E6271
:100CA0001A600EF06DFA034668BB4FF0FF31474AF9
:100CB0004FF4827CC2E90500C2E90100D0601160F6
:100CC00007224FF4E0654FF400744148C0E90A324E
:100CD000404AC0E90433C0E90833C2E90533C2E938
:100CE000013383600363D3603B4BC7610360476399
:100CF000C0F804C0C5608461116012F0B9FA0346FF
:100D000018B172B6FEE772B6FEE73448344AC0E95D
:100D100005338380026006620DF0CEFF034608B102
:100D200072B6FEE74FF4027102222E48C3722E4BB8
:100D300081800360C0F807200FF0D6FE034608B19B
:100D400072B6FEE741F63F75284C294ACDE90D0001
:100D50000F902046C4E90133A3612260E56012F0E0
:100D6000E1FE034608B172B6FEE720460DA90D93D9
:100D70000F9312F009FF034608B172B6FEE71D4853
:100D80001D4ACDE90D33026042F20F72C0E902350F
:100D90000F938361426012F0C5FE78B372B6FEE72E
:100DA00000ED00E000100240000802420000024294
:100DB00000040242001C0242542A032000080C4294
:100DC00070070320502B032000A40040483D03205F
:100DD000F02903201C3D032000380040B42B0320E1
:100DE00000300240C824032000D400403C280320E7
:100DF00000140040882803200010004000238E4883
:100E00000DA90D930F9312F0BFFE034608B172B601
:100E1000FEE74F254FF6FF748848C0E9043383602E
:100E20008361874BC460C0E9003512F07BFE034646
:100E300008B172B6FEE78348C0E90153C0E9034335
:100E4000C0E90533804B036012F06CFE034608B125
:100E500072B6FEE74FF080414FF0FF327B4CCDE998
:100E60000D00CDE90F00C4E901000A902061A061E6
:100E70002046CDE90B332160E26012F053FE08B149
:100E800072B6FEE74FF4805320460DA90D9312F081
:100E900073FC034608B172B6FEE720460AA90A931E
:100EA0000C9312F071FE044608B172B6FEE7684872
:100EB000684900902246684B0C7043F69820012147
:100EC00016F040FA0546654E654A00960121156008
:100ED000644B224643F6982016F034FA0546624EDB
:100EE000624A009601211560614B224641F20100E1
:100EF00016F028FA02465F4E5F4D009601215F4BC7
:100F00002A6041F20100224616F01CFA5C4B5D4A51
:100F100001210092186022465B4B43F6982016F0A0
:100F200011FA5A4B5A4A0121009222461860594B35
:100F300043F6982016F006FA574B584E1860204694
:100F400007F0F6FC204607F00DFD07F055FD16F002
:100F50002DFF2A46524B5349009607F009FC524890
:100F60000BF0FAFA514806F079FC5148514A5249BF
:100F700003F064F90DA80D9407F096FC10B90D9BD1
:100F8000002B55D015F0DAFC18F038FA00214B4A46
:100F90004B4815F0FFFC04464A4B00214A4A4B4897
:100FA0001C6015F0F7FC0446494B0021494A4A48A9
:100FB0001C6015F0EFFC04463F4B0021474A4848AF
:100FC0001C6015F0E7FC0446464B0021464A4748A2
:100FD0001C6015F0DFFC0446364B0021444A4548AE
:100FE0001C6015F0D7FC04462E4B0021424A4348B2
:100FF0001C6015F0CFFC0446414B0021414A424899
:101000001C6015F0C7FC0446404B0021404A414893
:101010001C6015F0BFFC04463F4B00213F4A40488E
:101020001C6015F0B7FC3F4B186015F099FCFEE70B
:101030003D4807F011FCA5E788280320F02703208E
:1010400000440140A427032000480140D428032085
:101050007408032044080320D81901204C080320F9
:101060007008032040DF00202008032048080320E8
:1010700034850020FC070320B007032030750020D2
:10108000AC070320D8070320983A0020EC3B03204C
:10109000B407032000000020E83B0320A40703203E
:1010A000A807032000120320542A0320B42B032096
:1010B000502B0320B01603201020032010EE01084F
:1010C00069020008C4240320ECED010811030008A4
:1010D000C0240320C8ED010835050008A4ED01086F
:1010E000C5050008601B032080ED0108A10600086B
:1010F0005CED01086907000838ED0108F5080008F3
:10110000500D032014ED0108B1090008A0080320C8
:10111000F0EC0108FD0900089C080320CCEC010854
:10112000010A000898080320040029C0094A03683E
:10113000934206D0084A93420AD0084A934205D007
:101140007047074A136801331360704706F0B6BB57
:101150000DF020BD00140040002C014000100040A4
:101160006C07032072B6FEE7704700BF024B0349CD
:10117000D87D02F07DBF00BF700003202002032055
:1011800070B500244FF0804101254FF6FF7086B006
:10119000CDE90044CDE9024404940A681B4E22F0D4
:1011A00001020A6032881A4B013A8A624C624D6130
:1011B0000A68184E2A430A601A6822F001021A606F
:1011C00098625C625D611A682A431A6003F0DAF87B
:1011D00030462A464FF400710FF0E0F84FF4807269
:1011E000002369463046CDE9002302940EF018FF33
:1011F0004FF40073032269463046CDE9003503926F
:1012000002940EF00DFF06B070BD00BF0C0003206D
:10121000004801400004024240F69E724B492DE90D
:10122000F04FB1F800A04A494A4B0C681B88944221
:1012300004FB0A3385B000F2858000204FF0804225
:10124000454D04F1FF3E454FDFF81CC1DFF81C811E
:10125000434EDFF81CB1AE440395516A9942FCD36A
:1012600040490969C1F300250195CD0538D5C1F381
:10127000402141F0020931210EF8011F3968013186
:101280003960DCF8001019B198F8001049452BD0EE
:1012900031680BF801900131C1F30B01316088F81E
:1012A0000090DCF800100131CCF8001001990134F5
:1012B000534479B10130C0B20A280AD9142CCCD9D0
:1012C000234B00201C600023039D2B5505B0BDE877
:1012D000F08F019040F69F718C422AD00198BCE7B4
:1012E000C1F340293021C7E731680139C1F30B014F
:1012F0001BF901500291002D1BF801100ADA0D466E
:1013000001F07F017F29C3D0029905F101090BF893
:101310000190CBE74FF0810931680BF80190013162
:10132000C1F30B013160DCF800100131CCF8001082
:10133000BCE70120064B039D1C6000232B5505B024
:10134000BDE8F08F0120044DF7E700BF0A0003203D
:10135000442C032008000320482C0320C43F032012
:10136000BC3F032000040242C03F032024010320AD
:10137000C83F0320F0B5BDF81450012D3BD93024EF
:1013800005F1FF3E1C70C1BBC0F38021BEF1010F0F
:1013900001F130012FD001270A253E460DE00C4611
:1013A0000127013D20FA05F101F001016E1C01F158
:1013B00030011AD0F4451EDA664606F1010C8C4263
:1013C00099551FFA8CFCEAD10137FFB2052FE8D1FD
:1013D000C4F16104F445E4B206F102060BDA03F845
:1013E0000C4001271FFA86FCDBE7002A0CBF3025E2
:1013F0003125F44549DB0020F0BDC0F30071022D1A
:101400002144F8D001271C253E460DE00C4601275B
:10141000013D20FA05F101F00101112D01F130012A
:101420001AD0E645E7DD664606F1010C8C42995577
:101430001FFA8CFCEAD10137FFB2052FE8D1C4F1C5
:101440006104F445E4B206F10206D4DA03F80C4074
:1014500001271FFA86FCDBE7E645CCDD31260CF1DF
:101460000101B44289B203F80C606BD08E45C2DD35
:1014700034465E5402260CF10207BFB2C0F340416D
:10148000BE4501F1300126DCB5E70CF10101AC42AB
:1014900003F80C5089B26DD001277145ABDA3022C8
:1014A0004C1C9542A4B25A5400F08680A645A2DD99
:1014B000881C80B21A5500221A54F0BD0C466746AB
:1014C0000126013D21D320FA05F101F00101774504
:1014D00001F130018FDA07F1010C8C42D9551FFA66
:1014E0008CFCEBD10136F6B2052E01D06746E8E759
:1014F000C4F16104E645E4B207F102077FF77BAF70
:101500000126BFB203F80C40DBE7002A0CBF3025F0
:1015100031257745BFF66FAF7A1CAC42DD5592B2EC
:101520005FD001217245BFF666AF3026541CB5422C
:10153000A4B29E5472D0A6457FF75DAF023290B23E
:101540001E55B8E7042F26D08E457FF754AFBE1C3A
:10155000F6B20CF10207052E5C54BFB28ED177456E
:10156000BFF649AF30240CF1030CDC5501261FFAFD
:101570008CF783E70137FFB2052F8ED18E457FF7B9
:101580003AAFC5F16105EDB20CF1020C5D540127D3
:101590001FFA8CF181E78E457FF72DAF30265E5420
:1015A0000CF1020189B28E457FF725AF0CF10307DC
:1015B00001265C54BFB261E77A1CD2B2052A1FD063
:1015C000A6457FF718AF881C042A1D5580B27FF40A
:1015D00072AF7045BFF60FAF312203311A5488B293
:1015E00069E7711CC9B205299CD17245BFF603AFEA
:1015F000C5F16105EDB202379D540121BAB291E700
:10160000A6457FF7F8AE31221A558A1C92B296454C
:101610007FF7F1AEC81C80B29D544CE70131C9B2CE
:10162000052910D0A6457FF7E6AE1D55042902F125
:101630000204A4B215D17445BFF6DDAE31210332E8
:1016400090B2195537E7A6457FF7D5AE3121195528
:10165000911C89B28E457FF7CEAE033290B25D54B5
:1016600029E7204627E700BF4A4B1868831C74D03F
:101670002DE9F04FC71C91B075D0411C53D14FF0EC
:1016800000084FF0804E444B444A1B88B2F800A03B
:101690000393434B0AEB8A041F88424B4248196864
:1016A000424E64000369DA05FCD5DEF8242092B2CC
:1016B0000369DB05F6D5DEF824309B1A9C42F7D887
:1016C000036913F4807306D0736ABB423FD8036981
:1016D00013F48073F8D11D46CEF82430B8F1000F12
:1016E0001AD04FF08041039ADFF8D090DFF8B8B0FD
:1016F0000DF1100C4B6A9342FCD3DBF810305244CE
:1017000013F4807F1CF8013B1DD0312B1DD1013516
:10171000A84509F8013BEDD1224BC3F80080002019
:1017200011B0BDE8F08F3024214B224A197812788D
:1017300004AB0094FFF71EFE80460028A1D11E488E
:101740000CF0E0FB9DE7302BE1D02946AAE7012011
:10175000144B196011B0BDE8F08F4FF080430022A8
:1017600000205A6270474FF080440C4B0E4A188894
:1017700000EB800040001369DE05FCD5616A89B288
:101780001369DD05F7D5636A5B1A8342F8D300233A
:101790006362C4E704000320080003200A0003205A
:1017A00000000320442C03200004024200480140B2
:1017B000412C0320402C03208CBA0108482C032024
:1017C00002783AB34FF0000C30B5634686463125B7
:1017D0000BE02A2A07D10CF1010C1FFA8CFC8EF8C1
:1017E000005000EB0C0EC25C82B1A2F1300101335B
:1017F00001290CF101049BB2EBD88EF80020C25CE9
:101800001FFA84FC00EB0C0E002AEED100238EF8A8
:10181000003030BD00230370704700BFF8B50446A8
:101820000CF046FD142874D900F1FF3E1FFA8EFE1D
:1018300014F80E2004EB0E05312A2B4618D1A0EB2C
:101840000E020C2A65D8811E661E2A2714FA81F121
:10185000064401E00C2A5CD81F700B4693F800C0C8
:10186000C3F10102BCF1310F01F1FF313244F1D07B
:101870000021234601270E46204413F8012BA2F134
:101880003004012C49D8002945D0E7B1052953D1AE
:10189000B2423ED05F22984203F8012C29D01A466A
:1018A00012F8014BA4F13001012962D8904203F1F2
:1018B00002031ED012783946A2F13006012E2646C8
:1018C0002BD8002FE2D1B2420DD0984211D013F89C
:1018D000014B1646A4F13001012942D82246B242FA
:1018E0004FF00101F1D1013198424FF00007C9B228
:1018F000C3D10FFA8EFEBEF1000F08DB2A4615F8A1
:1019000001392A2B45D05F2B01D1302313700120E0
:10191000F8BD0020F8BD164601219842ADD1E8E798
:101920009842E6D013F8014B0121A4F13002012ABC
:101930002CD8302216462246B2420BD0312AEFD1A3
:101940009842D6D013F8014BA4F13001012928D8D0
:101950000121EFE70131312EC9B205D00127302630
:10196000DBE700270121D8E706298CBF00270127E4
:10197000D3E79042BDD011780233A1F13002D2B248
:10198000012A96BF0E4600213946C6E730260F468B
:10199000C3E70EF1FF3E0FFA8EFEBEF1FF3FADD161
:1019A000B5E7012116460F46B7E700BF70B571B322
:1019B000002344F2995600F1FF3C0CEB01051CF8A2
:1019C000012F5C00A2F13102B2FA82F24FEA933E9B
:1019D00047F6FE735209724503EA040318BF7340C9
:1019E000AC45ECD14A1E00F10E0C024400208C44A0
:1019F00012F8011F4000312908BF40F00100944552
:101A000080B2F5D1C01AB0FA80F0400970BD0B4623
:101A1000E8E700BF2DE9F04F8FB004460CF048FC1A
:101A2000122840F251812378302B05D0B6480FB0F0
:101A3000BDE8F04F0CF066BA054606AEB3480CF0B0
:101A400061FA00273146234604F10B0C13F8012FED
:101A5000A2F13100B0FA80F09C454FEA501001F835
:101A6000012B40EA4707F1D14FF00008A8488DF854
:101A700023800CF047FA06A80CF044FAA5480CF0B5
:101A800041FA03A938460CF0A1FA03A88DF8148096
:101A90000CF038FAA0480CF035FA277B9F4894F8F0
:101AA0000D908DF819808DF818700CF02BFA06A89F
:101AB0000CF028FA9A480CF025FA9A488DF81890FC
:101AC0000CF020FA06A80CF01DFA95480CF01AFA52
:101AD000B9F1310F40F00281262D40F2FB804746DC
:101AE00006AA04F10D010DF12A0011F8013F02F8D8
:101AF000013BA3F13103B3FA83F390424FEA53134E
:101B000043EA4707F1D14FF0000887488DF82A8053
:101B10000CF0F8F906A80CF0F5F97E480CF0F2F993
:101B200003A938460CF052FA03A88DF814800CF083
:101B3000E9F979480CF0E6F994F820707B488DF8C3
:101B400019808DF818700CF0DDF906A80CF0DAF9A0
:101B500073480CF0D7F994F8213075488DF8183097
:101B60000CF0D0F906A80CF0CDF96D480CF0CAF9CC
:101B700094F822306F488DF818300CF0C3F906A89D
:101B80000CF0C0F966480CF0BDF94FF0230A4FF095
:101B90000009201D06A9504404EB0A0212F8013B7B
:101BA00001F8013BA3F13103B3FA83F390424FEA0A
:101BB000531343EA4909F1D14FF000085E488DF80C
:101BC0001C800CF09FF906A80CF09CF95FFA89F9CB
:101BD00050480CF097F903A948460CF065FA03A8A1
:101BE0000AF1040B8DF80E800CF08CF94A480CF0C9
:101BF00089F90BEBC90202F10F03AB4200F2F58049
:101C0000302F00F0A980002706A8551E254400F1BA
:101C10000F0C15F8011F00F8011BA1F13101B1FAF9
:101C200081F184454FEA511141EA4707F1D100257E
:101C30004248CDE900238DF827500CF063F906A83F
:101C40000CF060F933480CF05DF903A9B8B20CF060
:101C500009FA03A88DF810500CF054F938480CF02C
:101C600051F9009A20461146FFF7A0FE019B009310
:101C7000002844D033480CF045F9009BE25CE118A1
:101C8000A2F13003012B98BF012304D919E00133DD
:101C9000202B00F0A88006F8012B11F8012FA2F1EB
:101CA00030000128F3D9002238336B44264803F86A
:101CB000202C0CF027F906A80CF024F918480CF099
:101CC00021F90FB0BDE8F08F20480FB0BDE8F04F0C
:101CD0000CF018B91E480CF015F9F2E7A37B154873
:101CE0008DF818308DF819800CF00CF906A80CF05E
:101CF00009F90B480CF006F94FF00F0A47E71548B1
:101D00000CF000F9009BB9E7C8BA0108DCBA010879
:101D1000F0BA010800BB0108D4E2010808BB0108C1
:101D200018BB01081CBB010840BB010850BB0108DF
:101D300060BB010870BB010880BB0108BCBB010887
:101D4000CCBB0108D0BB0108E4BB0108B4BA010850
:101D50002CBB0108D8BB0108B9F1080F3FF653AFFF
:101D6000B9F1000F45D009F1FF330AF10C0ADBB2DB
:101D70000AEBC302DFF88C90DFF88CA00DF11F078F
:101D800000250DF1170104EB0B0010F8013B01F8E1
:101D9000013FA3F13103B3FA83F38F424FEA5313A8
:101DA00043EA4505F1D1504600928DF820800CF0B1
:101DB000A9F806A80CF0A6F848460CF0A3F803A969
:101DC000E8B20CF071F903A88DF80E800CF09AF8C7
:101DD0000A480CF097F8009A0BF1080B5A45CFD13E
:101DE00002F10F030FE71F235DE705480CF08AF8A7
:101DF00067E75A460AF1130305E700BFD4E201087A
:101E000090BB010800BB0108ACBB0108002845D00D
:101E100030B583B004460CF04BFA0130235C251832
:101E200013B9012003B030BD204677490CF058FAB1
:101E300048BB204675490CF053FA20BB2046744934
:101E40000CF04EFA002857D1204672490CF048FA9F
:101E5000002863D00A2128460DF107020CF05EFA33
:101E60009DF80730002BDCD04FF6FE73421E9A42DD
:101E7000D7D8694B80B21A886849824208800BD350
:101E80004008188008E0284665490CF029FA38B166
:101E90006FF00102634B1A600020C3E70120704716
:101EA000284661490CF01CFA20B14FF0FF325D4B1F
:101EB0001A60F1E728465D490CF012FA20B16FF084
:101EC0000202584B1A60E7E7102128460DF107027D
:101ED0000CF024FA9DF807300446002BA1D0B0F195
:101EE000005F9ED2B0F5006F03D3514B1A78002AE1
:101EF00050D04C4B1C60CFE70A2128460DF1070259
:101F00000CF00CFA9DF80730002B8AD04FF6FE73C8
:101F1000421E9A4285D8474B1880BDE72046464965
:101F20000CF0DEF990B10A2128460DF107020CF001
:101F3000F5F99DF80730002B3FF473AF374B1B8842
:101F400083427FF66EAF344B1880A5E720463B49AD
:101F50000CF0C6F980B1284639490CF0C1F90028C7
:101F600037D0304B374A1B68A3F50063934246D9FC
:101F700000222F4B1A708FE7204633490CF0B0F93E
:101F800070B128462E490CF0ABF968B300222F4BF4
:101F90001A7081E701222E481A700BF0B3FFA8E7F0
:101FA00020462C490CF09CF900283FF43AAF0DF183
:101FB00007020A2128460CF0B1F99DF80720002AF3
:101FC0003FF42FAFB0F5803FBFF42BAF224A108013
:101FD00062E7284621490CF083F900283FF421AF3D
:101FE0000122134B1A7057E728461C490CF078F968
:101FF00000283FF416AF0122144B1A704CE7184822
:102000000BF080FF0DE700BFF4BB010800BC010826
:1020100040BC01084CBC0108080003200A00032052
:10202000FCBB01080400032008BC01080CBC01082B
:10203000412C03200C00032058BC010868BC010897
:1020400074BC0108FFF7FF1FA0BC0108402C03204F
:1020500014BC0108A4BC01080000032018D001082A
:1020600078BC010810B5364884B00BF04BFF354BF7
:1020700001A918880CF080F901A80BF043FF324C3D
:1020800032480BF03FFF32480BF03CFF01A92068BB
:102090000BF09CFF002301A88DF80C300BF032FFF1
:1020A0002368991C40D05A1C42D0033344D029489D
:1020B0000BF028FF284B01A918780CF05DF901A856
:1020C0000BF020FF25480BF01DFF254B01A91878C8
:1020D0000CF052F901A80BF015FF22480BF012FF8B
:1020E000214B01A918880CF047F901A80BF00AFF51
:1020F0001E480BF007FF1E4B01A918880CF03CF995
:1021000001A80BF0FFFE1B480BF0FCFE1A4B01A9C7
:1021100018880CF031F901A80BF0F4FE17480BF009
:10212000F1FE002004B010BD15480BF0EBFEBEE739
:1021300014480BF0E7FEBAE713480BF0E3FEB6E7EE
:10214000ACBC01080000032004000320B8BC010857
:10215000C0BC0108E0BC0108412C0320ECBC010814
:10216000402C0320F4BC01080C00032018BD01081A
:102170000A00032028BD01080800032018BB01083D
:10218000C8BC0108D0BC0108D8BC01082DE9F84F33
:10219000FEF7F6FF434A444B10881B88434900FB77
:1021A00003F30027B1FBF3F14FF0FF34404B414AFA
:1021B000DFF814B1404DDFF814A1DFF814913F4E61
:1021C0001160CBF800702F60CAF800701C603C4BA7
:1021D0003470C9F82470D9F8244019888C424DD243
:1021E0004FF08044DFF8EC806762636A8342FCD37F
:1021F0004FF4007133480EF0D7F8324B1A6942F3AE
:10220000002303F00203C2F340221343DBF8002053
:102210000132CBF800202A6812B132789A4215D0E8
:10222000DAF8002008F802300132C2F30B02CAF8D3
:10223000002033702B6801332B60214BD9F8242008
:102240001B889A421AD2174B1888CDE7DAF800207B
:10225000013AC2F30B0218F9020018F80210002824
:1022600011DA01F07F007F28DAD0154B013108F830
:102270000210D9F824201B889A42E4D301F0F8FF19
:102280000020BDE8F88F8122DAF8003008F803203A
:102290000133C3F30B03CAF800302B6801332B6002
:1022A000CBE700BF0A0003200C00032000B4C404E5
:1022B0002801032020010320C03F03202401032024
:1022C0000000032000040242C43F0320BC3F03205F
:1022D00000480140C83F03202DE9F04F804B91B0EA
:1022E0001B88B3F57A7F40F2C480FEF749FF72B6CF
:1022F0007C4B1868831C00F0EC80C71C00F0C78082
:10230000411C00F0BD803024774B784A1978127850
:1023100004AB0094FFF72EF88046002800F0B3804D
:102320004FF0804E724B734A1B88B2F800A00393A3
:10233000714B0AEB8A051968694B70481C88704F0D
:102340006D000369DA05FCD5DEF8242092B203693A
:10235000DB05F6D5DEF824309B1AAB42F7D30369D0
:1023600013F4807307D07B6AA34200F2A98003694B
:1023700013F48073F7D11E46CEF82430B8F1000F65
:102380001AD04FF08041039ADFF88891DFF86CB1E2
:102390000DF1100C4B6A9342FCD3DBF81030524421
:1023A00013F4807F1CF8013B52D0312B52D10136FF
:1023B000B04509F8013BEDD14F4BC3F80080002632
:1023C0004F4D6E626B6AA34237D24C4F02E06B6A8C
:1023D000A34241D23B6913F48073F8D1484A4FF0CD
:1023E0008041D2F824C0424A1846B2F800904B62AD
:1023F0004A46404BDFF804E1B3F800804B6A934251
:10240000FCD3DEF81030013013F48073C0B21CD05E
:102410000B284244F2D14FF08041A2EB09024B6AF3
:102420009342FCD3364A536AA3EB0C031E44536A0F
:10243000A342CFD3334B03FB06F662B601F018FF7D
:10244000274B1B88B6FBF3F010E018464244D5E753
:10245000302BACD0314674E762B601F009FF294B4E
:102460001F4A06FB03F31088B3FBF0F011B0BDE880
:10247000F08F25480BF046FD002011B0BDE8F08F2D
:102480004FF000084CE721480BF03CFD48E74FF0C7
:102490008044184B194A188800EB800040001369EB
:1024A000DE05FCD5616A89B21369DD05F7D5636A7B
:1024B0005B1A9842F8D800236362094B1C887EE7B8
:1024C0000D4B196062B612480BF01CFD01F0D0FEF6
:1024D000D2E74FF0804300225A62014B1C886EE71E
:1024E0000000032004000320412C0320402C032083
:1024F000080003200A000320442C032000040242A9
:1025000000480140A08601003CBD01088CBA0108CA
:1025100058BD0108482C0320524B2DE9F0411B689F
:102520000333012B68D9FEF72BFE4F4A4F4B11881E
:102530001B884F4A03FB01F10023B2FBF1F24FF07D
:10254000FF314C48DFF86C814B4C4C4D4C4F4D4E9D
:102550000260C8F8003023602B603960317072B6B9
:10256000494A5362FFF780F800283BD1236893B1B2
:10257000D8F8003045493B602B68013BC3F30B039F
:10258000C856CA5C00283BDB307842F0040240F0B9
:102590000400CA543070FEF73FFE0446002854D1B0
:1025A00062B63B4E3368072B47D93A4D28460BF0AD
:1025B000A9FC39480BF0A6FC33682846EC54FFF719
:1025C0002DF9A0B328460BF09DFC34480BF09AFC83
:1025D0002846FFF7F5F8FFF71DFA01F049FE2046FF
:1025E000BDE8F08162B62E480BF08CFC01F040FE95
:1025F00001242046BDE8F0812A480BF083FCF7E770
:1026000012F07E0F28D002F07F02013A62F07F02C2
:10261000CA5432782B6842F00402CA540133C3F31F
:102620000B032B603270236801332360B3E71E482D
:102630000BF068FC01F01CFEDBE71C480BF062FCB1
:1026400001F016FE2046BDE8F08162B618480BF096
:1026500059FC01F00DFECBE72B602368013B2360A2
:10266000D7E700BF040003200C0003200A0003206A
:1026700000B4C40420010320C03F0320BC3F03205A
:10268000280103202401032000480140C83F032003
:10269000442C0320482C0320ECBD010804BE010893
:1026A000A0BD01086CBD0108F4BD0108D4BD01083E
:1026B000BCBD0108C43F03202DE9F04F93B0FEF7E5
:1026C0005FFDA04EA04B31881A88A04B01FB02F29F
:1026D000B3FBF2F300244FF0FF329D49DFF8B0A2C4
:1026E0000B609C4DDFF8AC929B4BCAF800402C600D
:1026F000C9F800401A60994B1A7072B64FF08042C8
:1027000097499848984B546204604C621868811C41
:1027100000F00881C31C00F06781411C40F0C080BC
:10272000214603944FF08044904BB6F800B0B3F8C4
:1027300000C08F4B0BEB8B06B3F800808D48760002
:102740000369DA05FCD5626A92B20369DB05F7D545
:10275000636A9B1A9E42F8D8036913F4807308D009
:102760007F4B5B6A434500F2D180036913F48073A9
:10277000F6D11A466362039B002B00F05481614638
:102780004FF080477C4B0DF1180E04930293059691
:102790007B6A8B42FCD3774B59441B6913F4807FCF
:1027A0001EF8013B00F08B80312B40F08B80029EA5
:1027B000013206F8013B039B02969342E8D1694A35
:1027C0000BFB03CC13602B68B3B1DAF80030624A1C
:1027D0006A4E1360D9F80030013BC3F30B03F15686
:1027E000F25C0029C0F2DA8042F00402F2545B4A43
:1027F000137843F00403137040F69E73039A9A42D1
:102800003DD84FF08042039BDFF88CE1591E049BBA
:102810005A4E584F1944536A6345FCD33869DAF865
:10282000003010F4807F0CBF4FF030084FF03108BB
:102830000133CAF800302C6840F3002303F0020390
:10284000C0F34020034301F8018F1CB143480078D6
:1028500098423AD0D9F8000033540130C0F30B004D
:10286000C9F800003D4803702B6801332B607145A7
:10287000DC44D0D140F69F733A4A0393136000249E
:10288000DDE903239C5462B601F0F2FC3A480BF0F8
:1028900039FB3B480BF036FB204613B0BDE8F08F08
:1028A00030230093374B1A78374B197806ABFEF775
:1028B00061FD0390002800F08B80214632E7302B29
:1028C0003FF475AF1146059E3AE7D9F8000001388C
:1028D000C0F30B0016F90080345CB8F1000F08DA81
:1028E00004F07F08B8F17F0F04F10104B2D0345432
:1028F000BDE78120D9F80030F0540133C3F30B0356
:10290000C9F800302B6801332B60B0E7154B196014
:1029100062B61E480BF0F6FA01F0AAFC012013B0D3
:10292000BDE8F08F114B5462B3F800C02B68B6F8C5
:1029300000B003931BB1104B0394049345E70E4B77
:1029400004935EE70A0003200C00032000B4C404D3
:1029500020010320C03F032028010320240103207D
:1029600000480140442C03200400032008000320F9
:102970000000032000040242482C0320C83F03202B
:1029800018BB0108402C0320412C032058BD01082E
:10299000C43F0320BC3F0320E63B032012F07E0F20
:1029A0001CD002F07F02013A62F07F02F254224909
:1029B0000A78D9F8003042F00402F2540133C3F32C
:1029C0000B03C9F800300A702B6801332B6013E742
:1029D0001A480BF097FA1A4B1968A3E6C9F80030A9
:1029E0002B68013B2B60E2E7B6F800B015490BEB12
:1029F0008B0040000B69DF05FCD5546AA4B20B695B
:102A0000DE05F7D5536A1B1B9842F8D800235362A2
:102A10000D4AB2F800C02A680392002A8FD00393AF
:102A20000A4B0493D1E61A46054B1A602B68002B1B
:102A300085D0064B0493C8E6240103208CBA010814
:102A4000442C03200004024208000320482C0320E9
:102A50002DE9F04F95B00490002800F045810BF06F
:102A600027FCA34E8346336803333BD1FEF788FB34
:102A7000A04CA14B00251A882388A04903FB02F231
:102A80009F4BDFF8C482B3FBF2F34FF0FF320B60D1
:102A90009C4B1D609C4BC8F800501D609B4B1A60FE
:102AA0009B4B1A7072B64FF080419A4B4D625D623B
:102AB0003068994B861C1D6000F0BD81C21C00F07F
:102AC0006681461C12D030230093944B1A78944BA5
:102AD000197808ABFEF74EFC0390002800F05181F6
:102AE0002E4605E08F480BF00DFABFE72E46039502
:102AF00022884FF0804492468B4B02EB82051B8864
:102B00008A4805938A4B834FB3F800906D000369A0
:102B1000D905FCD5616A89B20369DB05F7D5636A1B
:102B20005B1AAB42F8D3036913F4807307D07B6A56
:102B30004B4500F2D180036913F48073F7D1194635
:102B40006362039B002B00F087814FF0804C794B30
:102B5000059E069302930DF1200E0795DCF82430B4
:102B6000B342FBD3714B16441B6913F4807F1EF8EC
:102B7000013B00F0AB80312B40F0AB80029D013176
:102B800005F8013B039B02958B42E7D11946624B46
:102B90001960D8F80030002B00F04B81594B5B498D
:102BA0001B68654F0B60584B1B68013BC3F30B035D
:102BB000F856F95C0028C0F2C98041F00401F954CC
:102BC00053490B7843F004030B70059BBBF57A6FF8
:102BD00013444FF00000D9461A4628BF4FF47A69D3
:102BE00051464FF0804340F69F7B4B4C534D206045
:102BF0005C6A8C42FCD3814540F2E380049C245CF7
:102C0000312C00F0DE80302C00F0F9804FF0030C06
:102C1000012496465A6A7245FCD3444E7246D6F851
:102C200010E0384E0EF4807EBEF1000F16BF6446F1
:102C30004FF0300C4FF0310C05F801CFD6F800C042
:102C40000CF1010CC6F800C0D8F800C0BCF1000FB0
:102C500005D02F4E96F800C0A44500F0B7802A4E4C
:102C6000D6F800C007F80C400CF1010CCCF30B0CAB
:102C7000C6F800C0264E3470D8F800400134C8F8B9
:102C800000400130244C5845206051445244AFD19B
:102C90004FF47A6100234FF0804201FB0AFA069953
:102CA00081F89F3F536A5345FCD34FF400721F4B8A
:102CB0009A6162B601F0DCFA1E480BF023F9204855
:102CC0000BF020F9002015B0BDE8F08F302B3FF459
:102CD00055AF0E46079D1AE70F4B1E6062B61948A6
:102CE0000BF010F901F0C4FA012015B0BDE8F08F27
:102CF000040003200A0003200C000320200103200D
:102D000000B4C404C43F0320BC3F032028010320B7
:102D10002401032000480140442C0320402C0320C0
:102D2000412C032014BE01080800032000040242C5
:102D300000000320482C0320C83F0320472C032019
:102D400018BB0108A0BD0108C03F032011F07E0F91
:102D50007AD001F07F01013961F07F01F9544048D8
:102D6000404C0178236841F00401F9540133C3F366
:102D70000B0323600170D8F800300133C8F800302D
:102D800023E739480BF0BEF8384B1E68B0E62288BE
:102D90003748924602EB82056D000369DB05FCD5DE
:102DA0004C6AA4B20369DF05F7D54B6A1B1B9D4231
:102DB000F8D800234B622F4B1B8805932E4B0693AC
:102DC000E7E64FF400742A4EB4611FE7254ED6F8AB
:102DD00000C00CF1FF3CCCF30B0C17F90CE017F81A
:102DE0000C60BEF1000F14DA06F07F0EBEF17F0F0B
:102DF0003FF435AF3446013407F80C4041E74FF05B
:102E0000007C1B4C9646C4F818C04FF0020C0024FE
:102E100000E74FF0810C134E346807F804C001340A
:102E2000C4F30B043460D8F800400134C8F8004003
:102E300027E7124FC9E60F4B4D621B882288059386
:102E40000D4B92460693A4E606490B60D8F8003075
:102E5000013BC8F8003082E7074B0399069396E6DA
:102E600024010320BC3F03208CBA0108442C03201A
:102E70000004024208000320482C0320C83F03201E
:102E80002DE9F04F95B0FEF77BF92D4D2D4B2E4AD5
:102E900019882B882D4803FB01F1B2FBF1F20023C6
:102EA0004FF0FF310260DFF8D890294C294AC9F869
:102EB000003023601360284A1160284A117072B6EE
:102EC000274A5362274A1068811C00F00D82C21CF9
:102ED00000F03B82421C01D198460CE03023009365
:102EE000214B1A78214B197808ABFEF743FA80463C
:102EF000002800F026824FF0804E1D4BB5F800B040
:102F00001B881C4A05931C4B15681B881B480393A0
:102F1000DFF84CA00BEB8B0307924FEA430C0369DD
:102F2000DF05FCD5DEF8242092B20369DE05F6D574
:102F3000DEF824309B1A9C45F7D8039A27E000BF9F
:102F40000A0003200C00032000B4C4042001032065
:102F5000C03F0320BC3F032028010320240103209D
:102F60000048014004000320402C0320412C032092
:102F700008000320442C0320000003200004024228
:102F8000C43F0320DAF82430934200F28C810369B5
:102F900013F48073F6D103921946CEF82430B8F1B9
:102FA000000F00F0EF81AE4B4FF080451E460693B8
:102FB00008AB1F46059A6B6A9A42FCD8A94B5A4443
:102FC0001B6913F4807F17F8013B00F03681312B29
:102FD00040F036810131884506F8013BEBD1079B73
:102FE000C3F80080059B0BFB08322368002B00F020
:102FF0007881D9F800309C499C4D0B609C4B04951E
:1030000019680139C1F30B0168566B5C0028C0F2E6
:103010007F8143F004036B5496490B7843F004031B
:103020000B704FF0000C4FF0804340F69E7E0699E7
:103030008C4E01EB080A596A9142FCD33169C805EC
:1030400000F10081F04503D84FF030008AF800000D
:103050004FF0000CC1F34021D9F800000130C9F84D
:103060000000206820B183480078884200F0088181
:103070007F4F049D386829540130C0F30B0038603D
:103080007C480170216801312160BCF1090F08F111
:1030900001085A440AF1010ACDD1079B4646C3F8FC
:1030A0000080059B6F4DDDF810E0DDF81880039877
:1030B000D11A714B5B6A834252D8F24640F68E7346
:1030C0009E424DD84FF0000C4FF0804306F1FF3E7A
:1030D000701CC6440490586A8142FCD8BCF1050FAC
:1030E0007CD94FF40070A861032001260746586A76
:1030F0009042FCD3286900F48070002838460CBF49
:10310000302031200EF8010FD9F8000018BF3E46DC
:103110000130C9F80000206818B156480078B04264
:1031200063D0534F38680AF800600130C0F30B00D9
:103130003860504806702068013020604E48039F78
:10314000406A049EB84259445A44664472D80CF10D
:10315000010CBCF1100FBED1474B5B6ABB42ADD92D
:10316000B0464FF08042079B1E60536A9942FCD8DC
:10317000414D039A6B6A93421BD896464FF08043A9
:103180004FF0000C4FF000774FF400760BEB4B0143
:10319000344C49004FEA0B10C3F824C0A7615A6AA7
:1031A0008A42FCD3A6615A6A8242FCD36A6A72459B
:1031B000F2D9B8F57A6F80F08F800023069A02F872
:1031C000083062B601F054F825480AF09BFE2B48FF
:1031D0000AF098FE002015B0BDE8F08F4FF00070A7
:1031E000A86102200026074681E7214800680138CF
:1031F000C0F30B001AF9007005903846059F0028AF
:103200001AF8077009DA07F07F007F2889D03E4658
:10321000059801360AF8006090E78126144F386857
:103220000AF800600130C0F30B00386020680130FC
:10323000206083E7D64638463BE7302B3FF4CAAEE2
:103240000D466CE6F0450CF1010CC1F3402103D8AA
:103250004FF031008AF8000041F00201FCE600BFA7
:10326000482C03200004024228010320C83F032009
:10327000BC3F0320240103200048014018BB010883
:10328000444800680138C0F30B070498C557C05D77
:10329000002D14DA00F07F057F2D3FF4E9AE04998C
:1032A0000130C855F1E6079B1D6062B63A480AF046
:1032B00029FE00F0DDFF012015B0BDE8F08F812070
:1032C000344F049D396868540131C1F30B013960F2
:1032D000216801312160D8E60023069A82F89F3FD9
:1032E0006FE72E4B04939CE64FF08042B5F800B098
:1032F00053622B4B2B4A19882B4BD2F800801B882A
:1033000007920393294B08FB0B12059106936CE679
:1033100013F07E0F30D003F07F03013B63F07F0397
:103320006B5423481B4E0178336841F00401E95483
:103330000133C3F30B03336001702368013323604F
:103340006FE61C480AF0DEFDD5E54FF08042B5F887
:1033500000B019490BEB8B0040000B69DF05FCD571
:10336000556AADB20B69DE05F7D5536A5B1B98420F
:10337000F8D800235362BCE7064B19602368013B71
:103380002360CEE7079B059AC3F80080074B06939E
:103390002BE600BFBC3F0320A0BD0108C83F0320AF
:1033A00008000320442C032000000320482C0320A5
:1033B000240103208CBA0108000402422DE9F04FD9
:1033C0008B4E93B033680333012B40F2CD8182469C
:1033D000884DFDF7D5FE884B00271A882B88874932
:1033E00003FB02F2864BDFF85882B3FBF2F34FF097
:1033F000FF320B60834B1F60834B1F60834BC8F809
:1034000000701A60824B1A7072B64FF08042814B86
:103410005F62814B1F6057623068811C00F013822D
:10342000C31C00F03D82421C40F0AF803E464FF08E
:10343000804E7A4AB5F800B01388794A0493794BE4
:103440000BEB8B05B2F8009077486D00039303698E
:10345000DB05FCD5DEF8242092B20369DC05F6D545
:10346000DEF824309B1A9D42F7D8036913F4807369
:1034700008D0684B5B6A4B4500F29E80036913F4E9
:103480008073F6D11A46CEF82430002E00F05F8209
:10349000644B4FF080471C4604990DF1180C7B6A71
:1034A0008B42FCD3604B59441B6913F4807F1CF89A
:1034B000013B7DD0312B7DD10132964204F8013B96
:1034C000EDD1554B1E60049B06FB0B334E4A126830
:1034D000002A00F0C6814B4A4C491268DFF864911B
:1034E0000A60D8F80020013AC2F30B0219F9020071
:1034F00019F802100028C0F2B78141F0040109F860
:10350000021043490A7842F004020A7000274FF083
:10351000804240F69E7E0399DFF80CC10AF1060A4C
:103520008D19516A9942FCD3DCF81010C80500F1DE
:103530002281764502D84FF0300028700027C1F371
:103540004020304C2168013121602F49096821B1A8
:103550002F490978814200F01A81D8F8001009F843
:1035600001000131C1F30B01C8F8001028490870AF
:103570002548016801310160BA455B4405F1010548
:1035800006F1010060D90646CBE730230093274BB4
:103590001A78274B197806ABFDF7ECFE0646002893
:1035A0007FF445AF23480AF0ADFC1B4B1F683EE794
:1035B000302B81D017464AE7174B1F481C461F6027
:1035C0000AF0A0FC2368B3F57A6FC0F0C98000232D
:1035D000039A82F89F3F62B600F04AFE11480AF053
:1035E00091FC16480AF08EFC002013B0BDE8F08F65
:1035F000040003200A0003200C0003202001032004
:1036000000B4C404C43F0320C03F032028010320AA
:103610002401032000480140442C0320080003201B
:1036200000000320482C032000040242402C032009
:10363000412C03208CBA010858BE010818BB0108B0
:10364000BC3F0320C83F03204FF08045AE4A1060C6
:10365000049A991A6A6A8A42FCD34FF000774FF0B5
:103660008042AA4DAF61556A9D42FCD3A74AA84C3F
:10367000126902F48072002A226818BF312502F113
:1036800001022260A34A08BF3025176814BF022236
:10369000002227B1A04C2778974200F01681D8F875
:1036A00000709D4C09F807200137C7F30B07C8F8D5
:1036B00000702270974C22680132226040F69E72A0
:1036C000904240F2B38002368F4C964226605944B5
:1036D0005B443FF67CAF039A4FF4007A10444FF0FE
:1036E0008042DFF844E2894E556A8D42FCD3C6F829
:1036F00018A0556A9D42FCD33569854C05F4807548
:10370000002D256818BF4FF0310C05F1010525602B
:10371000804C08BF4FF0300C276814BF03250125EB
:103720001FB17D4C2778AF424AD0D8F800707A4C50
:1037300009F807500137C7F30B07C8F80070257068
:10374000744C25680135256000F801CF7045594457
:103750005B44C9D140F69F736B4A136040F69F7378
:1037600000220399CA5436E76C480AF0CBFB0120CB
:1037700013B0BDE8F08F764507F10107C1F3402192
:1037800002D84FF03100287041F00200D9E6D8F895
:1037900000100139C1F30B0119F9014005912146CF
:1037A000059C002919F8044022DA04F07F017F29E2
:1037B0003FF4D3AE20460599013009F80100DBE65D
:1037C000D8F80070013FC7F30B04049419F90440C2
:1037D0002746049C002F19F8044018DA04F07F07EC
:1037E0007F2FA2D001342546049C09F80450ABE792
:1037F0008120D8F8001009F8010001314548C1F3D3
:103800000B01C8F80010016801310160B4E681279E
:10381000D8F800503F4C09F805700135C5F30B0589
:10382000C8F800502568013525608DE7039A0236F7
:103830001554354A5944166040F69F7296425B44CF
:103840007FF449AF8AE73E46B5F800B05762344B83
:10385000344A1B88CDE903232E4A1268002A7FF4DC
:103860003AAEDFF8C89051E611F07E0F43D12949F6
:10387000C8F800200A68013A0A6027480178D8F899
:10388000002041F0040109F802100132C2F30B02DA
:10389000C8F8002001701F490A6801320A6035E645
:1038A000B5F800B019490BEB8B056D000B69DE050F
:1038B000FCD5506A80B20B69DC05F7D5536A1B1A38
:1038C0009D42F8D800265662C1E7D8F80070013F43
:1038D000C7F30B0E19F90EC019F80E70BCF1000FEA
:1038E00026DA07F07F0CBCF17F0F3FF4D8AE01372A
:1038F00009F80E70E2E601F07F01013961F07F0105
:1039000009F80210B9E700BF442C0320000402426A
:10391000C43F0320C03F03202401032044BE01080C
:1039200008000320482C0320E63B0320C83F032067
:103930008127D8F80020084C09F802700132C2F340
:103940000B02C8F80020226801322260B6E6034B61
:103950001E60049BBAE500BFC03F0320442C032037
:10396000984B2DE9F04F1B6893B00333012B40F2C5
:103970001D818246FDF704FC72B60023924D934AE6
:103980006B626B6AB2F800B05B4580F0D980904CF6
:103990000AF1060A00274FF080418A4B4F621E68E9
:1039A0008C4BB21C1F6000F0D480F31C00F0E2804E
:1039B000711C00F0CC8030230093874B30461A787E
:1039C000864B197806ABFDF7D5FC8046002800F041
:1039D000C8804FF0804C824B1888824B00EB800EE1
:1039E0001B884FEA4E0E04932369DA05FCD5DCF8F8
:1039F000242092B22369DB05F6D5DCF824309B1A2B
:103A00007345F7D3236913F4807307D06B6A5B4562
:103A100000F2C980236913F48073F7D11A46049920
:103A2000CCF82430B8F1000F1DD04FF080476E4B1A
:103A30000DF11809039305967B6A8B42FCD3236929
:103A4000014413F4807F19F8013B21D0312B21D19F
:103A5000039E013206F8013B90450396ECD1DDE967
:103A6000043602FB00314FF0000C4FF0804701326A
:103A70007B6A8B42FCD323690CF1010C13F4807335
:103A800002F1010E09D0E24501440AD97246EFE77E
:103A9000302BDDD01746059EA6E79C460144013237
:103AA000E6E74C4B1A604FF08042049BC91A536AF8
:103AB0008B42FCD34FF000734FF080420144A3616E
:103AC000536A8B42FCD34FF40077A7616B6A5B4566
:103AD00036D202367FF45EAF4FF080414FF0000CDB
:103AE0004FF000793E4B3A4D1E883E4BDFF8D880B0
:103AF000B3F800E0002472462046C1F824C0C1F8A3
:103B000024C04B6A9A42FCD82B69013013F48073AD
:103B100053D0824504F101043244F2D8A2EB0E02E4
:103B20004B6A9A42FCD8C5F8189032444B6A9A42C4
:103B3000FCD8AF61D8F824309B45DBD8254B1C60FE
:103B400062B600F095FB002013B0BDE8F08FB846D8
:103B50003FE7244B4F621988214B3A46188804915D
:103B600081E722480AF0CEF91A4B1F68174BB3F8C9
:103B700000B02EE71A4B164A188800EB800C4FEA6B
:103B80004C0C1369DF05FCD54F6ABFB21369DB0526
:103B9000F7D54B6ADB1B6345F8D30022114B4A6211
:103BA000198804915FE70B4B1F60C9E710480AF0C2
:103BB000A9F9012013B0BDE8F08F18460134324452
:103BC0009FE700BF040003200048014000000320DD
:103BD00000040242442C0320402C0320412C0320EB
:103BE0000A00032008000320482C03208CBA010897
:103BF00044BE01082DE9F04F9149924AD1F800B036
:103C0000914BBBF5805F14881E888DB040F29C807C
:103C10008E4B8F4A1D6803925357002BC0F2A18030
:103C20008C480AF06FF94FF4805B4FF0FF0A0027D1
:103C3000A4FB0630DA1840EB0004D21840EB040471
:103C4000E40044EA5274D200D21840EB0400510858
:103C5000430841EAC07104933E465346CDF804A0A0
:103C6000CDF808B005915AE004F00109C4F340080A
:103C7000C4F38004002E00F0AD8099457AD1019BF9
:103C8000984500F0D5804FF023038DF81830059B40
:103C90000DF11902A6FB0301049B0DF1180B06FBA5
:103CA00003110AF01BFA02460CAB02F1010C0232BE
:103CB00053FA8CFC53FA82F20D21002358460CF87B
:103CC000181C02F8183C0AF01DF9019B98450CD00D
:103CD00022238DF8193020235846ADF81A3008F108
:103CE00030038DF818300AF00DF954450DD04FF01F
:103CF00023038DF8193020235846ADF81A3004F10B
:103D000030038DF818300AF0FDF8029A0137BA42F4
:103D1000A2464B46CDF8048006F101060DD0039A69
:103D2000545D01352206C5F30B059DD5029A013776
:103D300004F07F04BA422644F1D147480AF0E2F881
:103D400000200DB0BDE8F08F42480AF0DBF8BBF16F
:103D5000000F71D141480AF0D5F800200DB0BDE840
:103D6000F08F3C4801350AF0CDF840F6FF7BC5F3F3
:103D70000B055AE74FF023038DF81830059B0DF122
:103D80001902A6FB0301049B0DF1180B06FB03119E
:103D90000AF0A4F902460CAB02F1010C023253FA0C
:103DA0008CFC53FA82F20D21002358460CF8181CA3
:103DB00002F8183C0AF0A6F821238DF819302023C8
:103DC0005846ADF81A3009F130038DF818300AF072
:103DD00099F87AE722480AF095F821234FF0200A53
:103DE0008DF8193006A809F130038DF81830ADF8B8
:103DF0001AA00AF087F8222306A88DF8193008F1D6
:103E000030038DF81830ADF81AA00AF07BF84FF0A7
:103E1000230306A88DF8193004F13003ADF81AA079
:103E20008DF818300AF06EF80E480AF06BF86CE75F
:103E300054457FF428AF68E7054B00250393F4E66B
:103E4000C03F03200A0003200C000320BC3F0320D6
:103E5000C83F03206CBE010818BB010800BF010861
:103E60001CBF01082CBF0108034600B583B00846FB
:103E70005BBA02220DF10601ADF806300AF00CFA29
:103E800003B05DF804FB00BF8446002310B50C4668
:103E900082B00DF1060002226146ADF806300AF04C
:103EA000FBF9012C8CBFBDF806009DF8060040BA56
:103EB00080B202B010BD00BF8446002310B50C468E
:103EC00082B00DF1060002226146ADF806300AF01C
:103ED000E3F9012C8CBFBDF806009DF8060040BA3E
:103EE00080B202B010BD00BF034600B583B00846E3
:103EF0005BBA02220DF10601ADF806300AF0CCF9EA
:103F000003B05DF804FB00BF8446002310B50C46E7
:103F100082B00DF1060002226146ADF806300AF0CB
:103F2000BBF9012C8CBFBDF806009DF8060040BA15
:103F300080B202B010BD00BF8446002310B50C460D
:103F400082B00DF1060002226146ADF806300AF09B
:103F5000A3F9012C8CBFBDF806009DF8060040BAFD
:103F600080B202B010BD00BF034600B583B0084662
:103F70005BBA02220DF10601ADF806300AF08CF9A9
:103F800003B05DF804FB00BF8446002310B50C4667
:103F900082B00DF1060002226146ADF806300AF04B
:103FA0007BF9012C8CBFBDF806009DF8060040BAD5
:103FB00080B202B010BD00BF034600B583B0084612
:103FC0005BBA02220DF10601ADF806300AF064F981
:103FD00003B05DF804FB00BF8446002310B50C4617
:103FE00082B00DF1060002226146ADF806300AF0FB
:103FF00053F9012C8CBFBDF806009DF8060040BAAD
:1040000080B202B010BD00BF8446002310B50C463C
:1040100082B00DF1060002226146ADF806300AF0CA
:104020003BF9012C8CBFBDF806009DF8060040BA94
:1040300080B202B010BD00BF0870704700787047B2
:10404000002300B5012983B0ADF8063003D8184627
:1040500003B05DF804FB014602220DF106000AF0F0
:104060001BF99DF8060003B05DF804FB007870476B
:1040700008707047007870478446002310B50C46DE
:1040800082B00DF1060002226146ADF806300AF05A
:1040900003F9012C8CBFBDF806009DF8060040BA5C
:1040A00080B202B010BD00BF034600B583B0084621
:1040B0005BBA02220DF10601ADF806300AF0ECF809
:1040C00003B05DF804FB00BF8446002310B50C4626
:1040D00082B00DF1060002226146ADF806300AF00A
:1040E000DBF8012C8CBFBDF806009DF8060040BA35
:1040F00080B202B010BD00BF0078704700787047F2
:104100008446002310B50C4682B00DF10600022251
:104110006146ADF806300AF0BFF8012C8CBFBDF83F
:1041200006009DF8060040BA80B202B010BD00BF84
:10413000007870472DE9F04F3C4B8346984283B09E
:1041400007D83B4B984269D94FF028094FF4487E75
:104150000BE04FF0250940F2EE2E364BB3FBFBFC93
:104160005FFA8CFCBCF1190F5DD90120314B013095
:1041700080B2B3FBF0FCBCFBFBFC5FFA8CFCBCF137
:10418000190FF4D8B0F5806F42D201236FF00044CC
:104190004FF47A765A460093274B1F68431C1FFA48
:1041A00083FAACF10208B8EB5C0F4FEA5C0120DD4A
:1041B0000CF1FF3B5FFA8BFBCDF804A006FB01F589
:1041C000B5FBFCF5BEEB050A48BFA5EB0E0AA24500
:1041D0000ADAD14508DB002554460095ABEB010512
:1041E000EDB2F96178613D6201314145E6DBDDF810
:1041F00004A0104998B2B1FBFAFCBCFBF2FCB0F58C
:10420000806F0AF1010A5FFA8CFC03D0431CC8E7F7
:1042100001230093009803B0BDE8F08F4FF02B0905
:1042200040F26B3E99E70120AFE700BF00350C007C
:1042300020A10700005A6202E03C032038B50C467A
:10424000064D0749074B0A602860074901201C609A
:1042500012F0FCFD054B186038BD00BFE03C0320A8
:10426000D83C0320DC3C0320F03B0320403C0320EF
:1042700030B53F4C83B020680BF03AF920680AF063
:104280007FFF002851D100223A4D40213A482A713F
:10429000EA602A616A61AA61AA60EA6185F8202061
:1042A0000CF07CF8206805F124010BF053F800288D
:1042B0005BD1324920680BF04DF8002852D1002321
:1042C00002222068114600930BF070F8002846D1B6
:1042D00020680BF0B1F800283ED1002201212068AF
:1042E0000BF068FAA8BB0022062120680BF062FAE6
:1042F00060BB07224FF4F05120680BF05BFA10BB53
:104300000722802120680BF055FAC8B900221C4909
:1043100020680BF04FFA80B900224FF4602120682A
:104320000BF048FA20B903B030BDFCF71BFFAAE739
:1043300003B0BDE83040FCF715BFFCF713FFEBE717
:10434000FCF710FFE2E7FCF70DFFD9E7FCF70AFFE7
:10435000CFE7FCF707FFC6E7FCF704FFBDE7FCF774
:1043600001FFB5E7FCF7FEFEA9E7FCF7FBFEA0E7BF
:10437000E03C032010000320000402424C00032014
:1043800000407100014B18680BF0B2B8E03C03200C
:10439000082824D8DFE800F0080C1014171A1D2094
:1043A00005001448FFF7C6BE42F21070FFF7C2BE08
:1043B00044F62060FFF7BEBE4CF25030FFF7BABEA5
:1043C0000D48FFF7B7BE0D48FFF7B4BE0C48FFF726
:1043D000B1BE0C48FFF7AEBE0B48FFF7ABBE0B4AB1
:1043E000A0F51C53103B934201D901207047FFF701
:1043F000A1BE00BF40420F00A086010048E80100B6
:1044000090D0030020A1070000350C00301B0F00E6
:104410000346054A1978002051615978D16199788D
:104420001162DB7893617047502B03200246024BE8
:1044300000209A61704700BF502B0320034600B54F
:10444000074A93F801E093F800C082F810E00549AC
:104450009B7881F800C0537400205DF804FB00BF16
:10446000502B0320700703202DE9F0470546C06854
:104470000F4609F005FFAB68B3F1005F3CD006467C
:10448000824600F12409254C4FF0FF31206812F0DC
:10449000E7FD0128F8D1DFF89080D8F8000012F08D
:1044A000CFFF484515D202251D4A13792B431371BE
:1044B000002320681A46194612F02CFC00231949E3
:1044C000022209680868194614F000FA2846BDE877
:1044D000F08729464FF0FF332422D8F8000012F06D
:1044E000CDFF054686B94D450CD00D4A01251379FF
:1044F00043F008031371DBE74FF0000A4FF0240983
:104500005646C0E70025D3E7524639464FF0FF3301
:10451000D8F8000012F0B2FF0544E4E7403C032065
:1045200010000320DC3C0320E83B032030B40122D0
:10453000002410200A4B04211B684FF440751C8294
:10454000C3E90520DC6018623F240F209A74C3E998
:104550000125DC61C3E9092130BC1963D8627047C9
:10456000E03C032000232DE9F0430C4683B0C9074B
:104570000546019316D4A20707D502212D4A1379C7
:1045800043F0010313712B681965630735D4019B50
:104590002BB14FF0E0234FF08052C3F8042D03B04D
:1045A000BDE8F083DFF89880224F42464021224B3D
:1045B0000BF016F87B69D8F80C0001337B6109F029
:1045C0005FFEDFF880900646D9F8000012F038FF51
:1045D00006F12803984223D341462822D9F8000047
:1045E00001AB12F0CFFF002EC5D03246D9F8000043
:1045F000114901AB12F0C6FFBDE704240D4B0F4972
:104600009A69096801329A611A7942F008021A71AE
:104610002B6808680DEB04011C6514F041FAB6E73D
:10462000064ABB6912680133106801A9BB6114F026
:1046300037FAA0E710000320983C0320D83C032061
:10464000703C0320EC3B032010B500240A4A0B49C0
:104650001369096882B00868013301A913610194E4
:1046600014F01EFA019B2BB14FF0E0234FF0805263
:10467000C3F8042D02B010BD10000320DC3C032061
:1046800010B500240A4A0B49D369096882B008684A
:10469000013301A9D361019414F002FA019B2BB1FB
:1046A0004FF0E0234FF08052C3F8042D02B010BD4C
:1046B00010000320D83C032038B50C46104D294685
:1046C0000BF02EF8A10303D5EB68A3B90D4A1360D4
:1046D000620309D52B690B4A012B13790CBF43F0F8
:1046E000040303F0FB031371230303D50122054BDD
:1046F00083F8202038BD4FF00042024B1A60E7E7F4
:10470000443C032010000320F0B500250B7885B051
:10471000074602950395CBB10C460DF1FF3608E034
:104720002046D5B209F04EFD14F8023F06F8010FFD
:1047300023B163786A1C0BB3072DF1D18DF80850B3
:104740002A4669460DF1090015F0C9FD00230E4CFB
:104750000820C4E90533C4E90133276009F096FD58
:10476000082203460DEB02010848E36009F094FDBE
:1047700020460649FFF778FE05B0F0BD8DF80850D9
:10478000002DDDD1E2E700BFF03C0320E43C032034
:104790002DE9F04389B006460D4607F033FE0128A7
:1047A00000F0898142F2020300249D42745500F218
:1047B000B480002D00F08881701E691E8446034677
:1047C000314405E00A2A1CBF325501348B4209D01E
:1047D00013F8012F082AF5D1002CF7D08B4204F1F1
:1047E000FF34F5D100218C42315540F372810A46E5
:1047F00003191CF8010F202800F0858082B99C4520
:1048000001F101010CF101000CD09CF80140202CB9
:104810007BD0984206D01CF8022F203A18BF012204
:104820009C45E6D10C463046AD4915F013FC0546D3
:10483000002800F09E80AB49FBF702FD002876D1EE
:10484000012C40F2DA80A649002015F003FCA649AD
:104850000446FBF7F5FC002800F08F802046A349B2
:10486000FBF7EEFC002800F0BD812046A049FBF7D5
:10487000E7FC002840F02F819E4809F043FB9E484A
:1048800009F040FB9B4809F03DFB9C4809F03AFBCE
:104890009B4809F037FB994809F034FB994809F027
:1048A00031FB994809F02EFB944809F02BFB9748FF
:1048B00009F028FB964809F025FB904809F022FBF7
:1048C000944809F01FFB944809F01CFB8B4809F041
:1048D00019FB924809F016FB914809F013FB914827
:1048E00009F010FB904809F00DFB904809F00AFB15
:1048F0008F4809F007FB8F4809F004FB8E4809F048
:1049000001FB8E486DE000228AE798428AD01CF8AD
:10491000020F20287FF473AF82E7894809F0F2FA8A
:10492000884809F0EFFA002009B0BDE8F083284676
:104930008549FBF785FC002882D028468349FBF790
:104940007FFC00283FF47CAF28468149FBF778FCC8
:1049500000283FF475AF28466549FBF771FC002835
:1049600040F08781022C00F0A0817A4809F0CAFA51
:10497000D6E7794809F0C6FAD2E75E4809F0C2FAEC
:104980005D4809F0BFFA5B4809F0BCFA5B4809F0E2
:10499000B9FA724809F0B6FA584809F0B3FA59481A
:1049A00009F0B0FA6E4809F0ADFA544809F0AAFAD5
:1049B000564809F0A7FA6B4809F0A4FA4F4809F0E5
:1049C000A1FA544809F09EFA674809F09BFA4B484F
:1049D00009F098FA514809F095FA644809F092FAFA
:1049E000634809F08FFA454809F08CFA414809F00C
:1049F00089FA604809F086FA92E73E4809F082FA9F
:104A00003D4809F07FFA3B4809F07CFA3B4809F041
:104A100079FA594809F076FA384809F073FA574894
:104A200009F070FA564809F06DFA564809F06AFA2A
:104A3000554809F067FA554809F064FA544809F0F6
:104A400061FA544809F05EFA534809F05BFA53489A
:104A500009F058FA524809F055FA524809F052FA4A
:104A6000514809F04FFA514809F04CFA504809F002
:104A700049FA504809F046FA4F4809F043FA4F48BE
:104A800009F040FA4E4809F03DFA4E4809F03AFA6A
:104A90004D4809F037FA4D4809F034FA4C4809F00E
:104AA00031FA164809F02EFA4A4809F02BFA114853
:104AB00009F028FA34E709F047FA0421464809F0DA
:104AC000B3F907F0ABFC2EE73570444809F01AFA49
:104AD00026E7FAD0A6E6424809F014FA89E700BFB3
:104AE00054BF010884BF0108A0BF010840C10108EC
:104AF000C8C20108A8BF0108E8BF010818BB010827
:104B0000D0C2010824C00108E4C2010868C001083D
:104B100020C301088CC0010834C30108E0C00108AB
:104B200080C30108A0C30108B4C30108D4C30108AD
:104B3000E8C3010808C401081CC4010848C40108EE
:104B40003CBF0108B4E101088CBF010894BF010813
:104B50009CBF010844CC010858BF010814C00108DB
:104B600034C0010870C0010898C00108ECC00108F9
:104B700030C1010884C40108D8C401087CC50108FB
:104B800088C50108FCC5010884C60108B0C6010833
:104B900000C7010850C70108A0C70108F8C70108ED
:104BA00064C801088CC80108B8C8010818C9010800
:104BB00080C90108CCC9010810CA01083CCA010813
:104BC00094CA0108ECCA010838CB01086CCB010873
:104BD000B8CB010824CC010834BF010850BF01083C
:104BE0005CC40108874809F08DF9874809F08AF903
:104BF000844809F087F9854809F084F9844809F068
:104C000081F9824809F07EF9824809F07BF98248EF
:104C100009F078F97D4809F075F9804809F072F9D2
:104C20007F4809F06FF9794809F06CF97D4809F07F
:104C300069F97D4809F066F9744809F063F97B4821
:104C400009F060F97A4809F05DF97A4809F05AF9F3
:104C5000794809F057F9794809F054F9784809F08A
:104C600051F9784809F04EF9774809F04BF977483F
:104C7000B7E628467649FBF7E3FA28B9022C6CD050
:104C8000744809F03FF94BE628467349FBF7D8FA18
:104C9000002851D1012C00F07581A31E012B40F298
:104CA000FB806E4809F02EF93AE66D4915F0D2F90D
:104CB00003780446002B3FF433AE051D413B232B04
:104CC00013D8DFE803F0352D251D1212121212122F
:104CD00012121212121212121212121212121212B4
:104CE000121212121212352D251D5E4809F00AF912
:104CF00014F8013F002B3FF413AEA542DED10FE6BE
:104D0000594809F0FFF80021442003F0D7FDEFE7F0
:104D1000564809F0F7F80021432003F0CFFDE7E7FC
:104D2000534809F0EFF80021422003F0C7FDDFE708
:104D3000504809F0E7F8DBE728464F49FBF780FACF
:104D4000002851D1012C00F02581A31E012B40F237
:104D5000D8804A4809F0D6F8E2E5414915F07AF9D9
:104D600003780446002B3FF4DBAD051D413B232BAC
:104D700013D8DFE803F0352D251D1212121212127E
:104D80001212121212121212121212121212121203
:104D9000121212121212352D251D324809F0B2F8E6
:104DA00014F8013F002B3FF4BBADAC42DED1B7E5B8
:104DB000334809F0A7F80121442003F07FFDEFE715
:104DC000304809F09FF80121432003F077FDE7E721
:104DD0002D4809F097F80121422003F06FFDDFE72D
:104DE0002A4809F08FF8DBE728462949FBF728FA1B
:104DF000002840F0DC80032C00F0FA80254809F000
:104E000081F88DE5A8BF0108E8BF010818BB0108BB
:104E100048C1010824C001085CC1010868C001083C
:104E200098C101088CC00108ACC10108E0C00108AC
:104E3000F8C1010818C2010828C2010848C20108C7
:104E400058C2010878C2010888C20108B4C201082A
:104E500040C1010874CD01084CCE01086CCE010898
:104E600054BF01084CCD010828CD010804CD01082C
:104E7000E0CC010894CC01081CCF010840CF010808
:104E800028CE010804CE0108E0CD0108C4CD0108F8
:104E9000DCCF0108E0CF0108B149002015F0DAF8B5
:104EA00009F0B6F9B0F5006F68D2AE4D022C28605B
:104EB0004FF0000000F09480A94915F0CBF80646A9
:104EC00009F0F6F9C10755D4102853D888B1431E0C
:104ED000C3F34E04B71CDFF8208307EB44073046CA
:104EE00009F070F90236BE4208F8010FF7D1631CD1
:104EF000D8B209F0CBF903469B48EB6009F002F801
:104F00000EE59749002015F0A5F809F081F9B0F5F4
:104F1000006F80F0A081954F022C386000F09181E5
:104F200011F080FD282111F07FFD8D49002015F042
:104F300091F8064609F0BCF9C20704461AD41028B5
:104F400018D83546DFF8B48205E0284609F03AF96A
:104F5000023508F8010BAB1B9BB29C42F5D8601CD4
:104F6000C0F3470009F092F903468148FB6008F05E
:104F7000C9FFD5E47F4808F0C5FFD1E47E4808F0BA
:104F8000C1FFCDE44FF0FF32764B7C481A6008F049
:104F9000B9FFC5E44FF0FF32744B79481A6008F04E
:104FA000B1FF11F03FFD182111F03EFDB8E4284695
:104FB0007449FBF745F928B9032C67D0724808F00B
:104FC000A1FFADE428467149FBF73AF9002840F00B
:104FD0006981022C00F044816D4808F093FF9FE442
:104FE00009F054F903466B48EB6008F08BFF97E437
:104FF0005B49002015F02EF859490546002015F0B0
:1050000029F800210A2214F0EBFE634904462846E1
:10501000FBF716F9002800F00E8128465F49FBF7E0
:105020000FF9002800F0018128465D49FBF708F9D7
:10503000002800F0F48028465A49FBF701F90028BF
:1050400000F0E78028465849FBF7FAF8002800F0FE
:10505000D78028465549FBF7F3F8002877D0284633
:105060005349FBF7EDF8002868D028465149FBF773
:10507000E7F800285ED1002C41D14F4808F042FFEC
:1050800002224E4BDA60FFF7F3F849E4344914F09A
:10509000E1FF4B490446FBF7D3F8002847D02046F0
:1050A0004849FBF7CDF800283ED020464649FBF79B
:1050B000C7F8002835D020464449FBF7C1F868B34B
:1050C00020464349FBF7BCF820BB424808F01AFFD2
:1050D00000242349002014F0BDFF054609F0E8F83C
:1050E000421E92B20D2A034610D8DB070ED420468A
:1050F0002946FFF709FB384808F004FF10E4374859
:1051000008F000FF00222D4BDA60BCE7344808F0BD
:10511000F9FE05E4334808F0F5FED9E740F2E37400
:10512000D7E740F2E274D4E740F2E174D1E740F20D
:10513000DF74CEE72C4808F0E5FEA4E7003C18BF7A
:1051400001242A4B2A481C7008F0DCFE9BE7003C37
:1051500018BF0124194B27485C7408F0D3FE92E76E
:1051600054BF0108483D0320F0CE01081C3D032038
:10517000B4CF0108D8CE010894CE010854CE01085E
:1051800024CF010840D1010844D101082CD20108E4
:1051900034D20108B8CE010840BC010814D001087F
:1051A00030D001084CD0010864D0010898D0010823
:1051B000C4D00108F0D00108F4D00108502B03201E
:1051C00080D1010884D1010888D101088CD101085F
:1051D00090D1010894D1010818D2010810D101081A
:1051E000ECD10108C8D1010828D1010870070320BB
:1051F000D0D00108A8D001083F3D0320143D032072
:10520000003C18BF0124964B96481C7408F07AFEA7
:1052100039E7934B94489C6108F074FE33E7904B58
:1052200092481C6208F06EFE2DE78D4B9048DC61C1
:1052300008F068FE27E78A4B8E485C6108F062FE42
:1052400021E7002009F022F803468B48FB6008F0B4
:1052500059FEFFF765BB894808F054FEFFF760BBB5
:10526000874914F0F7FE451E041D15F8012FA2F121
:105270002A03002A3FF454ABA5423FF451AB1A2B4A
:1052800000F2C480DFE803F0B9C2C2C2C2C2C2C227
:10529000C2C2C2C2C2C2C2C2C2C2C2C2C2C2C2B5FB
:1052A000AC241B0028467749FAF7CAFF00283AD1F8
:1052B000022C16D0744808F025FEFFF731BB734866
:1052C00008F020FE40F2E3707149FFF71DFACCE7C9
:1052D000704808F017FE40F2E2706D49FFF714FACB
:1052E000C3E7674914F0B6FE451E041D15F8012FEB
:1052F000A2F12A03002A3FF413ABA5423FF410ABFE
:105300001A2B00F29080DFE803F0858E8E8E8E8E51
:105310008E8E8E8E8E8E8E8E8E8E8E8E8E8E8E8EAD
:105320008E675E251C0028465B49FAF789FF064612
:1053300000283AD1012C16D0584808F0E3FDFFF7B9
:10534000EFBA574808F0DEFD40F2E3705549FFF729
:10535000DBF9CBE7544808F0D5FD40F2E270514943
:10536000FFF7D2F9C2E7464914F074FE4F4808F03F
:10537000C9FD304603F0DCFA322011F067FB21460C
:10538000422003F09BFA07F0EFF811F05FFB214693
:10539000432003F093FA07F0E7F811F057FB21469A
:1053A000442003F08BFAFFF7BBBA28464049FAF7CE
:1053B00047FF002840F08C80022C38D03D4808F090
:1053C000A1FDFFF7ADBA3C4808F09CFD40F2E1704A
:1053D0003449FFF799F989E7384808F093FD85E7E4
:1053E000374808F08FFD40F2E1702949FFF78CF94A
:1053F0003BE7324808F086FD37E7324808F082FD87
:1054000040F2DF702249FFF77FF92EE72E4808F0BF
:1054100079FD2AE72D4808F075FD40F2DF7021493B
:10542000FFF772F962E7284808F06CFD5EE714495F
:1054300014F010FE451E041D15F8012FA2F14103C2
:10544000002A3FF46DAAA5423FF46AAA032B00F29A
:10545000C583DFE813F01C0213020A025F0000BFDD
:10546000502B032070D0010850D0010838D001081B
:105470001CD00108FCCF010894CF010868CF0108B7
:1054800054BF0108E4D20108ECD20108D0D20108CF
:1054900074D20108BCD2010898D30108A4D3010832
:1054A00078D301082CD3010858D30108CCD30108C4
:1054B00028D4010834D4010838D3010880D2010867
:1054C000A8D2010850D20108C8D1010804D30108AC
:1054D0002846A449FAF7B4FE002800F08B8128463C
:1054E000A149FAF7ADFE002800F0848128469F49C3
:1054F000FAF7A6FE002800F0318128469C49FAF709
:105500009FFE00284AD1022C0DD09A4808F0FAFCE0
:10551000FFF706BA984808F0F5FC40F2E3709749A7
:10552000FFF7F2F888E79649002014F093FD9549BB
:105530000446FAF785FE002800F0088120469249CB
:10554000FAF77EFE002800F0F98020468F49FAF72E
:1055500077FE002800F0728220468D49FAF770FE2F
:10556000002800F0638220468A49FAF769FE002885
:1055700000F0548220468849FAF762FE002800F0C5
:10558000458220468549FAF75BFE80BB072005F07F
:10559000EBFA834808F0B6FCFFF7C2B92846814908
:1055A000FAF74EFE002800F08A8028467E49FAF776
:1055B00047FE002800F0838028467C49FAF740FE29
:1055C00000287CD028467A49FAF73AFE002876D09F
:1055D00028467849FAF734FE00285ED1012C21D004
:1055E000022C09D9744808F08DFCFFF799B973486B
:1055F00008F088FCFFF794B9614914F02BFD451EB3
:10560000C41C15F8012FA2F14103002A3FF488A918
:10561000A5423FF485A9032B00F28C82DFE803F05A
:10562000392A1B0C664808F06DFCC82011F00EFAF0
:1056300009F030FBFFF774B9624808F063FC002101
:10564000442003F03BF9322011F000FA01214420FC
:1056500003F034F9D5E75C4808F054FC00214320FE
:1056600003F02CF9322011F0F1F90121432003F06D
:1056700025F9C6E7554808F045FC0021422003F013
:105680001DF9322011F0E2F90121422003F016F950
:10569000B7E74F4808F036FCB3E728464D49FAF71C
:1056A000CFFD002840D028464B49FAF7C9FD38BB4A
:1056B000022C07D0494808F025FCFFF731B901203A
:1056C000FFF732B92E4914F0C5FC2E490546FAF70A
:1056D000B7FD002800F0C28128462B49FAF7B0FD3B
:1056E000002800F0B38128462849FAF7A9FD00BB3D
:1056F000032004F05BFF3A4808F004FCFFF710B900
:1057000028463849FAF79CFD002840F0B48101F0A2
:105710000BF9002800F0AA81334808F0F3FB0120C0
:1057200001F012F9FFF7FCB8304808F0EBFBFFF787
:10573000F7B82F4808F0E6FBFFF7F2B8022005F0B3
:1057400013FA174808F0DEFBFFF7EAB8012005F06E
:105750000BFA134808F0D6FBFFF7E2B806F05EFE3E
:10576000FFF7DEB8E8D40108ECD40108F0DD010849
:10577000A0BF0108F8DD0108A4D4010874D4010811
:1057800054BF010818D0010800E3010854DE0108E5
:1057900058DE01085CDE010860DE010864DE0108F5
:1057A00048DE010898DE01089CDE0108A4DE01083D
:1057B000ACDE0108B4DE01080CDF010868DE010878
:1057C000BCDE010804E00108F0DF0108DCDF0108AD
:1057D00090DF010818E001089CE00108A4E001083E
:1057E000ECE0010830E1010838E1010820E001089F
:1057F00000E10108012C40F25C810020CF4914F047
:1058000029FC054600283FF48BA8CD49FAF718FD7E
:10581000002800F049812846CA49FAF711FD0028FE
:1058200000F03E812846C849FAF70AFD002800F03A
:105830002D812846C549FAF703FD0646002800F0E9
:1058400090802846C249FAF7FBFC002800F08280CD
:105850002846C049FAF7F4FC064678BB032C1AD058
:10586000BD4808F04FFBFFF75BB8BC4808F04AFBA7
:1058700040F2E270BA49FEF747FFDDE5B94808F0AB
:1058800041FB40F2E170B649FEF73EFFD4E5B64871
:1058900008F038FBD0E5A94914F0DCFB0A216A4680
:1058A0008DF8006008F03AFD9DF800300446012BA9
:1058B00010D0AE4808F026FBFFF732B82846AC49B6
:1058C000FAF7BEFC48BB032C0FD0AA4808F01AFB1D
:1058D000FFF726B8A84808F015FBE0B2FEF740F83D
:1058E000A64808F00FFBFFF71BB89449002014F0FE
:1058F000B1FB00230A216A468DF8003008F00EFD46
:105900009DF800300446012BD3D19B4808F0FAFAE9
:10591000E0B2FDF753FDFFF703B828469849FAF7C0
:105920008FFC002800F0F88028469649FAF788FC9A
:10593000002800F0EA8028469349FAF781FC002805
:1059400040F0C780042C00F0B980904808F0DAFAE3
:10595000FEF7E6BF8E4808F0D5FAFCF7ADFEFEF77D
:10596000DFBF8C4808F0CEFAFCF7B6FC4FF47A7330
:105970000446B0FBF3F0694603FB104408F0FCFC5E
:105980000A2103462027B4FBF1F24FF02E096425CB
:1059900003EB0708E84408F8209CB2FBF1F8B4FBDD
:1059A000F5F54FF0250E4FF00D0C01FB124401FBF5
:1059B00018220DEB0708591C58FA81F1303501F80F
:1059C000205C991C303258FA81F101F8202CDA1C45
:1059D00058FA82F2303402F8204C1A1D58FA82F23A
:1059E00002F8207C5A1D58FA82F202F820EC9A1D27
:1059F000073358FA82F258FA83F302F820CC68464B
:105A000003F8206C08F07EFAFEF78ABF062005F046
:105A1000ABF8614808F076FAFEF782BF052005F082
:105A2000A3F85D4808F06EFAFEF77ABF042005F08F
:105A30009BF8594808F066FAFEF772BF032005F09C
:105A400093F8554808F05EFAFEF76ABF204604F066
:105A5000ADFD524808F056FAFEF762BF012004F08F
:105A6000A5FD4F4808F04EFAFEF75ABF4D4808F022
:105A700049FAFEF755BF4C4808F044FA284608F0AA
:105A800041FA4A4808F03EFAFEF74ABF484808F093
:105A900039FAFCF77BFB474808F034FAFEF740BFC1
:105AA000FCF73AFDFEF73CBF434808F02BFAFEF73F
:105AB00037BF424808F026FAFEF732BF1F4914F0FC
:105AC000C9FAFCF7A3F990B92C4808F01BFAFEF7C5
:105AD00027BF28463A49FAF7B3FB90B1284639491F
