:020000040800F2
:1000000000000420B5E0000871DE000875DE00087D
:1000100079DE00087DDE000881DE000805E10008C9
:10002000000000000000000000000000A18701089F
:1000300085DE00080000000031870108B95E010874
:1000400005E1000805E1000805E1000805E10008F8
:1000500005E1000805E1000805E1000805E10008E8
:1000600005E1000805E1000805E1000805E10008D8
:1000700005E1000805E1000805E1000805E10008C8
:1000800005E1000805E1000805E1000805E10008B8
:1000900005E1000805E1000805E1000805E10008A8
:1000A00005E1000805E1000805E1000805E1000898
:1000B00005E1000889DE000895DE000805E100087A
:1000C00005E1000805E1000805E1000805E1000878
:1000D00005E1000805E1000805E10008A1DE0008CF
:1000E000ADDE000805E10008B9DE000805E1000802
:1000F00005E1000805E1000805E1000805E1000848
:1001000005E10008C5DE0008D1DE000805E10008B1
:1001100005E1000805E1000805E1000805E1000827
:1001200005E10008DDDE0008E9DE000805E1000861
:10013000F5DE000805E1000805E1000805E100081A
:1001400005E1000805E1000801DF000805E10008FD
:1001500005E1000805E1000805E1000805E10008E7
:1001600005E100080DDF000805E1000805E10008D1
:1001700005E100080000000005E1000800000000A3
:1001800019DF000805E1000805E1000805E10008A5
:1001900005E1000805E1000805E1000805E10008A7
:1001A00005E1000805E1000805E1000805E1000897
:1001B00005E100080000000025DF000805E1000857
:1001C00005E100080000000005E1000805E1000865
:1001D00005E1000805E1000805E1000805E1000867
:1001E00005E1000805E1000805E1000805E1000857
:0401F000000000000B
:1002000010B5054C237833B9044B13B10448AFF350
:1002100000800123237010BD480703200000000068
:1002200068A3010808B5034B1BB103490348AFF3AA
:10023000008008BD000000004C07032068A30108EF
:1002400010F8012B11F8013B012A28BF9A42F7D080
:10025000D01A7047034613F8012B002AFBD1181A55
:1002600001387047704700BF2DE9F041234C244D01
:10027000244E254FDFF8948082B04FF0FF330222E6
:1002800020680DF1060116F08FFC022807D02B78AC
:10029000012B29D0012130460DF092F8EDE742F212
:1002A0000303BDF806209A42F1D841464FF0FF33D0
:1002B000206816F079FCBDF806108142E7D140466F
:1002C00006F0D0FF0028D8D12B78BDF80610012BFE
:1002D0000E480DD005F066F90128CED12B78B3FA7F
:1002E00083F35B092B70C8E738460DF0D7F8C4E7F5
:1002F00003F02CFF0128C0D1F0E700BF68080320FD
:100300003C08032090AF010870AF01083CB7002003
:100310002DE9F04F7E4CDFF81482DFF808927D4F14
:100320007D4E9BB04FF0FF3328226946206816F0BF
:100330003BFC2828F6D103980DF06EFA824600287F
:1003400040F09380029B002B6DD10098D8F80030CC
:10035000984200F0928051460AAA06F0A3FF16F0D8
:10036000F1FF0AA90246684607F0F4FE16F0EAFF1C
:100370000AA90246684609F0EBFD16F0E3FF0AA958
:100380000246684606F06CFF3B78002BCAD0069BFD
:10039000B3F5001F7FD00121BAF1080F28BF4FF03D
:1003A000080A00200D465FFA8AFADDE90132002AC8
:1003B00069D13144002B00F09D80542333540098C0
:1003C0000DF0D0F80544EDB2069B7119B3F5001F8E
:1003D0006CD00AF00F000DF043F90544EDB2BAF10C
:1003E000000F0BD00AAB9B469A441BF8010B711906
:1003F0000DF026F9DA450544EDB2F6D1FB78002B75
:100400005CD17B791BB1069BB3F5001F76D00D2321
:10041000691C4148C9B273550CF0D2FF002881D045
:1004200000233B707EE7B3F1005FA6D1009BB3F5DC
:10043000E06FA2D1C9F80030039B0199082B28BFB7
:1004400008231A460023C9F80410C9F80C203349C0
:1004500008223348C9E90533C9F808300DF0E8F936
:100460002F49304803F0DEFC87E702464FF0FF33A8
:1004700020680AA916F098FB64E72B492B4803F083
:10048000D1FC009867E753B352234FF0000A33546E
:100490003144009894E7059B0221B3F5801F14BFF7
:1004A0003023312301200D4633707EE7039800F09E
:1004B0000F000DF0D5F82B18DDB290E716F042FFD3
:1004C0004EF660221A4B7119A3FB00C39B0B02FB73
:1004D000130080B20DF092F82B18DDB291E79A4626
:1004E000722333540098314480B20DF071F82B1808
:1004F000DDB269E7742333540098F5E7049BB3F148
:10050000004F84D1692373550135EDB27FE700BFF9
:10051000E43B03206C0103203CB500209005FA0B5E
:100520006C07032078070320383D0320403D03205B
:1005300073B2E7452DE9F0411F4DDFF884801F4F6E
:100540009AB0002404EBC40101AEC4F124024FF0C0
:10055000FF33286806EB810116F026FB0444232CA8
:10056000F0D904980DF058F9039B0646B3F1005FEB
:1005700000D0A0B938460EF0E3FB50B138460AAAC5
:1005800001A90EF097FAD8F80C300133C8F80C30F6
:10059000D7E74FF0FF31012017F0EEFBEAE7002428
:1005A0000AA9321B21444FF0FF33286816F0FCFAE9
:1005B0000444A642F4D8DDE7E03B0320482B0320A7
:1005C000100003202DE9F04182B006F065FE03F033
:1005D0002DFB07F0BFFE00F0C7FD0AF031FA16F060
:1005E000B1FE06F033FE16F0ADFE06F033FE2448F1
:1005F00012F050FB234812F015FB2349234809F061
:10060000C5FB234F08F074FB224DDFF89080224E8B
:1006100005E001330CD10A2101A816F0FBFF16F00A
:1006200091FE3B68019001332B68F2D101330BD06E
:100630004FF47A7401E0013CEDD03146284603F0D6
:10064000F1FB0028F7D0E6E70AF0F8F901980AF084
:10065000FDF9019800F08AFD98F800304BB101983F
:1006600006F002FE019807F073FD019809F0A4FB63
:10067000D1E7019806F05EFF019806F0E9FDEEE78C
:1006800080280320E8270320581B0320E8290320A3
:10069000403D0320143D03200C3D03209200032025
:1006A0002DE9F04700272B4D2B4EDFF8B0A0DFF8E7
:1006B000B090DFF8B080A4B016E0630203D53379C0
:1006C00043F08003337199F8003033B1099B23B1B3
:1006D000642015F087FC03F0A9FA002302221946D2
:1006E000D8F8000017F0BEFB4FF0FF31012017F0E3
:1006F00043FB17F021FF28460EF078FC044604A9BE
:1007000028460EF0D9FA694628460EF0FDFA542222
:1007100031460FA8B46019F0B2F82F66169BB3F5F6
:10072000003F02D9B3689A020CD417F013FF9AF86D
:100730000030012BC1D1234668460FAA04A907F057
:100740000DF8BAE7012386F82030099303F0F8FA90
:10075000EBE700BF482B032010000320E03D0320FF
:10076000680703200820032000232DE9F04784B008
:100770005B4C5C4D5C4FDFF87481DFF874910DF1D8
:100780000E068DF80B3004E04FF0FF31002017F01B
:10079000F3FA206816F030F90028F5D04FF0FF3357
:1007A000012220680DF10B0116F0FEF90128EBD1B2
:1007B000206816F021F90128E6D94FF0FF33022214
:1007C000206803A916F0F0F90228DDD1BDF80C204D
:1007D000B2F5805FD8D2002A55D19DF80BA0BAF1AE
:1007E000000F16D116F0AEFD3B462946BDF80C2091
:1007F00000960BF0BDFDBDF80E30002B56D116F063
:10080000A1FD3B462946BDF80C2000960CF06AFD80
:10081000BAE716F097FD344B3249BDF80C2000962C
:100820000CF0FCFCBDF80E301BB33A787F2A08D1DF
:10083000022B1ED9BB78A3F11102012A19D9312B41
:1008400017D04FF0FF3302223146D8F8000016F0DF
:10085000E1F84FF0FF332449BDF80E20D8F800002E
:1008600016F0D8F8002302221946D9F8000017F034
:10087000F9FA16F067FD1C4B1A49BDF80C200096DA
:100880000CF030FD80E74FF0000AA2EB0A0205EB06
:100890000A014FF0FF33206816F086F9BDF80C20EE
:1008A00050441FFA80FA5245EFD196E731464FF097
:1008B000FF330222D8F8000016F0ACF8BDF80E2085
:1008C0004FF0FF330849D8F8000016F0A3F853465C
:1008D00002225146D9F8000017F0C4FA8FE700BF92
:1008E000A807032038A5002038950020A40703207E
:1008F000480D03202DE9F84F2A4E2B4DDFF8ACA010
:1009000006F11C0706F5805B06F11408A6F5805970
:1009100004E04FF0FF31002017F02EFA286816F09F
:100920006BF80128F5D94FF0FF33022241462868C1
:1009300016F03AF90228ECD1B28AB2F5805FE8D21B
:1009400062B10024121B39194FF0FF33286816F0EA
:100950002BF9B28A204484B2A242F3D116F0F2FC01
:100960000146484607F026FF0028D2D116F0EAFCDF
:100970000BF060FC0128CCD0286816F03DF8012867
:10098000C7D89AF8003053B19BF8230015F02AFB22
:1009900016F0D8FC0BF04EFC0128BAD0ECE70A2088
:1009A000F4E700BF8C3D0220A4070320920003203F
:1009B00038B50D490D480CF0CFFC0B4A0C490D48D9
:1009C00018F0C2F9094D0C4C21464FF0FF334FF49B
:1009D0000062286816F0E8F801460028F4D02046A6
:1009E0000CF0D8FCF0E700BF980803204008032073
:1009F000BC2403206808032040D7002006F044BC34
:100A0000002006F045BC00BF0022024B02481A60DD
:100A100012F040B96407032034280320014B186802
:100A2000704700BF6407032030B59FB04822002103
:100A30000CA818F0C4FD00234FF40070CDE9023378
:100A4000CDE90433CDE90733CDE9093301930693AA
:100A50000B9310F0E5FA08B172B6FEE7012302220B
:100A6000169311931993179210231D9207229FED4D
:100A70001E7BCDE91A320324042312900CA81C9388
:100A80008DED0C7B189410F00DFD034608B172B685
:100A9000FEE70F22214601A8CDE903330593029416
:100AA000019210F0ADFB034608B172B6FEE7104AA2
:100AB0004FF00055916D4BF67F3441F08071916598
:100AC000926D069302F080720092089322222023F6
:100AD00006A8CDE90A2300990795099411F040FC76
:100AE0001FB030BDAFF300802900000000000100FE
:100AF00000100240F0B593B072B64FF00062A84B00
:100B00009A60BFF34F8F62B600250DF0FDFA08F032
:100B1000B5F9FFF789FFCDE90D55CDE90F55A14C8A
:100B20001195E36C4FF4604143F00403E364E36C1C
:100B30002A4603F004030693069BE36C9A4843F0AD
:100B40008003E364E36C012603F080030793079BB3
:100B5000E36C082743F00103E364E36C03F0010353
:100B60000893089BE36C43F00203E364E36C03F037
:100B700002030993099B0EF0DDFE2A4640F20111A3
:100B80008A480EF0D7FE2A4641F2E40188480EF06A
:100B9000D1FE4FF4604384480DA9CDE90D360F9581
:100BA00010950EF009FD40F2011380480DA9CDE922
:100BB0000D36CDE90F550EF0FFFC41F2E4037C4801
:100BC0000DA9CDE90D36CDE90F550EF0F5FC7948AC
:100BD0000DA9CDE90D750F950EF0EEFCA36C052166
:100BE00043F00403A364A36C2A4603F004030393B5
:100BF000039BA36C1D203343A364A36C3340049375
:100C0000049BA36C43F00203A364A36C03F00203F0
:100C10000593059B0DF0AEFA1D200DF0E7FA2A466C
:100C200005211E200DF0A6FA1E200DF0DFFA2A463F
:100C3000052150200DF09EFA50200DF0D7FA2846DD
:100C40000FF000FA08B172B6FEE70FF00FFA034694
:100C500040B959484360594B036011F0A9FB18B1E2
:100C600072B6FEE772B6FEE710224FF44071544BA5
:100C70000F241870534B99609A619A623C21132299
:100C8000C3E907120422C3E90B424F4A5860D860F7
:100C90009874D8631846C3E90D661E825E615E6271
:100CA0001A600DF039FD034668BB4FF0FF31474A2B
:100CB0004FF4827CC2E90500C2E90100D0601160F6
:100CC00007224FF4E0654FF400744148C0E90A324E
:100CD000404AC0E90433C0E90833C2E90533C2E938
:100CE000013383600363D3603B4BC7610360476399
:100CF000C0F804C0C5608461116011F085FD034631
:100D000018B172B6FEE772B6FEE73448344AC0E95D
:100D100005338380026006620DF09AFA034608B13B
:100D200072B6FEE74FF4027102222E48C3722E4BB8
:100D300081800360C0F807200FF0A2F9034608B1D4
:100D400072B6FEE741F63F75284C294ACDE90D0001
:100D50000F902046C4E90133A3612260E56012F0E0
:100D6000ADF9034608B172B6FEE720460DA90D9312
:100D70000F9312F0D5F9034608B172B6FEE71D488D
:100D80001D4ACDE90D33026042F20F72C0E902350F
:100D90000F938361426012F091F978B372B6FEE767
:100DA00000ED00E000100240000802420000024294
:100DB00000040242001C02424C2A032000080C429C
:100DC00068070320482B032000A40040403D032077
:100DD000E8290320143D032000380040AC2B0320F9
:100DE00000300240C024032000D4004034280320F7
:100DF00000140040802803200010004000238E488B
:100E00000DA90D930F9312F08BF9034608B172B63A
:100E1000FEE74F254FF6FF748848C0E9043383602E
:100E20008361874BC460C0E9003512F047F903467F
:100E300008B172B6FEE78348C0E90153C0E9034335
:100E4000C0E90533804B036012F038F9034608B15E
:100E500072B6FEE74FF080414FF0FF327B4CCDE998
:100E60000D00CDE90F00C4E901000A902061A061E6
:100E70002046CDE90B332160E26012F01FF908B182
:100E800072B6FEE74FF4805320460DA90D9311F082
:100E90003FFF034608B172B6FEE720460AA90A934F
:100EA0000C9312F03DF9044608B172B6FEE76848AB
:100EB000684900902246684B0C7043F69820012147
:100EC00015F00CFD0546654E654A0096012115603A
:100ED000644B224643F6982015F000FD0546624E0D
:100EE000624A009601211560614B224641F20100E1
:100EF00015F0F4FC02465F4E5F4D009601215F4BFA
:100F00002A6041F20100224615F0E8FC5C4B5D4A84
:100F100001210092186022465B4B43F6982015F0A1
:100F2000DDFC5A4B5A4A0121009222461860594B67
:100F300043F6982015F0D2FC574B584E18602046C7
:100F400007F0D4F9204607F0EBF907F033FA16F072
:100F5000F9F92A46524B5349009607F0E7F85248F0
:100F60000AF0C6FD514806F057F95148514A524916
:100F700002F042FE0DA80D9407F074F910B90D9B14
:100F8000002B55D014F0A6FF17F008FD00214B4AA6
:100F90004B4814F0CBFF04464A4B00214A4A4B48C9
:100FA0001C6014F0C3FF0446494B0021494A4A48DB
:100FB0001C6014F0BBFF04463F4B0021474A4848E1
:100FC0001C6014F0B3FF0446464B0021464A4748D4
:100FD0001C6014F0ABFF0446364B0021444A4548E0
:100FE0001C6014F0A3FF04462E4B0021424A4348E4
:100FF0001C6014F09BFF0446414B0021414A4248CB
:101000001C6014F093FF0446404B0021404A4148C5
:101010001C6014F08BFF04463F4B00213F4A4048C0
:101020001C6014F083FF3F4B186014F065FFFEE76F
:101030003D4807F0EFF8A5E780280320E8270320C4
:10104000004401409C27032000480140CC28032095
:101050006C0803203C080320D81901204408032011
:101060006808032040DF0020180803204008032000
:1010700034850020F4070320A807032030750020E2
:10108000A4070320D0070320983A0020E43B032064
:10109000AC07032000000020E03B03209C07032056
:1010A000A0070320F81103204C2A0320AC2B0320B7
:1010B000482B0320A81603200820032094E30108EE
:1010C00069020008BC24032070E301081103000832
:1010D000B82403204CE301083505000828E3010883
:1010E000C5050008581B032004E30108A1060008F9
:1010F000E0E2010869070008BCE20108F508000801
:10110000480D032098E20108B1090008980803205F
:1011100074E20108FD0900089408032050E2010868
:10112000010A000890080320040029C0094A036846
:10113000934206D0084A93420AD0084A934205D007
:101140007047074A136801331360704706F094B87C
:101150000CF0ECBF00140040002C014000100040D7
:101160006407032072B6FEE7704700BF024B0349D5
:10117000D87D02F05BBC00BF700003201802032082
:1011800040F69E723B492DE9F04FB1F800803A4994
:101190003A4B0C681B88944204FB083383B064D834
:1011A00000204FF080424FF0300B354F354EDFF8C6
:1011B000DCA0354DDFF8D89004F1010E01973C44D6
:1011C000516A9942FCD3D9F810100130C1F3402C78
:1011D00011F480774CF0020CC0B24344C1F34021BB
:1011E00017D04FF0310731680A280AF801C001F121
:1011F0000101C1F30B0131602968277001F1010180
:10120000296013D9BEF1140F24D80EF1010E013458
:10121000D6E7306884F800B00AF800100130C0F357
:101220000B00306038462968013129600EF1010E4B
:10123000BEF57A6F01D00134C2E740F69F730120FA
:101240009E460D4A019F1360002307F80E3003B03D
:10125000BDE8F08F084B0020C3F800E00023019F99
:1012600007F80E3003B0BDE8F08FA6460120044F0A
:10127000EAE700BF0A0003203C2C032008000320FB
:10128000402C0320B43F0320B83F0320BC3F032081
:101290000004024270B500244FF0804101254FF652
:1012A000FF7086B0CDE90044CDE9024404940A6899
:1012B0001B4E22F001020A6032881A4B013A8A6200
:1012C0004C624D610A68184E2A430A601A6822F07F
:1012D00001021A6098625C625D611A682A431A60B2
:1012E00002F02EFD30462A464FF400710EF022FB2C
:1012F0004FF48072002369463046CDE90023029402
:101300000EF05AF94FF40073032269463046CDE9D6
:101310000035039202940EF04FF906B070BD00BF85
:101320000C0003200048014000040242F0B5BDF863
:101330001450012D3BD9302405F1FF3E1C70C1BB78
:10134000C0F38021BEF1010F01F130012FD0012740
:101350000A253E460DE00C460127013D20FA05F125
:1013600001F001016E1C01F130011AD0F4451EDAC2
:10137000664606F1010C8C4299551FFA8CFCEAD1A5
:101380000137FFB2052FE8D1C4F16104F445E4B29E
:1013900006F102060BDA03F80C4001271FFA86FC5F
:1013A000DBE7002A0CBF30253125F44549DB00205E
:1013B000F0BDC0F30071022D2144F8D001271C2597
:1013C0003E460DE00C460127013D20FA05F101F0F3
:1013D0000101112D01F130011AD0E645E7DD664625
:1013E00006F1010C8C4299551FFA8CFCEAD10137A9
:1013F000FFB2052FE8D1C4F16104F445E4B206F16F
:101400000206D4DA03F80C4001271FFA86FCDBE75A
:10141000E645CCDD31260CF10101B44289B203F876
:101420000C606BD08E45C2DD34465E5402260CF152
:101430000207BFB2C0F34041BE4501F1300126DCD6
:10144000B5E70CF10101AC4203F80C5089B26DD044
:1014500001277145ABDA30224C1C9542A4B25A5494
:1014600000F08680A645A2DD881C80B21A550022B5
:101470001A54F0BD0C4667460126013D21D320FADF
:1014800005F101F00101774501F130018FDA07F133
:10149000010C8C42D9551FFA8CFCEBD10136F6B207
:1014A000052E01D06746E8E7C4F16104E645E4B2E1
:1014B00007F102077FF77BAF0126BFB203F80C40AC
:1014C000DBE7002A0CBF302531257745BFF66FAF2B
:1014D0007A1CAC42DD5592B25FD001217245BFF655
:1014E00066AF3026541CB542A4B29E5472D0A645B5
:1014F0007FF75DAF023290B21E55B8E7042F26D0B9
:101500008E457FF754AFBE1CF6B20CF10207052ED4
:101510005C54BFB28ED17745BFF649AF30240CF191
:10152000030CDC5501261FFA8CF783E70137FFB265
:10153000052F8ED18E457FF73AAFC5F16105EDB22B
:101540000CF1020C5D5401271FFA8CF181E78E45E6
:101550007FF72DAF30265E540CF1020189B28E4523
:101560007FF725AF0CF1030701265C54BFB261E79A
:101570007A1CD2B2052A1FD0A6457FF718AF881C67
:10158000042A1D5580B27FF472AF7045BFF60FAFCD
:10159000312203311A5488B269E7711CC9B2052996
:1015A0009CD17245BFF603AFC5F16105EDB20237BC
:1015B0009D540121BAB291E7A6457FF7F8AE3122DA
:1015C0001A558A1C92B296457FF7F1AEC81C80B2BC
:1015D0009D544CE70131C9B2052910D0A6457FF7CB
:1015E000E6AE1D55042902F10204A4B215D17445DA
:1015F000BFF6DDAE3121033290B2195537E7A6456B
:101600007FF7D5AE31211955911C89B28E457FF7F0
:10161000CEAE033290B25D5429E7204627E700BFE3
:101620004A4B1868831C74D02DE9F04FC71C91B049
:1016300075D0411C53D14FF000084FF0804E444B01
:10164000444A1B88B2F800A00393434B0AEB8A0478
:101650001F88424B42481968424E64000369DA050C
:10166000FCD5DEF8242092B20369DB05F6D5DEF85E
:1016700024309B1A9C42F7D8036913F4807306D078
:10168000736ABB423FD8036913F48073F8D11D46D7
:10169000CEF82430B8F1000F1AD04FF08041039AF1
:1016A000DFF8D090DFF8B8B00DF1100C4B6A934220
:1016B000FCD3DBF81030524413F4807F1CF8013B5C
:1016C0001DD0312B1DD10135A84509F8013BEDD1C5
:1016D000224BC3F80080002011B0BDE8F08F302409
:1016E000214B224A1978127804AB0094FFF71EFEB2
:1016F00080460028A1D11E480BF0D0FE9DE7302B7C
:10170000E1D02946AAE70120144B196011B0BDE8C9
:10171000F08F4FF08043002200205A6270474FF054
:1017200080440C4B0E4A188800EB8000400013697F
:10173000DE05FCD5616A89B21369DD05F7D5636AF8
:101740005B1A8342F8D300236362C4E704000320DA
:10175000080003200A000320000003203C2C032083
:101760000004024200480140392C0320382C032099
:101770002CB00108402C032002783AB34FF0000C43
:1017800030B56346864631250BE02A2A07D10CF195
:10179000010C1FFA8CFC8EF8005000EB0C0EC25CA2
:1017A00082B1A2F13001013301290CF101049BB295
:1017B000EBD88EF80020C25C1FFA84FC00EB0C0E04
:1017C000002AEED100238EF8003030BD00230370D4
:1017D000704700BFF8B504460CF036F8142874D9E9
:1017E00000F1FF3E1FFA8EFE14F80E2004EB0E05EA
:1017F000312A2B4618D1A0EB0E020C2A65D8811E87
:10180000661E2A2714FA81F1064401E00C2A5CD8EE
:101810001F700B4693F800C0C3F10102BCF1310FF9
:1018200001F1FF313244F1D00021234601270E4659
:10183000204413F8012BA2F13004012C49D80029CF
:1018400045D0E7B1052953D1B2423ED05F2298423C
:1018500003F8012C29D01A4612F8014BA4F13001EB
:10186000012962D8904203F102031ED01278394652
:10187000A2F13006012E26462BD8002FE2D1B2422B
:101880000DD0984211D013F8014B1646A4F1300147
:10189000012942D82246B2424FF00101F1D1013173
:1018A00098424FF00007C9B2C3D10FFA8EFEBEF1C5
:1018B000000F08DB2A4615F801392A2B45D05F2B8B
:1018C00001D1302313700120F8BD0020F8BD164669
:1018D00001219842ADD1E8E79842E6D013F8014BD8
:1018E0000121A4F13002012A2CD8302216462246CA
:1018F000B2420BD0312AEFD19842D6D013F8014B27
:10190000A4F13001012928D80121EFE70131312E5E
:10191000C9B205D001273026DBE700270121D8E72F
:1019200006298CBF00270127D3E79042BDD011784C
:101930000233A1F13002D2B2012A96BF0E46002135
:101940003946C6E730260F46C3E70EF1FF3E0FFAD1
:101950008EFEBEF1FF3FADD1B5E7012116460F4621
:10196000B7E700BF70B571B3002344F2995600F198
:10197000FF3C0CEB01051CF8012F5C00A2F13102C9
:10198000B2FA82F24FEA933E47F6FE73520972456D
:1019900003EA040318BF7340AC45ECD14A1E00F1C2
:1019A0000E0C024400208C4412F8011F4000312923
:1019B00008BF40F00100944580B2F5D1C01AB0FADA
:1019C00080F0400970BD0B46E8E700BF2DE9F04FFD
:1019D0008FB004460BF038FF122840F25181237873
:1019E000302B05D0B6480FB0BDE8F04F0BF056BD18
:1019F000054606AEB3480BF051FD0027314623469D
:101A000004F10B0C13F8012FA2F13100B0FA80F0B1
:101A10009C454FEA501001F8012B40EA4707F1D1ED
:101A20004FF00008A8488DF823800BF037FD06A87A
:101A30000BF034FDA5480BF031FD03A938460BF03F
:101A400091FD03A88DF814800BF028FDA0480BF041
:101A500025FD277B9F4894F80D908DF819808DF80F
:101A600018700BF01BFD06A80BF018FD9A480BF040
:101A700015FD9A488DF818900BF010FD06A80BF094
:101A80000DFD95480BF00AFDB9F1310F40F00281D0
:101A9000262D40F2FB80474606AA04F10D010DF108
:101AA0002A0011F8013F02F8013BA3F13103B3FA18
:101AB00083F390424FEA531343EA4707F1D14FF0C3
:101AC000000887488DF82A800BF0E8FC06A80BF088
:101AD000E5FC7E480BF0E2FC03A938460BF042FD22
:101AE00003A88DF814800BF0D9FC79480BF0D6FCD4
:101AF00094F820707B488DF819808DF818700BF0E1
:101B0000CDFC06A80BF0CAFC73480BF0C7FC94F898
:101B1000213075488DF818300BF0C0FC06A80BF08A
:101B2000BDFC6D480BF0BAFC94F822306F488DF87C
:101B300018300BF0B3FC06A80BF0B0FC66480BF0B5
:101B4000ADFC4FF0230A4FF00009201D06A95044B8
:101B500004EB0A0212F8013B01F8013BA3F1310347
:101B6000B3FA83F390424FEA531343EA4909F1D1A0
:101B70004FF000085E488DF81C800BF08FFC06A823
:101B80000BF08CFC5FFA89F950480BF087FC03A935
:101B900048460BF055FD03A80AF1040B8DF80E80A2
:101BA0000BF07CFC4A480BF079FC0BEBC90202F10C
:101BB0000F03AB4200F2F580302F00F0A980002720
:101BC00006A8551E254400F10F0C15F8011F00F85A
:101BD000011BA1F13101B1FA81F184454FEA5111A4
:101BE00041EA4707F1D100254248CDE900238DF8AD
:101BF00027500BF053FC06A80BF050FC33480BF0B9
:101C00004DFC03A9B8B20BF0F9FC03A88DF81050F5
:101C10000BF044FC38480BF041FC009A204611467A
:101C2000FFF7A0FE019B0093002844D033480BF03F
:101C300035FC009BE25CE118A2F13003012B98BF58
:101C4000012304D919E00133202B00F0A88006F805
:101C5000012B11F8012FA2F130000128F3D9002245
:101C600038336B44264803F8202C0BF017FC06A8E9
:101C70000BF014FC18480BF011FC0FB0BDE8F08F0E
:101C800020480FB0BDE8F04F0BF008BC1E480BF029
:101C900005FCF2E7A37B15488DF818308DF8198004
:101CA0000BF0FCFB06A80BF0F9FB0B480BF0F6FB66
:101CB0004FF00F0A47E715480BF0F0FB009BB9E720
:101CC00068B001087CB0010890B00108A0B001081C
:101CD00058D80108A8B00108B8B00108BCB0010884
:101CE000E0B00108F0B0010800B1010810B101082E
:101CF00020B101085CB101086CB1010870B10108A4
:101D000084B1010854B00108CCB0010878B10108D1
:101D1000B9F1080F3FF653AFB9F1000F45D009F103
:101D2000FF330AF10C0ADBB20AEBC302DFF88C9036
:101D3000DFF88CA00DF11F0700250DF1170104EB52
:101D40000B0010F8013B01F8013FA3F13103B3FA96
:101D500083F38F424FEA531343EA4505F1D15046CE
:101D600000928DF820800BF099FB06A80BF096FBF3
:101D700048460BF093FB03A9E8B20BF061FC03A803
:101D80008DF80E800BF08AFB0A480BF087FB009A57
:101D90000BF1080B5A45CFD102F10F030FE71F23B8
:101DA0005DE705480BF07AFB67E75A460AF1130333
:101DB00005E700BF58D8010830B10108A0B00108FC
:101DC0004CB10108002845D030B583B004460BF073
:101DD0003BFD0130235C251813B9012003B030BD51
:101DE000204677490BF048FD48BB204675490BF06B
:101DF00043FD20BB204674490BF03EFD002857D11F
:101E0000204672490BF038FD002863D00A2128468D
:101E10000DF107020BF04EFD9DF80730002BDCD0D2
:101E20004FF6FE73421E9A42D7D8694B80B21A8889
:101E30006849824208800BD34008188008E0284691
:101E400065490BF019FD38B16FF00102634B1A6060
:101E50000020C3E701207047284661490BF00CFDC4
:101E600020B14FF0FF325D4B1A60F1E728465D4923
:101E70000BF002FD20B16FF00202584B1A60E7E749
:101E8000102128460DF107020BF014FD9DF80730D4
:101E90000446002BA1D0B0F1005F9ED2B0F5006FD8
:101EA00003D3514B1A78002A50D04C4B1C60CFE71B
:101EB0000A2128460DF107020BF0FCFC9DF80730C3
:101EC000002B8AD04FF6FE73421E9A4285D8474BAC
:101ED0001880BDE7204646490BF0CEFC90B10A21A0
:101EE00028460DF107020BF0E5FC9DF80730002BAA
:101EF0003FF473AF374B1B8883427FF66EAF344B92
:101F00001880A5E720463B490BF0B6FC80B1284677
:101F100039490BF0B1FC002837D0304B374A1B68E9
:101F2000A3F50063934246D900222F4B1A708FE726
:101F3000204633490BF0A0FC70B128462E490BF027
:101F40009BFC68B300222F4B1A7081E701222E48B8
:101F50001A700BF0A3FAA8E720462C490BF08CFC72
:101F600000283FF43AAF0DF107020A2128460BF092
:101F7000A1FC9DF80720002A3FF42FAFB0F5803F69
:101F8000BFF42BAF224A108062E7284621490BF0AC
:101F900073FC00283FF421AF0122134B1A7057E75E
:101FA00028461C490BF068FC00283FF416AF0122BC
:101FB000144B1A704CE718480BF070FA0DE700BF8D
:101FC00094B10108A0B10108E0B10108ECB1010829
:101FD000080003200A0003209CB10108040003202C
:101FE000A8B10108ACB10108392C03200C00032072
:101FF000F8B1010808B2010814B20108FFF7FF1F89
:1020000040B20108382C0320B4B1010844B20108E1
:10201000000003209CC5010818B2010810B536481D
:1020200084B00BF03BFA354B01A918880BF070FC1B
:1020300001A80BF033FA324C32480BF02FFA324839
:102040000BF02CFA01A920680BF08CFA002301A8F0
:102050008DF80C300BF022FA2368991C40D05A1CE2
:1020600042D0033344D029480BF018FA284B01A979
:1020700018780BF04DFC01A80BF010FA25480BF076
:102080000DFA254B01A918780BF042FC01A80BF0C2
:1020900005FA22480BF002FA214B01A918880BF02F
:1020A00037FC01A80BF0FAF91E480BF0F7F91E4BAC
:1020B00001A918880BF02CFC01A80BF0EFF91B48C4
:1020C0000BF0ECF91A4B01A918880BF021FC01A8C0
:1020D0000BF0E4F917480BF0E1F9002004B010BD53
:1020E00015480BF0DBF9BEE714480BF0D7F9BAE757
:1020F00013480BF0D3F9B6E74CB2010800000320F7
:102100000400032058B2010860B2010880B201083F
:10211000392C03208CB20108382C032094B201081A
:102120000C000320B8B201080A000320C8B201085D
:1021300008000320B8B0010868B2010870B20108B5
:1021400078B201082DE9F84FFFF7A4F800254FF009
:10215000FF31214E214BDFF890B0DFF89080204F07
:10216000CBF80050C8F8005019607562716A3B885E
:1021700099422BD24FF08044DFF874A0DFF87490BE
:10218000BAF800106562636A8B42FCD34FF40071A9
:1021900014480DF0D5FB134B1969D8F8000041F332
:1021A000002303F00203C1F340210B43411CC1F3A0
:1021B0000B01C8F80010DBF8001009F800300131FD
:1021C000CBF80010716A3B889942D9D301F02EFDFB
:1021D0000020BDE8F88F00BF004801402001032027
:1021E0000000032000040242B83F0320B43F032054
:1021F0000A000320BC3F03202DE9F04F804B91B033
:102200001B88B3F57A7F40F2C480FFF743F872B6BB
:102210007C4B1868831C00F0EC80C71C00F0C78062
:10222000411C00F0BD803024774B784A1978127831
:1022300004AB0094FFF77AF88046002800F0B380E2
:102240004FF0804E724B734A1B88B2F800A0039384
:10225000714B0AEB8A051968694B70481C88704FEE
:102260006D000369DA05FCD5DEF8242092B203691B
:10227000DB05F6D5DEF824309B1AAB42F7D30369B1
:1022800013F4807307D07B6AA34200F2A98003692C
:1022900013F48073F7D11E46CEF82430B8F1000F46
:1022A0001AD04FF08041039ADFF88891DFF86CB1C3
:1022B0000DF1100C4B6A9342FCD3DBF81030524402
:1022C00013F4807F1CF8013B52D0312B52D10136E0
:1022D000B04509F8013BEDD14F4BC3F80080002613
:1022E0004F4D6E626B6AA34237D24C4F02E06B6A6D
:1022F000A34241D23B6913F48073F8D1484A4FF0AE
:102300008041D2F824C0424A1846B2F800904B628D
:102310004A46404BDFF804E1B3F800804B6A934231
:10232000FCD3DEF81030013013F48073C0B21CD03F
:102330000B284244F2D14FF08041A2EB09024B6AD4
:102340009342FCD3364A536AA3EB0C031E44536AF0
:10235000A342CFD3334B03FB06F662B601F066FC13
:10236000274B1B88B6FBF3F010E018464244D5E734
:10237000302BACD0314674E762B601F057FC294BE4
:102380001F4A06FB03F31088B3FBF0F011B0BDE861
:10239000F08F25480BF082F8002011B0BDE8F08FD7
:1023A0004FF000084CE721480BF078F848E74FF071
:1023B0008044184B194A188800EB800040001369CC
:1023C000DE05FCD5616A89B21369DD05F7D5636A5C
:1023D0005B1A9842F8D800236362094B1C887EE799
:1023E0000D4B196062B612480BF058F801F01EFC54
:1023F000D2E74FF0804300225A62014B1C886EE7FF
:102400000000032004000320392C0320382C032073
:10241000080003200A0003203C2C03200004024291
:1024200000480140A0860100DCB201082CB0010880
:10243000F8B20108402C0320344B70B51B680333FD
:10244000012B4AD9FEF726FF00234FF0FF32304E12
:10245000304C314D336023602A6072B62F4A53628C
:10246000FFF7DEF880BB33682D492B602368013B02
:10247000C3F30B03CA5C42F00402CA54FEF780FEA9
:10248000044600283AD162B6264E3368072B2ED96F
:10249000254D28460BF002F824480AF0FFFF336868
:1024A0002846EC54FFF796F9D8B128460AF0F6FF13
:1024B0001F480AF0F3FF2846FFF75EF9FFF786FA98
:1024C00001F0B4FB204670BD62B61A480AF0E6FF80
:1024D00001F0ACFB0124204670BD17480AF0DEFF76
:1024E000F8E716480AF0DAFF01F0A0FBF3E714481A
:1024F0000AF0D4FF01F09AFB204670BD62B6114885
:102500000AF0CCFF01F092FBE4E700BF04000320D7
:10251000B83F0320B43F03202001032000480140BE
:10252000BC3F03203C2C0320402C03208CB301082B
:10253000A4B3010840B301080CB3010894B3010827
:1025400074B301085CB301082DE9F04F93B0FEF7B6
:10255000A1FE00244FF0FF338F4E904D904A34601F
:102560002C60136072B64FF080428E498E488F4BBC
:10257000546204604C621868811C00F0C780C31C60
:1025800000F0F080471C40F0AF80204603944FF0ED
:10259000804E874B874CB3F800B0874B0BEB8B0713
:1025A0001A88864BDFF8FCA1B3F800907F002369FE
:1025B000D905FCD5DEF8241089B22369DB05F6D5F0
:1025C000DEF824305B1A9F42F7D8236913F4807336
:1025D00008D0DAF824304B4500F2B280236913F4B6
:1025E0008073F6D11946CEF82430039B002B00F0FF
:1025F000938010464FF0804C714B0DF118080493F6
:1026000002930597DCF824308342FBD3694B58448E
:102610001B6913F4807F18F8013B72D0312B72D103
:10262000029F013107F8013B039B02978B42E9D1DE
:102630001C4640F69E705C4B59491C603368DFF8BD
:1026400098C10B602B68844203F1FF33C3F30B0383
:102650001CF803100BFB042241F004010CF80310DA
:1026600000F29880039BDFF87481581E049BDFF80A
:1026700044E118444FF08043596A9142FCD3DEF89C
:102680001040D5F8009014F4807F0CBF302731271C
:1026900044F3002101F00201C4F34024214309F175
:1026A0000104C4F30B042C60346800F8017F01348A
:1026B00040450CF8091034605A44DDD140F69F7350
:1026C000394A039313601A460024049B9C5462B653
:1026D00001F0ACFA3A480AF0E1FE3A480AF0DEFEB0
:1026E000204613B0BDE8F08F30230093364B1A78A4
:1026F000364B197806ABFEF719FE039060B32046FF
:1027000045E7302B8CD00846059F50E72A4B546292
:102710001A88274BB3F800B033682149DFF8B8C0F6
:102720000B6000212B680391013BC3F30B031CF8E2
:10273000031041F004010CF80310214B049391E7BE
:10274000194B186062B622480AF0A8FE01F06EFA32
:10275000012013B0BDE8F08F1E480AF09FFE124B17
:10276000186814E7124B1349B3F800B00BEB8B0455
:1027700064000B69D805FCD5506A80B20B69DB0593
:10278000F7D5536A1B1A9C42F8D8002353620A4BB0
:102790001A88C1E7224697E7B83F0320B43F0320D9
:1027A00020010320004801403C2C032004000320AA
:1027B0000A00032000040242080003200000032056
:1027C000402C0320B8B00108382C0320392C0320FA
:1027D000F8B201082CB00108BC3F0320DE3B032007
:1027E0002DE9F04F97B00690002800F04A810BF0D9
:1027F0002BF8B0F57A6F28BF4FF47A60A34E82466B
:10280000336803332ED1FEF745FD00244FF0FF332C
:10281000DFF8B4B2DFF8B4829D4ACBF80040C8F8C4
:102820000040136072B64FF080459A4B6C625C6258
:102830003068994B871C1C6000F04C81C61C00F06E
:10284000FC80411C12D030230093944B1A78944B97
:1028500019780AABFEF76AFD0590002800F0E680C3
:10286000A44605E08F480AF019FECCE7A44605947B
:102870008D4B4FF080441A888C4B02EB82051B88ED
:102880008B4807938B4B834FB3F800901346049209
:102890006D000269D205FCD5616A89B20269D6056C
:1028A000F7D5626A521AAA42F8D3026912F480720A
:1028B00007D07A6A4A4500F2DB80026912F480721E
:1028C000F7D111466262059A002A00F00D814FF09F
:1028D000804C794A079E089203920DF1280E0995C3
:1028E000DCF82420B242FBD3714A049D12692E44C5
:1028F00012F4807F1EF8012B00F08880312A40F00E
:102900008880039D013105F8012B059A03958A42C1
:10291000E6D1049A002507981C46104440F69F7E95
:102920004FF08042DBF80010594EDFF8A4C131604F
:10293000D8F80010584E0139C1F30B011CF8017092
:10294000356047F004075C4E0CF80170516AA142F3
:10295000FCD3AA4548D90699495D312944D030298C
:102960005AD003214FF001090F46516A8842FCD822
:102970004F4901350969C9053BD44FF0300106F8CC
:10298000011B45491C440D60D8F8001018440CF890
:1029900001900131C1F30B01C8F80010DBF8001001
:1029A000754501F10101CBF80010CFD14FF47A60E9
:1029B00000224FF0804100FB03F3089880F89F2F1E
:1029C0004A6A9A42FCD34FF40072394B9A6162B65C
:1029D00001F02CF938480AF061FD38480AF05EFD34
:1029E000002017B0BDE8F08F4FF40071304FB9618F
:1029F000B7E74FF0310106F8011B27491C440D6071
:102A0000D8F8001018440CF80170C2E7302A3FF4DF
:102A100078AF8C46099D3CE74FF000792449C1F816
:102A2000189002214FF000090F469EE724480AF053
:102A300035FD194BD3F800C01AE71B4B1C4C1A8804
:102A4000134602EB820676002169C905FCD5686A47
:102A500080B22169CF05F7D5696A091A8E42F8D884
:102A6000002169621149098807911349089151E7CA
:102A7000094BC3F800C062B612480AF00FFD01F01E
:102A8000D5F8012017B0BDE8F08F00BF0400032087
:102A900020010320004801403C2C0320382C032057
:102AA000392C0320B4B301080A00032008000320D6
:102AB0000004024200000320402C0320B8B00108AB
:102AC0002CB0010840B30108B83F0320B43F0320F5
:102AD000BC3F0320064B07491A88074B6C621B88D2
:102AE00008910793134615E7024A089211E700BFC1
:102AF0000A000320402C0320080003202DE9F04F9A
:102B000095B0FEF7C7FB00224FF0FF33DFF8A4A11A
:102B1000DFF8A4815B49CAF80020C8F800200B60E8
:102B200072B6594B5A62594B1868811C00F0AA8141
:102B3000C31C00F0BE81441C01D191460CE0544BF3
:102B40001A7830230093534B197808ABFEF7EEFB4D
:102B50008146002800F0A9814FF080464E4B4F4A35
:102B60001C884F4B04EB84071B88B2F800B0069317
:102B70004C4B4D481D68DFF810E17F000269D1051C
:102B8000FCD5716A89B20269D205F7D5726A521A08
:102B90009742F8D8026912F4807C08D0DEF824202D
:102BA0005A4500F26481026912F4807CF6D1C6F8BD
:102BB00024C0B9F1000F00F0A0814FF080453B4ADE
:102BC00006990592039208AA049207976A6A8A42B4
:102BD000FCD3354A049F1269214412F4807F17F810
:102BE000012B049700F03881312A40F03881039F8F
:102BF0000CF1010C07F8012BE1450397E6D1069A89
:102C0000C3F8009009FB042100254FF0804240F6F4
:102C10009E7CDAF800001B4E254F3060D8F800008B
:102C2000DFF884E00138C0F30B003E5C039346F00C
:102C300004063E54059800EB0906506A8842FCD30E
:102C4000DEF81000013510F4807FC0F340273846CD
:102C500034D1E14502D84FF030033370D8F800008A
:102C6000134B00251F540130C0F30B00C8F80000BF
:102C7000DAF8000009F10109013021440136CAF8EF
:102C80000000DAE72001032000480140040003208F
:102C9000382C0320392C03200A00032000000320D5
:102CA000080003203C2C032000040242402C032097
:102CB000BC3F0320B83F0320B43F0320E14502D8C6
:102CC0004FF031033370D8F800708F4B40F00200A2
:102CD000D855781CC0F30B00C8F80000DAF80000E3
:102CE000092D00F1010009F10109214406F1010655
:102CF000CAF80000A1D1039B069AC3F8009006937E
:102D0000824B881A5E6A4A465E45DDF8149000F2EE
:102D1000A08040F68E739A4200F29B8000264FF00E
:102D2000804309EB020702F1010C03915A6A8242C7
:102D3000FCD3052E7DD94FF4007275494FF0010E7A
:102D40008A610322039904925A6A8A42FCD3704A28
:102D500003911269D20560D40A46224403923022BC
:102D6000694D3A70D8F80020204405F802E001329D
:102D7000C2F30B02C8F80020DAF800200132CAF8CA
:102D80000020624AD2F824E00CEB0602DE455AD855
:102D90000136102E07F10107C8D15C4B03995B6A1D
:102DA0005B45B6D99146069B4FF08042C3F8009030
:102DB000536A8342FCD3554D6B6A5B4519D84FF07B
:102DC00080434FF0000C4FF000774FF4007604EB97
:102DD00044014F4849002401C3F824C087615A6A5E
:102DE0008A42FCD386615A6AA242FCD36A6A5A4577
:102DF000F2D9B9F57A6F35D20023059A02F8093075
:102E000062B600F013FF43480AF048FB42480AF05C
:102E100045FB002015B0BDE8F08F0A46224403921E
:102E20003122394D04993A70D8F800202044A95431
:102E30009DE74FF0007236494FF0000E8A61022282
:102E40000399049280E7314B03995E6A5E457FF6F1
:102E500060AF9146069BA7E7302A3FF4C8AE6546AF
:102E6000079F8BE60023059A82F89F3FC8E71D6005
:102E700062B62A480AF012FB00F0D8FE012015B015
:102E8000BDE8F08F4FF08045224E254C254B26485B
:102E900005966A62254902882488D3F80090B1F823
:102EA00000B0069209FB0421AEE621480AF0F6FACA
:102EB00052E64FF080421A4B15491C8804EB8400FF
:102EC00040000B69DF05FCD5556AADB20B69DE0524
:102ED000F7D5536A5B1B8342F8D300235362124A2F
:102EE000104B1188114AD3F80090B2F800B0094A8B
:102EF0000691059209FB041186E6064A0699C3F875
:102F00000090059280E600BFBC3F032000480140CE
:102F100000040242402C0320B8B0010840B301086D
:102F20000A0003203C2C032008000320000003209B
:102F30002CB001082DE9F04FB74C95B023680690EE
:102F40000333012B40F2A281FEF7A4F900254FF0D4
:102F5000FF33DFF8F8A2DFF8F8B2B04ACAF8005041
:102F6000CBF80050136072B64FF08042AC4B5D62FC
:102F7000AC4B1D6055622068811C00F0A181C31C10
:102F800000F0A881441C40F090802B462C464FF066
:102F9000804EA54AA5481688A54A06EB86051288E4
:102FA000DFF87C820592A34A6D00B2F80090A24A35
:102FB00004920269D105FCD5DEF8241089B20269B9
:102FC000D205F6D5DEF82420521A9542F7D80269C8
:102FD00012F4807208D0D8F824204A4500F24781C4
:102FE000026912F48072F6D1CEF82420002C00F091
:102FF0008B814FF08047904B059903930DF1200C86
:1030000007957B6A8B42FCD3884B31441B6913F4D0
:10301000807F1CF8013B57D0312B57D1039D0132E3
:1030200005F8013B94420395EBD17E4B1C60059B58
:1030300006FB0433069A002702F1060E40F69E7C3A
:103040004FF08042DAF8001074487C4D0160DBF8E4
:103050000010DFF8D8810139C1F30B01685C40F042
:103060000400685404990819516A9942FCD3D8F8AD
:10307000101011F4807F2CD16445C1F3402102D897
:103080004FF030070770DBF800700134E955013765
:10309000C7F30B07CBF80070DAF8001000270131F6
:1030A00033440130CAF80010DEE730230093644B4C
:1030B0001A78644B197808ABFEF738F904460028F3
:1030C00000F0F8802B4662E7302BA7D01346079D0F
:1030D0006FE7644507F10107C1F3402103D84FF0C2
:1030E000310980F80090DBF8009041F0020105F80A
:1030F000091009F10109C9F30B01CBF80010DAF846
:103100000010BE4501F10101CAF80010334400F17E
:10311000010004F1010101D90C46A5E74FF08047F9
:10312000059A981A7A6A8242FCD34FF0007C4FF0DD
:1031300080473E4AC2F818C07A6A9A42FCD33B4A9A
:10314000126912F4807C18BF4FF0020CDBF80020EB
:1031500018BF312705F802C002F10102C2F30B02C9
:10316000CBF8002040F69E72DAF800C008BF302786
:103170000CF1010C9142CAF800C040F28E8002347A
:10318000284F94423C60304433447AD8049A4FF438
:10319000007E54184FF003094FF08042DFF8B4C0AE
:1031A000224F516A8142FCD3C7F818E0516A994214
:1031B000FCD33969C9054FD44FF030014FF00108F5
:1031C00004F8011FDBF800103044334405F8018097
:1031D0000131C1F30B01CBF80010DAF8001064459F
:1031E00001F10101CAF80010DBD140F69F730D4ACE
:1031F000136040F69F7300220499CA5462B600F02F
:1032000015FD0D480AF04AF90F480AF047F9002069
:1032100015B0BDE8F08F00BF04000320200103209B
:10322000004801403C2C03200A0003200004024215
:103230000800032000000320402C0320BC3F032093
:10324000382C0320392C0320B8B00108B83F0320E4
:10325000B43F0320DE3B03204FF0310104F8011F8F
:10326000DBF800103044334405F80190B0E7284AF9
:103270002848144613600AF011F92368B3F57A6FF1
:10328000B9D30023049A82F89F3FB7E722480AF097
:1032900005F9012015B0BDE8F08F049A02345754A7
:1032A0001B4A3044146040F69F72944233447FF4CA
:1032B0006DAF9EE719480AF0F1F8154B1B6866E6FA
:1032C0005562174B174A1B881688174A2C460593D8
:1032D0000492AFE6134B15491E8806EB8604640082
:1032E0000B69DF05FCD5506A80B20B69DD05F7D5A7
:1032F000536A1B1AA342F8D30024094B54621B885B
:10330000094ACDE9042395E6014B1C60059B91E633
:103310003C2C0320F8B30108E4B301082CB00108E9
:10332000080003200A000320402C0320000402426E
:10333000984B2DE9F04F1B6893B00333012B40F2FB
:103340001D818246FDF7A6FF72B60023924D934A77
:103350006B626B6AB2F800B05B4580F0D980904C2C
:103360000AF1060A00274FF080418A4B4F621E681F
:103370008C4BB21C1F6000F0D480F31C00F0E28084
:10338000711C00F0CC8030230093874B30461A78B4
:10339000864B197806ABFDF7C9FF8046002800F080
:1033A000C8804FF0804C824B1888824B00EB800E17
:1033B0001B884FEA4E0E04932369DA05FCD5DCF82E
:1033C000242092B22369DB05F6D5DCF824309B1A61
:1033D0007345F7D3236913F4807307D06B6A5B4599
:1033E00000F2C980236913F48073F7D11A46049957
:1033F000CCF82430B8F1000F1DD04FF080476E4B51
:103400000DF11809039305967B6A8B42FCD323695F
:10341000014413F4807F19F8013B21D0312B21D1D5
:10342000039E013206F8013B90450396ECD1DDE99D
:10343000043602FB00314FF0000C4FF080470132A0
:103440007B6A8B42FCD323690CF1010C13F480736B
:1034500002F1010E09D0E24501440AD97246EFE7B4
:10346000302BDDD01746059EA6E79C46014401326D
:10347000E6E74C4B1A604FF08042049BC91A536A2E
:103480008B42FCD34FF000734FF080420144A361A4
:10349000536A8B42FCD34FF40077A7616B6A5B459C
:1034A00036D202367FF45EAF4FF080414FF0000C11
:1034B0004FF000793E4B3A4D1E883E4BDFF8D880E6
:1034C000B3F800E0002472462046C1F824C0C1F8D9
:1034D00024C04B6A9A42FCD82B69013013F48073E4
:1034E00053D0824504F101043244F2D8A2EB0E021B
:1034F0004B6A9A42FCD8C5F8189032444B6A9A42FB
:10350000FCD8AF61D8F824309B45DBD8254B1C6034
:1035100062B600F08BFB002013B0BDE8F08FB84618
:103520003FE7244B4F621988214B3A461888049193
:1035300081E7224809F0B2FF1A4B1F68174BB3F816
:1035400000B02EE71A4B164A188800EB800C4FEAA1
:103550004C0C1369DF05FCD54F6ABFB21369DB055C
:10356000F7D54B6ADB1B6345F8D30022114B4A6247
:10357000198804915FE70B4B1F60C9E7104809F0F9
:103580008DFF012013B0BDE8F08F1846013432449E
:103590009FE700BF04000320004801400000032013
:1035A000000402423C2C0320382C0320392C032039
:1035B0000A00032008000320402C03202CB001083F
:1035C000E4B301088F4B2DE9F04F1A688E49B2F52C
:1035D000805F1546144628BF4FF480558B4B0988F1
:1035E0001B888BB08A48019202910393A2EB050BD2
:1035F00009F054FF002C40F0EE804FF0310A012614
:10360000844809F04BFF4FF03008504637468DF89C
:10361000100021204FF020098DF8110004A8ADF80A
:10362000129009F03BFF222304A88DF811308DF889
:1036300010A0ADF8129009F031FF4FF0230304A859
:103640008DF811308DF81080ADF8129009F026FF3A
:10365000714809F023FF019B002B00F0B4800BF1AF
:1036600001094B4540F2AC80DDE90232A3FB028A3E
:10367000019B6A4AED1A18EB08034AEB0A0113EBA7
:1036800008034AEB0101C90041EA5371DB0013EB67
:1036900008034AEB010A4FEA530E01354EEACA7E8F
:1036A0004FEA5A035D4402939346CDF80CE049E09B
:1036B000564500F08C804FF023038DF81030039BAB
:1036C0000DF11102A5FB0301029B05FB031109F09B
:1036D000D1FF02460AAB02F1010C023253FA8CFC14
:1036E00053FA82F20D214FF0000304A80CF8181CC5
:1036F00002F8183C09F0D2FE56450CD022238DF872
:103700001130202304A8ADF8123006F130038DF8F3
:10371000103009F0C3FE44450DD04FF023038DF85F
:103720001130202304A8ADF8123004F130038DF8D5
:10373000103009F0B3FE019B09F101094B4505F179
:1037400001053DD93A46C9F30B01A0461BF80140DB
:10375000B24604F001079742C4F34006C4F3800464
:10376000A6D04FF023038DF81030039B0DF111020A
:10377000A5FB0301029B05FB031109F07BFF024639
:103780000AAB02F1010C023253FA8CFC53FA82F2BA
:103790000D214FF0000304A80CF8181C02F8183C87
:1037A00009F07CFE21228DF81120202204A8ADF81A
:1037B000122007F130028DF8102009F06FFE9BE710
:1037C000174809F06BFE00200BB0BDE8F08F4445B0
:1037D0007FF471AFAFE7114ACBF30B03D45C0D4814
:1037E00004F0010709F05AFEC4F34006002FC4F3A9
:1037F00080040CBF3020312006F1300A04F130087B
:1038000005E700BFB83F03200A0003200C00032097
:103810000CB40108A0B40108B0B40108BC3F0320F7
:10382000B8B00108034600B583B008465BBA02226F
:103830000DF10601ADF8063009F0FAFF03B05DF8AE
:1038400004FB00BF8446002310B50C4682B00DF186
:10385000060002226146ADF8063009F0E9FF012CAE
:103860008CBFBDF806009DF8060040BA80B202B0D9
:1038700010BD00BF8446002310B50C4682B00DF188
:10388000060002226146ADF8063009F0D1FF012C96
:103890008CBFBDF806009DF8060040BA80B202B0A9
:1038A00010BD00BF034600B583B008465BBA0222D4
:1038B0000DF10601ADF8063009F0BAFF03B05DF86E
:1038C00004FB00BF8446002310B50C4682B00DF106
:1038D000060002226146ADF8063009F0A9FF012C6E
:1038E0008CBFBDF806009DF8060040BA80B202B059
:1038F00010BD00BF8446002310B50C4682B00DF108
:10390000060002226146ADF8063009F091FF012C55
:103910008CBFBDF806009DF8060040BA80B202B028
:1039200010BD00BF034600B583B008465BBA022253
:103930000DF10601ADF8063009F07AFF03B05DF82D
:1039400004FB00BF8446002310B50C4682B00DF185
:10395000060002226146ADF8063009F069FF012C2D
:103960008CBFBDF806009DF8060040BA80B202B0D8
:1039700010BD00BF034600B583B008465BBA022203
:103980000DF10601ADF8063009F052FF03B05DF805
:1039900004FB00BF8446002310B50C4682B00DF135
:1039A000060002226146ADF8063009F041FF012C05
:1039B0008CBFBDF806009DF8060040BA80B202B088
:1039C00010BD00BF8446002310B50C4682B00DF137
:1039D000060002226146ADF8063009F029FF012CED
:1039E0008CBFBDF806009DF8060040BA80B202B058
:1039F00010BD00BF0870704700787047002300B505
:103A0000012983B0ADF8063003D8184603B05DF83D
:103A100004FB014602220DF1060009F009FF9DF8A2
:103A2000060003B05DF804FB00787047087070472B
:103A3000007870478446002310B50C4682B00DF123
:103A4000060002226146ADF8063009F0F1FE012CB5
:103A50008CBFBDF806009DF8060040BA80B202B0E7
:103A600010BD00BF034600B583B008465BBA022212
:103A70000DF10601ADF8063009F0DAFE03B05DF88D
:103A800004FB00BF8446002310B50C4682B00DF144
:103A9000060002226146ADF8063009F0C9FE012C8D
:103AA0008CBFBDF806009DF8060040BA80B202B097
:103AB00010BD00BF0078704700787047844600232F
:103AC00010B50C4682B00DF1060002226146ADF839
:103AD000063009F0ADFE012C8CBFBDF806009DF844
:103AE000060040BA80B202B010BD00BF0078704737
:103AF0002DE9F04F3C4B8346984283B007D83B4BAF
:103B0000984269D94FF028094FF4487E0BE04FF0F6
:103B1000250940F2EE2E364BB3FBFBFC5FFA8CFC22
:103B2000BCF1190F5DD90120314B013080B2B3FBDC
:103B3000F0FCBCFBFBFC5FFA8CFCBCF1190FF4D869
:103B4000B0F5806F42D201236FF000444FF47A76D3
:103B50005A460093274B1F68431C1FFA83FAACF1A7
:103B60000208B8EB5C0F4FEA5C0120DD0CF1FF3B73
:103B70005FFA8BFBCDF804A006FB01F5B5FBFCF565
:103B8000BEEB050A48BFA5EB0E0AA2450ADAD145ED
:103B900008DB002554460095ABEB0105EDB2F96159
:103BA00078613D6201314145E6DBDDF804A0104952
:103BB00098B2B1FBFAFCBCFBF2FCB0F5806F0AF1E5
:103BC000010A5FFA8CFC03D0431CC8E70123009371
:103BD000009803B0BDE8F08F4FF02B0940F26B3E28
:103BE00099E70120AFE700BF00350C0020A10700D6
:103BF000005A6202D83C032038B50C46064D0749EE
:103C0000074B0A602860074901201C6012F0EAFB9C
:103C1000054B186038BD00BFD83C0320D03C0320C2
:103C2000D43C0320E83B0320383C032030B53F4C14
:103C300083B020680AF028FF20680AF06DFD002894
:103C400051D100223A4D40213A482A71EA602A6156
:103C50006A61AA61AA60EA6185F820200BF06AFE19
:103C6000206805F124010AF041FE00285BD13249A9
:103C700020680AF03BFE002852D10023022220686F
:103C8000114600930AF05EFE002846D120680AF033
:103C90009FFE00283ED10022012120680BF056F83B
:103CA000A8BB0022062120680BF050F860BB072259
:103CB0004FF4F05120680BF049F810BB0722802127
:103CC00020680BF043F8C8B900221C4920680BF0AB
:103CD0003DF880B900224FF4602120680BF036F8DF
:103CE00020B903B030BDFDF73DFAAAE703B0BDE847
:103CF0003040FDF737BAFDF735FAEBE7FDF732FA5A
:103D0000E2E7FDF72FFAD9E7FDF72CFACFE7FDF749
:103D100029FAC6E7FDF726FABDE7FDF723FAB5E76E
:103D2000FDF720FAA9E7FDF71DFAA0E7D83C03202C
:103D300010000320000402424C00032000407100E8
:103D4000014B18680AF0A0BED83C0320082824D8EC
:103D5000DFE800F0080C1014171A1D2005001448A5
:103D6000FFF7C6BE42F21070FFF7C2BE44F62060F5
:103D7000FFF7BEBE4CF25030FFF7BABE0D48FFF75A
:103D8000B7BE0D48FFF7B4BE0C48FFF7B1BE0C48F4
:103D9000FFF7AEBE0B48FFF7ABBE0B4AA0F51C53B6
:103DA000103B934201D901207047FFF7A1BE00BF2D
:103DB00040420F00A086010048E8010090D00300B7
:103DC00020A1070000350C00301B0F000346054AF8
:103DD0001978002051615978D16199781162DB78A6
:103DE00093617047482B03200246024B00209A61E2
:103DF000704700BF482B0320034600B5074A93F8DD
:103E000001E093F800C082F810E005499B7881F842
:103E100000C0537400205DF804FB00BF482B032052
:103E2000680703202DE9F0470546C0680F4609F0F2
:103E3000F3FCAB68B3F1005F3CD00646824600F16C
:103E40002409254C4FF0FF31206812F0D5FB0128E2
:103E5000F8D1DFF89080D8F8000012F0BDFD484599
:103E600015D202251D4A13792B43137100232068B4
:103E70001A46194612F01AFA002319490222096853
:103E80000868194613F0EEFF2846BDE8F08729467A
:103E90004FF0FF332422D8F8000012F0BBFD054696
:103EA00086B94D450CD00D4A0125137943F008031E
:103EB0001371DBE74FF0000A4FF024095646C0E7C4
:103EC0000025D3E7524639464FF0FF33D8F80000BB
:103ED00012F0A0FD0544E4E7383C03201000032065
:103EE000D43C0320E03B032030B401220024102006
:103EF0000A4B04211B684FF440751C82C3E905205E
:103F0000DC6018623F240F209A74C3E90125DC614C
:103F1000C3E9092130BC1963D8627047D83C03203B
:103F200000232DE9F0430C4683B0C90705460193F1
:103F300016D4A20707D502212D4A137943F00103B5
:103F400013712B681965630735D4019B2BB14FF0B2
:103F5000E0234FF08052C3F8042D03B0BDE8F08396
:103F6000DFF89880224F42464021224B0AF004FE9F
:103F70007B69D8F80C0001337B6109F04DFCDFF858
:103F800080900646D9F8000012F026FD06F12803BD
:103F9000984223D341462822D9F8000001AB12F001
:103FA000BDFD002EC5D03246D9F80000114901AB45
:103FB00012F0B4FDBDE704240D4B0F499A6909685E
:103FC00001329A611A7942F008021A712B68086866
:103FD0000DEB04011C6514F02FF8B6E7064ABB6927
:103FE00012680133106801A9BB6114F025F8A0E73D
:103FF00010000320903C0320D03C0320683C0320A9
:10400000E43B032010B500240A4A0B4913690968F0
:1040100082B00868013301A91361019414F00CF80F
:10402000019B2BB14FF0E0234FF08052C3F8042DD9
:1040300002B010BD10000320D43C032010B50024B2
:104040000A4A0B49D369096882B00868013301A99B
:10405000D361019413F0F0FF019B2BB14FF0E023EB
:104060004FF08052C3F8042D02B010BD10000320A1
:10407000D03C032038B50C46104D29460AF01CFEF2
:10408000A10303D5EB68A3B90D4A1360620309D5F8
:104090002B690B4A012B13790CBF43F0040303F087
:1040A000FB031371230303D50122054B83F8202062
:1040B00038BD4FF00042024B1A60E7E73C3C03205A
:1040C00010000320F0B500250B7885B00746029557
:1040D0000395CBB10C460DF1FF3608E02046D5B272
:1040E00009F03CFB14F8023F06F8010F23B1637896
:1040F0006A1C0BB3072DF1D18DF808502A4669468A
:104100000DF1090015F0BBFB00230E4C0820C4E99B
:104110000533C4E90133276009F084FB0822034614
:104120000DEB02010848E36009F082FB20460649D6
:10413000FFF778FE05B0F0BD8DF80850002DDDD1F9
:10414000E2E700BFE83C0320DC3C03202DE9F0431C
:1041500089B006460D4607F021FC012800F0898150
:1041600042F2020300249D42745500F2B480002DF7
:1041700000F08881701E691E84460346314405E0C4
:104180000A2A1CBF325501348B4209D013F8012F83
:10419000082AF5D1002CF7D08B4204F1FF34F5D179
:1041A00000218C42315540F372810A4603191CF8F4
:1041B000010F202800F0858082B99C4501F10101A2
:1041C0000CF101000CD09CF80140202C7BD09842CF
:1041D00006D01CF8022F203A18BF01229C45E6D1D8
:1041E0000C463046AD4915F005FA0546002800F0AA
:1041F0009E80AB49FCF724F8002876D1012C40F2D0
:10420000DA80A649002015F0F5F9A6490446FCF726
:1042100017F8002800F08F802046A349FCF710F81B
:10422000002800F0BD812046A049FCF709F80028CD
:1042300040F02F819E4809F031F99E4809F02EF98F
:104240009B4809F02BF99C4809F028F99B4809F094
:1042500025F9994809F022F9994809F01FF9994878
:1042600009F01CF9944809F019F9974809F016F972
:10427000964809F013F9904809F010F9944809F0AC
:104280000DF9944809F00AF98B4809F007F99248AA
:1042900009F004F9914809F001F9914809F0FEF894
:1042A000904809F0FBF8904809F0F8F88F4809F0B9
:1042B000F5F88F4809F0F2F88E4809F0EFF88E48CB
:1042C0006DE000228AE798428AD01CF8020F20286D
:1042D0007FF473AF82E7894809F0E0F8884809F075
:1042E000DDF8002009B0BDE8F08328468549FBF7DA
:1042F000A7FF002882D028468349FBF7A1FF0028AA
:104300003FF47CAF28468149FBF79AFF00283FF431
:1043100075AF28466549FBF793FF002840F0878179
:10432000022C00F0A0817A4809F0B8F8D6E7794865
:1043300009F0B4F8D2E75E4809F0B0F85D4809F03A
:10434000ADF85B4809F0AAF85B4809F0A7F8724895
:1043500009F0A4F8584809F0A1F8594809F09EF866
:104360006E4809F09BF8544809F098F8564809F04F
:1043700095F86B4809F092F84F4809F08FF85448C7
:1043800009F08CF8674809F089F84B4809F086F87D
:10439000514809F083F8644809F080F8634809F04F
:1043A0007DF8454809F07AF8414809F077F8604807
:1043B00009F074F892E73E4809F070F83D4809F0BA
:1043C0006DF83B4809F06AF83B4809F067F859482E
:1043D00009F064F8384809F061F8574809F05EF8C8
:1043E000564809F05BF8564809F058F8554809F066
:1043F00055F8554809F052F8544809F04FF8544818
:1044000009F04CF8534809F049F8534809F046F8C8
:10441000524809F043F8524809F040F8514809F071
:104420003DF8514809F03AF8504809F037F850483B
:1044300009F034F84F4809F031F84F4809F02EF8E8
:104440004E4809F02BF84E4809F028F84D4809F07D
:1044500025F84D4809F022F84C4809F01FF8164895
:1044600009F01CF84A4809F019F8114809F016F843
:1044700034E709F035F80421464808F0A1FF07F0B9
:1044800099FA2EE73570444809F008F826E7FAD083
:10449000A6E6424809F002F889E700BFD8B401084F
:1044A00008B5010824B50108C4B601084CB80108D4
:1044B0002CB501086CB50108B8B0010854B8010862
:1044C000A8B5010868B80108ECB50108A4B801084E
:1044D00010B60108B8B8010864B6010804B90108AB
:1044E00024B9010838B9010858B901086CB90108A4
:1044F0008CB90108A0B90108CCB90108C0B4010801
:1045000038D7010810B5010818B5010820B5010811
:10451000C8C10108DCB4010898B50108B8B50108A4
:10452000F4B501081CB6010870B60108B4B601085C
:1045300008BA01085CBA010800BB01080CBB0108FD
:1045400080BB010808BC010834BC010884BC010818
:10455000D4BC010824BD01087CBD0108E8BD0108E8
:1045600010BE01083CBE01089CBE010804BF010842
:1045700050BF010894BF0108C0BF010818C001085E
:1045800070C00108BCC00108F0C001083CC10108AE
:10459000A8C10108B8B40108D4B40108E0B9010801
:1045A000874808F07BFF874808F078FF844808F0C8
:1045B00075FF854808F072FF844808F06FFF824855
:1045C00008F06CFF824808F069FF824808F066FF37
:1045D0007D4808F063FF804808F060FF7F4808F0DE
:1045E0005DFF794808F05AFF7D4808F057FF7D4885
:1045F00008F054FF744808F051FF7B4808F04EFF64
:104600007A4808F04BFF7A4808F048FF794808F0EC
:1046100045FF794808F042FF784808F03FFF7848A6
:1046200008F03CFF774808F039FF7748B7E628469E
:104630007649FBF705FE28B9022C6CD0744808F0C7
:104640002DFF4BE628467349FBF7FAFD002851D1B0
:10465000012C00F07581A31E012B40F2FB806E48F7
:1046600008F01CFF3AE66D4914F0C4FF03780446D5
:10467000002B3FF433AE051D413B232B13D8DFE85D
:1046800003F0352D251D12121212121212121212DF
:1046900012121212121212121212121212121212FA
:1046A0001212352D251D5E4808F0F8FE14F8013F62
:1046B000002B3FF413AEA542DED10FE6594808F0B7
:1046C000EDFE0021442003F0D7FDEFE7564808F047
:1046D000E5FE0021432003F0CFFDE7E7534808F053
:1046E000DDFE0021422003F0C7FDDFE7504808F05F
:1046F000D5FEDBE728464F49FBF7A2FD002851D144
:10470000012C00F02581A31E012B40F2D8804A48DD
:1047100008F0C4FEE2E5414914F06CFF037804465A
:10472000002B3FF4DBAD051D413B232B13D8DFE805
:1047300003F0352D251D121212121212121212122E
:104740001212121212121212121212121212121249
:104750001212352D251D324808F0A0FE14F8013F35
:10476000002B3FF4BBADAC42DED1B7E5334808F0D7
:1047700095FE0121442003F07FFDEFE7304808F06B
:104780008DFE0121432003F077FDE7E72D4808F077
:1047900085FE0121422003F06FFDDFE72A4808F083
:1047A0007DFEDBE728462949FBF74AFD002840F05B
:1047B000DC80032C00F0FA80254808F06FFE8DE5C0
:1047C0002CB501086CB50108B8B00108CCB60108D9
:1047D000A8B50108E0B60108ECB501081CB701084E
:1047E00010B6010830B7010864B601087CB70108AB
:1047F0009CB70108ACB70108CCB70108DCB70108C9
:10480000FCB701080CB8010838B80108C4B60108A3
:10481000F8C20108D0C30108F0C30108D8B40108E8
:10482000D0C20108ACC2010888C2010864C20108F4
:1048300018C20108A0C40108C4C40108ACC301081F
:1048400088C3010864C3010848C3010860C50108A2
:1048500064C50108B149002014F0CCFE08F0A4FFA3
:10486000B0F5006F68D2AE4D022C28604FF000000A
:1048700000F09480A94914F0BDFE064608F0E4FF5C
:10488000C10755D4102853D888B1431EC3F34E0432
:10489000B71CDFF8208307EB4407304608F05EFFC3
:1048A0000236BE4208F8010FF7D1631CD8B208F0F7
:1048B000B9FF03469B48EB6008F0F0FD0EE5974911
:1048C000002014F097FE08F06FFFB0F5006F80F045
:1048D000A081954F022C386000F0918111F06EFBA1
:1048E000282111F06DFB8D49002014F083FE06464F
:1048F00008F0AAFFC20704461AD4102818D8354673
:10490000DFF8B48205E0284608F028FF023508F8F1
:10491000010BAB1B9BB29C42F5D8601CC0F3470057
:1049200008F080FF03468148FB6008F0B7FDD5E43E
:104930007F4808F0B3FDD1E47E4808F0AFFDCDE438
:104940004FF0FF32764B7C481A6008F0A7FDC5E4B3
:104950004FF0FF32744B79481A6008F09FFD11F058
:104960002DFB182111F02CFBB8E428467449FBF705
:1049700067FC28B9032C67D0724808F08FFDADE4BE
:1049800028467149FBF75CFC002840F06981022C45
:1049900000F044816D4808F081FD9FE408F042FF7B
:1049A00003466B48EB6008F079FD97E45B49002013
:1049B00014F020FE59490546002014F01BFE00218A
:1049C0000A2214F0DDFC634904462846FBF738FC54
:1049D000002800F00E8128465F49FBF731FC0028D3
:1049E00000F0018128465D49FBF72AFC002800F011
:1049F000F48028465A49FBF723FC002800F0E780A2
:104A000028465849FBF71CFC002800F0D7802846B0
:104A10005549FBF715FC002877D028465349FBF78A
:104A20000FFC002868D028465149FBF709FC0028F4
:104A30005ED1002C41D14F4808F030FD02224E4B90
:104A4000DA60FFF7F3F849E4344914F0D3FD4B4939
:104A50000446FBF7F5FB002847D020464849FBF702
:104A6000EFFB00283ED020464649FBF7E9FB002833
:104A700035D020464449FBF7E3FB68B32046434961
:104A8000FBF7DEFB20BB424808F008FD0024234969
:104A9000002014F0AFFD054608F0D6FE421E92B28B
:104AA0000D2A034610D8DB070ED420462946FFF70F
:104AB00009FB384808F0F2FC10E4374808F0EEFC37
:104AC00000222D4BDA60BCE7344808F0E7FC05E42F
:104AD000334808F0E3FCD9E740F2E374D7E740F24B
:104AE000E274D4E740F2E174D1E740F2DF74CEE73C
:104AF0002C4808F0D3FCA4E7003C18BF01242A4B43
:104B00002A481C7008F0CAFC9BE7003C18BF01242F
:104B1000194B27485C7408F0C1FC92E7D8B401082F
:104B2000403D032074C40108143D032038C501082A
:104B30005CC4010818C40108D8C30108A8C401084E
:104B4000C4C60108C8C60108B0C70108B8C7010833
:104B50003CC40108E0B1010898C50108B4C50108CA
:104B6000D0C50108E8C501081CC6010848C60108EF
:104B700074C6010878C60108482B032004C7010841
:104B800008C701080CC7010810C7010814C70108AD
:104B900018C701089CC7010894C6010870C701081E
:104BA0004CC70108ACC601086807032054C60108B9
:104BB0002CC60108373D03200C3D0320003C18BFE4
:104BC0000124964B96481C7408F068FC39E7934B17
:104BD00094489C6108F062FC33E7904B92481C6259
:104BE00008F05CFC2DE78D4B9048DC6108F056FC2A
:104BF00027E78A4B8E485C6108F050FC21E70020D3
:104C000008F010FE03468B48FB6008F047FCFFF7F6
:104C100065BB894808F042FCFFF760BB874914F088
:104C2000E9FC451E041D15F8012FA2F12A03002AF4
:104C30003FF454ABA5423FF451AB1A2B00F2C480B1
:104C4000DFE803F0B9C2C2C2C2C2C2C2C2C2C2C29B
:104C5000C2C2C2C2C2C2C2C2C2C2C2B5AC241B005E
:104C600028467749FBF7ECFA00283AD1022C16D0F7
:104C7000744808F013FCFFF731BB734808F00EFCD2
:104C800040F2E3707149FFF71DFACCE7704808F075
:104C900005FC40F2E2706D49FFF714FAC3E767497B
:104CA00014F0A8FC451E041D15F8012FA2F12A03DB
:104CB000002A3FF413ABA5423FF410AB1A2B00F2CD
:104CC0009080DFE803F0858E8E8E8E8E8E8E8E8E97
:104CD0008E8E8E8E8E8E8E8E8E8E8E8E8E675E25B4
:104CE0001C0028465B49FBF7ABFA064600283AD180
:104CF000012C16D0584808F0D1FBFFF7EFBA5748FF
:104D000008F0CCFB40F2E3705549FFF7DBF9CBE745
:104D1000544808F0C3FB40F2E2705149FFF7D2F962
:104D2000C2E7464914F066FC4F4808F0B7FB30462E
:104D300003F0DCFA322011F055F92146422003F04D
:104D40009BFA06F0DDFE11F04DF92146432003F0F9
:104D500093FA06F0D5FE11F045F92146442003F000
:104D60008BFAFFF7BBBA28464049FBF769FA0028DF
:104D700040F08C80022C38D03D4808F08FFBFFF7C4
:104D8000ADBA3C4808F08AFB40F2E1703449FFF7C5
:104D900099F989E7384808F081FB85E7374808F03A
:104DA0007DFB40F2E1702949FFF78CF93BE732487F
:104DB00008F074FB37E7324808F070FB40F2DF7010
:104DC0002249FFF77FF92EE72E4808F067FB2AE714
:104DD0002D4808F063FB40F2DF702149FFF772F9BC
:104DE00062E7284808F05AFB5EE7144914F002FC19
:104DF000451E041D15F8012FA2F14103002A3FF4BE
:104E00006DAAA5423FF46AAA032B00F2C583DFE82E
:104E100013F01C0213020A025F0000BF482B03209C
:104E2000F4C50108D4C50108BCC50108A0C5010826
:104E300080C5010818C50108ECC40108D8B40108F0
:104E400068C8010870C8010854C80108F8C70108FB
:104E500040C801081CC9010828C90108FCC801088C
:104E6000B0C80108DCC8010850C90108ACC9010874
:104E7000B8C90108BCC8010804C801082CC8010849
:104E8000D4C701084CC7010888C801082846A449AE
:104E9000FBF7D6F9002800F08B812846A149FBF7E3
:104EA000CFF9002800F0848128469F49FBF7C8F914
:104EB000002800F0318128469C49FBF7C1F9002801
:104EC0004AD1022C0DD09A4808F0E8FAFFF706BA4A
:104ED000984808F0E3FA40F2E3709749FFF7F2F8D8
:104EE00088E79649002014F085FB95490446FBF7B6
:104EF000A7F9002800F0088120469249FBF7A0F9A5
:104F0000002800F0F98020468F49FBF799F9002826
:104F100000F0728220468D49FBF792F9002800F0DC
:104F2000638220468A49FBF78BF9002800F05482FF
:104F300020468849FBF784F9002800F04582204686
:104F40008549FBF77DF980BB072005F0EBFA834824
:104F500008F0A4FAFFF7C2B928468149FBF770F9B7
:104F6000002800F08A8028467E49FBF769F900286E
:104F700000F0838028467C49FBF762F900287CD04A
:104F800028467A49FBF75CF9002876D0284678490C
:104F9000FBF756F900285ED1012C21D0022C09D94B
:104FA000744808F07BFAFFF799B9734808F076FA6D
:104FB000FFF794B9614914F01DFB451EC41C15F898
:104FC000012FA2F14103002A3FF488A9A5423FF432
:104FD00085A9032B00F28C82DFE803F0392A1B0C31
:104FE000664808F05BFAC82010F0FCFF09F01EF9D3
:104FF000FFF774B9624808F051FA0021442003F029
:105000003BF9322010F0EEFF0121442003F034F987
:10501000D5E75C4808F042FA0021432003F02CF960
:10502000322010F0DFFF0121432003F025F9C6E70D
:10503000554808F033FA0021422003F01DF93220D0
:1050400010F0D0FF0121422003F016F9B7E74F48D6
:1050500008F024FAB3E728464D49FBF7F1F8002899
:1050600040D028464B49FBF7EBF838BB022C07D061
:10507000494808F013FAFFF731B90120FFF732B9B8
:105080002E4914F0B7FA2E490546FBF7D9F8002847
:1050900000F0C28128462B49FBF7D2F8002800F027
:1050A000B38128462849FBF7CBF800BB032004F066
:1050B0005BFF3A4808F0F2F9FFF710B92846384983
:1050C000FBF7BEF8002840F0B48101F00BF900288E
:1050D00000F0AA81334808F0E1F9012001F012F94B
:1050E000FFF7FCB8304808F0D9F9FFF7F7B82F48B8
:1050F00008F0D4F9FFF7F2B8022005F013FA1748C8
:1051000008F0CCF9FFF7EAB8012005F00BFA1348D4
:1051100008F0C4F9FFF7E2B806F04CFCFFF7DEB880
:105120006CCA010870CA010874D3010824B50108CB
:105130007CD3010828CA0108F8C90108D8B40108BD
:105140009CC5010884D80108D8D30108DCD3010824
:10515000E0D30108E4D30108E8D30108CCD3010867
:105160001CD4010820D4010828D4010830D4010837
:1051700038D4010890D40108ECD3010840D40108C8
:1051800088D5010874D5010860D5010814D5010837
:105190009CD5010820D6010828D6010870D6010840
:1051A000B4D60108BCD60108A4D5010884D60108EC
:1051B000012C40F25C810020CF4914F01BFA054617
:1051C00000283FF48BA8CD49FBF73AF8002800F0FF
:1051D00049812846CA49FBF733F8002800F03E8190
:1051E0002846C849FBF72CF8002800F02D812846F6
:1051F000C549FBF725F80646002800F090802846B0
:10520000C249FBF71DF8002800F082802846C049FB
:10521000FBF716F8064678BB032C1AD0BD4808F0F9
:105220003DF9FFF75BB8BC4808F038F940F2E2708E
:10523000BA49FEF747FFDDE5B94808F02FF940F21B
:10524000E170B649FEF73EFFD4E5B64808F026F90E
:10525000D0E5A94914F0CEF90A216A468DF800601C
:1052600008F028FB9DF800300446012B10D0AE4812
:1052700008F014F9FFF732B82846AC49FAF7E0FF16
:1052800048BB032C0FD0AA4808F008F9FFF726B84E
:10529000A84808F003F9E0B2FEF74AF8A64808F07B
:1052A000FDF8FFF71BB89449002014F0A3F9002380
:1052B0000A216A468DF8003008F0FCFA9DF80030AB
:1052C0000446012BD3D19B4808F0E8F8E0B2FDF783
:1052D00031FEFFF703B828469849FAF7B1FF0028D6
:1052E00000F0F88028469649FAF7AAFF002800F057
:1052F000EA8028469349FAF7A3FF002840F0C780C8
:10530000042C00F0B980904808F0C8F8FEF7E6BF1A
:105310008E4808F0C3F8FDF717F9FEF7DFBF8C4899
:1053200008F0BCF8FCF768FF4FF47A730446B0FB52
:10533000F3F0694603FB104408F0EAFA0A21034639
:105340002027B4FBF1F24FF02E09642503EB070888
:10535000E84408F8209CB2FBF1F8B4FBF5F54FF0F7
:10536000250E4FF00D0C01FB124401FB18220DEB32
:105370000708591C58FA81F1303501F8205C991C56
:10538000303258FA81F101F8202CDA1C58FA82F2F6
:10539000303402F8204C1A1D58FA82F202F8207CB0
:1053A0005A1D58FA82F202F820EC9A1D073358FA77
:1053B00082F258FA83F302F820CC684603F8206C96
:1053C00008F06CF8FEF78ABF062005F0ABF86148DC
:1053D00008F064F8FEF782BF052005F0A3F85D48E9
:1053E00008F05CF8FEF77ABF042005F09BF85948F6
:1053F00008F054F8FEF772BF032005F093F8554803
:1054000008F04CF8FEF76ABF204604F0ADFD5248A4
:1054100008F044F8FEF762BF012004F0A5FD4F48F4
:1054200008F03CF8FEF75ABF4D4808F037F8FEF791
:1054300055BF4C4808F032F8284608F02FF84A4883
:1054400008F02CF8FEF74ABF484808F027F8FCF7A8
:1054500079FE474808F022F8FEF740BFFCF7ECFF62
:10546000FEF73CBF434808F019F8FEF737BF424843
:1054700008F014F8FEF732BF1F4914F0BBF8FCF730
:10548000A1FC90B92C4808F009F8FEF727BF284680
:105490003A49FAF7D5FE90B128463949FAF7D0FED5
:1054A00040B9FEF78FF8FEF719BF364807F0F6FF50
:1054B000FEF714BF344807F0F1FFFEF70FBFFCF70B
:1054C000ADFDFEF70BBF314807F0E8FFFDF716FB17
:1054D000FEF704BF2E4807F0E1FF032C7FF413AF63
:1054E0000549002014F086F8FDF77AF9FEF7F6BEBC
:1054F000284807F0D3FF62E5D8B4010808B50108D1
:10550000D0D10108D8D10108F0D1010810D201088A
:1055100030D2010838D2010804CA0108F8C90108CC
:10552000D4C9010804C8010870D2010884D2010856
:1055300090D201085CD2010868D20108B8D20108F3
:10554000ECD2010810D30108CCD2010818D201080E
:10555000F8D10108CCD301085CD6010848D601086F
:10556000CCD60108E0D60108F4D60108DCD1010848
:10557000E8D10108B4CA010878CA010830D301088B
:1055800038D3010814D301083CD30108F4D2010830
:10559000C0D201084CCA0108014807F07FFF29E486
:1055A0004CCA01082DE9F04FA1B005460E4606F0A1
:1055B000F5F9012800F086812B78A3F13002012A49
:1055C00019D90022904FCDE90B227979012900F0F9
:1055D000FD80DFF83882D8F800200024752BCDE953
:1055E0000D440A9240F08A80132E00F0748100204E
:1055F00021B0BDE8F08F4FF400116A780C91302A89
:1056000000F0F0804FF480107F4F0B9079790129E2
:105610006AD000237D49722A0968CDE90D330A91C9
:1056200005F1010900F0FA8000F2F680522A02D05A
:10563000542A40F0E38001242246B71A092F40F291
:10564000DD804FF080434FF0000A601C2844079330
:10565000CDF820A008F0B8F8069004F1090028441D
:1056600008F076F899F800308046522B099003D163
:105670004FF00053D0460893404608F0CDF805306F
:10568000B7EB400F40F0BA800A34013EB44238BF55
:1056900000270DD2281908F061F80234E4B220ABDB
:1056A00053FA87F3B44203F8400C07F10107F1D332
:1056B00007F0BCFE10AC0121554806AE07F0CCFE49
:1056C00021463046FEF7AEFB022840F0EF8007F09F
:1056D000B9FE02E00A2010F085FC21463046FEF7B4
:1056E000A1FB0228F6D0E3E0721EA95C692900F054
:1056F000368400220124CDE90D220A92295D22463A
:10570000722905EB040900F08B8068D8522994D0E7
:10571000542992D0233B562B70D8DFE813F02D018B
:105720006F00ED000A026F006F006F006F006F00E6
:105730006F006F006F006F006F006F006F006F00F1
:105740006F006F006F006F006F006F006F006F00E1
:105750006F006F006F00E000A3026F006F009902FE
:1057600078026B02E602D502E000D102C90205030D
:10577000F7021D03B002BF036F006F006F009D03AF
:105780006F006F00F3037903D8039203CE036F0019
:105790006F006F00E5006F006F001902E8008503DD
:1057A0006B036F005B036F00E0005003480330039E
:1057B000FF01EC01D6016F0084015C016F0046011E
:1057C0006F006F003C01350138022702721EA95C90
:1057D00069290ABF164600224FF00042FDE67429EF
:1057E00098D11DE00022084F0B92797901293FF4EE
:1057F0007BAF064B0D921B680E920A930121054860
:1058000007F0DEFDF3E600BF6C010320100003206B
:10581000B8B0010890AF0108742AEFD101242246E4
:10582000B71A042FEAD94FF0000A601C2844CDE9CA
:1058300007AA07F0B9FF0690201D284407F088FF4B
:1058400099F800308046722B099003D14FF0005335
:10585000D0460893404607F0DFFF052300B203EB74
:1058600040039F42CAD10534013EA64288BF0027AB
:105870000DD9281907F072FF0234E4B220AB53FAB5
:1058800087F3B44203F8400C07F10107F1D307F0A6
:10589000CDFD10AC0121C74806AE07F0DDFD214665
:1058A0003046FEF7BFFA022800F0638307F0CAFD16
:1058B0004046069D07F0B0FF22460146284601F00B
:1058C000F1FC94E607F00CFE0421BB4807F078FDDC
:1058D00006F070F88BE6284601F086FE87E6162172
:1058E000B64807F06DFD82E6B54807F0D7FD012107
:1058F000B04807F065FD7AE6032E7FF67FAF6F1C98
:10590000384607F051FF043E4FEA5609C6F34F06EA
:10591000B04204467FF472AF05F1040841461FFA15
:1059200089F210AEA74807F0F9FE11F00BFD2246F0
:10593000A54BA449009606F01BFD3946BDF8400072
:1059400007F046FEBDF8402040469F4907F0E8FDBD
:105950000D22BDF840302846023305F813205B00C5
:10596000591C07F02DFD11F0EDFC2246964B954990
:10597000009607F0B7FC3AE6012E7FF43FAF93485C
:1059800007F08CFD304633E6FEF750F901218948D7
:1059900007F016FD2BE6022E7FF430AF6B78302B2C
:1059A0000CBF002301237B71A1E7052E7FF426AFF6
:1059B0000126874CA819666107F0D0FE0346E81C53
:1059C000E36107F0CBFE2062FEF730F931467948FB
:1059D00007F0F6FC0BE67F4807F060FD40217C48AD
:1059E00009F0A4F907F070FD7B4C794809F0A8F99B
:1059F00007F06AFD206810F0EFFF07F065FD2068F2
:105A0000764C10F0F9FF07F05FFD206810F0E4FF1E
:105A100007F05AFD206810F0EFFF07F055FD6548CC
:105A200007F03CFDE3E5022E7FF4E8AE6B78423BE5
:105A3000022B3FF6E3AE00234FF400124FF4801127
:105A4000BB70CDE90B12099340F281123B70002329
:105A50004FF01409CDE90623DFF8888110AC06AEBB
:105A6000002002F043FCFEF73FFAFEF7DFF8642067
:105A700010F0B8FA6878012102F01CFC6878012166
:105A800002F0FAFB484610F0ADFA02E00A2010F0EE
:105A9000A9FA21463046FEF7C5F90228F6D0322091
:105AA00010F0A0FAD8F8143009F1140913B9B9F5B7
:105AB000D27FD5D1D8F81430002B3FF49FAE01210E
:105AC0003C48397007F07CFC91E5012E7FF496AEDE
:105AD0003146384807F074FC414801F02DFE0020A3
