:020000040800F2
:1000000000000420ADA9000869A700086DA700083A
:1000100071A7000875A7000879A70008FDA90008C6
:10002000000000000000000000000000A14D0108D9
:100030007DA7000800000000314D0108FD250108E2
:10004000FDA90008FDA90008FDA90008FDA90008F8
:10005000FDA90008FDA90008FDA90008FDA90008E8
:10006000FDA90008FDA90008FDA90008FDA90008D8
:10007000FDA90008FDA90008FDA90008FDA90008C8
:10008000FDA90008FDA90008FDA90008FDA90008B8
:10009000FDA90008FDA90008FDA90008FDA90008A8
:1000A000FDA90008FDA90008FDA90008FDA9000898
:1000B000FDA9000881A700088DA70008FDA9000878
:1000C000FDA90008FDA90008FDA90008FDA9000878
:1000D000FDA90008FDA90008FDA9000899A70008CE
:1000E000A5A70008FDA90008B1A70008FDA9000800
:1000F000FDA90008FDA90008FDA90008FDA9000848
:10010000FDA90008BDA70008C9A70008FDA90008AF
:10011000FDA90008FDA90008FDA90008FDA9000827
:10012000FDA90008D5A70008E1A70008FDA900085F
:10013000EDA70008FDA90008FDA90008FDA9000819
:10014000FDA90008FDA90008F9A70008FDA90008FD
:10015000FDA90008FDA90008FDA90008FDA90008E7
:10016000FDA9000805A80008FDA90008FDA90008D0
:10017000FDA9000800000000FDA900080000000023
:1001800011A80008FDA90008FDA90008FDA90008A4
:10019000FDA90008FDA90008FDA90008FDA90008A7
:1001A000FDA90008FDA90008FDA90008FDA9000897
:1001B000FDA90008000000001DA80008FDA9000816
:1001C000FDA9000800000000FDA90008FDA9000825
:1001D000FDA90008FDA90008FDA90008FDA9000867
:1001E000FDA90008FDA90008FDA90008FDA9000857
:0401F000000000000B
:1002000010B5054C237833B9044B13B10448AFF350
:1002100000800123237010BD300703200000000080
:10022000E467010808B5034B1BB103490348AFF36A
:10023000008008BD0000000034070320E4670108C7
:1002400010F8012B11F8013B012A28BF9A42F7D080
:10025000D01A7047034613F8012B002AFBD1181A55
:1002600001387047704700BF2DE9F041234C244D01
:10027000244E254FDFF8948082B04FF0FF330222E6
:1002800020680DF1060113F031F8022807D02B7811
:10029000012B29D00121304609F0CEFDEDE742F2D5
:1002A0000303BDF806209A42F1D841464FF0FF33D0
:1002B000206813F01BF8BDF806108142E7D14046D4
:1002C00004F012FA0028D8D12B78BDF80610012BC3
:1002D0000E480DD002F0F8FA0128CED12B78B3FAEF
:1002E00083F35B092B70C8E7384609F013FEC4E7B7
:1002F00001F096FB0128C0D1F0E700BF50080320B1
:100300002408032010740108F07301083CB7002092
:100310002DE9F04F7E4CDFF81482DFF808927D4F14
:100320007D4E9BB04FF0FF3328226946206812F0C3
:10033000DDFF2828F6D1039809F08AFF82460028BD
:1003400040F09380029B002B6DD10098D8F80030CC
:10035000984200F0928051460AAA04F0E5F913F0A1
:1003600053FB0AA90246684605F0C4F813F04CFB9B
:100370000AA90246684607F003F813F045FB0AA9EC
:100380000246684604F0EEF83B78002BCAD0069B84
:10039000B3F5001F7FD00121BAF1080F28BF4FF03D
:1003A000080A00200D465FFA8AFADDE90132002AC8
:1003B00069D13144002B00F09D80542333540098C0
:1003C00009F0ECFD0544EDB2069B7119B3F5001F71
:1003D0006CD00AF00F0009F05FFE0544EDB2BAF1EF
:1003E000000F0BD00AAB9B469A441BF8010B711906
:1003F00009F042FEDA450544EDB2F6D1FB78002B58
:100400005CD17B791BB1069BB3F5001F76D00D2321
:10041000691C4148C9B2735509F00EFD002881D00E
:1004200000233B707EE7B3F1005FA6D1009BB3F5DC
:10043000E06FA2D1C9F80030039B0199082B28BFB7
:1004400008231A460023C9F80410C9F80C203349C0
:1004500008223348C9E90533C9F8083009F004FF18
:100460002F49304801F048F987E702464FF0FF3343
:1004700020680AA912F03AFF64E72B492B4801F0E3
:100480003BF9009867E753B352234FF0000A335407
:100490003144009894E7059B0221B3F5801F14BFF7
:1004A0003023312301200D4633707EE7039800F09E
:1004B0000F0009F0F1FD2B18DDB290E713F0A4FA5C
:1004C0004EF660221A4B7119A3FB00C39B0B02FB73
:1004D000130080B209F0AEFD2B18DDB291E79A4609
:1004E000722333540098314480B209F08DFD2B18EB
:1004F000DDB269E7742333540098F5E7049BB3F148
:10050000004F84D1692373550135EDB27FE700BFF9
:100510008C2B0320580103203CB500209005FA0BDA
:100520005407032060070320E02C0320E82C03205D
:1005300073B2E7452DE9F0411F4DDFF884801F4F6E
:100540009AB0002404EBC40101AEC4F124024FF0C0
:10055000FF33286806EB810112F0C8FE0444232C07
:10056000F0D9049809F074FE039B0646B3F1005FCE
:1005700000D0A0B938460BF05FF850B138460AAA4F
:1005800001A90AF013FFD8F80C300133C8F80C3079
:10059000D7E74FF0FF31012013F0EEFEEAE7002429
:1005A0000AA9321B21444FF0FF33286812F09EFE47
:1005B0000444A642F4D8DDE7882B0320982A0320C0
:1005C000000003202DE9F04182B004F0A7F800F00C
:1005D00097FF05F08FF800F085FD07F049FC13F058
:1005E00013FA03F0B5FF13F00FFA03F0B5FF244838
:1005F0000EF098FF23480EF05DFF2349234806F0D4
:10060000DDFD234F05F044FD224DDFF89080224EA2
:1006100005E001330CD10A2101A813F05DFB13F0B2
:10062000F3F93B68019001332B68F2D101330BD011
:100630004FF47A7401E0013CEDD03146284601F0D8
:100640005BF80028F7D0E6E707F010FC019807F008
:1006500015FC019800F048FD98F800304BB1019866
:1006600004F044F8019804F043FF019806F0BCFD43
:10067000D1E7019804F036F9019803F06BFFEEE73B
:100680001C28032084270320401B03203829032033
:10069000E82C0320BC2C0320B42C03208200032070
:1006A0002DE9F04700272A4D2A4EDFF8ACA0DFF8ED
:1006B000AC90DFF8AC80A4B016E0630203D53379C8
:1006C00043F08003337199F8003033B1099B23B1B3
:1006D000642012F029F800F013FF002302221946CB
:1006E000D8F8000013F0BEFE4FF0FF31012013F0E8
:1006F00043FE14F021FA28460BF0F4F8044604A94E
:1007000028460AF055FF694628460AF079FF542228
:1007100031460FA8B46015F0F0FA2F66169BB3F5BA
:10072000003F02D9B3689A020CD414F013FA9AF875
:100730000030012BC1D1234668460FAA04A904F05A
:10074000DDF9BAE7012386F8203000F063FFECE71B
:10075000982A032000000320882D0320500703203F
:10076000F01F032000232DE9F04784B05B4C5C4D63
:100770005C4FDFF87481DFF874910DF10E068DF88F
:100780000B3004E04FF0FF31002013F0F5FD20683E
:1007900012F0D4FC0028F5D04FF0FF33012220687E
:1007A0000DF10B0112F0A2FD0128EBD1206812F02F
:1007B000C5FC0128E6D94FF0FF330222206803A9C7
:1007C00012F094FD0228DDD1BDF80C20B2F5805F57
:1007D000D8D2002A55D19DF80BA0BAF1000F16D13E
:1007E00013F012F93B462946BDF80C20009608F09C
:1007F0000DFBBDF80E30002B56D113F005F93B462A
:100800002946BDF80C20009609F0AEFABAE713F0BD
:10081000FBF8344B3249BDF80C20009609F040FA41
:10082000BDF80E301BB33A787F2A08D1022B1ED9AF
:10083000BB78A3F11102012A19D9312B17D04FF03F
:10084000FF3302223146D8F8000012F085FC4FF049
:10085000FF332449BDF80E20D8F8000012F07CFCCC
:10086000002302221946D9F8000013F0FBFD13F013
:10087000CBF81C4B1A49BDF80C20009609F074FA0D
:1008800080E74FF0000AA2EB0A0205EB0A014FF0E5
:10089000FF33206812F02AFDBDF80C2050441FFAE7
:1008A00080FA5245EFD196E731464FF0FF330222EE
:1008B000D8F8000012F050FCBDF80E204FF0FF33C6
:1008C0000849D8F8000012F047FC5346022251466E
:1008D000D9F8000013F0C6FD8FE700BF9007032092
:1008E00038A50020389500208C070320300D032008
:1008F0002DE9F84F2A4E2B4DDFF8ACA006F11C076E
:1009000006F5805B06F11408A6F5805904E04FF067
:10091000FF31002013F030FD286812F00FFC012891
:10092000F5D94FF0FF3302224146286812F0DEFC71
:100930000228ECD1B28AB2F5805FE8D262B100241D
:10094000121B39194FF0FF33286812F0CFFCB28A1E
:10095000204484B2A242F3D113F056F8014648462F
:1009600005F0F8F80028D2D113F04EF808F0B0F9ED
:100970000128CCD0286812F0E1FB0128C7D89AF8EA
:10098000003053B19BF8230011F0CEFE13F03CF879
:1009900008F09EF90128BAD0ECE70A20F4E700BF7E
:1009A0008C3D02208C0703208200032038B50D49BE
:1009B0000D4809F013FA0B4A0C490D4814F002FCDB
:1009C000094D0C4C21464FF0FF334FF4006228686C
:1009D00012F08CFC01460028F4D0204609F016FAEB
:1009E000F0E700BF8008032028080320A424032088
:1009F0005008032040D7002003F088BE002003F0F9
:100A000089BE00BF0022024B02481A600EF08ABD68
:100A10004C070320D0270320014B1868704700BF04
:100A20004C0703200000000030B59FB04822002191
:100A30000CA815F002F800234FF40070CDE9023342
:100A4000CDE90433CDE90733CDE9093301930693AA
:100A50000B930CF02DFF08B172B6FEE701230222C2
:100A6000169311931993179210231D9207229FED4D
:100A70001E7BCDE91A320324042312900CA81C9388
:100A80008DED0C7B18940DF055F9034608B172B644
:100A9000FEE70F22214601A8CDE903330593029416
:100AA00001920CF0F5FF034608B172B6FEE7104A5A
:100AB0004FF00055916D4BF67F3441F08071916598
:100AC000926D069302F080720092089322222023F6
:100AD00006A8CDE90A230099079509940EF088F835
:100AE0001FB030BDAFF300802900000000000100FE
:100AF00000100240F0B58FB072B64FF00062A84B04
:100B00009A60BFF34F8F62B6002509F079FF05F0B8
:100B1000C9FBFFF789FFCDE90955CDE90B55A14C7C
:100B20000D95E36C4FF4604143F00403E364E36C20
:100B30002A4603F004030593059BE36C9A4843F0AF
:100B40008003E364E36C012603F080030693069BB5
:100B5000E36C082743F00103E364E36C03F0010353
:100B60000793079BE36C43F00203E364E36C03F039
:100B700002030893089B0BF059FB2A4640F201112F
:100B80008A480BF053FB2A4641F2E40188480BF0F7
:100B90004DFB4FF46043844809A9CDE909360B9514
:100BA0000C950BF085F940F20113804809A9CDE9B5
:100BB0000936CDE90B550BF07BF941F2E4037C4893
:100BC00009A9CDE90936CDE90B550BF071F9794842
:100BD00009A9CDE909750B950BF06AF9A36C0521FC
:100BE00043F00403A364A36C2A4603F004030293B6
:100BF000029BA36C1D203343A364A36C3340039377
:100C0000039BA36C43F00203A364A36C03F00203F1
:100C10000493049B09F02AFF1D2009F063FF2A4674
:100C200005211E2009F022FF1E2009F05BFF2A4645
:100C30000521502009F01AFF502009F053FF2846E3
:100C40000BF072FE08B172B6FEE70BF081FE0346B0
:100C500040B959484360594B03600DF0F1FF18B19A
:100C600072B6FEE772B6FEE710224FF44071544BA5
:100C70000F241870534B99609A619A623C21132299
:100C8000C3E907120422C3E90B424F4A5860D860F7
:100C90009874D8631846C3E90D661E825E615E6271
:100CA0001A600AF0B5F9034668BB4FF0FF31474AB6
:100CB0004FF4827CC2E90500C2E90100D0601160F6
:100CC00007224FF4E0654FF400744148C0E90A324E
:100CD000404AC0E90433C0E90833C2E90533C2E938
:100CE000013383600363D3603B4BC7610360476399
:100CF000C0F804C0C560846111600EF0CDF90346F0
:100D000018B172B6FEE772B6FEE73448344AC0E95D
:100D1000053383800260066209F016FF034608B1BE
:100D200072B6FEE74FF4027102222E48C3722E4BB8
:100D300081800360C0F807200BF014FE034608B161
:100D400072B6FEE741F63F75284C294ACDE9090005
:100D50000B902046C4E90133A3612260E5600EF0E8
:100D600043FD034608B172B6FEE7204609A9099380
:100D70000B930EF06BFD034608B172B6FEE71D48FB
:100D80001D4ACDE90933026042F20F72C0E9023513
:100D90000B93836142600EF027FD78B372B6FEE7D5
:100DA00000ED00E000100240000802420000024294
:100DB00000040242001C02429C29032000080C424D
:100DC00050070320982A032000A40040E82C0320A9
:100DD00038290320BC2C032000380040FC2A0320C3
:100DE00000300240A824032000D40040D027032074
:100DF000001400401C28032000100040002370480D
:100E000009A909930B930EF021FD034608B172B6B0
:100E1000FEE74F214FF6FF726A48C0E90433836052
:100E20008361694B4160C26003600EF0DDFC0446E3
:100E300008B172B6FEE76548654900902246654BE9
:100E40000C7043F69820012112F0EAF80546624E34
:100E5000624A009601211560614B224643F69820B4
:100E600012F0DEF805465F4E5F4A009601211560DC
:100E70005E4B224641F2010012F0D2F802465C4E6F
:100E80005C4D009601215C4B2A6041F20100224634
:100E900012F0C6F8594B5A4A0121009218602246B6
:100EA000584B43F6982012F0BBF8574B574A012194
:100EB000009222461860564B43F6982012F0B0F884
:100EC000544B554E1860204604F0E0FB204604F0D9
:100ED000F7FB04F03FFC12F097FD2A464F4B5049B8
:100EE000009604F0F3FA4F4807F050FB4E4803F029
:100EF00015FB4E484E4A4F4900F0E8FA09A80994FC
:100F000004F080FB10B9099B002B55D011F084FB35
:100F100014F044F80021484A484811F0A9FB04465F
:100F2000474B0021474A48481C6011F0A1FB04468A
:100F3000464B0021464A47481C6011F099FB044685
:100F40003C4B0021444A45481C6011F091FB04468B
:100F5000434B0021434A44481C6011F089FB04467E
:100F6000334B0021414A42481C6011F081FB04468A
:100F70002B4B00213F4A40481C6011F079FB04468E
:100F80003E4B00213E4A3F481C6011F071FB044675
:100F90003D4B00213D4A3E481C6011F069FB044670
:100FA0003C4B00213C4A3D481C6011F061FB3C4B2E
:100FB000186011F043FBFEE73A4804F0FBFAA5E79E
:100FC0001C280320842703200044014054080320E8
:100FD00024080320D81901202C08032050080320DE
:100FE00040DF00200008032028080320348500206B
:100FF000DC07032090070320307500208C070320B6
:10100000B8070320983A00208C2B03209407032074
:1010100000000020882B032084070320880703207A
:10102000E01103209C290320FC2A0320982A032096
:1010300090160320F01F032078940108690200082D
:10104000A42403205494010811030008A0240320C1
:1010500030940108350500080C940108C505000806
:10106000401B0320E8930108A1060008C49301086F
:1010700065070008A0930108F1080008300D03205F
:101080007C930108AD0900088008032058930108EB
:10109000F90900087C08032034930108FD090008C1
:1010A00078080320040029C0094A0368934206D047
:1010B000084A93420AD0084A934205D07047074A2B
:1010C000136801331360704703F018BB09F0AABC22
:1010D00000140040002C0140001000404C07032089
:1010E00072B6FEE7704700BF704700BF4FF0FF3396
:1010F000B0F5FB4FC1F801304B600ADAC0F5FA4099
:101100007F30400000F0FE03C0F307200B704870F2
:1011100070470020034648700B707047012908D9BA
:101120004FF6FE2302889A4203D8981AC0F34F0064
:1011300070470020704700BF01290AD94078FA287B
:1011400009D8064BC0EB0030A3FB0030C0F30F10F2
:1011500070470020704740F6FF707047D34D621013
:101160004FF0FF33020A0B604B6048708A70704783
:1011700002298CBFB0F801000020704701290AD96C
:101180004078FA2809D8064BC0EB0030A3FB0030AA
:10119000C0F30F1070470020704740F6FF70704793
:1011A000D34D62104FF0FF33020A0B604B60C870E2
:1011B0000A71704704298CBFB0F803000020704703
:1011C0004FF0FF33020AC1F8013008704B604A70DB
:1011D000704700BF01298CBF00880020704700BF06
:1011E00001290AD947F27F530088984238BF184630
:1011F000A0F5EA407F3880B270470020704700BFFA
:101200004FF0FF337D300B604B608870704700BF3C
:10121000022983BF80787D38C0B20020704700BFAC
:10122000032983BFC0787D38C0B20020704700BF5B
:10123000012918D9037803F00302012A17D003F01B
:101240000C02042A15D003F03002102A0DD003F04E
:10125000C003402B0FD0437803F00303012B0CBFD6
:1012600006200120704700207047052070470220AB
:101270007047032070470420704700BF09B1007811
:1012800070470846704700BF4FF0FF33800060F0A2
:101290000C000B604B60C870704700BF032986BF0D
:1012A000C078C0F381000020704700BF012906D933
:1012B000437803F00F03013BDBB2022B01D900207E
:1012C0007047024A32F81300704700BF9C9401082F
:1012D0004FF0FF33800060F00C00C1F8013008705F
:1012E0004B60704719B10178C1F38100704708461F
:1012F000704700BF032986BFC07800F003000020BC
:10130000704700BF02290FD9837803F00C02042A2A
:1013100001D001207047C3F30113012B06D0002B2D
:101320000CBF022001207047002070470320704747
:1013300071B103789A09012A03F003010AD003F07E
:101340003003102B08D001290CBF02200120704768
:10135000084670470420704703207047072903465A
:101360002DD900785A78A0F1FA00B0FA80F0FA2A64
:101370004FEA50109A784FEAC00008BF40F01000C2
:10138000FA2ADA7808BF40F02000FA2A1A7908BF52
:1013900040F04000FA2A5A7908BF40F08000FA2A4B
:1013A0009A79DB7908BF40F00100FA2A08BF40F0C3
:1013B0000200FA2B00D0704740F004007047002074
:1013C000704700BF2DE9F04F3C4B8346984283B0F5
:1013D00007D83B4B984269D94FF028094FF4487E13
:1013E0000BE04FF0250940F2EE2E364BB3FBFBFC31
:1013F0005FFA8CFCBCF1190F5DD90120314B013033
:1014000080B2B3FBF0FCBCFBFBFC5FFA8CFCBCF1D4
:10141000190FF4D8B0F5806F42D201236FF0004469
:101420004FF47A765A460093274B1F68431C1FFAE5
:1014300083FAACF10208B8EB5C0F4FEA5C0120DDE7
:101440000CF1FF3B5FFA8BFBCDF804A006FB01F526
:10145000B5FBFCF5BEEB050A48BFA5EB0E0AA2459D
:101460000ADAD14508DB002554460095ABEB0105AF
:10147000EDB2F96178613D6201314145E6DBDDF8AD
:1014800004A0104998B2B1FBFAFCBCFBF2FCB0F529
:10149000806F0AF1010A5FFA8CFC03D0431CC8E795
:1014A00001230093009803B0BDE8F08F4FF02B09A3
:1014B00040F26B3E99E70120AFE700BF00350C001A
:1014C00020A10700005A6202802C032038B50C4688
:1014D000064D0749074B0A602860074901201C6038
:1014E00011F022FB054B186038BD00BF802C032093
:1014F000782C03207C2C0320902B0320E02B03204E
:1015000030B53F4C83B0206809F03AFF206809F0FD
:101510007FFD002851D100223A4D40213A482A71DE
:10152000EA602A616A61AA61AA60EA6185F82020FE
:101530000AF07CFE206805F1240109F053FE002822
:101540005BD13249206809F04DFE002852D10023BA
:10155000022220681146009309F070FE002846D14F
:10156000206809F0B1FE00283ED100220121206848
:101570000AF068F8A8BB0022062120680AF062F889
:1015800060BB07224FF4F05120680AF05BF810BBF3
:101590000722802120680AF055F8C8B900221C49AA
:1015A00020680AF04FF880B900224FF460212068CB
:1015B0000AF048F820B903B030BDFFF791FDAAE763
:1015C00003B0BDE83040FFF78BBDFFF789FDEBE7C7
:1015D000FFF786FDE2E7FFF783FDD9E7FFF780FD20
:1015E000CFE7FFF77DFDC6E7FFF77AFDBDE7FFF721
:1015F00077FDB5E7FFF774FDA9E7FFF771FDA0E7F9
:10160000802C032000000320000402423C00032041
:1016100000407100014B186809F0B2BE802C032015
:10162000082824D8DFE800F0080C1014171A1D2031
:1016300005001448FFF7C6BE42F21070FFF7C2BEA5
:1016400044F62060FFF7BEBE4CF25030FFF7BABE42
:101650000D48FFF7B7BE0D48FFF7B4BE0C48FFF7C3
:10166000B1BE0C48FFF7AEBE0B48FFF7ABBE0B4A4E
:10167000A0F51C53103B934201D901207047FFF79E
:10168000A1BE00BF40420F00A086010048E8010053
:1016900090D0030020A1070000350C00301B0F0084
:1016A0000346054A1978002051615978D16199782B
:1016B0001162DB7893617047982A03200246024B3F
:1016C00000209A61704700BF982A0320034600B5A6
:1016D000074A93F801E093F800C082F810E005494A
:1016E0009B7881F800C0537400205DF804FB00BFB4
:1016F000982A0320500703202DE9F0470546C068CB
:101700000F4608F0A5FDAB68B3F1005F3CD006467C
:10171000824600F12409254C4FF0FF31206811F07A
:101720000DFB0128F8D1DFF89080D8F8000011F007
:10173000F5FC484515D202251D4A13792B43137138
:10174000002320681A46194611F052F9002319495E
:10175000022209680868194612F084FE2846BDE88E
:10176000F08729464FF0FF332422D8F8000011F00B
:10177000F3FC054686B94D450CD00D4A0125137979
:1017800043F008031371DBE74FF0000A4FF0240920
:101790005646C0E70025D3E7524639464FF0FF339F
:1017A000D8F8000011F0D8FC0544E4E7E02B032052
:1017B000000003207C2C0320882B032030B401225E
:1017C000002410200A4B04211B684FF440751C8232
:1017D000C3E90520DC6018623F240F209A74C3E936
:1017E0000125DC61C3E9092130BC1963D862704767
:1017F000802C032000232DE9F0430C4683B0C90759
:101800000546019316D4A20707D502212D4A137964
:1018100043F0010313712B681965630735D4019BED
:101820002BB14FF0E0234FF08052C3F8042D03B0EA
:10183000BDE8F083DFF89880224F42464021224BDA
:1018400009F016FE7B69D8F80C0001337B6108F0C3
:10185000FFFCDFF880900646D9F8000011F05EFC2E
:1018600006F12803984223D341462822D9F80000E4
:1018700001AB11F0F5FC002EC5D03246D9F80000BE
:10188000114901AB11F0ECFCBDE704240D4B0F49ED
:101890009A69096801329A611A7942F008021A714C
:1018A0002B6808680DEB04011C6512F0C5FEB6E755
:1018B000064ABB6912680133106801A9BB6112F0C6
:1018C000BBFEA0E700000320382C0320782C032067
:1018D000102C03208C2B032010B500240A4A0B493E
:1018E0001369096882B00868013301A91361019482
:1018F00012F0A2FE019B2BB14FF0E0234FF080527B
:10190000C3F8042D02B010BD000003207C2C03207E
:1019100010B500240A4A0B49D369096882B00868E7
:10192000013301A9D361019412F086FE019B2BB112
:101930004FF0E0234FF08052C3F8042D02B010BDE9
:1019400000000320782C032038B50C46104D2946A2
:1019500009F02EFEA10303D5EB68A3B90D4A13606D
:10196000620309D52B690B4A012B13790CBF43F095
:10197000040303F0FB031371230303D50122054B7A
:1019800083F8202038BD4FF00042024B1A60E7E791
:10199000E42B032000000320F0B500250B7885B070
:1019A000074602950395CBB10C460DF1FF3608E0D2
:1019B0002046D5B208F0EEFB14F8023F06F8010FFE
:1019C00023B163786A1C0BB3072DF1D18DF8085051
:1019D0002A4669460DF1090014F08FF900230E4CD8
:1019E0000820C4E90533C4E90133276008F036FC58
:1019F000082203460DEB02010848E36008F034FCBE
:101A000020460649FFF778FE05B0F0BD8DF8085076
:101A1000002DDDD1E2E700BF902C0320842C0320B1
:101A200042F202032DE9F04100249942445400F2AD
:101A3000C980002900F0678100F1FF3E0139F446BA
:101A40007346014405E00A2A1CBF025501348B424B
:101A500009D013F8012F082AF5D1002CF7D08B42BA
:101A600004F1FF34F5D100229442025540F3508135
:101A700011460EEB04031CF8014F202C00F0978058
:101A800091B99C4502F101020CF101040ED09CF8C1
:101A900001E0BEF1200F00F08C809C4206D01CF8C3
:101AA000021F203918BF01219C45E4D19B491446EF
:101AB00013F0DEFF0546002800F0A9809849FEF7E4
:101AC000BFFB30B128469749FEF7BAFB002840F02B
:101AD0008280012C40F2D4809049002013F0C8FF8E
:101AE00091490446FEF7ACFB002800F094802046A4
:101AF0008E49FEF7A5FB002800F07E8120468C4928
:101B0000FEF79EFB002840F005818A4808F002FAA3
:101B1000894808F0FFF9874808F0FCF9874808F081
:101B2000F9F9874808F0F6F9844808F0F3F9854890
:101B300008F0F0F9844808F0EDF9804808F0EAF977
:101B4000824808F0E7F9824808F0E4F97B4808F099
:101B5000E1F9804808F0DEF97F4808F0DBF97748C2
:101B600008F0D8F97D4808F0D5F97D4808F0D2F999
:101B70007C4808F0CFF97C4808F0CCF97B4808F0A5
:101B8000C9F97B4808F0C6F97A4808F0C3F97A48E1
:101B900008F0C0F9794808F0BDF9684808F0BAF9CA
:101BA000644808F0B7F9764808F0B4F90DE0002170
:101BB0007AE79C423FF47AAF1CF8024F202C7FF466
:101BC00060AF71E76F4808F0A5F96F4808F0A2F917
:101BD0000020BDE8F08128466C49FEF731FB002863
:101BE0003FF477AF28466A49FEF72AFB00283FF406
:101BF00070AF28464E49FEF723FB002840F0438192
:101C0000022C00F05C81634808F084F9DDE762484B
:101C100008F080F9D9E7474808F07CF9464808F011
:101C200079F9444808F076F9444808F073F95B48BC
:101C300008F070F9414808F06DF9424808F06AF977
:101C4000574808F067F93D4808F064F93F4808F044
:101C500061F9544808F05EF9384808F05BF93D48EE
:101C600008F058F9504808F055F9344808F052F98E
:101C70003A4808F04FF94D4808F04CF94C488AE7CB
:101C80002C4808F047F92C4808F044F9294808F096
:101C900041F92A4808F03EF9464808F03BF9274840
:101CA00008F038F9444808F035F9444808F032F9AA
:101CB000434808F02FF9434808F02CF9424808F04F
:101CC00029F9424808F026F9414808F023F941482B
:101CD00008F020F9404808F01DF9404808F01AF9CA
:101CE0003F4808F017F93F4808F014F93E4808F05B
:101CF00011F9124808F00EF93C4808F00BF90D48AC
:101D000008F008F961E70170394808F003F95CE769
:101D1000FAD0CBE6374808F0FDF844E7C474010870
:101D2000F4740108FC74010810750108B476010808
:101D30003C78010818750108587501088475010878
:101D4000447801089875010858780108DC75010885
:101D50009478010800760108A878010854760108F3
:101D6000F4780108147901082879010848790108F4
:101D70005C7901087C79010890790108BC79010837
:101D8000F8790108AC740108F087010804750108AE
:101D90000C7501082C7E0108C874010888750108BB
:101DA000A8750108E47501080C7601086076010841
:101DB000A47601084C7A0108F07A0108FC7A01083F
:101DC000287B0108787B0108C87B0108187C010882
:101DD000847C0108AC7C0108D87C0108087D0108DE
:101DE000347D01088C7D0108D87D01080C7E010836
:101DF000C0740108D0790108874808F08BF887483B
:101E000008F088F8844808F085F8854808F082F8DA
:101E1000844808F07FF8824808F07CF8824808F08F
:101E200079F8824808F076F87D4808F073F8804821
:101E300008F070F87F4808F06DF8794808F06AF803
:101E40007D4808F067F87D4808F064F8744808F0A9
:101E500061F87B4808F05EF87A4808F05BF87A4849
:101E600008F058F8794808F055F8794808F052F821
:101E7000784808F04FF8784808F04CF8774808F0B0
:101E800049F8774887E628467649FEF7D9F928B910
:101E9000022C6CD0744808F03DF896E62846734949
:101EA000FEF7CEF9002851D1012C00F07581A31E58
:101EB000012B40F2FB806E4808F02CF885E66D4956
:101EC00013F0D6FD03780446002B3FF47EAE051DCB
:101ED000413B232B13D8DFE803F0352D251D1212CB
:101EE00012121212121212121212121212121212D2
:101EF00012121212121212121212352D251D5E48E4
:101F000008F008F814F8013F002B3FF45EAEA5423C
:101F1000DED15AE6594807F0FDFF0021442003F0C6
:101F20007BFBEFE7564807F0F5FF0021432003F065
:101F300073FBE7E7534807F0EDFF0021422003F071
:101F40006BFBDFE7504807F0E5FFDBE728464F492A
:101F5000FEF776F9002851D1012C00F02581A31E4F
:101F6000012B40F2D8804A4807F0D4FF2DE64149C2
:101F700013F07EFD03780446002B3FF426AE051DCA
:101F8000413B232B13D8DFE803F0352D251D12121A
:101F90001212121212121212121212121212121221
:101FA00012121212121212121212352D251D32485F
:101FB00007F0B0FF14F8013F002B3FF406AEAC422F
:101FC000DED102E6334807F0A5FF0121442003F0EB
:101FD00023FBEFE7304807F09DFF0121432003F08A
:101FE0001BFBE7E72D4807F095FF0121422003F096
:101FF00013FBDFE72A4807F08DFFDBE72846294976
:10200000FEF71EF9002840F0DC80032C00F0FA8077
:10201000254807F07FFFD8E51875010858750108B5
:1020200084750108BC76010898750108D07601080E
:10203000DC7501080C77010800760108207701089B
:10204000547601086C7701088C7701089C770108A9
:10205000BC770108CC770108EC770108FC77010810
:1020600028780108B47601085C7F010834800108F3
:1020700058800108C4740108347F0108107F0108EA
:10208000EC7E0108C87E01087C7E010804810108FD
:102090002881010810800108EC7F0108C87F010831
:1020A000AC7F0108C4810108C8810108B149002042
:1020B00013F0DEFC08F094F8B0F5006F68D2AE4D76
:1020C000022C28604FF0000000F09480A94913F022
:1020D000CFFC064608F0D4F8C10755D4102853D8D1
:1020E00088B1431EC3F34E04B71CDFF8208307EB0F
:1020F0004407304608F04EF80236BE4208F8010F99
:10210000F7D1631CD8B208F0A9F803469B48EB60EE
:1021100007F000FF59E59749002013F0A9FC08F0EB
:102120005FF8B0F5006F80F08581954F022C386024
:1021300000F0768110F0E4FA282110F0E3FA8D49DE
:10214000002013F095FC064608F09AF8C2070446F2
:102150001AD4102818D83546DFF8B48205E028468E
:1021600008F018F8023508F8010BAB1B9BB29C4233
:10217000F5D8601CC0F3470008F070F803468148AA
:10218000FB6007F0C7FE20E57F4807F0C3FE1CE5B3
:102190007E4807F0BFFE18E54FF0FF32764B7C48D3
:1021A0001A6007F0B7FE10E54FF0FF32744B794824
:1021B0001A6007F0AFFE10F0A3FA182110F0A2FA8F
:1021C00003E528467449FEF73BF828B9032C5FD095
:1021D000724807F09FFEF8E428467149FEF730F890
:1021E000002840F05B81022C00F029816D4807F047
:1021F00091FEEAE408F032F803466B48EB6007F022
:1022000089FEE2E45B49002013F032FC594905469F
:10221000002013F02DFC00210A2213F0EFFA63498D
:1022200004462846FEF70CF8002800F0F380284604
:102230005F49FEF705F8002800F0958028465D49C3
:10224000FDF7FEFF002800F0888028465A49FDF778
:10225000F7FF00287BD028465849FDF7F1FF0028FA
:102260006CD028465649FDF7EBFF00285DD0284684
:102270005449FDF7E5FF00283FD1003C18BF012479
:10228000514B52481C7007F045FEFFF739F99CE4AA
:10229000384913F0EDFB4E490446FDF7D1FF002805
:1022A00040D020464B49FDF7CBFF002837D02046D1
:1022B0004949FDF7C5FF78B320464849FDF7C0FFFF
:1022C00038B320464649FDF7BBFFF0B9454807F053
:1022D00021FE00242749002013F0CAFB054607F021
:1022E000CFFF421E92B20D2A03460AD8DB0708D45C
:1022F00029462046FFF750FB67E43B4807F00AFEFB
:10230000C3E73A4807F006FE5FE4394807F002FEEB
:10231000DFE740F2E374DDE740F2E274DAE740F22F
:10232000E174D7E740F2DF74D4E7003C18BF012422
:10233000304B31485C7407F0EDFDA6E7003C18BF58
:1023400001242C4B2D481C7407F0E4FD9DE7294B1C
:102350002B489C6107F0DEFD97E7264B29481C625D
:1023600007F0D8FD91E7234B2748DC6107F0D2FD49
:102370008BE700BFC4740108E82C0320DC8001084F
:10238000BC2C03209C810108C480010880800108C6
:102390003C8001080C810108FC82010800830108CF
:1023A000D4830108DC830108A4800108E4810108CA
:1023B000088201082482010840820108588201082D
:1023C0008C820108B882010850070320C4820108EA
:1023D0003C830108408301084483010848830108C5
:1023E0004C83010850830108E4820108A883010896
:1023F00084830108982A03209C82010864820108D2
:10240000448201082C82010810820108DF2C03207D
:10241000B42C0320AF4BB0485C6107F07BFD34E780
:10242000002007F01BFF0346AC48FB6007F072FD7D
:10243000FFF7CBBBAA4807F06DFDFFF7C6BBA94964
:1024400013F016FB451E041D15F8012FA2F12A03F7
:10245000002A3FF4BAABA5423FF4B7AB1A2B00F207
:102460001082DFE813F005020E020E020E020E02C9
:102470000E020E020E020E020E020E020E020E02DC
:102480000E020E020E020E020E020E020E020E02CC
:102490000E020E020102F80131002800284692497E
:1024A000FDF7CEFE002847D1022C16D08F4807F04A
:1024B00031FDFFF78ABB8E4807F02CFD40F2E37038
:1024C0008C49FFF769FABFE78B4807F023FD40F21C
:1024D000E2708849FFF760FAB6E7824913F0C8FA5C
:1024E000451E041D15F8012FA2F12A03002A3FF40E
:1024F0006CABA5423FF469AB1A2B00F2A881DFE870
:1025000013F09D01A601A601A601A601A601A60140
:10251000A601A601A601A601A601A601A601A60183
:10252000A601A601A601A601A601A601A601A60173
:10253000990190013100280028467049FDF780FE7E
:10254000002853D1022C16D06D4807F0E3FCFFF7AA
:102550003CBB6C4807F0DEFC40F2E3706A49FFF7D1
:102560001BFABFE7694807F0D5FC40F2E270664904
:10257000FFF712FAB6E75B4913F07AFA64490546A9
:10258000FDF75EFE002800F0448128466149FDF712
:1025900057FE002800F0358128465F49FDF750FEC0
:1025A000002800F0268128465C49FDF749FE0028F6
:1025B00000F0178128465A49FDF742FE002800F036
:1025C000088128465749FDF73BFE002800F0F980B6
:1025D00028465549FDF734FE00283CD1072005F078
:1025E000B9F9524807F096FCFFF7EFBA2846504970
:1025F000FDF726FE002800F0E18028464D49FDF752
:102600001FFE002800F0DA8028464B49FDF718FE2F
:10261000002800F0D38028464849FDF711FE002825
:1026200000F0CC8028464649FDF70AFE002800F05D
:10263000BB8028464349FDF703FE00283FD02846CB
:102640004149FDF7FDFD40BB022C09D03F4807F092
:1026500061FCFFF7BABA3E4807F05CFCFFF7B5BA79
:10266000204913F005FA2A490546FDF7E9FD00283F
:1026700000F0828028462749FDF7E2FD002873D04C
:1026800028462549FDF7DCFDF0B9032004F084FE5F
:10269000304807F03FFCFFF798BA28462E49FDF76F
:1026A000CFFD002875D100F09FFF00286CD02B488B
:1026B00007F030FC012000F0A7FFFFF786BA28489A
:1026C00007F028FCFFF781BA264807F023FCFFF744
:1026D0007CBA00BF982A0320F08101087C810108A0
:1026E00050810108C47401088C8401089484010895
:1026F000788401081C8401086484010810750108AD
:102700004085010820850108D4840108008501085E
:102710000C8201083C8901089C850108A0850108FC
:10272000A4850108A8850108AC85010890850108E9
:10273000E0850108E4850108EC850108F4850108BD
:10274000FC85010854860108D8860108E086010846
:10275000B0850108288701086C8701087487010883
:102760005C8601083C870108204604F015FE4748B6
:1027700007F0D0FBFFF729BA012004F00DFE444812
:1027800007F0C8FBFFF721BA424807F0C3FBFFF789
:102790001CBA414807F0BEFB284607F0BBFB3F4888
:1027A00007F0B8FBFFF711BA3D4807F0B3FBC820AC
:1027B0000FF0BAFF08F0B6F9FFF707BA0120FFF7EC
:1027C00008BA062005F0C6F8364807F0A3FBFFF765
:1027D000FCB9052005F0BEF8324807F09BFBFFF777
:1027E000F4B9042005F0B6F82E4807F093FBFFF784
:1027F000ECB9032005F0AEF82A4807F08BFBFFF791
:10280000E4B9204605F0A6F8264807F083FBFFF759
:10281000DCB9012005F09EF8224807F07BFBFFF7AA
:10282000D4B9214807F076FB40F2E1701F49FFF769
:10283000B3F857E61E4807F06DFB53E61D4807F056
:1028400069FB40F2DF701949FFF7A6F84AE61A481B
:1028500007F060FB46E6194807F05CFB40F2E170C8
:102860001749FFF799F8EFE5114807F053FBEBE53F
:10287000144807F04FFB40F2DF701149FFF78CF866
:10288000E2E50D4807F046FBDEE500BF14870108CE
:10289000008701088487010898870108AC87010830
:1028A0000486010890850108E0840108D4840108A9
:1028B00028840108AC84010884830108508401083D
:1028C0001C840108F88301082DE9F04F03780546C0
:1028D000A3F13002012A0E46A1B040F290800022FE
:1028E000824FCDE90B227979012910D00024DFF83D
:1028F0000082752BD8F80020CDE90D440A9214D13E
:10290000132E00F06E81002021B0BDE8F08F721E02
:10291000815C002469290ABF164600224FF000425C
:10292000752BCDE90D440A92EAD0295D2246722921
:1029300005EB040900F0E48000F2448152297FD0C5
:1029400054297DD0233B562B00F23781DFE813F06A
:102950001C0435016603530335013501350135018A
:1029600035013501350135013501350135013501B7
:1029700035013501350135013501350135013501A7
:1029800035013501350135015A010F043501350195
:102990000704E603D803680457045A0152044A04A2
:1029A0007004D203BF03A60332033501350135019C
:1029B0001003350135013E030203F902EE02E40281
:1029C0003501350135015F013501350167016201CE
:1029D00078026A023501C30235015A01B802D302F6
:1029E000A0023C02290213023501C10199013501FF
:1029F0008401350135017B017401580247024FF40F
:102A0000001142780C91302A00F0CC804FF48010F5
:102A1000364F0B907979012900F0D8800023344992
:102A2000722A0968CDE90D330A9105F1010965D0D3
:102A300062D8522A02D0542A40F0BF800124224694
:102A4000B71A092F40F2B9804FF080434FF0000AC7
:102A5000601C28440793CDF820A007F0D1FB069016
:102A600004F10900284407F08FFB99F800308046F4
:102A7000522B099003D14FF00053D04608934046A3
:102A800007F0E6FB0530B7EB400F40F096800A34C4
:102A9000013EA64288BF00270DD9281907F07AFB0E
:102AA0000234E4B220AB53FA87F3B44203F8400C8B
:102AB00007F10107F1D307F0F5F910AC01210D483A
:102AC00006AE07F005FA21463046FEF715FE02284D
:102AD00000F08B8007F0F2F94046069D07F0B8FB46
:102AE00022460146284601F01FFE0CE7580103204C
:102AF0000000032084750108742A5ED10124224657
:102B0000B71A042F59D94FF0000A601C2844CDE9A8
:102B100007AA07F065FB0690201D284407F034FB48
:102B200099F800308046722B099003D14FF0005382
:102B3000D0460893404607F08BFB052300B203EB19
:102B400040039F4239D10534013EA64288BF002789
:102B50000DD9281907F01EFB0234E4B220AB53FA5A
:102B600087F3B44203F8400C07F10107F1D307F0F3
:102B700099F910AC0121B94806AE07F0A9F9214630
:102B80003046FEF7B9FD0228A4D107F097F902E01C
:102B90000A200FF0C9FD21463046FEF7ADFD0228A0
:102BA000F6D099E70022AE4F0B92797901290DD02A
:102BB000AC4B0D921B680E920A930121AA4807F0B4
:102BC0003BF9A0E674297FF4BDAE99E7721EA95CBB
:102BD000692900F05D8300220124CDE90D220A92CB
:102BE000A3E6284601F0D0FE8DE607F067F902E083
:102BF0000A200FF099FD21463046FEF77DFD0228A0
:102C0000F6D069E71621994807F016F97BE698484F
:102C100007F080F90121914807F00EF973E6022EC2
:102C2000CBD16B78934A303B18BF012301218B48ED
:102C3000137407F001F966E6FEF762FC012187488C
:102C400007F0FAF85FE6022EB7D16B78302B0CBF95
:102C5000002301237B71DDE7052EAED10126854CD3
:102C6000A819666107F096FA0346E81CE36107F0CD
:102C700091FA2062FEF744FC3146784807F0DCF810
:102C800041E67D4807F046F940217A4808F0CAFC41
:102C900007F056F9794C774808F0CEFC07F050F968
:102CA000206810F03BFA07F04BF92068744C10F0E4
:102CB00045FA07F045F9206810F030FA07F040F9BE
:102CC000206810F03BFA07F03BF9644807F022F95E
:102CD00019E6022E7FF471AF6B78423B022B3FF670
:102CE0006CAF00234FF400124FF48011BB70CDE99C
:102CF0000B12099340F281123B7000234FF014092C
:102D0000CDE90623DFF85C8110AC06AE002002F0AE
:102D1000BDFCFEF753FDFEF7F3FB64200FF004FD4E
:102D20006878012102F096FC6878012102F074FCB9
:102D300048460FF0F9FC02E00A200FF0F5FC2146AE
:102D40003046FEF7D9FC0228F6D032200FF0ECFC1A
:102D5000D8F8143009F1140913B9B9F5D27FD5D1D7
:102D6000D8F81430002B3FF428AF01213B483970CC
:102D700007F062F8C7E5012E7FF41FAF31463748F0
:102D800007F05AF83F4801F0A7FE002002F07EFC51
:102D9000002002F095FC64200FF0C6FC07F0C2FE94
:102DA000B1E5042E00F01E83092E7FF406AF681CE7
:102DB00007F026FA03462B4A23F000430121274857
:102DC000136507F039F89EE50121244807F034F82F
:102DD0000123284A3B70D360FEF792FB93E5032E54
:102DE0007FF4EBAE6878A0F14203022B3FF6E5AE2C
:102DF000AB78302B0CBF0021012102F00DFC09E75C
:102E00007822214B8DF84020D3F890050DF1410137
:102E100007F0C4F80D230A2110A88DF8493007F0F7
:102E20000BF870E5022E7FF4C8AE6B78302B00F003
:102E30000983312B7FF4EEAE012001F047FEE9E675
:102E4000022E7FF4BAAE6B78302B40F0C0820121A5
:102E500000230E4A1170BB70DCE600BF84750108C8
:102E60005801032000000320107401085488010851
:102E700024890108982A03206C8801088C2B0320E0
:102E8000882B0320748801080000FA0B82000320BD
:102E9000092E7FF492AE681C07F088F90346BF4CF8
:102EA000681D636107F076F90346E81DE36107F0EA
:102EB00071F903460121BA48236206F0BDFF22E5FD
:102EC000022E7FF47AAE6B78B448302B00F0B682D5
:102ED00008F0D6F99EE6022E7FF46FAE6B78302BA9
:102EE00000F0A782312B0CBF4FF480724FF4407278
:102EF000AA4B9A608EE66A238DF8403005F04EFBAF
:102F00000DF1410107F0B8F80D23042110A88DF848
:102F1000433006F091FFF6E4022E7FF44EAE6B785C
:102F2000302B0CBF00230123FB7073E6022E7FF4CD
:102F300044AE6B78302B0CBF0020012002F0A6FBC2
:102F400068E610F067FD102840F2AC81954806F065
:102F5000E1FFD8E4022E7FF430AE6B78303B032BD8
:102F60003FF62BAEDFE813F09201890187017D0166
:102F7000B31E062B3FF621AE012200208A4FAC186B
:102F8000A91914F8013B00EB8000303B03EB400033
:102F9000DBB20A2B28BF0022B84288BF0022A14220
:102FA000EFD1012A7FF409AEFEF73AFB00287FF447
:102FB00004AE2FE601217A4806F03EFF00210123EE
:102FC000764AD1603B70FEF79BFA9CE40F2177486C
:102FD00006F032FF0C21764806F02EFF01217548DD
:102FE00006F02AFF0921744806F026FF02217348E3
:102FF00006F022FF87E4062E7FF4DFAD052270493C
:10300000681C12F00AFD002840F0DC816D4806F0D3
:1030100081FF0121624806F00FFF74E4032E7FF662
:10302000CCAD6F1C311F3846C1F34F064FEA510932
:1030300007F0D6F8B04204467FF4BFAD05F10408AE
:1030400041461FFA89F210AE5F4807F083F810F08E
:10305000DBFC22465D4B5C49009605F0D7FE394605
:10306000BDF8400006F0D0FFBDF84020404657496B
:1030700006F072FF0D22BDF840302846023305F8F5
:1030800013205B00591C06F0D7FE10F0BDFC224651
:103090004E4B4D49009606F067FE34E44E234C4DEE
:1030A0004C4E0DF141048DF8403015F8040B2146CB
:1030B00006F0E2FFB54204F10204F6D1192110A88E
:1030C00006F0BAFE0121364806F0B6FE1BE4042ED7
:1030D00000F09681092E7FF470AD681C07F090F81F
:1030E00003463D4A23F0004301212D48D36406F0F6
:1030F000A3FE08E401212A4806F09EFE02215EE7B5
:1031000010A9264808F054FA02A9244808F078FAD1
:1031100010A902A801F098FCFFF7F5BB2F4807F0B3
:10312000AFF8431C9E427FF448AD2C4807F0A8F846
:103130002A490246681C12F088FC00287FF43DAD45
:103140000121174806F078FEC8200FF0EDFA03F0D1
:103150009DF8002840F07B8103F0E4F82DE5002382
:1031600001210F483B7006F067FEFFF7CCBB022E33
:103170007FF423AD6B78302B00F05781312B7FF437
:1031800049AD01233B7145E5012E7FF416AD14488E
:1031900006F0C0FE3046FFF7B7BB00BF982A0320F9
:1031A000847501088488010840420F00FC870108EB
:1031B0000C880108C47401081888010810890108E6
:1031C0003889010840890108B4660120B056012001
:1031D0009005FA0BC005FA0B000003207088010867
:1031E000248801084A238DF8403005F0E5F90DF1F7
:1031F00041010DE6984801F007FCFFF784BB032E60
:1032000000F00C81052E7FF4D8AC681C06F0C2FFDC
:103210000346924CE81CA36106F0BCFFA062F9E4EF
:1032200046238D4A0DF1410110798DF8403069E651
:10323000072E7FF4C2AC681C06F0ACFF0346874C37
:10324000E81C636206F0A6FF0346681DE36206F011
:10325000A1FF034601218248236306F0EDFDFFF73D
:1032600052BB03227C4B01217D48DA625A6406F08E
:10327000E3FDFFF748BB0222F4E70121764B7848D3
:10328000D962596406F0D8FDFFF73DBB0022E9E79B
:103290004FF00041164600220124CDE90D220A918B
:1032A000FFF743BB6F4806F035FE10F0B3FB02AAF0
:1032B00001466D4810F00AFF10AC6C4806F02AFE7B
:1032C00000212246029806F0F1FE204606F022FE7A
:1032D000674806F01FFE4FF00008634F654E63E03D
:1032E00064210AEBCA0207EB820292694FEACA051F
:1032F00001FB02F2B2FBF3F35FFA83FB22460021EB
:10330000504606F0D3FE204606F004FE5A4806F06A
:1033100001FE05EB0A0307EB8309D9F8040006F068
:10332000F9FDD9F80400FCF795FF07288CBF30465B
:10333000524806F0EFFD05EB0A0307EB83031B7B06
:103340005544052B96BF4E4A4E4852F8230006F0CE
:10335000E1FD22460021584606F0A8FE304606F060
:10336000D9FD204606F0D6FD07EB8505464806F058
:10337000D1FD22460021288C06F098FE304606F04A
:10338000C9FD204606F0C6FD304606F0C3FD2246C4
:103390000021A86906F08AFE204606F0BBFD3048F1
:1033A00006F0B8FD08F1010810F034FB5FFA88FA66
:1033B00050457FF6A8AA029B002B91D19B464FEA6D
:1033C000CA059BE7314806F0A5FDFFF79CBA00242B
:1033D000224B3C70DC60FEF793F801222C4BBA7054
:1033E0001C7017E4681C06F0FBFE03461A4AC3F380
:1033F0000A0301211A48936306F01EFDFFF783BA02
:10340000681C06F0EDFE0346134AC3F30A030121CC
:103410001348536306F010FDFFF775BA681C06F0F9
:10342000B9FE0E4B9861FFF7F5BB00233B71FFF728
:10343000F1BB0022094B9A60FFF7ECBB07F032FFAB
:10344000FFF7E8BB002001F041FBFFF7E3BB13F0FF
:10345000D7F9FFF7B2BB00BF00000320982A032072
:10346000847501089488010870540120E0880108DF
:10347000008901081C8901081489010818890108BC
:10348000A4940108F48701082089010858890108DB
:1034900082000320024A034B10801980704700BF4E
:1034A00054000320122D03202DE9F04100254FF494
:1034B00000780E46384B394FC3E90055C3E9025531
:1034C000374B384A1D80384B38491D80384BA2F89D
:1034D00000801D80374BB5221D70374B044638469F
:1034E0001D7012F00AFC3B22294607F1B50012F0CC
:1034F000A4FA002E4AD0204607F2FF13344410F8F5
:10350000012BA04203F8012FF9D1002206F500702B
:103510002A4B80B2B0F5805FC3E9002206D0C6F521
:103520006062002192B2384412F087FA0024244BE2
:103530004FF48062214623481C7012F07EFA224A22
:10354000224B1588224665F30F0465F30F0203F53D
:10355000905065F31F4465F31F42C3E900420833EE
:103560009842FAD1032500221821194B2E241D70F0
:10357000184B40201A702022174B1980174B1849FE
:103580001C80184B08701A70BDE8F0810B4B404648
:10359000C3E90066C3E700BF6C2D0320B80A022010
:1035A0007C2D0320602D0320622D032098890108C3
:1035B0001C2D0320192D0320182D0320642D03201A
:1035C000112D0320B8060220122D0320B876012009
:1035D00058000320142D03205C0003205A00032010
:1035E0005700032056000320014B1878704700BF96
:1035F000102D032001220249024B08601A70704707
:103600000C2D0320102D03200022014B1A7070474F
:10361000102D03202DE9F04F3C493D4B3D4A91F8D8
:1036200000801B7892F800908BB0B8F1000F6AD040
:10363000394A3A4912883A48049213FB08F202FBCD
:1036400003F4B1F800A04FEA440B1D460021A0EBA3
:1036500043044FEA420EB9F1000F4BD00690079297
:103660000846224601460027CDE90802EC1A0594D7
:1036700002EB450CCDF80CA02A48CA08825C01F088
:103680000704E24012F0010FDDE903020CBF14460B
:1036900004467BB16646DDF814A0304600220132B4
:1036A000934204807044FAD10AF1010A554506F1AB
:1036B0000206F2D10137BAB24A454144DC44DBD3B9
:1036C000DDE90802013081B28845DDF80CA01D4417
:1036D000C8D8DDE906021FFA82F8009012491348A3
:1036E000424603FB09F30988008804F0E3FD0BB0B0
:1036F000BDE8F08F01318CB2A045ECD901318CB21C
:10370000A045F7D8E7E70648E7E700BF57000320E2
:103710005800032056000320122D032054000320DC
:10372000B8760120B80602205A0003205C0003206E
:1037300000222DE9F04F744B744993F820308BB080
:10374000023B0A80042B06D8DFE803F04E515503F4
:103750004B0080230B806E4A1368C31A102B09D9C3
:103760006C4C23780BB1013B23706B4C2378002BFE
:1037700034D1106040F6FE73684C27889F4227D8EA
:10378000674B1D88B5F5805F22D2664A664ED31915
:103790005B78D25D43EA02231A4603F47040B0F529
:1037A000004F1BB2328000F0DC8228D8B0F5804F89
:1037B00000F07E813FD8B0F5005F00F0258300F275
:1037C0001683002800F07D81C3F30B03238002E001
:1037D0000022564B1A700BB0BDE8F08F013B2370EE
:1037E000C7E740230B80B6E720230B80B3E74FF4F5
:1037F00080730B80AFE74FF400730B80ABE7B0F53D
:10380000404F00F0E7822FD8B0F5204F00F0DB8268
:10381000B0F5304F00F03C81B0F5104FD8D1444B9B
:10382000C2F30321C2F30312595C9B5C994216D088
:103830000237BFB213E0B0F5C04F00F0BD82B0F563
:10384000E04F00F02C81B0F5A04FC1D1384AC3F34E
:103850000321C3F30313515CD35C9942E8D00237D0
:1038600027800BB0BDE8F08FB0F5604F00F0DB8231
:10387000B0F5704F00F07481B0F5504FA8D14FF003
:10388000000C2B492B4FC2F30320C2F303128A5CB6
:1038900003F00F063B7811F800B0029281F80FC0D8
:1038A000002B00F04482002E00F0FF82082300224B
:1038B0001FFA86F9049307931F49079B09785B4415
:1038C0008B4200F3EF821D4B02991B7849449942C9
:1038D000D4BF0023012303930027002A14BF4FF411
:1038E000004380233A460593CDF824B0B9F1100F78
:1038F00000F02D820B4B1D4415F807800025099E12
:10390000CDF820906FE000BF600003201A2D032047
:103910000C2D0320182D0320192D0320602D0320CA
:10392000622D0320B80A02207C2D0320102D0320D5
:103930006C2D0320112D0320570003205600032077
:10394000BB4B029A1978BB4B3A441B78B2FBF1FC93
:10395000B6FBF3F04FF0010A01FB1C2203FB1060E1
:1039600003FB0203DFF8E8924FEAD30E19F80E10BA
:1039700003F0070321FA03FB1BF0010F069218BFA7
:10398000AD4A0AFA03FC5FFA8CFC18BF82F80FA05C
:10399000039A0CBF41EA0C0121EA0C0109F80E1050
:1039A000002A00F0D281D940CB0754BFA34BA44BCF
:1039B000069A1B88A3490093A34B09881B7812FB26
:1039C00003F210FB03F01144A04A89B2128810449C
:1039D00080B21A4604F0F8FB0122049B01359D4297
:1039E00006F101064BD0059B2B4113EA080FA7D126
:1039F000039B002BF1D18E4B18788E4B1978029BCC
:103A00003B44B3FBF0FC00FB1C3C96FBF1F301FBD9
:103A1000136301FB0C338E48D908415C03F00703A4
:103A2000D940C90754BF854B854BB3F800E0864B9E
:103A300018780028D1D0079B00FB05FA03FB00FC97
:103A400007FB00F90CFB09A9824B4FEA4C0C03EB76
:103A500049090AEB000B4946002301338342A1F8D0
:103A600000E06144F9D10AF1010ADA4509F10209DD
:103A7000F1D1049B01359D4206F10106B3D1DDF879
:103A800020900137B94500F0E081734B1D882DE788
:103A9000694AC3F30B031278134423809BE66648FC
:103AA000C3F30321425C023713442780435492E658
:103AB0006149C3F303228A5CDBB29A427FF4B8AE59
:103AC000CDE6DAB2012A3FF4CAAEE03A91B21F293C
:103AD00000F2C4801F2A00F2C18001A151F822F037
:103AE000F53F00085D3C00085D3C00085D3C0008B7
:103AF0005D3C00085D3C00085D3C00085D3C000842
:103B00005D3C00085D3C00085D3C00085D3C000831
:103B10005D3C00085D3C0008094200085D3C00086F
:103B20005D3C00085D3C00085D3C00085D3C000811
:103B30005D3C00085D3C00085D3C00085D3C000801
:103B40005D3C00085D3C00085D3C00084341000806
:103B500061400008D1370008314000082B420008BE
:103B6000DBB2332B00F3B181062B7FF731AE073B7D
:103B70002C2B3FF62DAE01A050F823F0B3420008E5
:103B8000D1370008D13700083F440008D13700087A
:103B9000D1370008D1370008D1370008D1370008E5
:103BA000D1370008D1370008D1370008D1370008D5
:103BB000D13700082B440008D1370008D13700085E
:103BC000E1440008D1370008D1370008D137000898
:103BD000D1370008D1370008CB440008D13700089E
:103BE000D1370008D1370008D1370008D137000895
:103BF000D1370008D1370008D1370008D137000885
:103C0000D1370008B3440008D1370008D137000885
:103C1000D1370008D1370008D1370008D137000864
:103C200097440008D1370008D1370008A94300089D
:103C300056000320570003206C2D0320122D032073
:103C4000540003205A000320580003205C00032086
:103C5000B8060220B8760120622D032003F0F0029E
:103C6000C02A00F03083D02A7FF4B2ADB04A03F00E
:103C70000F031278002A54D000254FF0010B9C4608
:103C8000AC4913FB02F991F800A0AAEB030802FB70
:103C900008F1E24528DD2F46CE46CDE902CCCDE93C
:103CA0000415A5484FEADE03C35CF90810F801C00B
:103CB00018460EF0070607F007030BFA03F320FA85
:103CC00006F6DBB2F00743EA0C0558BF2CEA030501
:103CD000994B96445D54029B174401339A450293D5
:103CE000DFD1DDE903C1059D904513DA0B46464659
:103CF00091484FEAD30E10F80E0003F007070BFAB5
:103D000007F720EA070701368B48964200F80E7045
:103D10001344EDD10135954201F1010109F1010989
:103D2000B7D1FFF777FC23880233238053E5834B19
:103D3000C0221B882E2100931820602304F044FA2F
:103D400001233B707E4B1D88ADE5012268E67D4B6B
:103D500005EB4705591991F801805B5D48EA032896
:103D6000CCE5C2F3032103F00F030D46C2F30310A9
:103D70000E2B3FF62DAD01A656F823F0B73F0008F5
:103D8000A73F0008973F0008873F0008693F0008E9
:103D9000253F0008C33F0008093F0008D13700084D
:103DA000D1370008D1370008D1370008D1370008D3
:103DB000D1370008914200086349C3F30322023758
:103DC0008B54278007E55E4AC3F30B030237138049
:103DD000278000E504F0E2FB33885B4DC3F3032149
:103DE00000EA030223886A5402332380F3E4B0F527
:103DF000405F7FF4EDAC5449C3F303228A5CDBB22D
:103E00009A427FF42CAD13E5504951480A8820F8B6
:103E10001270013292B21F2A0A807FF6D5AC0021BF
:103E20004C4A1170D0E4DBB29E2B44D0A12B7FF41E
:103E3000CFAC4548C2F303220B88825C1341DB07F9
:103E40003FF50DAD04372780C5E4DDF824B02AB373
:103E5000039B1BBB364B1A78364BBBFBF2F11B782E
:103E600002FB11B00299B1FBF3F203FB12113A4BC2
:103E70001B7813FB05F211FB03F1384D10FB03F027
:103E80002D8803FB09F32944354D92B22D8889B260
:103E90002844344D80B2009504F00CFA2388023394
:103EA000238098E40123039316E510230122994609
:103EB0000493079300E52448C2F30322825C0B8835
:103EC0001341DA077FF5CBACBCE7752B00F0A48279
:103ED00000F38280552B00F08A82652B7FF478AC4A
:103EE000C2F30326AB19B3F5805FBFF671AC154B77
:103EF000721C5919144811F000FF0135104B2E4463
:103F000002371E80278066E40F4B0237185C5A5C2C
:103F100027808242A0EB02048CBF002201225C5465
:103F2000DA7358E4084B02371A5C2780585CF0E7D4
:103F30005700032056000320B8060220122D03204C
:103F4000622D0320B80A02206C2D03201C2D0320B3
:103F5000202D0320102D0320580003205A00032099
:103F60005C000320B8760120BB4B02371A5C585C1A
:103F700027801418C0F1FF008242D4BF0022012222
:103F80005C54DA7327E4B44B02371A5C585C278020
:103F900042405A541FE4B04B02371A5C585C2780E9
:103FA00002405A5417E4AC4B02371A5C585C278025
:103FB00002435A540FE4A84B02371A5C27805A5424
:103FC00009E4A54902370B5C27805A0803F0010376
:103FD0004A55CB73FFF7FFBB852B7FF4F9ABC2F3D8
:103FE00003229E499C480132023711F086FE278049
:103FF000FFF7F1BB4FF480620021994811F01DFDDD
:104000009849994A994B087812781B78984902FB8D
:1040100003F300FB02F29748098800880090964855
:10402000008804F0D1F8238802332380FFF7D3BB44
:104030000320002318218C4A202510702E204022B6
:10404000023727808D4C23708D4C23708A4B874C10
:1040500019808749834B257008801A70FFF7BBBB16
:10406000874B824A1B7892F800A0002B0CBF4FF0C0
:10407000020C4FF0040CBAF1000F3FF452AE0025D1
:10408000784B4FF001091E78DFF8D4E1A6EB0C075E
:10409000B0463B4637462E46002B4CDD70462A463E
:1040A000CDE902A3CDE9048CCDE906750CEB050141
:1040B00003EB050BD3081EF80350CF0801F00703EC
:1040C00002F0070A1EF8078009FA03F325FA0AF539
:1040D000DBB2ED0702F1010243EA080C58BF28EAFF
:1040E000030C93450EF807C001F10101E2D1DDE9AF
:1040F00002A3DDE90675DDE9048CBB4280F2D280C3
:1041000002465946CDF808A04FEAD10B12F80B0031
:1041100001F0070A09FA0AFA013120EA0A00884583
:1041200002F80B00F0D1DDF808A00136B245B84422
:104130003D44B1D1F5E5BB42F7DA494A03EB050B43
:10414000DFE74F4B494A1B7892F800A0002B0CBFC9
:104150004FF0020C4FF0040CBAF1000F3FF4E1AD48
:104160004FF0010900223F4B0CF1FF3793F800801C
:10417000A9EB0C0B08F1FF33A3EB0C0E384BCDF879
:1041800008A0E0450BEB070627D97046CDE9038C64
:10419000CDE9052E0EEB0C01CA089D5C4FEAD00C50
:1041A00000F0070201F0070A13F80C8009FA02F286
:1041B00025FA0AF5D2B2ED0701F1FF3142EA080E05
:1041C00058BF28EA020E8F4203F80CE000F1FF30DE
:1041D000E2D1DDE9038CDDE9052E4FEAD60A13F8BA
:1041E0000A0006F0070509FA05F520EA0500B742BE
:1041F00003F80A0006F10106EFD10299013291425B
:104200004744C644BDD18CE51E4A1388013B9BB28E
:104210001F2B138002D900211B4A11701B4A32F850
:10422000133002332380FFF7D6BA012338250E4816
:104230000237037010482780058000208024402228
:104240000E490B4D0870074908480C700C492A802C
:1042500002700B70FFF7BFBA6C2D0320642D032092
:10426000B806022057000320580003205600032000
:104270005A000320122D03205C000320112D03207F
:10428000142D03201C2D0320102D0320202D03208E
:10429000984902370B5C27805A00DB094A55CB73DB
:1042A000FFF799BA0136B245B8443D447FF4F7AE02
:1042B00037E591498F4B0978C2F3032202379954AD
:1042C0002780FFF788BA8D4A03F00F05117800297F
:1042D0003FF427AD8A4B6A1E1B7800205B1B5F1ED4
:1042E0001A44002F01FB02F201FB07F62EDB854B7F
:1042F0009446B046BB46CDE9025004924FF0010906
:104300004FEAD80E13F80E500CF0070E4FEADC02FD
:1043100009FA0EFE08F00709985C25FA09F95FFA18
:104320008EFE19F0010F0BF1FF3B40EA0E0A08BFA9
:1043300020EA0E0ABBF1FF3F03F802A0A8EB010838
:10434000ACEB010CDAD1DDE90250049A0DB34FF069
:10435000010A6C4B84464FF0000E4FEADC0913F85B
:1043600009800CF0070B0EF1010E0AFA0BFB28EA8C
:104370000B08754503F809808C44EED10130814269
:1043800006F1010602F101023FF4CBAC002FAFDAD7
:10439000E0E70130814206F1010602F101023FF43B
:1043A000C0AC7B1CA3D1F4E7A81CB0F5805FBFF6BE
:1043B0000FAA0237278064244E4BC2F303229A5C73
:1043C0000A21B2FBF4F3504F7B5504FB1323DBB2FD
:1043D000B2FBF1F2B3FBF1F401FB1433B2FBF1F4E5
:1043E00001FB14227E1972703B54FFF7F4B9C2F33B
:1043F0000326AB19B3F5805FBFF6EAA9424B721CE6
:1044000058193C4911F079FC0135404B72190237BB
:104410001A802780FFF7DFB9C2F303223549013242
:104420003B4811F06AFCFFF71ABA3249C2F3032283
:104430008A5C314B02371A702780FFF7CCB9002015
:10444000344DB1F800804FF0010E8446298805E014
:104450004FF0010CB1B20130102815D048FA00F32A
:104460000EFA00F613F0010346EA0106F0D141FA14
:1044700000F6F607EFD52B801E4BC2F3032202375E
:1044800027809854FFF7A7B9BCF1000F3FF4A3A908
:104490002980FFF7A0B9174BC2F303229B5C1B4A8C
:1044A00003EB83035B000237503313802780FFF751
:1044B00092B9104BC2F303229B5C144A023703EB00
:1044C000830313802780FFF786B90A4BC2F30322C8
:1044D0009B5C0E4A02372B4427801380FFF77BB981
:1044E0000449C2F303228A5C0B4B02371A702780FF
:1044F000FFF771B96C2D0320192D032057000320FD
:1045000056000320B8060220B80A0220622D0320BC
:10451000642D0320162D0320182D0320704700BFA3
:1045200091B14FF0FF3210B4084C014410F8013B38
:104530005340DBB254F82330884283EA1222F5D18B
:10454000D0435DF8044B7047084670478CB40108AF
:10455000704700BF704700BF0022014B1A607047D0
:10456000842D03202DE9F04144688CB0B4F1804FD4
:1045700002D00CB0BDE8F0810668C068C6F30747FA
:104580000D4605F065FEEA2FC6F3072833D0EC2F61
:10459000EFD1B8F12A0FECD10728EAD92B78102BEC
:1045A000E7D1EA79AB7912046D7942EA03222A4312
:1045B00033020825444900209BB219430494FF2389
:1045C0006FF47E44039122FA05F1CDE90700CDE9AD
:1045D00009008DF809208DF80A10120C05900B9037
:1045E00001A903A88DF80B20069501948DF80830D9
:1045F000FDF782F8BDE70228BBD9B8F1FF0F02D062
:10460000B8F12A0FB5D1AB7869782A781B0443EA50
:1046100001231343B3F56E4F43D04FF6C552934277
:10462000A7D1002508234FF08042012427492848BC
:10463000019128490390029103A801A9CDE906350B
:10464000CDE90425CDE90855CDE90A55DFF8948078
:10465000FDF752F8204B08F1FF3703930DF10B06DD
:104660000822FF2101A805F0FBFD8DF8044001A9F7
:104670007A1904E00233A3EB0803152B06DC13467A
:1046800012F8010F01F8010F8E42F3D1013401A994
:1046900003A8E4B2FDF730F8052C05F10705DFD1DA
:1046A00067E700234FF0804408220C480C49039030
:1046B00003A8CDE90443CDE90623CDE90833CDE9CC
:1046C0000A33FDF719F854E72A00EC1C2016000401
:1046D0002AFFEC1CFFC5FD002AFFEB1C2AFFEE1889
:1046E000A4B801088CB8010800207047024A13687A
:1046F00001331360704700BF842D0320024A136802
:1047000001331360704700BF802D032000200FF09D
:1047100023B800BF00200FF01FB800BF0122014BDB
:104720001A70704782000320F9B108B5034661484A
:10473000834267D01AD86048834200F0A98032D8FB
:104740005E48834200F0B08000F283805C48834280
:104750004CD000F19D6000F54230834204D11046F8
:10476000FCF738FD574B588108BD704756488342C7
:1047700042D02AD86FF4847CA0F58E306044834206
:1047800000F08C805CD8A0F55C20A0F61E708342FF
:1047900044D000F582608342E6D11046FCF720FD4C
:1047A000484B188108BD4948834265D05AD84848CB
:1047B00083422DD000F5EA4042308342D4D11046E6
:1047C000FCF7B6FD3F4B188308BD4248834259D0E1
:1047D00000F5F270834227D0A0F5FF608342C3D179
:1047E0001046FCF787FD374B188208BD1046FCF7D2
:1047F00095FC344B588008BD1046FCF773FD314BD7
:10480000588208BD1046FCF7B9FC2E4B988008BDB5
:104810001046FCF74BFD2B4B588308BD1046FCF7A8
:10482000FFFC284B187308BD1046FCF701FD254B13
:1048300083F8200093F82000BDE8084001F048BC50
:104840002548834290D11046FCF728FD1D4BD875B2
:1048500008BD2248834287D11046FCF7D9FC194B8A
:10486000D88108BD1E4883427FF47EAF1046FCF716
:1048700063FC144B188008BD1046FCF7FFFC114B7D
:10488000987508BD1046FCF769FD0E4BD88308BD2E
:104890001046FCF78FFC0B4B988208BD1046FCF7C6
:1048A00031FD084B988308BD1046FCF761FC054BB1
:1048B000D88008BD5A03F0182A04F00C2A00000C16
:1048C0002A0B0404600003202AF1FE180521EF18CA
:1048D00005CCFD0C2100FF182AD4FD182A03010C79
:1048E0005A01F0182DE9F043254D0646DFF8948073
:1048F00083B005F11C0701E0AF423ED055F8044FEC
:10490000E36E626EF31A9342F6D3B4F9723001A9E2
:1049100004EBE300002B00F1240007DBB4F868305F
:1049200002225BBAADF8043005F09EFCB4F9743095
:1049300004F12409002B4FEAE30110DB4846FFF79E
:10494000EFFD0190B4F9740004220028B8BF0730CD
:10495000C010243001A904FA80F005F085FCD8F8D5
:104960000030494623612046FCF7C6FEA36EAF42E5
:1049700003F10103E666A366C0D103B0BDE8F0838E
:10498000A8B801080000032010B50446013005F066
:1049900027FC1649FCF7AAFB201D05F021FC144951
:1049A000FCF7DEFBE01D05F01BFC1249FCF7FAFBEF
:1049B00004F10A0005F014FC0F49FCF701FC04F1B6
:1049C0000D0005F0E7FB0D49FCF71AFC04F10F00A0
:1049D00005F0E0FB0A49FCF757FC04F1110005F073
:1049E000D9FBBDE810400749FCF772BC5C0403200A
:1049F000E40303206C030320F40203207C02032061
:104A0000040203208C01032010B504460B4805F076
:104A100081FAE06805F094FA206905F091FA60697E
:104A200005F08EFAA06905F08BFA054B986805F041
:104A300087FABDE81040034805F06CBA508A0108B7
:104A4000580103208475010838B505460C461C48FA
:104A500005F060FA1B4B986805F072FA286805F0BB
:104A60006FFA686805F06CFAA86805F069FAE868FA
:104A700005F066FA206805F063FA606805F060FAF0
:104A8000A06805F05DFAE06805F05AFA206905F0C3
:104A900057FA606905F054FAA06905F051FAE06927
:104AA00005F04EFA206A05F04BFA606A05F048FA04
:104AB000A06A05F045FABDE83840034805F02ABA77
:104AC000548A01080000032084750108014B187006
:104AD000704700BF882D0320074B1B78012B00D0A7
:104AE000704710B5044605F0CBFB01462046BDE8F3
:104AF000104005F0A1B900BF882D03202DE9F84F23
:104B00007B4D074695F800C00E46BCF1010F90465C
:104B10001C4600F09280DFF8EC9199F80430002BED
:104B200040F083802B78002C76D0012B00F0988009
:104B3000A10700F1AE80610700F1AE81200700F10E
:104B4000B680E10640F1C280A00600F1C180610696
:104B500040F1758314F4801A00F07682A10240F1CE
:104B60002182D6F800B0BBF1010F00F07283BBF1D7
:104B7000020F00F06E834FF4801ABBF1030F03D0D5
:104B8000BBF1040F40F04D84640200F110823878CC
:104B900005F0CAF92B78012B00F04E823868C0F37B
:104BA000C70005F0C1F92B78012B00F0B9823879E4
:104BB00005F0BAF92B78012B00F0A182387B05F0C3
:104BC000B3F92B78012B00F04D8296F8280005F000
:104BD000ABF92B78012B00F05482B268182A00F24E
:104BE0006B81DFE812F069016901690169016901FE
:104BF0006901690169016901690169016901690165
:104C00006901690169016901690169016901690154
:104C10006901690169016901012B00F07882D8F806
:104C20001830D9F80830BDE8F88F38463146FFF71C
:104C30000BFF4046FFF7E8FE74E72E4805F020FB27
:104C400001462C4805F0F8F82B78012B7FF463AF70
:104C5000294805F015FB0146274805F0EDF85AE70D
:104C6000264805F00DFB0146244805F0E5F8E2076B
:104C70002B780AD5012B40F00184214805F000FB78
:104C800001461F4805F0D8F82B78A20744D5012B20
:104C90003AD0600700F10081210708D4E0063FF513
:104CA00053AFA10614D462063FF554AF73E0E0069B
:104CB0003FF54AAFA1060BD460063FF54BAF210686
:104CC0003FF548AFE2053FF545AF7EE0A20655D57A
:104CD00060063FF53FAF21063FF53CAFE0053FF5ED
:104CE00039AFA1053FF536AFE2033FF533AF86E0BC
:104CF000882D0320588A0108908A0108B48A010887
:104D0000B88A010858010320954805F0B9FA014610
:104D1000934805F091F82B7862070AD5012B40F0F3
:104D2000BB80904805F0ACFA01468E4805F084F847
:104D30002B78220709D5012BB9D18B4805F0A0FAB1
:104D40000146894805F078F82B78E2060AD5012B50
:104D50007FF4FAAE854805F093FA0146834805F0E2
:104D60006BF82B78A20609D5012BB1D1804805F04C
:104D700087FA01467E4805F05FF82B7862060AD56F
:104D8000012B7FF4E7AE7B4805F07AFA01467948BB
:104D900005F052F82B7820060AD5012B7FF4DAAE05
:104DA000754805F06DFA0146734805F045F82B7813
:104DB000E1050AD5012B7FF4CDAE704805F060FA0D
:104DC00001466E4805F038F82B78A2050AD5012B6C
:104DD0007FF4C0AE6A4805F053FA0146684805F012
:104DE0002BF82B78E0030AD5012B7FF4B3AE65488E
:104DF00005F046FA0146634805F01EF82B7814F4D6
:104E0000801A0CD0012B7FF4A9AE5F4805F038FA68
:104E10004FF4801A01465C4805F00EF82B78012B00
:104E200040F01281594805F02BFA0146574805F029
:104E300003F8A1022B7800F17B81012B7FF4A4AE53
:104E4000524805F01DFA0146504804F0F5FF620291
:104E50002B7840F1D280012B746840F04B824C4893
:104E600005F00EFA01464A4804F0E6FF012C2B78C3
:104E700000F02882022C00F0AE82032C40F0C282A7
:104E8000012B7FF484AE434805F0FAF9014641480E
:104E900004F0D2FF2B78A5E020073FF508AFE1062C
:104EA0003FF552AEA0063FF513AF61063FF552AE97
:104EB00022063FF54FAE7BE73269002A3AD172698C
:104EC000002A37D1B269012A3FF4A9AEF269012A5A
:104ED0003FF4A5AE326A012A3FF4A1AE726A012AFC
:104EE00000F0FC81D8F8182052B1012B7FF499AE64
:104EF000294805F0C5F90146274804F09DFF2B78A5
:104F0000D9F8082052B1012B7FF48DAE234805F06B
:104F1000B7F90146214804F08FFF2B78012B7FF46D
:104F200082AE1F4805F0ACF9BDE8F84F01461C48B9
:104F300004F082BFB269012A3FF471AEF269012A1E
:104F40003FF46DAE326A012A3FF469AE726A012AFB
:104F50003FF465AED8F81820002A7FF462AECFE7A0
:104F6000D48A0108F88A0108148B0108348B0108DF
:104F7000548B01086C8B0108888B0108A48B0108F5
:104F8000C08B0108DC8B0108FC8B010884750108CB
:104F9000048D0108748C01080C90010838900108F8
:104FA0006890010864027FF5F2AD4FF4801A7468CE
:104FB000012C3FF4ECAD022C3FF4E9AD032C3FF49F
:104FC000E6AD042C3FF4E3AD052C40F0A281012BAB
:104FD0007FF4DDADA74805F053F90146A54804F07C
:104FE0002BFF2B78012B7FF4D2ADA34805F048F9B5
:104FF0000146A14804F020FF2B78BAF1000F0AD037
:10500000012B7FF4C4AD9D4805F03AF901469B4859
:1050100004F012FF2B78012B7FF4B9AD984805F00E
:105020002FF90146964804F007FF387804F07CFF1A
:105030002B78012B7FF4B2AD924805F021F901469F
:10504000904804F0F9FEA9E5A0027FF59DADD6F8E1
:1050500000B0BBF1010F3FF497ADBBF1020F7FF43D
:105060008CAD91E5884805F00BF90146864804F0BF
:10507000E3FE96F8280004F057FF2B78012B7FF40D
:10508000ACAD7D4805F0FCF801467B4804F0D4FE49
:10509000BB6853B12B78012B7FF49FAD7B4805F0A3
:1050A000EFF80146794804F0C7FE2B78012B7FF416
:1050B00094AD774805F0E4F80146754804F0BCFE6D
:1050C000B2682B78182A5BD8DFE812F06E015A001C
:1050D0005A005A005A005A005A005A0063015A00F6
:1050E0005A005A005A005A005A005A0058015A00F1
:1050F0005A005A005A005A005A005A004D01654899
:1051000005F0BEF80146634804F096FE56E5624895
:1051100005F0B6F80146604804F08EFE2B78E1E613
:105120005E4805F0ADF801465C4804F085FE3EE5BA
:10513000012BD6F800B08CD1594805F0A1F80146F2
:10514000574804F079FEBBF1010F2B7800F0858001
:10515000BBF1020F00F03381BBF1030F00F0478178
:10516000BBF1040F40F05D81012B7FF40DAD4D4884
:1051700005F086F801464B4804F05EFE2B785CE6AD
:10518000012B7FF499AE484805F07AF8014646486D
:1051900004F052FE2B78012B7FF48EAE364805F0DA
:1051A0006FF80146344804F047FEF36853B12B789A
:1051B000012B7FF481AE3D4805F062F801463B4883
:1051C00004F03AFE32692B7852B1012B7FF4B2AE73
:1051D000374805F055F80146354804F02DFE2B7888
:1051E000726952B1012B7FF4A5AE324805F048F840
:1051F0000146304804F020FE2B78B269012A0AD11A
:10520000012B7FF40CAD2C4805F03AF801462A48F2
:1052100004F012FE2B78F269012A00F09880326ABD
:10522000012A7FF45BAE012B7FF4F9AC234805F033
:1052300027F80146214804F0FFFD2B784EE62006B2
:105240003FF588ACE1053FF585ACA2053FF582ACA2
:10525000C8E562023FF5A9AE99E4012B7FF494AC56
:10526000174805F00DF80146154804F0E5FD2B78C8
:10527000E3E500BFAC8C010884750108288D0108A6
:10528000448D0108548D0108848D0108908D01081A
:10529000C88D0108748D0108FC8F01085C8D010820
:1052A000188C0108908C0108788E0108948E0108F2
:1052B000BC8E01080C8F0108308F0108A08F0108F7
:1052C0003C8C0108012B7FF462AC734804F0D8FFDA
:1052D0000146714804F0B0FD2B7883E6012B7FF482
:1052E0009EAC6E4804F0CCFF01466C4804F0A4FD6F
:1052F0002B78F7E5012C3FF44AAC022C3FF447AC85
:10530000032C3FF444AC042C3FF441AC052C3FF497
:105310003EAC062C2B780BD1012B7FF438AC6048C7
:1053200004F0AEFF01465E4804F086FD2B7859E696
:10533000072C7FF457AE012B7FF429AC594804F0B9
:105340009FFF0146574804F077FD2B784AE6012B72
:105350007FF465AC544804F093FF0146524804F0D2
:105360006BFD2B785BE7012B7FF4A6AD4F4804F073
:1053700087FF01464D4804F05FFD0BE7012B7FF4EA
:105380009BAD4B4804F07CFF0146494804F054FDB6
:1053900000E7012B7FF490AD464804F071FF014611
:1053A000444804F049FDF5E6012B7FF485AD424801
:1053B00004F066FF0146404804F03EFDEAE6012B9A
:1053C0007FF4E2AB3D4804F05BFF01463B4804F04C
:1053D00033FD2B7831E5012B7FF4D9AB374804F04E
:1053E0004FFF0146354804F027FD2B78FAE5012BE5
:1053F0007FF4CAAB324804F043FF0146304804F062
:105400001BFDBBE6042C7FF4DFAD012B7FF4BFABAB
:105410002C4804F035FF01462A4804F00DFD2B7896
:10542000E0E5BBF1050F2B780AD1012B7FF4ACAB83
:10543000254804F025FF0146234804F0FDFC9DE6C5
:10544000BBF1060F0BD1012B7FF49EAB144804F087
:1054500017FF0146124804F0EFFC2B78EDE4BBF196
:10546000070F7FF4EAAC012B7FF48EAB0D4804F0FC
:1054700007FF01460B4804F0DFFC7FE6A0077FF53D
:105480005AAB60073FF508AD21073FF510ACE206C7
:105490003FF55AAB66E400BF3C8C0108D48F01088D
:1054A000C88C0108E48C0108688F0108548E01083B
:1054B000348E0108088E0108DC8D0108588C010823
:1054C000748C0108908C0108AC8C010838B5044636
:1054D000054B064D1A60296000F022F8204603F0C3
:1054E000ABFB002038BD00BF8C2D0320902D032086
:1054F00003F0C2BB084B10B51B6803F0F3FB012897
:1055000000D010BD0023BDE8104004490222096804
:10551000086819460EF0A6BF8C2D0320902D03209D
:1055200000B583B0102001A900F040F910B903B014
:105530005DF804FB0021102000F020F9003818BFAE
:10554000012003B05DF804FB00B583B0102001A971
:1055500000F02CF928B90146019830B903B05DF884
:1055600004FB012003B05DF804FB102000F006F9F5
:10557000003818BF012003B05DF804FB70B50026A9
:1055800082B004460D46102001A9019600F00EF9E4
:1055900010B9019BA34202D8012002B070BD04F1F2
:1055A0001100294680B200F001F9801B18BF0120CC
:1055B00002B070BD002210B5114B82B01B78019271
:1055C00013B9184602B010BD044601A9102000F01E
:1055D000EDF840B901981130FF2804D8214680B277
:1055E00000F0CCF818B10123184602B010BD0199A3
:1055F0001020013100F0C2F8031E18BF0123E0E7BC
:1056000083000320014608B5102000F0CFF80038D1
:1056100018BF012008BD00BF422804D0432807D08E
:1056200044280BD070470A460748202106F0FEBDEB
:105630000A4606484FF4005106F0F8BD0A460448F1
:10564000012106F0F3BD00BF00040242000802423F
:1056500000000242422804D0432807D044280BD03F
:1056600070470A460748802106F0E0BD0A46064812
:105670004FF4804106F0DABD0A4603484FF400417A
:1056800006F0D4BD000402420008024210B50446F0
:1056900020212246074806F0C9FD22464FF400515A
:1056A000054806F0C3FD2246BDE81040012103482D
:1056B00006F0BCBD000402420008024200000242A3
:1056C00038B50446094D22468021094806F0AEFD52
:1056D000284622464FF4804106F0A8FD224628467F
:1056E000BDE838404FF4004106F0A0BD000802427A
:1056F0000004024238B5144D144C28460022802183
:1057000006F094FD204600224FF4804106F08EFD05
:1057100000224FF40041204606F088FD0A200DF0DB
:1057200003F828460122202106F080FD20460122B0
:105730004FF4005106F07AFDBDE8384001220448DC
:10574000114606F073BD00BF000402420008024289
:105750000000024210B506F0C7F800200BF09CFDD7
:10576000044618B906F0D4F8204610BD00200BF00E
:1057700065F906F0CDF8204610BD00BF38B50446E7
:105780000D4606F0B1F8204629460CF03FF8C30557
:10579000044603D406F0BCF8204638BD0BF028FAC6
:1057A0000443A4B206F0B4F8204638BD0BF080BB29
:1057B000F8B54FF4805600240F460546831904704F
:1057C000C0F80240047384601C74C3F812409C61EA
:1057D000DC8100F5005332462146C3E907445F628D
:1057E0000D3010F02AF9A81932462146BDE8F840DC
:1057F0001C3010F022B900BFF0B5044683B08360BE
:1058000031B3157894462B09032B21D8DFE803F038
:10581000253A600205F00F0500F50056012986F8CB
:10582000215000F0AB809CF80130022986F822302C
:1058300000F0A7809CF8023086F82330002D00F09D
:10584000AC80012D00F09F80032204F580531A7470
:10585000237B012B73D003B0F0BD03780BB1002381
:1058600003706B1E062BF3D801398D42F0D82A46FF
:105870000CF1010104F10D0004F0F6FC0223658037
:105880002370E5E703780BB1002303700729DFD904
:105890009CF800309CF801201B0203F47063134352
:1058A000072BA380D4DD06220CF1020104F10D00C8
:1058B00004F0DAFC01220021062004F500562270D3
:1058C0006080B17704F58051CA813023F27F3CE0DB
:1058D0000378012BBCD100F58057FA8905F00F053C
:1058E00002F00F039D4246D14088A3881B1A9BB249
:1058F000072B5BD90829ABD10132FA814B1EDDB2EF
:105900000D302A460CF10101204404F0ADFC6388FF
:10591000A2882B449BB29A4263804FD004F5005674
:10592000F27F002A94D0FB89013B93FBF2F102FB4A
:105930001133002B8CD1B37F43F0300305E004F525
:105940000056B37FF27F43F03003002196F8200029
:1059500021738DF802000320746A8DF800308DF8F1
:10596000012004F07BFC03466946706AE360FBF7A4
:10597000C3FE03B0F0BD0023037069E7002386F87F
:105980002230002358E704F58052137C013B012BA1
:105990003FF65EAF022313745AE704F580531A7C76
:1059A000022A7FF455AF01221A7451E78B42BFF4EB
:1059B0004FAF0132072BFA81A1D19FE70223237059
:1059C00046E700BF2DE9F84300F58056347C012CF2
:1059D00003D000242046BDE8F88300F500581D469A
:1059E00098F823300F46F12B28BF0123B169844674
:1059F000691A9942EDD3718AB38A99B9072B50D8A5
:105A00001046314600F8013BB28A1C3104F02CFCF0
:105A10000322B38A01333B70B38A7382A8F81C4017
:105A200032743AE010465B1A1FFA83F9B8F81C305A
:105A3000B9F1070F03F00F0343F0200300F8013B17
:105A4000718A01F5805101F11C01614414D90722CA
:105A500004F00AFC08233B70738A0733738298F8BA
:105A60002220B8F81C30AAB1B3FBF2F102FB1132CC
:105A700082B9022232740DE04A4604F0F5FB03239A
:105A800009F101023A703374738A9944B8F81C30F2
:105A9000A6F812900133A8F81C302046B561BDE885
:105AA000F883C3F3032343F010031370B38A00F5A4
:105AB00080515370901C1C31062204F0D5FB082342
:105AC00006223B7002237282A8F81C403374E4E77C
:105AD0000378012B06D18268034B891A9942C4BF0F
