:020000040800F2
:1000000000000420FD4A0008794900087D490008E5
:100010008149000885490008894900084D4B0008BE
:10002000000000000000000000000000C1E7000820
:100030008D4900080000000051E70008EDC30008EA
:100040004D4B00084D4B00084D4B00084D4B000830
:100050004D4B00084D4B00084D4B00084D4B000820
:100060004D4B00084D4B00084D4B00084D4B000810
:100070004D4B00084D4B00084D4B00084D4B000800
:100080004D4B00084D4B00084D4B00084D4B0008F0
:100090004D4B00084D4B00084D4B00084D4B0008E0
:1000A0004D4B00084D4B00084D4B00084D4B0008D0
:1000B0004D4B0008914900089D4900084D4B000830
:1000C0004D4B00084D4B00084D4B00084D4B0008B0
:1000D0004D4B00084D4B00084D4B0008A949000846
:1000E000B54900084D4B0008C14900084D4B0008B8
:1000F0004D4B00084D4B00084D4B00084D4B000880
:100100004D4B0008CD490008D94900084D4B000867
:100110004D4B00084D4B00084D4B00084D4B00085F
:100120004D4B0008E5490008F14900084D4B000817
:10013000FD4900084D4B00084D4B00084D4B000891
:100140004D4B00084D4B0008094A00084D4B000874
:100150004D4B00084D4B00084D4B00084D4B00081F
:100160004D4B0008154A00084D4B00084D4B000848
:100170004D4B0008000000004D4B0008000000003F
:10018000214A00084D4B00084D4B00084D4B00081C
:100190004D4B00084D4B00084D4B00084D4B0008DF
:1001A0004D4B00084D4B00084D4B00084D4B0008CF
:1001B0004D4B0008000000002D4A00084D4B000880
:1001C0004D4B0008000000004D4B00084D4B00084F
:1001D0004D4B00084D4B00084D4B00084D4B00089F
:1001E0004D4B00084D4B00084D4B00084D4B00088F
:0401F000000000000B
:1002000010B5054C237833B9044B13B10448AFF350
:1002100000800123237010BDB803032000000000FC
:1002200024ED000808B5034B1BB103490348AFF3A5
:10023000008008BD00000000BC03032024ED00087E
:10024000704700BF01F0D2BB2DE9F0412A4C2B4E84
:10025000DFF8B0802A4F9AB04FF0FF33282269466A
:1002600020680CF0EDFE2828F6D1039804F004F87D
:100270000546002838D1029B9BB929460AAA009856
:1002800001F0CAFB0DF0D4F90AA90246684601F054
:100290000FFD0DF0CDF90AA90246684601F0D4FA27
:1002A000DAE7B3F1005FF4D140F20173009D9D42A3
:1002B000EFD1082203994FF0000E91420B4628BF60
:1002C00013469C46019B41463846C6E905EEC6E901
:1002D0000053C6F808E0C6F80CC003F0D9FF394651
:1002E000304601F05DF9D4E74FF0FF332A4620682D
:1002F0000AA90CF0A5FEBEE774280320E80303203A
:10030000DC0303209005FA0B2DE9F0411F4DDFF8C7
:1003100084801F4F9AB0002404EBC40101AEC4F1E5
:1003200024024FF0FF33286806EB81010CF088FEB1
:100330000444232CF0D9049803F09EFF039B064647
:10034000B3F1005F00D0A0B9384605F0B5FE50B15A
:1003500038460AAA01A905F073FDD8F80C3001331C
:10036000C8F80C30D7E74FF0FF3101200DF01AFD2F
:10037000EAE700240AA9321B21444FF0FF33286822
:100380000CF05EFE0444A642F4D8DDE7702803209A
:10039000182703200000032000B583B001F036FBCE
:1003A00000F0B8FF03221849184804F0D7FF02F004
:1003B00075FB00F0ABFD02F0BBFB0DF039F901F06D
:1003C0003DFA134809F018FB124809F0DDFA124C07
:1003D0000DF02EF9019002F067FB019802F0AEFBE0
:1003E000019800F095FD237813B9019801F0ECFB1A
:1003F000019801F0EBFA019801F04EFC0A2101A8E6
:100400000DF078FAE4E700BF8429032008280320D0
:100410009C24032004240320760003202DE9F043CC
:100420004FF00008204C214EDFF88890204FA5B0F7
:1004300011E00EF0A5F899F8003033B1099B23B113
:1004400064200CF055F800F065FF002302221946E5
:1004500038680DF01DFD4FF0FF3101200DF0A2FCBA
:100460000EF080F8204605F07DFF054604A92046E1
:1004700005F0E8FD6946204605F00CFE54223146A1
:100480000FA8B5600EF0F6FBC4F86080169BB3F5BC
:10049000003FCED9B3689B02CBD5012386F820302C
:1004A00001F00CF8C5E700BF182703200000032067
:1004B000701C0320D803032000232DE9F04F85B0E2
:1004C0007D4E7E4FDFF8FC91DFF800B27C4DDFF807
:1004D00000A20DF10E088DF80B3012E028680CF028
:1004E000D7FC012808D94FF0FF330222286803A95E
:1004F0000CF0A6FD022846D04FF0FF3100200DF091
:1005000051FC30680CF0C4FC0028E7D04FF0FF33FA
:10051000012230680DF10B010CF092FD0128DDD1B4
:1005200030680CF0B5FC0128D8D94FF0FF33022217
:10053000306803A90CF084FD0228CFD1BDF80C204F
:10054000B2F5805FCAD2002A40F0A6809DF80B4029
:10055000002C53D10DF06CF85A4B5849BDF80C20C3
:10056000CDF8008002F04EFFBDF80E30002B7AD19E
:100570000DF05EF8534B5149BDF80C20CDF80080CA
:1005800003F048FEAAE7BDF80C20B2F5805FB3D2B5
:100590006AB10024121B39194FF0FF3328680CF0A0
:1005A0004FFDBDF80C20204484B2A242F2D10DF0E0
:1005B0003FF84B463946BDF80C20CDF8008003F0DB
:1005C000E5FEBDF80E30002B96D041464FF0FF33CC
:1005D0000222DAF800000CF069FC4946BDF80E2052
:1005E0004FF0FF33DAF800000CF060FC0023022229
:1005F0001946DBF800000DF04BFC7DE70DF018F814
:10060000304B2E49BDF80C20CDF8008003F09EFD44
:10061000BDF80E30002BABD099F800207F2A09D10D
:10062000022BA5D999F80230A3F11102012A9FD912
:10063000312B9DD02448414604464FF0FF3302221F
:1006400000680CF033FCBDF80E204FF0FF331D495D
:1006500020680CF02BFC002302221946DBF8000076
:100660000DF016FC84E7184841464FF0FF33022294
:1006700000680CF01BFC1448BDF80E204FF0FF334F
:10068000104900680CF012FC234602222146DBF8D8
:1006900000000DF0FDFB6BE70024121B4FF0FF3351
:1006A000391930680CF0CCFCBDF80C2023189CB232
:1006B000A242F2D14AE700BF1C040320508F012060
:1006C00010040320507F012018040320B0090320E8
:1006D0000C0403202DE9F04F404F414E414DDFF80F
:1006E0000CA185B007F11C0907F5805B07F1140820
:1006F00013E028680CF0CCFB012809D94FF0FF3338
:10070000022228680DF106010CF09AFC022843D061
:100710004FF0FF3100200DF045FB30680CF0B8FBC6
:100720000128E6D94FF0FF330222414630680CF031
:1007300087FC0228DDD1BA8AB2F5805FD9D26AB1CE
:100740000024121B09EB04014FF0FF3330680CF05A
:1007500077FCBA8A204484B2A242F2D10CF068FF3E
:100760000146214801F04EFD0028C2D103E09BF86C
:1007700023000BF0BDFE0CF05BFF02F0A5FD01288D
:10078000B7D030680CF084FB0128B2D89AF800305A
:10079000002BECD10A20ECE7BDF80620082AB7D8D8
:1007A00072B1002402A9121B21444FF0FF332868C4
:1007B0000CF046FCBDF80620204484B2A242F1D1E0
:1007C0000CF036FFBDF8062002A903F099FD0128C0
:1007D0009ED00A200BF08CFEF2E700BF54AF012040
:1007E000180403200C040320549F012076000320EA
:1007F00001F000B901F002B9002001F003B900BF17
:100800000022024B02481A6009F0F6B8D403032014
:1008100050240320014B1868704700BFD403032005
:1008200030B59FB0482200210CA80EF097F90023A4
:100830004FF40070CDE90233CDE90433CDE907333D
:10084000CDE90933019306930B9307F0F3FC08B14C
:1008500072B6FEE7012302221693119319931792A1
:1008600010231D9207229FED1E7BCDE91A3203242F
:10087000042312900CA81C938DED0C7B189407F0A8
:1008800013FF034608B172B6FEE70F22214601A806
:10089000CDE9033305930294019207F0B3FD0346BB
:1008A00008B172B6FEE7104A4FF00055916D4BF655
:1008B0007F3441F080719165926D069302F08072F1
:1008C000009208932222202306A8CDE90A2300994A
:1008D0000795099408F046FE1FB030BDAFF30080C5
:1008E000290000000000010000100240F0B593B0A4
:1008F00072B64FF00062A54B9A60BFF34F8F62B69D
:10090000002504F025F9FFF78BFFCDE90C55CDE963
:100910000E559F4C1095E36C4FF4604143F0040377
:10092000E364E36C2A4603F004030593059BE36C40
:10093000984843F08003E364E36C012603F08003EE
:100940000693069BE36C43F00103E364E36C03F05E
:1009500001030793079BE36C43F00203E364E36C3A
:1009600003F002030893089B06F09AF92A4640F226
:100970000111894806F094F92A4641F2E4018748BA
:1009800006F08EF94FF4604382480CA9CDE90C368D
:100990000E950F9505F0CCFF40F201137E480CA98F
:1009A000CDE90C36CDE90E5505F0C2FF41F2E40366
:1009B0007A480CA9CDE90C36CDE90E5505F0B8FF03
:1009C000082377480CA9CDE90C350E9505F0B0FF4A
:1009D000A36C052143F00403A364A36C2A4603F02F
:1009E00004030293029BA36C1D203343A364A36CF6
:1009F00033400393039BA36C43F00203A364A36CF3
:100A000003F002030493049B04F09EFD1D2004F0F8
:100A1000D7FD2A4605211E2004F096FD1E2004F075
:100A2000CFFD2A460521502004F08EFD502004F011
:100A3000C7FD284606F0B2FC08B172B6FEE706F024
:100A4000C1FC034640B95748574AC0E9002308F0A3
:100A5000B1FD18B172B6FEE772B6FEE7534A544BC9
:100A60001070544A4FF440711A60102299609A61D4
:100A70009A620F2113223C2404255860D860987490
:100A8000D8631846C3E90D661E825E615E62DC6152
:100A9000D9621A621D6305F029F8034640BBCDE90F
:100AA0000C00CDE90E00CDE91000CDE90A00099057
:100AB0004FF480704FF4301703214FF480523E4CB6
:100AC000C4E90233C4E90A3384F8203084F83830AA
:100AD0003A4B20832046C4E904656760E1616263A4
:100AE00084F83060236004F057F818B172B6FEE75E
:100AF00072B6FEE7099009A9204604F0ADFC08B1E2
:100B000072B6FEE706237F220D932D4B0E901190B7
:100B10000CA9204610950F920C9304F067F908B1C8
:100B200072B6FEE70C23274A20460CA90C920D93BF
:100B300004F05CF908B172B6FEE71223224A20469F
:100B40000CA90D930C9204F051F9034608B172B64A
:100B5000FEE71E481E4AC0E9053383800260066234
:100B600004F060FD08B172B6FEE700234FF4027195
:100B700002221848C372184B81800360C0F8072016
:100B800006F02AFC034648B372B6FEE700ED00E02B
:100B9000001002400008024200000242000402422B
:100BA000001C02421C26032000080C42D80303202C
:100BB0001827032000A400400828032000800242D8
:100BC000400020190002B0250004002A7C270320E1
:100BD000003002402821032000D4004041F63F7538
:100BE000804C814ACDE90C000E902046C4E90133C7
:100BF000A3612260E56009F061F8034608B172B6AE
:100C0000FEE720460CA90C930E9309F089F80346E1
:100C100008B172B6FEE7754C754ACDE90C0022604A
:100C200042F20F72C4E902050E902046A361626091
:100C300009F044F8034608B172B6FEE720460CA955
:100C40000C930E9309F06CF8034608B172B6FEE7F8
:100C50004F214FF6FF726748C0E904338360836118
:100C6000654B4160C260036009F028F8044608B192
:100C700072B6FEE7614822460121614B009046F2C0
:100C800006000CF0B1F802465E4D5F4E0095012162
:100C90005E4B326046F2060022460CF0A5F85C4B33
:100CA0005C4A01210092186022465B4B4FF47A6047
:100CB0000CF09AF8594D5A4B224600930121594B9A
:100CC00028604FF47A600CF08FF8574B224600935F
:100CD000564B01211860564B4FF4A0400CF084F89D
:100CE000544B22460093544B01211860534B4FF450
:100CF000A0400CF079F8524B186001F083F80CF02A
:100D000097FC32464F4B5049009500F0ABFF4F48DF
:100D100001F046FF4E4800F077FD4E484E4A4F49DD
:100D200000F0DEFA0CA80C9401F062F810B90C9BEC
:100D3000002B53D00BF068FB0021494A49480BF0C7
:100D40008FFB0446484B0021484A49481C600BF081
:100D500087FB0446474B0021474A48481C600BF07C
:100D60007FFB04463D4B0021454A46481C600BF082
:100D700077FB0446444B0021444A45481C600BF075
:100D80006FFB0446344B0021424A43481C600BF081
:100D900067FB04462C4B0021404A41481C600BF085
:100DA0005FFB04463F4B00213F4A40481C600BF06C
:100DB00057FB04463E4B00213E4A3F481C600BF067
:100DC0004FFB04463D4B00213D4A3E481C600BF062
:100DD00047FB3D4B18600BF029FBFEE73B4800F05A
:100DE000DFFFA7E750240320001400409C240320C9
:100DF000001000400424032000440140D4040320D8
:100E0000481F0120B00403201C04032040BF002021
:100E1000180403208C040320A0AF0020100403203A
:100E20006804032000A00020440403200C040320D5
:100E3000005000202004032074280320000000201C
:100E40007028032014040320600E03201C260320B6
:100E50007C2703201827032010130320701C032075
:100E60007CEF0008450200082421032058EF000809
:100E7000490200082021032034EF0008090300087C
:100E800010EF000899030008C0170320ECEE0008DB
:100E90001D040008C8EE0008B9040008A4EE00080C
:100EA000D5060008B009032080EE0008F10700080D
:100EB000000503205CEE0008F5070008FC04032091
:100EC00038EE0008F9070008F80403200400634521
:100ED000094A0368934206D0084A93420AD0084A56
:100EE000934205D07047074A136801331360704777
:100EF00000F074BD03F03EBE00140040002C014021
:100F000000100040D403032072B6FEE7704700BF14
:100F100010B5094C0949208980B200F05DF8208A9B
:100F20000749C0B200F0D8F8208B064980B2BDE86E
:100F3000104000F0F7B800BF54000320D801032090
:100F400060010320E8000320012908D94FF6FE23A1
:100F500002889A4203D8981AC0F34F0070470020C5
:100F6000704700BF01290AD94078FA2809D8064BF2
:100F7000C0EB0030A3FB0030C0F30F10704700201F
:100F8000704740F6FF707047D34D621002298CBF46
:100F9000B0F801000020704701290AD94078FA28EA
:100FA00009D8064BC0EB0030A3FB0030C0F30F1094
:100FB00070470020704740F6FF707047D34D6210B5
:100FC00004298CBFB0F803000020704701298CBFB2
:100FD00000880020704700BF48F6802C47F27F53FE
:100FE000604594BF1B1863444FF0FF329BB2180A50
:100FF000C1F801200B704A604870704701290AD976
:1010000047F27F530088984238BF1846A0F5EA405F
:101010007F3880B270470020704700BF022983BF2D
:1010200080787D38C0B20020704700BF032983BF9D
:10103000C0787D38C0B20020704700BF012918D9A0
:10104000037803F00302012A17D003F00C02042AEC
:1010500015D003F03002102A0DD003F0C003402B4E
:101060000FD0437803F00303012B0CBF06200120AF
:10107000704700207047052070470220704703200A
:1010800070470420704700BF09B1007870470846D8
:10109000704700BF032986BFC078C0F381000020DD
:1010A000704700BF012906D9437803F00F03013BC5
:1010B000DBB2022B01D900207047024A32F813003C
:1010C000704700BFA4EF000819B10178C1F3810097
:1010D00070470846704700BF4FF0FF3360F00300D1
:1010E0000B604B60C8707047032986BFC07800F062
:1010F00003000020704700BF02290FD9837803F056
:101100000C02042A01D001207047C3F30113012B04
:1011100006D0002B0CBF0220012070470020704732
:10112000032070474FF0FF33184480B20328C1F802
:1011300001304B608EBFFF23014B1B5C0B7070476F
:10114000A0EF000871B103789A09012A03F00301A6
:101150000AD003F03003102B08D001290CBF022065
:1011600001207047084670470420704703207047ED
:10117000072903462DD900785A78A0F1FA00B0FA71
:1011800080F0FA2A4FEA50109A784FEAC00008BF60
:1011900040F01000FA2ADA7808BF40F02000FA2A5E
:1011A0001A7908BF40F04000FA2A5A7908BF40F087
:1011B0008000FA2A9A79DB7908BF40F00100FA2A08
:1011C00008BF40F00200FA2B00D0704740F0040046
:1011D00070470020704700BF2DE9F04F3C4B83461D
:1011E000984283B007D83B4B984269D94FF0280901
:1011F0004FF4487E0BE04FF0250940F2EE2E364BBF
:10120000B3FBFBFC5FFA8CFCBCF1190F5DD901202C
:10121000314B013080B2B3FBF0FCBCFBFBFC5FFA4E
:101220008CFCBCF1190FF4D8B0F5806F42D20123C9
:101230006FF000444FF47A765A460093274B1F68AC
:10124000431C1FFA83FAACF10208B8EB5C0F4FEABB
:101250005C0120DD0CF1FF3B5FFA8BFBCDF804A0B5
:1012600006FB01F5B5FBFCF5BEEB050A48BFA5EB97
:101270000E0AA2450ADAD14508DB0025544600953E
:10128000ABEB0105EDB2F96178613D620131414599
:10129000E6DBDDF804A0104998B2B1FBFAFCBCFB18
:1012A000F2FCB0F5806F0AF1010A5FFA8CFC03D002
:1012B000431CC8E701230093009803B0BDE8F08FFA
:1012C0004FF02B0940F26B3E99E70120AFE700BFDA
:1012D00000350C0020A10700005A62026829032093
:1012E00038B50C46064D0749074B0A602860074988
:1012F00001201C600BF0FCFA054B186038BD00BFE4
:10130000682903206029032064290320782803200A
:10131000C82803202DE9F041604E82B0306804F007
:1013200079FD306804F0E2FB002840F09180002253
:101330005B4C40215B482271E26022616261A261E4
:10134000A260E26184F8202005F0AAFC306804F075
:1013500061FD042202233068C0E90D2304F0C6FBBE
:10136000002840F0988000250222012340F2FF71FE
:10137000C4E90B234C4FDFF84081A163656202E0B2
:101380000135042D0ED037F8023B41463068A56286
:10139000636304F095FC0028F2D00135FFF7B4FD3B
:1013A000042DF0D102234FF080420020012163641C
:1013B0006FF06043C4E90F203C4A3068C4E9121260
:1013C0003B49236504F07CFC002861D10023012205
:1013D00037493068E3642264236504F071FC002817
:1013E00053D10023022230681146009304F094FC8C
:1013F000002847D1306804F0B1FC00283FD100221A
:101400000121306804F05EFEB0BB00220621306886
:1014100004F058FE68BB07224FF4F051306804F026
:1014200051FE18BB07228021306804F04BFED0B972
:1014300000222049306804F045FE88B900224FF4AC
:101440006021306804F03EFE28B902B0BDE8F081AA
:10145000FFF75AFD6BE702B0BDE8F041FFF754BD5E
:10146000FFF752FDEAE7FFF74FFDE1E7FFF74CFD1D
:10147000D8E7FFF749FDCEE7FFF746FDC5E7FFF7E1
:1014800043FDBCE7FFF740FDB4E7FFF73DFDA8E7EC
:10149000FFF73AFD9AE7FFF737FD64E76829032075
:1014A0000000032000040242ACEF0008FECA7700EF
:1014B0003C0003200040710024000320014B186809
:1014C00004F0A8BC68290320082824D8DFE800F02D
:1014D000080C1014171A1D2005001448FFF77CBED5
:1014E00042F21070FFF778BE44F62060FFF774BE3A
:1014F0004CF25030FFF770BE0D48FFF76DBE0D483F
:10150000FFF76ABE0C48FFF767BE0C48FFF764BEE2
:101510000B48FFF761BE0B4AA0F51C53103B9342EA
:1015200001D901207047FFF757BE00BF40420F00AE
:10153000A086010048E8010090D0030020A1070028
:1015400000350C00301B0F000346054A19780020B7
:1015500051615978D16199781162DB789361704754
:10156000182703200246024B00209A61704700BFF3
:1015700018270320034600B5074A93F801E093F8C3
:1015800000C082F810E005499B7881F800C05374D0
:1015900000205DF804FB00BF18270320D8030320B8
:1015A0002DE9F0470546C0680F4602F065FEAB68BE
:1015B000B3F1005F3CD00646824600F12409254C79
:1015C0004FF0FF3120680BF09DFA0128F8D1DFF8C9
:1015D0009080D8F800000BF04BFC484515D202254E
:1015E0001D4A13792B431371002320681A461946AC
:1015F0000BF0E2F80023194902220968086819462D
:101600000CF046FC2846BDE8F08729464FF0FF3332
:101610002422D8F800000BF049FC054686B94D4558
:101620000CD00D4A0125137943F008031371DBE751
:101630004FF0000A4FF024095646C0E70025D3E7D3
:10164000524639464FF0FF33D8F800000BF02EFC1D
:101650000544E4E7C8280320000003206429032090
:101660007028032000232DE9F0430C4683B0C907FE
:101670000546019316D4A20707D502212D4A1379F6
:1016800043F0010313712B681965630735D4019B7F
:101690002BB14FF0E0234FF08052C3F8042D03B07C
:1016A000BDE8F083DFF89880224F42464021224B6C
:1016B00004F028FC7B69D8F80C0001337B6102F050
:1016C000DBFDDFF880900646D9F800000BF0D0FB78
:1016D00006F12803984223D341462822D9F8000076
:1016E00001AB0BF067FC002EC5D03246D9F80000E4
:1016F000114901AB0BF05EFCBDE704240D4B0F4913
:101700009A69096801329A611A7942F008021A71DD
:101710002B6808680DEB04011C650CF0A3FCB6E710
:10172000064ABB6912680133106801A9BB610CF05D
:1017300099FCA0E700000320202903206029032052
:10174000F82803207428032010B500240A4A0B4906
:101750001369096882B00868013301A91361019413
:101760000CF080FC019B2BB14FF0E0234FF0805236
:10177000C3F8042D02B010BD00000320642903202B
:1017800010B500240A4A0B49D369096882B0086879
:10179000013301A9D36101940CF064FC019B2BB1CE
:1017A0004FF0E0234FF08052C3F8042D02B010BD7B
:1017B000000003206029032038B50C46104D29464F
:1017C00004F040FCA10303D5EB68A3B90D4A1360F4
:1017D000620309D52B690B4A012B13790CBF43F027
:1017E000040303F0FB031371230303D50122054B0C
:1017F00083F8202038BD4FF00042024B1A60E7E723
:10180000CC28032000000320704700BF91B14FF0A7
:10181000FF3210B4084C014410F8013B5340DBB2D6
:1018200054F82330884283EA1222F5D1D0435DF880
:10183000044B704708467047B4EF00080022014B84
:101840001A607047702903202DE9F04144688CB07C
:10185000B4F1804F02D00CB0BDE8F0810668C068DA
:10186000C6F307470D4602F007FDEA2FC6F3072827
:1018700033D0EC2FEFD1B8F1130FECD10728EAD910
:101880002B78102BE7D1EA79AB7912046D7942EA13
:1018900003222A4333020825444900209BB21943FE
:1018A0000494FF236FF47E44039122FA05F1CDE9FD
:1018B0000700CDE909008DF809208DF80A10120CF7
:1018C00005900B9001A903A88DF80B2006950194B3
:1018D0008DF80830FFF764FEBDE70228BBD9B8F1E8
:1018E000FF0F02D0B8F1130FB5D1AB7869782A7821
:1018F0001B0443EA01231343B3F56E4F43D04FF665
:10190000C5529342A7D1002508234FF080420124FD
:1019100027492848019128490390029103A801A969
:10192000CDE90635CDE90425CDE90855CDE90A55BF
:10193000DFF89480FFF734FE204B08F1FF37039364
:101940000DF10B060822FF2101A802F09DFC8DF885
:10195000044001A97A1904E00233A3EB0803152B14
:1019600006DC134612F8010F01F8010F8E42F3D185
:10197000013401A903A8E4B2FFF712FE052C05F11A
:101980000705DFD167E700234FF0804408220C48A9
:101990000C49039003A8CDE90443CDE90623CDE922
:1019A0000833CDE90A33FFF7FBFD54E71300EC1CC5
:1019B0002016000413FFEC1CFFC5FD0013FFEB1CF9
:1019C00013FFEE18CCF30008B4F30008024A1368C2
:1019D00001331360704700BF70290320024A136867
:1019E00001331360704700BF6C29032000200BF007
:1019F0005DBD00BF00200BF059BD00BF00200BF003
:101A000055BD00BF00200BF051BD00BF0022014BAF
:101A10001A70704776000320F1B108B503465E489E
:101A2000834266D019D85D48834200F0A28031D845
:101A30005B48834200F0A9807DD85A4883424CD04D
:101A400000F19D6000F54230834204D11046FFF75B
:101A5000BDFA554B588108BD70475448834242D067
:101A60002AD86FF4847CA0F58E306044834200F065
:101A7000868057D8A0F55C20A0F61E70834244D023
:101A800000F582608342E6D11046FFF7B7FA464B75
:101A9000188108BD464883425FD055D845488342E7
:101AA0002DD000F5EA4042308342D4D11046FFF7F2
:101AB00049FB3D4B188308BD3F48834253D000F596
:101AC000F270834227D0A0F5FF608342C3D1104655
:101AD000FFF70AFB344B188208BD1046FFF734FAB3
:101AE000314B588008BD1046FFF7EEFA2E4B588256
:101AF00008BD1046FFF750FA2B4B988008BD1046E2
:101B0000FFF7D0FA284B588308BD1046FFF78EFA2E
:101B1000254B187308BD1046FFF790FA224B83F847
:101B2000200008BD2548834295D11046FFF7B2FA40
:101B30001D4BD87508BD224883428CD11046FFF753
:101B40006DFA194BD88108BD1E48834283D11046D7
:101B5000FFF708FA144B188008BD1046FFF794FAF7
:101B6000114B987508BD1046FFF702FB0E4BD8834A
:101B700008BD1046FFF724FA0B4B988208BD1046AB
:101B8000FFF7BAFA084B988308BD1046FFF7FEF935
:101B9000054BD88008BD00BF5A03F0182A04F00C8A
:101BA0002A00000C2A0B0404540003202AF1FE181A
:101BB0000521EF1805CCFD0C2100FF182AD4FD18D3
:101BC0002A03010C5A01F0182DE9F0410646234D75
:101BD00082B005F10C0755F8044BE36E626EF31A00
:101BE000934204D2AF42F6D102B0BDE8F081B4F91D
:101BF000723004EBE300002B00F1240008DBB4F8A2
:101C0000683002225BBA01A9ADF8043002F040FB53
:101C1000B4F9743004F12408002B4FEAE30111DB1E
:101C20004046FFF7F3FD04220190B4F974000DEB78
:101C300002010028B8BF0730C010243004FA80F039
:101C400002F026FB064B41461B6820462361FFF746
:101C5000A7FCA36EE6660133A366C3E7D4F30008CE
:101C60000000032038B50446084B094D1A60094BA3
:101C7000049A29601A6000F049F8204601F0D8FA69
:101C8000204602F01DFB002038BD00BF782903204C
:101C90007C2903207429032038B5054601F0E8FAB1
:101CA0000446284602F018FB2043C0B238BD00BFEE
:101CB000134B70B51B6804460D46164601F00EFB2B
:101CC000012809D00F4B3246294620461B6802F0F6
:101CD0002DFB012809D070BD00230B4A194612685C
:101CE000106802220CF0D4F8ECE70023BDE8704045
:101CF000054902220968086819460CF0C9B800BFF6
:101D000078290320742903207C29032000B583B09F
:101D1000102001A900F0A2F810B903B05DF804FB8F
:101D20000021102000F082F8003818BF012003B015
:101D30005DF804FB00B583B0102001A900F08EF817
:101D400028B90146019830B903B05DF804FB0120C1
:101D500003B05DF804FB102000F068F8003818BFED
:101D6000012003B05DF804FB70B5002682B0044684
:101D70000D46102001A9019600F070F810B9019BE2
:101D8000A34202D8012002B070BD04F1110029461F
:101D900080B200F063F8801B18BF012002B070BD54
:101DA000002210B5114B82B01B78019213B918466E
:101DB00002B010BD044601A9102000F04FF840B950
:101DC00001981130FF2804D8214680B200F02EF887
:101DD00018B10123184602B010BD0199102001313D
:101DE00000F024F8031E18BF0123E0E7770003206A
:101DF000014608B5102000F031F8003818BF012066
:101E000008BD00BF10B504F0AFFA002009F0B2FB26
:101E1000044618B904F0BCFA204610BD002008F0B2
:101E20007BFF04F0B5FA204610BD00BF38B504466C
:101E30000D4604F099FA2046294609F055FEC305DF
:101E4000044603D404F0A4FA204638BD09F03EF855
:101E50000443A4B204F09CFA204638BD09F096B9B8
:101E6000F8B54FF4805600240F46054683190470D8
:101E7000C0F80240047384601C74C3F812409C6173
:101E8000DC8100F5005332462146C3E907445F6216
:101E90000D300CF063FEA81932462146BDE8F8402B
:101EA0001C300CF05BBE00BFF0B5044683B083600D
:101EB00031B3157894462B09032B21D8DFE803F0C2
:101EC000253A600205F00F0500F50056012986F855
:101ED000215000F0AB809CF80130022986F82230B6
:101EE00000F0A7809CF8023086F82330002D00F027
:101EF000AC80012D00F09F80032204F580531A74FA
:101F0000237B012B73D003B0F0BD03780BB100230A
:101F100003706B1E062BF3D801398D42F0D82A4688
:101F20000CF1010104F10D0002F0B2F90223658009
:101F30002370E5E703780BB1002303700729DFD98D
:101F40009CF800309CF801201B0203F470631343DB
:101F5000072BA380D4DD06220CF1020104F10D0051
:101F600002F096F901220021062004F500562270A5
:101F70006080B17704F58051CA813023F27F3CE064
:101F80000378012BBCD100F58057FA8905F00F05C5
:101F900002F00F039D4246D14088A3881B1A9BB2D2
:101FA000072B5BD90829ABD10132FA814B1EDDB278
:101FB0000D302A460CF10101204402F069F96388D2
:101FC000A2882B449BB29A4263804FD004F50056FE
:101FD000F27F002A94D0FB89013B93FBF2F102FBD4
:101FE0001133002B8CD1B37F43F0300305E004F5AF
:101FF0000056B37FF27F43F03003002196F82000B3
:1020000021738DF802000320746A8DF800308DF87A
:10201000012002F037F903466946706AE360FFF772
:10202000BFFA03B0F0BD0023037069E7002386F810
:102030002230002358E704F58052137C013B012B2A
:102040003FF65EAF022313745AE704F580531A7CFF
:10205000022A7FF455AF01221A7451E78B42BFF474
:102060004FAF0132072BFA81A1D19FE702232370E2
:1020700046E700BF2DE9F84300F58056347C012C7B
:1020800003D000242046BDE8F88300F500581D4623
:1020900098F823300F46F12B28BF0123B1698446FD
:1020A000691A9942EDD3718AB38A99B9072B50D82E
:1020B0001046314600F8013BB28A1C3102F0E8F8C4
:1020C0000322B38A01333B70B38A7382A8F81C40A1
:1020D00032743AE010465B1A1FFA83F9B8F81C30E4
:1020E000B9F1070F03F00F0343F0200300F8013BA1
:1020F000718A01F5805101F11C01614414D9072254
:1021000002F0C6F808233B70738A0733738298F88D
:102110002220B8F81C30AAB1B3FBF2F102FB113255
:1021200082B9022232740DE04A4602F0B1F803236C
:1021300009F101023A703374738A9944B8F81C307B
:10214000A6F812900133A8F81C302046B561BDE80E
:10215000F883C3F3032343F010031370B38A00F52D
:1021600080515370901C1C31062202F091F8082314
:1021700006223B7002237282A8F81C403374E4E705
:102180000378012B06D18268034B891A9942C4BF98
:102190000023037000207047400D030030B500F5A8
:1021A000805514462A7C0B46013A012A93B006D882
:1021B000AA698A1A12498A4284BF03222A7402AA8F
:1021C0000DF10701FFF756FF50B92B7C032B02D00E
:1021D000002013B030BD002301202B7413B030BD9C
:1021E0009DF8070002F04EF8E06002E0012002F0E6
:1021F0005BF8204602A9FFF7D3F90028F6D1E4E7FF
:10220000400D030000F5805CBCF81430B3F5805F2E
:102210000FD800B500224FF0010E00F50053ACF8C6
:1022200012209A838CF810E01046CCF818105DF854
:1022300004FB0120704700BF2DE9F04314460278EB
:102240000646013A1D4685B0092A11D8DFE812F08A
:102250001C0010000A009A01100010000A00100073
:1022600076010A00012900F09A817F22122101E003
:102270007F221121032322703278A17062702B809B
:10228000002005B0BDE8F0830229EED14123237080
:1022900043786370A62BE8D801A252F823F000BF60
:1022A00087270008692700086B2200086B220008B6
:1022B00033270008292700086B2200086B2200083A
:1022C0006B2200086B2200086B2200086B220008BA
:1022D00013270008032700086B2200086B22000860
:1022E0006B220008D32600086B2200086B2200082E
:1022F0006B2200086B2200086B2200086B2200088A
:102300006B2200086B2200086B2200086B22000879
:102310006B2200086B2200086B2200083D27000892
:10232000F7260008C92600086B2200086B22000867
:102330006B2200086B2200086B2200086B22000849
:102340006B2200086B2200086B2200086B22000839
:102350006B2200086B2200086B2200086B22000829
:10236000D3260008C92600086B2200086B2200084B
:102370006B2200086B2200086B2200086B22000809
:102380006B2200086B2200086B2200086B220008F9
:102390006B2200086B2200086B2200086B220008E9
:1023A000B5270008A92700089D2700086B22000810
:1023B0006B2200086B220008932700086B2200089C
:1023C0006B2200086B2200086B2200086B220008B9
:1023D0006B220008C9260008C92600086B220008E5
:1023E0006B2200086B2200086B2200086B22000899
:1023F0006B2200086B2200086B2200086B22000889
:102400006B2200086B2200086B2200086B22000878
:102410006B2200086B2200086B2200086B22000868
:10242000DD2600086B2200086B2200086B220008E2
:102430006B2200086B2200086B2200086B22000848
:102440006B2200086B2200086B2200086B22000838
:102450006B2200086B2200086B2200086B22000828
:102460006B2200086B2200086B2200086B22000818
:102470006B2200086B2200086B2200086B22000808
:102480006B2200086B2200086B2200086B220008F8
:102490006B2200086B2200086B2200086B220008E8
:1024A000DD2600086B2200086B2200086B22000862
:1024B0006B2200086B2200086B2200086B220008C8
:1024C0006B2200086B2200086B2200086B220008B8
:1024D0006B2200086B2200086B2200086B220008A8
:1024E0006B2200086B2200086B2200086B22000898
:1024F0006B2200086B2200086B2200086B22000888
:102500006B2200086B2200086B2200086B22000877
:102510006B2200086B2200086B2200086B22000867
:102520005D2700086B2200086B2200086B22000860
:102530006B2200086B220008EB26000802297FF4BA
:1025400094AE49232370437863700A2B3FF68DAE17
:1025500001A252F823F000BFF72500086B22000803
:10256000232600086B220008052600086B220008BD
:10257000B92600086B2200086B2200086B220008B5
:102580008F26000801297FF470AE0191FFF7D2FB7E
:10259000019968BB337840332370298070E602A824
:1025A000FFF726FC20BB029B5A1C52002A8032787F
:1025B00063704032DBB22270002B3FF461AE0746FD
:1025C00004F1020904F103080CE0039B1A0E09F858
:1025D00017201B0C9DF8082008F817300137BA4265
:1025E0007FF64EAE384603A9FFF7BEFB0028ECD0BD
:1025F0007F2210213EE644F254020623C4F8022052
:102600002B803DE6012313276E4EA3700FCEC4F836
:102610000300C4F80710C4F80B20C4F80F302F8053
:102620002EE614230120E61C3146A0702B80FFF714
:1026300015FCE11D05460220FFF710FC034604F1DE
:102640000B0103201D43FFF709FC034604F10F01B2
:102650000420ADB21D43FFF701FC0346ADB20520D7
:1026600004F113011D43FFF7F9FBADB245EA000386
:102670009BB2002B3FF404AE0023C4F80330C4F82F
:102680000730C4F80B30C4F80F30E374F8E50123C9
:102690001727E61C142200213046A37001F0F4FD38
:1026A000494B07CB1B78C4F80300C4F80710C4F8E3
:1026B0000B20E3732F80E3E5782207234349A271BF
:1026C000C4F802102B80DBE5042200232A806380FB
:1026D000D6E5032200232A80A370D1E506224FF01D
:1026E00080732A80C4F80230CAE50622384B2A805B
:1026F000C4F80230C4E50622364B2A80C4F8023002
:10270000BEE50322344B2A809B8AC3F30723A370C0
:10271000B6E50423304A2B809388C3F34A13A37091
:102720009388DB00E370ABE5032274232A80A37057
:10273000A6E503224C232A80A370A1E504232B8065
:102740000AF076FF254DA5FB00239B0BA3700AF032
:102750006FFFA5FB00539B09E37091E5062204235C
:102760002A80C4F802308BE503A8FFF741FB38BB91
:10277000039A02F07F02002306212980A270E370F1
:10278000237163717CE50622154B2A80C4F8023060
:1027900076E5032251232A80A37071E504224BF6CB
:1027A00035732A8063806BE5062200232A80C4F8F3
:1027B000023065E506220B4B2A80C4F802305FE543
:1027C0000022D8E7E0ED0008F0ED000801123456D1
:1027D000123456788001800154000320D34D6210DA
:1027E00098188003A40C0001814204D900F17840BC
:1027F000B0F5802F01D30020704701F178410139F5
:10280000B1F5802F2CBF002001207047814208D9EC
:10281000B0F1005F05D3044881428CBF0020012045
:1028200070470020704700BF00000420814211D98A
:10283000B0F1005F10D21A4B98422AD8194B984237
:1028400005D9194881428CBF002001207047B0F1A2
:10285000006F0FD200207047144B994201D801201D
:102860007047134B9842F5D9124881428CBF002023
:1028700001207047104B9942ECD8104BB3F8E03070
:10288000B3F5007FEBD00E4881428CBF00200120C1
:1028900070470C4881428CBF00200120704700BF68
:1028A000FFFFF90BFFFFF80B0080F90B000004207D
:1028B0003F20024040210240000008080005FA0BBA
:1028C000000004080002FA0B00B58BB001A803F069
:1028D00043FF0598AA3818BF01200BB05DF804FB30
:1028E00000B58BB072B601A803F036FF04214FF497
:1028F0000052079B019143F08063CDE9062303F06A
:1029000033FD20B162B601200BB05DF804FB03F08B
:102910004BFD0028F6D101A803F0FCFD10B903F02F
:1029200065FDEFE703F054FD03F032FDEAE700BF79
:1029300010B58AB003F018FD044603F035FD0443DA
:1029400001A803F009FF04214FF48072079BE4B251
:1029500083F4801303F48013CDE90623019134B18D
:1029600003F036FD03F014FD01200AB010BD01A8EC
:1029700003F0D0FD0028F3D103F038FD044603F046
:1029800027FD044303F004FDE4B22043C0B2003845
:1029900018BF01200AB010BD30B58BB003F0E4FCC5
:1029A000044601A803F0D8FE0023802207980221E4
:1029B00010F4801FCDE9033200930CBF02230123E2
:1029C000019101A86946029303F05CFF054603F0FC
:1029D000DFFC28432043C0B2003818BF01200BB0F1
:1029E00030BD00BF70B503F0BFFC05460F4C104E64
:1029F000D4E90023B3F1FF3F08BFB2F1FF3F04F574
:102A0000802107D0012003F029FD002818BF45F0E0
:102A10000105EDB20834B442EAD103F0B9FC284311
:102A2000C0B2003818BF012070BD00BF00E003082D
:102A300000000408002330B58FB0009303F094FC2D
:102A40000223044605A8019303F086FE0B9B042293
:102A500013F4801F4FF07C0014BF0223012369464A
:102A600003900DEB02000492029303F00BFF054666
:102A700003F08EFC054344EA0500C0B2003818BFDD
:102A800001200FB030BD00BF014608B5012003F0A2
:102A9000E5FC003818BF012008BD00BF0022014B33
:102AA0001A607047802903201D4B10B45988B3F871
:102AB00000C0B1F5E06F34BF00210121194C9B88A3
:102AC000194A34F81CC0B3F5306FA2F800C09170F9
:102AD00013D2B3F5E06F1ED2B3F5407F1DD2B3F52C
:102AE000807F8CBF00230123D1789B00994208D1BD
:102AF0000E4B18605DF8044B70470123D178994262
:102B0000F6D00A4C2168411AFA29F3D9D370206013
:102B10005DF8044B70470223F0E70323EEE700BFA4
:102B200084290320E0F30008780003208029032093
:102B30000022014B1A7070478A290320154B164951
:102B40001A78B1F800C088787AB16FF4FC636344F6
:102B50003E2B15D94FF47F42104BA3F808C01A83BF
:102B600038B95A8A92B21A8204E00C4BA3F808C012
:102B70001A8318821A8BC97892B20A431A83704753
:102B80004FF0000C054B5A8992B21A81A3F818C075
:102B9000E6E700BF8A2903207800032054000320C1
:102BA000014B1860704700BF8C290320704700BF9D
:102BB00000B5054B83B0186801A906F0E7FD019840
:102BC00003B05DF804FB00BF8C2903200D4B027895
:102BD0001B68403201291A7010D900B5A1F1020E0C
:102BE00010FA8EFE024610F801CF724503F801CFAD
:102BF000F8D1054B1B6819805DF804FB024B1B687C
:102C000019807047B4290320B029032070B5012929
:102C1000044682B00BD9457805F07F05012D14D00C
:102C2000022D02D07F20122503E006292CD07F2020
:102C300013250321344B354A1B681268187020781D
:102C40009D705870118002B070BD40F26713ADF8EE
:102C50000030FFF7ADFF2E4A2E4B4240C3E903027E
:102C60001D7794F9013000BA002BCDF80200EADBA1
:102C70000621254B254A1B680098BDF804401268C0
:102C800018609C801180DEE7224BD0F802009A6920
:102C9000042A02D97F203625CBE75E685969711A6C
:102CA000092902D87F203725C3E7197F012902D0DF
:102CB0007F202425BDE7196900BA814215D04FF065
:102CC000000E4FF07F0C3525032001329A610E4A29
:102CD0000E4912685E6183F81CE082F800C0237818
:102CE0000968537095700880ADE71D7794F901303D
:102CF000002BA8DB40F26721034A044B12681B68D3
:102D000011801D809FE700BFB4290320B029032054
:102D10007856341290290320022910B510D04FF0B4
:102D20007F0E4FF0130C03210F4B104A1B681268E3
:102D300083F800E0007883F802C05870118010BD5D
:102D4000437833B1802BFAD04FF07F0E4FF0120C46
:102D5000E9E7054A0378126840331370034C407862
:102D600023685070198010BDB4290320B0290320B6
:102D7000022930B510D04FF07F0E4FF0130C032115
:102D8000424B434A1B68126883F800E0007883F8DE
:102D900002C05870118030BD437803F07F03022BCE
:102DA0002FD0032B1BD0012B3ED10022394C3A4DA2
:102DB00023703A4B2A705A73C4E90322C4E90522EE
:102DC000227790F901304278002BE4DB50242F4B1E
:102DD0002F481B6800685A701C70018030BD304A53
:102DE000928A92B2B2F5805F47D37F258824274A22
:102DF00027491268096815700078947050700B802C
:102E000030BD274A928A92B2B2F5805F1BD37F25EC
:102E1000222403211D4B1E4A1B6812681D70007876
:102E20009C705870118030BD4FF07F0C122403212C
:102E3000164B174A1B68126883F800C000789C7014
:102E40005870118030BD00221249144CC1E9032290
:102E5000C1E90522104D62730A772A7090F90120AA
:102E60000B70002A417896DB5024084A0848126803
:102E7000006851701470038030BD0022054C074D6E
:102E80002370054B6A731A7096E700BFB4290320BC
:102E9000B029032090290320B8290320BC2903204E
:102EA00054000320204B214A022910B51B681268E8
:102EB0000CD04FF07F0E4FF0130C032183F800E08D
:102EC000007883F802C05870118010BD184C94F837
:102ED00000C0BCF1010F11D090F801C00CF07F0CC4
:102EE000BCF1010F12D04FF07F0C1224032183F8A4
:102EF00000C000789C705870118010BD7F210324A1
:102F00001970007899705870148010BD047840349E
:102F10001C7044785C70118090F90130002BD4DA79
:102F2000BDE8104002F06CBBB4290320B029032097
:102F300090290320022910B510D04FF07F0E4FF0DA
:102F4000130C0321184B194A1B68126883F800E020
:102F5000007883F802C05870118010BD427802F0EA
:102F60007F03012B13D0022B04D04FF07F0E4FF0C4
:102F7000120CE6E71206F0D40B49027809684032D9
:102F80000A700A4C407822684870138010BD1406FD
:102F9000E3D4054A0378126840331370034C407839
:102FA00023685070198010BDB4290320B029032074
:102FB000012970B51FD9427802F07F03012B10D090
:102FC000032B1CD04FF07F0C12240321394B3A4ABB
:102FD0001B68126883F800C000789C7058701180DC
:102FE00070BD02292AD08378103B032B51D8DFE82B
:102FF00003F04C4A444E4FF07F0C1324E5E72F4C6E
:10300000217869B1120626D402212A4A037812686F
:1030100040331370284C407823685070198070BD7D
:103020004FF07F0C2224234A23491268096882F852
:1030300000C00078947050700B8070BD7F25132401
:1030400003211C4B1C4A1B6812681D7000789C7081
:103050005870118070BD0123194D2E782B70FEF72A
:103060002DFA4FF47A7009F043FAF6B22078FEF7A1
:103070002BFAFEF74FF92E7070BD36230F490B70F7
:103080001306C1D570BD3523F8E73423F6E738239E
:10309000F4E77F22002631240321064B074D1B68ED
:1030A0002E701A70044A0078126858709C70118053
:1030B00070BD00BFB4290320B0290320B829032024
:1030C0007600032030B54378044685B013B9837881
:1030D000442B0FD07F204FF0310C0321354B364A63
:1030E0001B6812681870207883F802C0587011802D
:1030F00005B030BD0B2903D07F204FF0130CECE757
:103100002E4B1978022903D04FF07F0C7F20E4E783
:103110001B7F022B11D12A4D6B7B13F0FB030FD0C9
:103120007F2024250321234B234A1B681268187033
:1031300020789D7058701180DAE74FF0330CE5E786
:10314000D0F80300AB6001232B73D4F8073000BA2A
:103150001BBA1918019228606B60FFF745FB28B372
:10316000154B144918686B68096813F0070F019A2A
:103170000BD07F234FF0700C0B70032394F800E00A
:1031800081F802C081F801E00380237820244033D5
:103190008DF80C304FF20F036A7304228DF80D4046
:1031A000ADF80E30039B0B600280A1E77F20312534
:1031B000B8E700BFB4290320B029032090290320D9
:1031C000BC290320042910B504460ED07F204FF0FF
:1031D000130C0321144B154A1B68126818702078D1
:1031E00083F802C05870118010BD4378FF2B03D0C4
:1031F0007F204FF0310CECE78378FF2BF8D1C378B8
:10320000FF2BF5D1FEF796FD18B17F204FF0720C21
:10321000DFE7012104482378044A0068126840333C
:103220000370118010BD00BFB4290320B029032012
:1032300038B500240122094B09490A4D4C735860E6
:1032400009490A48C3E90344C3E905442C701A70CC
:103250001C77FEF705FE204638BD00BF90290320ED
:10326000BC290320B82903207C000320549F01209F
:10327000114B01461A78032A02D01048FEF780BF8E
:1032800041F288305A688A1A8242F6D900224FF0F9
:10329000010C10B40A480B4C4273227083F800C032
:1032A0001A7706485DF8044BC3E90322C3E90522F7
:1032B0005960FEF765BF00BF90290320549F01208D
:1032C000BC290320B82903200146024A0248FEF720
:1032D00065BF00BFA0000320549F012040F2E17CA5
:1032E0002DE9F04100260446006882B060450F4693
:1032F00098468DF80560ADF8066007D040F2DF73A0
:1033000098423BD0002002B0BDE8F081E06815464D
:1033100000F0B2FF3A4C01462B4620463A46FEF7F3
:10332000C3FD2578022DEDD14FF0FF3301220DF1C1
:103330000501D8F800008DF8056009F0B7FD2A46B0
:103340004FF0FF330546A11CD8F8000009F0AEFD90
:1033500002464FF0FF331544D8F80000628804F1AC
:103360000D0109F0A3FD638805440333AB4201D08E
:10337000FDF7CAFD002323700120C4E7E06800F0D8
:103380007BFF0028BED03D78002DBBD005F00803A0
:1033900053EA1513B6D1E06800F06EFF431E9D425C
:1033A000B0D8012217F8014B4FF0FF330DF10501A2
:1033B00004F00F04D8F800008DF80520ADF80640A1
:1033C00009F074FD4FF0FF33022204460DF10601AF
:1033D000D8F8000009F06AFD02464FF0FF331444AC
:1033E0003946D8F80000BDF8062009F05FFDBDF8A9
:1033F000063004440333A342BED0FDF785FDBBE78E
:10340000549F01202DE9F04F00241D468FB0189BDA
:103410009B4F1C809B4E0C469B49914633604860F5
:103420003D60002A00F0828022780F2A40F28D80D1
:10343000103A772A00F28680DFE812F092009900B5
:1034400084008400A0008400840084008400A7001D
:10345000840084008400840084008400840084004C
:10346000CD00D3008400840084000801840084001F
:1034700084008400840084000F01840084003301F0
:10348000840084007A01CF01DC01280184008400DB
:103490008400840084008D01D501840084008400B0
:1034A00084008400840084008400840084008400FC
:1034B00084008400840084008400840084008400EC
:1034C00084008400840084008400840084008400DC
:1034D00084008400840084008400840084008400CC
:1034E00084008400840084008400840084008400BC
:1034F00084008400840084008400840084008400AC
:10350000840084008400840084008400840084009B
:10351000840084008400840084008400840084008B
:10352000840084008F00F101840001017F2122705A
:103530001320032229702178A87069701A800FB0B7
:10354000BDE8F08F7F211120F3E72A464946204647
:103550000FB0BDE8F04FFEF76FBE7F211220E8E705
:10356000494620460FB0BDE8F04FFFF701BC494681
:1035700020460FB0BDE8F04FFFF794BC4946204607
:103580000FB0BDE8F04FFFF71DBEB9F1020F26D90D
:1035900059222A7004226178AA706970627802F058
:1035A0007F02012A00F04683022A00F03B837F223B
:1035B00012212A7003222078A97068701A8094F969
:1035C0000130002BBBDA3B681B787F2BB7D0002281
:1035D00033681A80B3E7B9F1030F00F052827F21FC
:1035E000A6E7B9F1010FFAD0627802F00F000428C3
:1035F000B3D102F0F0004028AFD80978012937D0C4
:103600001209911D8945EAD1D4F802C0002A00F0C0
:103610005A844FF00008013AD200601D10F8011FD3
:103620009140083A12F1080F48EA0108F6D140F635
:10363000FE72904540F248847F21312079E7494667
:1036400020460FB0BDE8F04FFFF7B2BC4946204618
:103650000FB0BDE8F04FFFF7D9BAB9F1020FBED9EC
:1036600091F80080B4F80120B8F1020F00F0F88260
:103670007F2203212A702078AA70687019805EE783
:10368000B4290320B029032090290320B9F1010FA8
:10369000A5D1B64A517B032900F03B837F2124202A
:1036A00047E7B9F1030F9AD994F90100627800282D
:1036B00040F22220BCBF02F07F0262706288B8BF75
:1036C0004FF0010852BA92B2A8BF4FF000088242F0
:1036D00000F30883B2F5007FC0F2A880A2F5007263
:1036E000222A00F2A380DFE812F0C600B60026010D
:1036F00016010B01EC008C01740152014501A1007F
:10370000A100A100A100A100A100A9016301A100E5
:10371000A100A100A100A100A100A100A100A100A1
:10372000A100A100A100A100A10084013901D300E2
:103730008F4AB2F8E020B2F5007F7FF403AFB9F111
:10374000020F7FF64CAF0122494620460FB0BDE87C
:10375000F04FFFF7B7BCB9F1010F3FF440AF62780B
:1037600002F00F0004287FF4F8AE02F0F0004028C9
:103770003FF6F3AE1209501D4845BFF630AF002AA0
:1037800000F032844FF0000802F1FF3C4FEACC0C0D
:1037900004F1050E1EF8010F00FA0CF0ACF1080C54
:1037A00048EA00001CF1080F1FFA80F8F2D102F17C
:1037B000060A0AEB080291457FF411AF0878D4F8A5
:1037C0000220022800F025847F227F200321287018
:1037D0002078AA7068701980B1E6B9F1020F7FF6FF
:1037E000FEAE0222B0E7494620460FB0BDE8F04FDA
:1037F000FFF792BAB9F1010F3FF4F1AEDFF86C8137
:1038000098F80D20012A00F0F481022A7FF446AFD7
:10381000B9F1020F00F086827F21712089E64946C6
:1038200020460FB0BDE8F04FFFF784BB7F222A701F
:1038300022786A703122AA7003221A803368B8F1A4
:10384000000F3FF47CAE3A6812787F2A3FF477AEDF
:1038500000221A8073E6FFF7EDF8002800F0FC83E1
:103860007F22722003213B681A7022785A703268D6
:1038700098701180E2E7B9F1040F00F0A4837F2271
:103880002A7022786A701322AA7003221A80D5E760
:10389000B9F1070FF3D1201DFDF76CFEFDF73AFDDE
:1038A0000A2008F025FE042122783B6840321A7075
:1038B00062785A70A2789A70E278DA703368198068
:1038C000BCE7B9F1060FDAD140F6FB71A28852BA13
:1038D00092B28A42AAD8712128462970617869700B
:1038E000A178A970E178141F00F8031F002102E0FD
:1038F00000F8011F01318C42FADC04321A809DE786
:1039000071222A7062786A70A278AA70E278EA70EE
:1039100004221A8092E77122611C2A70A9F1020226
:1039200011FA82F214F8011FA24205F8011FF9D121
:10393000A3F8009082E7FFF755F8002890D1012303
:103940002278396840320A70E25CCA5401339AB274
:103950009145F9D83368A3F800906FE7B9F1050FE6
:103960008DD12079FDF7FEFD98E700BFBC2903202B
:103970000005FA0B0A7F022A00F02F837F222A70AB
:1039800022786A703322AA7003221A8056E7B9F1AE
:10399000080F7FF474AF6278012A00F00D817F2256
:1039A0002A7022786A701222AA7003221A8045E7D0
:1039B000B9F1040F7FF463AF0A78022A00F06A833A
:1039C0007F227F2129702178AA70032269701A80D2
:1039D00034E7B9F1040F7FF452AF6278012A00F0A6
:1039E0008483022ADBD10021B94A11702278403247
:1039F00087E7B9F1070F7FF442AF201DFDF7A4FD63
:103A00004CE7B9F10B0F7FF63AAF6568D4F8089030
:103A10002DBA99FA89F9284609EB0501FEF706FF48
:103A2000002840F047837F22312003213B681A7031
:103A300022785A70326898701180FFE6B9F1040F4D
:103A40007FF41DAF0A78022ABAD10A7F022A40F019
:103A5000DE826278012AA2D1FEF736FF002840F00C
:103A60004F83FEF73DFF3268002800F0B8807F20CA
:103A7000722503213B68187020789D705870118062
:103A8000DCE600236D46B4F80100009340BA80B232
:103A9000A0F5007CBCF5007FC5E90133C5E903331F
:103AA00094F801E0A278C0F00181A0F5714084385B
:103AB0000C2808D8DFE800F07007665E07070707E4
:103AC0005607070712007F2031253B683268032123
:103AD000187020789D705870118030E529460120BB
:103AE000FEF7BCF901A980460220FEF7B7F902A94A
:103AF00048EA00080320FEF7B1F91FFA88F848EAFF
:103B0000000803A90420FEF7A9F91FFA88F848EA7B
:103B1000000804A90520FEF7A1F91FFA88F848EA71
:103B20000008294611221FFA88F50DF1170000F050
:103B3000AFFB002DC7D114252378A27840338DF830
:103B4000143063788DF815303B688DF81620E8182E
:103B500005AA12F8011B03F8011B8342F9D133684F
:103B60001D80ECE40C225B490DF1170000F090FB86
:103B70000F25E1E7042258490DF1170000F088FBFA
:103B80000725D9E70B7804258DF8173062238DF8C7
:103B900015E08DF81430D7E70C2250490DF11700CD
:103BA00000F076FB202309224D4909A88DF8233027
:103BB000192500F06DFBBFE7E279042A7FF436AEE9
:103BC000A0792379000240EA0360637940EA034068
:103BD00040F00400FEF7E4F800287FF441AE042131
:103BE0002046FEF7F3FF33681A88002A3FF4A7AC9B
:103BF00025E6A9F102091FFA89FA19F007097FF4ED
:103C00000BAED8F80820D8F8041052448A423FF688
:103C100003AE98F80C1062788A4200F082817F210E
:103C2000732086E4B9F1030F00F0AF807F221321E7
:103C30002A70BFE4B9F1030FF8D1002305A8EB7097
:103C4000FEF7D6F8002800F05C817F223B681A70EE
:103C5000722221789A7059703368A3F80090AEE40C
:103C60004FF2841150BA80B220F0080C8C453FF41A
:103C7000E3AC49F2F1018A4200F0D680B9F1070FB6
:103C80007FF4ADACD4F8031009BAFEF7CFF80346C1
:103C90003A683168002B00F0AA817F207225032347
:103CA00010702078957050700B8048E42946FEF71C
:103CB000D5F8002800F098807F2131203B683268D9
:103CC0001970217898705970A2F8009037E400BFFD
:103CD0008A2903209005FA0B18EE000800EE000870
:103CE0000CEE0008B2F57F4F00F0C8804FF601706F
:103CF00082427FF49BADB9F1040F7FF4C0AD6278CE
:103D0000012A7FF44CAE0A78022A00F0FC817E2260
:103D100057E604234946204653730FB0BDE8F04FE1
:103D2000FEF754BF98F80C1062788A427FF477AFA0
:103D3000013288F80C20227840322A706178002203
:103D400005F8011FD8F808100EE0D8F8000001327D
:103D5000415CB2F57F6F05F8011FD8F8081001F13A
:103D60000101C8F8081004D0D8F804008842ECD843
:103D700092B2D8E90110023288421A80FFF4DFAB18
:103D8000032388F80D30FFF7DABB002305A8EB709A
:103D9000FEF72EF8804600287FF457AF059B002BD6
:103DA00000F0B98082466D4613E09DF803203B6821
:103DB00003F80920BDF8022003F82A20009A4B449A
:103DC000120A9A70009ADA70059B09F104095345AA
:103DD0006AD950462946FDF7C7FF0AF1010A0028B3
:103DE000E3D04FF00108EFE72378627840338DF895
:103DF0001430A37829468DF815200DF11700042200
:103E00008DF8163000F044FA3A680DF11301531E94
:103E1000063211F8010F03F8010F9A42F9D1072277
:103E200033681A80FFF78BBBB9F1140F7FF4D7AB5F
:103E3000D4F803100120FDF7F9FFD4F80710054668
:103E40004046FDF7F3FF0346D4F80B1003201D4353
:103E5000FDF7ECFF0346D4F80F100420ADB21D436C
:103E6000FDF7E4FF0346E17C0520ADB21D43FDF7FD
:103E7000DDFFADB245EA00039BB209E7B9F1040FDB
:103E80007FF4FDAC6278012A7FF489AD0A78022ABA
:103E90007FF43DAF0A7F022A40F0B980FEF77CFD37
:103EA00000287FF4DDAC9AE63268B8F1000F32D01A
:103EB0007F213B68722019700321257898705D700E
:103EC0001180FFF77CBB90469CFA8CF5284605EBE9
:103ED0000801FEF7ABFC00283FF4F5AD23783A6803
:103EE00040331370AD1A02EB080302E0A95C02F83C
:103EF000011F9A42FAD1326808F101031380FFF7DB
:103F00001EBB059B3A6853711B0A13710622336866
:103F10001A80FFF754BB32689B0003331380FFF70E
:103F20004EBB013288F80C2002F01EFABAF1000FE5
:103F300000F0DE804D46A146AB4699F8043099F872
:103F400005201B0403EB026399F8032099F808107D
:103F500003EB022399F80920090401EB026199F8A7
:103F60000220D8F8080013441BEB030299F807302D
:103F700009F1080901EB0323D8F80010084419F8E7
:103F8000021C00F580200B44FEF77EFD40EA05038D
:103F9000DDB2D8F808300833C8F80830A9EB0403BC
:103FA0005345CAD302F0F4F9D8E901329A4202D358
:103FB000032388F80D303B683268002D00F0B48090
:103FC0007F20722583E56278012A70D0022A7FF46F
:103FD000E6AC00215A4A117008E5BFF34F8FBFF3DA
:103FE0006F8F631D98475EE49046FFF7E0BB237830
:103FF000607840338DF8143003238DF81500BDF838
:104000001450A078158090700B80FFF798BA332277
:10401000D7E4097F02293AD115BA284605EB0801F1
:10402000FEF7F4FB00283FF44EADB8F1020F2AD0A2
:10403000B8F1040F23D0B8F1080F19D06FF00603C0
:10404000E21D1B1B02E012F8011F2970991841455F
:10405000F9D35146204660E6012322783968403280
:104060000A70E25CCA5401339AB29145F9D871E4FE
:10407000A168E0680BBA02BAC5E90023E9E7A368C2
:104080001BBA2B60E5E723895BBA2B80E1E733227B
:10409000FFF79BBB0A7F022AB9D16278012A7FF41D
:1040A0007EACFEF745FC00287FF4DAAB97E52449A7
:1040B0000A709BE449462846FDF7A8FB08250346FD
:1040C0002278396840320A7062784A70A2788A7021
:1040D000E278C871CA70000E32680871180CEB40A3
:1040E00048718B711580FFF7A9BB16490A707DE4F2
:1040F00002F04EF9D8E901329A4215D3554657E7F6
:104100000AF01EFEAFE40A7F022A80D10E4A527BDB
:10411000042AC6D07F222A7022786A702222AA70CE
:1041200003221A80FFF78ABB022023783A6864785A
:1041300031684033137054700880FFF700BA00BF35
:10414000760003208A290320BC29032070B40024B0
:104150002D4D039E2B602D4D34802E602C4D8C46B2
:104160001C4611466860B2B19CF800200F2A1FD986
:10417000272A23D8103A172A2AD8DFE802F0383441
:104180002929302929292929292929292929292998
:1041900029292929292C8CF800107F221321032397
:1041A00022709CF80020A1706270338070BC704750
:1041B0003346224670BC6046FEF73EB8852A1ED0C4
:1041C000872A18D03E2A03D170BC6046FEF7A4BDF2
:1041D0007F221121E3E7604670BCFEF717BD604601
:1041E00070BCFEF7EFBF604670BCFEF75BBE60467A
:1041F00070BCFEF7BDBD604670BCFEF7D9BE604620
:1042000070BCFEF797BE00BFB4290320B02903207D
:104210009029032038B5049A12884AB11978512997
:1042200007D0C72904D1012A02D05B78032B08D01C
:1042300038BD4FF4FA7008F05BF9BDE8384001F082
:10424000DFB94FF4FA7008F053F90123084C2578D0
:104250002370FDF733F94FF47A7008F049F9054BF4
:10426000EDB21878FDF730F9FDF754F8257038BD38
:1042700076000320B8290320014BC0B2185C7047B8
:10428000E0130108704700BF0AB10AF067BC70472D
:104290004AB1013A4B1E0138114413F8012F8B42E9
:1042A00000F8012FF9D170474FF47A7202FB00F049
:1042B000024BA3FB0030800908F01AB9D34D6210FD
:1042C00000220146034B1046C3E903221A705960CD
:1042D0001A817047D4290320084B1A785AB14EF638
:1042E00060215A68821A8A4205D90022C3E9032252
:1042F00058601A701A810020704700BFD42903202B
:1043000038B5D0B20C46FFF7BDFF074DE86002E0BC
:104310000A2008F0EDF821462846FDF741F900286B
:10432000F6D1012038BD00BF2C02032040F25252CA
:1043300030B51C46036883B0934202D0002003B01E
:1043400030BDC0680D46FFF797FFADF806000028A6
:10435000F4D04FF0FF33022220680DF1060108F07F
:10436000A5FD84464FF0FF3320682946BDF806209E
:10437000644608F09BFDBDF8063004440233A342B6
:1043800001D10120DBE7FCF7BFFDFAE72DE9F041A1
:10439000069EDFF850814F4F4F4D3E606860C8F871
:1043A000003042B10C46FF2119702178FF290ED050
:1043B0002878012801D0BDE8F081F53909291BD8FA
:1043C000DFE801F0203C1A1A1A2B1A5A4452012A2B
:1043D00001D06278DAB9002201214FF480740820FC
:1043E0003E4FC5E903222A812970C3F80170A3F862
:1043F0000540D9713080DEE742F2FE0102221980C9
:104400003280D8E7012A1BD0617807293FD942F2D0
:10441000FE21022219803280CDE7012A10D0627875
:10442000002AF4D14FF080600821A3F80520DA714A
:104430002B4AC3F8010031802A61BCE7082A20D04A
:1044400042F2FE11022219803280B4E70021597035
:104450002A7A0620013A18BF01221201D970197177
:1044600059719A703080A6E700230122C5E9033311
:104470002B702B8132809EE7FE2102221980328030
:1044800099E7012263681BBA2B61328093E72869A0
:104490000144FEF7CBF9012808D042F2FE200222A7
:1044A000D8F800103B6808801A8084E7617869B109
:1044B0000023D8F800002A6912780133DBB2C25415
:1044C0002A6901322A6161789942F5D83B68013145
:1044D000198070E7CC290320D429032000000808A4
:1044E000F0130108D029032010B50F4B82B0186ECD
:1044F000002240F0010018661C6E072104F0010440
:104500000094009C9C6D6FF0010044F080549C6509
:104510009B6D03F080530193019B01F015F802B0ED
:10452000BDE8104003F0C6BE0010024070B5002187
:104530000446ACB0942207A8CDE90211CDE90411DC
:1045400006910AF00BFB324B22689A4201D02CB044
:1045500070BD03234FF480424FF08051CDE9072313
:104560000993182211232791CDE90A230221082259
:104570004FF0807307A8CDE90D230C9104F076FD70
:1045800000283BD1234B0026DA6C02A942F40052EA
:10459000DA64DA6C204D02F400520092009ADA6C70
:1045A00042F00102DA64DB6C322203F00103019372
:1045B000032301981948CDE90223049602F0B8F9C3
:1045C00080224FF480730521C5E903626B614FF4CB
:1045D00080622023C5E9011611492846C5E9062352
:1045E0002E62296001F0C0F870B910210A4801F06C
:1045F0006DFA30B92565AC622CB070BDFCF784FC57
:10460000C0E7FCF781FCF5E7FCF77EFCEDE700BFB7
:104610000080024200100240A02703200000024256
:1046200008040240094B02689A4200D07047A3F583
:1046300000539A6C82B042F480529A649B6C03F4EB
:1046400080530193019B02B0704700BF00300240CD
:1046500010B500210446ACB0942207A8CDE90211A0
:10466000CDE9041106910AF079FA274B22689A42A3
:1046700001D02CB010BD4FF000724FF0807307A82E
:104680000792219304F0F2FC002832D19FED1A6BBF
:104690009FED1B7B09241D4B02A9DA6D1C4842F4D7
:1046A0000072DA65DA6D02F400720092009ADA6C38
:1046B00042F00202DA64DB6C8DED026B03F0020360
:1046C00001938DED047B019B069402F031F90022E9
:1046D0000521272000F038FF272000F071FF00227D
:1046E0000521282000F030FF282000F069FF2CB0C1
:1046F00010BDFCF709FCC9E7000300000200000040
:10470000000000000000000000A400400010024073
:104710000004024208B502680A4B9A4200D008BD64
:10472000094A4FF44071D36D084823F40073D365F0
:1047300002F00EFA272000F051FFBDE808402820C3
:1047400000F04CBF00A400400010024000040242F0
:1047500010B50446A6B09422002101A80AF0FEF983
:10476000114B22689A4201D026B010BD4FF480232D
:1047700001A8019304F07AFC98B90C4B0022D86C84
:10478000052140F48020D864DB6C5E2003F4802394
:104790000093009B00F0D8FE5E2000F011FF26B0D1
:1047A00010BDFCF7B1FBE8E700080C420010024026
:1047B00000B5224A036885B0934215D0204A93423F
:1047C00027D0204A934202D005B05DF804FB1E4B6F
:1047D0001A6E42F400321A661B6E03F40033039320
:1047E000039B05B05DF804FB174B0022986D052173
:1047F00040F0100098659B6D312003F01003019389
:10480000019B00F0A1FE312005B05DF804EB00F043
:10481000D7BE0D4B0022986D052140F02000986511
:104820009B6D322003F020030293029B00F08CFE6C
:10483000322005B05DF804EB00F0C2BE001000406D
:10484000001400400044014000100240000000003D
:1048500010B500210446ACB0942207A8CDE902119E
:10486000CDE9041106910AF079F9214B22689A42A8
:1048700001D02CB010BD4FF4005307A8079304F0EB
:10488000F5FB50BB9FED166B9FED177B0A22194C71
:1048900002A9E36C184843F00103E364E36C8DED77
:1048A000026B03F0010300938DED047B009B0692E5
:1048B00002F03EF8E36D002243F40013E365E36D7C
:1048C000052103F4001301934920019B00F03CFEF5
:1048D000492000F075FE2CB010BDFCF715FBD1E7A8
:1048E00000180000020000000000000000000000AE
:1048F00000D40040001002400000024210B5014602
:1049000088B000222A2000F01FFE2A2000F058FE66
:10491000154B01A91A6E03A842F400621A661B6EB9
:10492000124C03F400630293029B04F097FA04F024
:104930007DFA0346002140F2E7300D4A2161A2FBD7
:104940000323A1609B0C0B49E060013B20462160E2
:10495000636005F0B3F910B1012008B010BD204626
:1049600005F04AF808B010BD00100240E829032005
:1049700083DE1B43002C0140FEE700BFFEE700BFC3
:10498000FEE700BFFEE700BFFEE700BF704700BFC5
:10499000014801F029B800BF50250320014801F06B
:1049A00023B800BFE8240320014801F015BC00BF74
:1049B00018270320014801F00FBC00BF182703206F
:1049C000014805F05FB800BFE8290320014805F061
:1049D00059B800BF9C240320014805F053B800BF1C
:1049E00050240320014802F061B900BFC42603200F
:1049F000014802F005BB00BFC4260320014804F0B3
:104A000011BF00BFB8250320014805F025BA00BF3B
:104A100030260320014802F02DBD00BF28210320CD
:104A2000014800F0E1BF00BFA0270320014804F0C7
:104A30002BBE00BF1C260320034AD2F8883043F463
:104A40007003C2F88830704700ED00E0254B25491F
:104A50001A682548120754BFD3F894301B688A6837
:104A600058BFC3F3032302F00C0248BFC3F3031380
:104A7000082A50F823300FD00C2A0FD01B49042AE3
:104A800008BF0B46174A1A4892681A49C2F3031224
:104A9000825CD3400B607047174BF3E7C868CA6865
:104AA00000F00301C2F30312022902F1010211D046
:104AB000032913D0B3FBF2F10A4AD368D268C3F3D7
:104AC000062301FB03F3C2F3416201325200B3FB40
:104AD000F2F3D7E70549B1FBF2F1EDE70649B1FB87
:104AE000F2F1E9E700100240F81301080024F40095
:104AF000401401085002032080969800DFF834D05B
:104B0000FFF79AFF002103E00B4B5B584350043141
:104B10000A480B4B42189A42F6D30A4A02E0002395
:104B200042F8043B084B9A42F9D30AF07DF8FBF7B0
:104B3000DDFEFEE7000004206814010800000320E9
:104B4000B8030320B803032078570320FEE70000D2
:104B5000042010B500F0E6FCFFF778FF0020FFF717
:104B6000CDFE10B10124204610BD0446FFF7BCFC69
:104B7000204610BD034A044B11681B780B44136098
:104B8000704700BF342A032054020320014B1868E9
:104B9000704700BF342A0320002330B583B001934F
:104BA000002800F09880856D0446002D00F0988064
:104BB000226893689D0005D5936823F0204323F075
:104BC0003F0393609368D80019D45A4B5A481B6826
:104BD00091689B09A0FB030321F010419B0921F080
:104BE0003F0101335B0041F0805191600193019BD3
:104BF0002BB1019B013B0193019B002BF9D19368E1
:104C0000D9006BD40120A36D43F01003A365E36DBD
:104C10000343E365936813F0040FA36D57D1DB06DC
:104C200055D4A36D23F4817343F00203A365936805
:104C3000DD0708D4414B9B6813F0010F404B9B6884
:104C400001D1D9075FD5E568636B94F820102B4339
:104C5000A568012943EA0503657E43EA453343EA33
:104C600001434BD0A16A21B1E56A01F47071294377
:104C70000B43D568334929401943D16093681B071A
:104C800016D494F83030257ED1685B0043EA853332
:104C9000E56C21F4804121F006012B430B43D360E6
:104CA00094F83830012B36D0136923F001031361D7
:104CB0002369012B1AD0136B23F00F031363A36D29
:104CC00023F0030343F00103A36503B030BDA36DDC
:104CD00043F01003A365012003B030BD002099E725
:104CE000FFF724FCE56584F8545061E7116BE36934
:104CF00021F00F01013B0B431363E0E7616A0139C7
:104D000043EA4143AEE7104965688B6823F47C139E
:104D10002B438B6097E71169E36B256C6FF38A0176
:104D20002B430B43616C0B43A16C0B4343F001031A
:104D30001361BDE750020320632D3E05008002424F
:104D40000081024207C0F0FF00830242704700BFAB
:104D5000704700BF08B5806AFFF7FAFF08BD00BFC3
:104D6000704700BF836A10B59A6D12F0500F9A6DAC
:104D70001DD1196842F400729A650A6812F0080F92
:104D8000CA681BD012F4406F0DD1CA6894040AD4CB
:104D90009A6D22F480729A659A6DD10403D49A6D4B
:104DA00042F001029A651846FFF7D0FF10BDD20607
:104DB0000AD4BDE810401B6DDB6B18479007E7D5A0
:104DC0001846FFF7C3FFF1E71846FFF7C9FF10BD0C
:104DD000806A08B5836D43F040038365C36D43F07B
:104DE0000403C365FFF7BCFF08BD00BF0022F0B598
:104DF00083B0019290F85420012A00F0F480034619
:104E000001201A6883F854009068400709D50120F2
:104E10009A6D42F020029A65002283F8542003B074
:104E2000F0BD1F24486802F1300500F01F0C4FEA66
:104E3000901E08680EF00C0EC0F3846000FA0CF0AF
:104E400004FA0CFC55F80E4024EA0C0C40EA0C0065
:104E500045F80E00906810F0040F906835D10707F0
:104E600033D4072408688D68C0F30456B440C00DDD
:104E7000B5F1004F6FEA040400F0040000F0008177
:104E800002F11407B5403E5834402C433C50506961
:104E900020F000405061D1E90464042ED568086810
:104EA00000F0BB80C5F3C1056D0002F1600757F843
:104EB00026C0AC40BA4D00F0F8400CEA05050543A9
:104EC0002C4344F0004447F826409068C60738D485
:104ED000CE680C68B348D2F8B05006F01807F84016
:104EE000C4F31207204025EA07052843C2F8B000A2
:104EF000AD48864227D0AD490C4222D0AC48AD49DE
:104F000086688D68ED0771D4AB4DAD68EF073FF54E
:104F10007EAFAA4D06F0E077AC4200F06981A84D63
:104F2000AC4200F08981A74DAC420AD1740208D48A
:104F30008A4206D1826822F0E0723A4342F480024B
:104F40008260002068E7002F53D094FAA4F0002874
:104F500000F0A080B0FA80F0013000F01F000928B6
:104F600040F2988094FAA4F0002800F08181B0FA11
:104F700080F00130800600F0F84094FAA4F5002D8E
:104F800000F06A810126B5FA85F5354405F01F0564
:104F900006FA05F5284394FAA4F4002C00F05A818F
:104FA000B4FA84F56FF01D060324013505F01F05E2
:104FB00014FB0564240544F0007407272043C50D45
:104FC0008E6805F0040502F1140C5CF80540C0F38E
:104FD0000450864007FA00F024EA000030434CF801
:104FE00005000C6887E7022003B0F0BD724A9268A2
:104FF0000DE70120A40E013404F01F06A40604F0FE
:10500000F845B040092E06EB460440EA050066D993
:105010001E3C240544F00074CFE7146E146EC0F3F8
:105020001205C4F38464002D5BD1C0F38466B442DE
:1050300000F08F80546E556E02F16004C5F38465F4
:1050400002F1640CB54200F0BF80A568A56804F1C8
:105050000807C5F38465C0F38466AE4200F08D8016
:10506000E568E56804F10C06C5F38464C0F3846068
:10507000A0427FF42AAF306820F00040306024E77F
:1050800002F1140635582C403450506940F000406D
:10509000506100E794FAA4F0002800F0F180B0FA23
:1050A00080F00130800600F0F84094FAA4F5002D5D
:1050B00000F0E4800126B5FA85F5354405F01F05BA
:1050C00006FA05F5284394FAA4F4002C00F0D380E6
:1050D000B4FA84F4013404F01F0404EB44042405FE
:1050E0006BE790FAA0F51DB1B5FA85F5AC4230D06A
:1050F000546E556E02F16004C5F3846502F1640CD0
:1051000090FAA0F604F10807BE46002E00F0AB802E
:10511000B6FA86F6AE4259D03D683D68C5F384655F
:1051200090FAA0FC04F10C06B646BCF1000F00F0AA
:105130009580BCFA8CFCAC4521D034683468C4F34B
:10514000846490FAA0F000283FF4BFAEB0FA80F07B
:105150008EE71446106E02F1640C20F0004044F813
:10516000600F506E0868556EC0F31206C5F3846573
:10517000002EC5D1C0F3846664E704F10C0E3868D4
:10518000764620F000403860E0680868E468C0F3C4
:105190001205C4F38464002D3FF468AFD1E700BF6B
:1051A00000F0FF03FFFF070000007F4000000880C1
:1051B000008302420080024200810242000052C786
:1051C000000084CB0100008004F1080EDCF8000030
:1051D000774620F00040CCF80000A0680868A56879
:1051E000C0F31206C5F38465002E3FF434AF97E791
:1051F00036023FF5A6AE8A427FF4A3AE826822490A
:1052000022F0E0723A4342F4000282600A681F49C9
:105210009209A1FB02129209013202EB42029200B2
:105220000192019A002A3FF48CAE019A013A019250
:10523000019A002AF9D184E6F5013FF582AE8A424F
:105240007FF47FAE826822F0E0723A4342F08072CF
:10525000826076E60E4CB0E602259BE6E568E468DF
:10526000C4F384646DE7A568A568C5F3846557E752
:105270004FF0806081E64FF440149EE6022521E75E
:105280004FF0806011E700BF50020320632D3E0500
:10529000000050FE002370B582B0019303689A6845
:1052A000D2072CD49968284A044611422AD19A6818
:1052B000264922F0004222F03F0242F001029A60A9
:1052C0008B681B0229D4FFF761FC236805461A6826
:1052D000D60714D41E4E9A68D00704D49A68324078
:1052E00042F001029A60FFF751FC431B022B236836
:1052F00002D91A68D10705D51A68D207EBD5002064
:1053000002B070BD0120A36D43F01003A365E36DEF
:1053100043F00103E36502B070BD0E4B0E4A1B68FB
:105320009B09A2FB03239B09013303EB43039B006F
:105330000193019B002BC6D0019B013B0193019B74
:10534000002BF9D1BFE700BF3F000080008302427D
:10535000C0FFFF7F50020320632D3E05394B2DE92E
:10536000F041D3F8088003689D6815F0040516D154
:1053700090F854300446012B11D040F221234FF015
:10538000010C08F01F0823FA08F313EA0C0380F855
:1053900054C007D184F854306046BDE8F081022043
:1053A000BDE8F0810E461746FFF774FF002841D193
:1053B000A36D216823F4706323F0010343F4807329
:1053C000A365214B994238D0A36D23F48013A365C4
:1053D000324600251C26A36D206D13F4805318BFA0
:1053E000E36D01F1400118BF23F00603E3653B467E
:1053F000164FC762164F0763164FC76341F8406CDC
:1054000084F8545051F83C5C45F0100541F83C5C80
:1054100051F8345C45F0010541F8345C00F01CFAA9
:105420002268936823F0004323F03F0343F0040312
:105430009360B5E784F85450B2E7B8F1000FC7D1D4
:10544000C2E700BF0083024200810242654D0008AE
:10545000554D0008D14D000890F85420012A45D040
:10546000034600220120F0B42B4D1C689AB0AC42D8
:10547000169283F85400179208D0996D83F854203F
:1054800041F0200199651AB0F0BC7047234A90683A
:1054900040070BD5A26801209A6D42F020029A6560
:1054A000002283F854201AB0F0BC7047A06845076A
:1054B000F1D40D68E5B11A4E4F68B06893F830C06A
:1054C00020F46040384340EA4C30B060A0689268F5
:1054D000C0071ED4D7071CD4B268896822F4716251
:1054E0000D4322F00F021543B56012E00220704711
:1054F0000B48816821F460418160A1689268CD0702
:1055000007D4D40705D4826822F4716222F00F0216
:1055100082600020C4E700BF008002420081024296
:10552000008302424FF6FF0C06490302CA6803F4E7
:10553000E06302EA0C02134343F0BF6343F4003319
:10554000CB60704700ED00E01B4B00B5DB68C3F398
:105550000223C3F1070EBEF1030F03F1030C28BFB2
:105560004FF0030EBCF1060F1CD9A3F1040C4FF051
:10557000FF3303FA0CF322EA03024FF0FF3303FA7E
:105580000EF321EA030303FA0CF313435B01002833
:10559000DBB20ADB00F1604000F5614080F80033C7
:1055A0005DF804FB00229446E7E7044A00F00F0090
:1055B000024413765DF804FB00ED00E0FCEC00E033
:1055C000002807DB012300F01F01034A40098B403C
:1055D00042F82030704700BF00E100E000280CDBFB
:1055E00001220649430900F01F002033824041F8A0
:1055F0002320BFF34F8FBFF36F8F704700E100E0B0
:10560000BFF34F8F0549064BCA6802F4E0621343AB
:10561000CB60BFF34F8F00BFFDE700BF00ED00E0A0
:105620000400FA05002836D038B5437F044603F05D
:10563000FF0263B3022223796277F3B92368174A22
:105640005A619A6822F018029A6062798AB12269D6
:105650001A6101219A68656922F060022A439A6002
:105660009A68A56922F080022A439A606177002037
:1056700038BD4FF0FF321A61EBE72046D4E9021241
:1056800000F00EF808B92368DFE7012038BD027783
:10569000FEF7C8FFCEE70120704700BFB71DC10469
:1056A000CB071AD51F2310B4013B5C1C21FA03FC65
:1056B00015D01CF0010FF7D0182A11D8DFE802F03E
:1056C00016101010101010102410101010101010C0
:1056D00021101010101010101400012070472AB172
:1056E00001205DF8044B7047062BF9D804680020B0
:1056F0006161A36823F018031343A3605DF8044BB2
:105700007047072BF2D9EBE70F2BEFD9E8E700BF83
:1057100011490368C26C8B4288BF104922F0030212
:1057200094BF02F1804189184FF0010210B4DBB23E
:105730000B4CA3F10803A4FB03430A4CC3F304136B
:1057400098BF01F5023102FA03F3C0E9141483652E
:105750005DF8044B704700BF070402402008024078
:10576000CDCCCCCC80080240002861D038B502688E
:10577000304B04469A4246D92F4B30491344A1FB83
:1057800003132F481B099B000221C4E91203D4E92B
:10579000025320692B430343606984F825100343B7
:1057A000A06911680343E0696FF310110343206A95
:1057B00003430B4320461360FFF7AAFFB5F5804F64
:1057C0002AD0D4E914516368A06DDAB2013B032BEF
:1057D0002A60486027D8012100201A4B1A4D134433
:1057E000013A01FA02F219499B00E36562662566F7
:1057F00018604A6400230122636484F8243084F82A
:105800002520184638BD124B0C491344A1FB031345
:105810001B0910489B00B7E70023D4E91402A16DCF
:105820006360036051600023C4E917336366E1E7F6
:105830000120704707040240F8FBFDBFCDCCCCCC63
:10584000000402403F82001040090240000902406B
:10585000F8FFFDBF00000240F0B590F82440012C95
:105860000AD04FF0010C90F8254080F824C0644520
:1058700004D0002380F824300220F0BD0026D0E9B7
:10588000157C4FF0020E046880F825E04664266817
:10589000C56D26F001062660C7F804C015B1D0E931
:1058A000186777600126C76C07F01C0C876C06FA36
:1058B0000CF67E6063608368102B036B0BBFA260E5
:1058C000A160E160E260B3B1236843F00E0323609E
:1058D000036D1A68D20303D51A6842F480721A6005
:1058E0001DB12B6843F480732B602368002043F0C4
:1058F00001032360F0BD236823F0040323602368C1
:1059000043F00A032360E3E790F825200346022AC8
:1059100006D004225A640022012083F82420704714
:10592000026870B4046D1068D96C20F00E0010602D
:1059300020689E6C20F480702060106801F01C01CB
:1059400020F0010010600122D3E91545D86D8A408E
:105950007260656030B1D3E91814026822F4807275
:1059600002604C60012283F82520002283F8242065
:10597000002070BC704700BF90F825200346022A23
:1059800003D0042201205A647047026870B5046D88
:105990001068D96C20F00E00106010689E6C20F02A
:1059A000010010602268D86D22F48072226001220A
:1059B000D3E9154501F01C018A407260656030B181
:1059C000D3E91814026822F4807202604C6001204E
:1059D00000211A6C83F8250083F824100AB11846B8
:1059E0009047002070BD00BF0421F0B4C26C866CEB
:1059F00002F01C023568046891402942034627687A
:105A000012D017F0040F0FD02268170439D422687F
:105A1000950603D4226822F0040222601A6B71609A
:105A200092B1F0BC184610470221914029420DD096
:105A3000B8070BD5226812F4004F226829D0D4038E
:105A40003CD45A6B002AECD1F0BC7047082191403D
:105A50002942F9D03907F7D52168002021F00E013D
:105A600021600121DC6B01FA02F27260596483F853
:105A7000240083F82510002CE6D018462346F0BCFD
:105A8000184771602268D60314D4036B002BF6D13B
:105A9000DAE7900606D4226822F00A022260012288
:105AA00083F825200020DA6A716083F82400002A38
:105AB000B7D1C9E7836B002BE1D1C5E7DA6A002AC9
:105AC000AFD1C1E790F82500704700BF60B103680F
:105AD000C8061A6805D5C9024CBF42F4801222F4E8
