:020000040800F2
:100000000000042015530008915100089551000884
:10001000995100089D510008A1510008655300083E
:1000200000000000000000000000000011F40008C3
:10003000A551000800000000A1F3000835D0000819
:1000400065530008655300086553000865530008B0
:1000500065530008655300086553000865530008A0
:100060006553000865530008655300086553000890
:100070006553000865530008655300086553000880
:100080006553000865530008655300086553000870
:100090006553000865530008655300086553000860
:1000A0006553000865530008655300086553000850
:1000B00065530008A9510008B551000865530008B0
:1000C0006553000865530008655300086553000830
:1000D000655300086553000865530008C1510008C6
:1000E000CD51000865530008D95100086553000838
:1000F0006553000865530008655300086553000800
:1001000065530008E5510008F151000865530008E7
:1001100065530008655300086553000865530008DF
:1001200065530008FD510008095200086553000896
:100130001552000865530008655300086553000810
:1001400065530008655300082152000865530008F4
:10015000655300086553000865530008655300089F
:10016000655300082D5200086553000865530008C8
:1001700065530008000000006553000800000000FF
:10018000395200086553000865530008655300089C
:10019000655300086553000865530008655300085F
:1001A000655300086553000865530008655300084F
:1001B0006553000800000000455200086553000820
:1001C00065530008000000006553000865530008EF
:1001D000655300086553000865530008655300081F
:1001E000655300086553000865530008655300080F
:0401F000000000000B
:1002000010B5054C237833B9044B13B10448AFF350
:1002100000800123237010BD400303200000000074
:10022000A4F9000808B5034B1BB103490348AFF319
:10023000008008BD0000000044030320A4F900086A
:1002400010F8012B11F8013B012A28BF9A42F7D080
:10025000D01A7047034613F8012B002AFBD1181A55
:1002600001387047704700BF01F0E0BD2DE9F04153
:100270002E4C2F4EDFF8C0802E4F9AB04FF0FF3338
:100280002822694620680DF0FFFC2828F6D1039843
:1002900004F060FB054600283FD1029BD3B92946F4
:1002A0000AAA009801F0D8FD0DF0E6FF0AA902465F
:1002B000684601F027FF0DF0DFFF0AA902466846F5
:1002C00001F086FB0DF0D8FF0AA90246684601F04E
:1002D000DBFCD3E7B3F1005FEDD140F20373009D87
:1002E0009D42E8D1082203994FF0000E91420B463F
:1002F00028BF13469C46019B41463846C6E905EE99
:10030000C6E90053C6F808E0C6F80CC004F02EFB9E
:100310003946304601F0D4F9CDE74FF0FF332A4695
:1003200020680AA90DF0B0FCB7E700BF0028032041
:1003300070030320640303209005FA0B2DE9F041BC
:100340001F4DDFF884801F4F9AB0002404EBC401D6
:1003500001AEC4F124024FF0FF33286806EB81019F
:100360000DF092FC0444232CF0D9049804F0F2FA26
:10037000039B0646B3F1005F00D0A0B9384606F0F3
:10038000A7FA50B138460AAA01A906F065F9D8F8CB
:100390000C300133C8F80C30D7E74FF0FF310120A3
:1003A0000EF024FBEAE700240AA9321B21444FF097
:1003B000FF3328680DF068FC0444A642F4D8DDE75A
:1003C000FC270320A02603200000032000B583B0F3
:1003D00001F03CFD01F02EF803221B491B4805F0FB
:1003E000C9FB02F079FD00F0D9FD02F091FD0DF09E
:1003F00043FF01F0E7FA0DF03FFF01F03FFC144826
:100400000AF01EF913480AF0E3F8134C0DF034FF1C
:10041000019002F063FD019802F080FD019800F068
:10042000D5FD23782BB9019801F0EEFD019801F07C
:100430004FFB019801F0EAFC019801F057FE0A21F8
:1004400001A80EF07BF8E1E778290320902703202C
:10045000242403208C230320760003202DE9F0437D
:100460004FF00008204C214EDFF88890204FA5B0B7
:1004700011E00EF0A9FE99F8003033B1099B23B1C9
:1004800064200CF059FE00F0D5FF0023022219462B
:1004900038680EF021FB4FF0FF3101200EF0A6FA74
:1004A0000EF084FE204606F069FB054604A92046AE
:1004B00006F0D4F96946204606F0F8F95422314690
:1004C0000FA8B5600FF016FAC4F86080169BB3F55C
:1004D000003FCED9B3689B02CBD5012386F82030EC
:1004E00001F07CF8C5E700BFA02603200000032030
:1004F000F81B03206003032000232DE9F04F85B093
:100500007D4E7E4FDFF8FC91DFF800B27C4DDFF8C6
:1005100000A20DF10E088DF80B3012E028680DF0E6
:10052000DBFA012808D94FF0FF330222286803A91B
:100530000DF0AAFB022846D04FF0FF3100200EF04C
:1005400055FA30680DF0C8FA0028E7D04FF0FF33B5
:10055000012230680DF10B010DF096FB0128DDD171
:1005600030680DF0B9FA0128D8D94FF0FF330222D4
:10057000306803A90DF088FB0228CFD1BDF80C200C
:10058000B2F5805FCAD2002A40F0A6809DF80B40E9
:10059000002C53D10DF070FE5A4B5849BDF80C2079
:1005A000CDF8008003F0A4F9BDF80E30002B7AD10D
:1005B0000DF062FE534B5149BDF80C20CDF8008080
:1005C00004F096F9AAE7BDF80C20B2F5805FB3D22B
:1005D0006AB10024121B39194FF0FF3328680DF05F
:1005E00053FBBDF80C20204484B2A242F2D10DF09E
:1005F00043FE4B463946BDF80C20CDF8008004F090
:100600003FFABDF80E30002B96D041464FF0FF3335
:100610000222DAF800000DF06DFA4946BDF80E200E
:100620004FF0FF33DAF800000DF064FA00230222E5
:100630001946DBF800000EF04FFA7DE70DF01CFEC6
:10064000304B2E49BDF80C20CDF8008004F0ECF8BA
:10065000BDF80E30002BABD099F800207F2A09D1CD
:10066000022BA5D999F80230A3F11102012A9FD9D2
:10067000312B9DD02448414604464FF0FF330222DF
:1006800000680DF037FABDF80E204FF0FF331D491A
:1006900020680DF02FFA002302221946DBF8000033
:1006A0000EF01AFA84E7184841464FF0FF33022251
:1006B00000680DF01FFA1448BDF80E204FF0FF330C
:1006C000104900680DF016FA234602222146DBF895
:1006D00000000EF001FA6BE70024121B4FF0FF330D
:1006E000391930680DF0D0FABDF80C2023189CB2EF
:1006F000A242F2D14AE700BFA4030320508F012099
:1007000098030320507F0120A00303203809032011
:10071000940303202DE9F04F404F414E414DDFF847
:100720000CA185B007F11C0907F5805B07F11408DF
:1007300013E028680DF0D0F9012809D94FF0FF33F4
:10074000022228680DF106010DF09EFA022843D01E
:100750004FF0FF3100200EF049F930680DF0BCF980
:100760000128E6D94FF0FF330222414630680DF0F0
:100770008BFA0228DDD1BA8AB2F5805FD9D26AB18C
:100780000024121B09EB04014FF0FF3330680DF019
:100790007BFABA8A204484B2A242F2D10DF06CFDF9
:1007A0000146214801F058FF0028C2D103E09BF820
:1007B00023000CF0C1FC0DF05FFD02F0FBFF0128EF
:1007C000B7D030680DF088F90128B2D89AF8003017
:1007D000002BECD10A20ECE7BDF80620082AB7D898
:1007E00072B1002402A9121B21444FF0FF33286884
:1007F0000DF04AFABDF80620204484B2A242F1D19D
:100800000DF03AFDBDF8062002A904F0F3F8012826
:100810009ED00A200CF090FCF2E700BF54AF0120FC
:10082000A003032094030320549F0120760003209B
:1008300001F000BB01F002BB002001F003BB00BFD0
:100840000022024B02481A6009F0FABE5C03032042
:10085000D8230320014B1868704700BF5C030320B6
:1008600030B59FB0482200210CA80EF0AFFF002346
:100870004FF40070CDE90233CDE90433CDE90733FD
:10088000CDE90933019306930B9308F0DFF808B123
:1008900072B6FEE701230222169311931993179261
:1008A00010231D9207229FED1E7BCDE91A320324EF
:1008B000042312900CA81C938DED0C7B189408F067
:1008C000FFFA034608B172B6FEE70F22214601A8DF
:1008D000CDE9033305930294019208F09FF9034692
:1008E00008B172B6FEE7104A4FF00055916D4BF615
:1008F0007F3441F080719165926D069302F08072B1
:10090000009208932222202306A8CDE90A23009909
:100910000795099409F032FA1FB030BDAFF300809B
:100920002900000000000100001002402DE9F04104
:1009300092B072B64FF00062A54B9A60BFF34F8F32
:1009400062B6002504F010FDFFF78AFFCDE90C55D3
:10095000CDE90E559F4C1095E36C4FF4604143F088
:100960000403E364E36C2A4603F004030593059B48
:10097000E36C994843F08003E364E36C012603F0E1
:1009800080030693069BE36C082743F00103E364AE
:10099000E36C03F001030793079BE36C43F002034E
:1009A000E364E36C03F002030893089B06F084FD04
:1009B0002A4640F20111894806F07EFD2A4641F29E
:1009C000E401874806F078FD4FF4604382480CA9A3
:1009D000CDE90C360E950F9506F0B6FB40F20113EB
:1009E0007E480CA9CDE90C36CDE90E5506F0ACFBDE
:1009F00041F2E4037A480CA9CDE90C36CDE90E5555
:100A000006F0A2FB77480CA9CDE90C750E9506F00F
:100A10009BFBA36C052143F00403A364A36C2A464B
:100A200003F004030293029BA36C1D203343A364D1
:100A3000A36C33400393039BA36C43F00203A364B2
:100A4000A36C03F002030493049B05F089F91D20B5
:100A500005F0C2F92A4605211E2005F081F91E2065
:100A600005F0BAF92A460521502005F079F9502001
:100A700005F0B2F9284607F09DF808B172B6FEE716
:100A800007F0ACF8034640B957484360574B036042
:100A900009F09CF918B172B6FEE772B6FEE71022B3
:100AA000534B3C241870534B4FF440719A619A6237
:100AB0001322C3E907420F220425DA624E4A586026
:100AC000D8609874D8631846C3E90D661E825E61CB
:100AD0005E6299601A601D6305F014FC0346E8B974
:100AE00007224FF4827C4FF400714FF4E0644348D6
:100AF000C0E90433C0E90833C0E90A328360036304
:100B00003F4BC76103604763C0F804C0C4608161A4
:100B100009F088FB034618B172B6FEE772B6FEE72D
:100B2000CDE90C00CDE90E00CDE91000CDE90A00B9
:100B300009904FF480704FF4301703214FF4805226
:100B4000304CC4E9023384F82030A362E36284F8B5
:100B500038302D4B20832046266184F83060656153
:100B60006760E1616263236004F022FC08B172B641
:100B7000FEE7099009A9204605F07AF808B172B697
:100B8000FEE7224A7F230C9206220E9011900CA9B8
:100B9000204610950D920F9304F034FD08B172B603
:100BA000FEE70C231A4A20460CA90C920D9304F080
:100BB00029FD08B172B6FEE71223164A20460CA999
:100BC000CDE90C2304F01EFD30B372B6FEE700BF82
:100BD00000ED00E000100240000802420000024266
:100BE00000040242001C0242A425032000080C421B
:100BF00060030320A026032000A40040402503201A
:100C00000038004090270320008002424000201955
:100C10000002B0250004002A00230126914D924ACB
:100C20002846C5E90533AB802A602E6205F006F937
:100C3000034608B172B6FEE78C48C3724FF40273E4
:100C400083800223C0F80730894B036006F0D0FF91
:100C500008B172B6FEE741F63F77864C864BCDE988
:100C60000C00C4E901000E90A06120462360E760FB
:100C700009F048FE034608B172B6FEE720460CA90B
:100C80000C930E9309F070FE08B172B6FEE742F2C3
:100C90000F727A4C7A4BCDE90C00C4E902070E9032
:100CA000A06120462360626009F02CFE034608B173
:100CB00072B6FEE720460CA90C930E9309F054FE81
:100CC000034608B172B6FEE76E48C0E9043383609C
:100CD00083614F2343604FF6FF73C3606A4B036029
:100CE00009F010FE044608B172B6FEE7674B0246F3
:100CF0003146009346F20600654B0CF099FE654FB5
:100D0000654B224600933146644B386046F206003C
:100D10000CF08EFE624B22460093624B3146186007
:100D2000614B4FF47A600CF083FEDFF830825F4B4A
:100D3000224631460093C8F800005D4B4FF47A60BC
:100D40000CF076FE5B4B224600935B4B31461860FD
:100D50005A4B4FF4A0400CF06BFE594B22460093C7
:100D6000584B31461860584B4FF4A0400CF060FED1
:100D7000564B57491860574802F04CF901F06CFA8D
:100D80000DF07AFA3A46544B5449CDF8008001F000
:100D900093F9534802F07AF9284600F0C5FD51480E
:100DA000514A524900F02CFB0CA80C9401F04AFA6D
:100DB00020B90C9B13B94E4801F01CFA0CF048F90D
:100DC00000214C4A4C480CF06FF904464B4B002173
:100DD0004B4A4C481C600CF067F904464A4B002112
:100DE0004A4A4B481C600CF05FF904463F4B002117
:100DF000484A49481C600CF057F90446344B00211E
:100E0000464A47481C600CF04FF90446364B002117
:100E1000444A45481C600CF047F904462F4B00211A
:100E2000424A43481C600CF03FF90446414B002104
:100E3000414A42481C600CF037F90446404B0021FF
:100E4000404A41481C600CF02FF904463F4B0021FA
:100E50003F4A40481C600CF027F93F4B18600CF0EB
:100E600009F9FEE70427032000300240B0200320E8
:100E700000D40040D8230320001400402424032081
:100E8000001000408C230320004401405C04032038
:100E9000481F0120A40303203804032040BF002082
:100EA00014040320A0030320A0AF0020F0030320BC
:100EB00000A00020CC030320940303200050002056
:100EC000A80303200028032000000020FC270320A3
:100ED00048170320402503209C030320E80D03202E
:100EE000A4250320A026032098120320F81B03202A
:100EF000040091800CFD000869020008AC2003206A
:100F0000E8FC00086D020008A8200320C4FC0008CB
:100F10003D030008A0FC0008CD0300087CFC00088D
:100F20005D04000858FC0008F904000834FC0008BF
:100F3000150700083809032010FC000831080008D4
:100F400088040320ECFB0008350800088404032013
:100F5000C8FB000839080008800403209803032018
:100F6000094A0368934206D0084A93420AD0084AC5
:100F7000934205D07047074A1368013313607047E6
:100F800000F04CBF04F002BA00140040002C0140F5
:100F9000001000405C03032072B6FEE7024B0348DA
:100FA000DB8B037002F058B854000320F9270320AC
:100FB000054AD38B9BB211B10343D383704723EA15
:100FC0000003D383704700BF5400032038B5124D8F
:100FD0000446A88B1149C0B200F0E6F8E88B10492E
:100FE000C0B200F021F940F6B7330E4AE98B9C42BB
:100FF00011700D4B01D8197831B101221A700948CE
:10100000BDE8384002F028B8FF2313700548BDE85A
:10101000384002F021B800BF5400032060010320D3
:10102000E8000320F9270320F8270320012908D925
:101030004FF6FE2302889A4203D8981AC0F34F0055
:1010400070470020704700BF01290AD94078FA286C
:1010500009D8064BC0EB0030A3FB0030C0F30F10E3
:1010600070470020704740F6FF707047D34D621004
:1010700002298CBFB0F801000020704701290AD96D
:101080004078FA2809D8064BC0EB0030A3FB0030AB
:10109000C0F30F1070470020704740F6FF70704794
:1010A000D34D621004298CBFB0F8030000207047B4
:1010B00001298CBF00880020704700BF01290AD990
:1010C00047F27F530088984238BF1846A0F5EA409F
:1010D0007F3880B270470020704700BF022983BF6D
:1010E00080787D38C0B20020704700BF032983BFDD
:1010F000C0787D38C0B20020704700BF012918D9E0
:10110000037803F00302012A17D003F00C02042A2B
:1011100015D003F03002102A0DD003F0C003402B8D
:101120000FD0437803F00303012B0CBF06200120EE
:101130007047002070470520704702207047032049
:1011400070470420704700BF09B100787047084617
:10115000704700BF032986BFC078C0F3810000201C
:10116000704700BF012906D9437803F00F03013B04
:10117000DBB2022B01D900207047024A32F813007B
:10118000704700BF30FD000819B10178C1F381003C
:1011900070470846704700BF032986BFC07800F03B
:1011A00003000020704700BF4FF0FF3301280B60A1
:1011B0004B600AD0022805D003280CBFD723FF2399
:1011C0008B707047C7238B707047C3238B70704739
:1011D00002290FD9837803F00C02042A01D00120E0
:1011E0007047C3F30113012B06D0002B0CBF022064
:1011F00001207047002070470320704771B10378C9
:101200009A09012A03F003010AD003F03003102BDE
:1012100008D001290CBF0220012070470846704702
:10122000042070470320704710F0080C18BF4FF0DF
:10123000FA0C10F0100218BFFA2210F0200318BFA9
:10124000FA2300B510F0400E18BF4FF0FA0E10F060
:10125000800F81F800C04A700CBF4FF0000C4FF0B7
:10126000FA0C10F0010218BFFA228B7010F0020382
:1012700018BFFA2310F0040018BFFA2081F803E029
:1012800081F804C04A718B71C8715DF804FB00BF1E
:10129000072903462DD900785A78A0F1FA00B0FA50
:1012A00080F0FA2A4FEA50109A784FEAC00008BF3F
:1012B00040F01000FA2ADA7808BF40F02000FA2A3D
:1012C0001A7908BF40F04000FA2A5A7908BF40F066
:1012D0008000FA2A9A79DB7908BF40F00100FA2AE7
:1012E00008BF40F00200FA2B00D0704740F0040025
:1012F00070470020704700BF2DE9F04F3C4B8346FC
:10130000984283B007D83B4B984269D94FF02809DF
:101310004FF4487E0BE04FF0250940F2EE2E364B9D
:10132000B3FBFBFC5FFA8CFCBCF1190F5DD901200B
:10133000314B013080B2B3FBF0FCBCFBFBFC5FFA2D
:101340008CFCBCF1190FF4D8B0F5806F42D20123A8
:101350006FF000444FF47A765A460093274B1F688B
:10136000431C1FFA83FAACF10208B8EB5C0F4FEA9A
:101370005C0120DD0CF1FF3B5FFA8BFBCDF804A094
:1013800006FB01F5B5FBFCF5BEEB050A48BFA5EB76
:101390000E0AA2450ADAD14508DB0025544600951D
:1013A000ABEB0105EDB2F96178613D620131414578
:1013B000E6DBDDF804A0104998B2B1FBFAFCBCFBF7
:1013C000F2FCB0F5806F0AF1010A5FFA8CFC03D0E1
:1013D000431CC8E701230093009803B0BDE8F08FD9
:1013E0004FF02B0940F26B3E99E70120AFE700BFB9
:1013F00000350C0020A10700005A6202F4280320E7
:1014000038B50C46064D0749074B0A602860074966
:1014100001201C600CF090F8054B186038BD00BF2F
:10142000F4280320EC280320F028032004280320BC
:10143000542803202DE9F041604E82B0306805F059
:10144000F5F8306804F05EFF002840F0918000223B
:101450005B4C40215B482271E26022616261A261C3
:10146000A260E26184F8202006F026F8306805F0DA
:10147000DDF8082202233068C0E90D2304F042FFA2
:10148000002840F0988000250222012340F2FF71DD
:10149000C4E90B234C4FDFF84081A163656202E091
:1014A0000135082D0ED037F8023F41463068A5625D
:1014B000636305F011F80028F2D00135FFF76CFDE9
:1014C000082DF0D102234FF08042002001216364F7
:1014D0006FF06043C4E90F203C4A3068C4E912123F
:1014E0003B49236504F0F8FF002861D10023012265
:1014F00037493068E3642264236504F0EDFF002877
:1015000053D10023022230681146009305F010F8F1
:10151000002847D1306805F02DF800283FD100227F
:101520000121306805F0DAF9B0BB002206213068ED
:1015300005F0D4F968BB07224FF4F051306805F08C
:10154000CDF918BB07228021306805F0C7F9D0B962
:1015500000222049306805F0C1F988B900224FF413
:101560006021306805F0BAF928B902B0BDE8F08111
:10157000FFF712FD6BE702B0BDE8F041FFF70CBDCD
:10158000FFF70AFDEAE7FFF707FDE1E7FFF704FDD4
:10159000D8E7FFF701FDCEE7FFF7FEFCC5E7FFF751
:1015A000FBFCBCE7FFF7F8FCB4E7FFF7F5FCA8E7A6
:1015B000FFF7F2FC9AE7FFF7EFFC64E7F42803205B
:1015C000000003200004024236FD0008FECA770036
:1015D0003C0003200040710024000320014B1868E8
:1015E00005F024B8F4280320082824D8DFE800F008
:1015F000080C1014171A1D2005001448FFF77CBEB4
:1016000042F21070FFF778BE44F62060FFF774BE18
:101610004CF25030FFF770BE0D48FFF76DBE0D481D
:10162000FFF76ABE0C48FFF767BE0C48FFF764BEC1
:101630000B48FFF761BE0B4AA0F51C53103B9342C9
:1016400001D901207047FFF757BE00BF40420F008D
:10165000A086010048E8010090D0030020A1070007
:1016600000350C00301B0F000346054A1978002096
:1016700051615978D16199781162DB789361704733
:10168000A02603200246024B00209A61704700BF4B
:10169000A0260320034600B5074A93F801E093F81B
:1016A00000C082F810E005499B7881F800C05374AF
:1016B00000205DF804FB00BFA02603206003032088
:1016C0002DE9F0470546C0680F4603F043F9AB68C3
:1016D000B3F1005F3CD00646824600F12409254C58
:1016E0004FF0FF3120680CF031F80128F8D1DFF815
:1016F0009080D8F800000CF0DFF9484515D202259B
:101700001D4A13792B431371002320681A4619468A
:101710000BF076FE00231949022209680868194671
:101720000DF0DAF92846BDE8F08729464FF0FF337F
:101730002422D8F800000CF0DDF9054686B94D45A5
:101740000CD00D4A0125137943F008031371DBE730
:101750004FF0000A4FF024095646C0E70025D3E7B2
:10176000524639464FF0FF33D8F800000CF0C2F96A
:101770000544E4E75428032000000320F028032058
:10178000FC27032000232DE9F0430C4683B0C90752
:101790000546019316D4A20707D502212D4A1379D5
:1017A00043F0010313712B681965630735D4019B5E
:1017B0002BB14FF0E0234FF08052C3F8042D03B05B
:1017C000BDE8F083DFF89880224F42464021224B4B
:1017D00004F0A4FF7B69D8F80C0001337B6103F0AF
:1017E000B9F8DFF880900646D9F800000CF064F9EB
:1017F00006F12803984223D341462822D9F8000055
:1018000001AB0CF0FBF9002EC5D03246D9F8000030
:10181000114901AB0CF0F2F9BDE704240D4B0F495F
:101820009A69096801329A611A7942F008021A71BC
:101830002B6808680DEB04011C650DF037FAB6E75C
:10184000064ABB6912680133106801A9BB610DF03B
:101850002DFAA0E700000320AC280320EC28032089
:10186000842803200028032010B500240A4A0B49CD
:101870001369096882B00868013301A913610194F2
:101880000DF014FA019B2BB14FF0E0234FF0805282
:10189000C3F8042D02B010BD00000320F02803207F
:1018A00010B500240A4A0B49D369096882B0086858
:1018B000013301A9D36101940DF0F8F9019B2BB11B
:1018C0004FF0E0234FF08052C3F8042D02B010BD5A
:1018D00000000320EC28032038B50C46104D2946A3
:1018E00004F0BCFFA10303D5EB68A3B90D4A136054
:1018F000620309D52B690B4A012B13790CBF43F006
:10190000040303F0FB031371230303D50122054BEA
:1019100083F8202038BD4FF00042024B1A60E7E701
:101920005828032000000320704700BF91B14FF0FA
:10193000FF3210B4084C014410F8013B5340DBB2B5
:1019400054F82330884283EA1222F5D1D0435DF85F
:10195000044B70470846704748FD00082DE9F047E2
:101960000024164F884638600846C7E90544C7E991
:10197000014403F007F8F8B18146114E13E08246A6
:10198000054602F0EDFF034608EB040152463046DF
:101990002544FB60ACB202F0E9FF31460748FFF78F
:1019A0008FFEA14508D9A9EB04000828C0B2E6D9EA
:1019B00008252846AA46E4E7BDE8F0873829032031
:1019C0002C2903200022014B1A6070475C29032058
:1019D000836870B504460E4605683BB1B3F1005FFD
:1019E00003D140F272739D421CD070BD40F2564349
:1019F0009D422A4650D040F257439D423BD02C4B4B
:101A00009A421AD0A368002BEFD12568B5F58B6FE9
:101A1000EBD1E368002BE8D10121264A264811705A
:101A2000036070BD40F272702449FFF797FF25688C
:101A3000A3682A46002BDED0D7E73378502BD4D1C9
:101A40007378342BD1D1B378242BCED1F378242BD7
:101A5000CBD13379572BC8D17379302BC5D1B3791A
:101A6000522BC2D1F379442BBFD140F27370144989
:101A7000FFF774FFC6E70822304612490DF096FEC4
:101A80000028C3D140F271700F49FFF767FFA368C8
:101A90002268002BB3D070BD4FF4EE600B49FFF706
:101AA0005DFFA3682568B3F1005F2A4699D0C1E7BE
:101AB000FECA7700FE2803205C29032078FA00087C
:101AC000B0FA000890FA00089CFA000860FA0008D2
:101AD0005C4B1B78ABB12DE9F0475B4F5B4A3B6831
:101AE0005B4903FB02F2B1EB720F37D2594A5A49F4
:101AF00003FB02F2B1EBB20F04D201333B60BDE84D
:101B0000F0877047002340F2F2600021534D544E9D
:101B1000A946C5E90001C5E90533DFF84C813488E1
:101B2000DFF854A1AB60002C7CD1012002F018FF3B
:101B300088F80040E86041464846FFF7C1FD348818
:101B40000134A4B2982C4FEAD40234805FD9002229
:101B50003B68328001333B60BDE8F08700234FF4DF
:101B6000DE6000213F4E3D4DB6F80080C5E9000122
:101B7000C5E90533AB60B8F1000F5CD1022002F07B
:101B8000EFFE394CE86084F8018032883748531CF6
:101B90009BB2812B28BF0023D143D2083380835CC2
:101BA00001F00702134103F001032F492B48237072
:101BB000FFF786FD002040F2F16200232C4EC5E9BC
:101BC0000023B6F80080C5E90500A860B8F1000F51
:101BD0002DD1012002F0C4FE84F80080E860328834
:101BE0002448531C9BB2912B28BF0023D143D20819
:101BF0003380835C01F0070213415B0703F000535D
:101C000019491648AB60FFF75BFD3B686EE7E3439D
:101C10001AF8022003F0070342FA03F3DB0782D429
:101C20003B686AE7002002F09BFEE86083E702F071
:101C300097FEE860D3E7012002F092FE0A4CE860CC
:101C4000A3E700BFFE2803205C290320CDCCCCCC29
:101C500099999919295C8FC2285C8F020829032061
:101C6000F8280320FC28032000290320CCFA0008D0
:101C7000FA280320E0FA0008F4FA00080022014BD9
:101C80001A607047642903202DE9F04144688CB044
:101C9000B4F1804F02D00CB0BDE8F0810668C06896
:101CA000C6F307470D4602F055FEEA2FC6F3072894
:101CB00033D0EC2FEFD1B8F1210FECD10728EAD9BE
:101CC0002B78102BE7D1EA79AB7912046D7942EACF
:101CD00003222A4333020825444900209BB21943BA
:101CE0000494FF236FF47E44039122FA05F1CDE9B9
:101CF0000700CDE909008DF809208DF80A10120CB3
:101D000005900B9001A903A88DF80B20069501946E
:101D10008DF80830FFF7D4FCBDE70228BBD9B8F135
:101D2000FF0F02D0B8F1210FB5D1AB7869782A78CE
:101D30001B0443EA01231343B3F56E4F43D04FF620
:101D4000C5529342A7D1002508234FF080420124B9
:101D500027492848019128490390029103A801A925
:101D6000CDE90635CDE90425CDE90855CDE90A557B
:101D7000DFF89480FFF7A4FC204B08F1FF370393B2
:101D80000DF10B060822FF2101A802F0EBFD8DF8F2
:101D9000044001A97A1904E00233A3EB0803152BD0
:101DA00006DC134612F8010F01F8010F8E42F3D141
:101DB000013401A903A8E4B2FFF782FC052C05F168
:101DC0000705DFD167E700234FF0804408220C4865
:101DD0000C49039003A8CDE90443CDE90623CDE9DE
:101DE0000833CDE90A33FFF76BFC54E72100EC1C04
:101DF0002016000421FFEC1CFFC5FD0021FFEB1C99
:101E000021FFEE186001010848010108024A136829
:101E100001331360704700BF64290320024A13682E
:101E200001331360704700BF6029032000200CF0CD
:101E300061B900BF00200CF05DB900BF00200CF0BC
:101E400059B900BF00200CF055B900BF0022014B6A
:101E50001A70704776000320F1B108B503465E485A
:101E6000834266D019D85D48834200F0A28031D801
:101E70005B48834200F0A9807DD85A4883424CD009
:101E800000F19D6000F54230834204D11046FFF717
:101E90000FF9554B588108BD70475448834242D0D2
:101EA0002AD86FF4847CA0F58E306044834200F021
:101EB000868057D8A0F55C20A0F61E70834244D0DF
:101EC00000F582608342E6D11046FFF7F7F8464BF3
:101ED000188108BD464883425FD055D845488342A3
:101EE0002DD000F5EA4042308342D4D11046FFF7AE
:101EF00085F93D4B188308BD3F48834253D000F518
:101F0000F270834227D0A0F5FF608342C3D1104610
:101F1000FFF742F9344B188208BD1046FFF786F8E8
:101F2000314B588008BD1046FFF72EF92E4B5882D2
:101F300008BD1046FFF7A2F82B4B988008BD10464D
:101F4000FFF710F9284B588308BD1046FFF7CEF86D
:101F5000254B187308BD1046FFF7D0F8224B83F8C5
:101F6000200008BD2548834295D11046FFF7F2F8BE
:101F70001D4BD87508BD224883428CD11046FFF70F
:101F8000ADF8194BD88108BD1E48834283D1104655
:101F9000FFF75AF8144B188008BD1046FFF7D4F825
:101FA000114B987508BD1046FFF772F90E4BD88398
:101FB00008BD1046FFF776F80B4B988208BD104617
:101FC000FFF706F9084B988308BD1046FFF750F855
:101FD000054BD88008BD00BF5A03F0182A04F00C46
:101FE0002A00000C2A0B0404540003202AF1FE18D6
:101FF0000521EF1805CCFD0C2100FF182AD4FD188F
:102000002A03010C5A01F0182DE9F0410646284D2B
:1020100082B005F1080755F8044BE36E626EF31ABF
:10202000934204D2AF42F6D102B0BDE8F081B4F9D8
:10203000723004EBE300002B00F1240026DAB4F93F
:10204000743004F12408002B4FEAE3010BDA194B3A
:1020500041461B6820462361FFF732FBA36EE6660C
:102060000133A366DEE74046FFF760FC04220190DF
:10207000B4F974000DEB02010028B8BF0730C0109E
:10208000243004FA80F002F071FCE0E7B4F8683024
:1020900001A95BBA0222ADF8043002F067FCB4F982
:1020A000743004F12408002B4FEAE301CFDBDAE7B8
:1020B000680101080000032038B50446084B094DAB
:1020C0001A60094B049A29601A6000F049F820460A
:1020D00001F024FB204602F06DFC002038BD00BF5B
:1020E0006C290320702903206829032038B5054690
:1020F00001F034FB0446284602F068FC2043C0B2DD
:1021000038BD00BF134B70B51B6804460D4616461C
:1021100001F05AFB012809D00F4B324629462046D0
:102120001B6802F07DFC012809D070BD00230B4A1A
:1021300019461268106802220CF0CEFCECE700236E
:10214000BDE87040054902220968086819460CF08C
:10215000C3BC00BF6C290320682903207029032019
:1021600000B583B0102001A900F0A2F810B903B0A7
:102170005DF804FB0021102000F082F8003818BF41
:10218000012003B05DF804FB00B583B0102001A965
:1021900000F08EF828B90146019830B903B05DF817
:1021A00004FB012003B05DF804FB102000F068F888
:1021B000003818BF012003B05DF804FB70B500269D
:1021C00082B004460D46102001A9019600F070F877
:1021D00010B9019BA34202D8012002B070BD04F1E6
:1021E0001100294680B200F063F8801B18BF01205F
:1021F00002B070BD002210B5114B82B01B78019265
:1022000013B9184602B010BD044601A9102000F011
:102210004FF840B901981130FF2804D8214680B208
:1022200000F02EF818B10123184602B010BD019934
:102230001020013100F024F8031E18BF0123E0E74D
:1022400077000320014608B5102000F031F800386F
:1022500018BF012008BD00BF10B504F091FC00209C
:1022600009F0ACFF044618B904F09EFC204610BDEE
:10227000002009F075FB04F097FC204610BD00BF5C
:1022800038B504460D4604F07BFC204629460AF08A
:102290004FFAC305044603D404F086FC204638BD3B
:1022A00009F038FC0443A4B204F07EFC204638BD9B
:1022B00009F090BDF8B54FF4805600240F4605464E
:1022C00083190470C0F80240047384601C74C3F85E
:1022D00012409C61DC8100F5005332462146C3E97F
:1022E00007445F620D300DF071FAA819324621469D
:1022F000BDE8F8401C300DF069BA00BFF0B50446E7
:1023000083B0836031B3157894462B09032B21D811
:10231000DFE803F0253A600205F00F0500F50056EE
:10232000012986F8215000F0AB809CF80130022989
:1023300086F8223000F0A7809CF8023086F823301F
:10234000002D00F0AC80012D00F09F80032204F5E9
:1023500080531A74237B012B73D003B0F0BD037834
:102360000BB1002303706B1E062BF3D801398D428D
:10237000F0D82A460CF1010104F10D0002F0F6FA42
:10238000022365802370E5E703780BB10023037017
:102390000729DFD99CF800309CF801201B0203F4C8
:1023A00070631343072BA380D4DD06220CF10201D6
:1023B00004F10D0002F0DAFA01220021062004F5F2
:1023C000005622706080B17704F58051CA813023B5
:1023D000F27F3CE00378012BBCD100F58057FA89ED
:1023E00005F00F0502F00F039D4246D14088A388F7
:1023F0001B1A9BB2072B5BD90829ABD10132FA819A
:102400004B1EDDB20D302A460CF10101204402F0D2
:10241000ADFA6388A2882B449BB29A4263804FD066
:1024200004F50056F27F002A94D0FB89013B93FB10
:10243000F2F102FB1133002B8CD1B37F43F0300358
:1024400005E004F50056B37FF27F43F0300300212E
:1024500096F8200021738DF802000320746A8DF82D
:1024600000308DF8012002F07BFA03466946706A5D
:10247000E360FFF725F903B0F0BD0023037069E7BF
:10248000002386F82230002358E704F58052137C9D
:10249000013B012B3FF65EAF022313745AE704F5AC
:1024A00080531A7C022A7FF455AF01221A7451E737
:1024B0008B42BFF44FAF0132072BFA81A1D19FE7C6
:1024C0000223237046E700BF2DE9F84300F580564C
:1024D000347C012C03D000242046BDE8F88300F5AD
:1024E00000581D4698F823300F46F12B28BF0123D2
:1024F000B1698446691A9942EDD3718AB38A99B950
:10250000072B50D81046314600F8013BB28A1C31E7
:1025100002F02CFA0322B38A01333B70B38A738230
:10252000A8F81C4032743AE010465B1A1FFA83F98F
:10253000B8F81C30B9F1070F03F00F0343F0200384
:1025400000F8013B718A01F5805101F11C016144E1
:1025500014D9072202F00AFA08233B70738A073362
:10256000738298F82220B8F81C30AAB1B3FBF2F1BC
:1025700002FB113282B9022232740DE04A4602F0A7
:10258000F5F9032309F101023A703374738A99440F
:10259000B8F81C30A6F812900133A8F81C30204679
:1025A000B561BDE8F883C3F3032343F01003137050
:1025B000B38A00F580515370901C1C31062202F042
:1025C000D5F9082306223B7002237282A8F81C402A
:1025D0003374E4E70378012B06D18268034B891A30
:1025E0009942C4BF0023037000207047400D0300D0
:1025F00030B500F5805514462A7C0B46013A012A75
:1026000093B006D8AA698A1A12498A4284BF032263
:102610002A7402AA0DF10701FFF756FF50B92B7C6F
:10262000032B02D0002013B030BD002301202B74F7
:1026300013B030BD9DF8070002F092F9E06002E0AF
:10264000012002F0ABF9204602A9FFF739F8002873
:10265000F6D1E4E7400D030000F5805CBCF81430CF
:10266000B3F5805F0FD800B500224FF0010E00F5E2
:102670000053ACF812209A838CF810E01046CCF886
:1026800018105DF804FB0120704700BF2DE9F043EE
:10269000144602780646013A1D4685B0092A11D82B
:1026A000DFE812F01C0010000A0082011000100088
:1026B0000A0010005E010A00012900F082817F22D9
:1026C000122101E07F221121032322703278A170B0
:1026D00062702B80002005B0BDE8F0830229EED1A6
:1026E00041232370437863709A2BE8D801A252F8F3
:1026F00023F000BF4B2B00082B2B0008BF2600083F
:10270000BF260008872B00087D2B0008BF26000885
:10271000BF260008BF260008BF260008BF26000805
:10272000BF260008672B0008572B0008BF260008AB
:10273000BF260008BF260008F52A0008BF260008AB
:10274000BF260008BF260008BF260008BF260008D5
:10275000BF260008BF260008BF260008BF260008C5
:10276000BF260008BF260008BF260008BF260008B5
:102770000B2B0008FF2A0008EB2A0008BF260008E0
:10278000BF260008BF260008BF260008BF26000895
:10279000BF260008BF260008BF260008BF26000885
:1027A000BF260008BF260008BF260008BF26000875
:1027B000BF260008F52A0008EB2A0008BF260008FB
:1027C000BF260008BF260008BF260008BF26000855
:1027D000BF260008BF260008BF260008BF26000845
:1027E000BF260008BF260008BF260008BF26000835
:1027F000BF260008EF2B0008E32B0008D72B0008AA
:10280000BF260008BF260008BF260008CD2B000801
:10281000BF260008BF260008BF260008BF26000804
:10282000BF260008BF260008EB2A0008EB2A000894
:10283000BF260008BF260008BF260008BF260008E4
:10284000BF260008BF260008BF260008BF260008D4
:10285000BF260008BF260008BF260008BF260008C4
:10286000C32B0008BF260008BF260008BF260008AB
:10287000BF260008B52B0008BF260008BF260008A9
:10288000BF260008BF260008BF260008BF26000894
:10289000BF260008BF260008BF260008BF26000884
:1028A000BF260008BF260008BF260008BF26000874
:1028B000BF260008BF260008BF260008BF26000864
:1028C000BF260008BF260008BF260008BF26000854
:1028D000BF260008BF260008BF260008BF26000844
:1028E000BF260008BF260008BF260008BF26000834
:1028F000BF260008A72B0008BF260008BF26000837
:10290000BF260008BF260008BF260008BF26000813
:10291000BF260008BF260008BF260008BF26000803
:10292000BF260008BF260008BF260008BF260008F3
:10293000BF260008BF260008BF260008BF260008E3
:10294000BF260008BF260008BF260008BF260008D3
:10295000BF260008BF260008BF260008912B0008EC
:1029600002297FF4ACAE49232370437863700A2BAD
:102970003FF6A5AE01A252F823F000BF1B2A0008C3
:10298000BF260008472A0008BF260008292A000899
:10299000BF260008DB2A0008BF260008BF26000863
:1029A000BF260008B32A000801297FF488AE0191F0
:1029B000FFF7EAFB019968BB337840332370298025
:1029C00088E602A8FFF73EFC20BB029B5A1C52007F
:1029D0002A80327863704032DBB22270002B3FF4E1
:1029E00079AE074604F1020904F103080CE0039BE9
:1029F0001A0E09F817201B0C9DF8082008F817304C
:102A000001379742BFF466AE384603A9FFF7D6FBFD
:102A10000028ECD07F22102156E644F2540206230F
:102A2000C4F802202B8055E601231327744EA370AF
:102A30000FCEC4F80300C4F80710C4F80B20C4F884
:102A40000F302F8046E614230120E61C3146A0708B
:102A50002B80FFF72DFCE11D05460220FFF728FC27
:102A6000034604F10B0103201D43FFF721FC03463D
:102A700004F10F010420ADB21D43FFF719FC03461A
:102A8000ADB2052004F113011D43FFF711FCADB2F7
:102A900045EA00039BB2002B3FF41CAE0023C4F8B0
:102AA0000330C4F80730C4F80B30C4F80F30E374B7
:102AB00010E60123E61C142200213046A37001F029
:102AC00051FF17224F4B03CB1B88C4F80300C4F8F7
:102AD0000710A4F80B302A80FCE5782207234A4926
:102AE000A271C4F802102B80F4E5042200232A808E
:102AF0006380EFE5032200232A80A370EAE5062223
:102B0000424B2A80C4F80230E4E504232B800BF00A
:102B1000B3FB3F4DA5FB00239B0BA3700BF0ACFB5D
:102B2000A5FB00539B09E370D4E503A8FFF78AFBDC
:102B3000002862D1039A02F07F0200230621298037
:102B4000A270E37023716371C4E50622314B2A80C1
:102B5000C4F80230BEE503222F4B2A809B8AC3F3C0
:102B60000723A370B6E504232B4A2B809388C3F375
:102B70004A13A3709388DB00E370ABE50322742350
:102B80002A80A370A6E503224C232A80A370A1E526
:102B900009204FF46062002320492880C4F8021005
:102BA000E280237296E506224FF080432A80C4F823
:102BB00002308FE506224FF080732A80C4F802307D
:102BC00088E503226D232A80A37083E50322512325
:102BD0002A80A3707EE504224BF635732A80638039
:102BE00078E5062200232A80C4F8023072E5062226
:102BF0000B4B2A80C4F802306CE500229DE700BF31
:102C000008FB000818FB00080112345680018001FF
:102C1000D34D621098188003540003200600324000
:102C2000A40C0021814204D900F17840B0F5802F36
:102C300001D30020704701F178410139B1F5802FAF
:102C40002CBF002001207047814208D9B0F1005FFD
:102C500005D3044881428CBF00200120704700202A
:102C6000704700BF00000420814211D9B0F1005F1D
:102C700010D21A4B98422AD8194B984205D91948B4
:102C800081428CBF002001207047B0F1006F0FD24D
:102C900000207047144B994201D801207047134B14
:102CA0009842F5D9124881428CBF0020012070471C
:102CB000104B9942ECD8104BB3F8E030B3F5007FDD
:102CC000EBD00E4881428CBF0020012070470C4899
:102CD00081428CBF00200120704700BFFFFFF90B2D
:102CE000FFFFF80B0080F90B000004203F2002409A
:102CF00040210240000008080005FA0B000004080B
:102D00000002FA0B00B58BB001A804F031F9059868
:102D1000AA3818BF01200BB05DF804FB00B58BB0DA
:102D200072B601A804F024F904214FF40052079B65
:102D3000019143F08063CDE9062303F021FF20B128
:102D400062B601200BB05DF804FB03F039FF0028E8
:102D5000F6D101A803F0EAFF10B903F053FFEFE743
:102D600003F042FF03F020FFEAE700BF10B58AB08E
:102D700003F006FF044603F023FF044301A804F018
:102D8000F7F804214FF48072079BE4B283F48013B8
:102D900003F48013CDE90623019134B103F024FF3D
:102DA00003F002FF01200AB010BD01A803F0BEFF2E
:102DB0000028F3D103F026FF044603F015FF044377
:102DC00003F0F2FEE4B22043C0B2003818BF012085
:102DD0000AB010BD30B58BB003F0D2FE044601A896
:102DE00004F0C6F8002380220798022110F4801F07
:102DF000CDE9033200930CBF02230123019101A806
:102E00006946029304F04AF9054603F0CDFE2843D3
:102E10002043C0B2003818BF01200BB030BD00BF46
:102E200070B503F0ADFE05460F4C104ED4E90023FB
:102E3000B3F1FF3F08BFB2F1FF3F04F5802107D097
:102E4000012003F017FF002818BF45F00105EDB27F
:102E50000834B442EAD103F0A7FE2843C0B20038D8
:102E600018BF012070BD00BF00E003080000040887
:102E7000002330B58FB0009303F082FE0223044696
:102E800005A8019304F074F80B9B042213F4801F2F
:102E90004FF07C0014BF02230123694603900DEB21
:102EA00002000492029304F0F9F8054603F07CFE58
:102EB000054344EA0500C0B2003818BF01200FB036
:102EC00030BD00BF014608B5012003F0D3FE003835
:102ED00018BF012008BD00BF704700BF094A0A4B58
:102EE00052880A491878B2F5407F087006D9B2F5C1
:102EF000206F8CBF032202221A70704701221A70C1
:102F0000704700BF7829032078000320742903202C
:102F10000022014B1A7070477E29032038B5054600
:102F20000120394B394C1B78991E81428CBF0021FE
:102F30000121A383FEF73CF8218B022089B2FF29EF
:102F400094BF00210121FEF733F823889BB20F2B99
:102F500056D8218A89B2003918BF01210420FEF712
:102F600027F8238BDBB2022B0BD0238BDBB2032B96
:102F700007D0218BC9B2A1F10401B1FA81F149094D
:102F800000E001210820FEF713F8238BDBB2032BAE
:102F900038D0218BC9B2A1F10401B1FA81F14909FC
:102FA0001020FEF705F8218B2020C9B2A1F1040101
:102FB000B1FA81F14909FDF7FBFF4FF47A71144B27
:102FC0004020A3FB05239B0901FB1355B5F5FA7FB0
:102FD00034BF00250125628B92B2FF2A94BF0021E5
:102FE00005F00101FDF7E4FF638B8020DBB2002BCD
:102FF0000CBF002105F00101BDE83840FDF7D8BF46
:103000000121ABE70121CBE7780003205400032026
:10301000D34D6210024A034B10601960704700BF25
:103020008429032080290320002300B5094A83B0A6
:10303000126801A9106801930BF038FE019B2BB1B7
:103040004FF0E0234FF08052C3F8042D03B05DF839
:1030500004FB00BF8029032038B50446094D002237
:103060002846042104F028FA074B2146012218685B
:1030700007F058F92846BDE838400122042104F041
:103080001BBA00BF0004024284290320014B1860D0
:10309000704700BF88290320704700BF00B5054B6B
:1030A00083B0186801A906F07DFF019803B05DF8B0
:1030B00004FB00BF882903200D4B02781B684032B7
:1030C00001291A7010D900B5A1F1020E10FA8EFE76
:1030D000024610F801CF724503F801CFF8D1054B35
:1030E0001B6819805DF804FB024B1B681980704750
:1030F000C4290320C029032070B50129044682B0E9
:103100000BD9457805F07F05012D14D0022D02D092
:103110007F20122503E006292CD07F2013250321D0
:10312000344B354A1B681268187020789D705870AF
:10313000118002B070BD40F26713ADF80030FFF7A8
:10314000ADFF2E4A2E4B4240C3E903021D7794F98E
:10315000013000BA002BCDF80200EADB0621254B36
:10316000254A1B680098BDF80440126818609C80CE
:103170001180DEE7224BD0F802009A69042A02D9B6
:103180007F203625CBE75E685969711A092902D874
:103190007F203725C3E7197F012902D07F2024250E
:1031A000BDE7196900BA814215D04FF0000E4FF00B
:1031B0007F0C3525032001329A610E4A0E491268B0
:1031C0005E6183F81CE082F800C0237809685370C0
:1031D00095700880ADE71D7794F90130002BA8DBCE
:1031E00040F26721034A044B12681B6811801D805E
:1031F0009FE700BFC4290320C0290320785634125A
:10320000A0290320022910B510D04FF07F0E4FF0F7
:10321000130C03210F4B104A1B68126883F800E05F
:10322000007883F802C05870118010BD437833B124
:10323000802BFAD04FF07F0E4FF0120CE9E7054AD1
:103240000378126840331370034C40782368507041
:10325000198010BDC4290320C0290320022930B5DC
:1032600010D04FF07F0E4FF0130C0321424B434A16
:103270001B68126883F800E0007883F802C0587079
:10328000118030BD437803F07F03022B2FD0032B36
:103290001BD0012B3ED10022394C3A4D23703A4BC2
:1032A0002A705A73C4E90322C4E90522227790F9EF
:1032B00001304278002BE4DB50242F4B2F481B6851
:1032C00000685A701C70018030BD304A928A92B2F8
:1032D000B2F5805F47D37F258824274A27491268A3
:1032E000096815700078947050700B8030BD274AC3
:1032F000928A92B2B2F5805F1BD37F2522240321EC
:103300001D4B1E4A1B6812681D7000789C70587017
:10331000118030BD4FF07F0C12240321164B174A49
:103320001B68126883F800C000789C705870118088
:1033300030BD00221249144CC1E90322C1E9052223
:10334000104D62730A772A7090F901200B70002AE1
:10335000417896DB5024084A08481268006851708A
:103360001470038030BD0022054C074D2370054BBF
:103370006A731A7096E700BFC4290320C02903208E
:10338000A0290320C8290320CC29032054000320AE
:10339000204B214A022910B51B6812680CD04FF04F
:1033A0007F0E4FF0130C032183F800E0007883F8C0
:1033B00002C05870118010BD184C94F800C0BCF1C8
:1033C000010F11D090F801C00CF07F0CBCF1010F7F
:1033D00012D04FF07F0C1224032183F800C0007834
:1033E0009C705870118010BD7F21032419700078E3
:1033F00099705870148010BD047840341C70447863
:103400005C70118090F90130002BD4DABDE81040D7
:1034100002F002BDC4290320C0290320A0290320F3
:10342000022910B510D04FF07F0E4FF0130C03217E
:10343000184B194A1B68126883F800E0007883F87B
:1034400002C05870118010BD427802F07F03012B3A
:1034500013D0022B04D04FF07F0E4FF0120CE6E792
:103460001206F0D40B490278096840320A700A4CFF
:10347000407822684870138010BD1406E3D4054AD2
:103480000378126840331370034C407823685070FF
:10349000198010BDC4290320C029032030B543780A
:1034A000044685B013B98378442B0FD07F204FF0AA
:1034B000310C0321354B364A1B681268187020788E
:1034C00083F802C05870118005B030BD0B2903D0BD
:1034D0007F204FF0130CECE72E4B1978022903D014
:1034E0004FF07F0C7F20E4E71B7F022B11D12A4D88
:1034F0006B7B13F0FB030FD07F2024250321234B8C
:10350000234A1B681268187020789D7058701180CB
:10351000DAE74FF0330CE5E7D0F80300AB600123A6
:103520002B73D4F8073000BA1BBA1918019228601F
:103530006B60FFF777FB28B3154B144918686B686D
:10354000096813F0070F019A0BD07F234FF0700C1E
:103550000B70032394F800E081F802C081F801E0C9
:1035600003802378202440338DF80C304FF20F0372
:103570006A7304228DF80D40ADF80E30039B0B608A
:103580000280A1E77F203125B8E700BFC4290320CE
:10359000C0290320A0290320CC290320012970B5CC
:1035A0001FD9427802F07F03012B10D0032B1CD0CF
:1035B0004FF07F0C12240321394B3A4A1B681268E2
:1035C00083F800C000789C705870118070BD02298B
:1035D0002AD08378103B032B51D8DFE803F04C4A04
:1035E000444E4FF07F0C1324E5E72F4C217869B14E
:1035F000120626D402212A4A037812684033137037
:10360000284C407823685070198070BD4FF07F0CB3
:103610002224234A23491268096882F800C00078EE
:10362000947050700B8070BD7F25132403211C4BB8
:103630001C4A1B6812681D7000789C7058701180BD
:1036400070BD0123194D2E782B70FDF7C7FF4FF485
:103650007A7009F071FDF6B22078FDF7C5FFFDF72D
:10366000E9FE2E7070BD36230F490B701306C1D5CD
:1036700070BD3523F8E73423F6E73823F4E77F22DB
:10368000002631240321064B074D1B682E701A704B
:10369000044A0078126858709C70118070BD00BF99
:1036A000C4290320C0290320C82903207600032051
:1036B000042910B504460ED07F204FF0130C0321CF
:1036C000144B154A1B6812681870207883F802C0E2
:1036D0005870118010BD4378FF2B03D07F204FF02E
:1036E000310CECE78378FF2BF8D1C378FF2BF5D1B1
:1036F000FEF74AFD18B17F204FF0720CDFE7012181
:1037000004482378044A006812684033037011802B
:1037100010BD00BFC4290320C029032038B50024F0
:103720000122094B09490A4D4C73586009490A485E
:10373000C3E90344C3E905442C701A701C77FEF7F3
:10374000B9FD204638BD00BFA0290320CC290320A5
:10375000C82903207C000320549F0120114B0146FF
:103760001A78032A02D01048FEF734BF41F288309D
:103770005A688A1A8242F6D900224FF0010C10B41E
:103780000A480B4C4273227083F800C01A7706482F
:103790005DF8044BC3E90322C3E905225960FEF733
:1037A00019BF00BFA0290320549F0120CC2903206A
:1037B000C82903200146024A0248FEF719BF00BF8C
:1037C000A0000320549F012040F2E37C2DE9F0414A
:1037D00000260446006882B060450F4698468DF882
:1037E0000560ADF8066007D040F2DF7398423BD029
:1037F000002002B0BDE8F081E068154601F0AAF8AB
:103800003A4C01462B4620463A46FEF777FD25788E
:10381000022DEDD14FF0FF3301220DF10501D8F853
:1038200000008DF805600AF065F92A464FF0FF3375
:103830000546A11CD8F800000AF05CF902464FF0DA
:10384000FF331544D8F80000628804F10D010AF036
:1038500051F9638805440333AB4201D0FDF79CFB6B
:10386000002323700120C4E7E06801F073F800280A
:10387000BED03D78002DBBD005F0080353EA1513E8
:10388000B6D1E06801F066F8431E9D42B0D801222F
:1038900017F8014B4FF0FF330DF1050104F00F0451
:1038A000D8F800008DF80520ADF806400AF022F99E
:1038B0004FF0FF33022204460DF10601D8F8000054
:1038C0000AF018F902464FF0FF3314443946D8F88D
:1038D0000000BDF806200AF00DF9BDF806300444DA
:1038E0000333A342BED0FDF757FBBBE7549F012033
:1038F0002DE9F04F00241D4691B01A9B9B4F1C8070
:103900009B4E0C469B499146336048603D60002ABF
:1039100000F0828022780F2A40F28D80103A772AB8
:1039200000F28680DFE812F09200990084008400A3
:10393000A0008400840084008400A7008400840028
:10394000840084008400840084008400CD00D300BF
:103950008400840084007B0184008400840084004F
:103960008400840028018400840082018400840093
:10397000C90109020F02FD01840084008400840053
:1039800084003B01EF018400DC018400840084009A
:103990008400840084008400840084008400840007
:1039A00084008400840084008400840084008400F7
:1039B00084008400840084008400840084008400E7
:1039C00084008400840084008400840084008400D7
:1039D00084008400840084008400840084008400C7
:1039E00084008400840084008400840084008400B7
:1039F00084008400840084008400840084008400A7
:103A00008400840084008400840084008400840096
:103A10008F00F60184001B017F21227013200322F6
:103A200029702178A87069701A8011B0BDE8F08FF4
:103A30007F211120F3E72A464946204611B0BDE810
:103A4000F04FFEF723BE7F211220E8E749462046CB
:103A500011B0BDE8F04FFFF701BC4946204611B058
:103A6000BDE8F04FFFF794BC4946204611B0BDE8D1
:103A7000F04FFFF71DBEB9F1020F26D959222A7067
:103A800004226178AA706970627802F07F02012ACC
:103A900000F0B483022A00F0B9837F2212212A7039
:103AA00003222078A97068701A8094F90130002BE5
:103AB000BBDA3B681B787F2BB7D0002233681A80B3
:103AC000B3E7B9F1030F00F0AE827F21A6E7B9F1A9
:103AD000010FFAD0627802F00F000428B3D102F08F
:103AE000F0004028AFD80978012950D01209911D63
:103AF0008945EAD1D4F80290002A00F00B854FF0F6
:103B00000008013AD200601D10F8011F9140083AE8
:103B100012F1080F48EA0108F6D140F6FE7290450E
:103B200000F2EE8099FA89F5284608EB0501FFF7C7
:103B30009BF8002800F0D58521783B68403119704A
:103B4000EA1A03EB080102E0D05C03F8010F994286
:103B5000FAD1336808F10108A3F8008065E7494607
:103B6000204611B0BDE8F04FFFF718BDC42903206F
:103B7000C0290320A0290320B9F1020FA5D991F88B
:103B80000080B4F80120B8F1020F00F011837F2209
:103B900003212A702078AA706870198045E7B9F16E
:103BA000010F92D0627802F00F0004287FF44BAF2F
:103BB00002F0F00040283FF646AF1209501D48457C
:103BC00083DA002A00F058854FF0000802F1FF3C2C
:103BD0004FEACC0C04F1050E1EF8010F00FA0CF0B0
:103BE000ACF1080C48EA00001CF1080F1FFA80F83D
:103BF000F2D102F1060A0AEB080291457FF465AFA3
:103C00000878D4F80220022800F0E4847F227F2084
:103C1000032128702078AA706870198005E749464A
:103C2000204611B0BDE8F04FFFF766BAB9F1030FB7
:103C30007FF64BAF94F901006278002840F2222011
:103C4000BCBF02F07F0262706288B8BF4FF001080B
:103C500052BA92B2A8BF4FF00008824200F33983F3
:103C6000B2F5007FC0F28380A2F50072222A7ED8CE
:103C7000DFE812F0640154017201F90052013101D0
:103C8000D000B800BA018501A001EC007D007D00E4
:103C90007D007D00190109017D007D007D007D0012
:103CA0007D007D007D007D007D007D007D007D002C
:103CB0007D007D0098019F009200B64AB2F8E02096
:103CC000B2F5007F7FF4B4AEB9F1020F7FF6FDAE1E
:103CD00001224946204611B0BDE8F04FFFF7DEBB98
:103CE000B9F1040F7FF4F1AE6278772A7FF4ABAEBE
:103CF0000A78012A3FF44BAFA278132A00F07083B0
:103D00007F2131208BE64946204611B0BDE8F04FB7
:103D1000FFF778BA4946204611B0BDE8F04FFFF7EB
:103D20007FBBB9F1010F7FF4D0AE9B4A517B0329D1
:103D300000F0C6827F21242071E6B9F1020F7FF6E0
:103D4000C4AE0222C5E7B9F1010F3FF4BEAEDFF801
:103D5000488298F80D20012A00F01182022AE9D148
:103D6000B9F1020F00F0D8827F21712057E67F223F
:103D70002A7022786A703122AA7003221A8033686E
:103D8000B8F1000F3FF451AE3A6812787F2A3FF441
:103D90004CAE00221A8048E6B9F1070F00F06F849C
:103DA0007F222A7022786A701322AA7003221A8056
:103DB000E5E7B9F1050FF3D12079FDF763FCFDF7D5
:103DC00039FB0A2009F0B8F9042122783B68403217
:103DD0001A7062785A70A2789A70E278DA70336852
:103DE0001980CCE7B9F1040FDAD16278012A00F02A
:103DF0009D84022A66D10021684A117022784032DF
:103E00002A7062786A70A278AA70E278EA70042256
:103E10001A80B4E7B9F10B0FC2D96568D4F80890DD
:103E20002DBA99FA89F9284609EB0501FEF71CFF1E
:103E3000002840F09E847F22312003213B681A70C5
:103E400022785A7032689870118098E70A7F022AA7
:103E500000F0F0837F222A7022786A703322AA70E1
:103E600003221A808BE77122611C2A70A9F10202D9
:103E700011FA82F214F8011FA24205F8011FF9D1CC
:103E8000A3F800907BE7B9F1040F89D10A78022AE0
:103E900000F01A847F227F2129702178AA700322E2
:103EA00069701A806BE7B9F1040F7FF479AF0A7873
:103EB000022AEFD10A7F022A40F035846278012A73
:103EC00000F038847F222A7022786A701222AA7049
:103ED00003221A8053E7B9F1060F7FF461AF40F671
:103EE000FB71A28852BA92B28A423FF640AF71216A
:103EF0002846297061786970A178A970E178141F4B
:103F000000F8031F002102E000F8011F0131A14267
:103F1000FADB04321A8032E7712271E7FEF7A8FF5C
:103F2000002800F04B837F22722003213B681A7027
:103F300022785A7032689870118020E7B9F1040F26
:103F40007FF42EAF6278012A00F0BA83022AB9D139
:103F50000021134A117051E7FEF762FF0028E2D1F9
:103F600001232278396840320A70E25CCA54013376
:103F70009AB29145F9D83368A3F80090FFE60A7F1A
:103F8000022A7FF467AFBFF34F8FBFF36F8F631DBC
:103F9000984719E70005FA0BCC2903207E29032056
:103FA00076000320B9F1070F7FF4FAAE201DFDF76C
:103FB0005BFB04E70A7F022A7FF44CAF40F6FA71FC
:103FC000A9F1050292B28A4240F200847F222A704F
:103FD00022786A701322AA7003221A8033681A8822
:103FE000002A3FF422ADCBE6B9F1080F7FF4D8AE3A
:103FF0006278012A7FF466AFE279042A7FF4B7AED3
:10400000A0792379000240EA0360637940EA034023
:1040100040F00400FEF7EEF8002884D10421204689
:10402000FFF74AF8DAE70023B4F801E002AD9EFAA0
:104030009EF080B2A0F5007CBCF5007F029394F85E
:104040000180C5E90133C5E90333A278C0F01081CE
:104050004FF29013984212D84FF28313984240F2D5
:104060001981A0F5714084380C2808D8DFE800F0E9
:1040700076076B62070707075907070712007F20BB
:1040800031253B6832680321187020789D70587084
:104090001180CAE429460120FEF70AF903A98046E7
:1040A0000220FEF705F904A948EA00080320FEF7FC
:1040B000FFF81FFA88F848EA000805A90420FEF76F
:1040C000F7F81FFA88F848EA000806A90520FEF765
:1040D000EFF81FFA88F848EA0008294611221FFA6B
:1040E00088F50DF11F0000F041FC002DC7D14FF005
:1040F00014092378A27840338DF81C3063788DF84A
:104100001D303B688DF81E2009EB030007AA12F84A
:10411000011B03F8011B8342F9D13368A3F8009017
:1041200083E40C22C2490DF11F0000F01FFC4FF088
:104130000F09DEE70422BF490DF11F0000F016FC55
:104140004FF00709D5E70B784FF004098DF81F30C1
:1041500062238DF81D808DF81C30D2E70C22B64901
:104160000DF11F0000F002FC20230922B3490BA827
:104170008DF82B304FF0190900F0F8FBB9E7A9F1E1
:1041800002091FFA89FA19F007097FF4EDADD8F892
:104190000820D8F8041052448A423FF6E5AD98F85A
:1041A0000C1062788A4200F0B8817F21732036E4D7
:1041B0004FF2841150BA80B220F0080C8C453FF4C5
:1041C0009FAD49F2F1018A4200F03E81B9F1070F3B
:1041D0007FF47BACD4F8031009BAFEF751F803461C
:1041E0003A683168002B00F07F817F20722503231D
:1041F00010702078957050700B8016E4B9F1030FA1
:1042000000F0DD807F2213212A7049E4B9F1030F09
:10421000F8D1002307A8EB70FEF714F880460028B9
:104220006ED1079B002B00F06F81824602AD14E037
:104230009DF80B203B6803F80920BDF80A2003F81D
:104240002A20029A4B44120A9A70029ADA70079B4B
:1042500009F10409534540F2388150462946FDF7DB
:10426000ADFF0AF1010A0028E2D04FF00108EEE7A5
:104270002946FEF71DF8002800F081807F213120BB
:104280003B6832681970217898705970A2F80090D4
:10429000FFF7CBBBBEF5007F00F0098144F2772326
:1042A0009E4500F0FB80BEF5807F7FF4E8AE1322D0
:1042B00063490DF11F0000F059FB4FF0160918E794
:1042C000042349462046537311B0BDE8F04FFEF772
:1042D000F3BEB2F57F4F00F094804FF6017082423A
:1042E0007FF445ADB9F1040F7FF45AAD6278012A2D
:1042F0007FF4E8AD0A78022A00F0D1817E22CAE577
:104300007F223B681A70722221789A705970336844
:10431000A3F80090FFF7C9BB98F80C1062788A42A6
:104320007FF443AF013288F80C20227840322A70A3
:104330006178002205F8011FD8F808100EE0D8F8BF
:1043400000000132415CB2F57F6F05F8011FD8F81B
:10435000081001F10101C8F8081004D0D8F80400D1
:104360008842ECD892B2D8E90110023288421A8011
:10437000FFF45BAB032388F80D30FFF756BB2378BF
:10438000627840338DF81C30A37829468DF81D20C3
:104390000DF11F0004228DF81E3000F0E7FA3A6894
:1043A0000DF11B01531E063211F8010F03F8010F26
:1043B0009342F9D1072233681A80FFF736BB0023F6
:1043C00007A8EB70FDF73EFF002899D1079B3A68DC
:1043D00053711B0A1371062233681A80FFF765BBFD
:1043E000E278372A7FF48CAC80232846142200F828
:1043F000013B144900F0BAFA152233681A80FFF71E
:1044000014BBB9F1040F7FF4CBAC6278012A7FF4BE
:1044100059AD0A78022A7FF471AF0A7F022A40F070
:104420008281FEF7D7FC00287FF47DADF6E500BF62
:104430009005FA0B7CFB000864FB000870FB000889
:1044400024FB000898FB0008B9F1140F7FF43DAB82
:10445000D4F803100120FDF713FFD4F80710054628
:104460004046FDF70DFF0346D4F80B1003201D4313
:10447000FDF706FF0346D4F80F100420ADB21D432C
:10448000FDF7FEFE0346E17C0520ADB21D43FDF7BE
:10449000F7FEADB245EA00039BB2A1E61522C24980
:1044A0000DF11F0000F062FA4FF0180921E60B7FB2
:1044B000022B00F0B68042F23F23332242F27F21EA
:1044C0002380ADF81C10A2701BE63268B8F1000F13
:1044D0001AD07F213B6872201970032125789870CB
:1044E0005D701180FFF7E1BA2378607840338DF872
:1044F0001C3003238DF81D00BDF81C50A0781580DA
:1045000090700B80FFF791BA32689B0003331380E1
:10451000FFF7CBBA9046FFF705BB013288F80C20B5
:1045200002F02EFBBAF1000F00F01B814D46A146B0
:10453000AB4699F8043099F805201B0403EB02639D
:1045400099F8032099F8081003EB022399F8092041
:10455000090401EB026199F80220D8F8080013441D
:104560001BEB030299F8073009F1080901EB03235B
:10457000D8F80010084419F8021C00F580200B44FC
:10458000FEF7A0FC45EA0003DDB2D8F80830083396
:10459000C8F80830A9EB04039A45CAD802F004FB16
:1045A000D8E901329A4202D3032388F80D303B68E0
:1045B0003268002D68D07F20722564E501232278BF
:1045C000396840320A70E25CCA5401339AB29145AC
:1045D000F9D8D0E4097F022940F0218115BA284694
:1045E00005EB0801FEF730FB00283FF448ADB8F1B9
:1045F000020F00F01081B8F1040F00F00881B8F14B
:10460000080F00F0FD806FF00603E21D1B1B02E0A7
:1046100012F8011F297099184145F9D351462046D7
:1046200052E6132261490DF11F0000F09FF94FF08F
:1046300016095EE540F6FA71A9F1050292B28A42C6
:104640003FF6AEAB0022211D594804F80920019322
:104650000BF048F957495648FBF7F2FD00283FF4A4
:10466000DDAC7F222A702278019B6A703122AA7009
:1046700003221A80FFF783BB9046FFF7BABA201DCA
:10468000FDF708F8FFF79BBB022023783A686478AF
:1046900031684033137054700880FFF7C6B90A7F41
:1046A000022A40D1444A527B042A14D07F222A7025
:1046B00022786A702222AA7003221A80FFF75FBB59
:1046C0003E490A70FFF79ABB0A7F022A2BD1627813
:1046D000012A7FF4F7ABFEF749FB00287FF423ACF7
:1046E0009CE4374B396899450AD07F203125032255
:1046F0000870207833688D7048701A80FFF795B97C
:10470000B8F1110FF1D822780B4640320A702D48CB
:1047100001EB080203E010F8011B03F8011F9342AC
:10472000F9D1FFF716BA3322FFF7B5BB26490A7055
:10473000FFF764BBFEF7E6FA80B9FEF7EFFA3268DE
:1047400000283FF46BAC7F20722503213B68187072
:1047500020789D7058701180FFF711BB0BF030F975
:10476000EDE702F021FAD8E901329A428CD355469E
:104770001AE749462846FDF7D9F808250346227866
:10478000396840320A7062784A70A2788A70E2789A
:10479000C871CA70000E32680871180CEB4048717D
:1047A0008B711580FFF7EBBA4CFB000838FB000853
:1047B0008C29032070010108CC29032076000320F6
:1047C0000123456784FB00087E2903200022211D68
:1047D00004F8092007A801930BF084F8114907A8F1
:1047E000FBF72EFD019B00283FF418AC7F222A70B6
:1047F00022786A703122AA7003221A80FFF7EEBB7A
:10480000A168E0680BBA02BAC5E9002306E7A3680D
:104810001BBA2B6002E723895BBA2B80FEE63322AA
:10482000FFF7F5B97001010870B400242D4D039E07
:104830002B602D4D34802E602C4D8C461C4611462D
:104840006860B2B19CF800200F2A1FD9272A23D80C
:10485000103A172A2AD8DFE802F0383429293029FB
:1048600029292929292929292929292929292929B8
:10487000292C8CF800107F221321032322709CF82E
:104880000020A1706270338070BC704733462246AE
:1048900070BC6046FDF7FABE852A1ED0872A18D064
:1048A0003E2A03D170BC6046FEF7ACBC7F221121CA
:1048B000E3E7604670BCFEF71FBC604670BCFEF7C5
:1048C000F7BE604670BCFEF763BD604670BCFEF785
:1048D000C5BC604670BCFEF761BE604670BCFEF7AA
:1048E0009FBD00BFC4290320C0290320A0290320A5
:1048F00038B5049A12884AB11978512907D0C729C6
:1049000004D1012A02D05B78032B08D038BD4FF4C4
:10491000FA7008F011FCBDE8384001F07DBA4FF4A0
:10492000FA7008F009FC0123084C25782370FCF785
:1049300055FE4FF47A7008F0FFFB054BEDB2187886
:10494000FCF752FEFCF776FD257038BD760003209B
:10495000C8290320014BC0B2185C704780010108D0
:10496000704700BF0AB10AF031BF70474AB1013A3F
:104970004B1E0138114413F8012F8B4200F8012F10
:10498000F9D1704708B503782BB10130FBF762FC11
:10499000013080B208BD184608BD00BF4FF47A72DE
:1049A00002FB00F0024BA3FB0030800908F0C4BBFF
:1049B000D34D621000220146034B1046C3E9032287
:1049C0001A7059601A817047E4290320084B1A783D
:1049D0005AB14EF660215A68821A8A4205D90022DD
:1049E000C3E9032258601A701A810020704700BF83
:1049F000E429032038B5D0B20C46FFF7B1FF074DCC
:104A0000E86002E00A2008F097FB21462846FCF700
:104A100057FE0028F6D1012038BD00BFB4010320A5
:104A200040F2565230B51C46036883B0934202D020
:104A3000002003B030BDC0680D46FFF78BFFADF816
:104A400006000028F4D04FF0FF33022220680DF159
:104A5000060109F04FF884464FF0FF3320682946DD
:104A6000BDF80620644609F045F8BDF80630044458
:104A70000233A34201D10120DBE7FCF78DFAFAE70C
:104A80002DE9F041069EDFF850814F4F4F4D3E60BB
:104A90006860C8F8003042B10C46FF2119702178D7
:104AA000FF290ED02878012801D0BDE8F081F53922
:104AB00009291BD8DFE801F0203C1A1A1A2B1A5AD0
:104AC0004452012A01D06278DAB9002201214FF460
:104AD000807408203E4FC5E903222A812970C3F85B
:104AE0000170A3F80540D9713080DEE742F2FE0183
:104AF000022219803280D8E7012A1BD06178072969
:104B00003FD942F2FE21022219803280CDE7012AEC
:104B100010D06278002AF4D14FF080600821A3F809
:104B20000520DA712B4AC3F8010031802A61BCE705
:104B3000082A20D042F2FE11022219803280B4E706
:104B4000002159702A7A0620013A18BF0122120169
:104B5000D970197159719A703080A6E7002301222B
:104B6000C5E903332B702B8132809EE7FE210222A0
:104B70001980328099E7012263681BBA2B61328069
:104B800093E728690144FEF76FF8012808D042F244
:104B9000FE200222D8F800103B6808801A8084E7C3
:104BA000617869B10023D8F800002A6912780133CE
:104BB000DBB2C2542A6901322A6161789942F5D880
:104BC0003B680131198070E7DC290320E4290320C8
:104BD0000000080890010108E029032010B50F4BE0
:104BE00082B0186E002240F0010018661C6E07218A
:104BF00004F001040094009C9C6D6FF0010044F0EF
:104C000080549C659B6D03F080530193019B01F0E0
:104C1000A7F802B0BDE8104003F058BF00100240F2
:104C200070B500210446ACB0942207A8CDE902116A
:104C3000CDE9041106910AF0C9FD324B22689A426F
:104C400001D02CB070BD03234FF480424FF080514F
:104C5000CDE907230993182211232791CDE90A23CF
:104C6000022108224FF0807307A8CDE90D230C9193
:104C700004F008FE00283BD1234B0026DA6C02A981
:104C800042F40052DA64DA6C204D02F400520092D1
:104C9000009ADA6C42F00102DA64DB6C322203F033
:104CA00001030193032301981948CDE902230496D7
:104CB00002F04AFA80224FF480730521C5E90362AD
:104CC0006B614FF480622023C5E901161149284623
:104CD000C5E906232E62296001F052F970B910214E
:104CE0000A4801F0FFFA30B92565AC622CB070BDFE
:104CF000FCF752F9C0E7FCF74FF9F5E7FCF74CF980
:104D0000EDE700BF00800242001002402827032088
:104D10000000024208040240094B02689A4200D097
:104D20007047A3F500539A6C82B042F480529A64A3
:104D30009B6C03F480530193019B02B0704700BF4A
:104D4000003002400000000010B500210446ACB065
:104D5000942207A8CDE90211CDE9041106910AF0C9
:104D600035FD274B22689A4201D02CB010BD4FF080
:104D700000724FF0807307A80792219304F082FD20
:104D8000002832D19FED1A6B9FED1B7B09241D4B30
:104D900002A9DA6D1C4842F40072DA65DA6D02F499
:104DA00000720092009ADA6C42F00202DA64DB6C64
:104DB0008DED026B03F0020301938DED047B019BEB
:104DC000069402F0C1F900220521272000F0C8FF57
:104DD000272001F001F800220521282000F0C0FF63
:104DE000282000F0F9FF2CB010BDFCF7D5F8C9E77A
:104DF00000030000020000000000000000000000AE
:104E000000A40040001002400004024208B50268FD
:104E10000A4B9A4200D008BD094A4FF44071D36D45
:104E2000084823F40073D36502F09EFA272000F0AF
:104E3000E1FFBDE80840282000F0DCBF00A40040EE
:104E4000001002400004024210B50446A6B09422AD
:104E5000002101A80AF0BAFC114B22689A4201D045
:104E600026B010BD4FF4802301A8019304F00AFD81
:104E700098B90C4B0022D86C052140F48020D864EE
:104E8000DB6C5E2003F480230093009B00F068FF3E
:104E90005E2000F0A1FF26B010BDFCF77DF8E8E72A
:104EA00000080C4200100240F0B50024414B02689B
:104EB00089B09A42CDE90244CDE90444069401D078
:104EC00009B0F0BD03F5EC339A6D052642F480423B
:104ED0009A659A6D032702F480420092009ADA6C78
:104EE000054642F00202DA64DB6C4FF4204203F024
:104EF00002030193022301992F4802A9CDE902235D
:104F0000CDE9057602F020F902224FF48043CDE985
:104F100002320123284802A906960493059702F05D
:104F200013F980230E211022244EC6E90343244B9B
:104F30003046C6E90112C6E90544C6E907443360B4
:104F400001F01EF848BB10211C4801F0CBF968BBEA
:104F5000002380220D211B4C6E65C4E90233C4E995
:104F60000423C4E906332362174B2046B56261600F
:104F7000236001F005F8B0B91021124801F0B2F930
:104F800070B9002205213C20AC65A56200F0E8FE66
:104F90003C2000F021FF09B0F0BDFBF7FDFFD2E798
:104FA000FBF7FAFFEDE7FBF7F7FFE5E7FBF7F4FFA9
:104FB000CEE700BF0038004000040242D82403209E
:104FC00008000240702403201C00024000B5224A61
:104FD000036885B0934215D0204A934227D0204AD7
:104FE000934202D005B05DF804FB1E4B1A6E42F4EA
:104FF00000321A661B6E03F400330393039B05B063
:105000005DF804FB174B0022986D052140F010005D
:1050100098659B6D312003F010030193019B00F014
:105020009FFE312005B05DF804EB00F0D5BE0D4BBE
:105030000022986D052140F0200098659B6D32207C
:1050400003F020030293029B00F08AFE322005B099
:105050005DF804EB00F0C0BE0010004000140040FA
:10506000004401400010024010B500210446ACB0DD
:10507000942207A8CDE90211CDE9041106910AF0A6
:10508000A5FB214B22689A4201D02CB010BD4FF4F1
:10509000005307A8079304F0F5FB50BB9FED166B78
:1050A0009FED177B0A22194C02A9E36C184843F0C4
:1050B0000103E364E36C8DED026B03F001030093E5
:1050C0008DED047B009B069202F03EF8E36D00221A
:1050D00043F40013E365E36D052103F4001301932A
:1050E0004920019B00F03CFE492000F075FE2CB0E9
:1050F00010BDFBF751FFD1E70018000002000000CF
:10510000000000000000000000D400400010024039
:105110000000024210B5014688B000222A2000F0AB
:105120001FFE2A2000F058FE154B01A91A6E03A895
:1051300042F400621A661B6E124C03F40063029381
:10514000029B04F097FA04F07DFA0346002140F236
:10515000E7300D4A2161A2FB0323A1609B0C0B49A0
:10516000E060013B20462160636005F0CBFB10B19D
:10517000012008B010BD204605F062FA08B010BD4D
:1051800000100240F829032083DE1B43002C01405D
:10519000FEE700BFFEE700BFFEE700BFFEE700BF7F
:1051A000FEE700BF704700BF014801F029B800BF0B
:1051B000D8240320014801F023B800BF7024032045
:1051C000014801F015BC00BFA0260320014801F0F2
:1051D0000FBC00BFA0260320014805F077BA00BF2E
:1051E000F8290320014805F071BA00BF24240320E8
:1051F000014805F06BBA00BFD8230320014802F034
:1052000061B900BF4C260320014802F005BB00BF76
:105210004C260320014805F029B900BF4025032092
:10522000014805F03DBC00BFB8250320014802F04D
:105230002DBD00BFB0200320014800F0E1BF00BF3A
:1052400028270320014804F02BBE00BFA42503201B
:10525000034AD2F8883043F47003C2F888307047AC
:1052600000ED00E0254B25491A682548120754BF78
:10527000D3F894301B688A6858BFC3F3032302F045
:105280000C0248BFC3F30313082A50F823300FD091
:105290000C2A0FD01B49042A08BF0B46174A1A488C
:1052A00092681A49C2F30312825CD3400B607047C4
:1052B000174BF3E7C868CA6800F00301C2F3031292
:1052C000022902F1010211D0032913D0B3FBF2F13C
:1052D0000A4AD368D268C3F3062301FB03F3C2F37F
:1052E000416201325200B3FBF2F3D7E70549B1FB4B
:1052F000F2F1EDE70649B1FBF2F1E9E700100240F7
:10530000980101080024F400E0010108D8010320FD
:1053100080969800DFF834D0FFF79AFF002103E071
:105320000B4B5B58435004310A480B4B42189A42CE
:10533000F6D30A4A02E0002342F8043B084B9A42A3
:10534000F9D30AF0A9FAFBF7F1FAFEE7000004200E
:105350001002010800000320400303204003032043
:1053600088570320FEE70000042010B500F0E6FC9B
:10537000FFF778FF0020FFF7CDFE10B10124204693
:1053800010BD0446FFF72AFC204610BD034A044B1B
:1053900011681B780B441360704700BF442A032038
:1053A000DC010320014B1868704700BF442A03202A
:1053B000002330B583B00193002800F09880856DFC
:1053C0000446002D00F09880226893689D0005D562
:1053D000936823F0204323F03F0393609368D80041
:1053E00019D45A4B5A481B6891689B09A0FB0303C8
:1053F00021F010419B0921F03F0101335B0041F096
:10540000805191600193019B2BB1019B013B019362
:10541000019B002BF9D19368D9006BD40120A36DB7
:1054200043F01003A365E36D0343E365936813F052
:10543000040FA36D57D1DB0655D4A36D23F48173FC
:1054400043F00203A3659368DD0708D4414B9B68D2
:1054500013F0010F404B9B6801D1D9075FD5E56878
:10546000636B94F820102B43A568012943EA0503D8
:10547000657E43EA453343EA01434BD0A16A21B13B
:10548000E56A01F4707129430B43D568334929401B
:105490001943D16093681B0716D494F83030257EE9
:1054A000D1685B0043EA8533E56C21F4804121F04B
:1054B00006012B430B43D36094F83830012B36D0D0
:1054C000136923F0010313612369012B1AD0136BB5
:1054D00023F00F031363A36D23F0030343F00103D1
:1054E000A36503B030BDA36D43F01003A365012095
:1054F00003B030BD002099E7FFF792FBE56584F823
:10550000545061E7116BE36921F00F01013B0B433C
:105510001363E0E7616A013943EA4143AEE71049AA
:1055200065688B6823F47C132B438B6097E71169C4
:10553000E36B256C6FF38A012B430B43616C0B43C8
:10554000A16C0B4343F001031361BDE7D8010320B5
:10555000632D3E05008002420081024207C0F0FF39
:1055600000830242704700BF704700BF08B5806AE1
:10557000FFF7FAFF08BD00BF704700BF836A10B590
:105580009A6D12F0500F9A6D1DD1196842F4007295
:105590009A650A6812F0080FCA681BD012F4406FAF
:1055A0000DD1CA6894040AD49A6D22F480729A6567
:1055B0009A6DD10403D49A6D42F001029A6518469F
:1055C000FFF7D0FF10BDD2060AD4BDE810401B6D16
:1055D000DB6B18479007E7D51846FFF7C3FFF1E7E5
:1055E0001846FFF7C9FF10BD806A08B5836D43F008
:1055F00040038365C36D43F00403C365FFF7BCFF3D
:1056000008BD00BF0022F0B583B0019290F854208D
:10561000012A00F0F480034601201A6883F8540040
:105620009068400709D501209A6D42F020029A65E2
:10563000002283F8542003B0F0BD1F24486802F113
:10564000300500F01F0C4FEA901E08680EF00C0E9B
:10565000C0F3846000FA0CF004FA0CFC55F80E401C
:1056600024EA0C0C40EA0C0045F80E00906810F09B
:10567000040F906835D1070733D4072408688D6874
:10568000C0F30456B440C00DB5F1004F6FEA0404F6
:1056900000F0040000F0008102F11407B5403E580C
:1056A00034402C433C50506920F000405061D1E917
:1056B0000464042ED568086800F0BB80C5F3C105FA
:1056C0006D0002F1600757F826C0AC40BA4D00F0FB
:1056D000F8400CEA050505432C4344F0004447F824
:1056E00026409068C60738D4CE680C68B348D2F814
:1056F000B05006F01807F840C4F31207204025EA1E
:1057000007052843C2F8B000AD48864227D0AD490E
:105710000C4222D0AC48AD4986688D68ED0771D443
:10572000AB4DAD68EF073FF57EAFAA4D06F0E077D1
:10573000AC4200F06981A84DAC4200F08981A74DD0
:10574000AC420AD1740208D48A4206D1826822F09F
:10575000E0723A4342F480028260002068E7002F42
:1057600053D094FAA4F0002800F0A080B0FA80F0A2
:10577000013000F01F00092840F2988094FAA4F04C
:10578000002800F08181B0FA80F00130800600F03E
:10579000F84094FAA4F5002D00F06A810126B5FACC
:1057A00085F5354405F01F0506FA05F5284394FAFA
:1057B000A4F4002C00F05A81B4FA84F56FF01D06B1
:1057C0000324013505F01F0514FB0564240544F08E
:1057D000007407272043C50D8E6805F0040502F10B
:1057E000140C5CF80540C0F30450864007FA00F042
:1057F00024EA000030434CF805000C6887E70220DB
:1058000003B0F0BD724A92680DE70120A40E013486
:1058100004F01F06A40604F0F845B040092E06EB7C
:10582000460440EA050066D91E3C240544F0007495
:10583000CFE7146E146EC0F31205C4F38464002D18
:105840005BD1C0F38466B44200F08F80546E556E15
:1058500002F16004C5F3846502F1640CB54200F006
:10586000BF80A568A56804F10807C5F38465C0F387
:105870008466AE4200F08D80E568E56804F10C06B0
:10588000C5F38464C0F38460A0427FF42AAF30681B
:1058900020F00040306024E702F1140635582C4017
:1058A0003450506940F00040506100E794FAA4F091
:1058B000002800F0F180B0FA80F00130800600F09E
:1058C000F84094FAA4F5002D00F0E4800126B5FA22
:1058D00085F5354405F01F0506FA05F5284394FAC9
:1058E000A4F4002C00F0D380B4FA84F4013404F062
:1058F0001F0404EB440424056BE790FAA0F51DB1E6
:10590000B5FA85F5AC4230D0546E556E02F16004A4
:10591000C5F3846502F1640C90FAA0F604F108075F
:10592000BE46002E00F0AB80B6FA86F6AE4259D0E5
:105930003D683D68C5F3846590FAA0FC04F10C064F
:10594000B646BCF1000F00F09580BCFA8CFCAC456B
:1059500021D034683468C4F3846490FAA0F000283D
:105960003FF4BFAEB0FA80F08EE71446106E02F13D
:10597000640C20F0004044F8600F506E0868556ECB
:10598000C0F31206C5F38465002EC5D1C0F384664A
:1059900064E704F10C0E3868764620F00040386069
:1059A000E0680868E468C0F31205C4F38464002D5D
:1059B0003FF468AFD1E700BF00F0FF03FFFF07002F
:1059C00000007F4000000880008302420080024205
:1059D00000810242000052C7000084CB0100008019
:1059E00004F1080EDCF80000774620F00040CCF807
:1059F0000000A0680868A568C0F31206C5F38465B6
:105A0000002E3FF434AF97E736023FF5A6AE8A4248
:105A10007FF4A3AE8268224922F0E0723A4342F456
:105A2000000282600A681F499209A1FB02129209D2
:105A3000013202EB420292000192019A002A3FF4E5
:105A40008CAE019A013A0192019A002AF9D184E6BA
:105A5000F5013FF582AE8A427FF47FAE826822F084
:105A6000E0723A4342F08072826076E60E4CB0E615
:105A700002259BE6E568E468C4F384646DE7A568E5
:105A8000A568C5F3846557E74FF0806081E64FF461
:105A900040149EE6022521E74FF0806011E700BF29
:105AA000D8010320632D3E05000050FE002370B591
:105AB00082B0019303689A68D2072CD49968284A67
:105AC000044611422AD19A68264922F0004222F067
:105AD0003F0242F001029A608B681B0229D4FFF753
